:02000002B0004C
:1040000000400B00EE6E0B00000006000C000502E5
:0840100004018C130000000004
:044018009C690B0094
:10401C0010F8012B11F8013B012A28BF9A42F7D066
:10402C00D01A7047034613F8012B002AFBD1181A3B
:10403C000138704709480A49884208B505D0094A31
:10404C00824202D0121A02F00BFB0748074A0021E9
:10405C00121A02F02DFB014808BD00BFE4E5032055
:10406C00486E0B005CE603205CE60320F0E70320BF
:10407C0070B5074E074C01F037F8A41BA4080025B7
:10408C00AC4200D170BD56F8043B98470135F7E7B8
:10409C00006E0B00246E0B0000F060B808B500F049
:1040AC0061F8BDE8084000F0D7BF00F047BB00F056
:1040BC0045BB00F04BBB000008B5034A03490C207C
:1040CC0000F088FAFEE700BF41450B00B0690B0019
:1040DC000078B0FA80F040097047012303707047F4
:1040EC00704700000A4B10B50446036001F0C4F998
:1040FC00214601F00EFC00F0EBFE00F0DDFE204648
:10410C00044B40F8043B01F09FFA204610BD00BF61
:10411C00F4690B00DC690B0010B50446FFF7E2FFF5
:10412C0020462421FFF7C5FF204610BD0EB400B574
:10413C008CB00DAA4FF0200C52F8041B0392CDE961
:10414C0000120023016804AA1E20CDE904C300F06C
:10415C0049FA0CB05DF804EB03B07047012107205D
:10416C0002F01EBA10B50C4B0C4C188802F029FA50
:10417C000B49206002460B48FFF7D8FF2168002945
:10418C00B8BF0F310720091102F032FABDE8104018
:10419C00642000F03BBF00BFE4E5032080E6032071
:1041AC00C5690B00D4E6032070B5D0E90053142682
:1041BC00044606FB0356AE4204D0284602F0AAF889
:1041CC001435F8E7206800F0C1FA204670BD88422B
:1041DC00F8B504460D46164616D9904215D2A2F1F2
:1041EC001406751AA1F114072C44B7421CD02CB13B
:1041FC003146204602F0F6F8337C2374304602F048
:10420C0089F8143E143CF0E70ED0B5420CD02CB11A
:10421C002946204602F0E6F82B7C2374284602F04F
:10422C0079F814351434F0E7F8BD2DE9F04100238A
:10423C00C0E9003383604F689F4204460E4623DD7D
:10424C004FF0140808FB07F000F078FA0546D8B1D7
:10425C00D4E9001208FB0212FFF7B9FF206800F046
:10426C0075FA2560A760D6E9007308FB0378B8459A
:10427C0008D03946284602F0CFF83B7C2B74143713
:10428C001435F4E7736863602046BDE8F0810000E4
:10429C00F0B58DB00025CDE90055029500F018FE63
:1042AC001C4C0646694603A8FFF7BFFF274603A927
:1042BC0006A8FFF7BAFF184B47F8043B06A909A854
:1042CC00FFF7B3FF09AA1E21384601F005FC09A827
:1042DC00FFF76AFF06A8FFF767FF104B236003A8E0
:1042EC002662FFF761FF0E4B236000F0F1FD4FF4E7
:1042FC00165100F0DDFD01F0BFF8214601F0C2FAC5
:10430C006846FFF751FF294601200DB0BDE8F0408B
:10431C0000F0F8B95CE60320DC690B00A46B0B0021
:10432C00F4690B0008B5024B1B681B68019308BDB0
:10433C004C02030008B5024B1B685B68019308BD77
:10434C004C02030008B5024B1B689B68019308BD27
:10435C004C02030008B5024B1B681B69019308BD96
:10436C004C02030008B5024B1B685B69019308BD46
:10437C004C02030008B5024B1B689B69019308BDF6
:10438C004C02030008B5024B1B68DB69019308BDA6
:10439C004C02030008B5024B1B681B6A019308BD55
:1043AC004C02030008B5024B1B68DB69019308BD86
:1043BC003002030008B5024B1B681B6A019308BD51
:1043CC003002030008B5024B1B681B6A019308BD41
:1043DC002802030008B5024B1B685B6A019308BDF9
:1043EC002802030008B5024B1B689B6A019308BDA9
:1043FC002802030008B5024B1B68DB6A019308BD59
:10440C002802030008B5024B1B681B6B019308BD07
:10441C002802030008B5024B1B685B6B019308BDB7
:10442C002802030008B5024B1B681B6C019308BDE6
:10443C002802030008B5024B1B689B68019308BD5A
:10444C003C02030008B5024B1B68DB68019308BDF6
:10445C003C02030008B5024B1B681B69019308BDA5
:10446C003C02030008B5024B1B685B69019308BD55
:10447C003C02030008B5024B1B689B69019308BD05
:10448C003C02030008B5024B1B68DB69019308BDB5
:10449C003C02030008B5024B1B681B6A019308BD64
:1044AC003C02030008B5024B1B689B6A019308BDD4
:1044BC003C02030008B5024B1B68DB6A019308BD84
:1044CC003C02030008B5024B1B681B6C019308BD32
:1044DC003C02030008B5024B1B685B69019308BDE5
:1044EC006402030008B5024B1B685B6C019308BDAA
:1044FC004802030008B5024B1B689B6C019308BD76
:10450C004802030008B5024B1B68DB6C019308BD25
:10451C004802030008B5024B1B685B6D019308BD94
:10452C004802030008B5024B1B685B68019308BD89
:10453C001802030008B5024B1B68DB68019308BD29
:10454C001802030008B5024B1B685B69019308BD98
:10455C001802030008B5024B1B685B68019308BD89
:10456C002C02030008B5024B1B689B68019308BD25
:10457C002C02030008B5024B1B68DB68019308BDD5
:10458C002C02030008B5024B1B689B6A019308BD03
:10459C002C02030008B5024B1B681B6B019308BD72
:1045AC002C02030008B5024B1B689B6F019308BDDE
:1045BC002C02030008B5024B1B689B68019308BDD5
:1045CC006802030008B5024B1B68DB68019308BD49
:1045DC006802030008B5024B1B685B6B019308BDB6
:1045EC006002030008B5024B1B685B6D019308BDAC
:1045FC006002030008B5024B1B68DB6E019308BD1B
:10460C006002030008B5024B1B681B6F019308BDC9
:10461C006002030008B5024B1B68DB6B019308BDFD
:10462C004402030008B5024B1B685B68019308BD8C
:10463C004002030008B5024B1B689B68019308BD40
:10464C004002030008B5024B1B68DB68019308BDF0
:10465C004002030008B5024B1B681B69019308BD9F
:10466C004002030008B5024B1B685B69019308BD4F
:10467C004002030008B5024B1B689B69019308BDFF
:10468C004002030008B5024B1B68DB69019308BDAF
:10469C004002030008B5024B1B681B6A019308BD5E
:1046AC004002030008B5024B1B681B6B019308BD4D
:1046BC004002030008B5024B1B685B6B019308BDFD
:1046CC004002030008B5024B1B681B6C019308BD2C
:1046DC004002030008B5024B1B685B6C019308BDDC
:1046EC004002030008B5024B1B685B68019308BDD0
:1046FC002002030008B5024B1B685B69019308BDDF
:10470C002002030008B5024B1B68DB6A019308BD4D
:10471C002002030008B5034B1B68D3F888300193C3
:10472C0008BD00002002030008B5034B1B68D3F83A
:10473C009430019308BD00002002030008B5024B21
:10474C001B681B68019308BD1C02030008B5024BD3
:10475C001B685B68019308BD1C02030008B5024B83
:10476C001B689B68019308BD1C02030008B5024B33
:10477C001B685B6A019308BD1C02030008B5024B61
:10478C001B68DB6B019308BD1C02030008B5024BD0
:10479C001B681B6C019308BD1C02030008B5024B7F
:1047AC001B685B6C019308BD1C020300002340686E
:1047BC001A46FFF737BF406800220221FFF742BFBD
:1047CC00002240681146FFF735BF002240681146B1
:1047DC00FFF740BF002340681A461946FFF742BF57
:1047EC00002340681A461946FFF744BF4068002171
:1047FC00FFF768BF40680021FFF76CBF40680022DC
:10480C0081F00101FFF73EBF40680022FFF74ABF6D
:10481C00002240681146FFF74DBF00224068114648
:10482C00FFF738BF2DE9F04395B014460D46074607
:10483C0000F0AEFB00211C220DA8009101F038FF06
:10484C0040230C9320466B460CAA0021FFF7BAFEBE
:10485C00044600284BD1024601216868FFF7FAFE96
:10486C000221804622466868FFF7F4FE009E8146CE
:10487C002146002E3BD0002939D17368022B03D07E
:10488C000A2B11D0F669F4E7B8F1000FFAD0716970
:10489C0006A8043107AD00F0A9FB0FCD3C1D0FC4D9
:1048AC002B6823704146EDE7B9F1000FEAD074692B
:1048BC00102201A801F0FCFE06238DF8143001AD86
:1048CC0004F108031834186859682A4603C20833DF
:1048DC00A3421546F7D101A906A807AD00F066FB67
:1048EC000FCD3C1D0FC42B6823704946CAE70098B6
:1048FC00FFF760FE384615B0BDE8F083024B034A63
:10490C001A6000225A60704784E603200C6A0B0080
:10491C00002240681146FFF79DBE002240681146F8
:10492C00FFF7B8BE002240681146FFF7C3BE4068CF
:10493C000022FFF7B7BE4068002281F00101FFF7AB
:10494C00A1BE002340681A461946FFF793BE002308
:10495C0040681A461946FFF785BE0022406811468A
:10496C00FFF768BE406800220221FFF76BBE0023F0
:10497C0040681A46FFF756BE024B04225A60024AA0
:10498C001A6070478CE60320486A0B007047F8B534
:10499C00064615460C468F18BC4206D0336814F8F0
:1049AC00011B9B6830469847F6E72846F8BD007C0B
:1049BC000022FFF707BD007C0021FFF70BBD007C38
:1049CC000021FFF70FBD007C0021FFF713BD007C19
:1049DC000021FFF717BD10B514210446FFF769FB42
:1049EC00204610BD10B54FF47A73044608460021DA
:1049FC00C4E90113034B236020741146FFF712FD29
:104A0C00204610BD846A0B0038B5046805467CB19D
:104A1C006368013B63605BB9236820469B689847D9
:104A2C00A368013BA3601BB923682046DB68984749
:104A3C00284638BD00F11003012213F8101C01297F
:104A4C00184608D153F8041C02EB4102013A03F159
:104A5C001003F2D17047022904BF53F8041C5218FA
:104A6C00F4E70EB4F0B588B000AF07F134051021AF
:104A7C0055F8042B7A6004462B467818FD60FFF736
:104A8C0075FE0F287A681AD900F1080323F0070382
:104A9C006E46ADEB030D411C2B466846FD60FFF7DF
:104AAC0065FE021E04DD236869469B682046984714
:104ABC00B5462037BD46BDE8F04003B0704700282E
:104ACC00F7D0236802469B6807F1100120469847EF
:104ADC00EFE710B54368013B0446436063B90368D4
:104AEC009B689847A368013BA3602BB923682046B9
:104AFC00DB68BDE81040184710BD38B50B68036083
:104B0C004D6843689D42044608D015B16B6801336B
:104B1C006B60606808B1FFF7DCFF656038BD07B5F6
:104B2C0003688DF807109B6801220DF10701984767
:104B3C0003B05DF804FB0B461146002210B5C0E92A
:104B4C000022044683600BB9204610BDFFF7D5FF49
:104B5C00FAE78368EBB11A78032A1AD8DFE802F077
:104B6C000417021B0520704702685B685268D05C12
:104B7C002D2812D0A0F13003092B0ED974280ED099
:104B8C0066280CD0A0F16E0358425841704706209D
:104B9C0070470020704704207047032070470220A4
:104BAC00704710B50446FFF7D4FF02280ED0C31E81
:104BBC00DBB2012B14D82268A36850685B68BDE88F
:104BCC0010400A220021184401F072BE2268A3682A
:104BDC0052685B68D05CA0F174035842584110BD18
:104BEC000020FCE738B50023C0E9003304460E482A
:104BFC00C4E90203A9B10B78032B06D08BB9136857
:104C0C0058684B68C35C6E2B07D013684D685868A6
:104C1C008B6828445B1BA060E36011462046FFF7BD
:104C2C006CFF204638BD00BF6A6B0B0038B5002501
:104C3C000B46C0E90055C0E90255C0E904550446CD
:104C4C0011464BB11A78012A06D103F11002DB6828
:104C5C0082604361FFF751FF204638BD10B54369B0
:104C6C00044663B18068E060013B1030A0602061B5
:104C7C00636113B1FFF7DEFEA060012000E018466F
:104C8C0010BD10B57D210446FFF749FF01232371A8
:104C9C00204610BD08B50379012B02D0022B04D09D
:104CAC0008BD2C21FFF73BFFFAE73A21FAE710B5D4
:104CBC000446FFF7EFFF20467B21FFF730FF002370
:104CCC002371204610BD000013B504460191FFF777
:104CDC00E1FF2368019ADB680349204698470123CA
:104CEC002046237102B010BDD1690B0013B50446E8
:104CFC000191FFF7CFFF2368019ADB680349204637
:104D0C00984701232046237102B010BDA46A0B0002
:104D1C002DE9F0470D46222190460446FFF7FFFE91
:104D2C00DFF8A490A8442F464745BA463DD017F863
:104D3C00016B222E06D05C2E04D0304601F088FC8C
:104D4C000028F1D12368AAEB05029B68294620466E
:104D5C0098475C212046FFF7E2FE0D2E0AD8072E5D
:104D6C001CD9A6F10803052B18D8DFE803F00D0FAA
:104D7C0011171315222E01D05C2E0FD1314620466F
:104D8C00FFF7CDFE3D46CFE76221F8E77421F6E749
:104D9C006E21F4E76621F2E77221F0E723683246D0
:104DAC00DB68494620469847ECE7BD4205D02368AE
:104DBC007A1B9B6829462046984722212046FFF7FC
:104DCC00AEFEBDE8F08700BFA76A0B0013B5044622
:104DDC00CDE90021FFF75EFF2046DDE90021FFF75A
:104DEC0097FF02232046237102B010BD13B5044671
:104DFC00CDE90021FFF74EFF2046DDE90021FFF74A
:104E0C0087FF01232046237102B010BD4174704707
:104E1C007047704708B50021007CFFF7ABFA40EAF9
:104E2C00E07008BD08B50121007CFFF7A3FA40EA49
:104E3C00E07008BD08B5007CFFF794FA20EAE0703A
:104E4C0008BD08B5007CFFF785FA20EAE07008BDC4
:104E5C0013B50446007C0191FFF784FA00280199F0
:104E6C0001DC607C20B1207CFFF78CFA20EAE0703A
:104E7C0002B010BD007CFFF78DBA10B514210446AA
:104E8C00FFF717F9204610BD10B54FF47A7304469E
:104E9C0008460021C4E90113044B2360012320744C
:104EAC0063741146FFF73EFA204610BDB86A0B003A
:104EBC00007C0022FFF73EBA007CFFF743BA10B526
:104ECC0014220446002101F0F3FB204610BD000023
:104EDC0010B50F4C88B003A8FFF7F1FF2178BFF392
:104EEC005B8F11F001010FD120460191FFF7F0F813
:104EFC00019948B103AA0748FFF7C6FF2046FFF700
:104F0C00ECF8054801F09EFB024808B010BD00BF4C
:104F1C0094E6032098E603201D4E0B00704710B555
:104F2C0018210446FFF7C5F8204610BDF0B5037DE7
:104F3C00062B8DB00E4600F104074FF0000412D082
:104F4C0000F1080515F8011D0A22304601F005F99B
:104F5C00AF42044419D0002CF4D02E21304601F07D
:104F6C00F9F80444EEE72F236A4639460A208DF8F7
:104F7C000040FFF7AFFA6846FFF754F83368024673
:104F8C00DB68694630469847044620460DB0F0BDB4
:104F9C0010B5054B0446112240F8043B002101F0EA
:104FAC0087FB204610BD00BFE86A0B000346074A8A
:104FBC0010B543F8042B01F1100251F8044B43F8DF
:104FCC00044B9142F9D10A781A7010BDE86A0B00B3
:104FDC0010B59DF8084044EA032343EA024242EA32
:104FEC00016104234160037510BD000007B5064B39
:104FFC000360CB7800938B784A780978FFF7E8FF49
:10500C0003B05DF804FB00BFE86A0B000021FFF75A
:10501C0071BB0000014B1860704700BFF4E5032022
:10502C0008B50B4B43B1FFF753FF03681B69984757
:10503C00002801DDAFF30080064B43B101F04EFABE
:10504C0003681B699847002801DDAFF3008008BD99
:10505C00000000000000000008B5FFF7E1FFFFF7BB
:10506C0071FA014B186008BD34E703200548064A65
:10507C00064908B5121A01F0F3FA054B054A1A60F5
:10508C0008BD00BF00F4032004F40320C06E0B0025
:10509C0000F403201E1C279A07B5002300931A4620
:1050AC006FF07701FFF740FB03B05DF804FB0000E5
:1050BC0007B543880A2B08D0502B0BD1094B1B6822
:1050CC004BB103B05DF804EB1847FFF7E5FF03B0F5
:1050DC005DF804FB002300931A466FF07701FFF78D
:1050EC0023FBF4E7B0E6032010B512480021FFF7CC
:1050FC0055FB114B1A68114B9A42114B0CBF0122F4
:10510C0000221A7001D0FFF7B1FFFFF70BFA04462B
:10511C0001F0D6FA0B4B13B12046AFF300800021FF
:10512C000848FFF777FABDE8104007480021FFF761
:10513C00F1BA00BF21500B0000F403201E1C279A6B
:10514C00ACE6032000000000BD500B00014B002218
:10515C009A607047B4E60320024B1A68024B1A603F
:10516C00704700BFE8E50320C4E6032080680368AD
:10517C00DB6818477047084611B10B685B68184725
:10518C007047704770477047704738B504460D46F6
:10519C0000682E2101F0CFFA2368C31A2B6023B1CB
:1051AC00037803B1013023682060184638BD10B570
:1051BC000C210446FEF77DFF204610BD10B50421DE
:1051CC000446FEF776FF204610BD10B504210446B8
:1051DC00FEF76FFF204610BDFFF794B908B5FEF738
:1051EC0017FFB0FA80F0400908BD704710B50C46A7
:1051FC00FFF76EFE844210D001F070F9844205D1A5
:10520C0001F06CF9BDE8104001F027B82CB123680F
:10521C0020465B68BDE81040184710BD0B68036062
:10522C004B68436013B15A6801325A60704713B52A
:10523C00044608460191FEF7F5FE01990246204608
:10524C0002B0BDE81040FFF7D1BD13B504460846C7
:10525C000191FEF7E7FE23680199DB6802462046C0
:10526C0002B0BDE81040184707B503688DF8071069
:10527C00DB6801220DF10701984703B05DF804FBD0
:10528C000A6802604A6842600022C0E9022210B536
:10529C0002618C688460CC68C4600C698A60CA60E6
:1052AC0004610A6110BD00002DE9F74FD0E90084BC
:1052BC004FF0140A00930AFB04F4184BA410174681
:1052CC005C434546002C21DD66100AFB06F005EB1D
:1052DC0000093A46B9F804B0285801915F4528BF37
:1052EC005A4601F03AFA002801994FF001030BD10C
:1052FC005F4503D1009A13703446E3E7FCD9A61B33
:10530C0009F11405013EF7E7F9DBF5E7A5EB080514
:10531C000248AD10684303B0BDE8F08FCDCCCCCCC7
:10532C007FB50369057E019103B3F9B1002600F145
:10533C000C04039603A901A8FFF727FF0146A8B1A7
:10534C000DF10B03039A8DF80B602046FFF7ACFFB1
:10535C009DF80B3053B12368142404FB003408343B
:10536C0034F9023C002BA8BFDDB2E3E7284604B0B9
:10537C0070BD0EB4F0B58CB000AF07F14405044617
:10538C0055F8042B7A602B46202107F11000FD60A4
:10539C00FFF7ECF91F287A681AD900F1080323F0FB
:1053AC0007036E46ADEB030D411C2B466846FD60B2
:1053BC00FFF7DCF9021E04DD23686946DB68204632
:1053CC009847B5463037BD46BDE8F04003B070474E
:1053DC000028F7D023680246DB6807F1100120464D
:1053EC009847EFE710B5094C2378BFF35B8FDB07C9
:1053FC0009D42046FEF76CFE28B12046FEF76DFE60
:10540C00034801F01FF9034810BD00BFCCE6032090
:10541C008F510B00ECE5032010B5094C2378BFF33A
:10542C005B8FDB0709D42046FEF752FE28B12046DD
:10543C00FEF753FE034801F005F9034810BD00BF09
:10544C00D0E60320F7510B00F0E5032038B500251A
:10545C000446C0E90055C0E904558560856140F8F3
:10546C00245FFFF73FF8FFF7BDFFE061FFF7D4FFC4
:10547C0025732062204638BD10B50A4C2378BFF343
:10548C005B8FDB070CD42046FEF722FE40B10648AA
:10549C00FFF7DCFF2046FEF720FE044801F0D2F8AF
:1054AC00014810BDC8E60320D8E60320FD590B00C7
:1054BC00024A034903480023FFF7A4B8E1570B0045
:1054CC006D570B00ED560B0000231A461946184673
:1054DC00FFF798B837B58D6804466846FFF79EFE0F
:1054EC006A4629462046FFF7A1FB01A8FFF78CFA74
:1054FC00204603B030BD37B5CD6804466846FFF78B
:10550C008DFE6A4629462046FFF76CFB01A8FFF783
:10551C007BFA204603B030BD37B50D6904466846AA
:10552C00FFF77CFE6A4629462046FFF704FB01A8DC
:10553C00FFF76AFA204603B030BD000070B58AB0A0
:10554C000D46014604A8FFF7C5FF144E04A8FFF74B
:10555C0085FBE8B104A96846FFF7CDFF02983146F8
:10556C00FFF73CFE044610B12C1E18BF012401A805
:10557C00FFF74AFA002CE9D004A96846FFF7CCFFE4
:10558C006846FFF70EFB286001A8FFF73DFADDE740
:10559C0005A8FFF739FA0AB070BD00BF106B0B00FD
:1055AC0037B50C46204613491546FEF731FD50B968
:1055BC00FFF78EFC4FF41651FFF77AFC03B0BDE8F1
:1055CC003040FFF785BC0C492046FEF721FD78B929
:1055DC004FF4165301A928460193FFF7AFFF00F0D3
:1055EC007DFF019900F036FE00F078FF03B030BD6E
:1055FC000020FBE7156B0B001C6B0B0070B5D0E9A2
:10560C0000531426044606FB0356AE4205D005F1A2
:10561C000800FFF7F3FF1435F7E72068FFF796F85B
:10562C00204670BD70B5D0E90053044605EB031657
:10563C00AE4204D0284600F06DFE1035F8E7206825
:10564C00FFF784F8204670BD10B504460C30FFF708
:10565C00D5FF2046FFF7E6FF204610BD10B5044BE2
:10566C00044640F8043BFFF7EFFF204610BD00BF97
:10567C00DC690B0010B50446FFF7F0FF204624212F
:10568C00FEF717FD204610BD10B5034B0360044612
:10569C00FFF7E4FF204610BDBC6B0B0010B50446B1
:1056AC00FFF7F2FF20462421FEF703FD204610BD34
:1056BC000022C0E9002210B582600C6804604C68BE
:1056CC0044608C680A604A6084608A6010BD10B5C2
:1056DC00036804461868FEF71DFF204610BD000045
:1056EC002DE9F04F87B0804603931C4B5B68C3F3E6
:1056FC000803894616466BB9FFF7BEFE044600F157
:10570C002403406A0593FFF767FD237B2BB105A8A3
:10571C00FFF7DDFF07B0BDE8F08F01232373D4E959
:10572C0000535FFA89F905EB830AAA4512D055F8A4
:10573C00047B3146381DFFF7F3FD8145F5D33B68FB
:10574C00039A0092D3F808B04A463346414638468D
:10575C00D847EAE700232373D9E700BF00ED00E048
:10576C002DE9F74F9B461A4B5B68C3F30803804641
:10577C00894616466BB9FFF77FFE044600F12403F9
:10578C00406A0193FFF728FD237B2BB101A8FFF79B
:10579C009EFF03B0BDE8F08F01232373D4E90053BF
:1057AC00F6B205EB830A55450ED055F8047B5946E5
:1057BC00381DFFF7B5FD8642F5D33B684A46DB68DA
:1057CC00414638469847EEE700232373DEE700BFD7
:1057DC0000ED00E02DE9F341164B5B68C3F30803C1
:1057EC0005460F461BBBFFF747FE00F1240304469A
:1057FC00406A0193FFF7F0FCD4E90063462406EB02
:10580C008308B04509D101A8FFF761FFA542B4BFD9
:10581C000020012002B0BDE8F08156F8040B394697
:10582C000430FFF77DFD8442A8BF0446E9E7002061
:10583C00F0E700BF00ED00E0F8B5D0E901539D4260
:10584C0004460E460DDB6F1C002F006804DDB9000A
:10585C00FEF784FF18B9F8BDFEF778FF0020206032
:10586C00A7602768626807EB85019200A2EB8502AE
:10587C00081D00F003FF47F825606368013363607F
:10588C000120E8E737B500F124030446406A019390
:10589C000D46FFF7A1FCD4E9003203EB82029342E0
:1058AC0019460BD00968A94203F10403F7D101A8EA
:1058BC00FFF70DFF0025284603B030BD29462046D2
:1058CC00FFF7BAFF05460028F1D06368012B01D120
:1058DC00FFF7EEFD01A8FFF7FAFEECE770B5044602
:1058EC00D0E900020B4600EB820282420FD0014647
:1058FC001D6851F8046BAE4207D1521A00F0BEFE7F
:10590C006368013B6360012070BD0846EDE7002031
:10591C00FAE71FB500F124030446406A0191039392
:10592C00FFF75AFC01A92046FFF7D8FF18B16368AE
:10593C000BB9FFF7C9FD03A8FFF7C9FE04B010BDF2
:10594C0070B5D0E904561823044603FB0656AE4244
:10595C0015D005F110012046FFF7C0FF63680BB9A5
:10596C00FFF7B2FDE06929690368DB68984769694C
:10597C0019B1206A0368DB6898471835E7E7D4E962
:10598C000453182606FB0356AE4204D0284600F0FA
:10599C00C1FC1835F8E70023636170BD73B504468C
:1059AC00FFF792FD04F12403606A0193FFF714FCE6
:1059BC002046FFF7C5FF01A8FFF789FE606A08B112
:1059CC00FEF798FDD4E90453182606FB0356AE42A5
:1059DC0004D0284600F09EFC1835F8E72069FEF745
:1059EC00B5FE2068FEF7B2FE204602B070BD000086
:1059FC000148FFF7D3BF00BFD8E603208842F8B5B3
:105A0C0004460D46164615D9904214D2A2F114063E
:105A1C00751AA1F114072C44B7421AD01CB13146A7
:105A2C002046FFF72DFC06F10800FFF7E7FD143EBA
:105A3C00143CF1E70DD0B5420BD01CB129462046E1
:105A4C00FFF71EFC05F10800FFF7D8FD14351434E0
:105A5C00F1E7F8BD8842F8B504460D46164614D950
:105A6C00904213D2A2F11006751AA1F110072C4422
:105A7C00B74218D01CB13146204600F0B3FC30467A
:105A8C0000F048FC103E103CF2E70CD0B5420AD0B6
:105A9C001CB12946204600F0A5FC284600F03AFC33
:105AAC0010351034F2E7F8BD70B50E1E054611DD49
:105ABC003001FEF743FE044658B1D5E9001201EB64
:105ACC000212FFF7C7FF2868FEF740FE2C60AE609D
:105ADC00012070BD0024F6E72DE9F04F904695B0FB
:105AEC0000230391D8F804100A9346229942C0E986
:105AFC000033C0E90233C0E90433CDE9083304466E
:105B0C00027623DCD8E90057142303FB0757AF4276
:105B1C003BD029460BA800F065FC0BA90FA8099EE9
:105B2C0000F060FCDDE9091399421BDA089B099A25
:105B3C0003EB061603EB0212314606F11000FFF7D9
:105B4C0089FFEEB9099B0133099311E008A8FFF70F
:105B5C00ABFF0028D6D108A8FFF764FD204615B08E
:105B6C00BDE8F08F013108A8FFF79EFF0028DDD1BA
:105B7C000FA800F0CFFB0BA800F0CCFB1435C6E748
:105B8C000FA9304600F02EFCDCE70026CDE90B66B1
:105B9C000D964FF01409DDE908239E427CDA33019F
:105BAC00D35806930BB90136F5E70023079309FB8D
:105BBC0006F302930BAD07A906A8FFF7E6FA824697
:105BCC000028F0D04FF000038DF817300146079AEB
:105BDC000DF117032846FFF767FB9DF8177001902E
:105BEC00002F4AD1BDF81C30ADF84030CDE911770B
:105BFC004FF6FF73CDF83CA0ADF842301397D5E9C2
:105C0C000132934217DB03F1010ABAF1000F30DDC8
:105C1C0009FB0AF0FEF792FD834660B3D5E900124A
:105C2C0009FB0212FFF7EAFE2868FEF78FFDC5F8A4
:105C3C0000B0C5F808A02B68019A09FB023A6A6803
:105C4C00514609FB02320AF11400FFF7D7FEBAF1F4
:105C5C00000F03D00FA95046FFF712FB6B680133FE
:105C6C006B6011A8FFF7CAFC3FB10BA8FFF7C6FC8D
:105C7C0071E7BB46D8E70127F3E7019B2D6809FBC9
:105C8C000355069B1B782BB9D8F80030029A1344A5
:105C9C001B7CEB8008358EE72168226062686360AC
:105CAC00A36809920A9A0A93E368A2600B9A0B9371
:105CBC002369E2600C9A0C93636922610D9A0D932F
:105CCC00039B089162612376CFE70000F0B5044690
:105CDC0087B00D462646194668461746FEF7A5FAC4
:105CEC000B4B46F8043B694603A8FEF79EFA03AA41
:105CFC0039463046FFF7F0FE03A8FEF755FA684622
:105D0C00FEF752FA034B23602046256207B0F0BD24
:105D1C00DC690B00A46B0B00F0B50F4685B01D4978
:105D2C000A9C384616461D46FEF772F9C0B9A4B156
:105D3C00294601A8FFF7BCFC1749242000F07EFC83
:105D4C00054630B101AB32462146FFF7BFFF134B7E
:105D5C002B6001A8FEF728FA2C46204605B0F0BDB2
:105D6C000F493846FEF754F990B9002CF5D0294666
:105D7C0001A8FFF79DFC0849242000F05FFC0546B4
:105D8C000028E6D001AB32462146FFF79FFFE0E743
:105D9C000024E2E7246B0B00686C0B00BC6B0B005F
:105DAC00286B0B00014B024A1A607047D4E60320A3
:105DBC00396B0B002DE9F047089DD0F82090044674
:105DCC000E4617469846FFF783F881454CD02B7941
:105DDC00190704D56A6954492046FFF7CAFAB8F185
:105DEC00000F0DD05B212046FFF73EFA41462046BE
:105DFC00FFF72BFA23684D49DB68022220469847AF
:105E0C002B79DA0723D5D5F808802F21404600F0EE
:105E1C00B8FC08B100F1010841462046FFF715FA1D
:105E2C002B799B0708D53A212046FFF71DFAEA6823
:105E3C003F492046FFF79DFA2A79236812F0040F98
:105E4C00DB6814BF3B493C490222204698472B791A
:105E5C0058071DD529690B461A4613F8010B60B17A
:105E6C00202808D11946F7E73448FEF7D6FC00285D
:105E7C00ADD0BDE8F0872828EED12368521ADB6834
:105E8C002046984723682E49DB6804222046984711
:105E9C0000213846FEF7AEFB01462046FFF7D5F948
:105EAC0023682549DB680222204698471EB13146FB
:105EBC002046FFF7CAF92B7913F0300F2CD023684A
:105ECC002049DB680222204698472B79D9060AD54F
:105EDC0023681D49DB68072220469847AA691B499D
:105EEC002046FFF746FA2B799A0611D5DB0605D525
:105EFC0023681049DB68022220469847236814491E
:105F0C00DB6820460A229847E9692046FFF79DF98D
:105F1C005D212046FFF7A8F923680E49DB6820466F
:105F2C000222BDE8F04718473D6B0B00446B0B0099
:105F3C00D1690B00476B0B004C6B0B0084E6032004
:105F4C004A6B0B004F6B0B00526B0B005A6B0B0028
:105F5C005D6B0B00686B0B002DE9F0410446076A82
:105F6C000D461646FEF7B4FF874207D0206A036839
:105F7C0032462946DB68BDE8F04118470348FEF776
:105F8C004CFC0028F2D0BDE8F08100BF84E6032071
:105F9C002DE9F04385B0D0F820900C9C05460F46B7
:105FAC0090461E46FEF794FF814505D14948FEF701
:105FBC0034FC002840F08A802B6A474A01924FF04B
:105FCC00000901A803938DF80890FEF770FE49466E
:105FDC004046FEF70FFB41498046012201A8FEF71F
:105FEC00F5FE4146FFF723F93FB13D49012201A8D7
:105FFC00FEF7ECFE3946FFF71AF93EB1394901229A
:10600C0001A8FEF7E3FE3146FFF711F92379DF070C
:10601C000ED5A6682F21304600F0B3FB00B1461C0C
:10602C003149012201A8FEF7D1FE3146FFF7FFF8F6
:10603C0023799E0707D52D49022201A8FEF7C6FE3B
:10604C00E168FEF741FE2379580714D526693346DB
:10605C001F4613F8012B2AB1202A01D11E46F7E75F
:10606C00282AF5D12249022201A8FEF7AFFEBA1B5D
:10607C003146FEF7BBFE2379190707D51D490122CE
:10608C0001A8FEF7A3FE6169FEF730FE2379DA065C
:10609C0008D5042218490DEB0200FEF797FEA16902
:1060AC00FEF712FE23799B0607D51449062201A898
:1060BC00FEF78CFEE169FFF7BAF801A8FEF7E1FDE7
:1060CC00286A0F4903680222DB68984705B0BDE8CF
:1060DC00F08300BF84E603208C6B0B001A6B0B0063
:1060EC006B6B0B00FB6C0B006D6B0B006F6B0B0089
:1060FC00726B0B00756B0B00776B0B007C6B0B00E2
:10610C00686B0B00F8B506460D468F180024BD428F
:10611C000CD0336815F8011B9B6830469847031E5A
:10612C0001DB1C44F3E7002C08BF1C462046F8BDDD
:10613C0013B50446084659B10191FDF773FF236866
:10614C000199DB680246204602B0BDE810401847B2
:10615C0002B010BD03689B68184730B58BB00023A4
:10616C00012A8DF8243098BF0A2209AC0D46B1FBE8
:10617C00F2F101FB125303F0FF03092B94BF3033F0
:10618C003733DBB2AA4204F8013DEFD92146FFF7C1
:10619C00CFFF0BB030BD0000024800230360FEF7B8
:1061AC00A1B900BF00E7032070474174704708B5E0
:1061BC00007CFEF777F920EAE07008BD08B5007C9A
:1061CC00FEF748F920EAE07008BD08B5007CFEF740
:1061DC0051F940EAE07008BD08B5007CFEF742F9C1
:1061EC0040EAE07008BD007CFEF74CB937B5457C41
:1061FC0004462DB1207C03B0BDE83040FEF722B937
:10620C00007C0191FEF74EF900280199F2DC28463A
:10621C0003B030BD10B514210446FDF74AFF2046EB
:10622C0010BD000010B54FF47A73044608461146B1
:10623C000022C4E90123044B2360012320746374FE
:10624C00FEF740F9204610BD046C0B00007C0023C7
:10625C00FEF730B90022FFF7F9BF007CFEF7EAB871
:10626C00054B02221A60054B054A9A600020C3E9CF
:10627C000000FEF737BA00BF10E7032004E7032045
:10628C000000FFFF10B5044608462170FEF78AF89F
:10629C0000236360204610BD002240681146FEF7C3
:1062AC00F9B9002240681146FEF704BA4068002292
:1062BC00FEF7F8B94068002281F00101FEF7E2B95F
:1062CC00002340681A461946FEF7D4B900234068EB
:1062DC001A461946FEF7C6B9002240681146FEF769
:1062EC00B9B9002240681146FEF7A4B940680022F3
:1062FC000221FEF7A7B9002340681A46FEF792B9AF
:10630C00024B03225A60024A1A60704714E70320BA
:10631C00346C0B0010B504460068FEF717FA2046E3
:10632C0010BD10B50446006808B1FEF70FFA002343
:10633C00C4E90133236010BD38B504460D4600682E
:10634C000131FEF70BFA10B1C4E90005012038BD8C
:10635C0010B50368044623B143688B4201D3012076
:10636C0010BD2046FFF7E8FF0028F9D0A368002BEA
:10637C00F5D122681370F2E737B50D46114601923C
:10638C000446FFF7E5FF019A28B92046FFF7C9FF3D
:10639C00204603B030BDA2602946206800F060F9A9
:1063AC002268A3680021D154F2E738B5054600688D
:1063BC000C4668B16A688B689A4207D3096800F08A
:1063CC00C4F9A368AB600023A36038BDFEF7BEF927
:1063DC0023682B6063686B60A368AB600023C4E91F
:1063EC000033F1E710B50023C0E9003304468360A5
:1063FC000373FFF7DAFF204610BD884210B5044640
:10640C0005D00B682BB18A681946FFF7B5FF2046FB
:10641C0010BDFFF786FFFAE710B500230446C0E96C
:10642C00003383600373FFF7E8FF204610BD70470D
:10643C0038B52025142304460360856005610649A0
:10644C00284600F0FDF804496060284600F0F8F892
:10645C00E060204638BD00BF686C0B0030B50E4DB7
:10646C002978BFF35B8F11F0010487B011D1284656
:10647C00FDF72EFE68B101A8FFF7DAFF01AA21464D
:10648C000648FEF7AFFA2846FDF727FE044800F051
:10649C00D9F8024807B030BD1CE7032020E70320E1
:1064AC003B640B007047000038B5044614252A469F
:1064BC00002100F0FDF8258040250749258128465C
:1064CC00258200F0BDF804496060284600F0B8F859
:1064DC00E060204638BD00BF686C0B0030B50E4D37
:1064EC002978BFF35B8F11F0010487B011D12846D6
:1064FC00FDF7EEFD68B101A8FFF7D6FF01AA214612
:10650C000648FFF78FFE2846FDF7E7FD044800F02C
:10651C0099F8024807B030BD38E703203CE7032068
:10652C00B1640B00232813B502D9002002B010BDB2
:10653C00A0F10B03022B1AD8174C2178BFF35B8FF9
:10654C0011F001010BD120460191FDF7C1FD01991C
:10655C0028B11248FFF796FE2046FDF7BEFD0F4B03
:10656C001878FDF727FF0028DFD10120DEE701288E
:10657C0009D8FFF773FF0021007CFDF74BFF80F07B
:10658C000100C0B2D2E709380128EED8FFF7A6FF08
:10659C00007CFDF77FFFF2E750E7032054E7032070
:1065AC00232838B504460D460AD8FF2908D0FFF732
:1065BC00B9FF28B129462046BDE83840FDF7D2BFC7
:1065CC0038BD0D2810B504469CBF0E34A4B220462D
:1065DC00FFF7A8FF50B103212046FDF7BBFF0328AE
:1065EC0004D12046BDE81040FDF7D4BF002010BDFB
:1065FC0038B504460D46FFF795FFF0B1042120464F
:10660C00FDF7A8FF042805D1A9B22046BDE8384003
:10661C00FDF7B8BF02212046FDF79CFF02280CD1E4
:10662C002046FDF7A7FF012801D0042805D12946F3
:10663C002046BDE83840FDF7B5BF38BDFDF735BD88
:10664C00FDF735BD002301461A46184600F03AB94D
:10665C00024B1844407800F097007047FD6C0B001B
:10666C000A44914200F1FF3300D1704710B511F884
:10667C00014B03F8014F9142F9D110BD884210B57E
:10668C0001EB020402D98442234607D8431EA142DF
:10669C0008D011F8012B03F8012FF8E7024401464A
:1066AC008A4200D110BD13F8014D02F8014DF7E7F5
:1066BC0002440346934200D1704703F8011BF9E7EB
:1066CC0038B5104B1D68AB6B0446B3B91820FEF7F8
:1066DC0035F80246A86320B90B4B0C484221FEF753
:1066EC0055F80B490B4BC0E900130B4B83600B2384
:1066FC00838100210120C2E90401AB6B00221C61E3
:10670C005A6138BDF4E50320696C0B00806C0B00FA
:10671C000E33CDAB34126DE6ECDE0500C9B2034688
:10672C0010F8012B1AB18A42F9D11846704700298A
:10673C0018BF0023F9E710B50446FFF7EFFF18B9AF
:10674C002046FDF76FFC204410BD034611F8012BC9
:10675C0003F8012B002AF9D1704710B57AB1034622
:10676C000139841813F8010B11F8012F904201D153
:10677C00A34201D1801A10BD0028F3D1FAE71046CC
:10678C00F9E738B503460C4669B9BDE83840FFF760
:10679C00C5BF431C054621461846FFF7BFFF00281E
:1067AC00F7D1284638BD0025F5E70000012B2DE96F
:1067BC00F04701D0242B06D9FDF7E0FF1623036028
:1067CC000020BDE8F087DFF8E4C00D462E4615F832
:1067DC00014B14F80C7017F00807F7D12D2C32D19F
:1067EC002C780127B51C002B5BD0102B09D1302C39
:1067FC0007D12C7804F0DF04582C4DD16C78102381
:10680C00023507F1004808F1FF384FF0000CB8FBD7
:10681C00F3F9664603FB198AA4F1300EBEF1090F99
:10682C0016D87446A34224DDBCF1000F1EDBB14523
:10683C001CD301D1A24519DB06FB03464FF0010C1A
:10684C0015F8014BE8E72B2C04BF2C78B51CCAE7D4
:10685C00A4F1410EBEF1190F01D8373CE2E7A4F1C7
:10686C00610EBEF1190F04D8573CDBE74FF0FF3C2B
:10687C00E6E7BCF1000F05DA22230360464642B975
:10688C0030469EE707B17642002AF9D0BCF1000FE2
:10689C0000D0691E1160F3E73024002BB1D108231E
:1068AC00AFE7302CA5D00A23ABE700BFFE6C0B0082
:1068BC0013460A46014602480068FFF777BF00BF3F
:1068CC00F4E503202DE9F843DFF8B8800646D8F844
:1068DC0000001F460D46914600F056F8254B1C68EB
:1068EC0034B9254C1C60254B13B11B68C4F8883097
:1068FC0063681F2B07DDD8F8000000F047F84FF055
:10690C00FF30BDE8F8834EB3D4F8880088B91C4B2F
:10691C0023B9D8F8000000F038F8F0E74FF4847091
:10692C00FDF70CFF0028F4D00023C0E94033C4F875
:10693C008800636840F8239001229A4000EB8301A1
:10694C00D0F800311343C0F80031022EC1F880702A
:10695C0002BFD0F804311343C0F804316368D8F88F
:10696C0000005A1C0233626044F8235000F00EF809
:10697C000020C6E7E8E703205CE7032000000000E6
:10698C0049470B0058E603207047704770470000DA
:10699C0041400B007D400B00A5400B00A9400B00B3
:1069AC000000000043616C6C206F6E207075726586
:1069BC00207669727475616C0050696E5F56616CFB
:1069CC007565203D202564000000000000000000DB
:1069DC000000000000000000C5400B00ED400B0063
:1069EC000000000000000000F1400B0025410B00EE
:1069FC00C15D0B00655F0B00000000000000000093
:106A0C00B9470B00C3470B00CD470B00D7470B0012
:106A1C00E1470B00ED470B00F9470B0001480B0059
:106A2C0009480B0015480B001D480B0027480B00AC
:106A3C0031480B0000000000000000007B490B00F7
:106A4C0071490B0067490B001D490B005B490B009A
:106A5C004F490B00F9470B0001480B0043490B0051
:106A6C003B490B0031490B0027490B0031480B0007
:106A7C00000000000000000099490B00E3490B00E6
:106A8C00BB490B009B490B00C3490B00CB490B00C6
:106A9C00D3490B00DB490B00257500752530347884
:106AAC000000000000000000000000001F4E0B0062
:106ABC00874E0B005D4E0B0011610B004F4E0B000F
:106ACC00214E0B00314E0B00814E0B00414E0B0042
:106ADC00194E0B000000000000000000394F0B00A5
:106AEC00294F0B002B4F0B0025592D256D2D25649F
:106AFC005425483A254D3A2553257A006173637421
:106B0C00696D6500626175640053657269616C0042
:106B1C0053657269616C31004A534F4E5374726500
:106B2C00616D4C6F6748616E646C6572006170706A
:106B3C0000253031307520005D20002C20002829E4
:106B4C003A2000205B00636F6465203D20002569BE
:106B5C000064657461696C73203D20000D0A006D42
:106B6C000066006C6E00666E007400636F646500F6
:106B7C0064657461696C0000000000000000000096
:106B8C0095510B00BB510B0079510B006F4A0B0058
:106B9C00000000000000000069560B0081560B003D
:106BAC00C15D0B00655F0B000000000000000000E1
:106BBC0095560B00A9560B009D5F0B0081510B00E5
:106BCC00000000000000000093510B00C9510B00A5
:106BDC00255D0B0083510B0000000000000000003D
:106BEC0091510B00D7510B00AD550B00F9510B0017
:106BFC000000000000000000B5610B0021620B00DA
:106C0C00F9610B0011610B00C9610B00E5610B0010
:106C1C00D7610B00F3610B00B7610B00BB610B007C
:106C2C00000000000000000003630B00F9620B0081
:106C3C00EF620B00E5620B00D9620B00CD620B001A
:106C4C00F9470B0001480B00C1620B00B9620B0045
:106C5C00AF620B00A5620B0031480B00005245459A
:106C6C004E54206D616C6C6F632073756363656546
:106C7C00646564002F6D6E742F776F726B73706127
:106C8C0063652F776F726B73706163652F47434336
:106C9C002D31302D706970656C696E652F6A656E6B
:106CAC006B696E732D4743432D31302D70697065C0
:106CBC006C696E652D34385F32303230313132349C
:106CCC005F313630363138303634312F7372632FB2
:106CDC006E65776C69622F6E65776C69622F6C6973
:106CEC0062632F7374646C69622F72616E642E63BD
:106CFC0000002020202020202020202828282828A0
:106D0C002020202020202020202020202020202077
:106D1C0020208810101010101010101010101010CF
:106D2C0010100404040404040404040410101010CF
:106D3C00101010414141414141010101010101018A
:106D4C0001010101010101010101010101101010FA
:106D5C00101010424242424242020202020202025D
:106D6C0002020202020202020202020202101010CD
:106D7C0010200000000000000000000000000000D7
:106D8C0000000000000000000000000000000000F7
:106D9C0000000000000000000000000000000000E7
:106DAC0000000000000000000000000000000000D7
:106DBC0000000000000000000000000000000000C7
:106DCC0000000000000000000000000000000000B7
:106DDC0000000000000000000000000000000000A7
:106DEC000000000000000000000000000000000097
:106DFC00000000009D420B0009490B0085490B0067
:106E0C0059510B0065510B00B15D0B00A5610B00D6
:086E1C006D620B000D630B0019
:106E2400040000001400000003000000474E550059
:106E3400FCBC957B755ADC84654E355EABD1BA9E3D
:046E44008B236DF33C
:106E480013000000086B0B00D46B0B00EC6B0B00FD
:106E5800F8E503200000000000000000000000002A
:106E6800000000000000000000000000000000001A
:106E7800000000000000000000000000000000000A
:106E880000000000000000000000000000000000FA
:106E980000000000000000000000000000000000EA
:106EA80000000000000000000000000000000000DA
:086EB80000000000ECE70320DC
:046EC00000000000CE
:106ECA0000000102030405060708090A0B0C0D0E4F
:106EDA000F101112131415161718191A1B1C1D1E40
:046EEA001F2028003D
:046EEE00785634128C
:04000003B000401CED
:00000001FF
