:02000004085F93
:1090000000905F08FCFF5F080000060020000501DB
:089010000401501400000000EF
:109018000E480F4908B5884205D00E4A824202D050
:109028000D4B121A98470D480D4A00210D4B121A84
:1090380098470D480D49884205D00D4A824202D012
:10904800054B121A9847014808BD00BF88AA0710A7
:1090580048F05F0800AB07102D0D111000AB07108A
:10906800E8AF0710A10E111038A03F0288905F08E2
:0C907800F8FF3F0219905F0800000000A4
:089088007C905F08D8F73F025D
:1090900010F8012B11F8013B012A28BF9A42F7D0A2
:1090A000D01A7047034613F8012B002AFBD1181A77
:1090B0000138704770B501F097FA0025054E064C4F
:1090C000A41BA408AC4200D170BD56F8043B9847DD
:1090D0000135F7E7D4FF3F02F8FF3F0200F070B818
:1090E00008B500F083F8BDE8084001F035BA00F09B
:1090F00097BD00F095BD00F0A1BD00000C2008B5A3
:10910000024A034900F066FCFEE700BF15A93F02D2
:10911000E8F73F020078B0FA80F040097047012379
:10912000037070477047000010B50446094B036098
:1091300001F024FC214601F06DFE01F027F901F059
:1091400019F92046044B40F8043B01F0FFFC20468F
:1091500010BD00BFA0F83F0288F83F0210B50446DA
:10916000FFF7E2FF20462421FFF7C5FF204610BD90
:109170000EB44FF0200C002300B58CB00DAA52F8AD
:10918000041BCDE904C3CDE900120392016804AACF
:109190001E2000F03BFC0CB05DF804EB03B0704700
:1091A00008B5044B82B2044904481A80FFF7E0FF77
:1091B00008BD00BF60AB0710FDF73F02B8AE071057
:1091C00008B501F0E3F84FF4165101F0CFF802F0C2
:1091D000E3FF03F02BF8BDE80840024A02491046BD
:1091E00004F03AB878AB071051A13F022DE9F041E5
:1091F00088B002F0D1FF03F05FF80446E8B1424CBA
:1092000001F0C4F803681B69984710B12368132B59
:10921000F6D9226872B13D4902320B883C480133CD
:109220009BB20B803B4922600B80002302F044FE7E
:109230000023236008B0BDE8F08100F0A1FB364DAB
:109240002B68C01AB0F5FA6FF4D300F099FB2860D0
:1092500002F0A2FF1422314903F066F8071EE9DD8F
:109260002E4EDFF8CC80E5B2BD42E3DA03A802F06F
:10927000F3FB24235D4305F10800012203A93044D8
:1092800003F006FF08B90134EDE7414603A802F0F8
:109290003EFC0028F7D002F07FFF7219014601233F
:1092A00001A804F02BFB1E4E019B029D33607368E6
:1092B0009D4216D015B16B6801336B6074687CB148
:1092C0006368013B63605BB9236820469B689847ED
:1092D000A368013BA3601BB923682046DB6898475D
:1092E000756001A803F08FF80D4802F0BFFE00285A
:1092F000A0D00C4A0C490A4803F084FF0B4A0449E9
:10930000074803F07FFF95E764AE071060AB0710D6
:1093100070AB071050AE071064AB071080AB07109E
:1093200068AB07104CAB071078AB071038AB0710D1
:1093300024AB071070B51426D0E90053044606FB91
:109340000356AE4204D0284604F0CCFD1435F8E7AD
:10935000206800F073FC204670BD8842F8B50446D2
:109360000D46164616D9904215D2A2F11406751A6A
:10937000A1F114072C44B7421CD02CB13146204631
:1093800004F02CFE337C2374304604F0ABFD143E15
:10939000143CF0E70ED0B5420CD02CB12946204643
:1093A00004F01CFE2B7C2374284604F09BFD14352E
:1093B0001434F0E7F8BD00232DE9F041C0E9003393
:1093C00083604F6804469F420E4624DD4FF0140828
:1093D00008FB07F000F024FC0546E0B1D4E90012D8
:1093E00008FB0212FFF7B9FF206800F027FC256098
:1093F000A760D6E9007308FB0378B84509D0394661
:10940000284604F005FE3B7C143505F8043C14376F
:10941000F3E7736863602046BDE8F081002370B510
:109420008CB0CDE90033029300F0B0FF05466946E9
:1094300003A8FFF7C0FF03A906A82B4CFFF7BBFF4B
:109440002A4B06A9236009A8FFF7B5FF09AA1E2128
:10945000201D01F0C1FD09A8FFF76CFF06A8FFF76A
:1094600069FF234B2562236003A8FFF763FF214BAD
:109470001425236000F08AFF4FF4165100F076FFA8
:1094800001F07CFA214601F07FFC6846FFF752FFAD
:1094900019491A4802F0BAFB19491A4802F0B6FBFA
:1094A00019491A4802F0B2FB7F26194C204602F0F7
:1094B000C9FA04F1080003F092FA04F1140003F071
:1094C0008EFA013D84F8206004F12404EED11148A5
:1094D00002F0CCFC104802F0C9FC10480CB0BDE80A
:1094E000704002F09FBD00BF00AB071088F83F023C
:1094F00030FA3F02A0F83F020EF83F0224AB0710FB
:1095000033F83F0238AB071058F83F024CAB071056
:1095100080AB071078AB071070AB071068AB071073
:1095200009B504480068044B03441B681B68029398
:1095300009BD000088AA07103400000009B50448DE
:109540000068044B03441B685B68029309BD00007C
:1095500088AA07103400000009B504480068044BCD
:1095600003441B689B68029309BD000088AA07108A
:109570003400000009B504480068044B03441B682C
:109580001B69029309BD000088AA0710340000007F
:1095900009B504480068044B03441B685B690293E7
:1095A00009BD000088AA07103400000009B504486E
:1095B0000068044B03441B689B69029309BD0000CB
:1095C00088AA07103400000009B504480068044B5D
:1095D00003441B68DB69029309BD000088AA0710D9
:1095E0003400000009B504480068044B03441B68BC
:1095F0001B6A029309BD000088AA0710340000000E
:1096000009B504480068044B03441B689B68029337
:1096100009BD000088AA07102400000009B504480D
:109620000068044B03441B68DB68029309BD00001B
:1096300088AA07102400000009B504480068044BFC
:1096400003441B681B69029309BD000088AA071028
:109650002400000009B504480068044B03441B685B
:109660005B69029309BD000088AA0710240000006E
:1096700009B504480068044B03441B689B690293C6
:1096800009BD000088AA07102400000009B504489D
:109690000068044B03441B68DB69029309BD0000AA
:1096A00088AA07102400000009B504480068044B8C
:1096B00003441B681B6A029309BD000088AA0710B7
:1096C0002400000009B504480068044B03441B68EB
:1096D0009B6A029309BD000088AA071024000000BD
:1096E00009B504480068044B03441B68DB6A029315
:1096F00009BD000088AA07102400000009B504482D
:109700000068044B03441B681B6C029309BD0000F6
:1097100088AA07102400000009B504480068044B1B
:1097200003441B685B69029309BD000088AA071007
:109730004C00000009B504480068044B03441B6852
:109740005B6C029309BD000088AA0710300000007E
:1097500009B504480068044B03441B689B6C0293E2
:1097600009BD000088AA07103000000009B50448B0
:109770000068044B03441B68DB6C029309BD0000C6
:1097800088AA07103000000009B504480068044B9F
:1097900003441B685B6D029309BD000088AA071093
:1097A0003000000009B504480068044B03441B68FE
:1097B0009B68029309BD000088AA071060000000A2
:1097C00009B504480068044B03441B68DB6F02932F
:1097D00009BD000088AA07106000000009B5044810
:1097E0000068044B03441B68D3F88430029309BD1E
:1097F00088AA07106000000009B504480068044BFF
:1098000003441B68D3F89830029309BD88AA071057
:109810006000000009B504480068044B03441B685D
:10982000D3F8B430029309BD88AA07106000000085
:1098300009B504480068044B03441B68D3F8BC30E6
:10984000029309BD88AA07106000000009B504480A
:109850000068044B03441B68D3F8C430029309BD6D
:1098600088AA07106000000009B504480068044B8E
:1098700003441B68D3F8D830029309BD88AA0710A7
:109880006000000009B504480068044B03441B68ED
:10989000D3F8DC30029309BD88AA071060000000ED
:1098A00009B504480068044B03441B68D3F8E03052
:1098B000029309BD88AA07106000000009B504489A
:1098C0000068044B03441B68D3F8E430029309BDDD
:1098D00088AA07106000000009B504480068044B1E
:1098E00003441B68D3F8F030029309BD88AA07101F
:1098F0006000000009B504480068044B03441B687D
:10990000D3F8F430029309BD88AA07106000000064
:1099100009B504480068044B03441B68D3F80031C0
:10992000029309BD88AA07106000000009B5044829
:109930000068044B03441B68D3F80431029309BD4B
:1099400088AA07106000000009B504480068044BAD
:1099500003441B685B68029309BD000088AA0710D6
:109960000000000009B504480068044B03441B686C
:10997000DB68029309BD000088AA07100000000000
:1099800009B504480068044B03441B685B690293F3
:1099900009BD000088AA07100000000009B50448AE
:1099A0000068044B03441B689B68029309BD0000D8
:1099B00088AA07105000000009B504480068044B4D
:1099C00003441B68DB68029309BD000088AA0710E6
:1099D0005000000009B504480068044B03441B68AC
:1099E0005B6B029309BD000088AA071048000000C5
:1099F00009B504480068044B03441B681B6D0293BF
:109A000009BD000088AA07104800000009B50448F5
:109A10000068044B03441B685B6D029309BD0000A2
:109A200088AA07104800000009B504480068044BE4
:109A300003441B68DB6E029309BD000088AA07106F
:109A40004800000009B504480068044B03441B6843
:109A50001B6F029309BD000088AA07104800000090
:109A600009B504480068044B03441B68DB6B029390
:109A700009BD000088AA07102C00000009B50448A1
:109A80000068044B03441B685B68029309BD000037
:109A900088AA07102800000009B504480068044B94
:109AA00003441B689B68029309BD000088AA071045
:109AB0002800000009B504480068044B03441B68F3
:109AC000DB68029309BD000088AA07102800000087
:109AD00009B504480068044B03441B681B690293E2
:109AE00009BD000088AA07102800000009B5044835
:109AF0000068044B03441B685B69029309BD0000C6
:109B000088AA07102800000009B504480068044B23
:109B100003441B689B69029309BD000088AA0710D3
:109B20002800000009B504480068044B03441B6882
:109B3000DB69029309BD000088AA07102800000015
:109B400009B504480068044B03441B681B6A029370
:109B500009BD000088AA07102800000009B50448C4
:109B60000068044B03441B681B6B029309BD000093
:109B700088AA07102800000009B504480068044BB3
:109B800003441B685B6B029309BD000088AA0710A1
:109B90002800000009B504480068044B03441B6812
:109BA0001B6C029309BD000088AA07102800000062
:109BB00009B504480068044B03441B685B6C0293BE
:109BC00009BD000088AA07102800000009B5044854
:109BD0000068044B03441B685B68029309BD0000E6
:109BE00088AA07100800000009B504480068044B63
:109BF00003441B68D3F88830029309BD88AA071074
:109C00000800000009B504480068044B03441B68C1
:109C1000D3F89430029309BD88AA07100800000009
:109C200009B504480068044B03441B681B68029391
:109C300009BD000088AA07100400000009B5044807
:109C40000068044B03441B685B68029309BD000075
:109C500088AA07100400000009B504480068044BF6
:109C600003441B689B68029309BD000088AA071083
:109C70000400000009B504480068044B03441B6855
:109C80005B6A029309BD000088AA07100400000067
:109C900009B504480068044B03441B68DB6A02935F
:109CA00009BD000088AA07100400000009B5044897
:109CB0000068044B03441B68DB6B029309BD000082
:109CC00088AA07100400000009B504480068044B86
:109CD00003441B681B6C029309BD000088AA07108F
:109CE0000400000009B504480068044B03441B68E5
:109CF0005B6C029309BD000088AA071004000000F5
:109D0000002340681A46FFF7B9BE002202214068CE
:109D1000FFF7D0BE002240681146FFF7BDBE00220B
:109D200040681146FFF7D4BE002340681A46194622
:109D3000FFF7DCBE002340681A461946FFF7E4BE71
:109D400000214068FFF726BF00214068FFF730BFC1
:109D50000022406881F00101FFF7E4BE0022406864
:109D6000FFF7FCBE002240681146FFF705BF002246
:109D700040681146FFF7E4BE2DE9F04395B0144664
:109D80000D46074600F060FB00211C220DA8009143
:109D900004F0BFFB402320460C9300216B460CAA25
:109DA000FFF70AFE044600284BD1024601216868ED
:109DB000FFF78EFE0221804622466868FFF788FE84
:109DC00021468146009E002E3BD0002939D1736880
:109DD000022B03D00A2B11D0F669F4E7B8F1000F7B
:109DE000FAD0716906A804313C1D07AD00F05AFB9A
:109DF0000FCD0FC42B6841462370EDE7B9F1000F7A
:109E0000EAD0102201A8746904F083FB062301AD97
:109E10008DF8143004F1080318342A46186859687C
:109E2000083303C2A3421546F7D101A906A83C1D79
:109E300007AD00F017FB0FCD0FC42B684946237008
:109E4000CAE70098FFF7AAFD384615B0BDE8F083D1
:109E5000024B034A1A6000225A60704768AE07102E
:109E6000B8F83F02002240681146FFF731BE0022D9
:109E700040681146FFF764BE002240681146FFF7B4
:109E80007BBE00224068FFF769BE0022406881F077
:109E90000101FFF747BE002340681A461946FFF745
:109EA00033BE002340681A461946FFF71FBE002242
:109EB00040681146FFF7F0BD002202214068FFF71D
:109EC000F9BD002340681A46FFF7D8BD0422024BB3
:109ED0005A60024A1A60704770AE0710F4F83F02E9
:109EE000012200F1100313F8101C1846012908D1B3
:109EF00053F8041C02EB4102013A03F11003F2D1C2
:109F00007047022904BF53F8041C5218F4E70EB43A
:109F1000F0B588B0102100AF07F1340555F8042BD7
:109F200004462B4678187A60FD60FFF7A3FE0F28E1
:109F30007A681AD900F1080323F007036E46ADEBE7
:109F4000030D411C2B466846FD60FFF793FE021E81
:109F500004DD2368694620469B689847B54620374C
:109F6000BD46BDE8F04003B070470028F7D0236835
:109F700002469B68204607F110019847EFE710B5AD
:109F800043680446013B436063B903689B68984794
:109F9000A368013BA3602BB923682046BDE81040AD
:109FA000DB68184710BD38B50B68044603604D6880
:109FB00043689D4208D015B16B6801336B606068DF
:109FC00008B1FFF7DCFF656038BD07B503688DF8A1
:109FD000071001229B680DF10701984703B05DF857
:109FE00004FB0B461146002210B50446C0E90022CE
:109FF00083600BB9204610BDFFF7D5FFFAE78368F1
:10A00000EBB11A78032A1AD8DFE802F00417021B12
:10A010000520704702685B685268D05C2D2812D01A
:10A02000A0F13003092B0ED974280ED066280CD06D
:10A03000A0F16E0358425841704706207047002037
:10A04000704704207047032070470220704710B506
:10A050000446FFF7D4FF02280ED0C31EDBB2012B4B
:10A0600014D82268A36850685B680A22BDE81040D3
:10A070000021184404F05ABB2268A36852685B6848
:10A08000D05CA0F174035842584110BD0020FCE799
:10A0900038B500230446C0E900330E48C4E9020382
:10A0A000A9B10B78032B06D08BB9136858684B689D
:10A0B000C35C6E2B07D013684D6858688B682844C2
:10A0C0005B1BA060E36011462046FFF76CFF204653
:10A0D00038BD00BFF6F93F0238B500250B460446EF
:10A0E0001146C0E90055C0E90255C0E904554BB11D
:10A0F0001A78012A06D103F11002DB6882604361FD
:10A10000FFF751FF204638BD10B54369044663B1DF
:10A110008068013BE0601030A0602061636113B192
:10A12000FFF7DEFEA060012000E0184610BD10B56C
:10A130007D210446FFF749FF01232046237110BD0E
:10A1400008B50379012B02D0022B04D008BD2C21C5
:10A15000FFF73BFFFAE73A21FAE710B50446FFF7AD
:10A16000EFFF20467B21FFF730FF002320462371BD
:10A1700010BD000013B504460191FFF7E1FF23680D
:10A180002046DB68019A0349984701232046237142
:10A1900002B010BD0BF83F0213B504460191FFF762
:10A1A000CFFF23682046DB68019A034998470123C3
:10A1B0002046237102B010BD30F93F022DE9F0476F
:10A1C0000D469046222104462F46FFF7FEFEDFF89B
:10A1D000A490A8444745BA463DD017F8016B222EFB
:10A1E00006D05C2E04D0304604F054F90028F1D19A
:10A1F0002368294620469B68AAEB050298475C2104
:10A200002046FFF7E2FE0D2E0AD8072E1CD9A6F134
:10A210000803052B18D8DFE803F00D0F11171315ED
:10A22000222E01D05C2E0FD131462046FFF7CDFE05
:10A230003D46CFE76221F8E77421F6E76E21F4E7A7
:10A240006621F2E77221F0E723683246494620464C
:10A25000DB689847ECE7BD4205D0236829462046D5
:10A260009B687A1B984722212046FFF7AEFEBDE887
:10A27000F08700BF33F93F0213B50446CDE9002152
:10A28000FFF75EFFDDE900212046FFF797FF02237D
:10A290002046237102B010BD13B50446CDE900215C
:10A2A000FFF74EFFDDE900212046FFF787FF01237E
:10A2B0002046237102B010BD10B50446006808B1F5
:10A2C000FFF75DFE204610BD417470477047704730
:10A2D00008B50021007CFFF769F940EAE07008BD8D
:10A2E00008B50121007CFFF761F940EAE07008BD84
:10A2F00008B5007CFFF74CF920EAE07008BD08B50E
:10A30000007CFFF737F920EAE07008BD13B504467A
:10A31000007C0191FFF73CF90028019901DC607C89
:10A3200020B1207CFFF750F920EAE07002B010BDA8
:10A33000007CFFF757B910B504461421FEF7DBFE89
:10A34000204610BD10B54FF47A730446084600212C
:10A35000C4E90113044B2074236001231146637484
:10A36000FFF7DEF8204610BD44F93F020022007CD2
:10A37000FFF7E4B8007CFFF7EFB810B504461422ED
:10A38000002104F0C6F8204610BD000010B588B0CA
:10A3900003A8FFF7F2FF0C4CD4E88F1F11F0010166
:10A3A0000FD120460191FEF7B5FE019948B103AAED
:10A3B0000648FFF7C7FF2046FEF7B1FE044804F049
:10A3C00063F8024808B010BD78AE07107CAE0710E5
:10A3D0007DB23F02704710B504461821FEF78BFE90
:10A3E000204610BDF0B5037D0E46062B4FF000044D
:10A3F0008DB000F1040712D000F1080515F8011D19
:10A400000A22304601F02BF9AF42044419D0002C47
:10A41000F4D02E21304601F01FF90444EEE72F233B
:10A420006A4639460A208DF80040FFF775F96846FC
:10A43000FEF738FE3368024669463046DB689847C7
:10A44000044620460DB0F0BD10B50446044B112261
:10A45000002140F8043B04F05CF8204610BD00BF2A
:10A4600074F93F020346074A10B543F8042B01F183
:10A47000100251F8044B914243F8044BF9D10A7889
:10A480001A7010BD74F93F0210B59DF8084044EAF7
:10A49000032343EA0242042342EA01614160037557
:10A4A00010BD000007B5064B0360CB7800938B7896
:10A4B0004A780978FFF7E8FF03B05DF804FB00BFB6
:10A4C00074F93F0210B58368044613B103220146B4
:10A4D0009847204610BD13B56C460B460246D0E99E
:10A4E000000184E8030093E8030082E8030094E895
:10A4F000030083E8030002B010BD0000014B1860A8
:10A50000704700BF98AA071008B50F4B43B1FFF77B
:10A510003DFF03681B699847002801DD00E000BF8C
:10A520000A4B43B103F006FE03681B6998470028F5
:10A5300001DD00E000BF064B0BB103F041FE054B0F
:10A540000BB103F073FE08BD000000000000000026
:10A55000000000000000000008B5FFF7D5FFFFF77E
:10A560000FFA014B186008BD08AF07100548064AEE
:10A5700008B5121A054903F0A5FF054B054A1A60F4
:10A5800008BD00BF00B4071004B40710C0F05F0896
:10A5900000B407101E1C279A002307B51A466FF057
:10A5A00077010093FFF72EFB03B05DF804FB00007A
:10A5B00007B543880A2B08D0502B0BD1094B1B68D9
:10A5C0004BB103B05DF804EB1847FFF7E5FF03B0AC
:10A5D0005DF804FB00231A466FF077010093FFF744
:10A5E00011FBF4E794AE0710002110B51148FFF7F6
:10A5F00079FB114B1A68114B9A420CBF01220022C1
:10A600000F4B1A7001D0FFF7B1FFFFF79DF9044619
:10A6100003F088FF0B4B13B1204600E000BF002180
:10A620000848FFF71DFABDE8104000210648FFF773
:10A63000DBBA00BFADB43F0200B407101E1C279A5E
:10A6400090AE07100000000061B53F020022014BF0
:10A650009A60704798AE0710024B1A68024B1A6056
:10A66000704700BF8CAA0710A8AE07108068036867
:10A67000DB6818477047084611B10B685B681847DC
:10A680007047704770477047704738B504460D46AD
:10A6900000682E2103F081FF2368C31A2B6023B1C9
:10A6A000037803B1013023682060184638BD10B527
:10A6B00004460C21FEF71FFD204610BD10B50446D0
:10A6C0000421FEF718FD204610BD10B504460421F4
:10A6D000FEF711FD204610BDFFF748B808B5FEF79C
:10A6E000D7FCB0FA80F0400908BD704710B50C46A1
:10A6F000FFF74CFE844205D1FFF748FEBDE810404D
:10A70000FFF738BE03F016FD844205D103F012FDB9
:10A71000BDE8104003F08FBB2CB123682046BDE894
:10A7200010405B68184710BD0B6803604B684360BE
:10A7300013B15A6801325A60704713B5044608468F
:10A740000191FEF7AFFC02462046019902B0BDE838
:10A750001040FFF7A1BD13B5044608460191FEF76E
:10A76000A1FC0246204623680199DB6802B0BDE8DF
:10A770001040184707B503688DF807100122DB6801
:10A780000DF10701984703B05DF804FB0A6810B5A6
:10A7900002604A6842600022C0E9022202618C68BD
:10A7A0008A608460CC68CA60C4600C690A61046114
:10A7B00010BD00002DE9F74F4FF0140AD0E90084D6
:10A7C000174645460AFB04F40093174BA4105C435C
:10A7D000002C21DD66100AFB06F005EB0009B9F834
:10A7E00004B03A465F4528BF5A462858019103F005
:10A7F000E6FE00284FF0010301990BD15F4503D11C
:10A80000009A13703446E3E7FCD9A61B09F114053E
:10A81000013EF7E7F9DBF5E7A5EB08050248AD10C7
:10A82000684303B0BDE8F08FCDCCCCCC7FB50369D5
:10A83000057E019103B3F9B1002600F10C040396E3
:10A8400003A901A8FFF721FF0146A8B10DF10B03F1
:10A850002046039A8DF80B60FFF7ACFF9DF80B3094
:10A8600053B12368142404FB0034B4F906300834CF
:10A87000002BA8BFDDB2E3E7284604B070BD0EB4DC
:10A88000F0B58CB000AF07F1440555F8042B044631
:10A890002B46202107F110007A60FD60FFF7EAF9EE
:10A8A0001F287A681AD900F1080323F007036E46BF
:10A8B000ADEB030D411C2B466846FD60FFF7DAF94E
:10A8C000021E04DD236869462046DB689847B546CA
:10A8D0003037BD46BDE8F04003B070470028F7D0E0
:10A8E00023680246DB68204607F110019847EFE72E
:10A8F00010B5084CD4E88F3FDB0709D42046FEF79B
:10A9000009FC28B12046FEF70AFC034803F0BCFD11
:10A91000024810BDB0AE071033B63F0290AA071030
:10A9200010B5084CD4E88F3FDB0709D42046FEF76A
:10A93000F1FB28B12046FEF7F2FB034803F0A4FD2B
:10A94000024810BDB4AE07109BB63F0294AA071090
:10A9500038B500250446C0E90055C0E904558560B6
:10A96000856140F8245FFEF7E5FEFFF7C1FFE06177
:10A97000FFF7D6FF25732062204638BD10B50A4C7C
:10A98000D4E88F3FDB070CD42046FEF7C3FB40B171
:10A990000648FFF7DDFF2046FEF7C1FB044803F041
:10A9A00073FD024810BD00BFACAE0710BCAE07106F
:10A9B000A1BE3F020023024A02490348FFF742B802
:10A9C00089BC3F0215BC3F0295BB3F0200231A46DB
:10A9D00019461846FFF736B837B504468D686846FD
:10A9E000FFF7A2FE6A4629462046FFF775FB01A83D
:10A9F000FFF762FC204603B030BD37B50446CD6892
:10AA00006846FFF791FE6A4629462046FFF740FB5D
:10AA100001A8FFF751FC204603B030BD37B504460E
:10AA20000D696846FFF780FE6A4629462046FFF713
:10AA3000D8FA01A8FFF740FC204603B030BD000063
:10AA400070B58AB00D46014604A8FFF7C5FF144E45
:10AA500004A8FFF759FBE8B1684604A9FFF7CDFF4A
:10AA600031460298FFF73AFE044610B12C1E18BF7B
:10AA7000012401A8FFF720FC002CE9D0684604A9B6
:10AA8000FFF7CCFF6846FFF7E2FA286001A8FFF75E
:10AA900013FCDDE705A8FFF70FFC0AB070BD00BF8F
:10AAA0009CF93F0237B50C46134920461546FEF780
:10AAB000EFFA50B9FFF76AFC4FF41651FFF756FC56
:10AAC00003B0BDE83040FFF761BC20460B49FEF7FC
:10AAD000DFFA78B94FF4165301A928460193FFF71E
:10AAE000AFFF03F027FB019903F0A2F903F022FB6B
:10AAF00003B030BD0020FBE7A1F93F02A8F93F02F7
:10AB000070B51426D0E90053044606FB0356AE4246
:10AB100005D005F10800FFF7F3FF1435F7E72068CB
:10AB2000FFF78CF8204670BD70B50446D0E900539D
:10AB300005EB0316AE4204D0284603F0D3F91035D6
:10AB4000F8E72068FFF77AF8204670BD10B5044694
:10AB50000C30FFF7D5FF2046FFF7E6FF204610BD7B
:10AB600010B50446034B40F8043BFFF7EFFF2046C7
:10AB700010BD00BF88F83F0210B50446FFF7F0FF94
:10AB800020462421FEF7B7FA204610BD10B5044632
:10AB9000024B0360FFF7E4FF204610BD48FA3F0276
:10ABA00010B50446FFF7F2FF20462421FEF7A3FA72
:10ABB000204610BD0022C0E90022826010B50C685A
:10ABC0000A6004604C684A6044608C688A608460F3
:10ABD00010BD10B5044603681868FEF7D5FD204681
:10ABE00010BD00002DE9F04F87B003931C4B804649
:10ABF0005B688946C3F3080316466BB9FFF7BEFED0
:10AC0000044600F12403406A0593FFF765FD237BAA
:10AC10002BB105A8FFF7DDFF07B0BDE8F08F0123DA
:10AC20005FFA89F92373D4E9005305EB830AAA4537
:10AC300012D055F8047B3146381DFFF7F7FD8145EA
:10AC4000F5D3039A3B680092D3F808B04A463346DE
:10AC500041463846D847EAE700232373D9E700BFC7
:10AC600000ED00E02DE9F74F9B461A4B80465B68EC
:10AC70008946C3F3080316466BB9FFF77FFE044607
:10AC800000F12403406A0193FFF726FD237B2BB1DB
:10AC900001A8FFF79EFF03B0BDE8F08F0123F6B2D5
:10ACA0002373D4E9005305EB830A55450ED055F8BC
:10ACB000047B5946381DFFF7B9FD8642F5D33B6842
:10ACC0004A4641463846DB689847EEE7002323733F
:10ACD000DEE700BF00ED00E02DE9F341164B05462D
:10ACE0005B680F46C3F308031BBBFFF747FE044630
:10ACF00000F12403406A0193FFF7EEFCD4E90063FE
:10AD0000462406EB8308B04509D101A8FFF761FF8F
:10AD1000A542B4BF0020012002B0BDE8F08156F882
:10AD2000040B39460430FFF781FD8442A8BF044676
:10AD3000E9E70020F0E700BF00ED00E0F8B5D0E95A
:10AD400001539D4204460E460DDB6F1C002F006828
:10AD500004DDB900FEF780FF18B9F8BDFEF76EFFFD
:10AD600000202060A7602768626807EB85019200D9
:10AD7000A2EB8502081D03F0B2FB47F8256063686B
:10AD8000012001336360E8E737B5044600F124038E
:10AD9000406A01930D46FFF79FFCD4E9003203EBB4
:10ADA0008202934219460AD009680433A942F8D1B5
:10ADB00001A8FFF70EFF0025284603B030BD294645
:10ADC0002046FFF7BBFF05460028F1D06368012B42
:10ADD00001D1FFF7EFFD01A8FFF7FBFEECE70B4603
:10ADE00070B50446D0E9000200EB820282420FD027
:10ADF00001461D6851F8046BAE4207D1521A03F0A8
:10AE00006EFB01206368013B636070BD0846EDE79F
:10AE10000020FAE71FB5044600F12403406A0191BF
:10AE20000393FFF759FC204601A9FFF7D8FF18B19B
:10AE300063680BB9FFF7CAFD03A8FFF7CAFE04B0A9
:10AE400010BD182370B50446D0E9045603FB06561E
:10AE5000AE4215D0204605F11001FFF7C0FF636830
:10AE60000BB9FFF7B3FDE06929690368DB68984710
:10AE7000696919B1206A0368DB6898471835E7E704
:10AE80001826D4E9045306FB0356AE4204D02846E4
:10AE900003F028F81835F8E70023636170BD73B537
:10AEA0000446FFF793FD04F12403606A0193FFF762
:10AEB00013FC2046FFF7C5FF01A8FFF78AFE606A72
:10AEC00008B1FEF745FCD4E90453182606FB0356E7
:10AED000AE4204D0284603F005F81835F8E720699B
:10AEE000FEF7ACFE2068FEF7A9FE204602B070BD5A
:10AEF0000148FFF7D4BF00BFBCAE07108842F8B5C9
:10AF000004460D46164615D9904214D2A2F11406F5
:10AF1000751AA1F114072C44B7421AD01CB131465E
:10AF20002046FFF733FC06F10800FFF7E9FD143E69
:10AF3000143CF1E70DD0B5420BD01CB12946204698
:10AF4000FFF724FC05F10800FFF7DAFD143514348F
:10AF5000F1E7F8BD8842F8B504460D46164614D907
:10AF6000904213D2A2F11006751AA1F110072C44D9
:10AF7000B74218D01CB13146204603F02FF83046B6
:10AF800002F0B0FF103E103CF2E70CD0B5420AD000
:10AF90001CB12946204603F021F8284602F0A2FF02
:10AFA00010351034F2E7F8BD70B50E1E054611DD00
:10AFB0003001FEF735FE044658B1D5E9001201EB29
:10AFC0000212FFF7C7FF2868FEF738FE01202C6049
:10AFD000AE6070BD0024F6E72DE9F04F90460023E7
:10AFE000462295B00391D8F8041004469942C0E96E
:10AFF0000033C0E90233C0E90433CDE908330276F7
:10B000000A9323DCD8E90057142303FB0757AF4208
:10B010003BD029460BA802F0E1FF0BA90FA8099E1F
:10B0200002F0DCFFDDE9091399421BDA089B099A5B
:10B0300003EB0616314603EB021206F11000FFF790
:10B0400089FFEEB9099B0133099311E008A8FFF7C6
:10B05000ABFF0028D6D108A8FFF766FD204615B043
:10B06000BDE8F08F013108A8FFF79EFF0028DDD171
:10B070000FA802F037FF0BA802F034FF1435C6E723
:10B0800030460FA902F0AAFFDCE700264FF01409B2
:10B09000CDE90B660D96DDE908239E427CDA33018B
:10B0A000D35806930BB90136F5E70023079309FB44
:10B0B00006F30BAD029307A906A8FFF7E6FA82464E
:10B0C0000028F0D04FF0000301468DF817302846D5
:10B0D000079A0DF11703FFF76DFB9DF817700190AC
:10B0E000002F4AD1BDF81C30CDE91177ADF84030C2
:10B0F0004FF6FF73CDF83CA0ADF842301397D5E979
:10B100000132934217DB03F1010ABAF1000F30DD7F
:10B1100009FB0AF0FEF784FD834660B3D5E900120F
:10B1200009FB0212FFF7EAFE2868FEF787FDC5F863
:10B1300000B0C5F808A02B68019A09FB023A6A68BA
:10B14000514609FB02320AF11400FFF7D7FEBAF1AB
:10B15000000F03D050460FA9FFF718FB6B680133AF
:10B160006B6011A8FFF7CCFC3FB10BA8FFF7C8FC40
:10B1700071E7BB46D8E70127F3E7019B2D6809FB80
:10B180000355069B1B782BB9D8F80030029A13445C
:10B190001B7CEB8008358EE7216822606268636063
:10B1A000A36809920A9A0A93E368A2600B9A0B9328
:10B1B0002369E2600C9A0C93636922610D9A0D93E6
:10B1C000039B089162612376CFE70000F0B5044647
:10B1D0002646174687B00D4668461946FEF7EBF837
:10B1E0000B4B694646F8043B03A8FEF7E4F83946E2
:10B1F00003AA3046FFF7F0FE03A8FEF79BF8684667
:10B20000FEF798F82046034B2562236007B0F0BD97
:10B2100088F83F0230FA3F02F0B50F4685B0384655
:10B220001C4916461D460A9CFDF732FFC0B9A4B161
:10B23000294601A8FFF7BEFC2420174903F00AF8AD
:10B24000054630B101AB32462146FFF7BFFF134B35
:10B250002B6001A8FEF76EF82C46204605B0F0BD25
:10B2600038460F49FDF714FF90B9002CF5D0294658
:10B2700001A8FFF79FFC2420074902F0EBFF0546D9
:10B280000028E6D03246214601ABFFF79FFFE0E7FA
:10B290000024E2E7B0F93F0248FD3F0248FA3F02CE
:10B2A000B4F93F02014B024A1A607047B8AE07106A
:10B2B000C5F93F022DE9F047089DD0F820900446DB
:10B2C0000E4617469846FFF761F881454DD02B7919
:10B2D000190704D520466A695449FFF7D0FAB8F136
:10B2E000000F0DD05B212046FFF744FA414620466F
:10B2F000FFF731FA236802222046DB684C49984761
:10B300002B79DA0724D5D5F808802F21404603F0A1
:10B3100076F908B100F1010841462046FFF71BFA13
:10B320002B799B0708D53A212046FFF723FA2046C0
:10B33000EA684049FFF7A3FA2A79236812F0040F5C
:10B3400020464FF00202DB6814BF3B493B49984757
:10B350002B7958071DD529690B461A4613F8010B9E
:10B3600060B1202808D11946F7E73548FEF7FFFC01
:10B370000028ACD0BDE8F0872828EED12368521A07
:10B380002046DB689847236804222046DB682D4965
:10B39000984700213846FEF747FB01462046FFF755
:10B3A000DAF9236802222046DB68244998471EB157
:10B3B00031462046FFF7CFF92B7913F0300F2CD010
:10B3C00023682149DB680222204698472B79D90659
:10B3D0000AD52368072220461C49DB689847204687
:10B3E000AA691B49FFF74BFA2B799A0611D5DB06A0
:10B3F00005D5236802222046DB680F499847236859
:10B40000204614490A22DB6898472046E969FFF77D
:10B41000A2F95D212046FFF7ADF923682046BDE87B
:10B42000F0470222DB680C49184700BFC9F93F0208
:10B43000D0F93F020BF83F02D3F93F02D8F93F029F
:10B4400068AE0710D6F93F02DBF93F02DEF93F0292
:10B45000E6F93F02E9F93F02F4F93F022DE9F04134
:10B460000446076A0D461646FEF790FF874207D04E
:10B47000206A324603682946BDE8F041DB68184778
:10B480000348FEF774FC0028F2D0BDE8F08100BF4D
:10B4900068AE07102DE9F04385B0D0F8209005463E
:10B4A0000F4690461E460C9CFEF770FF814505D165
:10B4B0004948FEF75CFC002840F08A804FF0000904
:10B4C0002B6A464A01A8019203938DF80890FEF773
:10B4D00044FE49464046FEF7A7FA8046404901220D
:10B4E00001A8FEF7C9FE4146FFF727F93FB13D49E4
:10B4F000012201A8FEF7C0FE3946FFF71EF93EB152
:10B500003949012201A8FEF7B7FE3146FFF715F9C8
:10B510002379DF070ED5A6682F21304603F06FF898
:10B5200000B1461C3149012201A8FEF7A5FE3146B3
:10B53000FFF703F923799E0707D52D49022201A8B9
:10B54000FEF79AFEE168FEF715FE2379580714D539
:10B55000266933461F4613F8012B2AB1202A01D150
:10B560001E46F7E7282AF5D10222224901A8FEF754
:10B5700083FE3146BA1BFEF78FFE2379190707D5E4
:10B580001D49012201A8FEF777FE6169FEF704FE5E
:10B590002379DA0608D5042218490DEB0200FEF7DC
:10B5A0006BFEA169FEF7E6FD23799B0607D51449DA
:10B5B000062201A8FEF760FEE169FFF7BEF801A8C8
:10B5C000FEF7B5FD286A022203680E49DB6898473A
:10B5D00005B0BDE8F08300BF68AE071018FA3F025F
:10B5E000A6F93F02F7F93F02CFFE3F02F9F93F0209
:10B5F000FBF93F02FEF93F0201FA3F0203FA3F0264
:10B6000008FA3F02F4F93F02F8B506460D46002459
:10B610008F18BD420CD0336830469B6815F8011B6B
:10B620009847031E01DB1C44F3E7002C08BF1C46AF
:10B630002046F8BD13B50446084659B10191FDF7FF
:10B6400031FD0246204623680199DB6802B0BDE85F
:10B650001040184702B010BD03689B6818470023CC
:10B66000012A98BF0A2230B58BB08DF8243009AC7E
:10B670000D46B1FBF2F101FB125303F0FF03092B5E
:10B6800094BF30333733DBB2AA4204F8013DEFD91F
:10B690002146FFF7CFFF0BB030BD704770477047B2
:10B6A00070470000064B10B5994200F10C0405D01C
:10B6B000084602F0D7FD002808BF0024204610BD30
:10B6C00028F93F02064B10B5994200F10C0405D051
:10B6D000084602F0C7FD002808BF0024204610BD20
:10B6E00028F93F02064B10B5994200F10C0405D031
:10B6F000084602F0B7FD002808BF0024204610BD10
:10B7000028F93F0210B504466821FDF7F4FC2046F5
:10B7100010BD10B504462821FDF7EDFC204610BDF4
:10B7200010B504463021FDF7E6FC204610BD682127
:10B73000FDF7E1BC2821FDF7DEBC3021FDF7DBBCC5
:10B74000F0B50025EC1C8C420DD86E1C875D445D65
:10B75000974205D12644B14205D31D60601CF0BD5F
:10B7600001342544EEE70020F9E700000A20024AF0
:10B770000249FEF72FB900BF15A93F0288FA3F0220
:10B7800030B40D4611461A4603680968D3E90043F0
:10B790002868A44630BC6047012A38B5044602D167
:10B7A0000B68236003E0022A03D0032A0DD0002097
:10B7B00038BD08200D68FDF79AFC03460028F0D03C
:10B7C00095E8030083E80300EBE700680028EED06B
:10B7D0000821FDF790FCEAE710B5836804462BB119
:10B7E0000322014698470023C4E9023310BD10B577
:10B7F000836804462BB10322014698470023C4E91D
:10B80000023310BD0023202210B504468AB0CDE9D2
:10B810000223084A01200092074902AAFEF7E8F82D
:10B82000002322462068054900880AB0BDE8104080
:10B83000FDF7FEBFAAFA3F029FFA3F02B1E33F02C3
:10B8400010B5013802EB410110F8013F1B0903F16B
:10B850003004392C88BF03F1370402F8024B037817
:10B8600003F00F0303F13004392C88BF03F13704D0
:10B87000914202F8014CE7D110BD10B50446583092
:10B88000FEF720FE04F14800BDE8104002F02ABB9C
:10B8900038B5036805468B420C4608D011B14B6899
:10B8A00001334B60286808B1FEF769FB2C6038BD96
:10B8B000A0F13003DAB2092A01D818467047A0F186
:10B8C0006103052B01D857387047A0F14103052BC0
:10B8D00094BF37384FF0FF3070470000002310B599
:10B8E0000370044B04461868FDF740FF012320460F
:10B8F000237010BDE8AE071010B5037804461BB1E5
:10B90000024B1868FDF740FF204610BDE8AE071057
:10B9100082B06A4603460868496803C26A4603CA99
:10B9200018601846596002B0704708B582798B7963
:10B930009A4206D1062202F0B5FDB0FA80F0400925
:10B9400008BD0020FCE7000070B50446384B86B007
:10B9500018689B880090ADF80430364BA6791868BB
:10B960009B880290ADF80C307EB9062269462046CD
:10B9700002F098FD38B10622204602A902F092FD9D
:10B98000003818BF012006B070BDA3882068ADF84C
:10B99000143006F0FD03012B049024D19DF81550BE
:10B9A000062205F03F05694604A88DF8155002F0FF
:10B9B00079FD00283AD065F03F05062202A904A8C7
:10B9C0008DF8155002F06EFD80B36079012E00F005
:10B9D000C00004D1C02814BF00200120D3E7B0FA72
:10B9E00080F04009CFE7022E1ED103229DF81550AA
:10B9F0000DEB020105F03F050DF113008DF8155018
:10BA000002F050FD90B165F03F0503220DF10B01EE
:10BA10000DF113008DF8155002F044FD30B160793E
:10BA200000F0C0004028D6E70120ACE70020AAE7DC
:10BA3000C0F73F02C6FA3F024FF0FF330360838036
:10BA4000002070470021024608B501604160FFF701
:10BA5000F3FF1046917108BD0123024610B5036142
:10BA6000044B03F1100153F8044B8B4242F8044B92
:10BA7000F9D110BDC6F73F020B7C30B513F0FD03C2
:10BA80000DD1024603610C4B03F1100453F8045B23
:10BA9000A34242F8045BF9D10B88838130BD0123B6
:10BAA0000361034601F1100251F8044B914243F83F
:10BAB000044BF9D1F2E700BFC6F73F0210B50B46C1
:10BAC0000446B1B1012A01F110020AD1014653F82E
:10BAD000040B934241F8040BF9D101232361204662
:10BAE00010BD411E12F8010D9A4201F8010FF9D163
:10BAF000F3E7102202F00DFDF1E738B504460D46DC
:10BB0000FFF7AAFF002320462361A58138BD08B5B1
:10BB100002690B699A4206D1102202F0C3FCB0FA06
:10BB200080F0400908BD0020FCE7000001232DE95A
:10BB3000F341024606460361334B0C4603F1100104
:10BB400053F8040B8B4242F8040BF9D144B324217F
:10BB5000204602F048FD04284FF0000523D1ADF83F
:10BB6000045001AFA51C063415F8020CFFF7A0FE27
:10BB7000B0F1000812DB15F8010CFFF799FE002860
:10BB80000CDB023540EA0810A54207F8010BEBD1A7
:10BB90009DF8053033739DF80430737300233361CF
:10BBA00002B0BDE8F0814FF010082421204602F0D9
:10BBB0001AFDA84207D842460021304602B0BDE82F
:10BBC000F04102F0A6BCB8F1000FE9D0605DFFF7CC
:10BBD0006FFE030615D40001C7B208F1FF38242117
:10BBE000204606F8087002F0FEFC0135A84208D98C
:10BBF000605DFFF75DFE40B20028A4BF384306F841
:10BC000008000135D1E700BFC6F73F0213B504466F
:10BC10000191FFF721FF20460199FFF787FF20469A
:10BC200002B010BD10B500F10F0301391C7883423A
:10BC300001F8014F03F1FF33F8D110BD2DE9F041B8
:10BC40001F460D468EB000295BD0DAB1D0F81080C7
:10BC5000541EB8F1000F19D1838902215BBA05AADD
:10BC600001A8ADF80430CDF81480FFF7E9FD042CED
:10BC700028BF04242846224605A902F023FC621CA2
:10BC800005F8048010460EB0BDE8F08101A9FFF769
:10BC9000C9FF05AA7FB1102101A8FFF7D1FD242C0F
:10BCA00028BF24242846224605A902F00BFC0023C5
:10BCB000621C2B55E6E704212D260DEB0100FFF752
:10BCC000BFFD02210DF11D0202A88DF81C60FFF7D7
:10BCD000B7FD02210DF122020DF10A008DF821605D
:10BCE000FFF7AEFD02210DF1270203A88DF82660B3
:10BCF000FFF7A6FD06218DF82B600BAA0DF10E00B3
:10BD0000CBE70A46BEE710B504468AB000232522D9
:10BD100008466946FFF792FF6946204602F02DF972
:10BD200020460AB010BDF7B5054616461F460A461E
:10BD3000D0E9000101ABFFF703FD30F002040CD0A5
:10BD4000841EBC4228BF3C463EB101992B6802319B
:10BD500022463046194402F0B5FB204603B0F0BD40
:10BD600037B513460C4601920A4608210546FFF7EF
:10BD7000DAFF40B9224609212846019B03B0BDE8FD
:10BD80003040FFF7D0BF03B030BD0000F0B50C4627
:10BD900089B00C49054602F0F0F81F22694620469A
:10BDA000FFF7DEFF064650B16C460027284614F820
:10BDB000011B02F061F910B10137BE42F6D12846ED
:10BDC00009B0F0BDF6F93F0207B50223192101AA17
:10BDD000FFF7A9FF08B1BDF8040003B05DF804FB4C
:10BDE00038B54FF6FF730025044643800E222946DE
:10BDF00005700571063002F08CFB04F11400FFF7AA
:10BE00002BFE04F12800FFF727FE044904F13C0053
:10BE100002F0B3F82046656538BD00BFF6F93F0271
:10BE200038B50D680446014605F12800FFF76FFE9E
:10BE300040B1AB89A28A9A4205D8E08A984234BFC1
:10BE40000020012038BD0020FCE710B5D0E9063203
:10BE500003EBC2029342184605D0046808332488D5
:10BE60008C42F7D110BD0020FCE70000002370B524
:10BE7000036005466820FDF73AF9041E04F10C063C
:10BE800007D00123C4E90133044B30462360FFF798
:10BE9000A7FF2846C5E9006470BD00BF90FC3F02C3
:10BEA00070B5054606460C6814340FCC0FC52368E0
:10BEB00030462B6070BD0000F0B506461F460D46AB
:10BEC00085B0002950D0002A4ED00468F42A237887
:10BED00028BFF42243B32379980709D50023A0890A
:10BEE0000392FDF797FC0028039A03DA05B0F0BD32
:10BEF0006FF0770034682379D90609D5012F07D070
:10BF000000232946A08905B0BDE8F040FDF700BD3B
:10BF10009B06EBD5022FE9D000232946A08905B066
:10BF2000BDE8F040FDF702BD4FF6FF716088884222
:10BF30001CD021794E0701D5012F04D10B0709D45C
:10BF40006FF07700D2E7A189009313462A46FDF7E8
:10BF500099FCCBE7022FF3D00023A189009313466D
:10BF60002A46FDF781FCC1E70248BFE76FF0D10028
:10BF7000BCE700BFF2FEFFFF10B5036886B01A7879
:10BF800052BB4FF6FF705C88844225D0188A30B3CC
:10BF9000CDE903220592134A0092134ACDE9012309
:10BFA0005A88ADF80C201A8AADF80E209A89ADF89F
:10BFB000102059B11A79920644BF022205921B79CA
:10BFC000DB0642BF059B43F0010305930021684651
:10BFD000FDF790FC06B010BD6FF0D100FAE76FF0EE
:10BFE0007700F7E70300180081D13F02F8B500267B
:10BFF000054606602820FDF77AF8041E04F10C07B8
:10C000000AD00123C4E90133054B38462360FFF70A
:10C0100023FD266284F824602846C5E90074F8BD33
:10C02000ACFC3F0270B50025064605603020FDF7E8
:10C030005EF8044698B10123C0E901330A4B0E3083
:10C0400040F80E3C4FF6FF7320F8023CFFF7FAFC75
:10C05000C4E90655C4E90855C4E90A55A5757460D4
:10C060000C343046346070BDC8FC3F0213B5044642
:10C0700001A8FFF733FC236801A81C884FF6FF7363
:10C08000E41A18BF0124FFF737FC204602B010BDA8
:10C0900037B50C46054601A8FFF720FC23682A683F
:10C0A00001A8C2F802306368C2F80630FFF724FC2A
:10C0B00003B030BD37B50D46044601A8FFF70EFCAE
:10C0C0002A6801A8D2F802302360D2F806306360F3
:10C0D000FFF712FC204603B030BD30B505460C46D4
:10C0E00087B001A8FFF7FAFB2A68236812881B882B
:10C0F0009A420DD1294602A8FFF7DCFF214604A889
:10C10000FFF7D8FF04A902A8FFF70FFC044600B907
:10C11000002401A8FFF7F0FB204607B030BD000067
:10C1200070B506467420FCF7E2FF0446A0B1002576
:10C13000C0E90055C0E90255C0E90455C0E90655FB
:10C1400005622430FFF76EFF04F12C00FFF76AFF51
:10C15000E563E564E565E566346024B90A200A4ACA
:10C160000A49FDF737FC0020FDF71CFB20B10A202F
:10C17000054A0749FDF72EFC002231680548FDF706
:10C18000ABFB304670BD00BF15A93F0288FA3F02E5
:10C19000CDFA3F02C1DA3F0210B50A4CD4E88F3F16
:10C1A000DB070CD42046FCF7B5FF40B10648FFF78B
:10C1B000B7FF2046FCF7B3FF044802F065F90248D8
:10C1C00010BD00BFE4AE0710ECAE07106DDD3F02FE
:10C1D00030B503680446093B012B0D468DB011D8DC
:10C1E000FFF7DAFFA1880068FFF72FFE034658B972
:10C1F0002022CDE904200B4A322000920A4904AAE9
:10C20000FDF7F6FB0DB030BD6A6D002AFAD0D4E917
:10C21000032105F14C00CDE90312AC6D04AA03A97A
:10C22000A047EFE70FFB3F029FFA3F0208B500204F
:10C23000FDF7B8FA00EAE07008BD000070B50446EA
:10C240000E4615461830FFF7C7FA04F12800FFF72D
:10C25000CEFA00222146C4E903650348FDF7B0FA8F
:10C260000028A8BF606970BD0DEB3F0210B5044601
:10C270004069FDF7E3FCA068FDF7E0FC204610BD37
:10C28000002247F67F71C0E90022C0E90222C0E91E
:10C290000422C0E90E22C0E91022C0E91222C0E93E
:10C2A0001422C0E91622C0E91822C0E91B2202624A
:10C2B0000263A0F8681070470368D8690028D4BFEB
:10C2C00000200120704710B504460068FDF7B6FC59
:10C2D000204610BD70B504462426C06DFDF7AEFCA7
:10C2E000206DFDF7ABFC04F1380504F14400FFF7C5
:10C2F000EAFF2846FEF718FC04F12800FEF7E2F8F2
:10C3000004F11800FEF7DEF8D4E9005306FB0356EB
:10C31000AE4204D02846FFF7A9FF2435F8E720688D
:10C32000FDF78CFC204670BD30B515460C469FB01D
:10C3300079B172B101A8FFF7A3FF21462A4601A8EF
:10C34000FFF77CFF044601A8FFF7C4FF20461FB09B
:10C3500030BD014CFAE700BFF2FEFFFF38B5141EF6
:10C360000546436802DB62189A4200DD5C1A2A68BF
:10C37000501801191A44521A02F0B1F86A68121BD7
:10C380006A6038BD38B500230446836008200D4636
:10C39000FCF7ADFE18B12B6803606B684360034B7C
:10C3A0002060E360024B2046A36038BD31C73F02E6
:10C3B00049C73F020B68036013B15A6801325A60E3
:10C3C000704710B5044651F8043B40F8043BFFF7B2
:10C3D000F1FF23680BB9FFF7C9F9204610BD10B56E
:10C3E000044651F8043B40F8043BFFF7E3FF2046C6
:10C3F00010BD10B5044651F8043B40F8043BFFF76C
:10C40000D9FF204610BD10B504460430FDF754FF97
:10C41000204610BD70B50446D0E9005305EBC306B5
:10C42000AE4204D0281DFDF747FF0835F8E7206825
:10C43000FDF704FC204670BD70B50446D0E90053FA
:10C4400005EBC306AE4204D0281DFDF735FF0835C5
:10C45000F8E72068FDF7F2FB204670BD10B50446F2
:10C460002430FFF7E9FF04F11800FFF7D3FF10BDF8
:10C47000826810B50AB901F0F1FEC368BDE810404A
:10C48000184700232DE9F047C0E900338360D1F855
:10C490000480054698450F464ADD4FEA0810FDF72F
:10C4A000BFFB0646002843D0D5E90041A04204EB7B
:10C4B000011A16D9504515D2AAF1100AA4F1100993
:10C4C000AAEB04040444D1451DD01CB151462046BA
:10C4D00001F084FD504601F005FDAAF1100A103C60
:10C4E000F1E710D0B146A2450DD0B9F1000F03D04D
:10C4F0002146484601F072FD204601F0F3FC10345D
:10C5000009F11009EFE72868FDF798FBC5F80880E6
:10C510002E60D7E9004304EB0318A04506D021465E
:10C52000304601F075FD10341036F6E77B686B601D
:10C530002846BDE8F08730B58DB00C4600F13801D3
:10C5400001A8FFF79EFF029B002B2FDD04F11401D1
:10C5500004A8FFF71BFC04F1080108A8FFF716FC6C
:10C560000A9A069B13431FD0DDE9014504EB05152C
:10C57000AC4219D0204604A901F0A0FD60B101240D
:10C5800008A801F0AFFC04A801F0ACFC01A8FEF77C
:10C59000CBFA20460DB030BD204608A901F08EFD33
:10C5A00010340028E4D0EAE70024E9E70124EDE7AD
:10C5B000F8B50023C0E9003383604F6805469F4209
:10C5C0000E4640DDF800FDF72BFB0446D8B3D5E955
:10C5D0000003844200EBC30310D99C420FD2083BF6
:10C5E0001A1AA0F1080C22449C4518D01AB11968F7
:10C5F000116059685160083B083AF5E70FD00146D1
:10C6000022468B420BD03AB1D1F800C0C2F800C02C
:10C61000D1F804C0C2F804C008310832F1E7FDF7D0
:10C620000DFB2C60AF60D6E9003103EBC1009842EE
:10C6300008D01A68083444F8082C5A68083344F8BB
:10C64000042CF4E769602846F8BD70B50446002064
:10C65000C4E90000A0604E680D46864212DD7100FC
:10C66000FDF7FAFA70B12060A660D5E9003203EB5D
:10C6700042029A4204D033F8021B20F8021BF8E76A
:10C680006B686360204670BD10B50379044623B91A
:10C690000368186808B1FDF7D1FA204610BD10B53F
:10C6A0000379044623B90368186808B1FDF7C6FA90
:10C6B000204610BD2DE9F043D0F86C800F468FB0B6
:10C6C000B8F1000F72D0056F002D6FD001F1140981
:10C6D0001F230022FF214846FFF725FBFF230837D1
:10C6E0000446002219463846FFF71DFBAC420646B9
:10C6F00006D0AE4230D0002420460FB0BDE8F08313
:10C700002046FDF78DFA03AB049300230446039003
:10C710008DF8143070B92023CDE90630244B25491B
:10C72000009306AA03463220FDF762F904A8FFF73A
:10C73000ABFFE1E70246FF212B464846FFF7F3FA3D
:10C740002A464146039801F0ADFE18B104A8FFF750
:10C750009BFFCEE70124E9E72846FDF761FA0024B4
:10C7600003AB0646039004938DF8144078B9202358
:10C77000CDE906300E4B0F49009306AA034632203E
:10C78000FDF736F9344604A8FFF789FFB4E70246FF
:10C79000FF212B463846FFF7C6FA2A464146039842
:10C7A00001F080FE0028EED10124ECE70124A3E78C
:10C7B00027FB3F029FFA3F0238B50D1E0446006872
:10C7C00003DDFDF749FA18B938BDFDF737FA002047
:10C7D0002060A5600120F7E708B583688B4202DA84
:10C7E000FFF7EAFF08BD0120FCE738B50023C0E9E8
:10C7F000003383600D4649680446994210DDFFF717
:10C80000DBFF68B1D5E9003122681944994205D0AF
:10C810000AB11878107001330132F7E76B68636072
:10C82000204638BD38B504460D460B68083040F840
:10C83000083C4B68083140F8043CFFF7D6FF05F18F
:10C84000140104F11400FFF7D0FF95F820302046C2
:10C8500084F8203038BD1FB5044601A8FFF7C5FF96
:10C86000019B029A2068236063686260039A0293C6
:10C87000A368A26001900393FDF7E0F904B010BD36
:10C880002DE9F0410F4641681D461944836804466E
:10C890009942904612DC266862683E443146D21BBB
:10C8A000701901F01CFE2A464146304601F00AFE8E
:10C8B000012063682B446360BDE8F081FFF77CFFD3
:10C8C0000028E8D1F8E713460A46002110B50446CF
:10C8D000416002B10BB9002010BDFF2B28BFFF2320
:10C8E000FFF7CEFF0028F7D06068F5E7F8B50D46F2
:10C8F000D0E901139942044616460BDA27686268AC
:10C900007919521B481C01F0EAFD7E55636801331A
:10C910006360F8BD0131FFF74FFF0028EED1F8E763
:10C920000A464168FFF7E2BF2DE9F74304461D467A
:10C930000F4601AB90460A46D0E900019DF82890C9
:10C94000FEF7FEFEAE1C02466368B9F1000F26D169
:10C9500028B333441B1AFF2B09D820460199FFF74F
:10C96000FDFC616820463144FFF736FF18B9606866
:10C9700003B0BDE8F0836A1C20460199D2B2FFF7EC
:10C98000B5FF01993A4601312046FFF7AFFF2B462C
:10C990004246019902312046FFF772FFE7E7F1189E
:10C9A000FF29E4D82046FFF717FF0028DFD0691CD5
:10C9B0002046C9B2FFF7B4FF39462046FFF7B0FF63
:10C9C0002B4642466168E6E730B49DF808501AB13C
:10C9D000029530BCFFF7A8BF406830BC70471FB558
:10C9E00000230622C0E9003383600093012304463C
:10C9F0008DF80F2019460DF10F02FFF7E5FF2046D5
:10CA000004B010BD8842F8B504460D46164614D948
:10CA1000904213D2A2F10806751AA1F108072C441E
:10CA2000B74218D01CB131462046FFF7E2FC301D5A
:10CA3000FDF742FC083E083CF2E70CD0B5420AD0B4
:10CA40001CB129462046FFF7D4FC281DFDF734FC15
:10CA500008350834F2E7F8BDF7B50446466868467D
:10CA6000FFF7C7FCD4E901739F4212DB0137002FA7
:10CA700029DDF800FDF7D4F80546F0B1D4E900123D
:10CA800001EBC202FFF7BEFF2068FDF7D7F8256073
:10CA9000A7602368626803EBC606314603EBC20257
:10CAA00006F10800FFF7AEFF1EB169463046FFF7FA
:10CAB000A0FC012563680133636001A8FDF7FCFB5E
:10CAC000284603B0F0BD0025DEE7F8B50546D0E9FD
:10CAD00000430F4604EBC306A64205D03946204664
:10CAE000FFF7FBFA08B114B9F8BD0834F4E7201DCC
:10CAF000FDF7E2FBD5E90032204603EBC20204F168
:10CB00000801FFF77FFF6B68013B6B60ECE70000FB
:10CB10002DE9F04305468FB003A80C46FEF7DEFE74
:10CB20002E68F31E0D2B6AD8DFE813F00E00780094
:10CB30006900FC0069006900690069006900C600BD
:10CB4000C600C600C600C600606A04F118060230BE
:10CB5000FEF7FAFE38B32146AA8951F8243F06A809
:10CB60001A80FFF746FC06A93046FFF775FF07A8B5
:10CB7000FDF7A2FB06A8FFF755FA069B04F1280073
:10CB800007996362FEF784FE07A8FDF795FB202155
:10CB90000023CDE906136D4A009201206C4906AAD4
:10CBA000FCF726FF2BE004A8FFF73CFAAA89049BB8
:10CBB0001A806968049808310230FEF7A9FE04A9BA
:10CBC00006A8FFF716FC304606A9FFF745FF054605
:10CBD00007A8FDF771FBC5B92023CDE906355D4BEC
:10CBE00001205B49009306AA2B46FCF701FF049B3A
:10CBF00029461888FCF700FE05A8FDF75DFB03A891
:10CC0000FEF77AFE0FB0BDE8F083E36B23B104A911
:10CC100004F13400FFF72CFC05A8B6E72046A989EB
:10CC2000FFF713F906460028E9D0014604F12C006D
:10CC3000FFF753FA04F1180848B131464046FFF7B0
:10CC400044FF20220023CDE90623434AA4E74FF600
:10CC5000FF713568D5E90632298003EBC2029A429A
:10CC600003D053F8080B4180F9E7D5E9037307EBCC
:10CC7000C309B94504D0381DFDF71EFB0837F8E796
:10CC800000232B61D5E9067307EBC309B94504D02E
:10CC9000381DFDF711FB0837F8E70023EB61AB7295
:10CCA000E36C23B1314604F14400FFF7E1FB4FF69A
:10CCB000FF7233681A80C0E72046A989FFF7C5F8DC
:10CCC00000289CD0E36D002B99D000230D2EADF8E9
:10CCD000163001D0102E17D1002369681A46062598
:10CCE0008DF81530049109AB8DF8142006908DF85D
:10CCF0001C60DDE90401089583E80300236E06A9A2
:10CD000004F1540098477AE70F2E01BF2B7A696827
:10CD100003F0010208251DBF1A4619461D46C3F33C
:10CD20004003DDE7A9892046FFF78FF80146002878
:10CD30003FF465AFE36E002B3FF461AF6B6806AA6A
:10CD4000069304F16400236F984758E768FB3F029D
:10CD50009FFA3F0242FB3F0272FB3F0270B504465E
:10CD60006430FDF7AFFB04F15400FDF7ABFB04F1B9
:10CD70004400FDF7A7FB04F13400FDF7A3FB04F129
:10CD80003000FDF799FA04F12800FDF795FAD4E98F
:10CD9000065305EBC306AE4204D0281DFDF78CFAFE
:10CDA0000835F8E7A069FCF749FF04F10C00FFF72C
:10CDB00043FB2046FFF72EFB204670BD10B5064B07
:10CDC0001C6844B12046FFF7C9FF2046BDE810406B
:10CDD0007421FCF790B910BDECAE071038B50D1EEC
:10CDE0000446006805DD14216943FCF735FF18B9D6
:10CDF00038BDFCF723FF00202060A5600120F7E785
:10CE00002DE9F8430024C0E900448460884649685D
:10CE10000746A1421CDDFFF7E1FFC8B1D8E9009346
:10CE20004FF0140C0CFB039CD7F800E009EB040551
:10CE3000AC450AD01EEB04061EBF0FCD0FC62B68F3
:10CE400004F1140418BF3360F0E7D8F804307B60B5
:10CE50003846BDE8F8832DE9F84345688368D1E991
:10CE60000087E9199942044617DC142362685D4380
:10CE700003FB07F95A432668521B2E44314606EB42
:10CE8000090001F02CFB4A464146304601F01AFBEE
:10CE900063683B446360BDE8F883FFF79FFF0028A9
:10CEA000E3D1F8E782B070B50C4604A981E80C0024
:10CEB000D0E901139942054617DA14236A6803FB87
:10CEC00004F15A432C68521A0C442146E01804AE6F
:10CED00001F005FB0FCE0FC4336823606B6801338C
:10CEE0006B60BDE8704002B070470131FFF776FF1C
:10CEF0000028E2D1F5E72DE9F04F002405460F4662
:10CF00009046931EC0E9004493B0DBB28460059361
:10CF100079688C4272DA3868424607AB091B2044B4
:10CF2000FEF70EFC0646002868D0059B012B2FD883
:10CF30004FF00009A0F1020B4FEA5B0B0DF13C0A28
:10CF4000079BCB45234455D03A6803EB4903134470
:10CF5000D9789B7808A843EA0121FEF7CEFD0DF1B0
:10CF6000340C0DF1200EBEE80F00ACE80F00DEF827
:10CF7000003009F10109CCF800309AE807008DE88B
:10CF800007000DAB28460CCB6968FFF78BFFD7E78E
:10CF9000A8F10603012B2DD84FF00009A0F1020BD8
:10CFA0004FEA1B1B0DF13C0ACB45079B22D00233F5
:10CFB0003968234403EB09130122194408A8FEF73A
:10CFC0007DFD0DF1340C0DF1200EBEE80F00ACE834
:10CFD0000F00DEF8003009F10109CCF800309AE8C2
:10CFE00007008DE80700DDE90D2328466968FFF793
:10CFF00059FFD9E7079B1C44344489E7284613B0FE
:10D00000BDE8F08F002330B504460D4685B0C0E979
:10D0100000338360022201A8FFF76DFF01A92046BB
:10D02000FFF719FF01A8FFF74EF90222294601A8D0
:10D03000FFF761FF01A92046FFF70DFF01A8FFF7E9
:10D0400042F90322294601A8FFF755FF01A920460E
:10D05000FFF701FF01A8FFF736F90622294601A8CC
:10D06000FFF749FF01A92046FFF7F5FE01A8FFF7EA
:10D070002AF90722294601A8FFF73DFF204601A90A
:10D08000FFF7E9FE01A8FFF71EF9204605B030BD05
:10D090002DE9F04385B08846014601A89146FFF787
:10D0A000B1FF4FF0140E0027019E029B0EFB036C94
:10D0B000B4450DD0B94506F1140609D00EFB07841E
:10D0C000A6F114050FCD0FC42B6801372360EFE7DD
:10D0D00001A8FFF7F8F8384605B0BDE8F0832DE960
:10D0E000F04F8BB00C4600F1440101A8FFF788FE19
:10D0F000029B002B4ADD04F1140104A8FFF782FF14
:10D1000004F1080107A8FFF77DFF059D089E002D8B
:10D1100001DC002E38DD1423019A029F9246DDF8CF
:10D120001080DDF81C9003FB072703FB058503FB3C
:10D130000696BA4528D0C346AB4515D05946504649
:10D14000FEF7E5FC0BF1140B04460028F4D007A809
:10D15000FFF7B9F804A8FFF7B6F801A8FFF7B3F88E
:10D1600020460BB0BDE8F08FCB46B34509D05946F9
:10D170005046FEF7CCFC0BF1140B04460028F4D00B
:10D18000E5E70AF1140AD4E70024E0E70124E4E724
:10D1900038B505460C46FDF79EF9AB68A268AA6053
:10D1A000A360EB68E268EA60E36038BD002330B555
:10D1B00085B002938B6805460C4633B1022268465F
:10D1C0009847E3680393A368029329466846FFF7EC
:10D1D000DFFF6846FDF776F905B030BD38B50D467E
:10D1E000016804464B6D23B128684C314C30FFF781
:10D1F000DDFF20462B6840F8043B6968FEF748FBDA
:10D20000204638BD2DE9F043044687B068460E46F7
:10D210001746FEF763FB2368D3E9064304EBC30814
:10D220004445A14616D0214601A8FEF739FE3946ED
:10D2300001A8FEF76CFC083405460028F0D04946EA
:10D240003046FFF7CBFF6846FEF756FB284607B08F
:10D25000BDE8F0830025F6E710B504688AB04C34C9
:10D26000B9B1CDE9001202A86946FFF78BF8002397
:10D2700006A902A80893FFF78BFF214606A8FFF72F
:10D2800087FF06A8FDF71EF902A8FDF71BF90AB0F3
:10D2900010BD0491EBE78842F8B504460D461646EA
:10D2A00014D9904213D2A2F10806751AA1F1080709
:10D2B0002C44B74218D01CB131462046FFF78FF8F6
:10D2C000301DFCF7F9FF083E083CF2E70CD0B542F0
:10D2D0000AD01CB129462046FFF781F8281DFCF72B
:10D2E000EBFF08350834F2E7F8BD70B50E1E0546B1
:10D2F00011DDF000FCF794FC044658B1D5E90012AA
:10D3000001EBC202FFF7C7FF2868FCF797FC01207A
:10D310002C60AE6070BD0024F6E700232DE9F041DB
:10D32000C0E9003383600D4649680446994213DD25
:10D33000FFF7DBFF80B1D5E90063276806EBC30880
:10D34000B04507D01FB131463846FFF748F80836D8
:10D350000837F5E76B6863602046BDE8F08137B5B4
:10D360000D46044601A8FEF7B9FA296820460C319B
:10D37000FFF7D3FF01A8FEF7BFFA204603B030BD88
:10D3800038B50B6805469B7A0C4633B90846FEF75C
:10D3900039FA10B9012223689A7228462146FFF70C
:10D3A000DEFF284638BD73B5044645686846FFF77A
:10D3B00016F8D4E90113994210DA2368626803EB86
:10D3C000C505294603EBC20205F10800FFF763FF1C
:10D3D0008DB9636801260133636006E020460131A0
:10D3E000FFF783FF06460028E7D101A8FCF764FF9A
:10D3F000304602B070BD69462846FEF7F0FFE8E708
:10D400002DE9F04F054688460027DFF8B490DFF895
:10D41000B4A093B02B68BB424ED91C2603A8FEF7DC
:10D42000E5FD0DF1140CE3467E436A68039C32442B
:10D43000131D1432E646186859680833AEE8030035
:10D440009342F446F6D118685946CEF800000AA86F
:10D45000FEF712FB0DF1280CBCE80F000FC4DCF83E
:10D460000030039A23606B6803A933441B8B9382BB
:10D470006B6833445B8BD382D8F8000000F10C0456
:10D480000AA8FEF7ACFF20460AA9FFF78CFF044666
:10D490000BA8FCF711FF54B920235146CDE90A34FB
:10D4A00032202346CDF800900AAAFCF7A1FA04A87E
:10D4B000FCF702FF0137ADE713B0BDE8F08F00BF06
:10D4C0007FFB3F029FFA3F028842F8B504460D46B3
:10D4D000164614D9904213D2A2F10806751AA1F18A
:10D4E00008072C44B74218D01CB131462046FEF73D
:10D4F00068FF301DFCF7E0FE083E083CF2E70CD068
:10D50000B5420AD01CB129462046FEF75AFF281D15
:10D51000FCF7D2FE08350834F2E7F8BD70B50E1EF0
:10D52000054611DDF000FCF77BFB044658B1D5E958
:10D53000001201EBC202FFF7C7FF2868FCF77EFB71
:10D5400001202C60AE6070BD0024F6E700232DE9B9
:10D55000F041C0E9003383600D46496804469942B2
:10D5600013DDFFF7DBFF80B1D5E90063276806EB29
:10D57000C308B04507D01FB131463846FEF721FF3A
:10D5800008360837F5E76B6863602046BDE8F08130
:10D5900037B50D46044601A8FEF7A0F929682046D4
:10D5A0001831FFF7D3FF01A8FEF7A6F9204603B014
:10D5B00030BD73B5044645686846FEF702FFD4E9FE
:10D5C0000113994210DA2368626803EBC505294606
:10D5D00003EBC20205F10800FFF776FF8DB963681F
:10D5E00001260133636006E020460131FFF796FF14
:10D5F00006460028E7D101A8FCF75EFE304602B0DF
:10D6000070BD69462846FEF7DCFEE8E7F0B585B058
:10D61000054601A80C461746FEF760F90023C5E948
:10D620000033AB602368D3E9064604EBC606B44278
:10D6300011D021463868FEF7F3FB50B1214602A80D
:10D64000FEF7BFFE284602A9FFF7B3FF03A8FCF7C9
:10D6500033FE0834EBE701A8FEF74EF9284605B083
:10D66000F0BD00002DE9F0430B6806469B7A0F469B
:10D67000904691B033B9C0E900338360304611B0B1
:10D68000BDE8F08311680D7E002D58D120232A4675
:10D6900003A8CDE90835FEF736FB039B2B49019320
:10D6A0002B4B08AA012000932B46FCF7A1F903A8F5
:10D6B00000F018FC1C23ADF82230D8F8003008A97F
:10D6C0009A8AADF83820DB8A224AADF83A303B68B6
:10D6D00018880095FCF7BAF8002830DB3B68D3E9DE
:10D6E000064304EBC3090834A4F10803994522D08A
:10D6F00054F8083CDB89002BF5D0102200210DEBFB
:10D700000200039500F005FF54F8083C03AAD989EC
:10D710003B68188813230095FCF7C2F80028E2D074
:10D7200010AB184400F8345C54F8080C03A93C30E2
:10D7300000F079FCD7E70122D8F800301A7642468B
:10D7400039463046FFF762FF98E700BF9FFA3F0275
:10D75000A4FB3F02CDE83F02F0B50B6806469B7A7A
:10D760000D4685B02BB901A8FFF70AFE01A8FEF708
:10D7700051FE2B68D3E9034704EBC707BC4209D02D
:10D780002246294601A8FFF76DFF01A8FEF754FEC7
:10D790000834F3E730462946FFF7FAFE304605B075
:10D7A000F0BD00002DE9F0414FF000081F464C4B42
:10D7B00092B005460C460868496804930AAE05AB6A
:10D7C000079203C683E80300CDE90888FEF7E4FC6E
:10D7D000444B0AAE0893FEF7DFFC03682146284657
:10D7E0000993FEF755FCFEF7D7FC2B6800684362EF
:10D7F00069682830FEF74CF84246296804A8FCF70F
:10D800005DF80446B8B14FF6FF722B681A80FEF738
:10D81000C3FC05683046FEF705FC0A9B05F12800AD
:10D820006B620B99FEF734F80BA8FCF745FD204618
:10D8300012B0BDE8F08103A8FEF750F8FEF7ACFC8B
:10D840002B6800681988FEF700FB4FF0200818BB12
:10D85000254B264F32462649322000932346CDE9F8
:10D860000A84FCF7C5F83868FBF78EFF2B688DF843
:10D870000C4021461888FBF7BFFF3868FBF776FF9E
:10D8800001234FF6FF728DF80C302B6803A81A8025
:10D89000FEF732F8174CBAE703A8FEF72DF8164B3F
:10D8A00032460093012023461149CDE90A84FCF752
:10D8B0009FF8002FABD029463046FFF74DFFDDE93A
:10D8C0000A5305EBC307BD4205D028460121FEF7E8
:10D8D00053FB0835F7E73046FEF7AEFD97E700BF8C
:10D8E00003001800C1DA3F02D6FB3F02E8AE071082
:10D8F0009FFA3F02FCFEFFFFF2FB3F0213B5044616
:10D90000CDE90032FEF78EFB00222046009B0199F4
:10D91000FFF748FF204602B010BD00002DE9F04F90
:10D920002023002695B0CDE90C36664B05460093C2
:10D930000F463346012064490CAAFCF759F8DFF87A
:10D940008C91DFF88481DFF888A12B68B34240F224
:10D95000B5804FF02A0B03A80BFB06FBFEF786FAF7
:10D9600005A8FEF743FB6B68039A5B44D98B1181D2
:10D97000198C5181598C9181988CD081D88C1082CE
:10D980001B8D5382D7E9033203EBC2029A427DD04A
:10D990001868C48A8C4277D3848A8C4274D85968B8
:10D9A000059006A8FDF774FFDDF80CE0DDF814C063
:10D9B0000EF12804BCE80F000FC4DCF8003023602F
:10D9C0002B89AEF802306B68039C5B445B7E13F0DE
:10D9D000020F6ED16B685B445B7E580742BF2379B0
:10D9E00043F0040323716B685B445B7E190742BFFD
:10D9F000237943F0080323716B685B445B7EDA068E
:10DA000007AA964642BF237943F0100323716B683F
:10DA10005B445B7E9B0642BF237943F02003237166
:10DA20006B689B440BF104030BF1140B94461868CC
:10DA300059680833ACE803005B456246F6D11868C4
:10DA40007146CCF800000CA8FEF716F814340DF15E
:10DA5000300CBCE80F000FC4DCF8003003A92360D1
:10DA60000CA8FEF7AEFC0CA907F11800FFF7A1FD0A
:10DA700004460DA8FCF720FC9CB92023CDF800A09B
:10DA8000CDE90C34234607E008337FE72024002348
:10DA9000CDE90C43CDF80090414632200CAAFBF7AB
:10DAA000A7FF06A8FCF708FC04A8FCF705FC013654
:10DAB0004BE7237943F0020323718BE715B0BDE8F0
:10DAC000F08F00BF0FFC3F029FFA3F022AFC3F028B
:10DAD00059FC3F028842F8B504460D46164614D953
:10DAE000904213D2A2F12406751AA1F124072C4406
:10DAF000B74218D01CB131462046FEF793FE30469F
:10DB0000FEF7B4FB243E243CF2E70CD0B5420AD029
:10DB10001CB129462046FEF785FE2846FEF7A6FBE7
:10DB200024352434F2E7F8BDF8B50E1E054613DDA2
:10DB3000242707FB06F0FCF773F8044658B1D5E933
:10DB4000001207FB0212FFF7C5FF2868FCF776F802
:10DB500001202C60AE60F8BD0024F6E72DE9F0430B
:10DB600006460C469DB001AD2846FDF76BFF03A8A5
:10DB7000FEF735FF06A8FEF732FF3069716913AB77
:10DB800003C3337885E80300F289B16806A88DF8ED
:10DB90002430FEF798FEB289716803A8FEF793FE61
:10DBA00094F9683013AF7F2B03D09DF924209A425B
:10DBB0005CDB94F969307F2B03D09DF924209A42D5
:10DBC00054DC384604F15001FEF7F2FC149B002BA4
:10DBD00052DD139E06EBC309B14550D030462946AD
:10DBE000FDF7A3FE083680460028F5D01398FCF711
:10DBF00025F8B8F1000F39D029462046FEF79BFCE6
:10DC0000A0B329462046FFF76AFA064670B33846A5
:10DC100004F15C01FEF719FD149B002B12DD06A830
:10DC2000FEF7D2F8804603A8FEF7CEF8DDE91332FE
:10DC300003EB42029A4225D033F8021B884501D0FB
:10DC40008842F7D11398FBF7F9FF7EB129462046A9
:10DC5000FEF730FD50B1236AB3B1394663691395BD
:10DC600001336361636A04F1180098472846FEF7A0
:10DC7000FDFA1DB0BDE8F0834FF00108B6E74FF0A4
:10DC80000008B3E70026DDE7D4F83080B8F1000FD4
:10DC900007D0636929460133636104F12800636B8F
:10DCA000E3E7D4F80CC0BCF1000F25D0636922690A
:10DCB000013393426361D9D8242253432A46243B3B
:10DCC0000CEB030603CA4CF80300716006F1080070
:10DCD00003A9FEF7C0FD06A906F11400FEF7BBFD7F
:10DCE0009DF9243086F82030D4E904329A42BDD31D
:10DCF0004046FBF773FDB9E70DF1280895E80300EE
:10DD000088E8030003A90CA8FEF76FFD06A90FA879
:10DD1000FEF76BFD9DF82430414638468DF84830BB
:10DD20006668FEF77FFDD4E90113994210DA2422D8
:10DD30002368616802FB063602FB013206F124000B
:10DD40003146FFF7C7FE86B963680133636005E0BB
:10DD500020460131FFF7E8FE0028E8D13846FEF7FB
:10DD600085FA4046FEF782FA80E739463046FEF7EC
:10DD700059FDE9E7002302480360FBF7DBBC00BF65
:10DD8000E8AE071070474174704708B5007CFBF798
:10DD900099FC20EAE07008BD08B5007CFBF74CFC5C
:10DDA00020EAE07008BD08B5007CFBF761FC40EAA2
:10DDB000E07008BD08B5007CFBF74CFC40EAE07061
:10DDC00008BD007CFBF762BC37B5457C04462DB12D
:10DDD000207C03B0BDE83040FBF720BC007C019103
:10DDE000FBF770FC00280199F2DC284603B030BD37
:10DDF00010B504461421FBF77EF9204610BD000043
:10DE000010B54FF47A730446084611460022C4E95F
:10DE10000123044B2074236001236374FBF76EFC21
:10DE2000204610BDE4FC3F020023007CFBF758BCF9
:10DE30000022FFF7F9BF007CFBF7E2BB007CFBF799
:10DE400033BC000002220020044B1A60044B054A38
:10DE5000C3E900009A60FBF7B9BE00BFFCAE071033
:10DE6000F0AE07100000FFFF002240681146FBF7EC
:10DE700067BE002240681146FBF77EBE0022406864
:10DE8000FBF76CBE0022406881F00101FBF74ABE3F
:10DE9000002340681A461946FBF736BE0023406847
:10DEA0001A461946FBF722BE002240681146FBF7CE
:10DEB0000FBE002240681146FBF7EEBD0022022192
:10DEC0004068FBF7F7BD002340681A46FBF7D6BD54
:10DED0000322024B5A60024A1A60704700AF0710D3
:10DEE00014FD3F0210B504460068FBF7A7FE20466C
:10DEF00010BD10B50446006808B1FBF79FFE002373
:10DF0000C4E90133236010BD38B504460D460068EE
:10DF10000131FBF7A1FE10B1C4E90005012038BDB5
:10DF200010B50368044623B143688B4201D3012036
:10DF300010BD2046FFF7E8FF0028F9D0A368002BAA
:10DF4000F5D122681370F2E737B50D4611460192FC
:10DF50000446FFF7E5FF019A28B92046FFF7C9FFFD
:10DF6000204603B030BD2946A260206800F0AAFA1E
:10DF700000212268A368D154F2E7002313B50446B8
:10DF8000C0E900338360037341B108460191FBF798
:10DF900089F8019902462046FFF7D6FF204602B0D5
:10DFA00010BD38B5054600680C4668B16A688B68D4
:10DFB0009A4207D3096800F0FAFAA368AB6000231D
:10DFC000A36038BDFBF73AFE23682B6063686B6083
:10DFD000A368AB600023C4E90033F1E7002310B568
:10DFE0000446C0E9003383600373FFF7DAFF20467D
:10DFF00010BD884210B5044605D00B682BB18A6865
:10E000001946FFF7A1FF204610BDFFF772FFFAE7A0
:10E01000002310B50446C0E9003383600373FFF7A3
:10E02000E8FF204610BD13B5044659B108460191DA
:10E03000FBF738F8019902462046FFF785FF204696
:10E0400002B010BDFFF755FFF9E770B505460E4663
:10E0500009B9002070BD6AB1846814442146FFF7F5
:10E060005FFF0028F5D02868AB683146184400F0FF
:10E070009EFAAC600120EDE7002307B501228DF880
:10E08000041001A98DF80530FFF7DFFF03B05DF83C
:10E0900004FB02680B46096862B141B9806860B14F
:10E0A00010787047986840B1097848427047104628
:10E0B000FAF7EEBF0029F5D10846704708B5826827
:10E0C0008B689A4205D1FFF7E4FFB0FA80F040096F
:10E0D00008BD0020FCE7704738B5142504462A46E1
:10E0E000002100F016FA25804025074928462581A1
:10E0F000258200F0B1F804496060284600F0ACF8D1
:10E10000E060204638BD00BF48FD3F0270477047C1
:10E1100010B50446FFF7E0FF204610BD10B50446D9
:10E12000FFF7DAFF204610BD10B50446FFF7D4FF15
:10E13000204610BD30B50E4D87B0D5E88F1F11F0C9
:10E14000010411D12846FAF7E5FF68B101A8FFF7ED
:10E15000DFFF214601AA0748FFF752FE2846FAF7DB
:10E16000DEFF054800F090F9024807B030BD00BF5F
:10E170000CAF071018AF071087F03F0210B50D4C19
:10E1800086B0D4E88F3FDB0711D42046FAF7C2FFF0
:10E1900068B101A8FFF7C2FF012101AA0648FFF7F5
:10E1A0002FFE2046FAF7BBFF044800F06DF9024845
:10E1B00006B010BD10AF07102CAF0710BFF03F0224
:10E1C00010B5FFF7DBFF074B044653B1FFF736FEF0
:10E1D00038B1236820461B699847002801DD00E01C
:10E1E00000BF10BD0000000010B50D4C86B0D4E893
:10E1F0008F3FDB0711D42046FAF78CFF68B101A8E6
:10E20000FFF792FF022101AA0648FFF7F9FD204619
:10E21000FAF785FF044800F037F9024806B010BD50
:10E2200014AF071040AF0710BDF03F0210B5FFF765
:10E23000DBFF074B044653B1FFF700FE38B12368FC
:10E2400020461B699847002801DD00E000BF10BD93
:10E2500000000000FAF74BBFFAF74BBF08B5FBF719
:10E2600017FD0000014900F0F9B800BF64FD3F024E
:10E270007FB50024102315461268CDE902340368E7
:10E28000CDE900449E696B46B0479DF8043003F029
:10E290000603062B05BF009B012020462B6004B01F
:10E2A00070BD0098904214BF012006207047000006
:10E2B000034B10B50446036000F0CDF8204610BDB6
:10E2C000A4FD3F0210B50446FFF7F2FF08212046E7
:10E2D000FAF711FF204610BD2DE9F041DDF8188056
:10E2E0001F4606461546DDE90834984507D10799CB
:10E2F00000F0B4F818B165710020BDE8F08139462E
:10E30000304600F0ABF80028F6D00123C4F80080B6
:10E310002571A371F0E738B515461C4600F09EF84C
:10E3200020B108232560E3600623237138BD73B54F
:10E3300005460C461E46019200F090F850B9032E97
:10E3400008D823682946019A20465B6902B0BDE8D7
:10E350007040184702B070BD034B10B5044603600F
:10E36000FFF7A6FF204610BD04FE3F0210B504468D
:10E37000FFF7F2FF0C212046FAF7BDFE204610BD44
:10E38000F7B5089F05460E46144697420AD0A8687E
:10E39000314602680897156A2246AC4603B0BDE8CC
:10E3A000F04060471946019300F058F8019B00289F
:10E3B000EDD0062003B0F0BD2DE9F14F0D46194612
:10E3C000814617469846DDE90A4BDDE90CA600F0C8
:10E3D00045F890B1002D3460377109DB61198A4529
:10E3E0000CBF06210121B171002001B0BDE8F08F02
:10E3F0000235F9D10123B371F6E7544506D15946E8
:10E40000484600F02BF808B17771EDE7D9F808001D
:10E410003A4629460368CDE90CA6CDE90A4BDC69EA
:10E420004346A44601B0BDE8F04F60472DE9F041F6
:10E4300007460C4615461E46FFF76DFF48B9B868FB
:10E440002A46214603689F693346BC46BDE8F04131
:10E450006047BDE8F081704700207047814208B5F1
:10E460000ED0406803782A2B0CD049680B782A2BF1
:10E4700008BF0131FAF70CFEB0FA80F0400908BD80
:10E480000120FCE70020FAE7002301461A4618465F
:10E4900000F056B9024B1844407800F097007047DE
:10E4A000D1FE3F020139024410B5904201D1002053
:10E4B00005E0037811F8014FA34201D0181B10BDED
:10E4C0000130F2E70A44431E914200D1704710B573
:10E4D00011F8014B914203F8014FF9D110BD884268
:10E4E00010B501EB020402D98442234607D8431E2B
:10E4F000A14208D011F8012B03F8012FF8E70244DC
:10E5000001468A4200D110BD13F8014D02F8014DB9
:10E51000F7E702440346934200D1704703F8011B1A
:10E52000F9E7000038B5104B04461D68AB6BB3B972
:10E530001820FBF775FB0246A86320B90B4B42215C
:10E540000B48FBF7C1FB0B490B4BC0E900130B4B0E
:10E55000002183600B2383810120C2E90401AB6B9E
:10E5600000221C615A6138BD98AA07103DFE3F0287
:10E5700054FE3F020E33CDAB34126DE6ECDE0500E7
:10E58000C9B2034610F8012B1AB18A42F9D11846D4
:10E590007047002918BF0023F9E710B50446FFF7BC
:10E5A000EFFF18B92046FAF77DFD204410BD034661
:10E5B00011F8012B03F8012B002AF9D1704710B58F
:10E5C0007AB103460139841813F8010B11F8012FB1
:10E5D000904201D1A34201D1801A10BD0028F3D18D
:10E5E000FAE71046F9E70246014410B58A4213469D
:10E5F00003D01C780132002CF8D1181A10BD38B5A0
:10E6000003460C4669B9BDE83840FFF7B9BF431C63
:10E61000054621461846FFF7B3FF0028F7D12846E4
:10E6200038BD0025F5E70000012B2DE9F04701D0AA
:10E63000242B06D9FBF73AFB162303600020BDE824
:10E64000F0870D46DFF8E0C02E4615F8014B14F8B0
:10E650000C7017F00807F7D12D2C32D12C78012738
:10E66000B51C002B5BD0102B09D1302C07D12C7896
:10E6700004F0DF04582C4DD16C781023023507F1DB
:10E6800000484FF0000C08F1FF386646B8FBF3F97C
:10E6900003FB198AA4F1300EBEF1090F16D8744697
:10E6A000A34224DDBCF1000F1EDBB1451CD301D118
:10E6B000A24519DB06FB03464FF0010C15F8014B90
:10E6C000E8E72B2C04BF2C78B51CCAE7A4F1410E57
:10E6D000BEF1190F01D8373CE2E7A4F1610EBEF19B
:10E6E000190F04D8573CDBE74FF0FF3CE6E7BCF1DD
:10E6F000000F05DA22234646036042B930469EE702
:10E7000007B17642002AF9D0BCF1000F00D0691E93
:10E710001160F3E73024002BB1D10823AFE7302C90
:10E72000A5D00A23ABE700BFD2FE3F0213460A463C
:10E73000014602480068FFF777BF00BF98AA07109C
:10E740002DE9F843DFF8BC8006461F460D46D8F891
:10E750000000914600F058F8264B1C6834B9264C4E
:10E760001C60264B13B11B68C4F8883063681F2BEC
:10E7700007DDD8F8000000F049F84FF0FF30BDE8A1
:10E78000F8835EB3D4F8880088B91D4B23B9D8F854
:10E79000000000F03AF8F0E74FF48470FBF740FA1D
:10E7A0000028F4D00023C0E94033C4F8880063682F
:10E7B0000122022E40F8239002FA03F200EB8301BB
:10E7C000D0F8003143EA0203C0F80031C1F880708C
:10E7D00002BFD0F804311343C0F804316368D8F89D
:10E7E00000005A1C0233626044F8235000F00EF817
:10E7F0000020C4E7E0AF071054AF0710000000008E
:10E80000D1AB3F02FCAA0710704770477047000069
:10E81000000000000000FB349B5F800000800010BF
:10E82000000000000000000065A03F028DA03F0234
:10E8300091A03F020000000043616C6C206F6E20CD
:10E8400070757265207669727475616C00636F759E
:10E850006E742050484F544F4E3A20256400364580
:10E860003430303030312D423541332D4633393359
:10E870002D453041392D45353045323444434341EF
:10E8800039450036453430303030332D4235413350
:10E890002D463339332D453041392D4535304532FC
:10E8A000344443434139450036453430303030320A
:10E8B0002D423541332D463339332D453041392DE5
:10E8C000453530453234444343413945000000006A
:10E8D0000000000000000000000000000000000038
:10E8E000ADA03F02D5A03F020000000000000000E4
:10E8F000D9A03F020DA13F0265C23F020DC43F02F5
:10E900000000000000000000B1AC3F02BBAC3F02C1
:10E91000C5AC3F02CFAC3F02D9AC3F02E5AC3F02F1
:10E92000F1AC3F02F9AC3F0201AD3F020DAD3F0239
:10E9300015AD3F021FAD3F0229AD3F0200000000B0
:10E940000000000073AE3F0269AE3F025FAE3F02BF
:10E9500015AE3F0253AE3F0247AE3F02F1AC3F025D
:10E96000F9AC3F023BAE3F0233AE3F0229AE3F025D
:10E970001FAE3F0229AD3F02000000000000000072
:10E980002575007525303478000000000000000077
:10E99000000000007FB23F02E7B23F02BDB23F027B
:10E9A000B9C53F02AFB23F0281B23F0291B23F020E
:10E9B000E1B23F02A1B23F0279B23F020000000083
:10E9C0000000000095B33F0285B33F0287B33F02CA
:10E9D00025592D256D2D25645425483A254D3A2578
:10E9E00053257A0061736374696D650062617564B3
:10E9F0000053657269616C0053657269616C310026
:10EA00004A534F4E53747265616D4C6F6748616E27
:10EA1000646C6572006170700025303130752000C3
:10EA20005D20002C200028293A2000205B00636F25
:10EA30006465203D200025690064657461696C731C
:10EA4000203D20000D0A006D0066006C6E00666EB1
:10EA5000007400636F64650064657461696C000034
:10EA6000000000000000000039B63F025FB63F0220
:10EA70001DB63F02BFAE3F020000000000000000D4
:10EA800011BB3F0229BB3F0265C23F020DC43F02DA
:10EA900000000000000000003DBB3F0251BB3F02F0
:10EAA00045C43F0225B63F02000000000000000000
:10EAB00037B63F026DB63F02C9C13F0227B63F02DB
:10EAC000000000000000000035B63F027BB63F02A8
:10EAD00055BA3F029DB63F02417373657274696F08
