:02000002B0004C
:1040000000400B009A810B00000006000C00050226
:0840100004015014000000003F
:04401800007B0B001E
:10401C0010F8012B11F8013B012A28BF9A42F7D066
:10402C00D01A7047034613F8012B002AFBD1181A3B
:10403C000138704709480A49884208B505D0094A31
:10404C00824202D0121A03F071FC0748074A002181
:10405C00121A03F093FC014808BD00BF24E30320AF
:10406C0000810B0090E3032090E30320F0E7032092
:10407C0070B5074E074C00F033FEA41BA4080025B6
:10408C00AC4200D170BD56F8043B98470135F7E7B8
:10409C00B8800B00DC800B0000F03EB808B500F0D7
:1040AC0051F8BDE8084000F0D3BD00F01FBB00F094
:1040BC001DBB00F023BB0078B0FA80F040097047BC
:1040CC000123037070470EB400B58CB00DAA4FF0ED
:1040DC00200C52F8041B0392CDE900120023016856
:1040EC0004AA1E20CDE904C300F074FA0CB05DF8EC
:1040FC0004EB03B07047000008B5044B044982B2CE
:10410C001A800448FFF7DFFF08BD00BFCCE3032093
:10411C00147B0B0018E7032008B500F0BDFC4FF42E
:10412C00165100F0ADFC01F07DFB01F0C5FB034A1C
:10413C000349BDE80840104602F06ABBE4E30320E3
:10414C0005410B002DE9F04188B001F06BFB01F04B
:10415C00F9FB044648B3484C484D00F09DFC0368FD
:10416C001B699847A8B12368132B12D800F094FC54
:10417C0003685B69984723685A1CE854226000F076
:10418C008BFC236802682B44926813F8011C90473F
:10419C00E3E7226832B100233849394801F0DCF9F1
:1041AC000023236008B0BDE8F081364D00F0EAF939
:1041BC002B68C01AB0F5FA6FF4D300F0E3F928605D
:1041CC0001F030FB3049142201F0F4FB071EE9DD4D
:1041DC002D4EDFF8C880E5B2BD42E3DA03A800F04B
:1041EC008BFF24235D4305F10800012203A9304411
:1041FC0002F02AFA08B90134EDE7414603A800F0B1
:10420C00D6FF0028F7D001F00DFB721901461F4EA6
:10421C00012301A802F03EFE019B029D33607368EE
:10422C009D4216D015B16B6801336B6074687CB11C
:10423C006368013B63605BB9236820469B689847C1
:10424C00A368013BA3601BB923682046DB68984731
:10425C00756001A801F01DFC0C4801F055FA00280E
:10426C00A0D00B4A0B49094802F0A8FA0A4A0449A3
:10427C00064802F0A3FA95E7D0E60320BCE603203B
:10428C00DCE30320D0E30320ECE30320D4E303209E
:10429C00B8E30320E4E30320A4E3032090E303202A
:1042AC0070B515491548164C01F000F8154916481B
:1042BC0000F0FCFF1549164800F0F8FF14257F2686
:1042CC00204600F00EFF04F1080001F0CFFE04F1CF
:1042DC00140001F0CBFE013D84F8206004F12404AD
:1042EC00EED10C4801F012F90B4801F00FF9BDE8C2
:1042FC0070400A4801F0E6B91F7B0B0090E30320E5
:10430C00ECE30320447B0B00A4E30320697B0B004C
:10431C00B8E30320E4E30320DCE30320D4E303202D
:10432C0008B5024B1B681B68019308BD4C020300C7
:10433C0008B5024B1B685B68019308BD4C02030077
:10434C0008B5024B1B681B69019308BD4C020300A6
:10435C0008B5024B1B685B69019308BD4C02030056
:10436C0008B5024B1B689B69019308BD4C02030006
:10437C0008B5024B1B68DB69019308BD4C020300B6
:10438C0008B5024B1B681B6A019308BD4C02030065
:10439C0008B5024B1B68DB68019308BD3C020300A7
:1043AC0008B5024B1B681B69019308BD3C02030056
:1043BC0008B5024B1B685B69019308BD3C02030006
:1043CC0008B5024B1B689B69019308BD3C020300B6
:1043DC0008B5024B1B68DB69019308BD3C02030066
:1043EC0008B5024B1B689B6A019308BD3C02030095
:1043FC0008B5024B1B681B6C019308BD3C02030003
:10440C0008B5024B1B685B69019308BD640203008D
:10441C0008B5024B1B685B6C019308BD4802030096
:10442C0008B5024B1B68DB6C019308BD4802030006
:10443C0008B5024B1B685B6D019308BD4802030075
:10444C0008B5024B1B689B68019308BD78020300FA
:10445C0008B5024B1B68DB6F019308BD78020300A3
:10446C0008B5034B1B68D3F88430019308BD0000DA
:10447C007802030008B5034B1B68D3F898300193FE
:10448C0008BD00007802030008B5034B1B68D3F885
:10449C00B430019308BD00007802030008B5034B4B
:1044AC001B68D3F8BC30019308BD000078020300F0
:1044BC0008B5034B1B68D3F8C430019308BD00004A
:1044CC007802030008B5034B1B68D3F8D83001936E
:1044DC0008BD00007802030008B5034B1B68D3F835
:1044EC00DC30019308BD00007802030008B5034BD3
:1044FC001B68D3F8E030019308BD0000780203007C
:10450C0008B5034B1B68D3F8E430019308BD0000D9
:10451C007802030008B5034B1B68D3F8F030019305
:10452C0008BD00007802030008B5034B1B68D3F8E4
:10453C00F430019308BD00007802030008B5034B6A
:10454C001B68D3F80031019308BD0000780203000A
:10455C0008B5034B1B68D3F80431019308BD000068
:10456C007802030008B5024B1B685B68019308BD19
:10457C001802030008B5024B1B68DB68019308BDE9
:10458C001802030008B5024B1B685B69019308BD58
:10459C001802030008B5024B1B689B68019308BD09
:1045AC006802030008B5024B1B68DB68019308BD69
:1045BC006802030008B5024B1B685B6B019308BDD6
:1045CC006002030008B5024B1B681B6D019308BD0C
:1045DC006002030008B5024B1B685B6D019308BDBC
:1045EC006002030008B5024B1B68DB6B019308BD2E
:1045FC004402030008B5024B1B685B68019308BDBD
:10460C004002030008B5024B1B689B68019308BD70
:10461C004002030008B5024B1B68DB68019308BD20
:10462C004002030008B5024B1B681B69019308BDCF
:10463C004002030008B5024B1B685B69019308BD7F
:10464C004002030008B5024B1B689B69019308BD2F
:10465C004002030008B5024B1B68DB69019308BDDF
:10466C004002030008B5024B1B681B6A019308BD8E
:10467C004002030008B5024B1B681B6B019308BD7D
:10468C004002030008B5024B1B685B6B019308BD2D
:10469C004002030008B5024B1B681B6C019308BD5C
:1046AC004002030008B5024B1B685B6C019308BD0C
:1046BC004002030008B5024B1B685B68019308BD00
:1046CC002002030008B5034B1B68D3F88830019314
:1046DC0008BD00002002030008B5034B1B68D3F88B
:1046EC009430019308BD00002002030008B5024B72
:1046FC001B681B68019308BD1C02030008B5024B24
:10470C001B685B68019308BD1C02030008B5024BD3
:10471C001B689B68019308BD1C02030008B5024B83
:10472C001B68DB6A019308BD1C02030008B5024B31
:10473C001B681B6C019308BD1C02030008B5024BDF
:10474C001B685B6C019308BD1C02030000234068CE
:10475C001A46FFF74FBF406800220221FFF75ABFED
:10476C00002240681146FFF74DBF002240681146F9
:10477C00FFF758BF002340681A461946FFF75ABF87
:10478C00002340681A461946FFF75CBF40680021B9
:10479C00FFF780BF40680021FFF784BF406800220C
:1047AC0081F00101FFF756BF40680022FFF762BF9E
:1047BC00002240681146FFF765BF00224068114691
:1047CC00FFF750BF2DE9F04395B014460D46074650
:1047DC0000F0C2F900211C220DA8009103F0CEF8C4
:1047EC0040230C9320466B460CAA0021FFF7DAFEFF
:1047FC00044600284BD1024601216868FFF712FFDE
:10480C000221804622466868FFF70CFF009E814615
:10481C002146002E3BD0002939D17368022B03D0DE
:10482C000A2B11D0F669F4E7B8F1000FFAD07169D0
:10483C0006A8043107AD00F0BDF90FCD3C1D0FC427
:10484C002B6823704146EDE7B9F1000FEAD074698B
:10485C00102201A803F092F806238DF8143001AD54
:10486C0004F108031834186859682A4603C208333F
:10487C00A3421546F7D101A906A807AD00F07AF9B5
:10488C000FCD3C1D0FC42B6823704946CAE7009816
:10489C00FFF780FE384615B0BDE8F083024B034AA3
:1048AC001A6000225A607047D4E60320987B0B00F4
:1048BC00002240681146FFF7B5BE00224068114641
:1048CC00FFF7D0BE002240681146FFF7DBBE406800
:1048DC000022FFF7CFBE4068002281F00101FFF7F4
:1048EC00B9BE002340681A461946FFF7ABBE002339
:1048FC0040681A461946FFF79DBE002240681146D3
:10490C00FFF780BE406800220221FFF783BE002320
:10491C0040681A46FFF76EBE024B04225A60024AE8
:10492C001A607047DCE60320D47B0B0038B50468B2
:10493C0005467CB16368013B63605BB92368204624
:10494C009B689847A368013BA3601BB9236820466A
:10495C00DB689847284638BD38B50D1E04460068FC
:10496C0003DDFFF7D3FE18B938BDFFF7C7FE0020F3
:10497C002060A5600120F7E738B50023C0E90033BB
:10498C0083600D4649689942044610DDFFF7E4FF49
:10499C0068B1D5E9003122681944994205D00AB1B1
:1049AC001878107001330132F7E76B6863602046AA
:1049BC0038BD10B54368013B0446436063B90368D6
:1049CC009B689847A368013BA3602BB923682046DA
:1049DC00DB68BDE81040184710BD41747047704744
:1049EC00704708B50021007CFFF7BAFC40EAE07084
:1049FC0008BD08B50121007CFFF7B2FC40EAE0706D
:104A0C0008BD08B5007CFFF7A3FC20EAE07008BDE8
:104A1C0008B5007CFFF794FC20EAE07008BD13B5E4
:104A2C000446007C0191FFF793FC0028019901DCFE
:104A3C00607C20B1207CFFF79BFC20EAE07002B088
:104A4C0010BD007CFFF79CBC10B514210446FFF789
:104A5C0030FB204610BD000010B54FF47A730446AD
:104A6C0008460021C4E90113044B23600123207480
:104A7C0063741146FFF754FC204610BD187C0B00E4
:104A8C00007C0022FFF754BC10B514220446002110
:104A9C0002F074FF204610BD10B50F4C88B003A86F
:104AAC00FFF7F2FF2178BFF35B8F11F001010FD1FB
:104ABC0020460191FFF7FFFA019948B103AA074874
:104ACC00FFF7CAFF2046FFF7FBFA054802F018FF74
:104ADC00024808B010BD00BFE4E60320E8E603205E
:104AEC00EB490B00704710B518210446FFF7E1FAAB
:104AFC00204610BDF0B5037D062B8DB00E4600F19F
:104B0C0004074FF0000412D000F1080515F8011D40
:104B1C000A22304600F06BF9AF42044419D0002C45
:104B2C00F4D02E21304600F05FF90444EEE72F2339
:104B3C006A4639460A208DF80040FFF761FC68464A
:104B4C00FFF770FA33680246DB68694630469847CF
:104B5C00044620460DB0F0BD10B5054B044611229D
:104B6C0040F8043B002102F009FF204610BD00BFB5
:104B7C00487C0B000346074A10B543F8042B01F19F
:104B8C00100251F8044B43F8044B9142F9D10A78C6
:104B9C001A7010BD487C0B0010B59DF8084044EA13
:104BAC00032343EA024242EA016104234160037594
:104BBC0010BD000007B5064B0360CB7800938B78D3
:104BCC004A780978FFF7E8FF03B05DF804FB00BFF3
:104BDC00487C0B0010B58368044613B103220146D0
:104BEC009847204610BD13B50B460246D0E900018C
:104BFC006C4684E8030093E8030082E8030094E821
:104C0C00030083E8030002B010BD0000014B1860E4
:104C1C00704700BF28E3032008B50B4B43B1FFF7E7
:104C2C003BFF03681B699847002801DDAFF3008048
:104C3C00064B43B102F028FD03681B699847002816
:104C4C0001DDAFF3008008BD000000000000000093
:104C5C0008B5FFF7E1FFFFF795FC014B186008BDA5
:104C6C0040E703200548064A064908B5121A02F027
:104C7C005DFE054B054A1A6008BD00BF00F4032019
:104C8C0004F403206C810B0000F403201E1C279AF3
:104C9C0007B5002300931A466FF07701FFF71CFD50
:104CAC0003B05DF804FB000007B543880A2B08D05D
:104CBC00502B0BD1094B1B684BB103B05DF804EBC7
:104CCC001847FFF7E5FF03B05DF804FB00230093E2
:104CDC001A466FF07701FFF7FFFCF4E700E70320BB
:104CEC0010B512480021FFF729FD114B1A68114B22
:104CFC009A42114B0CBF012200221A7001D0FFF70F
:104D0C00B1FFFFF72FFC044602F040FE0B4B13B132
:104D1C002046AFF3008000210848FFF763FCBDE894
:104D2C00104007480021FFF7CDBC00BF194C0B0009
:104D3C0000F403201E1C279AFCE603200000000050
:104D4C00B54C0B00014B00229A60704704E703201E
:104D5C00024B1A68024B1A60704700BF24E3032011
:104D6C0014E7032070B5D0E90053044605EB031695
:104D7C00AE4204D0284602F073FB1035F8E72068E9
:104D8C00FFF7BCFC204670BD014B024A1A6070470D
:104D9C0018E70320707C0B00F8B506460D468F18FB
:104DAC000024BD420CD0336815F8011B9B683046BB
:104DBC009847031E01DB1C44F3E7002C08BF1C467C
:104DCC002046F8BD13B50446084659B10191FFF7CA
:104DDC0029F923680199DB680246204602B0BDE838
:104DEC001040184702B010BD03689B68184730B5D7
:104DFC008BB00023012A8DF8243098BF0A2209AC0D
:104E0C000D46B1FBF2F101FB125303F0FF03092B2A
:104E1C0094BF30333733DBB2AA4204F8013DEFD9EB
:104E2C002146FFF7CFFF0BB030BD7047704770477E
:104E3C0070470000064B994210B500F10C0405D0E8
:104E4C00084602F04BFC002808BF0024204610BD89
:104E5C00087C0B00064B994210B500F10C0405D0F0
:104E6C00084602F03BFC002808BF0024204610BD79
:104E7C00087C0B00064B994210B500F10C0405D0D0
:104E8C00084602F02BFC002808BF0024204610BD69
:104E9C00087C0B0010B568210446FFF70AF9204680
:104EAC0010BD10B528210446FFF703F9204610BDAC
:104EBC0010B530210446FFF7FCF8204610BD6821E0
:104ECC00FFF7F7B82821FFF7F4B83021FFF7F1B856
:104EDC00F0B50025EC1C8C420DD86E1C445D875D32
:104EEC00974205D12644B14205D31D60601CF0BD2C
:104EFC0001342544EEE70020F9E70000024A03499B
:104F0C000A20FFF757BB00BF81450B00747C0B00D8
:104F1C0030B40D4611461A46036809682868D3E96F
:104F2C000043A44630BC6047012A38B5044602D180
:104F3C000B68236003E0022A03D0032A0DD0002063
:104F4C0038BD08200D68FFF7B0F803460028F0D0F4
:104F5C0095E8030083E80300EBE700680028EED037
:104F6C000821FFF7A6F8EAE710B5836804462BB1D1
:104F7C000322014698470023C4E9023310BD10B543
:104F8C00836804462BB10322014698470023C4E9E9
:104F9C00023310BD10B500238AB02022CDE90223C4
:104FAC000446084A0092084902AA0120FFF70AFBAE
:104FBC00206806490088002322460AB0BDE810404C
:104FCC00FFF76CBA967C0B008B7C0B00C5690B0051
:104FDC0010B5013802EB410110F8013F1B0903F138
:104FEC003004392C88BF03F1370402F8024B0378E4
:104FFC0003F00F0303F13004392C88BF03F137049D
:10500C00914202F8014CE7D110BD10B5044658305E
:10501C00FFF7E0FD04F14800BDE8104002F020BAB3
:10502C0038B503688B4205460C4608D011B14B6865
:10503C0001334B60286808B1FFF7BBFC2C6038BD0E
:10504C00A0F13003DAB2092A01D818467047A0F152
:10505C006103052B01D857387047A0F14103052B8C
:10506C0094BF37384FF0FF307047000010B5002365
:10507C000370044B04461868FFF7D2F90123237020
:10508C00204610BD20E7032010B5037804461BB161
:10509C00024B1868FFF7CCF9204610BD20E703201F
:1050AC0082B00346086849686A4603C26A4603CA66
:1050BC0018601846596002B0704708B582798B7930
:1050CC009A4206D1062202F021FCB0FA80F0400987
:1050DC0008BD0020FCE74FF0FF3303608380002005
:1050EC00704708B50246002101604160FFF7F3FFED
:1050FC009171104608BD000010B501230361054BEA
:10510C00024603F1100153F8044B42F8044B8B4256
:10511C00F9D110BDEE7A0B000B7C13F0FD0330B50A
:10512C000DD103610C4B024603F1100453F8045BE0
:10513C0042F8045BA342F9D10B88838130BD012373
:10514C00036101F11002034651F8044B43F8044B80
:10515C009142F9D1F2E700BFEE7A0B0010B50B4685
:10516C000446B1B1012A01F110020AD1014653F8EB
:10517C00040B41F8040B9342F9D10123236120461F
:10518C0010BD411E12F8010D01F8010F9A42F9D120
:10519C00F3E7102202F0F2FBF1E738B504460D46B6
:1051AC00FFF7AAFF00232361A581204638BD08B56F
:1051BC0002690B699A4206D1102202F0A7FBB0FAE1
:1051CC0080F0400908BD0020FCE7000001232DE918
:1051DC00F3410361344B0C460646024603F11001C1
:1051EC0053F8040B42F8040B8B42F9D144B324213D
:1051FC00204602F001FC04284FF0000523D1ADF845
:10520C00045001AFA51C063415F8020CFFF718FF6B
:10521C00B0F1000812DB15F8010CFFF711FF0028A4
:10522C000CDB023540EA0810A54207F8010BEBD164
:10523C009DF8053033739DF804307373002333618C
:10524C0002B0BDE8F0814FF010082421204602F096
:10525C00D3FBA84207D842460021304602B0BDE835
:10526C00F04102F08BBBB8F1000FE9D0605DFFF7A5
:10527C00E7FE030615D4000108F1FF38C7B206F8A3
:10528C0008702421204602F0B7FB0135A84208D94A
:10529C00605DFFF7D5FE40B20028A4BF384306F886
:1052AC0008000135D1E700BFEE7A0B0013B50446B8
:1052BC000191FFF721FF20460199FFF787FF204658
:1052CC0002B010BD10B500F10F0301391C7801F8C4
:1052DC00014F834203F1FF33F8D110BD2DE9F041AA
:1052EC001F468EB00D4600295BD0DAB1D0F8108085
:1052FC00541EB8F1000F19D18389CDF814805BBA14
:10530C0005AA022101A8ADF80430FFF761FE042CB8
:10531C0028BF0424224605A9284602F007FB05F8FD
:10532C000480621C10460EB0BDE8F08101A9FFF7A5
:10533C00C9FF05AA7FB1102101A8FFF749FE242C53
:10534C0028BF2424224605A9284602F0EFFA0023A0
:10535C002B55621CE6E704210DEB0100FFF738FE2C
:10536C002D260DF11D02022102A88DF81C60FFF7FD
:10537C002FFE0DF1220202210DF10A008DF82160A1
:10538C00FFF726FE0DF12702022103A88DF82660F7
:10539C00FFF71EFE8DF82B600BAA06210DF10E00F7
:1053AC00CBE70A46BEE710B58AB004460023252297
:1053BC0008466946FFF792FF6946204602F09BF8C3
:1053CC0020460AB010BDF7B5054616461F460A46DC
:1053DC0001ABD0E90001FFF77BFD30F002040CD0EB
:1053EC00841EBC4228BF3C463EB101992B68023159
:1053FC0022461944304602F099FA204603B0F0BD1B
:10540C0037B513460C4601920A4608210546FFF7AC
:10541C00DAFF40B9019B22460921284603B0BDE8BA
:10542C003040FFF7D0BF03B030BD0000F0B50C46E4
:10543C0089B00C49054602F05EF81F2269462046E9
:10544C00FFF7DEFF064650B16C46002714F8011B2F
:10545C00284602F0CFF810B10137BE42F6D12846EB
:10546C0009B0F0BD0B7D0B0007B5022301AA192171
:10547C00FFF7A9FF08B1BDF8040003B05DF804FB09
:10548C0038B54FF6FF730025044643800E2229469B
:10549C0005700571063002F071FA04F11400FFF783
:1054AC002BFE04F12800FFF727FE044904F13C0011
:1054BC0002F021F86565204638BD00BF0B7D0B005E
:1054CC0038B50D680446014605F12800FFF76FFE5C
:1054DC0040B1AB89A28A9A4205D8E08A984234BF7F
:1054EC000020012038BD0020FCE710B5D0E90632C1
:1054FC0003EBC2029342184606D0046824888C42FF
:10550C0003F10803F6D110BD0020FCE7002370B5B1
:10551C00036005466820FEF7C8FD041E04F10C0666
:10552C0007D00123C4E90133044B23603046FFF755
:10553C00A7FFC5E90064284670BD00BF747E0B0050
:10554C0070B50C681434064605460FCC0FC523689D
:10555C002B60304670BD0000F0B5064685B01F4686
:10556C000D46002950D0002A4ED004682378F42A26
:10557C0028BFF42243B32379980709D5A089039255
:10558C000023FEF781FF0028039A03DA05B0F0BD73
:10559C006FF0770034682379D90609D5012F07D02D
:1055AC00A0890023294605B0BDE8F040FEF7C6BF30
:1055BC009B06EBD5022FE9D0A0890023294605B024
:1055CC00BDE8F040FEF7C4BF60884FF6FF7188421B
:1055DC001CD021794E0701D5012F04D10B0709D41A
:1055EC006FF07700D2E7A189009313462A46FEF7A5
:1055FC0073FFCBE7022FF3D00023A189009313464E
:10560C002A46FEF75FFFC1E70248BFE76FF0D10003
:10561C00BCE700BFF2FEFFFF10B503681A7886B036
:10562C0052BB5C884FF6FF70844225D0188A30B389
:10563C00CDE903220592134A0092134ACDE90123C6
:10564C005A88ADF80C201A8AADF80E209A89ADF85C
:10565C00102059B11A79920644BF022205921B7987
:10566C00DB0642BF059B43F001030593002168460E
:10567C00FEF75AFF06B010BD6FF0D100FAE76FF0DD
:10568C007700F7E70300180069580B00F8B50026FF
:10569C00066005462820FEF708FD041E04F10C07E1
:1056AC000AD00123C4E90133054B23603846FFF7C8
:1056BC0023FD266284F82460C5E900742846F8BDF1
:1056CC00907E0B0070B50025056006463020FEF775
:1056DC00ECFC044688B10123C0E90133094B03609B
:1056EC004FF6FF7383810E30FFF7FBFCC4E90655C0
:1056FC00C4E90855C4E90A55A57574600C343460C6
:10570C00304670BDAC7E0B0013B5044601A8FFF704
:10571C00ADFC23681C884FF6FF73E41A01A818BF70
:10572C000124FFF7B1FC204602B010BD37B5054689
:10573C000C4601A8FFF79AFC2A682368C2F80230CD
:10574C006368C2F8063001A8FFF79EFC03B030BDB9
:10575C0037B50D46044601A8FFF788FC2A68D2F835
:10576C0002302360D2F80630636001A8FFF78CFC8E
:10577C00204603B030BD30B5054687B00C4601A8B5
:10578C00FFF774FC2A68236812881B889A420DD193
:10579C00294602A8FFF7DCFF214604A8FFF7D8FF33
:1057AC0004A902A8FFF789FC044600B9002401A84B
:1057BC00FFF76AFC204607B030BD000010B5044668
:1057CC006420FEF772FC68B10023C0E90033C0E925
:1057DC000233C0E90433C0E906330362C362C36316
:1057EC00C364C365206020B90A4A0B490A20FEF73E
:1057FC00E1FE0020FEF724FE20B1064A07490A20EC
:10580C00FEF7D8FE216806480022FEF783FE2046EC
:10581C0010BD00BF81450B00747C0B00B27C0B00EB
:10582C00A9610B0010B50A4C2378BFF35B8FDB0723
:10583C000CD42046FEF73FFC40B10648FFF7BEFFF4
:10584C002046FEF73DFC044802F05AF8014810BD12
:10585C001CE7032024E70320095B0B0030B5036829
:10586C00093B012B8DB004460D4611D8FFF7DAFF2A
:10587C00A1880068FFF739FE034658B92022CDE90C
:10588C0004200B4A00920B4904AA3220FEF79AFE20
:10589C000DB030BD6A6D002AFAD0D4E9032105F1B0
:1058AC004C00CDE90312AC6D04AA03A9A047EFE7A5
:1058BC00F47C0B008B7C0B0008B50020FEF7C0FDC0
:1058CC0000EAE07008BD000070B5044618300E46C2
:1058DC001546FFF749FB04F12800FFF750FBC4E91C
:1058EC000365002221460348FEF7B2FD0028A8BF3D
:1058FC00606970BD01710B0010B504464069FEF77C
:10590C00FDFEA068FEF7FAFE204610BD002247F609
:10591C007F71C0E90022C0E90222C0E90422C0E97B
:10592C000E22C0E91022C0E91222C0E91422C0E9FB
:10593C001622C0E91822C0E91B2202620263A0F8F9
:10594C00681070470368D8690028D4BF0020012074
:10595C00704710B504460068FEF7D0FE204610BD17
:10596C0070B50446C06DFEF7C9FE206DFEF7C6FE8D
:10597C0004F1380504F14400FFF7EBFF2846FFF76C
:10598C00F1F904F12800FFF725F904F11800FFF7ED
:10599C0021F9D4E90053242606FB0356AE4204D069
:1059AC002846FFF7A9FF2435F8E72068FEF7A6FE86
:1059BC00204670BD30B515469FB00C4679B172B11A
:1059CC0001A8FFF7A3FF21462A4601A8FFF77CFF99
:1059DC00044601A8FFF7C4FF20461FB030BD014CA0
:1059EC00FAE700BFF2FEFFFF38B5141E4368054608
:1059FC0002DB62189A4200DD5C1A2A685018011901
:105A0C001A44521A01F0A0FF6A68121B6A6038BD72
:105A1C0038B500230446836008200D46FEF745FB8D
:105A2C0018B12B6803606B684360034BE360034B56
:105A3C002060A360204638BD1D4F0B00354F0B0076
:105A4C000B68036013B15A6801325A60704710B585
:105A5C0051F8043B044640F8043BFFF7F1FF236880
:105A6C000BB9FFF74BFA204610BD10B551F8043BAB
:105A7C00044640F8043BFFF7E3FF204610BD10B589
:105A8C0051F8043B044640F8043BFFF7D9FF20468D
:105A9C0010BD10B504460430FEF748FF204610BD7B
:105AAC0070B5D0E90053044605EBC306AE4204D0F2
:105ABC00281DFEF73BFF0835F8E72068FEF71EFEB1
:105ACC00204670BD70B5D0E90053044605EBC30603
:105ADC00AE4204D0281DFEF729FF0835F8E72068F0
:105AEC00FEF70CFE204670BD10B504462430FFF7BF
:105AFC00E9FF04F11800FFF7D3FF10BD70B5174B89
:105B0C001C6854B304F15400FFF764F804F144002A
:105B1C00FFF760F804F13400FFF75CF804F124009F
:105B2C00FFF758F8D4E9065305EBC306AE4204D090
:105B3C00281DFEF7FBFE0835F8E7A069FEF7DEFD31
:105B4C0004F10C00FFF7BEFF2046FFF7A9FF20462B
:105B5C006421BDE87040FEF7ACBA70BD24E70320A9
:105B6C00826810B50AB901F0B5FDBDE81040C368F4
:105B7C0018472DE9F0470023C0E900338360D1F8C2
:105B8C000480984505460F464ADD4FEA0810FEF79B
:105B9C00ADFD0646002843D0D5E90041A04204EBF8
:105BAC00011A16D9504515D2AAF1100AA4F1100900
:105BBC00AAEB04040444D1451DD01CB15146204627
:105BCC0001F0CAFC504601F04BFCAAF1100A103C43
:105BDC00F1E710D0B146A2450DD0B9F1000F03D0BA
:105BEC002146484601F0B8FC204601F039FC10343F
:105BFC0009F11009EFE72868FEF780FDC5F8088069
:105C0C002E60D7E9004304EB0318A04506D02146CB
:105C1C00304601F0BBFC10341036F6E77B686B6045
:105C2C002846BDE8F08730B58DB00C4600F1380140
:105C3C0001A8FFF79EFF029B002B2FDD04F114013E
:105C4C0004A8FFF7F3FB04F1080108A8FFF7EEFB2B
:105C5C000A9A069B13431FD0DDE9014504EB051599
:105C6C00AC4219D004A9204601F0E6FC60B1012435
:105C7C0008A801F0F5FB04A801F0F2FB01A8FFF75E
:105C8C0071F820460DB030BD204608A901F0D4FCB7
:105C9C0010340028E4D0EAE70024E9E70124EDE71A
:105CAC00F8B50023C0E9003383604F689F42054676
:105CBC000E463EDDF800FEF719FD0446C8B3D5E9E3
:105CCC000003844200EBC30310D99C420FD2083B63
:105CDC001A1AA0F1080C22449C4518D01AB1196864
:105CEC00116059685160083B083AF5E70FD001463E
:105CFC0022468B420BD03AB1D1F800C0C2F800C09A
:105D0C00D1F804C0C2F804C008310832F1E7FEF73C
:105D1C00F5FC2C60AF60D6E9003103EBC100984272
:105D2C0006D01A6822605A68626008330834F6E7B5
:105D3C0069602846F8BD70B504460020C4E900002F
:105D4C00A0604E6886420D4612DD7100FEF7DEFC47
:105D5C0070B12060A660D5E9003203EB42029A4292
:105D6C0004D033F8021B20F8021BF8E76B68636061
:105D7C00204670BD10B50379044623B90368186832
:105D8C0008B1FEF7BBFC204610BD10B503790446E4
:105D9C0023B90368186808B1FEF7B0FC204610BDA3
:105DAC002DE9F043D0F86C808FB00F46B8F1000F9E
:105DBC0072D0056F002D6FD001F114091F23002242
:105DCC00FF214846FFF7FFFA0837FF23044600225D
:105DDC0019463846FFF7F7FAAC42064606D0AE42F3
:105DEC0030D0002420460FB0BDE8F0832046FEF7EB
:105DFC007DFC03AB04930023044603908DF8143010
:105E0C0070B92023CDE90630244B00932449034676
:105E1C0006AA3220FEF7D6FB04A8FFF7ABFFE1E79A
:105E2C000246FF212B464846FFF7CDFA03982A4637
:105E3C00414601F06BFD18B104A8FFF79BFFCEE7BC
:105E4C000124E9E72846FEF751FC002403AB064683
:105E5C00039004938DF8144078B92023CDE90630D3
:105E6C000E4B00930E49034606AA3220FEF7AAFBFE
:105E7C00344604A8FFF789FFB4E70246FF212B46FE
:105E8C003846FFF7A0FA03982A46414601F03EFD3A
:105E9C000028EED10124ECE70124A3E70C7D0B00D4
:105EAC008B7C0B0008B583688B4202DAFEF754FD3D
:105EBC0008BD0120FCE738B50B6803604B684360F4
:105ECC0004460D4608300831FEF756FD05F1140165
:105EDC0004F11400FEF750FD95F8203084F82030C2
:105EEC00204638BD1FB5044601A8FEF745FD019BB1
:105EFC00029A2068236063686260039A0293A36825
:105F0C00A26001900393FEF7F9FB04B010BD2DE9DC
:105F1C00F0410F4641681D46194483689942044676
:105F2C00904612DC266862683E44D21B31467019DA
:105F3C0001F00AFD2A464146304601F0F7FC636841
:105F4C002B4463600120BDE8F081FEF705FD0028BD
:105F5C00E8D1F8E713460A46002110B50446416023
:105F6C0002B10BB9002010BDFF2B28BFFF23FFF798
:105F7C00CEFF0028F7D06068F5E7F8B50D46D0E9FC
:105F8C0001139942044616460BDA276862687919A0
:105F9C00521B481C01F0D8FC7E55636801336360CA
:105FAC00F8BD0131FEF7D8FC0028EED1F8E70A461F
:105FBC004168FFF7E2BF2DE9F74304461D460F4643
:105FCC0001AB90460A46D0E900019DF82890FEF7F7
:105FDC007FFFAE1C63680246B9F1000F26D128B3CF
:105FEC0033441B1AFF2B09D801992046FFF7FCFC00
:105FFC00616820463144FFF755FF18B9606803B05B
:10600C00BDE8F0836A1C0199D2B22046FFF7B5FFB8
:10601C0001993A4601312046FFF7AFFF01992B4613
:10602C00424602312046FFF772FFE7E7F118FF29DD
:10603C00E4D82046FFF736FF0028DFD0691CC9B230
:10604C002046FFF7B4FF39462046FFF7B0FF6168E2
:10605C002B464246E6E730B49DF808501AB102953B
:10606C0030BCFFF7A8BF406830BC70471FB5002399
:10607C00C0E9003383600622009301238DF80F20C2
:10608C0019460DF10F020446FFF7E5FF204604B058
:10609C0010BD8842F8B504460D46164614D99042F8
:1060AC0013D2A2F10806751AA1F108072C44B742C5
:1060BC0018D01CB131462046FFF7E1FC301DFEF72D
:1060CC0035FC083E083CF2E70CD0B5420AD01CB1B6
:1060DC0029462046FFF7D3FC281DFEF727FC083580
:1060EC000834F2E7F8BDF7B5044646686846FFF792
:1060FC00C6FCD4E901739F4212DB0137002F29DD66
:10610C00F800FEF7F3FA0546F0B1D4E9001201EB02
:10611C00C202FFF7BEFF2068FEF7F0FA2560A76009
:10612C002368626803EBC60603EBC202314606F134
:10613C000800FFF7AEFF1EB169463046FFF79FFC23
:10614C00636801336360012501A8FEF7EFFB284665
:10615C0003B0F0BD0025DEE7F8B5D0E900430546F5
:10616C000F4604EBC306A64205D039462046FFF77E
:10617C0002FB08B114B9F8BD0834F4E7201DFEF792
:10618C00D5FBD5E9003204F1080103EBC20220462D
:10619C00FFF77FFF6B68013B6B60ECE72DE9F0418B
:1061AC0005468EB003A80C46FEF760FF2E68F31E62
:1061BC000D2B3CD8DFE813F00E0057003B00D3004A
:1061CC003B003B003B003B003B009D009D009D00C5
:1061DC009D009D0004A8FFF775FA049BAA891A80FC
:1061EC006968049808310230FEF75AFF04A906A822
:1061FC00FFF745FC06A904F11800FFF774FF0546EC
:10620C0007A8FEF793FBC5B92023CDE906355E4BF5
:10621C005E49009306AA2B460120FEF7D3F9049B96
:10622C0029461888FEF726F905A8FEF77FFB03A878
:10623C00FEF72AFF0EB0BDE8F081E36A23B104A992
:10624C0004F12400FFF78CFC05A8FEF76FFB20215E
:10625C000023CDE906134E4A00924C4906AA0120B0
:10626C00FEF7B0F9E3E7A9892046FFF73EF90646A9
:10627C000028DCD00568D5E906324FF6FF7129807D
:10628C0003EBC2029A4203D053F8080B4180F9E7A2
:10629C00D5E9037307EBC308B84504D0381DFEF7E6
:1062AC0045FB0837F8E700232B61D5E9067307EBAC
:1062BC00C308B84504D0381DFEF738FB0837F8E79B
:1062CC000023EB61AB72E36B23B1314604F1340074
:1062DC00FFF746FC33684FF6FF721A80314604F123
:1062EC001800FFF739FF20220023CDE90623294AA5
:1062FC00B2E7A9892046FFF7F8F8002897D0E36C9D
:10630C00002B94D000230D2EADF8163001D0102E9A
:10631C0017D1002369681A4606258DF815300491AB
:10632C008DF814200690DDE9040109AB8DF81C6092
:10633C00089583E80300236D06A904F144009847EF
:10634C0075E70F2E01BF2B7A696803F0010208254F
:10635C000FBFC3F340031A4619461D46DDE7A98952
:10636C002046FFF7C2F8014600283FF460AFE36D0A
:10637C00002B3FF45CAF6B68069306AA236E04F106
:10638C005400984753E700BF277D0B008B7C0B0014
:10639C004D7D0B00577D0B0038B50D1E0446006873
:1063AC0005DD14216943FEF7B1F918B938BDFEF7C4
:1063BC00A5F900202060A5600120F7E72DE9F8433E
:1063CC000024C0E90044846088464968A14207461D
:1063DC001ADDFFF7E1FFB8B1D8E900934FF0140CC8
:1063EC00D7F800E00CFB039C09EB0405AC4508D086
:1063FC001EEB04061FBF0FCD0FC62B683360143481
:10640C00F2E7D8F804307B603846BDE8F8832DE914
:10641C00F843D1E9008745688368E9199942044635
:10642C0017DC1423266862685D4303FB07F95A43A3
:10643C002E44521B314606EB090001F085FA4A4600
:10644C004146304601F072FA63683B446360BDE834
:10645C00F883FFF7A1FF0028E3D1F8E782B070B50D
:10646C000C4604A981E80C00D0E9011399420546B9
:10647C0017DA142303FB04F16A682C685A430C44A2
:10648C00521AE018214604AE01F05EFA0FCE0FC48A
:10649C00336823606B6801336B60BDE8704002B0F9
:1064AC0070470131FFF778FF0028E2D1F5E72DE9BD
:1064BC00F04F002493B0931EC0E90044DBB20546B4
:1064CC000F4690468460059379688C4272DA38687E
:1064DC0007AB4246091B2044FEF7FAFC064600288F
:1064EC0068D0059B012B2FD8A0F1020B4FEA5B0B58
:1064FC004FF000090DF13C0A079BCB45234455D0C6
:10650C003A6803EB4903134408A8D9789B7843EA0B
:10651C000121FEF742FE0DF1200EBEE80F000DF139
:10652C00340CACE80F00DEF80030CCF800309AE800
:10653C0007008DE807000DAB0CCB69682846FFF708
:10654C008DFF09F10109D7E7A8F10603012B2DD81E
:10655C00A0F1020B4FEA1B1B4FF000090DF13C0A96
:10656C00CB45079B22D002333968234403EB091334
:10657C000122194408A8FEF7F1FD0DF1200EBEE82A
:10658C000F000DF1340CACE80F00DEF80030CCF845
:10659C0000309AE807008DE80700DDE90D236968F3
:1065AC002846FFF75BFF09F10109D9E7079B1C445B
:1065BC00344489E7284613B0BDE8F08F30B500238A
:1065CC0085B0C0E9003383600446022201A80D4661
:1065DC00FFF76DFF01A92046FFF719FF01A8FFF790
:1065EC00B8F90222294601A8FFF761FF01A920464C
:1065FC00FFF70DFF01A8FFF7ACF90322294601A80C
:10660C00FFF755FF01A92046FFF701FF01A8FFF78F
:10661C00A0F90622294601A8FFF749FF01A9204647
:10662C00FFF7F5FE01A8FFF794F90722294601A808
:10663C00FFF73DFF01A92046FFF7E9FE01A8FFF790
:10664C0088F9204605B030BD2DE9F04385B0884669
:10665C00014601A89146FFF7B1FF019E029B4FF046
:10666C00140E0EFB036C0027B4450DD0B94506F192
:10667C00140609D0A6F114050FCD0EFB07840FC428
:10668C002B6823600137EFE701A8FFF762F9384662
:10669C0005B0BDE8F0832DE9F04F8BB00C4600F14E
:1066AC00440101A8FFF78AFE029B002B4ADD04F18E
:1066BC00140104A8FFF782FF04F1080107A8FFF7F3
:1066CC007DFF059D089E002D01DC002E38DD019A12
:1066DC00029FDDF81080DDF81C90142303FB0727C4
:1066EC0003FB058503FB06969246BA4528D0C346A4
:1066FC00AB4515D059465046FEF759FD0BF1140B1E
:10670C0004460028F4D007A8FFF723F904A8FFF7E4
:10671C0020F901A8FFF71DF920460BB0BDE8F08F5A
:10672C00CB46B34509D059465046FEF740FD0BF118
:10673C00140B04460028F4D0E5E70AF1140AD4E758
:10674C000024E0E70124E4E738B505460C46FEF7E3
:10675C004AFAAB68A268AA60A360EB68E268EA60D8
:10676C00E36038BD30B585B0002302938B680546D5
:10677C000C4633B1022268469847E3680393A3683A
:10678C00029329466846FFF7DFFF6846FEF722FAB8
:10679C0005B030BD38B50D4601684B6D044623B1CC
:1067AC0028684C314C30FFF7DDFF20462B6840F851
:1067BC00043B6968FEF734FC204638BD2DE9F043F4
:1067CC00044687B068460E461746FEF74FFC236812
:1067DC00D3E9064304EBC3084445A14616D0214631
:1067EC0001A8FEF7ADFE394601A8FEF7E0FC08341F
:1067FC0005460028F0D049463046FFF7CBFF6846E7
:10680C00FEF742FC284607B0BDE8F0830025F6E70A
:10681C0010B504688AB04C34B9B1CDE9001202A8A5
:10682C006946FFF7F5F8002306A902A80893FFF7BD
:10683C008BFF214606A8FFF787FF06A8FEF7CAF9CB
:10684C0002A8FEF7C7F90AB010BD0491EBE7884225
:10685C00F8B504460D46164614D9904213D2A2F14F
:10686C000806751AA1F108072C44B74218D01CB1C0
:10687C0031462046FFF7F9F8301DFEF757F8083E71
:10688C00083CF2E70CD0B5420AD01CB12946204690
:10689C00FFF7EBF8281DFEF749F808350834F2E746
:1068AC00F8BD70B50E1E054611DDF000FDF71EFF9C
:1068BC00044658B1D5E9001201EBC202FFF7C7FF3D
:1068CC002868FDF71BFF2C60AE60012070BD002412
:1068DC00F6E72DE9F0410023C0E9003383600D4653
:1068EC0049689942044613DDFFF7DBFF80B1D5E917
:1068FC000063276806EBC308B04507D01FB13146CB
:10690C003846FFF7B2F808360837F5E76B6863606E
:10691C002046BDE8F08137B50D46044601A8FEF7C8
:10692C00A5FB296820460C31FFF7D3FF01A8FEF721
:10693C00ABFB204603B030BD38B50B689B7A0546DF
:10694C000C4633B90846FEF725FB10B92368012223
:10695C009A7228462146FFF7DEFF284638BD73B5EC
:10696C00044645686846FFF780F8D4E9011399425C
:10697C0010DA2368626803EBC50503EBC2022946F3
:10698C0005F10800FFF763FF8DB96368013363609D
:10699C00012606E001312046FFF783FF064600285A
:1069AC00E7D101A8FDF7C2FF304602B070BD6946C1
:1069BC002846FFF75AF8E8E72DE9F04FDFF8B890D2
:1069CC00DFF8B8A093B00546884600272B68BB4279
:1069DC004ED903A8FEF75AFE1C266A68039C7E4318
:1069EC0032440DF1140C131DE34614321868596827
:1069FC00E646AEE8030008339342F446F6D1186835
:106A0C00CEF8000059460AA8FEF786FB0DF1280CBB
:106A1C00BCE80F000FC4DCF8003023606B68039AED
:106A2C00334403A91B8B93826B6833445B8BD382F7
:106A3C00D8F8000000F10C040AA8FFF716F820465D
:106A4C000AA9FFF78CFF04460BA8FDF76FFF54B99A
:106A5C002023CDE90A34CDF8009023460AAA5146EA
:106A6C003220FDF7AFFD04A8FDF760FF0137ADE75D
:106A7C0013B0BDE8F08F00BF647D0B008B7C0B0066
:106A8C008842F8B504460D46164614D9904213D2E6
:106A9C00A2F10806751AA1F108072C44B74218D0C8
:106AAC001CB131462046FEF7D2FF301DFDF73EFFEC
:106ABC00083E083CF2E70CD0B5420AD01CB129467E
:106ACC002046FEF7C4FF281DFDF730FF08350834BB
:106ADC00F2E7F8BD70B50E1E054611DDF000FDF7AE
:106AEC0005FE044658B1D5E9001201EBC202FFF7CE
:106AFC00C7FF2868FDF702FE2C60AE60012070BD58
:106B0C000024F6E72DE9F0410023C0E9003383604F
:106B1C000D4649689942044613DDFFF7DBFF80B14F
:106B2C00D5E90063276806EBC308B04507D01FB151
:106B3C0031463846FEF78BFF08360837F5E76B68A9
:106B4C0063602046BDE8F08137B50D46044601A8C8
:106B5C00FEF78CFA296820461831FFF7D3FF01A8FD
:106B6C00FEF792FA204603B030BD73B50446456873
:106B7C006846FEF76CFFD4E90113994210DA2368DA
:106B8C00626803EBC50503EBC202294605F1080058
:106B9C00FFF776FF8DB9636801336360012606E069
:106BAC0001312046FFF796FF06460028E7D101A8E1
:106BBC00FDF7BCFE304602B070BD69462846FEF7B4
:106BCC0046FFE8E7F0B585B0054601A80C46174628
:106BDC00FEF74CFA0023C5E90033AB602368D3E918
:106BEC00064604EBC606B44211D038682146FEF7BF
:106BFC0067FC50B1214602A8FEF729FF02A92846DE
:106C0C00FFF7B3FF03A8FDF791FE0834EBE701A8EB
:106C1C00FEF73AFA284605B0F0BD00002DE9F04326
:106C2C000B689B7A91B006460F46904633B9C0E983
:106C3C0000338360304611B0BDE8F08311680D7EDF
:106C4C00002D58D120232A4603A8CDE90835FEF79C
:106C5C00AAFB039B01932B4B2B49009308AA2B46B1
:106C6C000120FDF7AFFC03A800F0FAFB1C23ADF8E4
:106C7C002230D8F800309A8AADF83820DB8AADF88B
:106C8C003A303B68214A1888009508A9FDF710FC9A
:106C9C00002830DB3B68D3E9064304EBC309083416
:106CAC00A4F10803994522D054F8083CDB89002B49
:106CBC00F5D0102200210DEB0200039500F05EFED2
:106CCC0054F8083CD9893B6803AA1888009513230B
:106CDC00FDF70CFC0028E2D010AB184403A900F817
:106CEC00345C54F8080C3C3000F05BFCD7E7D8F867
:106CFC00003001221A76424639463046FFF762FFD1
:106D0C0098E700BF897D0B008B7C0B00C16E0B00DC
:106D1C00F0B50B689B7A85B006460D462BB901A8D9
:106D2C00FFF70AFE01A8FEF7BBFE2B68D3E9034769
:106D3C0004EBC707BC4209D02246294601A8FFF73D
:106D4C006DFF01A8FEF7BEFE0834F3E73046294676
:106D5C00FFF7FAFE304605B0F0BD00002DE9F04318
:106D6C00054693B0086807920F46496898460AACE6
:106D7C00414B049303C405AB4FF0000983E80300B7
:106D8C00CDE90899FEF74EFD3C4B0893FEF74AFD02
:106D9C002968036809934A4604A8FDF7B1FB0AAEBB
:106DAC00044638B12B684FF6FF721A80204613B098
:106DBC00BDE8F08303A8FEF759F939462846FEF7DB
:106DCC00B5FCFEF72FFD0768294618373046FEF74D
:106DDC0056FE31463846FFF786F907460BA8FDF7F5
:106DEC00A5FD4FF020091FBB3246254B254E2649E9
:106DFC00009332202346CDE90A94FDF7E3FB30687B
:106E0C00FDF716FB2B688DF80C40214618881F4C9B
:106E1C00FDF730FB3068FDF703FB01238DF80C30D8
:106E2C002B684FF6FF721A8003A8FEF72DF9BDE709
:106E3C0003A8FEF729F9164B009313492346324653
:106E4C000120CDE90A94FDF7BDFBB8F1000FADD0E0
:106E5C0029463046FFF75CFFDDE90A5305EBC30713
:106E6C00BD4205D028460121FEF7D6FB0835F7E7D1
:106E7C003046FEF727FE99E703001800A9610B00C6
:106E8C00BB7D0B0020E703208B7C0B00FCFEFFFF7F
:106E9C00D77D0B0013B50446CDE90032FEF712FC8A
:106EAC00009B019900222046FFF758FF204602B0B4
:106EBC0010BD00002DE9F04F202395B00026CDE940
:106ECC000C36664B009305460F4633466449DFF893
:106EDC009491DFF88C81DFF890A10CAA0120FDF7CA
:106EEC0071FB2B68B34240F2B58003A8FEF70EFB92
:106EFC0005A8FEF7CBFB4FF02A0B6B68039A0BFB34
:106F0C0006FB5B44D98B1181198C5181598C918171
:106F1C00988CD081D88C10821B8D5382D7E9033288
:106F2C0003EBC2029A427DD01868C48A8C4277D394
:106F3C00848A8C4274D85968059006A8FEF770F8BC
:106F4C00DDF814C0DDF80CE0BCE80F000EF12804ED
:106F5C000FC4DCF8003023602B89AEF802306B686C
:106F6C00039C5B445B7E13F0020F6ED16B685B4439
:106F7C005B7E580742BF237943F0040323716B688F
:106F8C005B445B7E190742BF237943F008032371EE
:106F9C006B685B445B7EDA0642BF237943F01003D7
:106FAC0023716B685B4407AA5B7E9B0642BF237907
:106FBC0043F0200323716B689B440BF1040396464A
:106FCC000BF1140B186859689446ACE803000833AD
:106FDC005B456246F6D11868CCF8000071460CA8E7
:106FEC00FEF79AF80DF1300CBCE80F0014340FC406
:106FFC00DCF80030236003A90CA8FEF728FD0CA9CF
:10700C0007F11800FFF7B1FD04460DA8FDF78EFC43
:10701C009CB92023CDE90C34CDF800A0234607E021
:10702C0008337FE720240023CDE90C43CDF80090F2
:10703C000CAA41463220FDF7C5FA06A8FDF776FCEE
:10704C0004A8FDF773FC01364BE7237943F00203E8
:10705C0023718BE715B0BDE8F08F00BFF47D0B00FA
:10706C008B7C0B000F7E0B003E7E0B008842F8B52C
:10707C0004460D46164614D9904213D2A2F12406AA
:10708C00751AA1F124072C44B74218D01CB1314613
:10709C002046FEF710FF3046FEF72EFC243E243C23
:1070AC00F2E70CD0B5420AD01CB129462046FEF7B7
:1070BC0002FF2846FEF720FC24352434F2E7F8BD05
:1070CC00F8B50E1E054613DD242707FB06F0FDF769
:1070DC000DFB044658B1D5E9001207FB0212FFF76D
:1070EC00C5FF2868FDF70AFB2C60AE600120F8BDD7
:1070FC000024F6E72DE9F0439DB001AD0646284685
:10710C000C46FDF7EEFF03A8FEF7B0FF06A8FEF74E
:10711C00ADFF30697169F28913AB03C385E80300D5
:10712C003378B1688DF8243006A8FEF713FFB289C6
:10713C00716803A8FEF70EFF94F968307F2B13AF2C
:10714C0003D09DF924209A425CDB94F969307F2BA3
:10715C0003D09DF924209A4254DC04F150013846A6
:10716C00FEF79EFD149B002B52DD139E06EBC3090C
:10717C00B14550D030462946FDF79FFF0836804672
:10718C000028F5D01398FDF7B9FAB8F1000F39D0F3
:10719C0029462046FEF747FDA0B329462046FFF7B7
:1071AC007AFA064670B304F15C013846FEF7C3FD6B
:1071BC00149B002B12DD06A8FEF756F9804603A897
:1071CC00FEF752F9DDE9133203EB42029A4225D065
:1071DC0033F8021B884501D08842F7D11398FDF78C
:1071EC008DFA7EB129462046FEF7DAFD50B1236AAE
:1071FC00B3B16369139501336361636A394604F172
:10720C00180098472846FEF777FB1DB0BDE8F083C1
:10721C004FF00108B6E74FF00008B3E70026DDE7B2
:10722C00D4F83080B8F1000F07D063690133636183
:10723C002946636B04F12800E3E7D4F80CC0BCF1D9
:10724C00000F25D063692269013393426361D9D859
:10725C00242253432A4603CA243B0CEB03064CF866
:10726C000300716006F1080003A9FEF73BFE06A9B6
:10727C0006F11400FEF736FE9DF9243086F8203016
:10728C00D4E904329A42BDD34046FDF7E9F8B9E798
:10729C0095E803000DF1280888E8030003A90CA861
:1072AC00FDF76AFB06A90FA8FDF766FB9DF82430D5
:1072BC008DF84830414638466668FEF7FCFDD4E947
:1072CC000113994210DA23686168242202FB063606
:1072DC0006F1240002FB01323146FFF7C7FE86B9E6
:1072EC0063680133636005E001312046FFF7E8FE77
:1072FC000028E8D13846FEF7FFFA4046FEF7FCFAC4
:10730C0080E739463046FEF7D6FDE9E70248002310
:10731C000360FDF77DB800BF20E703207047417480
:10732C00704708B5007CFDF75BF820EAE07008BDFB
:10733C0008B5007CFDF734F820EAE07008BD08B50C
:10734C00007CFDF73DF840EAE07008BD08B5007C14
:10735C00FDF72EF840EAE07008BD007CFDF738B868
:10736C0037B5457C04462DB1207C03B0BDE83040D8
:10737C00FDF70EB8007C0191FDF732F80028019959
:10738C00F2DC284603B030BD10B514210446FCF7DE
:10739C0090FE204610BD000010B54FF47A730446E1
:1073AC00084611460022C4E90123044B2360012343
:1073BC0020746374FDF71CF8204610BDC87E0B00CA
:1073CC00054B02221A60054B054A9A600020C3E95E
:1073DC000000FDF76FB900BF34E7032028E7032056
:1073EC000000FFFF002240681146FDF73BB9002268
:1073FC0040681146FDF746B940680022FDF73AB9DE
:10740C004068002281F00101FDF724B90023406897
:10741C001A461946FDF716B9002340681A46194654
:10742C00FDF708B9002240681146FDF7FBB80022B1
:10743C0040681146FDF7E6B8406800220221FDF7CE
:10744C00E9B8002340681A46FDF7D4B8024B032272
:10745C005A60024A1A60704738E70320F87E0B0026
:10746C0010B504460068FDF749F9204610BD10B56B
:10747C000446006808B1FDF741F90023C4E9013363
:10748C00236010BD38B504460D4600680131FDF788
:10749C003DF910B1C4E90005012038BD10B50368F1
:1074AC00044623B143688B4201D3012010BD204612
:1074BC00FFF7E8FF0028F9D0A368002BF5D122686C
:1074CC001370F2E737B50D46114601920446FFF7EB
:1074DC00E5FF019A28B92046FFF7C9FF204603B003
:1074EC0030BDA2602946206800F020FA2268A3680B
:1074FC000021D154F2E7002313B5C0E90033044650
:10750C008360037341B108460191FCF78BFD01992F
:10751C0002462046FFF7D6FF204602B010BD38B514
:10752C00054600680C4668B16A688B689A4207D3B6
:10753C00096800F059FAA368AB600023A36038BD5A
:10754C00FDF7DCF823682B6063686B60A368AB60A5
:10755C000023C4E90033F1E710B50023C0E9003380
:10756C00044683600373FFF7DAFF204610BD8842A0
:10757C0010B5044605D00B682BB18A681946FFF785
:10758C00A1FF204610BDFFF772FFFAE710B50023EC
:10759C000446C0E9003383600373FFF7E8FF20461D
:1075AC0010BD13B5044659B108460191FCF73AFDDC
:1075BC00019902462046FFF785FF204602B010BD18
:1075CC00FFF755FFF9E770B505460E4609B90020DF
:1075DC0070BD6AB1846814442146FFF75FFF002830
:1075EC00F5D02868AB683146184400F0FDF9AC6062
:1075FC000120EDE707B500238DF80410012201A945
:10760C008DF80530FFF7DFFF03B05DF804FB02686F
:10761C000B46096862B141B9806860B11078704757
:10762C00986840B10978484270471046FCF7F0BCA6
:10763C000029F5D10846704708B582688B689A42D4
:10764C0005D1FFF7E4FFB0FA80F0400908BD002037
:10765C00FCE7704738B5044614252A46002100F093
:10766C008DF925804025074925812846258200F083
:10767C002FF804496060284600F02AF8E0602046A4
:10768C0038BD00BF2C7F0B0030B50E4D2978BFF3F1
:10769C005B8F11F0010487B011D12846FCF70BFD6C
:1076AC0068B101A8FFF7D6FF01AA21460648FFF7EB
:1076BC0073FE2846FCF704FD044800F021F902484B
:1076CC0007B030BD44E7032048E703205F760B008A
:1076DC00FCF7EDBC08B5FDF721F80000014900F0FE
:1076EC00F9B800BF487F0B007FB500241023CDE90B
:1076FC000234036815469E6912686B46CDE9004456
:10770C00B0479DF8043003F00603062B03BF009B23
:10771C002B600120204604B070BD0098904214BF2D
:10772C00012006207047000010B5034B036004468F
:10773C0000F0CDF8204610BD887F0B0010B5044634
:10774C00FFF7F2FF20460821FCF7B3FC204610BDE2
:10775C002DE9F0411F46DDE90834DDF81880984525
:10776C000646154607D1079900F0B4F818B16571B3
:10777C000020BDE8F0813946304600F0ABF8002817
:10778C00F6D00123C4F800802571A371F0E738B559
:10779C0015461C4600F09EF820B10823E360062332
:1077AC002560237138BD73B505460C4601921E4603
:1077BC0000F090F850B9032E08D82368019A5B6941
:1077CC002946204602B0BDE87040184702B070BD93
:1077DC0010B5034B03600446FFF7A6FF204610BD0F
:1077EC00E87F0B0010B50446FFF7F2FF20460C2192
:1077FC00FCF75FFC204610BDF7B5089F9742054685
:10780C000E4614460AD0A86802680897156A3146D5
:10781C002246AC4603B0BDE8F040604719460193E0
:10782C0000F058F8019B0028EDD0062003B0F0BD05
:10783C002DE9F14F0D461946DDE90A4BDDE90CA6A1
:10784C0081461746984600F045F890B1002D3460FB
:10785C00377109DB61198A450CBF06210121B17111
:10786C00002001B0BDE8F08F0235F9D10123B371CE
:10787C00F6E7544506D15946484600F02BF808B1B6
:10788C007771EDE7D9F808000368CDE90CA6CDE9CE
:10789C000A4BDC693A4643462946A44601B0BDE88A
:1078AC00F04F60472DE9F04107460C4615461E4641
:1078BC00FFF76DFF48B9B86803689F692A463346DD
:1078CC002146BC46BDE8F0416047BDE8F0817047F9
:1078DC0000207047814208B50ED0406803782A2BEF
:1078EC000CD049680B782A2B08BF0131FCF790FBB0
:1078FC00B0FA80F0400908BD0120FCE70020FAE74F
:10790C00002301461A46184600F082B810B501391A
:10791C000244904201D1002005E0037811F8014F98
:10792C00A34201D0181B10BD0130F2E70A4491426A
:10793C0000F1FF3300D1704710B511F8014B03F87B
:10794C00014F9142F9D110BD884210B501EB0204F0
:10795C0002D98442234607D8431EA14208D011F80D
:10796C00012B03F8012FF8E7024401468A4200D1AB
:10797C0010BD13F8014D02F8014DF7E70244034620
:10798C00934200D1704703F8011BF9E738B5104B4F
:10799C001D68AB6B0446B3B91820FCF7A7FE024672
:1079AC00A86320B90B4B0C484221FCF7BFFE0B49D6
:1079BC000B4BC0E900130B4B83600B23838100211D
:1079CC000120C2E90401AB6B00221C615A6138BD75
:1079DC0028E3032021800B0038800B000E33CDAB45
:1079EC0034126DE6ECDE0500034611F8012B03F8AA
:1079FC00012B002AF9D1704710B5024601448A4286
:107A0C00134603D01C780132002CF8D1181A10BD83
:107A1C002DE9F843DFF8B8800646D8F800001F4679
:107A2C000D46914600F056F8254B1C6834B9254C90
:107A3C001C60254B13B11B68C4F8883063681F2B7E
:107A4C0007DDD8F8000000F047F84FF0FF30BDE834
:107A5C00F8834EB3D4F8880088B91C4B23B9D8F8F6
:107A6C00000000F038F8F0E74FF48470FCF73EFEAD
:107A7C000028F4D00023C0E94033C4F888006368C0
:107A8C0040F8239001229A4000EB8301D0F800319A
:107A9C001343C0F80031022EC1F8807002BFD0F839
:107AAC0004311343C0F804316368D8F800005A1C41
:107ABC000233626044F8235000F00EF80020C6E751
:107ACC00E8E703205CE7032000000000F9460B0008
:107ADC008CE30320704770477047000000000000E3
:107AEC000000FB349B5F8000008000100000000051
:107AFC000000000041400B007D400B00A5400B0036
:107B0C00A9400B0000000000436F756E74203D20EF
:107B1C0025640036453430303030312D4235413318
:107B2C002D463339332D453041392D4535304532CD
:107B3C0034444343413945003645343030303032DB
:107B4C002D423541332D463339332D453041392DB6
:107B5C00453530453234444343413945003645348C
:107B6C0030303030332D423541332D463339332DBF
:107B7C00453041392D453530453234444343413944
:107B8C0045000000000000000000000059470B00F9
:107B9C0063470B006D470B0077470B0081470B00C9
:107BAC008D470B0099470B00A1470B00A9470B0011
:107BBC00B5470B00BD470B00C7470B00D1470B0067
:107BCC0000000000000000001B490B0011490B00D5
:107BDC0007490B00BD480B00FB480B00EF480B009E
:107BEC0099470B00A1470B00E3480B00DB480B0047
:107BFC00D1480B00C7480B00D1470B000000000018
:107C0C00000000000000000000000000ED490B0027
:107C1C00554A0B002B4A0B00A54D0B001D4A0B00BF
:107C2C00EF490B00FF490B004F4A0B000F4A0B00AA
:107C3C00E7490B000000000000000000014B0B00A6
:107C4C00F14A0B00F34A0B0025592D256D2D2564A7
:107C5C005425483A254D3A2553257A0061736374AF
:107C6C00696D650061707000417373657274696F42
:107C7C006E4661696C7572652066616C7365007720
:107C8C006972696E672E626C650053746172742040
:107C9C00646973636F766572696E6720736572765B
:107CAC00696365732E00417373657274696F6E46F8
:107CBC0061696C7572652068616C5F626C655F737D
:107CCC007461636B5F696E6974286E756C6C70742B
:107CDC007229203D3D2053595354454D5F45525216
:107CEC004F525F4E4F4E450050656572206465766D
:107CFC00696365206973206D697373696E67210010
:107D0C004661696C656420746F20616C6C6F636193
:107D1C007465206D656D6F727921004661696C65C3
:107D2C006420746F20617070656E6420706565727C
:107D3C002043656E7472616C206465766963652E90
:107D4C0000436F6E6E656374656400446973636FA2
:107D5C006E6E6563746564004661696C656420745D
:107D6C006F20617070656E6420646973636F7665F3
:107D7C0072656420736572766963652E0053746155
:107D8C00727420646973636F766572696E672063C1
:107D9C006861726163746572697374696373206F6F
:107DAC006620736572766963653A2025732E0043ED
:107DBC00616E6E6F7420616464206E6577207065EF
:107DCC006572206465766963652E004E6577207058
:107DDC0065726970686572616C20697320636F6E7F
:107DEC006E65637465642E004368617261637465CB
:107DFC0072697374696320646973636F7665726505
:107E0C00642E00446973636F7665726564206368E1
:107E1C006172616374657269737469632773206836
:107E2C00616E646C6520697320696E76616C69643F
:107E3C002E004661696C656420746F2061707065FA
:107E4C006E6420646973636F766572656420636821
:107E5C006172616374657269737469632E000000EA
:107E6C0000000000000000003D4E0B00A14E0B0076
:107E7C0017500B00CB4E0B00414E0B0000000000C6
:107E8C0000000000394E0B00AF4E0B003B4E0B00B8
:107E9C00D14E0B00614E0B000000000000000000F2
:107EAC00374E0B00BD4E0B00F55A0B00D74E0B0096
:107EBC00814E0B00000000000000000029730B0035
:107ECC0095730B006D730B00A54D0B003D730B00F0
:107EDC0059730B004B730B0067730B002B730B0068
:107EEC002F730B0000000000000000004F740B000B
:107EFC0045740B003B740B0031740B0025740B00A4
:107F0C0019740B0099470B00A1470B000D740B0063
:107F1C0005740B00FB730B00F1730B00D1470B00C6
:107F2C0000537431395F53705F6D616B655F7368BB
:107F3C00617265645F74616700000000887F0B00EC
:107F4C002D7F0B00E87F0B005C7F0B000C800B007F
:107F5C004E31305F5F637878616269763131375FBB
:107F6C005F636C6173735F747970655F696E666F64
:107F7C004500000000000000507F0B0035770B001F
:107F8C0049770B00DD780B00DD780B00B3770B0025
:107F9C00F5760B009B770B005D770B0027770B00BA
:107FAC00E87F0B00B87F0B00507F0B004E31305F29
:107FBC005F637878616269763132305F5F73695FD5
:107FCC00636C6173735F747970655F696E666F451E
:107FDC000000000000000000AC7F0B00DD770B0000
:107FEC00F1770B00DD780B00DD780B00B3770B001D
:107FFC00F5760B00B1780B003D780B0005780B0083
:10800C00887F0B0014800B00537439747970655F92
:10801C00696E666F005245454E54206D616C6C6FF5
:10802C006320737563636565646564002F6D6E749E
:10803C002F776F726B73706163652F776F726B73D1
:10804C00706163652F4743432D31302D7069706526
:10805C006C696E652F6A656E6B696E732D47434351
:10806C002D31302D706970656C696E652D34385FFB
:10807C0032303230313132345F31363036313830A3
:10808C003634312F7372632F6E65776C69622F6E85
:10809C0065776C69622F6C6962632F7374646C69A9
:1080AC00622F72616E642E6300000000AD420B0003
:1080BC00A9480B0025490B00514D0B005D4D0B00E1
:1080CC00954D0B0019730B00CD730B0059740B00FD
:1080DC00040000001400000003000000474E55008F
:1080EC00989C24CA10626147C08A46E108C0D6B287
:0480FC00C386197DA1
:10810000687C0B002CE3032000000000000000004E
:10811000000000000000000000000000000000005F
:10812000000000000000000000000000000000004F
:10813000000000000000000000000000000000003F
:10814000000000000000000000000000000000002F
:10815000000000000000000000000000000000001F
:0C8160000000000000000000ECE703201D
:04816C00000000000F
:1081760000000102030405060708090A0B0C0D0E90
:108186000F101112131415161718191A1B1C1D1E81
:048196001F2028007E
:04819A0078563412CD
:04000003B000401CED
:00000001FF
