:02000004085D95
:1060000000605D08FCFF5F0800000600200005013D
:0860100004015014000000001F
:106018000E480F4908B5884205D00E4A824202D080
:106028000D4B121A98470D480D4A00210D4B121AB4
:1060380098470D480D49884205D00D4A824202D042
:10604800054B121A9847014808BD00BFD0920710A7
:1060580068F65F08D09507102D0D1110D095071020
:10606800E8AF0710A10E1110206A3D0290605D088C
:0C607800F8FF3F0219605D080000000006
:086084001814E079010000008E
:086090007C605D0870B93F025D
:1060980081F0004102E000BF83F0004330B54FEAD1
:1060A80041044FEA430594EA050F08BF90EA020F3E
:1060B8001FBF54EA000C55EA020C7FEA645C7FEAD1
:1060C800655C00F0E2804FEA5454D4EB5555B8BFF4
:1060D8006D420CDD2C4480EA020281EA030382EA65
:1060E800000083EA010180EA020281EA0303362DF7
:1060F80088BF30BD11F0004F4FEA01314FF4801CCA
:106108004CEA113102D0404261EB410113F0004FDB
:106118004FEA03334CEA133302D0524263EB430392
:1061280094EA050F00F0A780A4F10104D5F1200E30
:106138000DDB02FA0EFC22FA05F2801841F100018B
:1061480003FA0EF2801843FA05F359410EE0A5F15F
:1061580020050EF1200E012A03FA0EFC28BF4CF090
:10616800020C43FA05F3C01851EBE37101F0004546
:1061780007D54FF0000EDCF1000C7EEB00006EEB53
:106188000101B1F5801F1BD3B1F5001F0CD34908DD
:106198005FEA30004FEA3C0C04F101044FEA445234
:1061A80012F5800F80F09A80BCF1004F08BF5FEABB
:1061B800500C50F1000041EB045141EA050130BD9B
:1061C8005FEA4C0C404141EB0101013C28BFB1F5AD
:1061D800801FE9D291F0000F04BF01460020B1FAF8
:1061E80081F308BF2033A3F10B03B3F120020CDACB
:1061F8000C3208DD02F1140CC2F10C0201FA0CF0A9
:1062080021FA02F10CE002F11402D8BFC2F1200C0D
:1062180001FA02F120FA0CFCDCBF41EA0C019040C3
:10622800E41AA2BF01EB0451294330BD6FEA04040C
:106238001F3C1CDA0C340EDC04F11404C4F12002F7
:1062480020FA04F001FA02F340EA030021FA04F309
:1062580045EA030130BDC4F10C04C4F1200220FA60
:1062680002F001FA04F340EA0300294630BD21FA9E
:1062780004F0294630BD94F0000F83F4801306BF64
:1062880081F480110134013D4EE77FEA645C18BF58
:106298007FEA655C29D094EA050F08BF90EA020FEF
:1062A80005D054EA000C04BF1946104630BD91EAE7
:1062B800030F1EBF0021002030BD5FEA545C05D1EA
:1062C8004000494128BF41F0004130BD14F5800429
:1062D8003CBF01F5801130BD01F0004545F0FE419D
:1062E80041F470014FF0000030BD7FEA645C1ABFD2
:1062F800194610467FEA655C1CBF0B46024650EA09
:10630800013406BF52EA033591EA030F41F4002134
:1063180030BD00BF90F0000F04BF0021704730B5BA
:106328004FF4806404F132044FF000054FF000018F
:1063380050E700BF90F0000F04BF0021704730B550
:106348004FF4806404F1320410F0004548BF404225
:106358004FF000013EE700BF42004FEAE2014FEA7A
:1063680031014FEA02701FBF12F07F4393F07F4F55
:1063780081F06051704732F07F4208BF704793F058
:106388007F4F04BF41F40021704730B54FF460746B
:1063980001F0004521F000411CE700BF50EA01026E
:1063A80008BF704730B54FF000050AE050EA010217
:1063B80008BF704730B511F0004502D5404261EB87
:1063C80041014FF4806404F132045FEA915C3FF4C8
:1063D800D8AE4FF003025FEADC0C18BF03325FEA65
:1063E800DC0C18BF033202EBDC02C2F1200300FA16
:1063F80003FC20FA02F001FA03FE40EA0E0021FA3B
:1064080002F11444BDE600BF70B54FF0FF0C4CF428
:10641800E06C1CEA11541DBF1CEA135594EA0C0FDA
:1064280095EA0C0F00F0DEF82C4481EA030621EA15
:106438004C5123EA4C5350EA013518BF52EA033550
:1064480041F4801143F4801338D0A0FB02CE4FF002
:106458000005E1FB02E506F00042E0FB03E54FF032
:106468000006E1FB03569CF0000F18BF4EF0010E2A
:10647800A4F1FF04B6F5007F64F5407404D25FEA26
:106488004E0E6D4146EB060642EAC62141EA5551D9
:106498004FEAC52040EA5E504FEACE2EB4F1FD0C1B
:1064A80088BFBCF5E06F1ED8BEF1004F08BF5FEA99
:1064B800500E50F1000041EB045170BD06F000464B
:1064C80046EA010140EA020081EA0301B4EB5C04F8
:1064D800C2BFD4EB0C0541EA045170BD41F48011F0
:1064E8004FF0000E013C00F3AB8014F1360FDEBF15
:1064F800002001F0004170BDC4F10004203C35DAF1
:106508000C341BDC04F11404C4F1200500FA05F373
:1065180020FA04F001FA05F240EA020001F0004214
:1065280021F0004110EBD37021FA04F642EB06018A
:106538005EEA430E08BF20EAD37070BDC4F10C04B4
:10654800C4F1200500FA04F320FA05F001FA04F278
:1065580040EA020001F0004110EBD37041F1000164
:106568005EEA430E08BF20EAD37070BDC4F120056F
:1065780000FA05F24EEA020E20FA04F301FA05F2D7
:1065880043EA020321FA04F001F0004121FA04F27F
:1065980020EA020000EBD3705EEA430E08BF20EA4F
:1065A800D37070BD94F0000F0FD101F00046400089
:1065B80041EB010111F4801F08BF013CF7D041EA0B
:1065C800060195F0000F18BF704703F0004652000F
:1065D80043EB030313F4801F08BF013DF7D043EAE0
:1065E8000603704794EA0C0F0CEA135518BF95EA96
:1065F8000C0F0CD050EA410618BF52EA4306D1D11D
:1066080081EA030101F000414FF0000070BD50EA3B
:10661800410606BF1046194652EA430619D094EAC5
:106628000C0F02D150EA013613D195EA0C0F05D1AF
:1066380052EA03361CBF104619460AD181EA030103
:1066480001F0004141F0FE4141F470014FF00000BB
:1066580070BD41F0FE4141F4780170BD70B54FF056
:10666800FF0C4CF4E06C1CEA11541DBF1CEA1355D6
:1066780094EA0C0F95EA0C0F00F0A7F8A4EB0504B8
:1066880081EA030E52EA03354FEA013100F08880AF
:106698004FEA03334FF0805545EA131343EA126378
:1066A8004FEA022245EA111545EA10654FEA00262D
:1066B8000EF000419D4208BF964244F1FD0404F5E6
:1066C800407402D25B084FEA3202B61A65EB030542
:1066D8005B084FEA32024FF480104FF4002CB6EBFF
:1066E800020E75EB030E22BFB61A754640EA0C007F
:1066F8005B084FEA3202B6EB020E75EB030E22BFBF
:10670800B61A754640EA5C005B084FEA3202B6EBFF
:10671800020E75EB030E22BFB61A754640EA9C00BE
:106728005B084FEA3202B6EB020E75EB030E22BF8E
:10673800B61A754640EADC0055EA060E18D04FEA4C
:10674800051545EA16754FEA06164FEAC30343EAEC
:1067580052734FEAC2025FEA1C1CC0D111F4801FB9
:106768000BD141EA00014FF000004FF0004CB6E7B2
:1067780011F4801F04BF01430020B4F1FD0C88BF51
:10678800BCF5E06F3FF6AFAEB5EB030C04BFB6EB5C
:10679800020C5FEA500C50F1000041EB045170BD4F
:1067A8000EF0004E4EEA113114EB5C04C2BFD4EB7C
:1067B8000C0541EA045170BD41F480114FF0000E00
:1067C800013C90E645EA060E8DE60CEA135594EA7C
:1067D8000C0F08BF95EA0C0F3FF43BAF94EA0C0F7F
:1067E8000AD150EA01347FF434AF95EA0C0F7FF4F4
:1067F80025AF104619462CE795EA0C0F06D152EA48
:1068080003353FF4FDAE1046194622E750EA41062B
:1068180018BF52EA43067FF4C5AE50EA41047FF43C
:106828000DAF52EA43057FF4EBAE12E74FF0FF3CA1
:1068380006E000BF4FF0010C02E000BF4FF0010C72
:106848004DF804CD4FEA410C7FEA6C5C4FEA430CEB
:1068580018BF7FEA6C5C1BD001B050EA410C0CBF3A
:1068680052EA430C91EA030F02BF90EA020F00209C
:10687800704710F1000F91EA030F58BF994208BF03
:1068880090422CBFD8176FEAE37040F001007047C0
:106898004FEA410C7FEA6C5C02D150EA013C07D117
:1068A8004FEA430C7FEA6C5CD6D152EA033CD3D062
:1068B8005DF8040B704700BF8446104662468C465C
:1068C8001946634600E000BF01B5FFF7B7FF00288F
:1068D80048BF10F1000F01BD4DF808EDFFF7F4FFB8
:1068E8000CBF012000205DF808FB00BF4DF808ED43
:1068F800FFF7EAFF34BF012000205DF808FB00BF66
:106908004DF808EDFFF7E0FF94BF012000205DF887
:1069180008FB00BF4DF808EDFFF7CEFF94BF01203C
:1069280000205DF808FB00BF4DF808EDFFF7C4FF35
:1069380034BF012000205DF808FB00BF4FEA410C7E
:106948007FEA6C5C02D150EA013C0AD14FEA430C61
:106958007FEA6C5C02D152EA033C02D14FF000009E
:1069680070474FF0010070474FEA410212F50012DC
:1069780015D211D56FF47873B3EB625212D94FEA7E
:10698800C12343F0004343EA505311F0004F23FA68
:1069980002F018BF404270474FF00000704750EABD
:1069A800013005D111F0004008BF6FF0004070477A
:1069B8004FF00000704700BF4A0011D212F50012D4
:1069C80011D20DD56FF47873B3EB62520ED44FEA3F
:1069D800C12343F0004343EA505323FA02F07047BF
:1069E8004FF00000704750EA013002D14FF0FF30FD
:1069F80070474FF0000070474FEA4102B2F1E043A0
:106A080024BFB3F5001CDCF1FE5C0DD901F0004C8D
:106A18004FEAC0024CEA5070B2F1004F40EB8300DD
:106A280008BF20F00100704711F0804F21D113F109
:106A38003872BCBF01F00040704741F480114FEA42
:106A48005252C2F11802C2F1200C10FA0CF320FACB
:106A580002F018BF40F001004FEAC1234FEAD323E8
:106A680003FA0CFC40EA0C0023FA02F34FEA430352
:106A7800CCE77FEA625307D150EA01331EBF4FF0DB
:106A8800FE4040F44000704701F0004040F0FE40F6
:106A980040F40000704700BF53B94AB9002908BF45
:106AA80000281CBF4FF0FF314FF0FF3000F0A0B9B5
:106AB800ADF1080C6DE904CE00F024F8DDF804E02F
:106AC800DDE9022304B07047D0B500220B4B06461F
:106AD8000F46FFF799FCFFF76FFF0446FFF71AFC14
:106AE8000022074BFFF790FC02460B46304639461A
:106AF800FFF7D2FAFFF760FF2146D0BD0000F03D56
:106B08000000F0412DE9F04F099D04460F46002B87
:106B180048D18A42944661D9B2FA82F343B1C3F1AB
:106B280020019F4002FA03FC9C4020FA01F10F4328
:106B38004FEA1C411FFA8CFE220CB7FBF1F601FB51
:106B4800167706FB0EF042EA0742904208D91CEB82
:106B5800020206F1FF3702D2904200F237813E4628
:106B6800121AA4B2B2FBF1F001FB102200FB0EFED8
:106B780044EA0244A64508D91CEB040400F1FF329C
:106B880002D2A64500F21C81104640EA0640A4EB5A
:106B98000E0400261DB1DC400023C5E90043314640
:106BA800BDE8F08F8B4209D9002D00F0FD8000264A
:106BB800C5E9000130463146BDE8F08FB3FA83F6E7
:106BC800002E4BD18B42C0F0F280824240F2EF801F
:106BD8003046002DE3D0C5E90047E0E702B9FFDE03
:106BE800B2FA82F3002B40F09D80891A4FEA124EC8
:106BF80097B20126200CB1FBFEF20EFB121140EAFF
:106C0800014107FB02F088420FD91CEB010102F198
:106C1800FF382CBF4FF001094FF00009884203D913
:106C2800B9F1000F00F0CF804246091AA4B2B1FBB7
:106C3800FEF00EFB101100FB07F744EA0144A742DF
:106C480008D91CEB040400F1FF3102D2A74200F27C
:106C5800B4800846E41B40EA02409BE7C6F12007DF
:106C6800B34001FA06F422FA07FCF940B2404CEAB4
:106C7800030C20FA07F34FEA1C491C431FFA8CFE49
:106C880000FA06F3200CB1FBF9F809FB181140EAE9
:106C9800014108FB0EF088420FD91CEB010108F1F5
:106CA800FF3A2CBF4FF0010B4FF0000B884203D97D
:106CB800BBF1000F00F08D80D046091AA4B2B1FBD9
:106CC800F9F009FB101100FB0EFE44EA01418E4564
:106CD80007D91CEB010100F1FF3401D28E457FD8A2
:106CE800204640EA0840A1EB0E01A0FB029841456E
:106CF8004C46C64602D306D14B4504D20138B9EBFF
:106D0800020468EB0C0E002D70D01A1B61EB0E010B
:106D180022FA06F301FA07F7F14000261F43C5E9F6
:106D280000713CE702FA03FCC3F1200001FA03F208
:106D380021FA00F64FEA1C4E24FA00F11FFA8CF7EC
:106D48009C401143B6FBFEF00A0C0EFB106642EAAB
:106D5800064200FB07F696420ED91CEB020200F130
:106D6800FF382CBF4FF001094FF00009964202D9B5
:106D7800B9F1000F31D04046921B89B2B2FBFEF642
:106D88000EFB162241EA024106FB07F28A4207D9A6
:106D98001CEB010106F1FF3801D28A4223D846468E
:106DA800891A46EA004625E72E462846F7E6841A59
:106DB80061EB030301201F460BE76444023849E7EF
:106DC80064440238E1E6023A61442EE7023E624436
:106DD800C6E6A8F1020861446FE702386244CBE7CF
:106DE800023861447DE7023E6144D9E72E46D6E683
:106DF800704700BF10F8012B11F8013B012A28BF8A
:106E08009A42F7D0D01A7047034613F8012B002A8C
:106E1800FBD1181A0138704738B500220023044600
:106E28000D46FFF763FD28B920462946BDE83840DE
:106E3800FFF74ABE204605F10041FFF745FE4042F4
:106E480061EB410138BD00BF70B501F09FFF00251F
:106E5800054E064CA41BA408AC4200D170BD56F8E0
:106E6800043B98470135F7E7C0FF3F02F8FF3F02B0
:106E780000F00EB908B500F0B7F9BDE8084001F018
:106E88003DBF01F0E3B901F0E1B901F0EDB901F05E
:106E9800EBB901F0E9B90000004870470ABC3F02AD
:106EA8000C2008B5024A034901F080F8FEE700BF4C
:106EB800F5873D0280B93F020078B0FA80F04009BA
:106EC8007047012303707047704770470122014BD8
:106ED8001A70704750960710436913B183690C30D4
:106EE8001847704713B500210446084600F012FE03
:106EF8000023204601A9019300F036FE019C0CB145
:106F0800012323710021012000F004FE2CB1236825
:106F180020469B6898470023237102B010BD0000EB
:106F2800002210B50446044B114640F8043B01F01A
:106F380083F8204610BD00BF78BA3F0210B504465A
:106F4800FFF7EEFF20462021FFF7A3FF204610BDE4
:106F5800012A02D1016000207047022A04BF0B6891
:106F68000360F8E70368184710B50446094B036047
:106F780002F0D6F8214602F01FFB01F0E3FD01F014
:106F8800D5FD2046044B40F8043B02F0B1F92046F9
:106F980010BD00BF8CBA3F0260BA3F0210B504466C
:106FA800FFF7E2FF20462421FFF773FF204610BDBC
:106FB80010B58368044613B103220146984720465A
:106FC80010BD000037B5134B044603608068C8B194
:106FD80000256FF000430221CDE900352A462B46F3
:106FE80000F0D0FD2946A06800F012FE237903F0D6
:106FF800FF0513B100F080FDF8E72946A06800F00E
:10700800A5FDA56004F10C00FFF7D2FF204603B0F0
:1070180030BD00BF4CBA3F0210B50446FFF7D2FF9F
:1070280020461C21FFF735FF204610BD0EB44FF057
:10703800200C002300B58CB00DAA52F8041BCDE932
:1070480004C3CDE900120392016804AA1E2000F0CF
:10705800C9FF0CB05DF804EB03B0704708B50378BE
:10706800064A012B137008D10023054A05491370FD
:10707800054A06481370FFF7D9FF08BD9C9607100C
:10708800D495071095B93F02589607102097071016
:1070980070B590B001F056FD4FF4165101F042FD65
:1070A80003F096FA03F0DEFA03F092FA404A01463A
:1070B8000BA804F003F80BA803F079FB03F088FA97
:1070C8003C4A01460BA803F0F9FF3B4C0BA803F020
:1070D8006EFB06AD03A803F06EFC0FCC0FC5266847
:1070E80006AD0BAC0FCD0FC40BA8266003F07CF8DF
:1070F80004460BA8002C52D103F092F80223032176
:10710800ADF80A0000940DF10A0203A803F048FC48
:1071180003F05EFA002203A903F0F5FA00222749DA
:10712800244803F055FE264B0821188804F080FBFC
:10713800244B0821188804F07BFB234B082118886E
:1071480004F076FB214B0821188804F071FB204BD2
:107158000121188804F06CFB1E4B1F4C1888032172
:1071680004F066FBA06830B1002302211A46CDE97D
:10717800003300F007FDA06840B100236FF0004223
:107188001946CDE900231A4600F0FCFC13491448BF
:10719800FFF74CFF039801F067F810B070BD03F0DB
:1071A80041F800230246009307211023ADE700BFF2
:1071B800C8960710A0960710FC950710F5793D02B0
:1071C800E8920710EC920710F0920710F49207105B
:1071D800F8920710E0920710AC960710ABB93F027F
:1071E80020970710000000002DE9F04186B003F059
:1071F800EFF903F047FA904E904D914C002837D0A4
:1072080040F6B7328F4F3B8801339BB293423B80A5
:1072180005D98D498D48FFF709FF00233B800727D3
:1072280033680DF10B0801932B88ADF808302378EB
:107238008DF80A3001F086FC03681B69984788B10D
:10724800142F0FD001F07EFC036801375B69984763
:1072580088F8000001F076FC036818F8011B9B68A9
:107268009847E7E700233A46794801A903F096F8DA
:10727800784B188804F019FB774BC728186040F33F
:10728800A080C838FFF756F863A3D3E90023FFF7B7
:10729800E5F9FFF769FB0146704B1960704B1888D8
:1072A80004F015FB6F4B188804F0FFFA6E4B28802A
:1072B800188804F0FAFA6D4B1860FFF73BF858A3EA
:1072C800D3E90023FFF7A0F80022694BFFF79CF8E9
:1072D80055A3D3E90023FFF797F855A3D3E9002373
:1072E800FEF7DCFEFFF788FBDFED627A07EE100A97
:1072F800614B77EE277AD3ED006A77EEA67A77EEC0
:10730800A67A77EEA67A052277EEA67AC3ED016A09
:10731800C3ED026AC3ED036AC3ED046AF1EE046AC1
:107328001860564B87EEA67A1A60554B86ED007AA0
:10733800C3ED007AF3EE047AB4EE677AF1EE10FA50
:107348002B8840DDB3F5FA6F02D900224D4B1A7035
:10735800052004F097FA4C4B4C4A18601368002B30
:1073680037DC012807D12378B3FA83F35B0923704C
:107378004FF47A7313602278454E511E4B42454DA7
:107388004B41324844493370FFF750FE2B78002BAD
:107398003DD0424C31782368B3FA83F35B0923600C
:1073A800C9B1012922D0374B1978012924D00229E3
:1073B80030D051BB21783A4B188804F04AFA0121A1
:1073C8001FE0002168E7B3F5FA6FC1D901222D4B00
:1073D800BDE7013BCEE71946324B188804F039FA6D
:1073E8000121314B188804F034FADCE72D4B18885A
:1073F80004F02FFA2178F4E7294B188804F029FAC9
:1074080021782A4B188804F024FA00232B7006B040
:10741800BDE8F0810121CEE775931804568E2E4001
:107428006666666666C669C06666666666660A40B9
:107438007B14AE47E1967D4090960710949607100E
:10744800D495071044960710B8B93F022097071043
:10745800C8960710DC920710989607104C960710EC
:10746800F8920710D4920710D89207104096071088
:107478000000303F000000007C960710549607106B
:10748800A8960710E4920710E09207104896071094
:107498005896071050960710CAB93F023C96071035
:1074A800F0920710E8920710EC920710F492071078
:1074B80070B51426D0E90053044606FB0356AE42C5
:1074C80004D0284603F0C4FF1435F8E7206800F01C
:1074D800CBFE204670BD8842F8B504460D461646D8
:1074E80016D9904215D2A2F11406751AA1F1140703
:1074F8002C44B7421CD02CB13146204604F024F865
:10750800337C2374304603F0A3FF143E143CF0E7A9
:107518000ED0B5420CD02CB12946204604F014F800
:107528002B7C2374284603F093FF14351434F0E7BA
:10753800F8BD00232DE9F041C0E9003383604F68AE
:1075480004469F420E4624DD4FF0140808FB07F05E
:1075580000F07CFE0546E0B1D4E9001208FB0212F7
:10756800FFF7B9FF206800F07FFE2560A760D6E925
:10757800007308FB0378B84509D03946284603F05C
:10758800FDFF3B7C143505F8043C1437F3E77368BA
:1075980063602046BDE8F0812DE9F04F002499B0E2
:1075A8007A4804F0F9F9CDE90444069401F0CAFADE
:1075B800774F8046B9460EAE04A909A8FFF7B9FF70
:1075C80009A93046FFF7B5FF724B13AD49F8043BE4
:1075D80031462846FFF7ADFF2A461E21484602F0ED
:1075E800CDF82846FFF764FF3046FFF761FF6A4B86
:1075F800C7F820803B6009A8FFF75AFF674BDFF800
:10760800D8813B6001F09EFA4FF4165101F08AFAD6
:1076180001F086FD3946624F01F088FF04A8FFF7A4
:1076280047FFDFF8B89138465E4902F07BFE4046D6
:107638005D4902F077FE48465C4902F073FECC468D
:10764800B946BCE80F000DF1100EDCF800B00DF1E2
:10765800240CAEE80F00B9E80F00ACE80F00D9F829
:107668000030CEF800B0CCF80030B4460DF1100E62
:10767800BEE80F00ACE80F00CCF800B0AC46DFF86D
:1076880060A10DF1240ECAE90044BEE80F00ACE881
:107698000F00D9F800305046CCF800304FF01002F7
:1076A8003346CDE901444249009503F0DDFBB8E8D3
:1076B8000F000DF1100CACE80F000FCFD8F800E068
:1076C800D9F80080CCF800E00DF1240CACE80F00EC
:1076D800CCF80080B44604AF0FCFACE80F00CCF86C
:1076E80000E0AC46DFF8FC9009AFC9E900440FCFD1
:1076F800ACE80F002F4BCCF800804846CDE900538A
:107708004FF0040233462C49029403F0ADFB2246A5
:107718001421012000F070FD01271E220346CDE947
:1077280000276FF07F413A46244800F059FE244B69
:10773800244A139395E80300234B86E803001A6054
:1077480003F10C0292E8030085E8030096E80300C1
:1077580082E803001D4A1C715A619A699C6016925E
:107768001B4AFA219A6103F108001A4ACDE900443C
:10777800159400F0DDF92846FFF71AFC2146384633
:1077880019B0BDE8F04F00F029BD00BF38960710CA
:10779800D895071060BA3F0240BC3F028CBA3F023E
:1077A800FC950710CDB93F02F2B93F0217BA3F0264
:1077B8003CBA3F02F5793D023FBA3F025C9607109A
:1077C80065783D024CBA3F02AC960710E9783D0255
:1077D800FD783D027D783D0210960710249607102B
:1077E800C8960710A096071009B504480068044B0E
:1077F80003441B681B68029309BD0000D092071060
:107808003400000009B504480068044B03441B68B1
:107818005B68029309BD0000D09207103400000095
:1078280009B504480068044B03441B689B6802932D
:1078380009BD0000D09207103400000009B50448C3
:107848000068044B03441B681B69029309BD0000D0
:10785800D09207103400000009B504480068044BB2
:1078680003441B685B69029309BD0000D0920710AE
:107878003400000009B504480068044B03441B6841
:107888009B69029309BD0000D092071034000000E4
:1078980009B504480068044B03441B68DB6902937C
:1078A80009BD0000D09207103400000009B5044853
:1078B8000068044B03441B681B6A029309BD00005F
:1078C800D09207103400000009B504480068044B42
:1078D80003441B68DB69029309BD0000D0920710BE
:1078E8001800000009B504480068044B03441B68ED
:1078F8001B6A029309BD0000D0920710180000000F
:1079080009B504480068044B03441B681B6A0293CA
:1079180009BD0000D09207101000000009B5044806
:107928000068044B03441B685B6A029309BD0000AE
:10793800D09207101000000009B504480068044BF5
:1079480003441B689B6A029309BD0000D09207108C
:107958001000000009B504480068044B03441B6884
:10796800DB6A029309BD0000D092071010000000E6
:1079780009B504480068044B03441B681B6B029359
:1079880009BD0000D09207101000000009B5044896
:107998000068044B03441B685B6B029309BD00003D
:1079A800D09207101000000009B504480068044B85
:1079B80003441B681B6C029309BD0000D09207109A
:1079C8001000000009B504480068044B03441B6814
:1079D8009B68029309BD0000D092071024000000A4
:1079E80009B504480068044B03441B68DB6802932C
:1079F80009BD0000D09207102400000009B5044812
:107A08000068044B03441B681B69029309BD00000E
:107A1800D09207102400000009B504480068044B00
:107A280003441B685B69029309BD0000D0920710EC
:107A38002400000009B504480068044B03441B688F
:107A48009B69029309BD0000D09207102400000032
:107A580009B504480068044B03441B68DB690293BA
:107A680009BD0000D09207102400000009B50448A1
:107A78000068044B03441B681B6A029309BD00009D
:107A8800D09207102400000009B504480068044B90
:107A980003441B689B6A029309BD0000D09207103B
:107AA8002400000009B504480068044B03441B681F
:107AB800DB6A029309BD0000D09207102400000081
:107AC80009B504480068044B03441B681B6C029307
:107AD80009BD0000D09207102400000009B5044831
:107AE8000068044B03441B685B69029309BD0000EE
:107AF800D09207104C00000009B504480068044BF8
:107B080003441B68DB68029309BD0000D09207108C
:107B18003000000009B504480068044B03441B68A2
:107B2800DB69029309BD0000D09207103000000005
:107B380009B504480068044B03441B681B6A029398
:107B480009BD0000D09207103000000009B50448B4
:107B58000068044B03441B685B6A029309BD00007C
:107B6800D09207103000000009B504480068044BA3
:107B780003441B689B6A029309BD0000D09207105A
:107B88003000000009B504480068044B03441B6832
:107B9800DB6A029309BD0000D09207103000000094
:107BA80009B504480068044B03441B685B6C0293E6
:107BB80009BD0000D09207103000000009B5044844
:107BC8000068044B03441B689B6C029309BD0000CA
:107BD800D09207103000000009B504480068044B33
:107BE80003441B68DB6C029309BD0000D0920710A8
:107BF8003000000009B504480068044B03441B68C2
:107C08005B6D029309BD0000D092071030000000A0
:107C180009B504480068044B03441B681B6F0293B2
:107C280009BD0000D09207103000000009B50448D3
:107C38000068044B03441B689B68029309BD00005D
:107C4800D09207106000000009B504480068044B92
:107C580003441B681B6D029309BD0000D0920710F6
:107C68006000000009B504480068044B03441B6821
:107C78009B6D029309BD0000D092071060000000C0
:107C880009B504480068044B03441B681B6E029343
:107C980009BD0000D09207106000000009B5044833
:107CA8000068044B03441B68D3F89830029309BD5D
:107CB800D09207106000000009B504480068044B22
:107CC80003441B68D3F8A830029309BDD09207106B
:107CD8006000000009B504480068044B03441B68B1
:107CE800D3F8B430029309BDD092071060000000A9
:107CF80009B504480068044B03441B68D3F8D8301E
:107D0800029309BDD09207106000000009B504482D
:107D18000068044B03441B68D3F8DC30029309BDA8
:107D2800D09207106000000009B504480068044BB1
:107D380003441B68D3F8EC30029309BDD0920710B6
:107D48006000000009B504480068044B03441B6840
:107D5800D3F8F030029309BDD092071060000000FC
:107D680009B504480068044B03441B68D3F8003184
:107D7800029309BDD09207106000000009B50448BD
:107D88000068044B03441B68D3F80431029309BD0F
:107D9800D09207106000000009B504480068044B41
:107DA80003441B685B68029309BD0000D09207106A
:107DB8006400000009B504480068044B03441B68CC
:107DC8009B68029309BD0000D09207106400000070
:107DD80009B504480068044B03441B68DB68029338
:107DE80009BD0000D09207106400000009B50448DE
:107DF8000068044B03441B685B69029309BD0000DB
:107E0800D09207106400000009B504480068044BCC
:107E180003441B68DB69029309BD0000D092071078
:107E28006400000009B504480068044B03441B685B
:107E38001B6A029309BD0000D0920710640000007D
:107E480009B504480068044B03441B685B68029347
:107E580009BD0000D09207100000000009B50448D1
:107E68000068044B03441B68DB68029309BD0000EB
:107E7800D09207100000000009B504480068044BC0
:107E880003441B685B69029309BD0000D092071088
:107E98000000000009B504480068044B03441B684F
:107EA8005B68029309BD0000D0920710140000001F
:107EB80009B504480068044B03441B689B68029397
:107EC80009BD0000D09207101400000009B504484D
:107ED8000068044B03441B68DB68029309BD00007B
:107EE800D09207101400000009B504480068044B3C
:107EF80003441B681B69029309BD0000D092071058
:107F08001400000009B504480068044B03441B68CA
:107F18005B69029309BD0000D092071014000000AD
:107F280009B504480068044B03441B689B6A029324
:107F380009BD0000D09207101400000009B50448DC
:107F48000068044B03441B681B6B029309BD0000C7
:107F5800D09207101400000009B504480068044BCB
:107F680003441B689B6F029309BD0000D092071061
:107F78001400000009B504480068044B03441B685A
:107F88009B68029309BD0000D092071050000000C2
:107F980009B504480068044B03441B68DB68029376
:107FA80009BD0000D09207105000000009B5044830
:107FB8000068044B03441B685B6B029309BD000017
:107FC800D09207104800000009B504480068044B27
:107FD80003441B681B6D029309BD0000D092071073
:107FE8004800000009B504480068044B03441B68B6
:107FF8005B6D029309BD0000D09207104800000095
:1080080009B504480068044B03441B68DB6E0293FF
:1080180009BD0000D09207104800000009B50448C7
:108028000068044B03441B681B6F029309BD0000E2
:10803800D09207104800000009B504480068044BB6
:1080480003441B68D3F88030029309BDD09207100F
:108058004800000009B504480068044B03441B6845
:10806800DB6B029309BD0000D09207102C000000C2
:1080780009B504480068044B03441B685B68029315
:1080880009BD0000D09207102800000009B5044877
:108098000068044B03441B689B68029309BD0000F9
:1080A800D09207102800000009B504480068044B66
:1080B80003441B68DB68029309BD0000D0920710D7
:1080C8002800000009B504480068044B03441B68F5
:1080D8001B69029309BD0000D09207102800000018
:1080E80009B504480068044B03441B685B690293A4
:1080F80009BD0000D09207102800000009B5044807
:108108000068044B03441B689B69029309BD000087
:10811800D09207102800000009B504480068044BF5
:1081280003441B68DB69029309BD0000D092071065
:108138002800000009B504480068044B03441B6884
:108148001B6A029309BD0000D092071028000000A6
:1081580009B504480068044B03441B681B6B029371
:1081680009BD0000D09207102800000009B5044896
:108178000068044B03441B685B6B029309BD000055
:10818800D09207102800000009B504480068044B85
:1081980003441B681B6C029309BD0000D0920710B2
:1081A8002800000009B504480068044B03441B6814
:1081B8005B6C029309BD0000D092071028000000F4
:1081C80009B504480068044B03441B685B680293C4
:1081D80009BD0000D09207100800000009B5044846
:1081E8000068044B03441B68DB6A029309BD000066
:1081F800D09207100800000009B504480068044B35
:1082080003441B68DB6F029309BD0000D09207107E
:108218000800000009B504480068044B03441B68C3
:10822800D3F88830029309BDD092071008000000E7
:1082380009B504480068044B03441B68D3F894301C
:10824800029309BDD09207100800000009B5044840
:108258000068044B03441B681B68029309BD0000B7
:10826800D09207100400000009B504480068044BC8
:1082780003441B685B68029309BD0000D092071095
:108288000400000009B504480068044B03441B6857
:108298009B68029309BD0000D092071004000000FB
:1082A80009B504480068044B03441B685B690293E2
:1082B80009BD0000D09207100400000009B5044869
:1082C8000068044B03441B689B69029309BD0000C6
:1082D800D09207100400000009B504480068044B58
:1082E80003441B685B6A029309BD0000D092071023
:1082F8000400000009B504480068044B03441B68E7
:10830800DB6A029309BD0000D09207100400000048
:1083180009B504480068044B03441B681B6B0293AF
:1083280009BD0000D09207100400000009B50448F8
:108338000068044B03441B685B6B029309BD000093
:10834800D09207100400000009B504480068044BE7
:1083580003441B689B6B029309BD0000D092071071
:108368000400000009B504480068044B03441B6876
:10837800DB6B029309BD0000D092071004000000D7
:1083880009B504480068044B03441B681B6C02933E
:1083980009BD0000D09207100400000009B5044888
:1083A8000068044B03441B685B6C029309BD000022
:1083B800D09207100400000009B504480068044B77
:1083C80003441B689B6C029309BD0000D092071000
:1083D800040000000B460A680146926818461047D8
:1083E80070B50E4C002504601C24C0E901459DF8B9
:1083F80014409DF8106004F0030444EA8604E4B2D3
:108408000474427485744161427CC5600F2A0ABFB6
:10841800034B0383C0E9063070BD00BF78BA3F0242
:108428006D8D3D02002340681A46FFF721BE0022E9
:1084380002214068FFF738BE002240681146FFF766
:1084480025BE002240681146FFF73CBE0023406865
:108458001A461946FFF744BE002340681A461946D3
:10846800FFF74CBE00214068FFF78EBE0021406830
:10847800FFF798BE0022406881F00101FFF74CBE6B
:1084880000224068FFF764BE002240681146FFF7EB
:108498006DBE002240681146FFF74CBE2DE9F0433F
:1084A80095B014460D46074600F0AAFB00211C2291
:1084B8000DA800911DF0ADF8402320460C93002133
:1084C8006B460CAAFFF764FD044600284BD1024610
:1084D80001216868FFF7F6FD022180462246686898
:1084E800FFF7F0FD21468146009E002E3BD0002973
:1084F80039D17368022B03D00A2B11D0F669F4E73F
:10850800B8F1000FFAD0716906A804313C1D07AD17
:1085180000F0A4FB0FCD0FC42B6841462370EDE794
:10852800B9F1000FEAD0102201A874691DF071F8A2
:10853800062301AD8DF8143004F1080318342A46D7
:1085480018685968083303C2A3421546F7D101A930
:1085580006A83C1D07AD00F061FB0FCD0FC42B68CA
:1085680049462370CAE70098FFF704FD384615B05E
:10857800BDE8F083024B034A1A6000225A60704734
:10858800D0960710A4BA3F02002240681146FFF7B0
:1085980099BD002240681146FFF7CCBD0022406813
:1085A8001146FFF7E3BD00224068FFF7D1BD002266
:1085B800406881F00101FFF7AFBD002340681A460B
:1085C8001946FFF79BBD002340681A461946FFF776
:1085D80087BD002240681146FFF758BD00220221DE
:1085E8004068FFF761BD002340681A46FFF740BDA9
:1085F8000422024B5A60024A1A607047D896071044
:10860800E0BA3F027047F8B5064615460C468F1883
:10861800BC4206D0336830469B6814F8011B984763
:10862800F6E72846F8BD0022007CFFF769B900216B
:10863800007CFFF773B90021007CFFF77DB90021AA
:10864800007CFFF787B90021007CFFF791B910B5CE
:1086580004461421FEF71DFC204610BD38B504461B
:1086680015464FF47A730022C4E90123094B0846E2
:10867800217423602946FFF797F9BF3008D16B6949
:10868800DB0705D56868FFF7EFFDE868FFF7ECFD45
:10869800204638BD24BB3F02012200F1100313F825
:1086A800101C1846012908D153F8041C02EB41029A
:1086B800013A03F11003F2D17047022904BF53F8BD
:1086C800041C5218F4E70EB4F0B588B0102100AFBE
:1086D80007F1340555F8042B04462B4678187A60C0
:1086E800FD60FFF7F9FD0F287A681AD900F1080331
:1086F80023F007036E46ADEB030D411C2B4668467D
:10870800FD60FFF7E9FD021E04DD23686946204687
:108718009B689847B5462037BD46BDE8F04003B092
:1087280070470028F7D0236802469B68204607F167
:1087380010019847EFE710B543680446013B4360D2
:1087480063B903689B689847A368013BA3602BB98A
:1087580023682046BDE81040DB68184710BD38B5CF
:108768000B68044603604D6843689D4208D015B104
:108778006B6801336B60606808B1FFF7DCFF656008
:1087880038BD07B503688DF8071001229B680DF105
:108798000701984703B05DF804FB0B461146002219
:1087A80010B50446C0E9002283600BB9204610BD0D
:1087B800FFF7D5FFFAE78368EBB11A78032A1AD8CE
:1087C800DFE802F00417021B0520704702685B68A7
:1087D8005268D05C2D2812D0A0F13003092B0ED995
:1087E80074280ED066280CD0A0F16E035842584168
:1087F8007047062070470020704704207047032008
:1088080070470220704710B50446FFF7D4FF0228CE
:108818000ED0C31EDBB2012B14D82268A36850689F
:108828005B680A22BDE81040002118441DF0DCBF37
:108838002268A36852685B68D05CA0F17403584250
:10884800584110BD0020FCE738B500230446C0E9B4
:1088580000330E48C4E90203A9B10B78032B06D0F4
:108868008BB9136858684B68C35C6E2B07D01368C4
:108878004D6858688B6828445B1BA060E36011460C
:108888002046FFF76CFF204638BD00BF0ABC3F02F8
:1088980038B500250B4604461146C0E90055C0E925
:1088A8000255C0E904554BB11A78012A06D103F1E3
:1088B8001002DB6882604361FFF751FF204638BD34
:1088C80010B54369044663B18068013BE06010302D
:1088D800A0602061636113B1FFF7DEFEA060012094
:1088E80000E0184610BD10B57D210446FFF749FF8A
:1088F80001232046237110BD08B50379012B02D04E
:10890800022B04D008BD2C21FFF73BFFFAE73A21E0
:10891800FAE710B50446FFF7EFFF20467B21FFF783
:1089280030FF00232046237110BD000013B5044614
:108938000191FFF7E1FF23682046DB68019A0349AC
:10894800984701232046237102B010BDCAB93F02DF
:1089580013B504460191FFF7CFFF23682046DB6873
:10896800019A0349984701232046237102B010BD9C
:1089780044BB3F022DE9F0470D46904622210446AC
:108988002F46FFF7FEFEDFF8A490A8444745BA46F5
:108998003DD017F8016B222E06D05C2E04D030464D
:1089A8001CF080FC0028F1D12368294620469B68EA
:1089B800AAEB050298475C212046FFF7E2FE0D2E40
:1089C8000AD8072E1CD9A6F10803052B18D8DFE80A
:1089D80003F00D0F11171315222E01D05C2E0FD1A5
:1089E80031462046FFF7CDFE3D46CFE76221F8E746
:1089F8007421F6E76E21F4E76621F2E77221F0E7C9
:108A08002368324649462046DB689847ECE7BD4272
:108A180005D02368294620469B687A1B984722215F
:108A28002046FFF7AEFEBDE8F08700BF47BB3F0218
:108A380013B50446CDE90021FFF75EFFDDE900210B
:108A48002046FFF797FF02232046237102B010BD8E
:108A580013B50446CDE90021FFF74EFFDDE90021FB
:108A68002046FFF787FF01232046237102B010BD7F
:108A780010B50446006808B1FFF75DFE204610BD3A
:108A8800417470477047704708B50021007CFEF7B5
:108A9800F1FE40EAE07008BD08B50121007CFEF750
:108AA800E9FE40EAE07008BD08B5007CFEF7D4FE98
:108AB80020EAE07008BD08B5007CFEF7BFFE20EA9A
:108AC800E07008BD13B50446007C0191FEF7C4FEB2
:108AD8000028019901DC607C20B1207CFEF7D8FEDB
:108AE80020EAE07002B010BD007CFEF7DFBE10B5D2
:108AF80004461421FEF7CDF9204610BD10B54FF4F9
:108B08007A73044608460021C4E90113044B207413
:108B18002360012311466374FEF766FE204610BDEC
:108B280058BB3F020022007CFEF76CBE007CFEF7BB
:108B380077BE10B50446142200211CF06AFD2046B9
:108B480010BD000010B588B003A8FFF7F2FF0C4C69
:108B5800D4E88F1F11F001010FD120460191FEF7D3
:108B6800ABF9019948B103AA0648FFF7C7FF2046A9
:108B7800FEF7A7F904481BF0FCFE024808B010BD38
:108B8800E0960710E49607101D943D02704710B553
:108B980004461821FEF77DF9204610BDF0B5037D87
:108BA8000E46062B4FF000048DB000F1040712D0DA
:108BB80000F1080515F8011D0A22304601F021F9D7
:108BC800AF42044419D0002CF4D02E21304601F0D5
:108BD80015F90444EEE72F236A4639460A208DF832
:108BE8000040FEF77BFF6846FEF70EF93368024641
:108BF80069463046DB689847044620460DB0F0BD0C
:108C080010B50446044B1122002140F8043B1CF027
:108C180000FD204610BD00BF88BB3F020346074A3F
:108C280010B543F8042B01F1100251F8044B91429E
:108C380043F8044BF9D10A781A7010BD88BB3F027B
:108C480010B59DF8084044EA032343EA024204238E
:108C580042EA01614160037510BD000007B5064B8B
:108C68000360CB7800938B784A780978FFF7E8FFA0
:108C780003B05DF804FB00BF88BB3F0213B56C4628
:108C88000B460246D0E9000184E8030093E803009C
:108C980082E8030094E8030083E8030002B010BDF3
:108CA800014B1860704700BF9093071008B50F4B31
:108CB80043B1FFF747FF03681B699847002801DDA8
:108CC80000E000BF0A4B43B102F0E4FC03681B69F3
:108CD8009847002801DD00E000BF064B0BB102F009
:108CE8001FFD054B0BB102F051FD08BD000000004F
:108CF80000000000000000000000000008B5FFF7B9
:108D0800D5FFFFF7B9F8014B186008BD8C9707101D
:108D18000548064A08B5121A05491CF053FC054BCC
:108D2800054A1A6008BD00BF00B4071004B4071054
:108D380068F95F0800B407101E1C279A002307B5BE
:108D48001A466FF077010093FFF772FA03B05DF8E7
:108D580004FB000007B543880A2B08D0502B0BD121
:108D6800094B1B684BB103B05DF804EB1847FFF7DC
:108D7800E5FF03B05DF804FB00231A466FF07701A6
:108D88000093FFF755FAF4E7FC960710002110B599
:108D98001148FFF703FB114B1A68114B9A420CBF9D
:108DA800012200220F4B1A7001D0FFF7B1FFFFF725
:108DB80047F804461CF088FC0B4B13B1204600E032
:108DC80000BF00210848FFF745F9BDE81040002121
:108DD8000648FFF71FBA00BF39963D0200B40710D6
:108DE8001E1C279AF896071000000000ED963D0219
:108DF8000022014B9A60704700970710024B1A68CF
:108E0800024B1A60704700BFFC92071010970710BA
:108E180080680368DB6818477047084611B10B681B
:108E28005B6818477047704770477047704738B598
:108E380004460D4600682E211CF084FD2368C31AE1
:108E48002B6023B1037803B10130236820601846F2
:108E580038BD10B504460C21FEF71BF8204610BD9E
:108E680010B504460421FEF714F8204610BD10B5CD
:108E780004460421FEF70DF8204610BDFEF7ACBEEF
:108E880008B5FDF7B7FFB0FA80F0400908BD704794
:108E980010B50C46FFF756FE844205D1FFF752FE87
:108EA800BDE81040FFF742BE02F0F4FB844205D152
:108EB80002F0F0FBBDE8104002F069BA2CB123685B
:108EC8002046BDE810405B68184710BD0B6803607A
:108ED8004B68436013B15A6801325A60704713B542
:108EE800044608460191FDF78FFF02462046019986
:108EF80002B0BDE81040FFF7ABBD13B50446084605
:108F08000191FDF781FF0246204623680199DB683D
:108F180002B0BDE81040184707B503688DF8071080
:108F28000122DB680DF10701984703B05DF804FBE7
:108F38000A6810B502604A6842600022C0E902224D
:108F480002618C688A608460CC68CA60C4600C69FD
:108F58000A61046110BD00002DE9F74F4FF0140AB3
:108F6800D0E90084174645460AFB04F40093174BE2
:108F7800A4105C43002C21DD66100AFB06F005EB0B
:108F88000009B9F804B03A465F4528BF5A46285840
:108F980001911CF0EBFC00284FF0010301990BD163
:108FA8005F4503D1009A13703446E3E7FCD9A61B4A
:108FB80009F11405013EF7E7F9DBF5E7A5EB08052C
:108FC8000248AD10684303B0BDE8F08FCDCCCCCCDF
:108FD8007FB50369057E019103B3F9B1002600F15D
:108FE8000C04039603A901A8FFF721FF0146A8B1C5
:108FF8000DF10B032046039A8DF80B60FFF7ACFFC9
:109008009DF80B3053B12368142404FB0034B4F9E1
:1090180006300834002BA8BFDDB2E3E7284604B0C9
:1090280070BD0EB4F0B58CB000AF07F1440555F82B
:10903800042B04462B46202107F110007A60FD60BE
:10904800FFF74AF91F287A681AD900F1080323F0B4
:1090580007036E46ADEB030D411C2B466846FD60C9
:10906800FFF73AF9021E04DD236869462046DB68EB
:109078009847B5463037BD46BDE8F04003B0704765
:109088000028F7D023680246DB68204607F1100164
:109098009847EFE710B5084CD4E88F3FDB0709D4B1
:1090A8002046FDF709FF28B12046FDF70AFF0348CF
:1090B8001BF05FFC024810BD18970710BF973D02D0
:1090C8000093071010B5084CD4E88F3FDB0709D48C
:1090D8002046FDF7F1FE28B12046FDF7F2FE0348D1
:1090E8001BF047FC024810BD1C97071027983D024B
:1090F8000493071038B500250446C0E90055C0E9B7
:1091080004558560856140F8245FFEF749FDFFF747
:10911800C1FFE061FFF7D6FF25732062204638BD06
:1091280010B50A4CD4E88F3FDB070CD42046FDF776
:10913800C3FE40B10648FFF7DDFF2046FDF7C1FE3C
:1091480004481BF016FC024810BD00BF1497071016
:10915800249707102DA03D020023024A0249034824
:10916800FEF75CBF159E3D02A19D3D02219D3D027B
:1091780000231A4619461846FEF750BF37B504466D
:109188008D686846FFF7A2FE6A4629462046FFF723
:109198007FFB01A8FFF76CFC204603B030BD37B554
:1091A8000446CD686846FFF791FE6A462946204680
:1091B800FFF74AFB01A8FFF75BFC204603B030BD70
:1091C80037B504460D696846FFF780FE6A462946AA
:1091D8002046FFF7E2FA01A8FFF74AFC204603B051
:1091E80030BD000070B58AB00D46014604A8FFF7EF
:1091F800C5FF144E04A8FFF763FBE8B1684604A94D
:10920800FFF7CDFF31460298FFF73AFE044610B14A
:109218002C1E18BF012401A8FFF72AFC002CE9D056
:10922800684604A9FFF7CCFF6846FFF7ECFA286008
:1092380001A8FFF71DFCDDE705A8FFF719FC0AB038
:1092480070BD00BFB0BB3F0237B50C46134920467E
:109258001546FDF7CFFD50B9FFF774FC4FF41651D2
:10926800FFF760FC03B0BDE83040FFF76BBC204659
:109278000B49FDF7BFFD78B94FF4165301A92846ED
:109288000193FFF7AFFF02F005FA019902F07CF8AD
:1092980002F000FA03B030BD0020FBE7B5BB3F0287
:1092A800BCBB3F0270B51426D0E90053044606FB48
:1092B8000356AE4205D005F10800FFF7F3FF143559
:1092C800F7E72068FEF7D0FF204670BD70B504466A
:1092D800D0E9005305EB0316AE4204D0284602F04D
:1092E800B7F81035F8E72068FEF7BEFF204670BDD6
:1092F80010B504460C30FFF7D5FF2046FFF7E6FF10
:10930800204610BD10B50446034B40F8043BFFF758
:10931800EFFF204610BD00BF60BA3F0210B50446FB
:10932800FFF7F0FF20462421FDF7B3FD204610BDCE
:1093380010B50446024B0360FFF7E4FF204610BD5A
:1093480058BC3F0210B50446FFF7F2FF204624211F
:10935800FDF79FFD204610BD0022C0E90022826073
:1093680010B50C680A6004604C684A6044608C68F8
:109378008A60846010BD10B5044603681868FEF75B
:1093880039FC204610BD00002DE9F04F87B003934B
:109398001C4B80465B688946C3F3080316466BB9C5
:1093A800FFF7BEFE044600F12403406A0593FFF769
:1093B80065FD237B2BB105A8FFF7DDFF07B0BDE8EE
:1093C800F08F01235FFA89F92373D4E9005305EB81
:1093D800830AAA4512D055F8047B3146381DFFF799
:1093E800F7FD8145F5D3039A3B680092D3F808B09E
:1093F8004A46334641463846D847EAE700232373AE
:10940800D9E700BF00ED00E02DE9F74F9B461A4B66
:1094180080465B688946C3F3080316466BB9FFF7B5
:109428007FFE044600F12403406A0193FFF726FDFE
:10943800237B2BB101A8FFF79EFF03B0BDE8F08F97
:109448000123F6B22373D4E9005305EB830A55458B
:109458000ED055F8047B5946381DFFF7B9FD8642F2
:10946800F5D33B684A4641463846DB689847EEE7FD
:1094780000232373DEE700BF00ED00E02DE9F34190
:10948800164B05465B680F46C3F308031BBBFFF783
:1094980047FE044600F12403406A0193FFF7EEFCFF
:1094A800D4E90063462406EB8308B04509D101A836
:1094B800FFF761FFA542B4BF0020012002B0BDE85C
:1094C800F08156F8040B39460430FFF781FD8442D9
:1094D800A8BF0446E9E70020F0E700BF00ED00E080
:1094E800F8B5D0E901539D4204460E460DDB6F1CCA
:1094F800002F006804DDB900FEF7C4FE18B9F8BDF6
:10950800FEF7B2FE00202060A7602768626807EBBC
:1095180085019200A2EB8502081D1CF060F847F84F
:1095280025606368012001336360E8E737B50446C6
:1095380000F12403406A01930D46FFF79FFCD4E92C
:10954800003203EB8202934219460AD009680433B9
:10955800A942F8D101A8FFF70EFF0025284603B05D
:1095680030BD29462046FFF7BBFF05460028F1D04D
:109578006368012B01D1FFF7EFFD01A8FFF7FBFEA0
:10958800ECE70B4670B50446D0E9000200EB820216
:1095980082420FD001461D6851F8046BAE4207D1D4
:1095A800521A1CF01CF801206368013B636070BD0F
:1095B8000846EDE70020FAE71FB5044600F124034A
:1095C800406A01910393FFF759FC204601A9FFF770
:1095D800D8FF18B163680BB9FFF7CAFD03A8FFF7F6
:1095E800CAFE04B010BD182370B50446D0E904566D
:1095F80003FB0656AE4215D0204605F11001FFF7D1
:10960800C0FF63680BB9FFF7B3FDE0692969036818
:10961800DB689847696919B1206A0368DB6898476D
:109628001835E7E71826D4E9045306FB0356AE427B
:1096380004D0284601F00CFF1835F8E700236361D1
:1096480070BD73B50446FFF793FD04F12403606A07
:109658000193FFF713FC2046FFF7C5FF01A8FFF7AA
:109668008AFE606A08B1FEF7A9FAD4E904531826FD
:1096780006FB0356AE4204D0284601F0E9FE183531
:10968800F8E72069FEF7F0FD2068FEF7EDFD2046BB
:1096980002B070BD0148FFF7D4BF00BF2497071080
:1096A8008842F8B504460D46164615D9904214D29C
:1096B800A2F11406751AA1F114072C44B7421AD066
:1096C8001CB131462046FFF733FC06F10800FFF7CE
:1096D800E9FD143E143CF1E70DD0B5420BD01CB1A6
:1096E80029462046FFF724FC05F10800FFF7DAFDBC
:1096F80014351434F1E7F8BD8842F8B504460D4630
:10970800164614D9904213D2A2F11006751AA1F187
:1097180010072C44B74218D01CB13146204601F03E
:1097280013FF304601F094FE103E103CF2E70CD0D7
:10973800B5420AD01CB12946204601F005FF28464B
:1097480001F086FE10351034F2E7F8BD70B50E1E34
:10975800054611DD3001FEF779FD044658B1D5E91B
:10976800001201EB0212FFF7C7FF2868FEF77CFD25
:1097780001202C60AE6070BD0024F6E72DE9F04FA3
:1097880090460023462295B00391D8F80410044669
:109798009942C0E90033C0E90233C0E90433CDE996
:1097A800083302760A9323DCD8E90057142303FB15
:1097B8000757AF423BD029460BA801F0C5FE0BA9BD
:1097C8000FA8099E01F0C0FEDDE9091399421BDAD2
:1097D800089B099A03EB0616314603EB021206F1C1
:1097E8001000FFF789FFEEB9099B0133099311E0D7
:1097F80008A8FFF7ABFF0028D6D108A8FFF766FD39
:10980800204615B0BDE8F08F013108A8FFF79EFF8C
:109818000028DDD10FA801F01BFE0BA801F018FEEF
:109828001435C6E730460FA901F08EFEDCE70026A6
:109838004FF01409CDE90B660D96DDE908239E4229
:109848007CDA3301D35806930BB90136F5E70023C8
:10985800079309FB06F30BAD029307A906A8FFF7C8
:10986800E6FA82460028F0D04FF0000301468DF852
:1098780017302846079A0DF11703FFF76DFB9DF87F
:1098880017700190002F4AD1BDF81C30CDE911772F
:10989800ADF840304FF6FF73CDF83CA0ADF842303C
:1098A8001397D5E90132934217DB03F1010ABAF1A4
:1098B800000F30DD09FB0AF0FEF7C8FC834660B3F1
:1098C800D5E9001209FB0212FFF7EAFE2868FEF745
:1098D800CBFCC5F800B0C5F808A02B68019A09FBB5
:1098E800023A6A68514609FB02320AF11400FFF78E
:1098F800D7FEBAF1000F03D050460FA9FFF718FBA7
:109908006B6801336B6011A8FFF7CCFC3FB10BA863
:10991800FFF7C8FC71E7BB46D8E70127F3E7019BCF
:109928002D6809FB0355069B1B782BB9D8F8003026
:10993800029A13441B7CEB8008358EE7216822606D
:1099480062686360A36809920A9A0A93E368A2604E
:109958000B9A0B932369E2600C9A0C93636922615A
:109968000D9A0D93039B089162612376CFE700005F
:10997800F0B504462646174687B00D466846194690
:10998800FDF7D7FD0B4B694646F8043B03A8FDF7E6
:10999800D0FD394603AA3046FFF7F0FE03A8FDF7CD
:1099A80087FD6846FDF784FD2046034B256223604A
:1099B80007B0F0BD60BA3F0240BC3F02F0B50F46A9
:1099C80085B038461C4916461D460A9CFDF712FA12
:1099D800C0B9A4B1294601A8FFF7BEFC2420174945
:1099E80001F09BFF054630B101AB32462146FFF737
:1099F800BFFF134B2B6001A8FDF75AFD2C462046EC
:109A080005B0F0BD38460F49FDF7F4F990B9002CC0
:109A1800F5D0294601A8FFF79FFC2420074901F04B
:109A28007CFF05460028E6D03246214601ABFFF709
:109A38009FFFE0E70024E2E7C4BB3F02A8BE3F0265
:109A480058BC3F02C8BB3F02014B024A1A6070472C
:109A580020970710D9BB3F022DE9F047089DD0F8A1
:109A6800209004460E4617469846FFF76BF8814546
:109A78004DD02B79190704D520466A695449FFF758
:109A8800D0FAB8F1000F0DD05B212046FFF744FA59
:109A980041462046FFF731FA236802222046DB6858
:109AA8004C4998472B79DA0724D5D5F808802F2117
:109AB80040461BF07BFF08B100F1010841462046F3
:109AC800FFF71BFA2B799B0708D53A212046FFF7A9
:109AD80023FA2046EA684049FFF7A3FA2A7923685F
:109AE80012F0040F20464FF00202DB6814BF3B4916
:109AF8003B4998472B7958071DD529690B461A46C3
:109B080013F8010B60B1202808D11946F7E735484A
:109B1800FEF7BFFC0028ACD0BDE8F0872828EED1BE
:109B28002368521A2046DB68984723680422204697
:109B3800DB682D49984700213846FEF761FA01464F
:109B48002046FFF7DAF9236802222046DB68244919
:109B580098471EB131462046FFF7CFF92B7913F00D
:109B6800300F2CD023682149DB6802222046984711
:109B78002B79D9060AD52368072220461C49DB68B9
:109B880098472046AA691B49FFF74BFA2B799A0692
:109B980011D5DB0605D5236802222046DB680F496C
:109BA80098472368204614490A22DB6898472046CC
:109BB800E969FFF7A2F95D212046FFF7ADF92368AF
:109BC8002046BDE8F0470222DB680C49184700BF71
:109BD800DDBB3F02E4BB3F02CAB93F02E7BB3F021D
:109BE800ECBB3F02D0960710EABB3F02EFBB3F0237
:109BF800F2BB3F02FABB3F02FDBB3F0208BC3F027B
:109C08002DE9F0410446076A0D461646FEF79AFF0D
:109C1800874207D0206A324603682946BDE8F041EA
:109C2800DB6818470348FEF734FC0028F2D0BDE88B
:109C3800F08100BFD09607102DE9F04385B0D0F829
:109C4800209005460F4690461E460C9CFEF77AFF6C
:109C5800814505D14948FEF71CFC002840F08A8060
:109C68004FF000092B6A464A01A8019203938DF828
:109C78000890FEF74EFE49464046FEF7C1F9804679
:109C88004049012201A8FEF7D3FE4146FFF727F914
:109C98003FB13D49012201A8FEF7CAFE3946FFF748
:109CA8001EF93EB13949012201A8FEF7C1FE31462D
:109CB800FFF715F92379DF070ED5A6682F2130465F
:109CC8001BF074FE00B1461C3149012201A8FEF7C1
:109CD800AFFE3146FFF703F923799E0707D52D49D3
:109CE800022201A8FEF7A4FEE168FEF71FFE237911
:109CF800580714D5266933461F4613F8012B2AB195
:109D0800202A01D11E46F7E7282AF5D10222224946
:109D180001A8FEF78DFE3146BA1BFEF799FE23799E
:109D2800190707D51D49012201A8FEF781FE6169BF
:109D3800FEF70EFE2379DA0608D5042218490DEB42
:109D48000200FEF775FEA169FEF7F0FD23799B0678
:109D580007D51449062201A8FEF76AFEE169FFF754
:109D6800BEF801A8FEF7BFFD286A022203680E4963
:109D7800DB68984705B0BDE8F08300BFD0960710B0
:109D880028BC3F02BABB3F0255F43F025EFF3F02C8
:109D980015BA3F020BBC3F020EBC3F0205F03F0262
:109DA80011BC3F0216BC3F0208BC3F02F8B506468C
:109DB8000D4600248F18BD420CD0336830469B688E
:109DC80015F8011B9847031E01DB1C44F3E7002C20
:109DD80008BF1C462046F8BD13B50446084659B1CD
:109DE8000191FDF711F80246204623680199DB68C6
:109DF80002B0BDE81040184702B010BD03689B6868
:109E080018470023012A98BF0A2230B58BB08DF875
:109E1800243009AC0D46B1FBF2F101FB125303F0FB
:109E2800FF03092B94BF30333733DBB2AA4204F85F
:109E3800013DEFD92146FFF7CFFF0BB030BD70478A
:109E48007047704770470000064B10B5994200F103
:109E58000C0405D0084612F08BFF002808BF002428
:109E6800204610BD14BB3F02064B10B5994200F1C5
:109E78000C0405D0084612F07BFF002808BF002418
:109E8800204610BD14BB3F02064B10B5994200F1A5
:109E98000C0405D0084612F06BFF002808BF002408
:109EA800204610BD14BB3F0210B504466821FCF7DC
:109EB800F0FF204610BD10B504462821FCF7E9FF45
:109EC800204610BD10B504463021FCF7E2FF2046BD
:109ED80010BD6821FCF7DDBF2821FCF7DABF30216F
:109EE800FCF7D7BFF0B50025EC1C8C420DD86E1CD2
:109EF800875D445D974205D12644B14205D31D6074
:109F0800601CF0BD01342544EEE70020F9E70000AD
:109F18000A20024A0249FEF749B800BFF5873D0208
:109F280098BC3F0230B40D4611461A4603680968CA
:109F3800D3E900432868A44630BC6047012A38B5F5
:109F4800044602D10B68236003E0022A03D0032AE7
:109F58000DD0002038BD08200D68FCF792FF03469D
:109F68000028F0D095E8030083E80300EBE70068D9
:109F78000028EED00821FCF78CFFEAE710B504466C
:109F88005830FDF715F804F14800BDE8104001F01D
:109F98005FBA38B5036805468B420C4608D011B144
:109FA8004B6801334B60286808B1FEF7C4FB2C608E
:109FB80038BDA0F13003DAB2092A01D81846704733
:109FC800A0F16103052B01D857387047A0F1410370
:109FD800052B94BF37384FF0FF307047002310B57A
:109FE8000370044B04461868FDF7F6FD012320466C
:109FF800237010BD5497071010B5037804461BB1A1
:10A00800024B1868FDF7F6FD204610BD549707105F
:10A0180082B06A4603460868496803C26A4603CAAA
:10A0280018601846596002B0704708B582798B7974
:10A038009A4206D106221BF0B5FAB0FA80F0400920
:10A0480008BD0020FCE7000070B50446384B86B018
:10A0580018689B880090ADF80430364BA6791868CC
:10A068009B880290ADF80C307EB9062269462046DE
:10A078001BF098FA38B10622204602A91BF092FA82
:10A08800003818BF012006B070BDA3882068ADF85D
:10A09800143006F0FD03012B049024D19DF81550CF
:10A0A800062205F03F05694604A88DF815501BF0F7
:10A0B80079FA00283AD065F03F05062202A904A8DB
:10A0C8008DF815501BF06EFA80B36079012E00F000
:10A0D800C00004D1C02814BF00200120D3E7B0FA83
:10A0E80080F04009CFE7022E1ED103229DF81550BB
:10A0F8000DEB020105F03F050DF113008DF8155029
:10A108001BF050FA90B165F03F0503220DF10B01E9
:10A118000DF113008DF815501BF044FA30B1607939
:10A1280000F0C0004028D6E70120ACE70020AAE7ED
:10A1380058B93F02D6BC3F024FF0FF33036083801B
:10A14800002070470021024608B501604160FFF712
:10A15800F3FF1046917108BD0123024610B5036153
:10A16800044B03F1100153F8044B8B4242F8044BA3
:10A17800F9D110BD5EB93F0210B50B460446B1B126
:10A18800012A01F110020AD1014653F8040B934247
:10A1980041F8040BF9D101232361204610BD411E6B
:10A1A80012F8010D9A4201F8010FF9D1F3E71022D4
:10A1B8001BF02FFAF1E738B5044615461A46FFF7A3
:10A1C800DBFF2046A58138BD08B5026922B9808920
:10A1D800003818BF012008BD102202491BF0E2F91F
:10A1E800F6E700BF2CBE3F020069704738B50C4641
:10A1F8001422002105461BF00CFA23691BB9A38918
:10A208002B80284638BD012321462B742B4604F1A8
:10A21800100251F8040B914243F8040BF9D1F0E70E
:10A2280080897047704708B502690B699A4206D160
:10A2380010221BF0B7F9B0FA80F0400908BD0020E1
:10A24800FCE7000001232DE9F341024606460361BD
:10A25800334B0C4603F1100153F8040B8B4242F8C0
:10A26800040BF9D144B3242120461BF093FB0428A6
:10A278004FF0000523D1ADF8045001AFA51C0634FA
:10A2880015F8020CFFF795FEB0F1000812DB15F87F
:10A29800010CFFF78EFE00280CDB023540EA08109F
:10A2A800A54207F8010BEBD19DF8053033739DF8F3
:10A2B800043073730023336102B0BDE8F0814FF0BE
:10A2C8001008242120461BF065FBA84207D8424607
:10A2D8000021304602B0BDE8F0411BF09AB9B8F150
:10A2E800000FE9D0605DFFF764FE030615D4000196
:10A2F800C7B208F1FF382421204606F808701BF081
:10A3080049FB0135A84208D9605DFFF752FE40B20B
:10A318000028A4BF384306F808000135D1E700BF7C
:10A328005EB93F0213B504460191FFF715FF2046B9
:10A338000199FFF787FF204602B010BD38B54FF6E8
:10A34800FF730025044643800E22294605700571D7
:10A3580006301BF05EF904F11400FFF7FDFE04F16E
:10A368002800FFF7F9FE044904F13C0001F0BBF8AE
:10A378002046656538BD00BF0ABC3F0210B5D0E96C
:10A38800063203EBC2029342184605D0046808332C
:10A3980024888C42F7D110BD0020FCE7F0B50646B2
:10A3A8001F460D4685B0002950D0002A4ED00468BB
:10A3B800F42A237828BFF42243B32379980709D5D0
:10A3C8000023A0890392FDF785FC0028039A03DA8D
:10A3D80005B0F0BD6FF0770034682379D90609D548
:10A3E800012F07D000232946A08905B0BDE8F04019
:10A3F800FDF7B6BC9B06EBD5022FE9D00023294612
:10A40800A08905B0BDE8F040FDF7B8BC4FF6FF7174
:10A41800608888421CD021794E0701D5012F04D1CC
:10A428000B0709D46FF07700D2E7A1890093134690
:10A438002A46FDF76BFCCBE7022FF3D00023A18956
:10A44800009313462A46FDF753FCC1E70248BFE7CD
:10A458006FF0D100BCE700BFF2FEFFFF2DE9F0412D
:10A4680000260746066028200C46FCF70AFD051E54
:10A4780005F10C080FD00123C5E90133084B40460C
:10A488002B60FFF769FE0FCC2E6285F824604646E4
:10A498000FC6236833603846C7E90085BDE8F081F8
:10A4A800ECBD3F0270B50025064605603020FCF77C
:10A4B800E8FC044698B10123C0E901330A4B0E3089
:10A4C80040F80E3C4FF6FF7320F8023CFFF73AFEC7
:10A4D800C4E90655C4E90855C4E90A55A575746068
:10A4E8000C343046346070BD08BE3F0237B50D46A7
:10A4F800044601A8FFF772FD2A6801A8D2F80230C5
:10A508002360D2F806306360FFF776FD204603B07B
:10A5180030BD30B505460C4687B001A8FFF75EFD93
:10A528002A68236812881B889A420DD1294602A8F6
:10A53800FFF7DCFF214604A8FFF7D8FF04A902A80B
:10A54800FFF773FD044600B9002401A8FFF754FD86
:10A55800204607B030BD000070B506467420FCF7F1
:10A5680090FC0446A0B10025C0E90055C0E9025599
:10A57800C0E90455C0E9065505622430FFF792FF8B
:10A5880004F12C00FFF78EFFE563E564E565E566F9
:10A59800346024B90A200A4A0A49FDF707FD002059
:10A5A800FDF744FB20B10A20054A0749FDF7FEFCE8
:10A5B800002231680548FDF7C5FB304670BD00BF75
:10A5C800F5873D0298BC3F02DDBC3F0281B43D02E5
:10A5D80010B50A4CD4E88F3FDB070CD42046FCF7B3
:10A5E8006BFC40B10648FFF7B7FF2046FCF769FC53
:10A5F80004481AF0BEF9024810BD00BF4C97071076
:10A60800589707102DB73D0230B503680446093B3B
:10A61800012B0D468DB011D8FFF7DAFFA18800682D
:10A62800FFF7ACFE034658B92022CDE904200B4AB7
:10A63800322000920A4904AAFDF7C6FC0DB030BDCD
:10A648006A6D002AFAD0D4E9032105F14C00CDE95E
:10A658000312AC6D04AA03A9A047EFE71FBD3F0290
:10A66800AFBC3F0208B50020FDF7E0FA00EAE07051
:10A6780008BD19B90A460846FDF7E6BA0022D1E92D
:10A688000001F9E70368D8690028D4BF0020012039
:10A69800704738B5141E0546436802DB62189A42B3
:10A6A80000DD5C1A2A68501801191A44521A1AF067
:10A6B80096FF6A68121B6A6038BD37B50A460446B9
:10A6C8000D46D0E9000101ABFFF70CFC024638B19A
:10A6D80020460199FFF7DDFF29462046FFF7EDFFE9
:10A6E80003B030BD10B50C4629B90A460846BDE886
:10A6F8001040FDF7B7BA01212046FFF7DEFFD4E985
:10A7080000010022F3E738B504461546FFF7B1FF0C
:10A7180000280ADB29462046FFF7E4FF002804DB6F
:10A72800BDE838400020FDF7ABBA38BD38B5002386
:10A738000446836008200D46FCF7A3FB18B12B687C
:10A7480003606B684360034B2060E360024B204664
:10A75800A36038BDBDA83D02D5A83D020B680360C3
:10A7680013B15A6801325A60704710B5044651F85F
:10A77800043B40F8043BFFF7F1FF23680BB9FFF7F0
:10A78800C7FB204610BD10B5044651F8043B40F8FD
:10A79800043BFFF7E3FF204610BD10B5044651F80F
:10A7A800043B40F8043BFFF7D9FF204610BD10B525
:10A7B80004460430FEF75CF9204610BD70B5044627
:10A7C800D0E9005305EBC306AE4204D0281DFEF7BE
:10A7D8004FF90835F8E72068FDF746FD204670BDBB
:10A7E80070B50446D0E9005305EBC306AE4204D069
:10A7F800281DFEF73DF90835F8E72068FDF734FD18
:10A80800204670BD10B504462430FFF7E9FF04F177
:10A818001800FFF7D3FF10BD002313B5D1E900429C
:10A82800C1E900330368046000934368426001A8EB
:10A838000193FEF71DF902B010BD826810B50AB980
:10A848000CF0BFFCC368BDE81040184738B50D1EB2
:10A858000446006803DDFDF715FD18B938BDFDF79E
:10A8680003FD00202060A5600120F7E708B5836894
:10A878008B4202DAFFF7EAFF08BD0120FCE72DE969
:10A88800F0410F4641681D461944836804469942C1
:10A89800904612DC266862683E443146D21B701925
:10A8A8001AF09DFE2A46414630461AF08BFE0120DA
:10A8B80063682B446360BDE8F081FFF7C7FF002899
:10A8C800E8D1F8E7F8B50D46D0E9011399420446F6
:10A8D80016460BDA276862687919521B481C1AF069
:10A8E8007EFE7E55636801336360F8BD0131FFF772
:10A8F800ADFF0028EED1F8E70A464168FFF7E2BF4E
:10A908002DE9F74304461D460F4601AB90460A461B
:10A91800D0E900019DF82890FFF7E4FAAE1C024642
:10A928006368B9F1000F26D128B333441B1AFF2BF3
:10A9380009D820460199FFF7ACFE616820463144EA
:10A94800FFF794FF18B9606803B0BDE8F0836A1C8C
:10A9580020460199D2B2FFF7B5FF01993A46013175
:10A968002046FFF7AFFF2B464246019902312046A9
:10A97800FFF785FFE7E7F118FF29E4D82046FFF73E
:10A9880075FF0028DFD0691C2046C9B2FFF7B4FF65
:10A9980039462046FFF7B0FF2B4642466168E6E796
:10A9A80030B49DF808501AB1029530BCFFF7A8BF23
:10A9B800406830BC70471FB500230622C0E9003349
:10A9C80083600093012304468DF80F2019460DF18A
:10A9D8000F02FFF7E5FF204604B010BD8842F8B526
:10A9E80004460D46164614D9904213D2A2F1080621
:10A9F800751AA1F108072C44B74218D01CB131468A
:10AA08002046FFF7CAFE301DFEF732F8083E083C24
:10AA1800F2E70CD0B5420AD01CB129462046FFF710
:10AA2800BCFE281DFEF724F808350834F2E7F8BD07
:10AA3800F7B5044646686846FFF7AFFED4E90173E8
:10AA48009F4212DB0137002F29DDF800FDF7FEFBDE
:10AA58000546F0B1D4E9001201EBC202FFF7BEFFD0
:10AA68002068FDF701FC2560A7602368626803EB96
:10AA7800C606314603EBC20206F10800FFF7AEFF37
:10AA88001EB169463046FFF788FE01256368013329
:10AA9800636001A8FDF7ECFF284603B0F0BD002570
:10AAA800DEE7F8B50546D0E900430F4604EBC306D8
:10AAB800A64205D039462046FFF72BFD08B114B948
:10AAC800F8BD0834F4E7201DFDF7D2FFD5E90032C0
:10AAD800204603EBC20204F10801FFF77FFF6B6811
:10AAE800013B6B60ECE700002DE9F04305468FB0B1
:10AAF80003A80C46FFF772FA2E68F31E0D2B6AD8CE
:10AB0800DFE813F00E0078006900FC0069006900B6
:10AB1800690069006900C600C600C600C600C60014
:10AB2800606A04F118060230FFF78EFA38B321463E
:10AB3800AA8951F8243F06A81A80FFF72EFE06A915
:10AB48003046FFF775FF07A8FDF792FF06A8FFF745
:10AB5800A9FC069B04F1280007996362FFF719FA1C
:10AB680007A8FDF785FF20210023CDE906136D4ACC
:10AB7800009201206C4906AAFDF726FA2BE004A8EA
:10AB8800FFF790FCAA89049B1A8069680498083129
:10AB98000230FFF73DFA04A906A8FFF7FEFD30468C
:10ABA80006A9FFF745FF054607A8FDF761FFC5B9E8
:10ABB8002023CDE906355D4B01205B49009306AAA9
:10ABC8002B46FDF701FA049B29461888FDF766F81D
:10ABD80005A8FDF74DFF03A8FFF70EFA0FB0BDE873
:10ABE800F083E36B23B104A904F13400FFF725FED9
:10ABF80005A8B6E72046A989FFF7C0FB0646002846
:10AC0800E9D0014604F12C00FFF783FC04F1180891
:10AC180048B131464046FFF744FF20220023CDE9E2
:10AC28000623434AA4E74FF6FF713568D5E9063293
:10AC3800298003EBC2029A4203D053F8080B4180E3
:10AC4800F9E7D5E9037307EBC309B94504D0381D03
:10AC5800FDF70EFF0837F8E700232B61D5E90673E7
:10AC680007EBC309B94504D0381DFDF701FF0837C4
:10AC7800F8E70023EB61AB72E36C23B1314604F1D2
:10AC88004400FFF7DAFD4FF6FF7233681A80C0E719
:10AC98002046A989FFF772FB00289CD0E36D002BA2
:10ACA80099D000230D2EADF8163001D0102E17D1F3
:10ACB800002369681A4606258DF81530049109ABFA
:10ACC8008DF8142006908DF81C60DDE904010895C4
:10ACD80083E80300236E06A904F1540098477AE735
:10ACE8000F2E01BF2B7A696803F0010208251DBFEA
:10ACF8001A4619461D46C3F34003DDE7A9892046D5
:10AD0800FFF73CFB014600283FF465AFE36E002BDC
:10AD18003FF461AF6B6806AA069304F16400236FE1
:10AD2800984758E75DBD3F02AFBC3F0237BD3F02C1
:10AD380067BD3F0270B504466430FCF739F904F189
:10AD48005400FCF735F904F14400FCF731F904F13B
:10AD58003400FCF72DF904F13000FDF789FE04F109
:10AD68002800FDF785FED4E9065305EBC306AE427D
:10AD780004D0281DFDF77CFE0835F8E7A069FDF72B
:10AD880073FA04F10C00FFF72BFD2046FFF716FDC0
:10AD9800204670BD10B5064B1C6844B12046FFF72D
:10ADA800C9FF2046BDE810407421FCF772B810BDF9
:10ADB8005897071038B505460C46FDF75FFFAB6896
:10ADC800A268AA60A360EB68E268EA60E36038BD45
:10ADD80010B504688AB04C34B9B1CDE9001202A8A4
:10ADE8006946FFF7A3FC002306A902A80893FFF70A
:10ADF800E1FF214606A8FFF7DDFF06A8FCF7D8F813
:10AE080002A8FCF7D5F80AB010BD0491EBE770B5BD
:10AE180004460E461D468CB00192FFF78FFA267144
:10AE2800019904F13C0000F0B4FB04F14C06CDB1EB
:10AE3800109B02A904A802950393FFF777FC00234F
:10AE480008A904A80A93FFF7B5FF314608A8FFF739
:10AE5800B1FF08A8FCF7ACF804A8FCF7A9F820464D
:10AE68000CB070BD0695EAE72DE9F04F9246002236
:10AE780087B08B461299804668201D46DDE910434D
:10AE8800029103930492FBF7FCFF061E06F10C09DE
:10AE980018D001223746C6E901220299154A039BB8
:10AEA80047F8202B48465A4600915146FFF7AFFF16
:10AEB8000FCD0FC72B6806F134053B600FCC0FC5CB
:10AEC80023682B60404604A9CDE90496FFF7A4FC4B
:10AED80005A8FDF7CDFDD8F800303BB90A20064A91
:10AEE800064907B0BDE8F04FFDF760B807B0BDE808
:10AEF800F08F00BFD0BD3F02F5873D0298BC3F02EE
:10AF08008842F8B504460D46164614D9904213D225
:10AF1800A2F10806751AA1F108072C44B74218D007
:10AF28001CB131462046FFF72EFC301DFDF7A0FD71
:10AF3800083E083CF2E70CD0B5420AD01CB12946BD
:10AF48002046FFF720FC281DFDF792FD0835083440
:10AF5800F2E7F8BD70B50E1E054611DDF000FDF7ED
:10AF680075F9044658B1D5E9001201EBC202FFF7A2
:10AF7800C7FF2868FDF778F901202C60AE6070BD26
:10AF88000024F6E773B5044645686846FFF7FBFBFF
:10AF9800D4E90113994210DA2368626803EBC50506
:10AFA800294603EBC20205F10800FFF7A9FF8DB996
:10AFB800636801260133636006E020460131FFF72C
:10AFC800C9FF06460028E7D101A8FDF751FD304624
:10AFD80002B070BD69462846FFF7D5FBE8E788420E
:10AFE800F8B504460D46164614D9904213D2A2F17C
:10AFF8000806751AA1F108072C44B74218D01CB1ED
:10B0080031462046FFF7B1FB301DFDF731FD083E04
:10B01800083CF2E70CD0B5420AD01CB129462046BC
:10B02800FFF7A3FB281DFDF723FD08350834F2E7D9
:10B03800F8BD70B50E1E054611DDF000FDF706F9E6
:10B04800044658B1D5E9001201EBC202FFF7C7FF69
:10B058002868FDF709F901202C60AE6070BD002456
:10B06800F6E773B5044645686846FFF77EFBD4E902
:10B078000113994210DA2368626803EBC505294673
:10B0880003EBC20205F10800FFF7A9FF8DB9636859
:10B0980001260133636006E020460131FFF7C9FF4E
:10B0A80006460028E7D101A8FDF7E2FC304602B0C9
:10B0B80070BD69462846FFF758FBE8E72DE9F04FD1
:10B0C8001746A1B080460AA80E46FEF787FF3C68DF
:10B0D800237953B939464046FFF747FB0AA8FEF7DC
:10B0E8008BFF404621B0BDE8F08F336804F1280A91
:10B0F800D3E9035305EBC303039304F1140B039B38
:10B108009D4221D0D5F80090584609F11401FFF767
:10B118008AF8B8B1504609F12801FFF784F888B1D8
:10B128002368D9F80020534033F47F430AD1202202
:10B13800CDE915235E4A009215AA32205D49FCF735
:10B1480043FFC7E70835DAE75046FFF73DF860B92F
:10B158000122594915A8FFF70FF8D44615AD0FCDB0
:10B16800ACE80F002B68CCF800303368D3E9005303
:10B1780005EBC30B5D45A94651466ED055F8080B43
:10B18800FFF751F80028F5D004F1140A5046FFF7EC
:10B198001BF888B9494B48491A8815A8013292B258
:10B1A8001A800123FFF707F8D44615AD0FCDACE898
:10B1B8000F002B68CCF80030414B2822002116A83C
:10B1C80015931AF026FA514604A8FFF70FF804ABB6
:10B1D80018AA0DF1200C154618685968083303C5DC
:10B1E80063452A46F7D11868002228602379A11DF3
:10B1F8008DF85830D9F8003015A89B8AADF874300E
:10B20800E36B17932F4BCDE91E34FCF78DFD002817
:10B218007FF460AF01232370346839460C340DA8DD
:10B22800FFF7A3FA20460DA9FFF71BFF04460EA857
:10B23800FDF71EFC002C7FF44DAF2023CDE90D3423
:10B24800214B0DAA0093234677E739464046FFF77E
:10B258008CFA0CA8FDF70CFC40E70BA8FFF7FEF8EA
:10B26800514615A8FEF7C2FF0B9A0023012014329D
:10B2780015A9FCF721FD0028E7D135680BA90DA811
:10B28800FFF781FA28460DA9FFF77CFE05460EA8B0
:10B29800FDF7EEFB002DD8D032680CA85368126871
:10B2A80003F10053013B02EBC309FDF7E1FB6BE738
:10B2B80074BD3F02AFBC3F021CBE3F02509707104F
:10B2C80003002C00A1AF3D029FBD3F0200230248AE
:10B2D8000360FCF765BC00BF5497071070474174C2
:10B2E800704708B5007CFCF7CFFB20EAE07008BD8A
:10B2F80008B5007CFCF782FB20EAE07008BD08B5C1
:10B30800007CFCF797FB40EAE07008BD08B5007CBC
:10B31800FCF782FB40EAE07008BD007CFCF798BBB4
:10B3280037B5457C04462DB1207C03B0BDE83040DC
:10B33800FCF756BB007C0191FCF7A6FB002801999D
:10B34800F2DC284603B030BD10B504461421FBF7E3
:10B35800A0FD204610BD000010B54FF47A730446D6
:10B36800084611460022C4E90123044B20742360D7
:10B3780001236374FCF7A4FB204610BD44BE3F02C2
:10B388000023007CFCF78EBB0022FFF7F9BF007C8E
:10B39800FCF718BB007CFCF769BB00000222002008
:10B3A800044B1A60044B054AC3E900009A60FCF795
:10B3B80007BF00BF689707105C9707100000FFFFE2
:10B3C80010B5044608462170FCF77EFA0023204693
:10B3D800636010BD002240681146FCF7ABBE002236
:10B3E80040681146FCF7C2BE00224068FCF7B0BEB8
:10B3F8000022406881F00101FCF78EBE00234068FE
:10B408001A461946FCF77ABE002340681A461946C0
:10B41800FCF766BE002240681146FCF753BE0022C6
:10B4280040681146FCF732BE002202214068FCF752
:10B438003BBE002340681A46FCF71ABE0322024BA3
:10B448005A60024A1A6070476C97071074BE3F0230
:10B4580010B504460068FCF707FF204610BD10B57C
:10B468000446006808B1FCF7FFFE0023C4E9013375
:10B47800236010BD38B504460D4600680131FCF75D
:10B4880001FF10B1C4E90005012038BD10B50368FB
:10B49800044623B143688B4201D3012010BD2046E6
:10B4A800FFF7E8FF0028F9D0A368002BF5D1226840
:10B4B8001370F2E737B50D46114601920446FFF7BF
:10B4C800E5FF019A28B92046FFF7C9FF204603B0D7
:10B4D80030BD2946A26020681AF074F8002122685D
:10B4E800A368D154F2E7002313B50446C0E900333A
:10B4F8008360037341B108460191FBF785FC01990C
:10B5080002462046FFF7D6FF204602B010BD38B5E8
:10B51800054600680C4668B16A688B689A4207D38A
:10B5280009681AF01BFAA368AB600023A36038BD52
:10B53800FCF79AFE23682B6063686B60A368AB60B6
:10B548000023C4E90033F1E7002310B50446C0E93D
:10B55800003383600373FFF7DAFF204610BD88428B
:10B5680010B5044605D00B682BB18A681946FFF759
:10B57800A1FF204610BDFFF772FFFAE7002310B5C0
:10B588000446C0E9003383600373FFF7E8FF2046F1
:10B5980010BD13B5044659B108460191FBF734FCB8
:10B5A800019902462046FFF785FF204602B010BDEC
:10B5B800FFF755FFF9E7704738B50A4B04460360B3
:10B5C800012309494361202000F0A9F92025606082
:10B5D80005492846A56000F0A2F9C4E903052046FC
:10B5E80038BD00BF18000100A8BE3F0230B50E4D9F
:10B5F80087B0D5E88F1F11F0010411D12846FBF759
:10B608005BFC68B16846FFF7D7FF6A4621460748E2
:10B61800FDF724F82846FBF754FC054819F0A9F96A
:10B62800024807B030BD00BF74970710789707101D
:10B638004FBF3D027047000038B5142504462A461E
:10B64800002119F0E6FF2580402507492846258175
:10B65800258200F064F904496060284600F05FF92B
:10B66800E060204638BD00BFA8BE3F027047704763
:10B6780010B50446FFF7E0FF204610BD10B504469C
:10B68800FFF7DAFF204610BD10B50446FFF7D4FFD8
:10B69800204610BD30B50E4D87B0D5E88F1F11F08C
:10B6A800010411D12846FBF707FC68B101A8FFF790
:10B6B800DFFF214601AA0748FFF74EFE2846FBF7A1
:10B6C80000FC054819F055F9024807B030BD00BF25
:10B6D800909707109C970710CDBF3D0210B50D4CF1
:10B6E80086B0D4E88F3FDB0711D42046FBF7E4FB94
:10B6F80068B101A8FFF7C2FF012101AA0648FFF7B8
:10B708002BFE2046FBF7DDFB044819F032F902480E
:10B7180006B010BD94970710B097071007C03D02F8
:10B7280010B5FFF7DBFF074B044653B1FFF732FEB6
:10B7380038B1236820461B699847002801DD00E0DE
:10B7480000BF10BD0000000010B50D4C86B0D4E855
:10B758008F3FDB0711D42046FBF7AEFB68B101A889
:10B76800FFF792FF022101AA0648FFF7F5FD2046E0
:10B77800FBF7A7FB044819F0FCF8024806B010BD17
:10B7880098970710C497071005C03D0210B5FFF73A
:10B79800DBFF074B044653B1FFF7FCFD38B12368C4
:10B7A80020461B699847002801DD00E000BF10BD56
:10B7B800000000001B2837B5044602D9002003B05A
:10B7C80030BDA0F10F03022B0BD9012821D8FFF7B8
:10B7D8000DFF0021007CFCF7D9F880F00100C0B211
:10B7E800EDE7114DD5E88F1F11F001010BD1284667
:10B7F8000191FBF761FB019928B10C48FFF7E0FDC7
:10B808002846FBF75EFB094B1878FCF76BF8002815
:10B81800D4D1083C012C05D8FFF73CFF007CFCF78D
:10B8280025F9DAE70120CAE7D8970710DC9707104F
:10B838001B2838B504460D460AD8FF2908D0FFF75B
:10B84800B9FF28B129462046BDE83840FCF730BB8F
:10B8580038BD38B504460D46FCF738FBFF2810D034
:10B86800062804D84D2323FA00F0C30709D420463C
:10B87800FFF7A0FF28B129462046BDE83840FCF76D
:10B8880033BB38BD10B50446FCF720FB031FDBB201
:10B89800012B08D92046FFF78DFF20B12046BDE8CF
:10B8A8001040FCF72FBB002010BD10B50446FFF771
:10B8B80081FF50B103212046FCF7ECFA032804D19C
:10B8C8002046BDE81040FCF739BB002010BD38B554
:10B8D80004460D46FFF76EFFF0B104212046FCF741
:10B8E800D9FA042805D12046A9B2BDE83840FCF7AA
:10B8F80017BB02212046FCF7CDFA02280CD12046BE
:10B90800FCF7E4FA012801D0042805D1294620468D
:10B91800BDE83840FCF720BB38BDFBF7B2BAFBF7EF
:10B92800B2BA000037B5051D0446019128460BF050
:10B93800D9FC00230199284684F87C30C4E91D33DA
:10B94800C4E92033C4E92233044B23601433636011
:10B9580003B0BDE830400BF0AFBC00BF28E43F02A5
:10B9680037B5051D0446019128460BF0BBFC0023A2
:10B97800019928466367A4F87830C4E91F33C4E9FD
:10B988002133044B23601433636003B0BDE83040B7
:10B998000BF05EBCF8E33F022DE9F04FDFF844926C
:10B9A800D9F80040631C2DED028BC9F8003083B034
:10B9B80008EE100A002C40F0ED80DFF82CB20122CE
:10B9C800784B4FF0FF38784F1A70DBF8003007F1EA
:10B9D8001C00764A9D68BC61754EDFF810A2C7E965
:10B9E8000024C7E90244C7E9044400F075FEDBF807
:10B9F80000106E4A06F11C00C7F800A03D62C7F8A7
:10BA080024804D68B461C6E90024C6E90244C6E949
:10BA1800044400F061FEDBF80010644ACB68C6F805
:10BA280000A00193C6E90858624DC5E90024C5E99C
:10BA38000244C5E90444AC6105F11C0000F04CFE69
:10BA4800019BC5F800A03946DFF8A4A1C5E908386C
:10BA58005046FFF785FF584A10460BF043FC564AFC
:10BA68005649A2F10807104642F8081C1431146719
:10BA7800B9603146524EA2F8744042F8044CC2E90B
:10BA88001E44C2E920440BF0E3FB29463046FFF789
:10BA980067FF29464B48FFF763FF3269DBF8003040
:10BAA80042F40052C7F878A0474F3261474A07F17D
:10BAB8001C009D68C6F874A0BC61454EDFF834A12F
:10BAC800C7E90024C7E90244C7E9044400F004FEBA
