:02000004085F93
:10B0000000B05F08FCFF5F0800000600200005019B
:08B010000401501400000000CF
:10B018000E480F4908B5884205D00E4A824202D030
:10B028000D4B121A98470D480D4A00210D4B121A64
:10B0380098470D480D49884205D00D4A824202D0F2
:10B04800054B121A9847014808BD00BF40AD0710CC
:10B0580090FE5F08E4AD07102D0D1110E4AD071048
:10B06800E8AF0710A10E1110F0B13F0288B05F08D9
:0CB07800F8FF3F0219B05F080000000064
:08B088007CB05F088CF93F0267
:10B0900081F0004102E000BF83F0004330B54FEA89
:10B0A00041044FEA430594EA050F08BF90EA020FF6
:10B0B0001FBF54EA000C55EA020C7FEA645C7FEA89
:10B0C000655C00F0E2804FEA5454D4EB5555B8BFAC
:10B0D0006D420CDD2C4480EA020281EA030382EA1D
:10B0E000000083EA010180EA020281EA0303362DAF
:10B0F00088BF30BD11F0004F4FEA01314FF4801C82
:10B100004CEA113102D0404261EB410113F0004F93
:10B110004FEA03334CEA133302D0524263EB43034A
:10B1200094EA050F00F0A780A4F10104D5F1200EE8
:10B130000DDB02FA0EFC22FA05F2801841F1000143
:10B1400003FA0EF2801843FA05F359410EE0A5F117
:10B1500020050EF1200E012A03FA0EFC28BF4CF048
:10B16000020C43FA05F3C01851EBE37101F00045FE
:10B1700007D54FF0000EDCF1000C7EEB00006EEB0B
:10B180000101B1F5801F1BD3B1F5001F0CD3490895
:10B190005FEA30004FEA3C0C04F101044FEA4452EC
:10B1A00012F5800F80F09A80BCF1004F08BF5FEA73
:10B1B000500C50F1000041EB045141EA050130BD53
:10B1C0005FEA4C0C404141EB0101013C28BFB1F565
:10B1D000801FE9D291F0000F04BF01460020B1FAB0
:10B1E00081F308BF2033A3F10B03B3F120020CDA83
:10B1F0000C3208DD02F1140CC2F10C0201FA0CF061
:10B2000021FA02F10CE002F11402D8BFC2F1200CC5
:10B2100001FA02F120FA0CFCDCBF41EA0C0190407B
:10B22000E41AA2BF01EB0451294330BD6FEA0404C4
:10B230001F3C1CDA0C340EDC04F11404C4F12002AF
:10B2400020FA04F001FA02F340EA030021FA04F3C1
:10B2500045EA030130BDC4F10C04C4F1200220FA18
:10B2600002F001FA04F340EA0300294630BD21FA56
:10B2700004F0294630BD94F0000F83F4801306BF1C
:10B2800081F480110134013D4EE77FEA645C18BF10
:10B290007FEA655C29D094EA050F08BF90EA020FA7
:10B2A00005D054EA000C04BF1946104630BD91EA9F
:10B2B000030F1EBF0021002030BD5FEA545C05D1A2
:10B2C0004000494128BF41F0004130BD14F58004E1
:10B2D0003CBF01F5801130BD01F0004545F0FE4155
:10B2E00041F470014FF0000030BD7FEA645C1ABF8A
:10B2F000194610467FEA655C1CBF0B46024650EAC1
:10B30000013406BF52EA033591EA030F41F40021EC
:10B3100030BD00BF90F0000F04BF0021704730B572
:10B320004FF4806404F132044FF000054FF0000147
:10B3300050E700BF90F0000F04BF0021704730B508
:10B340004FF4806404F1320410F0004548BF4042DD
:10B350004FF000013EE700BF42004FEAE2014FEA32
:10B3600031014FEA02701FBF12F07F4393F07F4F0D
:10B3700081F06051704732F07F4208BF704793F010
:10B380007F4F04BF41F40021704730B54FF4607423
:10B3900001F0004521F000411CE700BF50EA010226
:10B3A00008BF704730B54FF000050AE050EA0102CF
:10B3B00008BF704730B511F0004502D5404261EB3F
:10B3C00041014FF4806404F132045FEA915C3FF480
:10B3D000D8AE4FF003025FEADC0C18BF03325FEA1D
:10B3E000DC0C18BF033202EBDC02C2F1200300FACE
:10B3F00003FC20FA02F001FA03FE40EA0E0021FAF3
:10B4000002F11444BDE600BF70B54FF0FF0C4CF4E0
:10B41000E06C1CEA11541DBF1CEA135594EA0C0F92
:10B4200095EA0C0F00F0DEF82C4481EA030621EACD
:10B430004C5123EA4C5350EA013518BF52EA033508
:10B4400041F4801143F4801338D0A0FB02CE4FF0BA
:10B450000005E1FB02E506F00042E0FB03E54FF0EA
:10B460000006E1FB03569CF0000F18BF4EF0010EE2
:10B47000A4F1FF04B6F5007F64F5407404D25FEADE
:10B480004E0E6D4146EB060642EAC62141EA555191
:10B490004FEAC52040EA5E504FEACE2EB4F1FD0CD3
:10B4A00088BFBCF5E06F1ED8BEF1004F08BF5FEA51
:10B4B000500E50F1000041EB045170BD06F0004603
:10B4C00046EA010140EA020081EA0301B4EB5C04B0
:10B4D000C2BFD4EB0C0541EA045170BD41F48011A8
:10B4E0004FF0000E013C00F3AB8014F1360FDEBFCD
:10B4F000002001F0004170BDC4F10004203C35DAA9
:10B500000C341BDC04F11404C4F1200500FA05F32B
:10B5100020FA04F001FA05F240EA020001F00042CC
:10B5200021F0004110EBD37021FA04F642EB060142
:10B530005EEA430E08BF20EAD37070BDC4F10C046C
:10B54000C4F1200500FA04F320FA05F001FA04F230
:10B5500040EA020001F0004110EBD37041F100011C
:10B560005EEA430E08BF20EAD37070BDC4F1200527
:10B5700000FA05F24EEA020E20FA04F301FA05F28F
:10B5800043EA020321FA04F001F0004121FA04F237
:10B5900020EA020000EBD3705EEA430E08BF20EA07
:10B5A000D37070BD94F0000F0FD101F00046400041
:10B5B00041EB010111F4801F08BF013CF7D041EAC3
:10B5C000060195F0000F18BF704703F000465200C7
:10B5D00043EB030313F4801F08BF013DF7D043EA98
:10B5E0000603704794EA0C0F0CEA135518BF95EA4E
:10B5F0000C0F0CD050EA410618BF52EA4306D1D1D5
:10B6000081EA030101F000414FF0000070BD50EAF3
:10B61000410606BF1046194652EA430619D094EA7D
:10B620000C0F02D150EA013613D195EA0C0F05D167
:10B6300052EA03361CBF104619460AD181EA0301BB
:10B6400001F0004141F0FE4141F470014FF0000073
:10B6500070BD41F0FE4141F4780170BD70B54FF00E
:10B66000FF0C4CF4E06C1CEA11541DBF1CEA13558E
:10B6700094EA0C0F95EA0C0F00F0A7F8A4EB050470
:10B6800081EA030E52EA03354FEA013100F0888067
:10B690004FEA03334FF0805545EA131343EA126330
:10B6A0004FEA022245EA111545EA10654FEA0026E5
:10B6B0000EF000419D4208BF964244F1FD0404F59E
:10B6C000407402D25B084FEA3202B61A65EB0305FA
:10B6D0005B084FEA32024FF480104FF4002CB6EBB7
:10B6E000020E75EB030E22BFB61A754640EA0C0037
:10B6F0005B084FEA3202B6EB020E75EB030E22BF77
:10B70000B61A754640EA5C005B084FEA3202B6EBB7
:10B71000020E75EB030E22BFB61A754640EA9C0076
:10B720005B084FEA3202B6EB020E75EB030E22BF46
:10B73000B61A754640EADC0055EA060E18D04FEA04
:10B74000051545EA16754FEA06164FEAC30343EAA4
:10B7500052734FEAC2025FEA1C1CC0D111F4801F71
:10B760000BD141EA00014FF000004FF0004CB6E76A
:10B7700011F4801F04BF01430020B4F1FD0C88BF09
:10B78000BCF5E06F3FF6AFAEB5EB030C04BFB6EB14
:10B79000020C5FEA500C50F1000041EB045170BD07
:10B7A0000EF0004E4EEA113114EB5C04C2BFD4EB34
:10B7B0000C0541EA045170BD41F480114FF0000EB8
:10B7C000013C90E645EA060E8DE60CEA135594EA34
:10B7D0000C0F08BF95EA0C0F3FF43BAF94EA0C0F37
:10B7E0000AD150EA01347FF434AF95EA0C0F7FF4AC
:10B7F00025AF104619462CE795EA0C0F06D152EA00
:10B8000003353FF4FDAE1046194622E750EA4106E3
:10B8100018BF52EA43067FF4C5AE50EA41047FF4F4
:10B820000DAF52EA43057FF4EBAE12E74FEA410257
:10B8300012F5001215D211D56FF47873B3EB625282
:10B8400012D94FEAC12343F0004343EA505311F0A9
:10B85000004F23FA02F018BF404270474FF000003B
:10B86000704750EA013005D111F0004008BF6FF079
:10B87000004070474FF00000704700BF4FEA4102A0
:10B88000B2F1E04324BFB3F5001CDCF1FE5C0DD93E
:10B8900001F0004C4FEAC0024CEA5070B2F1004F88
:10B8A00040EB830008BF20F00100704711F0804F8B
:10B8B00021D113F13872BCBF01F00040704741F450
:10B8C00080114FEA5252C2F11802C2F1200C10FA54
:10B8D0000CF320FA02F018BF40F001004FEAC12338
:10B8E0004FEAD32303FA0CFC40EA0C0023FA02F3DC
:10B8F0004FEA4303CCE77FEA625307D150EA0133B2
:10B900001EBF4FF0FE4040F44000704701F0004081
:10B9100040F0FE4040F40000704700BF10F8012BDB
:10B9200011F8013B012A28BF9A42F7D0D01A70477C
:10B93000034613F8012B002AFBD1181A013870476F
:10B9400070B501F0FBFB0025054E064CA41BA408B6
:10B95000AC4200D170BD56F8043B98470135F7E77B
:10B96000D4FF3F02F8FF3F0200F060B808B500F0D6
:10B970008FF8BDE8084001F099BB00F0C1BE00F0AF
:10B98000BFBE00F0CBBE00000C2008B5024A034940
:10B9900000F074FDFEE700BF95C43F029CF93F0232
:10B9A0000078B0FA80F040097047012303707047B7
:10B9B0007047000010B50446094B036001F088FD94
:10B9C000214601F0D1FF01F09BFA01F08DFA2046EB
:10B9D000044B40F8043B01F063FE204610BD00BF5D
:10B9E000ECF93F02D4F93F0210B50446FFF7E2FF3D
:10B9F00020462421FFF7C5FF204610BD0EB44FF0AE
:10BA0000200C002300B58CB00DAA52F8041BCDE920
:10BA100004C3CDE900120392016804AA1E2000F0BD
:10BA200049FD0CB05DF804EB03B0704708B502F0B7
:10BA300083FD02F09DFD104B0821188803F0A0FB48
:10BA40000E4B0821188803F09BFB0D4B082118882A
:10BA500003F096FB0B4B0821188803F091FB0A4B6F
:10BA60000121188803F08CFB084B03211888BDE8DE
:10BA7000084003F085BB00BF58AD07105CAD071050
:10BA800060AD071064AD071068AD071050AD07102A
:10BA90002DE9F0418C4C8CB02368B3FA83F35B0939
:10BAA00023608A4B188803F0A8FB894BC7281860CD
:10BAB00040F3C680C838FFF73DFC7BA3D3E90023E1
:10BAC000FFF7CCFDFFF7B2FE0146824B824E1960B4
:10BAD000824BDFF85C82188803F0A1FB804B814D1C
:10BAE000188803F08AFB804B3080188803F085FBB0
:10BAF0007E4B1860FFF71EFC6DA3D3E90023FFF710
:10BB000083FC00227A4BFFF77FFC6BA3D3E9002371
:10BB1000FFF77AFC6AA3D3E90023FFF7BFFAFFF728
:10BB2000ADFEDFED747A07EE100A734B77EE277ADD
:10BB3000D3ED006A77EEA67A77EEA67A77EEA67A4C
:10BB4000052277EEA67AC3ED016AC3ED026AC3ED62
:10BB5000036AC3ED046AF1EE046A1860674B87EE6E
:10BB6000A67A1A60664B88ED007AC3ED007AF3EE90
:10BB7000047AB4EE677AF1EE10FA3288614B61DD37
:10BB8000B2F5FA6F63D900222A704FF496721A60E8
:10BB9000052003F01FFB5C4B5C4A186013685C4F88
:10BBA000002B5ADC012806D13B78B3FA83F35B09FA
:10BBB0003B700A231360AB238DF81030CD238DF832
:10BBC00011303323D8F800008DF81230FFF7C4FB92
:10BBD0000B4602464F495048FFF710FF32884F4945
:10BBE0004D48FFF70BFFD8F8003001A8CDF813300F
:10BBF0003388ADF8173002F02FFE0023092204A984
:10BC000001A802F03CFE02F097FCA02102F0B7FC74
:10BC100002F092FC01A9002202F00EFD3978F1B188
:10BC2000012927D0297801292AD002293AD00029D0
:10BC30002FD121783A4B188803F0B3FA012124E080
:10BC4000002142E7B2F5FA6F01D901229CE71B6897
:10BC5000002BDCBF02232B709AE7013BAAE7314B94
:10BC60002178188803F09DFA01212F4B188803F0E2
:10BC700098FAD7E72B4B188803F093FA2178F4E76A
:10BC8000274B188803F08DFA2178284B188803F089
:10BC900088FAC82001F0D9F9019800F03FFD0CB0F6
:10BCA000BDE8F0810121C5E775931804568E2E403A
:10BCB0006666666666C669C06666666666660A40E9
:10BCC0007B14AE47E1967D40E4AD07104CAD071004
:10BCD0003CAE0710F0AD071038AE071068AD071086
:10BCE00044AD071054AD071048AD0710E8AD07107C
:10BCF0000000303F0000000020AE0710F4AD071038
:10BD000040AE07106CAD071050AD0710ECAD07103A
:10BD1000F8AD0710B1F93F0294AE0710BCF93F022D
:10BD200060AD071058AD07105CAD071064AD07108B
:10BD300034AE071070B51426D0E90053044606FB54
:10BD40000356AE4204D0284603F050F81435F8E705
:10BD5000206800F0E3FC204670BD8842F8B5044638
:10BD60000D46164616D9904215D2A2F11406751A40
:10BD7000A1F114072C44B7421CD02CB13146204607
:10BD800003F09CF8337C2374304603F02FF8143E04
:10BD9000143CF0E70ED0B5420CD02CB12946204619
:10BDA00003F08CF82B7C2374284603F01FF814351D
:10BDB0001434F0E7F8BD00232DE9F041C0E9003369
:10BDC00083604F6804469F420E4624DD4FF01408FE
:10BDD00008FB07F000F094FC0546E0B1D4E900123E
:10BDE00008FB0212FFF7B9FF206800F097FC2560FE
:10BDF000A760D6E9007308FB0378B84509D0394637
:10BE0000284603F075F83B7C143505F8043C1437DC
:10BE1000F3E7736863602046BDE8F081F0B5002564
:10BE20008DB0CDE90055029501F06AF81C4C06462C
:10BE30002746694603A8FFF7BEFF03A906A8FFF738
:10BE4000BAFF184B06A947F8043B09A8FFF7B3FF50
:10BE500009AA1E21384601F069FE09A8FFF76AFF0A
:10BE600006A8FFF767FF104B03A823602662FFF7C1
:10BE700061FF0E4B236001F043F84FF4165101F0BF
:10BE80002FF801F025FB214601F028FD6846FFF759
:10BE900051FF294601200DB0BDE8F04000F006BC7E
:10BEA000FCAD0710D4F93F02A4FB3F02ECF93F02BE
:10BEB00009B504480068044B03441B681B680293DF
:10BEC00009BD000040AD07103400000009B504486A
:10BED0000068044B03441B685B68029309BD0000C3
:10BEE00040AD07103400000009B504480068044B59
:10BEF00003441B689B68029309BD000040AD071016
:10BF00003400000009B504480068044B03441B6872
:10BF10001B69029309BD000040AD0710340000000A
:10BF200009B504480068044B03441B685B6902932D
:10BF300009BD000040AD07103400000009B50448F9
:10BF40000068044B03441B689B69029309BD000011
:10BF500040AD07103400000009B504480068044BE8
:10BF600003441B68DB69029309BD000040AD071064
:10BF70003400000009B504480068044B03441B6802
:10BF80001B6A029309BD000040AD07103400000099
:10BF900009B504480068044B03441B68DB6902933D
:10BFA00009BD000040AD07101800000009B50448A5
:10BFB0000068044B03441B681B6A029309BD000020
:10BFC00040AD07101800000009B504480068044B94
:10BFD00003441B681B6A029309BD000040AD0710B3
:10BFE0001000000009B504480068044B03441B68B6
:10BFF0005B6A029309BD000040AD0710100000000D
:10C0000009B504480068044B03441B689B6A02930B
:10C0100009BD000040AD07101000000009B504483C
:10C020000068044B03441B68DB6A029309BD0000EF
:10C0300040AD07101000000009B504480068044B2B
:10C0400003441B681B6B029309BD000040AD071041
:10C050001000000009B504480068044B03441B6845
:10C060005B6B029309BD000040AD0710100000009B
:10C0700009B504480068044B03441B681B6C029319
:10C0800009BD000040AD07101000000009B50448CC
:10C090000068044B03441B689B68029309BD0000C1
:10C0A00040AD07102400000009B504480068044BA7
:10C0B00003441B68DB68029309BD000040AD071014
:10C0C0002400000009B504480068044B03441B68C1
:10C0D0001B69029309BD000040AD07102400000059
:10C0E00009B504480068044B03441B685B6902936C
:10C0F00009BD000040AD07102400000009B5044848
:10C100000068044B03441B689B69029309BD00004F
:10C1100040AD07102400000009B504480068044B36
:10C1200003441B68DB69029309BD000040AD0710A2
:10C130002400000009B504480068044B03441B6850
:10C140001B6A029309BD000040AD071024000000E7
:10C1500009B504480068044B03441B689B6A0293BA
:10C1600009BD000040AD07102400000009B50448D7
:10C170000068044B03441B68DB6A029309BD00009E
:10C1800040AD07102400000009B504480068044BC6
:10C1900003441B681B6C029309BD000040AD0710EF
:10C1A0002400000009B504480068044B03441B68E0
:10C1B0005B69029309BD000040AD07104C00000010
:10C1C00009B504480068044B03441B685B6C029388
:10C1D00009BD000040AD07103000000009B504485B
:10C1E0000068044B03441B689B6C029309BD00006C
:10C1F00040AD07103000000009B504480068044B4A
:10C2000003441B68DB6C029309BD000040AD0710BE
:10C210003000000009B504480068044B03441B6863
:10C220005B6D029309BD000040AD071030000000B7
:10C2300009B504480068044B03441B689B680293DB
:10C2400009BD000040AD07106000000009B50448BA
:10C250000068044B03441B689B6C029309BD0000FB
:10C2600040AD07106000000009B504480068044BA9
:10C2700003441B68DB6C029309BD000040AD07104E
:10C280006000000009B504480068044B03441B68C3
:10C290001B6D029309BD000040AD07106000000057
:10C2A00009B504480068044B03441B689B6D029366
:10C2B00009BD000040AD07106000000009B504484A
:10C2C0000068044B03441B681B6E029309BD000009
:10C2D00040AD07106000000009B504480068044B39
:10C2E00003441B68D3F89830029309BD40AD071092
:10C2F0006000000009B504480068044B03441B6853
:10C30000D3F8F030029309BD40AD07106000000083
:10C3100009B504480068044B03441B685B6802933A
:10C3200009BD000040AD07100000000009B5044839
:10C330000068044B03441B68DB68029309BD0000DE
:10C3400040AD07100000000009B504480068044B28
:10C3500003441B685B69029309BD000040AD0710F0
:10C360000000000009B504480068044B03441B6842
:10C370005B68029309BD000040AD07101400000087
:10C3800009B504480068044B03441B689B6802938A
:10C3900009BD000040AD07101400000009B50448B5
:10C3A0000068044B03441B68DB68029309BD00006E
:10C3B00040AD07101400000009B504480068044BA4
:10C3C00003441B681B69029309BD000040AD0710C0
:10C3D0001400000009B504480068044B03441B68BE
:10C3E0005B69029309BD000040AD07101400000016
:10C3F00009B504480068044B03441B689B6A029318
:10C4000009BD000040AD07101400000009B5044844
:10C410000068044B03441B681B6B029309BD0000BA
:10C4200040AD07101400000009B504480068044B33
:10C4300003441B689B6F029309BD000040AD0710C9
:10C440001400000009B504480068044B03441B684D
:10C450009B68029309BD000040AD0710500000002A
:10C4600009B504480068044B03441B68DB68029369
:10C4700009BD000040AD07105000000009B5044898
:10C480000068044B03441B685B6B029309BD00000A
:10C4900040AD07104800000009B504480068044B8F
:10C4A00003441B681B6D029309BD000040AD0710DB
:10C4B0004800000009B504480068044B03441B68A9
:10C4C0005B6D029309BD000040AD071048000000FD
:10C4D00009B504480068044B03441B68DB6E0293F3
:10C4E00009BD000040AD07104800000009B5044830
:10C4F0000068044B03441B681B6F029309BD0000D6
:10C5000040AD07104800000009B504480068044B1E
:10C5100003441B68DB6B029309BD000040AD0710AC
:10C520002C00000009B504480068044B03441B6854
:10C530005B68029309BD000040AD071028000000B1
:10C5400009B504480068044B03441B689B680293C8
:10C5500009BD000040AD07102800000009B50448DF
:10C560000068044B03441B68DB68029309BD0000AC
:10C5700040AD07102800000009B504480068044BCE
:10C5800003441B681B69029309BD000040AD0710FE
:10C590002800000009B504480068044B03441B68E8
:10C5A0005B69029309BD000040AD07102800000040
:10C5B00009B504480068044B03441B689B69029357
:10C5C00009BD000040AD07102800000009B504486F
:10C5D0000068044B03441B68DB69029309BD00003B
:10C5E00040AD07102800000009B504480068044B5E
:10C5F00003441B681B6A029309BD000040AD07108D
:10C600002800000009B504480068044B03441B6877
:10C610001B6B029309BD000040AD0710280000000D
:10C6200009B504480068044B03441B685B6B029324
:10C6300009BD000040AD07102800000009B50448FE
:10C640000068044B03441B681B6C029309BD000087
:10C6500040AD07102800000009B504480068044BED
:10C6600003441B685B6C029309BD000040AD0710DA
:10C670002800000009B504480068044B03441B6807
:10C680005B68029309BD000040AD07100800000080
:10C6900009B504480068044B03441B685B690293B6
:10C6A00009BD000040AD07100800000009B50448AE
:10C6B0000068044B03441B68DB6A029309BD000059
:10C6C00040AD07100800000009B504480068044B9D
:10C6D00003441B68D3F88830029309BD40AD0710AE
:10C6E0000800000009B504480068044B03441B68B7
:10C6F000D3F89430029309BD40AD07100800000044
:10C7000009B504480068044B03441B681B68029386
:10C7100009BD000040AD07100400000009B5044841
:10C720000068044B03441B685B68029309BD00006A
:10C7300040AD07100400000009B504480068044B30
:10C7400003441B689B68029309BD000040AD0710BD
:10C750000400000009B504480068044B03441B684A
:10C760005B6A029309BD000040AD071004000000A1
:10C7700009B504480068044B03441B68DB6A029354
:10C7800009BD000040AD07100400000009B50448D1
:10C790000068044B03441B68DB6B029309BD000077
:10C7A00040AD07100400000009B504480068044BC0
:10C7B00003441B681B6C029309BD000040AD0710C9
:10C7C0000400000009B504480068044B03441B68DA
:10C7D0005B6C029309BD000040AD0710040000002F
:10C7E000002340681A46FFF79DBE002202214068E0
:10C7F000FFF7B4BE002240681146FFF7A1BE002239
:10C8000040681146FFF7B8BE002340681A46194633
:10C81000FFF7C0BE002340681A461946FFF7C8BE9E
:10C8200000214068FFF70ABF00214068FFF714BFEE
:10C830000022406881F00101FFF7C8BE0022406875
:10C84000FFF7E0BE002240681146FFF7E9BE002274
:10C8500040681146FFF7C8BE2DE9F04395B0144675
:10C860000D46074600F0AAFB00211C220DA80091EE
:10C8700002F059FE402320460C9300216B460CAA7F
:10C88000FFF7EEFD044600284BD1024601216868FF
:10C89000FFF772FE0221804622466868FFF76CFEB1
:10C8A00021468146009E002E3BD0002939D1736875
:10C8B000022B03D00A2B11D0F669F4E7B8F1000F70
:10C8C000FAD0716906A804313C1D07AD00F0A4FB45
:10C8D0000FCD0FC42B6841462370EDE7B9F1000F6F
:10C8E000EAD0102201A8746902F01DFE062301ADF2
:10C8F0008DF8143004F1080318342A461868596872
:10C90000083303C2A3421546F7D101A906A83C1D6E
:10C9100007AD00F061FB0FCD0FC42B6849462370B3
:10C92000CAE70098FFF78EFD384615B0BDE8F083E2
:10C93000024B034A1A6000225A60704744AE071047
:10C9400004FA3F02002240681146FFF715BE00229C
:10C9500040681146FFF748BE002240681146FFF7C5
:10C960005FBE00224068FFF74DBE0022406881F0A4
:10C970000101FFF72BBE002340681A461946FFF756
:10C9800017BE002340681A461946FFF703BE00226F
:10C9900040681146FFF7D4BD002202214068FFF72E
:10C9A000DDBD002340681A46FFF7BCBD0422024BE0
:10C9B0005A60024A1A6070474CAE071040FA3F02B4
:10C9C0007047F8B5064615460C468F18BC4206D08F
:10C9D000336830469B6814F8011B9847F6E72846F1
:10C9E000F8BD0022007CFFF7EFBA0021007CFFF7C2
:10C9F000F9BA0021007CFFF703BB0021007CFFF7A0
:10CA00000DBB0021007CFFF717BB10B504461421B5
:10CA1000FEF7B7FF204610BD38B5044615464FF463
:10CA20007A730022C4E90123094B0846217423606C
:10CA30002946FFF71DFBBF3008D16B69DB0705D521
:10CA40006868FFF76BFEE868FFF768FE204638BDB0
:10CA500084FA3F02012200F1100313F8101C18465B
:10CA6000012908D153F8041C02EB4102013A03F1F9
:10CA70001003F2D17047022904BF53F8041C521866
:10CA8000F4E70EB4F0B588B0102100AF07F134051B
:10CA900055F8042B04462B4678187A60FD60FFF7A2
:10CAA00059FE0F287A681AD900F1080323F007030A
:10CAB0006E46ADEB030D411C2B466846FD60FFF74B
:10CAC00049FE021E04DD2368694620469B6898479C
:10CAD000B5462037BD46BDE8F04003B0704700289A
:10CAE000F7D0236802469B68204607F1100198475B
:10CAF000EFE710B543680446013B436063B9036840
:10CB00009B689847A368013BA3602BB92368204624
:10CB1000BDE81040DB68184710BD38B50B68044607
:10CB200003604D6843689D4208D015B16B680133BE
:10CB30006B60606808B1FFF7DCFF656038BD07B562
:10CB400003688DF8071001229B680DF107019847D3
:10CB500003B05DF804FB0B461146002210B50446F5
:10CB6000C0E9002283600BB9204610BDFFF7D5FF56
:10CB7000FAE78368EBB11A78032A1AD8DFE802F0E3
:10CB80000417021B0520704702685B685268D05C7E
:10CB90002D2812D0A0F13003092B0ED974280ED005
:10CBA00066280CD0A0F16E03584258417047062009
:10CBB0007047002070470420704703207047022010
:10CBC000704710B50446FFF7D4FF02280ED0C31EED
:10CBD000DBB2012B14D82268A36850685B680A2274
:10CBE000BDE810400021184402F09EBD2268A368F1
:10CBF00052685B68D05CA0F174035842584110BD84
:10CC00000020FCE738B500230446C0E900330E4895
:10CC1000C4E90203A9B10B78032B06D08BB91368C2
:10CC200058684B68C35C6E2B07D013684D68586812
:10CC30008B6828445B1BA060E36011462046FFF729
:10CC40006CFF204638BD00BF6AFB3F0238B50025A7
:10CC50000B4604461146C0E90055C0E90255C0E93B
:10CC600004554BB11A78012A06D103F11002DB6892
:10CC700082604361FFF751FF204638BD10B543691C
:10CC8000044663B18068013BE0601030A060206121
:10CC9000636113B1FFF7DEFEA060012000E01846DB
:10CCA00010BD10B57D210446FFF749FF0123204642
:10CCB000237110BD08B50379012B02D0022B04D0DB
:10CCC00008BD2C21FFF73BFFFAE73A21FAE710B540
:10CCD0000446FFF7EFFF20467B21FFF730FF0023DC
:10CCE0002046237110BD000013B504460191FFF7E3
:10CCF000E1FF23682046DB68019A03499847012336
:10CD00002046237102B010BDA4FA3F0213B50446B9
:10CD10000191FFF7CFFF23682046DB68019A0349A2
:10CD2000984701232046237102B010BDA7FA3F02A5
:10CD30002DE9F0470D469046222104462F46FFF785
:10CD4000FEFEDFF8A490A8444745BA463DD017F848
:10CD5000016B222E06D05C2E04D0304602F0A4FBDC
:10CD60000028F1D12368294620469B68AAEB0502DA
:10CD700098475C212046FFF7E2FE0D2E0AD8072EC9
:10CD80001CD9A6F10803052B18D8DFE803F00D0F16
:10CD900011171315222E01D05C2E0FD131462046DB
:10CDA000FFF7CDFE3D46CFE76221F8E77421F6E7B5
:10CDB0006E21F4E76621F2E77221F0E7236832463C
:10CDC00049462046DB689847ECE7BD4205D023681A
:10CDD000294620469B687A1B984722212046FFF768
:10CDE000AEFEBDE8F08700BFAAFA3F0213B50446C5
:10CDF000CDE90021FFF75EFFDDE900212046FFF7C6
:10CE000097FF02232046237102B010BD13B50446DC
:10CE1000CDE90021FFF74EFFDDE900212046FFF7B5
:10CE200087FF01232046237102B010BD10B50446D0
:10CE3000006808B1FFF75DFE204610BD41747047E1
:10CE40007047704708B50021007CFFF777F840EA8B
:10CE5000E07008BD08B50121007CFFF76FF840EADB
:10CE6000E07008BD08B5007CFFF75AF820EAE070D2
:10CE700008BD08B5007CFFF745F820EAE07008BD62
:10CE800013B50446007C0191FFF74AF80028019988
:10CE900001DC607C20B1207CFFF75EF820EAE070C6
:10CEA00002B010BD007CFFF765B810B50446142130
:10CEB000FEF767FD204610BD10B54FF47A730446A7
:10CEC00008460021C4E90113044B207423600123A8
:10CED00011466374FEF7ECFF204610BDB8FA3F021E
:10CEE0000022007CFEF7F2BF007CFEF7FDBF10B50C
:10CEF00004461422002102F016FB204610BD00005B
:10CF000010B588B003A8FFF7F2FF0C4CD4E88F1FD0
:10CF100011F001010FD120460191FEF741FD019969
:10CF200048B103AA0648FFF7C7FF2046FEF73DFDBC
:10CF3000044802F0B3FA024808B010BD54AE07101E
:10CF400058AE0710A9CF3F02704710B5044618210C
:10CF5000FEF717FD204610BDF0B5037D0E46062BEB
:10CF60004FF000048DB000F1040712D000F1080565
:10CF700015F8011D0A22304601F01BF9AF420444A6
:10CF800019D0002CF4D02E21304601F00FF90444C2
:10CF9000EEE72F236A4639460A208DF80040FFF756
:10CFA00001F96846FEF7C4FC33680246694630461C
:10CFB000DB689847044620460DB0F0BD10B5044626
:10CFC000044B1122002140F8043B02F0ACFA204649
:10CFD00010BD00BFE8FA3F020346074A10B543F808
:10CFE000042B01F1100251F8044B914243F8044B19
:10CFF000F9D10A781A7010BDE8FA3F0210B59DF811
:10D00000084044EA032343EA0242042342EA01615E
:10D010004160037510BD000007B5064B0360CB7877
:10D0200000938B784A780978FFF7E8FF03B05DF842
:10D0300004FB00BFE8FA3F0210B58368044613B151
:10D04000032201469847204610BD0021FFF720BB70
:10D05000014B1860704700BF7CAD071008B50F4B3F
:10D0600043B1FFF74DFF03681B699847002801DDB6
:10D0700000E000BF0A4B43B101F0B4FF03681B6935
:10D080009847002801DD00E000BF064B0BB101F01E
:10D09000EFFF054B0BB102F021F808BD00000000C6
:10D0A00000000000000000000000000008B5FFF7CD
:10D0B000D5FFFFF749F9014B186008BDFCAE07101A
:10D0C0000548064A08B5121A054902F005FA054B4B
:10D0D000054A1A6008BD00BF00B4071004B4071069
:10D0E00034FF5F0800B407101E1C279A002307B501
:10D0F0001A466FF077010093FFF7F4FA03B05DF87A
:10D1000004FB000007B543880A2B08D0502B0BD135
:10D11000094B1B684BB103B05DF804EB1847FFF7F0
:10D12000E5FF03B05DF804FB00231A466FF07701BA
:10D130000093FFF7D7FAF4E770AE0710002110B59F
:10D140001148FFF73FFB114B1A68114B9A420CBF75
:10D15000012200220F4B1A7001D0FFF7B1FFFFF739
:10D16000D7F8044602F0E8F90B4B13B1204600E073
:10D1700000BF00210848FFF7C7F9BDE810400021B3
:10D180000648FFF7A1BA00BFB9D13F0200B40710AB
:10D190001E1C279A6CAE0710000000006DD23F02E3
:10D1A0000022014B9A60704774AE0710024B1A6858
:10D1B000024B1A60704700BF70AD071084AE0710B5
:10D1C00080680368DB6818477047084611B10B6830
:10D1D0005B6818477047704770477047704738B5AD
:10D1E00004460D4600682E2102F0E1F92368C31AB7
:10D1F0002B6023B1037803B1013023682060184607
:10D2000038BD10B504460C21FEF7BBFB204610BD0F
:10D2100010B504460421FEF7B4FB204610BD10B53E
:10D2200004460421FEF7ADFB204610BDFEF7E4BF27
:10D2300008B5FEF773FBB0FA80F0400908BD7047EF
:10D2400010B50C46FFF75CFE844205D1FFF758FE8F
:10D25000BDE81040FFF748BE01F0C4FE844205D18E
:10D2600001F0C0FEBDE8104001F05FBD2CB12368A5
:10D270002046BDE810405B68184710BD0B6803608E
:10D280004B68436013B15A6801325A60704713B556
:10D29000044608460191FEF74BFB024620460199E1
:10D2A00002B0BDE81040FFF7B1BD13B50446084613
:10D2B0000191FEF73DFB0246204623680199DB6899
:10D2C00002B0BDE81040184707B503688DF8071095
:10D2D0000122DB680DF10701984703B05DF804FBFC
:10D2E0000A6810B502604A6842600022C0E9022262
:10D2F00002618C688A608460CC68CA60C4600C6912
:10D300000A61046110BD00002DE9F74F4FF0140AC7
:10D31000D0E90084174645460AFB04F40093174BF6
:10D32000A4105C43002C21DD66100AFB06F005EB1F
:10D330000009B9F804B03A465F4528BF5A46285854
:10D34000019102F046F900284FF0010301990BD139
:10D350005F4503D1009A13703446E3E7FCD9A61B5E
:10D3600009F11405013EF7E7F9DBF5E7A5EB080540
:10D370000248AD10684303B0BDE8F08FCDCCCCCCF3
:10D380007FB50369057E019103B3F9B1002600F171
:10D390000C04039603A901A8FFF721FF0146A8B1D9
:10D3A0000DF10B032046039A8DF80B60FFF7ACFFDD
:10D3B0009DF80B3053B12368142404FB0034B4F9F6
:10D3C00006300834002BA8BFDDB2E3E7284604B0DE
:10D3D00070BD0EB4F0B58CB000AF07F1440555F840
:10D3E000042B04462B46202107F110007A60FD60D3
:10D3F000FFF7B0F91F287A681AD900F1080323F063
:10D4000007036E46ADEB030D411C2B466846FD60DD
:10D41000FFF7A0F9021E04DD236869462046DB6899
:10D420009847B5463037BD46BDE8F04003B0704779
:10D430000028F7D023680246DB68204607F1100178
:10D440009847EFE710B5084CD4E88F3FDB0709D4C5
:10D450002046FEF7A5FA28B12046FEF7A6FA0348B3
:10D4600002F01CF8024810BD8CAE07103FD33F02FB
:10D4700074AD071010B5084CD4E88F3FDB0709D412
:10D480002046FEF78DFA28B12046FEF78EFA0348B3
:10D4900002F004F8024810BD90AE0710A7D33F0277
:10D4A00078AD071038B500250446C0E90055C0E93D
:10D4B00004558560856140F8245FFEF781FEFFF723
:10D4C000C1FFE061FFF7D6FF25732062204638BD1B
:10D4D00010B50A4CD4E88F3FDB070CD42046FEF78A
:10D4E0005FFA40B10648FFF7DDFF2046FEF75DFA20
:10D4F000044801F0D3FF024810BD00BF88AE0710FA
:10D5000098AE0710ADDB3F020023024A02490348F0
:10D51000FEF7ECBF95D93F0221D93F02A1D83F02C7
:10D5200000231A4619461846FEF7E0BF37B50446F1
:10D530008D686846FFF7A2FE6A4629462046FFF737
:10D5400085FB01A8FFF772FC204603B030BD37B55C
:10D550000446CD686846FFF791FE6A462946204694
:10D56000FFF750FB01A8FFF761FC204603B030BD78
:10D5700037B504460D696846FFF780FE6A462946BE
:10D580002046FFF7E8FA01A8FFF750FC204603B059
:10D5900030BD000070B58AB00D46014604A8FFF703
:10D5A000C5FF144E04A8FFF769FBE8B1684604A95B
:10D5B000FFF7CDFF31460298FFF73AFE044610B15F
:10D5C0002C1E18BF012401A8FFF730FC002CE9D065
:10D5D000684604A9FFF7CCFF6846FFF7F2FA286017
:10D5E00001A8FFF723FCDDE705A8FFF71FFC0AB041
:10D5F00070BD00BF10FB3F0237B50C4613492046F3
:10D600001546FEF78BF950B9FFF77AFC4FF4165127
:10D61000FFF766FC03B0BDE83040FFF771BC204661
:10D620000B49FEF77BF978B94FF4165301A9284648
:10D630000193FFF7AFFF01F0D5FC019901F072FBF8
:10D6400001F0D0FC03B030BD0020FBE715FB3F022A
:10D650001CFB3F0270B51426D0E90053044606FBBC
:10D660000356AE4205D005F10800FFF7F3FF14356D
:10D67000F7E72068FFF752F8204670BD70B5044602
:10D68000D0E9005305EB0316AE4204D0284601F062
:10D69000ADFB1035F8E72068FFF740F8204670BD75
:10D6A00010B504460C30FFF7D5FF2046FFF7E6FF24
:10D6B000204610BD10B50446034B40F8043BFFF76D
:10D6C000EFFF204610BD00BFD4F93F0210B504465D
:10D6D000FFF7F0FF20462421FEF753F9204610BD46
:10D6E00010B50446024B0360FFF7E4FF204610BD6F
:10D6F000BCFB3F0210B50446FFF7F2FF2046242191
:10D70000FEF73FF9204610BD0022C0E900228260EA
:10D7100010B50C680A6004604C684A6044608C680C
:10D720008A60846010BD10B5044603681868FEF76F
:10D7300071FD204610BD00002DE9F04F87B0039326
:10D740001C4B80465B688946C3F3080316466BB9D9
:10D75000FFF7BEFE044600F12403406A0593FFF77D
:10D7600065FD237B2BB105A8FFF7DDFF07B0BDE802
:10D77000F08F01235FFA89F92373D4E9005305EB95
:10D78000830AAA4512D055F8047B3146381DFFF7AD
:10D79000F7FD8145F5D3039A3B680092D3F808B0B2
:10D7A0004A46334641463846D847EAE700232373C2
:10D7B000D9E700BF00ED00E02DE9F74F9B461A4B7B
:10D7C00080465B688946C3F3080316466BB9FFF7CA
:10D7D0007FFE044600F12403406A0193FFF726FD13
:10D7E000237B2BB101A8FFF79EFF03B0BDE8F08FAC
:10D7F0000123F6B22373D4E9005305EB830A5545A0
:10D800000ED055F8047B5946381DFFF7B9FD864206
:10D81000F5D33B684A4641463846DB689847EEE711
:10D8200000232373DEE700BF00ED00E02DE9F341A4
:10D83000164B05465B680F46C3F308031BBBFFF797
:10D8400047FE044600F12403406A0193FFF7EEFC13
:10D85000D4E90063462406EB8308B04509D101A84A
:10D86000FFF761FFA542B4BF0020012002B0BDE870
:10D87000F08156F8040B39460430FFF781FD8442ED
:10D88000A8BF0446E9E70020F0E700BF00ED00E094
:10D89000F8B5D0E901539D4204460E460DDB6F1CDE
:10D8A000002F006804DDB900FEF746FF18B9F8BD87
:10D8B000FEF734FF00202060A7602768626807EB4E
:10D8C00085019200A2EB8502081D01F012FE47F8C7
:10D8D00025606368012001336360E8E737B50446DB
:10D8E00000F12403406A01930D46FFF79FFCD4E941
:10D8F000003203EB8202934219460AD009680433CE
:10D90000A942F8D101A8FFF70EFF0025284603B071
:10D9100030BD29462046FFF7BBFF05460028F1D061
:10D920006368012B01D1FFF7EFFD01A8FFF7FBFEB4
:10D93000ECE70B4670B50446D0E9000200EB82022A
:10D9400082420FD001461D6851F8046BAE4207D1E8
:10D95000521A01F0CEFD01206368013B636070BD87
:10D960000846EDE70020FAE71FB5044600F124035E
:10D97000406A01910393FFF759FC204601A9FFF784
:10D98000D8FF18B163680BB9FFF7CAFD03A8FFF70A
:10D99000CAFE04B010BD182370B50446D0E9045681
:10D9A00003FB0656AE4215D0204605F11001FFF7E5
:10D9B000C0FF63680BB9FFF7B3FDE069296903682D
:10D9C000DB689847696919B1206A0368DB68984782
:10D9D0001835E7E71826D4E9045306FB0356AE4290
:10D9E00004D0284601F002FA1835F8E700236361F5
:10D9F00070BD73B50446FFF793FD04F12403606A1C
:10DA00000193FFF713FC2046FFF7C5FF01A8FFF7BE
:10DA10008AFE606A08B1FEF7E1FBD4E904531826D8
:10DA200006FB0356AE4204D0284601F0DFF9183554
:10DA3000F8E72069FEF772FE2068FEF76FFE2046C9
:10DA400002B070BD0148FFF7D4BF00BF98AE071009
:10DA50008842F8B504460D46164615D9904214D2B0
:10DA6000A2F11406751AA1F114072C44B7421AD07A
:10DA70001CB131462046FFF733FC06F10800FFF7E2
:10DA8000E9FD143E143CF1E70DD0B5420BD01CB1BA
:10DA900029462046FFF724FC05F10800FFF7DAFDD0
:10DAA00014351434F1E7F8BD8842F8B504460D4644
:10DAB000164614D9904213D2A2F11006751AA1F19C
:10DAC00010072C44B74218D01CB13146204601F053
:10DAD000F5F9304601F08AF9103E103CF2E70CD01F
:10DAE000B5420AD01CB12946204601F0E7F9284684
:10DAF00001F07CF910351034F2E7F8BD70B50E1E58
:10DB0000054611DD3001FEF7FBFD044658B1D5E9AD
:10DB1000001201EB0212FFF7C7FF2868FEF7FEFDB7
:10DB200001202C60AE6070BD0024F6E72DE9F04FB7
:10DB300090460023462295B00391D8F8041004467D
:10DB40009942C0E90033C0E90233C0E90433CDE9AA
:10DB5000083302760A9323DCD8E90057142303FB29
:10DB60000757AF423BD029460BA801F0A7F90BA9F4
:10DB70000FA8099E01F0A2F9DDE9091399421BDA09
:10DB8000089B099A03EB0616314603EB021206F1D5
:10DB90001000FFF789FFEEB9099B0133099311E0EB
:10DBA00008A8FFF7ABFF0028D6D108A8FFF766FD4D
:10DBB000204615B0BDE8F08F013108A8FFF79EFFA1
:10DBC0000028DDD10FA801F011F90BA801F00EF922
:10DBD0001435C6E730460FA901F070F9DCE70026DE
:10DBE0004FF01409CDE90B660D96DDE908239E423E
:10DBF0007CDA3301D35806930BB90136F5E70023DD
:10DC0000079309FB06F30BAD029307A906A8FFF7DC
:10DC1000E6FA82460028F0D04FF0000301468DF866
:10DC200017302846079A0DF11703FFF76DFB9DF893
:10DC300017700190002F4AD1BDF81C30CDE9117743
:10DC4000ADF840304FF6FF73CDF83CA0ADF8423050
:10DC50001397D5E90132934217DB03F1010ABAF1B8
:10DC6000000F30DD09FB0AF0FEF74AFD834660B382
:10DC7000D5E9001209FB0212FFF7EAFE2868FEF759
:10DC80004DFDC5F800B0C5F808A02B68019A09FB46
:10DC9000023A6A68514609FB02320AF11400FFF7A2
:10DCA000D7FEBAF1000F03D050460FA9FFF718FBBB
:10DCB0006B6801336B6011A8FFF7CCFC3FB10BA878
:10DCC000FFF7C8FC71E7BB46D8E70127F3E7019BE4
:10DCD0002D6809FB0355069B1B782BB9D8F800303B
:10DCE000029A13441B7CEB8008358EE72168226082
:10DCF00062686360A36809920A9A0A93E368A26063
:10DD00000B9A0B932369E2600C9A0C93636922616E
:10DD10000D9A0D93039B089162612376CFE7000073
:10DD2000F0B504462646174687B00D4668461946A4
:10DD3000FEF741F80B4B694646F8043B03A8FEF793
:10DD40003AF8394603AA3046FFF7F0FE03A8FDF77C
:10DD5000F1FF6846FDF7EEFF2046034B2562236086
:10DD600007B0F0BDD4F93F02A4FB3F02F0B50F4667
:10DD700085B038461C4916461D460A9CFDF7CEFD67
:10DD8000C0B9A4B1294601A8FFF7BEFC2420174959
:10DD900001F06BFA054630B101AB32462146FFF780
:10DDA000BFFF134B2B6001A8FDF7C4FF2C46204694
:10DDB00005B0F0BD38460F49FDF7B0FD90B9002C15
:10DDC000F5D0294601A8FFF79FFC2420074901F060
:10DDD0004CFA05460028E6D03246214601ABFFF753
:10DDE0009FFFE0E70024E2E724FB3F0248FD3F02FB
:10DDF000BCFB3F0228FB3F02014B024A1A607047FE
:10DE000094AE071039FB3F022DE9F047089DD0F88A
:10DE1000209004460E4617469846FFF771F8814554
:10DE20004DD02B79190704D520466A695449FFF76C
:10DE3000D0FAB8F1000F0DD05B212046FFF744FA6D
:10DE400041462046FFF731FA236802222046DB686C
:10DE50004C4998472B79DA0724D5D5F808802F212B
:10DE6000404601F0CAFB08B100F1010841462046D6
:10DE7000FFF71BFA2B799B0708D53A212046FFF7BD
:10DE800023FA2046EA684049FFF7A3FA2A79236873
:10DE900012F0040F20464FF00202DB6814BF3B492A
:10DEA0003B4998472B7958071DD529690B461A46D7
:10DEB00013F8010B60B1202808D11946F7E735485F
:10DEC000FEF7C5FC0028ACD0BDE8F0872828EED1CD
:10DED0002368521A2046DB689847236804222046AC
:10DEE000DB682D49984700213846FEF7F1FA0146D4
:10DEF0002046FFF7DAF9236802222046DB6824492E
:10DF000098471EB131462046FFF7CFF92B7913F021
:10DF1000300F2CD023682149DB6802222046984725
:10DF20002B79D9060AD52368072220461C49DB68CD
:10DF300098472046AA691B49FFF74BFA2B799A06A6
:10DF400011D5DB0605D5236802222046DB680F4980
:10DF500098472368204614490A22DB6898472046E0
:10DF6000E969FFF7A2F95D212046FFF7ADF92368C3
:10DF70002046BDE8F0470222DB680C49184700BF85
:10DF80003DFB3F0244FB3F02A4FA3F0247FB3F0236
:10DF90004CFB3F0244AE07104AFB3F024FFB3F02DF
:10DFA00052FB3F025AFB3F025DFB3F0268FB3F0210
:10DFB0002DE9F0410446076A0D461646FEF7A0FF1C
:10DFC000874207D0206A324603682946BDE8F041FF
:10DFD000DB6818470348FEF73AFC0028F2D0BDE89A
:10DFE000F08100BF44AE07102DE9F04385B0D0F8B2
:10DFF000209005460F4690461E460C9CFEF780FF7B
:10E00000814505D14948FEF722FC002840F08A806E
:10E010004FF000092B6A464A01A8019203938DF83C
:10E020000890FEF754FE49464046FEF751FA8046F6
:10E030004049012201A8FEF7D9FE4146FFF727F922
:10E040003FB13D49012201A8FEF7D0FE3946FFF756
:10E050001EF93EB13949012201A8FEF7C7FE31463B
:10E06000FFF715F92379DF070ED5A6682F21304673
:10E0700001F0C3FA00B1461C3149012201A8FEF7A4
:10E08000B5FE3146FFF703F923799E0707D52D49E1
:10E09000022201A8FEF7AAFEE168FEF725FE237919
:10E0A000580714D5266933461F4613F8012B2AB1A9
:10E0B000202A01D11E46F7E7282AF5D1022222495B
:10E0C00001A8FEF793FE3146BA1BFEF79FFE2379A7
:10E0D000190707D51D49012201A8FEF787FE6169CE
:10E0E000FEF714FE2379DA0608D5042218490DEB51
:10E0F0000200FEF77BFEA169FEF7F6FD23799B0681
:10E1000007D51449062201A8FEF770FEE169FFF762
:10E11000BEF801A8FEF7C5FD286A022203680E4971
:10E12000DB68984705B0BDE8F08300BF44AE071038
:10E130008CFB3F021AFB3F026BFB3F02CFFE3F020C
:10E140006DFB3F026FFB3F0272FB3F0275FB3F021C
:10E1500077FB3F027CFB3F0268FB3F02F8B50646B7
:10E160000D4600248F18BD420CD0336830469B68A2
:10E1700015F8011B9847031E01DB1C44F3E7002C34
:10E1800008BF1C462046F8BD13B50446084659B1E1
:10E190000191FDF7CDFB0246204623680199DB681B
:10E1A00002B0BDE81040184702B010BD03689B687C
:10E1B00018470023012A98BF0A2230B58BB08DF88A
:10E1C000243009AC0D46B1FBF2F101FB125303F010
:10E1D000FF03092B94BF30333733DBB2AA4204F874
:10E1E000013DEFD92146FFF7CFFF0BB030BD70479F
:10E1F000064B10B5994200F10C0405D0084601F019
:10E200003BF8002808BF0024204610BD74FA3F02E6
:10E2100010B504463021FDF7B4FB204610BD302177
:10E22000FDF7AFBBF0B50025EC1C8C420DD86E1C81
:10E23000875D445D974205D12644B14205D31D60F8
:10E24000601CF0BD01342544EEE70020F9E738B545
:10E25000036805468B420C4608D011B14B68013368
:10E260004B60286808B1FEF744FC2C6038BD000004
:10E27000002310B50370044B04461868FDF7BCFF7B
:10E2800001232046237010BDC4AE071010B50378DB
:10E2900004461BB1024B1868FDF7BCFF204610BDB9
:10E2A000C4AE071082B06A4603460868496803C2D4
:10E2B0006A4603CA18601846596002B0704708B52C
:10E2C00082798B799A4206D1062201F0F5F8B0FAEC
:10E2D00080F0400908BD0020FCE7000070B504464E
:10E2E000384B86B018689B880090ADF80430364BE8
:10E2F000A67918689B880290ADF80C307EB906228A
:10E300006946204601F0D8F838B10622204602A915
:10E3100001F0D2F8003818BF012006B070BDA38804
:10E320002068ADF8143006F0FD03012B049024D1D1
:10E330009DF81550062205F03F05694604A88DF8A2
:10E34000155001F0B9F800283AD065F03F050622D3
:10E3500002A904A88DF8155001F0AEF880B36079D9
:10E36000012E00F0C00004D1C02814BF00200120FD
:10E37000D3E7B0FA80F04009CFE7022E1ED1032286
:10E380009DF815500DEB020105F03F050DF113004E
:10E390008DF8155001F090F890B165F03F0503221B
:10E3A0000DF10B010DF113008DF8155001F084F8FB
:10E3B00030B1607900F0C0004028D6E70120ACE71A
:10E3C0000020AAE774F93F023AFC3F024FF0FF3306
:10E3D00003608380002070470021024608B5016079
:10E3E0004160FFF7F3FF1046917108BD10B5D0E909
:10E3F000063203EBC2029342184605D00468083384
:10E4000024888C42F7D110BD0020FCE770B50025B0
:10E41000064605603020FDF7B0FA044698B10123A6
:10E42000C0E901330A4B0E3040F80E3C4FF6FF7343
:10E4300020F8023CFFF7D0FFC4E90655C4E90855AF
:10E44000C4E90A55A57574600C343046346070BD5B
:10E45000C8FC3F0237B50D46044601A8FFF708FF88
:10E460002A6801A8D2F802302360D2F8063063602F
:10E47000FFF70CFF204603B030BD30B505460C4613
:10E4800087B001A8FFF7F4FE2A68236812881B886A
:10E490009A420DD1294602A8FFF7DCFF214604A8C5
:10E4A000FFF7D8FF04A902A8FFF709FF044600B947
:10E4B000002401A8FFF7EAFE204607B030BD0000A7
:10E4C00070B506467420FDF758FA0446A0B1002541
:10E4D000C0E90055C0E90255C0E90455C0E9065538
:10E4E00005622430FFF792FF04F12C00FFF78EFF46
:10E4F000E563E564E565E566346024B90A200A4A07
:10E500000A49FDF7BBFF0020FDF792FE20B10A206B
:10E51000054A0749FDF7B2FF002231680548FDF7BB
:10E52000E9FE304670BD00BF95C43F02FCFB3F02D0
:10E5300041FC3F0205EB3F0210B50A4CD4E88F3F87
:10E54000DB070CD42046FDF72BFA40B10648FFF755
:10E55000B7FF2046FDF729FA044800F09FFF024864
:10E5600010BD00BFC0AE0710C8AE0710B1ED3F022E
:10E5700008B50020FDF75CFE00EAE07008BD0C2342
:10E5800030B5002485B0ADF8063003230D4601A850
:10E590002146CDE90244ADF80430FDF765FE0028C0
:10E5A00005DB214601A8ADF80850FDF74FFE05B088
:10E5B00030BD19B90A460846FDF764BE0022D1E90C
:10E5C0000001F9E738B5141E0546436802DB6218FE
:10E5D0009A4200DD5C1A2A68501801191A44521A2E
:10E5E00000F087FF6A68121B6A6038BD37B50A46BB
:10E5F00004460D46D0E9000101ABFFF713FE0246C9
:10E6000038B120460199FFF7DDFF29462046FFF784
:10E61000EDFF03B030BD10B50C4629B90A460846D7
:10E62000BDE81040FDF73CBE01212046FFF7DEFFAC
:10E63000D4E900010022F3E738B504461546FFF798
:10E64000B8FF00280ADB29462046FFF7E4FF002830
:10E6500004DBBDE838400020FDF730BE38BD0B6854
:10E66000036013B15A6801325A60704710B504460E
:10E6700051F8043B40F8043BFFF7F1FF204610BD82
:10E6800070B50446D0E9005305EBC306AE4204D092
:10E69000281DFEF7CBFB0835F8E72068FEF73EF8AB
:10E6A000204670BD70B50446D0E9005305EBC306A3
:10E6B000AE4204D0281DFEF7B9FB0835F8E7206804
:10E6C000FEF72CF8204670BD10B504462430FFF745
:10E6D000E9FF04F11800FFF7D3FF10BD826810B501
:10E6E0000AB900F0C6FDC368BDE81040184738B548
:10E6F0000D1E0446006803DDFEF71EF818B938BD8C
:10E70000FEF70CF800202060A5600120F7E708B5AF
:10E7100083688B4202DAFFF7EAFF08BD0120FCE7BD
:10E720002DE9F0410F4641681D46194483680446AF
:10E730009942904612DC266862683E443146D21BFC
:10E74000701900F0D6FE2A464146304600F0C4FE5D
:10E75000012063682B446360BDE8F081FFF7C7FFC9
:10E760000028E8D1F8E7F8B50D46D0E90113994241
:10E77000044616460BDA276862687919521B481C52
:10E7800000F0B7FE7E55636801336360F8BD013168
:10E79000FFF7ADFF0028EED1F8E70A464168FFF722
:10E7A000E2BF2DE9F74304461D460F4601AB9046F4
:10E7B0000A46D0E900019DF82890FFF733FDAE1C12
:10E7C00002466368B9F1000F26D128B333441B1AFF
:10E7D000FF2B09D820460199FFF7F4FE6168204617
:10E7E0003144FFF794FF18B9606803B0BDE8F083C7
:10E7F0006A1C20460199D2B2FFF7B5FF01993A464B
:10E8000001312046FFF7AFFF2B4642460199023106
:10E810002046FFF785FFE7E7F118FF29E4D82046F7
:10E82000FFF775FF0028DFD0691C2046C9B2FFF74B
:10E83000B4FF39462046FFF7B0FF2B4642466168D9
:10E84000E6E730B49DF808501AB1029530BCFFF7E6
:10E85000A8BF406830BC70471FB500230622C0E93E
:10E86000003383600093012304468DF80F2019467E
:10E870000DF10F02FFF7E5FF204604B010BD07B50C
:10E88000009313460A46FF21FFF7DBFF03B05DF854
:10E8900004FB8842F8B504460D46164614D990424A
:10E8A00013D2A2F10806751AA1F108072C44B74249
:10E8B00018D01CB131462046FFF7D8FE301DFEF7B8
:10E8C000B5FA083E083CF2E70CD0B5420AD01CB1BC
:10E8D00029462046FFF7CAFE281DFEF7A7FA08358D
:10E8E0000834F2E7F8BDF7B5044646686846FFF716
:10E8F000BDFED4E901739F4212DB0137002F29DDF1
:10E90000F800FDF7FDFE0546F0B1D4E9001201EB79
:10E91000C202FFF7BEFF2068FDF700FF2560A76079
:10E920002368626803EBC606314603EBC20206F1B8
:10E930000800FFF7AEFF1EB169463046FFF796FEAE
:10E94000012563680133636001A8FEF76FFA28466A
:10E9500003B0F0BD0025DEE7F8B50546D0E9004379
:10E960000F4604EBC306A64205D039462046FFF702
:10E9700084FD08B114B9F8BD0834F4E7201DFEF792
:10E9800055FAD5E90032204603EBC20204F1080132
:10E99000FFF77FFF6B68013B6B60ECE72DE9F0430D
:10E9A00005468FB003A80C46FFF762FC2E68F31EE5
:10E9B0000D2B6AD8DFE813F00E0078006900FC0028
:10E9C00069006900690069006900C600C600C600E8
:10E9D000C600C600606A04F118060230FFF77EFC2C
:10E9E00038B32146AA8951F8243F06A81A80FFF7B8
:10E9F0003DFE06A93046FFF776FF07A8FEF716FA98
:10EA000006A8FFF703FD069B04F12800079963623F
:10EA1000FFF71DFC07A8FEF709FA20210023CDE926
:10EA200006136D4A009201206C4906AAFDF734FDD9
:10EA30002BE004A8FFF7EAFCAA89049B1A80696806
:10EA4000049808310230FFF72DFC04A906A8FFF74F
:10EA50000DFE304606A9FFF746FF054607A8FEF75C
:10EA6000E5F9C5B92023CDE906355D4B01205B49A9
:10EA7000009306AA2B46FDF70FFD049B2946188834
:10EA8000FDF72AFC05A8FEF7D1F903A8FFF7FEFB66
:10EA90000FB0BDE8F083E36B23B104A904F13400A7
:10EAA000FFF71CFE05A8B6E72046A989FFF79EFCE4
:10EAB00006460028E9D0014604F12C00FFF7DDFCF2
:10EAC00004F1180848B131464046FFF745FF2022BF
:10EAD0000023CDE90623434AA4E74FF6FF713568CA
:10EAE000D5E90632298003EBC2029A4203D053F8DB
:10EAF000080B4180F9E7D5E9037307EBC309B94572
:10EB000004D0381DFEF792F90837F8E700232B618F
:10EB1000D5E9067307EBC309B94504D0381DFEF7E4
:10EB200085F90837F8E70023EB61AB72E36C23B19A
:10EB3000314604F14400FFF7D1FD4FF6FF72336810
:10EB40001A80C0E72046A989FFF750FC00289CD016
:10EB5000E36D002B99D000230D2EADF8163001D0B7
:10EB6000102E17D1002369681A4606258DF8153036
:10EB7000049109AB8DF8142006908DF81C60DDE936
:10EB80000401089583E80300236E06A904F15400EC
:10EB900098477AE70F2E01BF2B7A696803F00102CC
:10EBA00008251DBF1A4619461D46C3F34003DDE77D
:10EBB000A9892046FFF71AFC014600283FF465AFFB
:10EBC000E36E002B3FF461AF6B6806AA069304F175
:10EBD0006400236F984758E7A9FC3F0213FC3F02EB
:10EBE00083FC3F02B3FC3F0270B504466430FEF77D
:10EBF00023FA04F15400FEF71FFA04F14400FEF773
:10EC00001BFA04F13400FEF717FA04F13000FEF7A6
:10EC10000DF904F12800FEF709F9D4E9065305EBD4
:10EC2000C306AE4204D0281DFEF700F90835F8E708
:10EC3000A069FDF773FD04F10C00FFF733FD2046DA
:10EC4000FFF71EFD204670BD10B5064B1C6844B191
:10EC50002046FFF7C9FF2046BDE810407421FCF7AD
:10EC600090BE10BDC8AE0710002302480360FDF738
:10EC7000A7BA00BFC4AE071070474174704708B50B
:10EC8000007CFDF765FA20EAE07008BD08B5007C5D
:10EC9000FDF718FA20EAE07008BD08B5007CFDF722
:10ECA0002DFA40EAE07008BD08B5007CFDF718FABF
:10ECB00040EAE07008BD007CFDF72EBA37B5457C10
:10ECC00004462DB1207C03B0BDE83040FDF7ECB91F
:10ECD000007C0191FDF73CFA00280199F2DC2846FE
:10ECE00003B030BD10B504461421FCF74AFE20469F
:10ECF00010BD000010B54FF47A7304460846114663
:10ED00000022C4E90123044B2074236001236374AF
:10ED1000FDF73AFA204610BDE4FC3F020023007CD8
:10ED2000FDF724BA0022FFF7F9BF007CFDF7AEB96A
:10ED3000007CFDF7FFB9000002220020044B1A609E
:10ED4000044B054AC3E900009A60FDF793BC00BF7D
:10ED5000D8AE0710CCAE07100000FFFF10B5044678
:10ED600008462170FDF714F900232046636010BDAA
:10ED7000002240681146FDF737BC0022406811466A
:10ED8000FDF74EBC00224068FDF73CBC0022406805
:10ED900081F00101FDF71ABC002340681A461946AC
:10EDA000FDF706BC002340681A461946FDF7F2BB82
:10EDB000002240681146FDF7DFBB00224068114683
:10EDC000FDF7BEBB002202214068FDF7C7BB002350
:10EDD00040681A46FDF7A6BB0322024B5A60024A5E
:10EDE0001A607047DCAE071014FD3F0210B50446F0
:10EDF0000068FDF793FC204610BD10B5044600687E
:10EE000008B1FDF78BFC0023C4E90133236010BD7A
:10EE100038B504460D4600680131FDF78DFC10B190
:10EE2000C4E90005012038BD10B50368044623B1CC
:10EE300043688B4201D3012010BD2046FFF7E8FF55
:10EE40000028F9D0A368002BF5D122681370F2E7EF
:10EE500037B50D46114601920446FFF7E5FF019ACA
:10EE600028B92046FFF7C9FF204603B030BD294628
:10EE7000A260206800F030FB00212268A368D15412
:10EE8000F2E738B5054600680C4668B16A688B68D9
:10EE90009A4207D3096800F094FBA368AB60002393
:10EEA000A36038BDFDF73AFC23682B6063686B6094
:10EEB000A368AB600023C4E90033F1E7002310B579
:10EEC0000446C0E9003383600373FFF7DAFF20468E
:10EED00010BD884210B5044605D00B682BB18A6876
:10EEE0001946FFF7B5FF204610BDFFF786FFFAE78A
:10EEF000002310B50446C0E9003383600373FFF7B5
:10EF0000E8FF204610BD704738B50A4B0446036041
:10EF1000012309494361202000F0A9F92025606000
:10EF200005492846A56000F0A2F9C4E9030520467A
:10EF300038BD00BF1800010048FD3F0230B50E4D3E
:10EF400087B0D5E88F1F11F0010411D12846FCF7D6
:10EF500027FD68B16846FFF7D7FF6A462146074894
:10EF6000FDF75AFD2846FCF720FD054800F096FA0B
:10EF7000024807B030BD00BFE4AE0710E8AE07108E
:10EF80006FF03F027047000038B5142504462A464A
:10EF9000002100F0C8FA2580402507492846258130
:10EFA000258200F064F904496060284600F05FF9AA
:10EFB000E060204638BD00BF48FD3F027047704703
:10EFC00010B50446FFF7E0FF204610BD10B504461B
:10EFD000FFF7DAFF204610BD10B50446FFF7D4FF57
:10EFE000204610BD30B50E4D87B0D5E88F1F11F00B
:10EFF000010411D12846FCF7D3FC68B101A8FFF742
:10F00000DFFF214601AA0748FFF774FE2846FCF7F8
:10F01000CCFC054800F042FA024807B030BD00BF02
:10F0200000AF07100CAF0710EDF03F0210B50D4C0C
:10F0300086B0D4E88F3FDB0711D42046FCF7B0FC44
:10F0400068B101A8FFF7C2FF012101AA0648FFF736
:10F0500051FE2046FCF7A9FC044800F01FFA0248C4
:10F0600006B010BD04AF071020AF071027F13F0214
:10F0700010B5FFF7DBFF074B044653B1FFF758FE0F
:10F0800038B1236820461B699847002801DD00E05D
:10F0900000BF10BD0000000010B50D4C86B0D4E8D4
:10F0A0008F3FDB0711D42046FCF77AFC68B101A83A
:10F0B000FFF792FF022101AA0648FFF71BFE204638
:10F0C000FCF773FC044800F0E9F9024806B010BDF3
:10F0D00008AF071034AF071025F13F0210B5FFF756
:10F0E000DBFF074B044653B1FFF722FE38B123681C
:10F0F00020461B699847002801DD00E000BF10BDD5
:10F10000000000001B2837B5044602D9002003B0D8
:10F1100030BDA0F10F03022B0BD9012821D8FFF736
:10F120000DFF0021007CFCF795FF80F00100C0B2CC
:10F13000EDE7114DD5E88F1F11F001010BD12846E5
:10F140000191FCF72DFC019928B10C48FFF706FE50
:10F150002846FCF72AFC094B1878FCF727FF002803
:10F16000D4D1083C012C05D8FFF73CFF007CFCF70C
:10F17000E1FFDAE70120CAE748AF07104CAF0710FC
:10F180001B2838B504460D460AD8FF2908D0FFF7DA
:10F19000B9FF28B129462046BDE83840FDF7F0B850
:10F1A00038BD38B504460D46FDF7F8F8FF2810D0F5
:10F1B000062804D84D2323FA00F0C30709D42046BB
:10F1C000FFF7A0FF28B129462046BDE83840FDF7EB
:10F1D000F3B838BD10B50446FDF7E0F8031FDBB205
:10F1E000012B08D92046FFF78DFF20B12046BDE84E
:10F1F0001040FDF7EFB8002010BD10B50446FFF732
:10F2000081FF50B103212046FDF7ACF8032804D15B
:10F210002046BDE81040FDF7F9B8002010BD38B514
:10F2200004460D46FFF76EFFF0B104212046FDF7BE
:10F2300099F8042805D12046A9B2BDE83840FDF769
:10F24000D7B802212046FDF78DF802280CD12046C0
:10F25000FDF7A4F8012801D0042805D1294620464D
:10F26000BDE83840FDF7E0B838BDFCF786BBFCF7D9
:10F2700086BB08B5FDF77CFA014900F0F9B800BF7C
:10F2800064FD3F027FB50024102315461268CDE9C6
:10F2900002340368CDE900449E696B46B0479DF88F
:10F2A000043003F00603062B05BF009B0120204617
:10F2B0002B6004B070BD0098904214BF012006205E
:10F2C00070470000034B10B50446036000F0CDF812
:10F2D000204610BDA4FD3F0210B50446FFF7F2FF23
:10F2E00008212046FCF74DFB204610BD2DE9F041DA
:10F2F000DDF818801F4606461546DDE908349845B6
:10F3000007D1079900F0B4F818B165710020BDE885
:10F31000F0813946304600F0ABF80028F6D00123E2
:10F32000C4F800802571A371F0E738B515461C4676
:10F3300000F09EF820B108232560E36006232371C6
:10F3400038BD73B505460C461E46019200F090F894
:10F3500050B9032E08D823682946019A20465B69D4
:10F3600002B0BDE87040184702B070BD034B10B545
:10F3700004460360FFF7A6FF204610BD04FE3F02CF
:10F3800010B50446FFF7F2FF0C212046FCF7F9FA0E
:10F39000204610BDF7B5089F05460E461446974215
:10F3A0000AD0A868314602680897156A2246AC461A
:10F3B00003B0BDE8F04060471946019300F058F8EB
:10F3C000019B0028EDD0062003B0F0BD2DE9F14FE0
:10F3D0000D461946814617469846DDE90A4BDDE998
:10F3E0000CA600F045F890B1002D3460377109DBB0
:10F3F00061198A450CBF06210121B171002001B0BD
:10F40000BDE8F08F0235F9D10123B371F6E7544519
:10F4100006D15946484600F02BF808B17771EDE760
:10F42000D9F808003A4629460368CDE90CA6CDE98B
:10F430000A4BDC694346A44601B0BDE8F04F604783
:10F440002DE9F04107460C4615461E46FFF76DFFB5
:10F4500048B9B8682A46214603689F693346BC46C6
:10F46000BDE8F0416047BDE8F0817047002070477B
:10F47000814208B50ED0406803782A2B0CD0496829
:10F480000B782A2B08BF0131FCF748FAB0FA80F05C
:10F49000400908BD0120FCE70020FAE700230146EF
:10F4A0001A46184600F04AB9024B1844407800F05A
:10F4B00097007047D1FE3F020139024410B59042D7
:10F4C00001D1002005E0037811F8014FA34201D0DB
:10F4D000181B10BD0130F2E70A44431E914200D1CF
:10F4E000704710B511F8014B914203F8014FF9D163
:10F4F00010BD884210B501EB020402D984422346B4
:10F5000007D8431EA14208D011F8012B03F8012FA0
:10F51000F8E7024401468A4200D110BD13F8014DBC
:10F5200002F8014DF7E702440346934200D17047C9
:10F5300003F8011BF9E7000038B5104B04461D68BD
:10F54000AB6BB3B91820FDF7DBF80246A86320B90E
:10F550000B4B42210B48FDF727F90B490B4BC0E938
:10F5600000130B4B002183600B2383810120C2E930
:10F570000401AB6B00221C615A6138BD7CAD0710E1
:10F580003DFE3F0254FE3F020E33CDAB34126DE61A
:10F59000ECDE0500C9B2034610F8012B1AB18A420D
:10F5A000F9D118467047002918BF0023F9E710B5B4
:10F5B0000446FFF7EFFF18B92046FCF7B9F92044DD
:10F5C00010BD034611F8012B03F8012B002AF9D1D5
:10F5D000704710B57AB103460139841813F8010B4E
:10F5E00011F8012F904201D1A34201D1801A10BD20
:10F5F0000028F3D1FAE71046F9E738B503460C4680
:10F6000069B9BDE83840FFF7C5BF431C0546214630
:10F610001846FFF7BFFF0028F7D1284638BD002560
:10F62000F5E70000012B2DE9F04701D0242B06D986
:10F63000FDF7ACF8162303600020BDE8F0870D4607
:10F64000DFF8E0C02E4615F8014B14F80C7017F0E7
:10F650000807F7D12D2C32D12C780127B51C002BAF
:10F660005BD0102B09D1302C07D12C7804F0DF04AB
:10F67000582C4DD16C781023023507F100484FF01B
:10F68000000C08F1FF386646B8FBF3F903FB198A52
:10F69000A4F1300EBEF1090F16D87446A34224DD42
:10F6A000BCF1000F1EDBB1451CD301D1A24519DB13
:10F6B00006FB03464FF0010C15F8014BE8E72B2C35
:10F6C00004BF2C78B51CCAE7A4F1410EBEF1190F96
:10F6D00001D8373CE2E7A4F1610EBEF1190F04D85E
:10F6E000573CDBE74FF0FF3CE6E7BCF1000F05DAE3
:10F6F00022234646036042B930469EE707B1764270
:10F70000002AF9D0BCF1000F00D0691E1160F3E7A8
:10F710003024002BB1D10823AFE7302CA5D00A2329
:10F72000ABE700BFD2FE3F0213460A46014602483D
:10F730000068FFF777BF00BF7CAD07102DE9F843E5
:10F74000DFF8BC8006461F460D46D8F800009146FB
:10F7500000F058F8264B1C6834B9264C1C60264B28
:10F7600013B11B68C4F8883063681F2B07DDD8F815
:10F77000000000F049F84FF0FF30BDE8F8835EB3B9
:10F78000D4F8880088B91D4B23B9D8F8000000F0E0
:10F790003AF8F0E74FF48470FCF7B2FF0028F4D099
:10F7A0000023C0E94033C4F8880063680122022EB8
:10F7B00040F8239002FA03F200EB8301D0F8003105
:10F7C00043EA0203C0F80031C1F8807002BFD0F8EC
:10F7D00004311343C0F804316368D8F800005A1CA0
:10F7E0000233626044F8235000F00EF80020C4E7B2
:10F7F000E0AF071054AF07100000000069C83F02D7
:10F80000E0AD07107047704770470000000000002F
:10F810000000FB349B5F80000080001000000000AF
:10F8200000000000A9BA3F02D1BA3F02D5BA3F0298
:10F830000000000043616C6C206F6E207075726573
:10F84000207669727475616C006C7578203D207B40
:10F8500025667D006D6F76656D656E74203D207B3D
:10F8600025647D0000000000000000000000000092
:10F8700000000000F1BA3F0219BB3F020000000087
:10F88000000000001DBB3F0251BB3F0271DF3F0281
:10F8900019E13F02000000000000000049C93F02DA
:10F8A00053C93F025DC93F0267C93F0271C93F02A8
:10F8B0007DC93F0289C93F0291C93F0299C93F02F0
:10F8C000A5C93F02ADC93F02B7C93F02C1C93F0246
:10F8D00000000000000000000BCB3F0201CB3F0204
:10F8E000F7CA3F02ADCA3F02EBCA3F02DFCA3F027E
:10F8F00089C93F0291C93F02D3CA3F02CBCA3F0226
:10F90000C1CA3F02B7CA3F02C1C93F02000000009E
:10F9100000000000000000000000000029CB3F02B2
:10F9200073CB3F024BCB3F022BCB3F0253CB3F026B
:10F930005BCB3F0263CB3F026BCB3F0225640025CC
:10F9400075007525303478000000000000000000CC
:10F95000ABCF3F0213D03F02E9CF3F02C5E23F02E7
:10F96000DBCF3F02ADCF3F02BDCF3F020DD03F0204
:10F97000CDCF3F02A5CF3F020000000000000000F5
:10F98000C1D03F02B1D03F02B3D03F0225592D254F
:10F990006D2D25645425483A254D3A2553257A0086
:10F9A00061736374696D65006261756400536572AB
:10F9B00069616C0053657269616C31004A534F4E46
:10F9C00053747265616D4C6F6748616E646C6572EB
:10F9D0000061707000253031307520005D20002CF2
:10F9E000200028293A2000205B00636F6465203DD9
:10F9F000200025690064657461696C73203D2000F6
:10FA00000D0A006D0066006C6E00666E0074006387
:10FA10006F64650064657461696C0000000000003B
:10FA20000000000045D33F026BD33F0229D33F02C1
:10FA3000EBCB3F0200000000000000001DD83F0299
:10FA400035D83F0271DF3F0219E13F02000000009C
:10FA50000000000049D83F025DD83F0251E13F025B
:10FA600031D33F02000000000000000043D33F02FA
:10FA700079D33F02D5DE3F0233D33F0200000000BE
:10FA80000000000041D33F0287D33F0261D73F020D
:10FA9000A9D33F02417373657274696F6E466169E1
:10FAA0006C7572652066616C736500776972696E4A
:10FAB000672E626C650053746172742064697363AD
:10FAC0006F766572696E67207365727669636573B8
:10FAD0002E00FFFFFFFFFFFF004173736572746923
:10FAE0006F6E4661696C7572652068616C5F626CEF
:10FAF000655F737461636B5F696E6974286E756CA2
:10FB00006C70747229203D3D2053595354454D5F0C
:10FB10004552524F525F4E4F4E45004661696C65EB
:10FB20006420746F20617070656E6420706565720A
:10FB30002043656E7472616C206465766963652E1E
:10FB400000436F6E6E656374656400446973636F30
:10FB50006E6E6563746564000000000000000000C4
:10FB600057E33F0279E33F0231E83F0287E33F0278
:10FB700059E33F020000000000000000E1ED3F02F9
:10FB80004DEE3F0225EE3F02C5E23F02F5ED3F029A
:10FB900011EE3F0203EE3F021FEE3F02E3ED3F0294
:10FBA000E7ED3F02000000000000000037EF3F02D9
:10FBB0002DEF3F0223EF3F0219EF3F020DEF3F020F
:10FBC00001EF3F0289C93F0291C93F02F5EE3F02B2
:10FBD000EDEE3F02E3EE3F02D9EE3F02C1C93F0224
:10FBE00000537431395F53705F6D616B655F73688B
:10FBF000617265645F74616700000000A4FD3F02EC
:10FC000049FD3F0204FE3F0278FD3F0228FE3F020D
:10FC10004E31305F5F637878616269763131375F8A
:10FC20005F636C6173735F747970655F696E666F33
:10FC300045000000000000006CFD3F022DF43F0273
:10FC400041F43F02D5F53F02D5F53F02ABF43F0248
:10FC5000EDF33F0293F43F0255F43F021FF43F02DD
:10FC600004FE3F02D4FD3F026CFD3F024E31305F87
:10FC70005F637878616269763132305F5F73695FA4
:10FC8000636C6173735F747970655F696E666F45ED
:10FC90000000000000000000C8FD3F02D5F43F0254
:10FCA000E9F43F02D5F53F02D5F53F02ABF43F0240
:10FCB000EDF33F02A9F53F0235F53F02FDF43F02A7
:10FCC000A4FD3F0230FE3F02537439747970655FC2
:10FCD000696E666F005245454E54206D616C6C6FC5
:10FCE0006320737563636565646564002F6D6E746E
:10FCF0002F776F726B73706163652F776F726B73A1
:10FD0000706163652F4743432D31302D70697065F5
:10FD10006C696E652F6A656E6B696E732D47434320
:10FD20002D31302D706970656C696E652D34385FCA
:10FD300032303230313132345F3136303631383072
:10FD40003634312F7372632F6E65776C69622F6E54
:10FD500065776C69622F6C6962632F7374646C6978
:10FD6000622F72616E642E6300002020202020200C
:10FD7000202020282828282820202020202020205B
:10FD8000202020202020202020208810101010105B
:10FD900010101010101010101010040404040404AB
:10FDA000040404041010101010101041414141418E
:10FDB00041010101010101010101010101010101F3
:10FDC0000101010101101010101010424242424284
:10FDD00042020202020202020202020202020202C3
:10FDE00002020202021010101020000000000000A9
:10FDF0000000000000000000000000000000000003
:10FE000000000000000000000000000000000000F2
:10FE100000000000000000000000000000000000E2
:10FE200000000000000000000000000000000000D2
:10FE300000000000000000000000000000000000C2
:10FE400000000000000000000000000000000000B2
:10FE500000000000000000000000000000000000A2
:10FE600000000000000000000000000085BF3F020D
:10FE700099CA3F0215CB3F0209D33F0215D33F0277
:10FE800061DF3F02D1ED3F02A1EE3F0241EF3F02B1
:10FE9000000000020B0000000D0000000100000047
:10FEA0000500000002000000030000000200000046
:10FEB000070000000800000006000000C800000065
:10FEC00008FB3F02D4FB3F02ECFB3F0280AD071072
:10FED0000000000000000000000000000000000022
:10FEE0000000000000000000000000000000000012
:10FEF0000000000000000000000000000000000002
:10FF000000000000000000000000000000000000F1
:10FF100000000000000000000000000000000000E1
:10FF200000000000000000000000000000000000D1
:04FF3000E4AF071023
:04FF340000000000C9
:10FFBE000200100000B05F0888B05F08F0B13F0289
:10FFCE0001000A00FFFFFFFFFFFF00000102030414
:10FFDE0005060708090A0B0C0D0E0F10111213144B
:0EFFEE0015161718191A1B1C1D1E1F203E0089
:04FFFC0078563412ED
:04000005085FB018C8
:00000001FF
