:02000004085F93
:10B0000000B05F08FCFF5F0800000600200005019B
:08B010000401501400000000CF
:10B018000E480F4908B5884205D00E4A824202D030
:10B028000D4B121A98470D480D4A00210D4B121A64
:10B0380098470D480D49884205D00D4A824202D0F2
:10B04800054B121A9847014808BD00BFECAA071023
:10B0580030F65F085CAB07102D0D11105CAB0710C4
:10B06800E8AF0710A10E111050BA3F0288B05F0870
:0CB07800F8FF3F0219B05F080000000064
:08B088007CB05F0824FA3F02CE
:10B0900010F8012B11F8013B012A28BF9A42F7D082
:10B0A000D01A7047034613F8012B002AFBD1181A57
:10B0B0000138704770B500F045FF0025054E064C7D
:10B0C000A41BA408AC4200D170BD56F8043B9847BD
:10B0D0000135F7E7D4FF3F02F8FF3F0200F024B844
:10B0E00008B500F037F8BDE8084000F0E3BE00F016
:10B0F0003DBC00F03BBC00F047BC0078B0FA80F0EB
:10B100004009704701230370704738B5044645185D
:10B11000AC4207D000F0E8FD036814F8011B9B68FF
:10B120009847F5E738BD000008B500F0DDFD4FF4A5
:10B13000165100F0CDFD01F029FD01F071FDBDE8D3
:10B140000840024A0249104602F080BDACAB07102D
:10B15000D3BA3F022DE9F04188B001F017FD01F0AC
:10B16000A5FD044648B3484C484D00F0BDFD0368BA
:10B170001B699847A8B12368132B12D800F0B4FDBF
:10B1800003685B69984723685A1CE854226000F002
:10B19000ABFD236802682B44926813F8011C9047AA
:10B1A000E3E7226832B100233849394801F07EFBD9
:10B1B0000023236008B0BDE8F08100F0B1FA354DFE
:10B1C0002B68C01AB0F5FA6FF4D300F0A9FA286022
:10B1D00001F0DCFC1422304901F0A0FD071EE9DD7E
:10B1E0002D4EDFF8C880E5B2BD42E3DA03A801F0D6
:10B1F0002DF924235D4305F10800012203A9304401
:10B2000002F040FC08B90134EDE7414603A801F023
:10B2100078F90028F7D001F0B9FC72190146012332
:10B2200001A803F065F81D4E019B029D3360736811
:10B230009D4216D015B16B6801336B6074687CB1A8
:10B240006368013B63605BB9236820469B6898474D
:10B25000A368013BA3601BB923682046DB689847BD
:10B26000756001A801F0C9FD0C4801F0F9FB002848
:10B27000A0D00B4A0B49094802F0BEFC0A4A044917
:10B28000064802F0B9FC95E798AE071084AE0710A7
:10B29000A4AB071098AB0710B4AB07109CAB07101A
:10B2A00084AB0710ACAB071070AB07105CAB07109A
:10B2B00070B51549154801F0A3F91549154801F075
:10B2C0009FF91549154801F09BF914257F26144C68
:10B2D000204601F0B1F804F1080002F07AF804F118
:10B2E000140002F076F8013D84F8206004F1240493
:10B2F000EED10C4801F0B4FA0B4801F0B1FABDE808
:10B3000070400A4801F088BB34FA3F025CAB07107A
:10B3100059FA3F0270AB07107EFA3F0284AB071068
:10B32000B4AB0710ACAB0710A4AB07109CAB071075
:10B3300009B504480068044B03441B681B6802936A
:10B3400009BD0000ECAA07103400000009B504484C
:10B350000068044B03441B685B68029309BD00004E
:10B36000ECAA07103400000009B504480068044B3B
:10B3700003441B681B69029309BD0000ECAA071077
:10B380003400000009B504480068044B03441B68FE
:10B390005B69029309BD0000ECAA071034000000AD
:10B3A00009B504480068044B03441B689B69029379
:10B3B00009BD0000ECAA07103400000009B50448DC
:10B3C0000068044B03441B68DB69029309BD00005D
:10B3D000ECAA07103400000009B504480068044BCB
:10B3E00003441B681B6A029309BD0000ECAA071006
:10B3F0003400000009B504480068044B03441B688E
:10B40000DB68029309BD0000ECAA071024000000CD
:10B4100009B504480068044B03441B681B69029388
:10B4200009BD0000ECAA07102400000009B504487B
:10B430000068044B03441B685B69029309BD00006C
:10B44000ECAA07102400000009B504480068044B6A
:10B4500003441B689B69029309BD0000ECAA071016
:10B460002400000009B504480068044B03441B682D
:10B47000DB69029309BD0000ECAA0710240000005C
:10B4800009B504480068044B03441B681B6A029317
:10B4900009BD0000ECAA07102400000009B504480B
:10B4A0000068044B03441B689B6A029309BD0000BB
:10B4B000ECAA07102400000009B504480068044BFA
:10B4C00003441B681B6C029309BD0000ECAA071023
:10B4D0002400000009B504480068044B03441B68BD
:10B4E0005B69029309BD0000ECAA07104C00000044
:10B4F00009B504480068044B03441B685B6C029365
:10B5000009BD0000ECAA07103000000009B504488E
:10B510000068044B03441B68DB6C029309BD000008
:10B52000ECAA07103000000009B504480068044B7D
:10B5300003441B685B6D029309BD0000ECAA071071
:10B540003000000009B504480068044B03441B6840
:10B550009B68029309BD0000ECAA07106000000080
:10B5600009B504480068044B03441B68DB6F029371
:10B5700009BD0000ECAA07106000000009B50448EE
:10B580000068044B03441B68D3F88430029309BD60
:10B59000ECAA07106000000009B504480068044BDD
:10B5A00003441B68D3F89830029309BDECAA071036
:10B5B0006000000009B504480068044B03441B68A0
:10B5C000D3F8B430029309BDECAA07106000000064
:10B5D00009B504480068044B03441B68D3F8BC3029
:10B5E000029309BDECAA07106000000009B50448E9
:10B5F0000068044B03441B68D3F8C430029309BDB0
:10B60000ECAA07106000000009B504480068044B6C
:10B6100003441B68D3F8D830029309BDECAA071085
:10B620006000000009B504480068044B03441B682F
:10B63000D3F8DC30029309BDECAA071060000000CB
:10B6400009B504480068044B03441B68D3F8E03094
:10B65000029309BDECAA07106000000009B5044878
:10B660000068044B03441B68D3F8E430029309BD1F
:10B67000ECAA07106000000009B504480068044BFC
:10B6800003441B68D3F8F030029309BDECAA0710FD
:10B690006000000009B504480068044B03441B68BF
:10B6A000D3F8F430029309BDECAA07106000000043
:10B6B00009B504480068044B03441B68D3F8003103
:10B6C000029309BDECAA07106000000009B5044808
:10B6D0000068044B03441B68D3F80431029309BD8E
:10B6E000ECAA07106000000009B504480068044B8C
:10B6F00003441B685B68029309BD0000ECAA0710B5
:10B700000000000009B504480068044B03441B68AE
:10B71000DB68029309BD0000ECAA071000000000DE
:10B7200009B504480068044B03441B685B69029335
:10B7300009BD0000ECAA07100000000009B504488C
:10B740000068044B03441B689B68029309BD00001A
:10B75000ECAA07105000000009B504480068044B2B
:10B7600003441B68DB68029309BD0000ECAA0710C4
:10B770005000000009B504480068044B03441B68EE
:10B780005B6B029309BD0000ECAA071048000000A3
:10B7900009B504480068044B03441B681B6D029301
:10B7A00009BD0000ECAA07104800000009B50448D4
:10B7B0000068044B03441B68DB6B029309BD000067
:10B7C000ECAA07102C00000009B504480068044BDF
:10B7D00003441B685B68029309BD0000ECAA0710D4
:10B7E0002800000009B504480068044B03441B68A6
:10B7F0009B68029309BD0000ECAA07102800000016
:10B8000009B504480068044B03441B68DB680293D5
:10B8100009BD0000ECAA07102800000009B5044883
:10B820000068044B03441B681B69029309BD0000B8
:10B83000ECAA07102800000009B504480068044B72
:10B8400003441B685B69029309BD0000ECAA071062
:10B850002800000009B504480068044B03441B6835
:10B860009B69029309BD0000ECAA071028000000A4
:10B8700009B504480068044B03441B68DB69029364
:10B8800009BD0000ECAA07102800000009B5044813
:10B890000068044B03441B681B6A029309BD000047
:10B8A000ECAA07102800000009B504480068044B02
:10B8B00003441B681B6B029309BD0000ECAA071030
:10B8C0002800000009B504480068044B03441B68C5
:10B8D0005B6B029309BD0000ECAA07102800000072
:10B8E00009B504480068044B03441B681B6C0293B1
:10B8F00009BD0000ECAA07102800000009B50448A3
:10B900000068044B03441B685B6C029309BD000094
:10B91000ECAA07102800000009B504480068044B91
:10B9200003441B685B68029309BD0000ECAA071082
:10B930000800000009B504480068044B03441B6874
:10B94000D3F88830029309BDECAA07100800000064
:10B9500009B504480068044B03441B68D3F89430CD
:10B96000029309BDECAA07100800000009B50448BD
:10B970000068044B03441B681B68029309BD000068
:10B98000ECAA07100400000009B504480068044B45
:10B9900003441B685B68029309BD0000ECAA071012
:10B9A0000400000009B504480068044B03441B6808
:10B9B0009B68029309BD0000ECAA07100400000078
:10B9C00009B504480068044B03441B68DB6A029312
:10B9D00009BD0000ECAA07100400000009B50448E6
:10B9E0000068044B03441B681B6C029309BD0000F4
:10B9F000ECAA07100400000009B504480068044BD5
:10BA000003441B685B6C029309BD0000ECAA07109D
:10BA100004000000002340681A46FFF7D5BE00224C
:10BA200002214068FFF7ECBE002240681146FFF794
:10BA3000D9BE002240681146FFF7F0BE00234068DF
:10BA40001A461946FFF7F8BE002340681A46194601
:10BA5000FFF700BF00214068FFF742BF00214068A8
:10BA6000FFF74CBF0022406881F00101FFF700BFE3
:10BA700000224068FFF718BF002240681146FFF718
:10BA800021BF002240681146FFF700BF2DE9F043B7
:10BA900095B014460D46074600F084F900211C229B
:10BAA0000DA8009103F01BFA402320460C930021BF
:10BAB0006B460CAAFFF750FE044600284BD1024605
:10BAC00001216868FFF7AAFE0221804622466868C5
:10BAD000FFF7A4FE21468146009E002E3BD00029A0
:10BAE00039D17368022B03D00A2B11D0F669F4E721
:10BAF000B8F1000FFAD0716906A804313C1D07ADFA
:10BB000000F07EF90FCD0FC42B6841462370EDE79E
:10BB1000B9F1000FEAD0102201A8746903F0DFF92F
:10BB2000062301AD8DF8143004F1080318342A46B9
:10BB300018685968083303C2A3421546F7D101A912
:10BB400006A83C1D07AD00F03BF90FCD0FC42B68D4
:10BB500049462370CAE70098FFF7F0FD384615B054
:10BB6000BDE8F083024B034A1A6000225A60704716
:10BB70009CAE0710ACFA3F02002240681146FFF766
:10BB80004DBE002240681146FFF780BE002240688B
:10BB90001146FFF797BE00224068FFF785BE0022DE
:10BBA000406881F00101FFF763BE002340681A4638
:10BBB0001946FFF74FBE002340681A461946FFF7A3
:10BBC0003BBE002240681146FFF70CBE0022022156
:10BBD0004068FFF715BE002340681A46FFF7F4BD22
:10BBE0000422024B5A60024A1A607047A4AE071042
:10BBF000E8FA3F0210B543680446013B436063B96D
:10BC000003689B689847A368013BA3602BB923682E
:10BC10002046BDE81040DB68184710BD10B504464B
:10BC2000006808B1FFF7E6FF204610BD4174704779
:10BC30007047704708B50021007CFFF7B1FB40EA70
:10BC4000E07008BD08B50121007CFFF7A9FB40EAC0
:10BC5000E07008BD08B5007CFFF794FB20EAE070B7
:10BC600008BD08B5007CFFF77FFB20EAE07008BD47
:10BC700013B50446007C0191FFF784FB002801996D
:10BC800001DC607C20B1207CFFF798FB20EAE070AB
:10BC900002B010BD007CFFF79FBB10B50446142115
:10BCA000FFF729FA204610BD10B54FF47A73044609
:10BCB00008460021C4E90113044B207423600123CA
:10BCC00011466374FFF734FB204610BD2CFB3F0286
:10BCD0000022007CFFF73ABB10B504461422002175
:10BCE00003F0FDF8204610BD10B588B003A8FFF79B
:10BCF000F3FF0C4CD4E88F1F11F001010FD1204647
:10BD00000191FFF7FAF9019948B103AA0648FFF734
:10BD1000CBFF2046FFF7F6F9044803F0A3F80248EA
:10BD200008B010BDACAE0710B0AE0710F9C53F02A9
:10BD3000704710B504461821FFF7DDF9204610BD05
:10BD4000F0B5037D0E46062B4FF000048DB000F1D8
:10BD5000040712D000F1080515F8011D0A2230462B
:10BD600000F077F9AF42044419D0002CF4D02E2112
:10BD7000304600F06BF90444EEE72F236A4639465B
:10BD80000A208DF80040FFF7A5FB6846FFF78AF907
:10BD90003368024669463046DB68984704462046C9
:10BDA0000DB0F0BD10B50446044B1122002140F83F
:10BDB000043B03F094F8204610BD00BF5CFB3F023B
:10BDC0000346074A10B543F8042B01F1100251F85D
:10BDD000044B914243F8044BF9D10A781A7010BD14
:10BDE0005CFB3F0210B59DF8084044EA032343EA98
:10BDF0000242042342EA01614160037510BD000064
:10BE000007B5064B0360CB7800938B784A780978A6
:10BE1000FFF7E8FF03B05DF804FB00BF5CFB3F02E7
:10BE200010B58368044613B10322014698472046A3
:10BE300010BD13B56C460B460246D0E9000184E8FC
:10BE4000030093E8030082E8030094E8030083E81A
:10BE5000030002B010BD0000014B1860704700BF26
:10BE6000F4AA071008B50F4B43B1FFF73DFF036875
:10BE70001B699847002801DD00E000BF0A4B43B171
:10BE800002F048FE03681B699847002801DD00E0C6
:10BE900000BF064B0BB102F083FE054B0BB102F065
:10BEA000B5FE08BD0000000000000000000000001A
:10BEB0000000000008B5FFF7D5FFFFF731FC014B8C
:10BEC000186008BD08AF07100548064A08B5121AE1
:10BED000054902F0DDFF054B054A1A6008BD00BFA9
:10BEE00000B4071004B40710A0F65F0800B40710F0
:10BEF0001E1C279A002307B51A466FF0770100939E
:10BF0000FFF726FD03B05DF804FB000007B543888A
:10BF10000A2B08D0502B0BD1094B1B684BB103B037
:10BF20005DF804EB1847FFF7E5FF03B05DF804FB8D
:10BF300000231A466FF077010093FFF709FDF4E73D
:10BF4000C8AE0710002110B51148FFF755FD114B81
:10BF50001A68114B9A420CBF012200220F4B1A7033
:10BF600001D0FFF7B1FFFFF7BFFB044602F0C0FFAF
:10BF70000B4B13B1204600E000BF00210848FFF73B
:10BF800015FCBDE8104000210648FFF7D3BC00BFF8
:10BF900021C83F0200B407101E1C279AC4AE071028
:10BFA00000000000D5C83F020022014B9A60704794
:10BFB000CCAE0710024B1A68024B1A60704700BFE4
:10BFC000F0AA0710DCAE071070B50446D0E90053A4
:10BFD00005EB0316AE4204D0284602F073FC103580
:10BFE000F8E72068FFF7D0FC204670BD014B024AFD
:10BFF0001A607047E0AE071084FB3F02F8B50646B2
:10C000000D4600248F18BD420CD0336830469B6823
:10C0100015F8011B9847031E01DB1C44F3E7002CB5
:10C0200008BF1C462046F8BD13B50446084659B162
:10C030000191FFF737F80246204623680199DB6833
:10C0400002B0BDE81040184702B010BD03689B68FD
:10C0500018470023012A98BF0A2230B58BB08DF80B
:10C06000243009AC0D46B1FBF2F101FB125303F091
:10C07000FF03092B94BF30333733DBB2AA4204F8F5
:10C08000013DEFD92146FFF7CFFF0BB030BD704720
:10C090007047704770470000064B10B5994200F199
:10C0A0000C0405D0084602F0CBFD002808BF002490
:10C0B000204610BD1CFB3F02064B10B5994200F113
:10C0C0000C0405D0084602F0BBFD002808BF002480
:10C0D000204610BD1CFB3F02064B10B5994200F1F3
:10C0E0000C0405D0084602F0ABFD002808BF002470
:10C0F000204610BD1CFB3F0210B504466821FEF728
:10C10000FAFF204610BD10B504462821FEF7F3FFC4
:10C11000204610BD10B504463021FEF7ECFF204646
:10C1200010BD6821FEF7E7BF2821FEF7E4BF3021EC
:10C13000FEF7E1BFF0B50025EC1C8C420DD86E1C5B
:10C14000875D445D974205D12644B14205D31D6009
:10C15000601CF0BD01342544EEE70020F9E7000043
:10C160000A20024A0249FFF705BB00BFCDC03F02CB
:10C1700088FB3F0230B40D4611461A460368096831
:10C18000D3E900432868A44630BC6047012A38B58B
:10C19000044602D10B68236003E0022A03D0032A7D
:10C1A0000DD0002038BD08200D68FEF7A0FF034623
:10C1B0000028F0D095E8030083E80300EBE700686F
:10C1C0000028EED00821FEF796FFEAE710B5836855
:10C1D00004462BB10322014698470023C4E90233E9
:10C1E00010BD10B5836804462BB103220146984761
:10C1F0000023C4E9023310BD0023202210B50446F9
:10C200008AB0CDE90223084A01200092074902AA18
:10C21000FFF7BEFA002322462068054900880AB0CD
:10C22000BDE81040FFF7D4B9AAFB3F029FFB3F02D5
:10C23000BDE73F0210B5013802EB410110F8013FA4
:10C240001B0903F13004392C88BF03F1370402F8CD
:10C25000024B037803F00F0303F13004392C88BF3D
:10C2600003F13704914202F8014CE7D110BD10B53B
:10C2700004465830FFF7D4FD04F14800BDE81040F3
:10C2800002F020BB38B5036805468B420C4608D047
:10C2900011B14B6801334B60286808B1FFF7AAFC65
:10C2A0002C6038BDA0F13003DAB2092A01D8184653
:10C2B0007047A0F16103052B01D857387047A0F1F2
:10C2C0004103052B94BF37384FF0FF307047000013
:10C2D000002310B50370044B04461868FFF716F9E5
:10C2E00001232046237010BDE8AE071010B5037877
:10C2F00004461BB1024B1868FFF716F9204610BD23
:10C30000E8AE071082B06A4603460868496803C26F
:10C310006A4603CA18601846596002B0704708B5EB
:10C3200082798B799A4206D1062202F0A1FDB0FAF9
:10C3300080F0400908BD0020FCE7000070B504460D
:10C34000384B86B018689B880090ADF80430364BA7
:10C35000A67918689B880290ADF80C307EB9062249
:10C360006946204602F084FD38B10622204602A923
:10C3700002F07EFD003818BF012006B070BDA38812
:10C380002068ADF8143006F0FD03012B049024D191
:10C390009DF81550062205F03F05694604A88DF862
:10C3A000155002F065FD00283AD065F03F050622E1
:10C3B00002A904A88DF8155002F05AFD80B36079E7
:10C3C000012E00F0C00004D1C02814BF00200120BD
:10C3D000D3E7B0FA80F04009CFE7022E1ED1032246
:10C3E0009DF815500DEB020105F03F050DF113000E
:10C3F0008DF8155002F03CFD90B165F03F05032229
:10C400000DF10B010DF113008DF8155002F030FD08
:10C4100030B1607900F0C0004028D6E70120ACE7D9
:10C420000020AAE70CFA3F02C6FB3F024FF0FF33A1
:10C4300003608380002070470021024608B5016038
:10C440004160FFF7F3FF1046917108BD01230246DA
:10C4500010B50361044B03F1100153F8044B8B42F8
:10C4600042F8044BF9D110BD12FA3F020B7C30B5F3
:10C4700013F0FD030DD1024603610C4B03F11004D0
:10C4800053F8045BA34242F8045BF9D10B88838123
:10C4900030BD01230361034601F1100251F8044B42
:10C4A000914243F8044BF9D1F2E700BF12FA3F0280
:10C4B00010B50B460446B1B1012A01F110020AD1B0
:10C4C000014653F8040B934241F8040BF9D10123C0
:10C4D0002361204610BD411E12F8010D9A4201F859
:10C4E000010FF9D1F3E7102202F0F9FCF1E738B5BA
:10C4F00004460D46FFF7AAFF002320462361A581CD
:10C5000038BD08B502690B699A4206D1102202F0C3
:10C51000AFFCB0FA80F0400908BD0020FCE7000045
:10C5200001232DE9F341024606460361334B0C46D5
:10C5300003F1100153F8040B8B4242F8040BF9D1BC
:10C5400044B32421204602F009FD04284FF00005E1
:10C5500023D1ADF8045001AFA51C063415F8020C28
:10C56000FFF7A0FEB0F1000812DB15F8010CFFF791
:10C5700099FE00280CDB023540EA0810A54207F8B6
:10C58000010BEBD19DF8053033739DF804307373C4
:10C590000023336102B0BDE8F0814FF01008242180
:10C5A000204602F0DBFCA84207D842460021304674
:10C5B00002B0BDE8F04102F092BCB8F1000FE9D042
:10C5C000605DFFF76FFE030615D40001C7B208F1E6
:10C5D000FF382421204606F8087002F0BFFC013520
:10C5E000A84208D9605DFFF75DFE40B20028A4BFF5
:10C5F000384306F808000135D1E700BF12FA3F02C0
:10C6000013B504460191FFF721FF20460199FFF77A
:10C6100087FF204602B010BD10B500F10F030139AD
:10C620001C78834201F8014F03F1FF33F8D110BDAC
:10C630002DE9F0411F460D468EB000295BD0DAB1DE
:10C64000D0F81080541EB8F1000F19D1838902214F
:10C650005BBA05AA01A8ADF80430CDF81480FFF745
:10C66000E9FD042C28BF04242846224605A902F02F
:10C670000FFC621C05F8048010460EB0BDE8F08186
:10C6800001A9FFF7C9FF05AA7FB1102101A8FFF793
:10C69000D1FD242C28BF24242846224605A902F0D7
:10C6A000F7FB0023621C2B55E6E704212D260DEB3A
:10C6B0000100FFF7BFFD02210DF11D0202A88DF858
:10C6C0001C60FFF7B7FD02210DF122020DF10A00F7
:10C6D0008DF82160FFF7AEFD02210DF1270203A8BE
:10C6E0008DF82660FFF7A6FD06218DF82B600BAABA
:10C6F0000DF10E00CBE70A46BEE710B504468AB03E
:10C700000023252208466946FFF792FF6946204626
:10C7100002F023F920460AB010BDF7B505461646CB
:10C720001F460A46D0E9000101ABFFF703FD30F0D8
:10C7300002040CD0841EBC4228BF3C463EB1019985
:10C740002B68023122463046194402F0A1FB2046F4
:10C7500003B0F0BD37B513460C4601920A460821D6
:10C760000546FFF7DAFF40B9224609212846019B1A
:10C7700003B0BDE83040FFF7D0BF03B030BD0000CC
:10C78000F0B50C4689B00C49054602F0E6F81F22C8
:10C7900069462046FFF7DEFF064650B16C4600278B
:10C7A000284614F8011B02F057F910B10137BE42B8
:10C7B000F6D1284609B0F0BD26FC3F0207B502239A
:10C7C000192101AAFFF7A9FF08B1BDF8040003B0C1
:10C7D0005DF804FB38B54FF6FF730025044643802F
:10C7E0000E22294605700571063002F078FB04F12F
:10C7F0001400FFF72BFE04F12800FFF727FE044981
:10C8000004F13C0002F0A9F82046656538BD00BF80
:10C8100026FC3F0238B50D680446014605F12800A4
:10C82000FFF76FFE40B1AB89A28A9A4205D8E08A31
:10C83000984234BF0020012038BD0020FCE710B52D
:10C84000D0E9063203EBC2029342184605D00468D1
:10C85000083324888C42F7D110BD0020FCE700008B
:10C86000002370B5036005466820FEF740FC041EF7
:10C8700004F10C0607D00123C4E90133044B304610
:10C880002360FFF7A7FF2846C5E9006470BD00BF1D
:10C8900090FD3F0270B5054606460C6814340FCC77
:10C8A0000FC5236830462B6070BD0000F0B506460A
:10C8B0001F460D4685B0002950D0002A4ED004688E
:10C8C000F42A237828BFF42243B32379980709D5A3
:10C8D0000023A0890392FEF76DFE0028039A03DA75
:10C8E00005B0F0BD6FF0770034682379D90609D51B
:10C8F000012F07D000232946A08905B0BDE8F040EC
:10C90000FEF7D6BE9B06EBD5022FE9D000232946C1
:10C91000A08905B0BDE8F040FEF7D8BE4FF6FF7124
:10C92000608888421CD021794E0701D5012F04D19F
:10C930000B0709D46FF07700D2E7A1890093134663
:10C940002A46FEF76FFECBE7022FF3D00023A18922
:10C95000009313462A46FEF757FEC1E70248BFE799
:10C960006FF0D100BCE700BFF2FEFFFF10B5036817
:10C9700086B01A7852BB4FF6FF705C88844225D08F
:10C98000188A30B3CDE903220592134A0092134A64
:10C99000CDE901235A88ADF80C201A8AADF80E2093
:10C9A0009A89ADF8102059B11A79920644BF022233
:10C9B00005921B79DB0642BF059B43F001030593FB
:10C9C00000216846FEF766FE06B010BD6FF0D1008C
:10C9D000FAE76FF07700F7E7030018008DD53F0204
:10C9E000F8B50026054606602820FEF780FB041EE9
:10C9F00004F10C070AD00123C4E90133054B384682
:10CA00002360FFF723FD266284F824602846C5E9E9
:10CA10000074F8BDACFD3F0270B500250646056008
:10CA20003020FEF764FB044698B10123C0E90133CE
:10CA30000A4B0E3040F80E3C4FF6FF7320F8023CD4
:10CA4000FFF7FAFCC4E90655C4E90855C4E90A55DC
:10CA5000A57574600C343046346070BDC8FD3F026B
:10CA600013B5044601A8FFF733FC236801A81C880E
:10CA70004FF6FF73E41A18BF0124FFF737FC204676
:10CA800002B010BD37B50C46054601A8FFF720FCE3
:10CA900023682A6801A8C2F802306368C2F8063029
:10CAA000FFF724FC03B030BD37B50D46044601A89E
:10CAB000FFF70EFC2A6801A8D2F802302360D2F8F2
:10CAC00006306360FFF712FC204603B030BD30B57E
:10CAD00005460C4687B001A8FFF7FAFB2A682368D1
:10CAE00012881B889A420DD1294602A8FFF7DCFF65
:10CAF000214604A8FFF7D8FF04A902A8FFF70FFCFE
:10CB0000044600B9002401A8FFF7F0FB204607B057
:10CB100030BD000070B506467420FEF7E8FA044602
:10CB2000A0B10025C0E90055C0E90255C0E904558F
:10CB3000C0E9065505622430FFF76EFF04F12C00B2
:10CB4000FFF76AFFE563E564E565E566346024B9EF
:10CB50000A200A4A0A49FEF70DFE0020FEF7F2FC01
:10CB600020B10A20054A0749FEF704FE0022316879
:10CB70000548FEF781FD304670BD00BFCDC03F02C5
:10CB800088FB3F02CDFB3F02CDDE3F0210B50A4CD1
:10CB9000D4E88F3FDB070CD42046FEF7AEFA40B155
:10CBA0000648FFF7B7FF2046FEF7ACFA044802F04C
:10CBB00059F9024810BD00BFE4AE0710ECAE0710F3
:10CBC00079E13F0230B503680446093B012B0D466D
:10CBD0008DB011D8FFF7DAFFA1880068FFF72FFEAC
:10CBE000034658B92022CDE904200B4A3220009296
:10CBF0000A4904AAFEF7CCFD0DB030BD6A6D002ACB
:10CC0000FAD0D4E9032105F14C00CDE90312AC6D53
:10CC100004AA03A9A047EFE70FFC3F029FFB3F02D6
:10CC200008B50020FEF78EFC00EAE07008BD0000A9
:10CC300070B504460E4615461830FFF7C7FA04F1E2
:10CC40002800FFF7CEFA00222146C4E90365034815
:10CC5000FEF786FC0028A8BF606970BD19EF3F028F
:10CC600010B504464069FEF78FFEA068FEF78CFE03
:10CC7000204610BD002247F67F71C0E90022C0E9BE
:10CC80000222C0E90422C0E90E22C0E91022C0E954
:10CC90001222C0E91422C0E91622C0E91822C0E914
:10CCA0001B2202620263A0F8681070470368D8690B
:10CCB0000028D4BF00200120704710B5044600684A
:10CCC000FEF762FE204610BD70B504462426C06DF6
:10CCD000FEF75AFE206DFEF757FE04F1380504F109
:10CCE0004400FFF7EAFF2846FFF76EF904F1280039
:10CCF000FFF796F804F11800FFF792F8D4E9005313
:10CD000006FB0356AE4204D02846FFF7A9FF2435A0
:10CD1000F8E72068FEF738FE204670BD30B51546AE
:10CD20000C469FB079B172B101A8FFF7A3FF21466D
:10CD30002A4601A8FFF77CFF044601A8FFF7C4FFBD
:10CD400020461FB030BD014CFAE700BFF2FEFFFFE6
:10CD500038B5141E0546436802DB62189A4200DDAE
:10CD60005C1A2A68501801191A44521A02F09DF8E8
:10CD70006A68121B6A6038BD38B5002304468360B8
:10CD800008200D46FEF7B3F918B12B6803606B68F5
:10CD90004360034B2060E360024B2046A36038BD34
:10CDA0003DCB3F0255CB3F020B68036013B15A687D
:10CDB00001325A60704710B5044651F8043B40F800
:10CDC000043BFFF7F1FF23680BB9FFF7C9F92046D1
:10CDD00010BD10B5044651F8043B40F8043BFFF782
:10CDE000E3FF204610BD10B5044651F8043B40F85F
:10CDF000043BFFF7D9FF204610BD10B504460430B0
:10CE0000FEF70CFF204610BD70B50446D0E9005374
:10CE100005EBC306AE4204D0281DFEF7FFFE083521
:10CE2000F8E72068FEF7B0FD204670BD70B50446F7
:10CE3000D0E9005305EBC306AE4204D0281DFEF72F
:10CE4000EDFE0835F8E72068FEF79EFD204670BD30
:10CE500010B504462430FFF7E9FF04F11800FFF78E
:10CE6000D3FF10BD826810B50AB901F0E5FEC368B2
:10CE7000BDE81040184700232DE9F047C0E9003312
:10CE80008360D1F80480054698450F464ADD4FEA95
:10CE90000810FEF76BFD0646002843D0D5E9004197
:10CEA000A04204EB011A16D9504515D2AAF1100A76
:10CEB000A4F11009AAEB04040444D1451DD01CB10F
:10CEC0005146204601F07AFD504601F0FBFCAAF1E4
:10CED000100A103CF1E710D0B146A2450DD0B9F1CF
:10CEE000000F03D02146484601F068FD204601F0BE
:10CEF000E9FC103409F11009EFE72868FEF744FD5A
:10CF0000C5F808802E60D7E9004304EB0318A0455C
:10CF100006D02146304601F06BFD10341036F6E79E
:10CF20007B686B602846BDE8F08730B58DB00C4655
:10CF300000F1380101A8FFF79EFF029B002B2FDDB7
:10CF400004F1140104A8FFF71BFC04F1080108A870
:10CF5000FFF716FC0A9A069B13431FD0DDE9014533
:10CF600004EB0515AC4219D0204604A901F096FD4A
:10CF700060B1012408A801F0A5FC04A801F0A2FCFE
:10CF800001A8FFF721F820460DB030BD204608A9C2
:10CF900001F084FD10340028E4D0EAE70024E9E73A
:10CFA0000124EDE7F8B50023C0E9003383604F6842
:10CFB00005469F420E4640DDF800FEF7D7FC0446CA
:10CFC000D8B3D5E90003844200EBC30310D99C42D7
:10CFD0000FD2083B1A1AA0F1080C22449C4518D025
:10CFE0001AB11968116059685160083B083AF5E7B1
:10CFF0000FD0014622468B420BD03AB1D1F800C087
:10D00000C2F800C0D1F804C0C2F804C00831083228
:10D01000F1E7FEF7B9FC2C60AF60D6E9003103EB15
:10D02000C100984208D01A68083444F8082C5A689D
:10D03000083344F8042CF4E769602846F8BD70B55D
:10D0400004460020C4E90000A0604E680D468642F8
:10D0500012DD7100FEF7A6FC70B12060A660D5E974
:10D06000003203EB42029A4204D033F8021B20F84C
:10D07000021BF8E76B686360204670BD10B503794A
:10D08000044623B90368186808B1FEF77DFC204602
:10D0900010BD10B50379044623B90368186808B1B8
:10D0A000FEF772FC204610BD2DE9F043D0F86C80ED
:10D0B0000F468FB0B8F1000F72D0056F002D6FD002
:10D0C00001F114091F230022FF214846FFF725FB29
:10D0D000FF2308370446002219463846FFF71DFB98
:10D0E000AC42064606D0AE4230D0002420460FB0F7
:10D0F000BDE8F0832046FEF739FC03AB0493002320
:10D10000044603908DF8143070B92023CDE9063021
:10D11000244B2549009306AA03463220FEF738FB2C
:10D1200004A8FFF7ABFFE1E70246FF212B46484684
:10D13000FFF7F3FA2A464146039801F099FE18B129
:10D1400004A8FFF79BFFCEE70124E9E72846FEF796
:10D150000DFC002403AB0646039004938DF81440A5
:10D1600078B92023CDE906300E4B0F49009306AA6B
:10D1700003463220FEF70CFB344604A8FFF789FF74
:10D18000B4E70246FF212B463846FFF7C6FA2A4687
:10D190004146039801F06CFE0028EED10124ECE733
:10D1A0000124A3E727FC3F029FFB3F0238B50D1E79
:10D1B0000446006803DDFEF7F5FB18B938BDFEF73D
:10D1C000E3FB00202060A5600120F7E708B5836835
:10D1D0008B4202DAFFF7EAFF08BD0120FCE738B511
:10D1E0000023C0E9003383600D4649680446994234
:10D1F00010DDFFF7DBFF68B1D5E900312268194483
:10D20000994205D00AB11878107001330132F7E75E
:10D210006B686360204638BD38B504460D460B6820
:10D22000083040F8083C4B68083140F8043CFFF7F0
:10D23000D6FF05F1140104F11400FFF7D0FF95F8B3
:10D240002030204684F8203038BD1FB5044601A8A0
:10D25000FFF7C5FF019B029A206823606368626044
:10D26000039A0293A368A26001900393FEF78CFBDC
:10D2700004B010BD2DE9F0410F4641681D46194428
:10D28000836804469942904612DC266862683E44F0
:10D290003146D21B701901F008FE2A46414630463D
:10D2A00001F0F6FD012063682B446360BDE8F08166
:10D2B000FFF77CFF0028E8D1F8E713460A46002173
:10D2C00010B50446416002B10BB9002010BDFF2B20
:10D2D00028BFFF23FFF7CEFF0028F7D06068F5E7EF
:10D2E000F8B50D46D0E901139942044616460BDA0B
:10D2F000276862687919521B481C01F0D6FD7E55DB
:10D30000636801336360F8BD0131FFF74FFF002808
:10D31000EED1F8E70A464168FFF7E2BF2DE9F7438F
:10D3200004461D460F4601AB90460A46D0E900016F
:10D330009DF82890FEF7FEFEAE1C02466368B9F128
:10D34000000F26D128B333441B1AFF2B09D82046DF
:10D350000199FFF7FDFC616820463144FFF736FF75
:10D3600018B9606803B0BDE8F0836A1C20460199D3
:10D37000D2B2FFF7B5FF01993A4601312046FFF7D7
:10D38000AFFF2B464246019902312046FFF772FF5C
:10D39000E7E7F118FF29E4D82046FFF717FF002838
:10D3A000DFD0691C2046C9B2FFF7B4FF39462046DA
:10D3B000FFF7B0FF2B4642466168E6E730B49DF8C0
:10D3C00008501AB1029530BCFFF7A8BF406830BCC6
:10D3D00070471FB500230622C0E900338360009325
:10D3E000012304468DF80F2019460DF10F02FFF7B7
:10D3F000E5FF204604B010BD8842F8B504460D464E
:10D40000164614D9904213D2A2F10806751AA1F15A
:10D4100008072C44B74218D01CB131462046FFF70C
:10D42000E2FC301DFEF7FAFB083E083CF2E70CD0A8
:10D43000B5420AD01CB129462046FFF7D4FC281D6E
:10D44000FEF7ECFB08350834F2E7F8BDF7B5044603
:10D4500046686846FFF7C7FCD4E901739F4212DBB8
:10D460000137002F29DDF800FEF780FA0546F0B1FC
:10D47000D4E9001201EBC202FFF7BEFF2068FEF7FD
:10D4800083FA2560A7602368626803EBC60631460D
:10D4900003EBC20206F10800FFF7AEFF1EB16946BA
:10D4A0003046FFF7A0FC012563680133636001A8E3
:10D4B000FEF7B4FB284603B0F0BD0025DEE7F8B563
:10D4C0000546D0E900430F4604EBC306A64205D04B
:10D4D00039462046FFF7FBFA08B114B9F8BD083405
:10D4E000F4E7201DFEF79AFBD5E90032204603EB56
:10D4F000C20204F10801FFF77FFF6B68013B6B601C
:10D50000ECE700002DE9F04305468FB003A80C4678
:10D51000FEF7DEFE2E68F31E0D2B6AD8DFE813F04F
:10D520000E0078006900FC0069006900690069006C
:10D530006900C600C600C600C600C600606A04F1E5
:10D5400018060230FEF7FAFE38B32146AA8951F8D0
:10D55000243F06A81A80FFF746FC06A93046FFF7CD
:10D5600075FF07A8FEF75AFB06A8FFF755FA069BBA
:10D5700004F1280007996362FEF784FE07A8FEF70E
:10D580004DFB20210023CDE906136D4A00920120B6
:10D590006C4906AAFEF7FCF82BE004A8FFF73CFA5A
:10D5A000AA89049B1A806968049808310230FEF742
:10D5B000A9FE04A906A8FFF716FC304606A9FFF746
:10D5C00045FF054607A8FEF729FBC5B92023CDE98D
:10D5D00006355D4B01205B49009306AA2B46FEF7FA
:10D5E000D7F8049B29461888FDF7D6FF05A8FEF753
:10D5F00015FB03A8FEF77AFE0FB0BDE8F083E36BDE
:10D6000023B104A904F13400FFF72CFC05A8B6E708
:10D610002046A989FFF713F906460028E9D00146FC
:10D6200004F12C00FFF753FA04F1180848B1314611
:10D630004046FFF744FF20220023CDE90623434A5A
:10D64000A4E74FF6FF713568D5E90632298003EB70
:10D65000C2029A4203D053F8080B4180F9E7D5E99A
:10D66000037307EBC309B94504D0381DFEF7D6FA9A
:10D670000837F8E700232B61D5E9067307EBC309E8
:10D68000B94504D0381DFEF7C9FA0837F8E700237A
:10D69000EB61AB72E36C23B1314604F14400FFF758
:10D6A000E1FB4FF6FF7233681A80C0E72046A98974
:10D6B000FFF7C5F800289CD0E36D002B99D000231C
:10D6C0000D2EADF8163001D0102E17D10023696849
:10D6D0001A4606258DF81530049109AB8DF81420F3
:10D6E00006908DF81C60DDE90401089583E80300CD
:10D6F000236E06A904F1540098477AE70F2E01BF64
:10D700002B7A696803F0010208251DBF1A461946E5
:10D710001D46C3F34003DDE7A9892046FFF78FF8D4
:10D72000014600283FF465AFE36E002B3FF461AF84
:10D730006B6806AA069304F16400236F984758E7C4
:10D7400068FC3F029FFB3F0242FC3F0272FC3F022B
:10D7500070B504466430FEF763FB04F15400FEF735
:10D760005FFB04F14400FEF75BFB04F13400FEF7BD
:10D7700057FB04F13000FEF751FA04F12800FEF7E0
:10D780004DFAD4E9065305EBC306AE4204D0281D7A
:10D79000FEF744FA0835F8E7A069FEF7F5F804F15A
:10D7A0000C00FFF743FB2046FFF72EFB204670BD21
:10D7B00010B5064B1C6844B12046FFF7C9FF204650
:10D7C000BDE810407421FDF796BC10BDECAE07100B
:10D7D00038B50D1E0446006805DD14216943FEF7C7
:10D7E000E1F818B938BDFEF7CFF800202060A56039
:10D7F0000120F7E72DE9F8430024C0E900448460E4
:10D80000884649680746A1421CDDFFF7E1FFC8B121
:10D81000D8E900934FF0140C0CFB039CD7F800E000
:10D8200009EB0405AC450AD01EEB04061EBF0FCD64
:10D830000FC62B6804F1140418BF3360F0E7D8F862
:10D8400004307B603846BDE8F8832DE9F84345682D
:10D850008368D1E90087E9199942044617DC14234B
:10D8600062685D4303FB07F95A432668521B2E4446
:10D87000314606EB090001F018FB4A4641463046A6
:10D8800001F006FB63683B446360BDE8F883FFF783
:10D890009FFF0028E3D1F8E782B070B50C4604A9D9
:10D8A00081E80C00D0E901139942054617DA1423E8
:10D8B0006A6803FB04F15A432C68521A0C4421464F
:10D8C000E01804AE01F0F1FA0FCE0FC43368236004
:10D8D0006B6801336B60BDE8704002B07047013186
:10D8E000FFF776FF0028E2D1F5E72DE9F04F00249D
:10D8F00005460F469046931EC0E9004493B0DBB244
:10D900008460059379688C4272DA3868424607ABC6
:10D91000091B2044FEF70EFC0646002868D0059B34
:10D92000012B2FD84FF00009A0F1020B4FEA5B0B3F
:10D930000DF13C0A079BCB45234455D03A6803EBD5
:10D9400049031344D9789B7808A843EA0121FEF7DC
:10D95000CEFD0DF1340C0DF1200EBEE80F00ACE849
:10D960000F00DEF8003009F10109CCF800309AE828
:10D9700007008DE807000DAB28460CCB6968FFF760
:10D980008BFFD7E7A8F10603012B2DD84FF0000934
:10D99000A0F1020B4FEA1B1B0DF13C0ACB45079B84
:10D9A00022D002333968234403EB091301221944BE
:10D9B00008A8FEF77DFD0DF1340C0DF1200EBEE838
:10D9C0000F00ACE80F00DEF8003009F10109CCF8D7
:10D9D00000309AE807008DE80700DDE90D232846AE
:10D9E0006968FFF759FFD9E7079B1C44344489E76E
:10D9F000284613B0BDE8F08F002330B504460D462D
:10DA000085B0C0E900338360022201A8FFF76DFFF3
:10DA100001A92046FFF719FF01A8FFF74EF90222DE
:10DA2000294601A8FFF761FF01A92046FFF70DFF76
:10DA300001A8FFF742F90322294601A8FFF755FF85
:10DA400001A92046FFF701FF01A8FFF736F90622DA
:10DA5000294601A8FFF749FF01A92046FFF7F5FE77
:10DA600001A8FFF72AF90722294601A8FFF73DFF81
:10DA7000204601A9FFF7E9FE01A8FFF71EF920469D
:10DA800005B030BD2DE9F04385B08846014601A8B8
:10DA90009146FFF7B1FF4FF0140E0027019E029B45
:10DAA0000EFB036CB4450DD0B94506F1140609D040
:10DAB0000EFB0784A6F114050FCD0FC42B680137A8
:10DAC0002360EFE701A8FFF7F8F8384605B0BDE896
:10DAD000F0832DE9F04F8BB00C4600F1440101A812
:10DAE000FFF788FE029B002B4ADD04F1140104A815
:10DAF000FFF782FF04F1080107A8FFF77DFF059DEE
:10DB0000089E002D01DC002E38DD1423019A029FAF
:10DB10009246DDF81080DDF81C9003FB072703FB1D
:10DB2000058503FB0696BA4528D0C346AB4515D0FC
:10DB300059465046FEF7E5FC0BF1140B044600284D
:10DB4000F4D007A8FFF7B9F804A8FFF7B6F801A8C2
:10DB5000FFF7B3F820460BB0BDE8F08FCB46B345D6
:10DB600009D059465046FEF7CCFC0BF1140B044685
:10DB70000028F4D0E5E70AF1140AD4E70024E0E72E
:10DB80000124E4E738B505460C46FEF752F9AB68C8
:10DB9000A268AA60A360EB68E268EA60E36038BD4F
:10DBA000002330B585B002938B6805460C4633B12F
:10DBB000022268469847E3680393A36802932946C4
:10DBC0006846FFF7DFFF6846FEF72AF905B030BD6B
:10DBD00038B50D46016804464B6D23B128684C31B9
:10DBE0004C30FFF7DDFF20462B6840F8043B6968A6
:10DBF000FEF748FB204638BD2DE9F043044687B0C8
:10DC000068460E461746FEF763FB2368D3E90643D2
:10DC100004EBC3084445A14616D0214601A8FEF7EF
:10DC200039FE394601A8FEF76CFC08340546002889
:10DC3000F0D049463046FFF7CBFF6846FEF756FB6B
:10DC4000284607B0BDE8F0830025F6E710B5046864
:10DC50008AB04C34B9B1CDE9001202A86946FFF789
:10DC60008BF8002306A902A80893FFF78BFF214633
:10DC700006A8FFF787FF06A8FEF7D2F802A8FEF76E
:10DC8000CFF80AB010BD0491EBE78842F8B504461E
:10DC90000D46164614D9904213D2A2F10806751A01
:10DCA000A1F108072C44B74218D01CB131462046D8
:10DCB000FFF78FF8301DFDF7B1FF083E083CF2E793
:10DCC0000CD0B5420AD01CB129462046FFF781F896
:10DCD000281DFDF7A3FF08350834F2E7F8BD70B53D
:10DCE0000E1E054611DDF000FDF740FE044658B15A
:10DCF000D5E9001201EBC202FFF7C7FF2868FDF764
:10DD000043FE01202C60AE6070BD0024F6E70023C6
:10DD10002DE9F041C0E9003383600D4649680446AF
:10DD2000994213DDFFF7DBFF80B1D5E90063276877
:10DD300006EBC308B04507D01FB131463846FFF7A0
:10DD400048F808360837F5E76B6863602046BDE899
:10DD5000F08137B50D46044601A8FEF7B9FA2968E7
:10DD600020460C31FFF7D3FF01A8FEF7BFFA20468B
:10DD700003B030BD38B50B6805469B7A0C4633B905
:10DD80000846FEF739FA10B9012223689A7228462C
:10DD90002146FFF7DEFF284638BD73B504464568C7
:10DDA0006846FFF716F8D4E90113994210DA2368A0
:10DDB000626803EBC505294603EBC20205F10800C2
:10DDC000FFF763FF8DB9636801260133636006E0E6
:10DDD00020460131FFF783FF06460028E7D101A85E
:10DDE000FDF71CFF304602B070BD69462846FEF7BD
:10DDF000F0FFE8E72DE9F04F054688460027DFF8F9
:10DE0000B490DFF8B4A093B02B68BB424ED91C2667
:10DE100003A8FEF7E5FD0DF1140CE3467E436A68A6
:10DE2000039C3244131D1432E646186859680833BF
:10DE3000AEE803009342F446F6D118685946CEF88E
:10DE400000000AA8FEF712FB0DF1280CBCE80F0039
:10DE50000FC4DCF80030039A23606B6803A93344D5
:10DE60001B8B93826B6833445B8BD382D8F80000A2
:10DE700000F10C040AA8FEF7ACFF20460AA9FFF740
:10DE80008CFF04460BA8FDF7C9FE54B92023514668
:10DE9000CDE90A3432202346CDF800900AAAFDF7D6
:10DEA00077FC04A8FDF7BAFE0137ADE713B0BDE873
:10DEB000F08F00BF7FFC3F029FFB3F028842F8B516
:10DEC00004460D46164614D9904213D2A2F1080614
:10DED000751AA1F108072C44B74218D01CB131467D
:10DEE0002046FEF768FF301DFDF798FE083E083C0F
:10DEF000F2E70CD0B5420AD01CB129462046FEF705
:10DF00005AFF281DFDF78AFE08350834F2E7F8BDF0
:10DF100070B50E1E054611DDF000FDF727FD044625
:10DF200058B1D5E9001201EBC202FFF7C7FF28681C
:10DF3000FDF72AFD01202C60AE6070BD0024F6E7DD
:10DF400000232DE9F041C0E9003383600D464968A4
:10DF50000446994213DDFFF7DBFF80B1D5E900638A
:10DF6000276806EBC308B04507D01FB131463846D5
:10DF7000FEF721FF08360837F5E76B686360204637
:10DF8000BDE8F08137B50D46044601A8FEF7A0F9BB
:10DF9000296820461831FFF7D3FF01A8FEF7A6F93C
:10DFA000204603B030BD73B5044645686846FEF7A9
:10DFB00002FFD4E90113994210DA2368626803EB87
:10DFC000C505294603EBC20205F10800FFF776FFFD
:10DFD0008DB9636801260133636006E02046013194
:10DFE000FFF796FF06460028E7D101A8FDF716FEC9
:10DFF000304602B070BD69462846FEF7DCFEE8E711
:10E00000F0B585B0054601A80C461746FEF760F945
:10E010000023C5E90033AB602368D3E9064604EB6F
:10E02000C606B44211D021463868FEF7F3FB50B162
:10E03000214602A8FEF7BFFE284602A9FFF7B3FF5C
:10E0400003A8FDF7EBFD0834EBE701A8FEF74EF956
:10E05000284605B0F0BD00002DE9F0430B680646E8
:10E060009B7A0F46904691B033B9C0E90033836084
:10E07000304611B0BDE8F08311680D7E002D58D1F7
:10E0800020232A4603A8CDE90835FEF736FB039B7B
:10E090002B4901932B4B08AA012000932B46FDF737
:10E0A00077FB03A800F00EFC1C23ADF82230D8F853
:10E0B000003008A99A8AADF83820DB8A224AADF8E8
:10E0C0003A303B6818880095FDF790FA002830DB5D
:10E0D0003B68D3E9064304EBC3090834A4F1080301
:10E0E000994522D054F8083CDB89002BF5D010224A
:10E0F00000210DEB0200039500F0F1FE54F8083CFE
:10E1000003AAD9893B68188813230095FDF798FA6C
:10E110000028E2D010AB184400F8345C54F8080C26
:10E1200003A93C3000F06FFCD7E70122D8F800309B
:10E130001A76424639463046FFF762FF98E700BF3D
:10E140009FFB3F02A4FC3F02D9EC3F02F0B50B68F5
:10E1500006469B7A0D4685B02BB901A8FFF70AFE4B
:10E1600001A8FEF751FE2B68D3E9034704EBC7076C
:10E17000BC4209D02246294601A8FFF76DFF01A83D
:10E18000FEF754FE0834F3E730462946FFF7FAFE5F
:10E19000304605B0F0BD00002DE9F0414FF0000819
:10E1A0001F464C4B92B005460C46086849680493DC
:10E1B0000AAE05AB079203C683E80300CDE90888E1
:10E1C000FEF7E4FC444B0AAE0893FEF7DFFC03685D
:10E1D000214628460993FEF755FCFEF7D7FC2B682D
:10E1E0000068436269682830FEF74CF842462968A7
:10E1F00004A8FDF733FA0446B8B14FF6FF722B6856
:10E200001A80FEF7C3FC05683046FEF705FC0A9B42
:10E2100005F128006B620B99FEF734F80BA8FDF7A7
:10E22000FDFC204612B0BDE8F08103A8FEF750F8CF
:10E23000FEF7ACFC2B6800681988FEF700FB4FF076
:10E24000200818BB254B264F324626493220009322
:10E250002346CDE90A84FDF79BFA3868FDF764F997
:10E260002B688DF80C4021461888FDF795F9386821
:10E27000FDF74CF901234FF6FF728DF80C302B6837
:10E2800003A81A80FEF732F8174CBAE703A8FEF786
:10E290002DF8164B32460093012023461149CDE953
:10E2A0000A84FDF775FA002FABD029463046FFF7F8
:10E2B0004DFFDDE90A5305EBC307BD4205D02846F3
:10E2C0000121FEF753FB0835F7E73046FEF7AEFDB8
:10E2D00097E700BF03001800CDDE3F02D6FC3F02E7
:10E2E000E8AE07109FFB3F02FCFEFFFFF2FC3F027F
:10E2F00013B50446CDE90032FEF78EFB002220461E
:10E30000009B0199FFF748FF204602B010BD0000B6
:10E310002DE9F04F2023002695B0CDE90C36664B51
:10E32000054600930F463346012064490CAAFDF7C9
:10E330002FFADFF88C91DFF88481DFF888A12B6851
:10E34000B34240F2B5804FF02A0B03A80BFB06FB4B
:10E35000FEF786FA05A8FEF743FB6B68039A5B4459
:10E36000D98B1181198C5181598C9181988CD081D4
:10E37000D88C10821B8D5382D7E9033203EBC20283
:10E380009A427DD01868C48A8C4277D3848A8C42A2
:10E3900074D85968059006A8FDF774FFDDF80CE005
:10E3A000DDF814C00EF12804BCE80F000FC4DCF83F
:10E3B000003023602B89AEF802306B68039C5B440D
:10E3C0005B7E13F0020F6ED16B685B445B7E580777
:10E3D00042BF237943F0040323716B685B445B7E87
:10E3E000190742BF237943F0080323716B685B442C
:10E3F0005B7EDA0607AA964642BF237943F01003F4
:10E4000023716B685B445B7E9B0642BF237943F0BC
:10E41000200323716B689B440BF104030BF1140B75
:10E420009446186859680833ACE803005B456246B7
:10E43000F6D118687146CCF800000CA8FEF716F863
:10E4400014340DF1300CBCE80F000FC4DCF80030C0
:10E4500003A923600CA8FEF7AEFC0CA907F1180075
:10E46000FFF7A1FD04460DA8FDF7D8FB9CB92023BA
:10E47000CDF800A0CDE90C34234607E008337FE750
:10E4800020240023CDE90C43CDF8009041463220F2
:10E490000CAAFDF77DF906A8FDF7C0FB04A8FDF75F
:10E4A000BDFB01364BE7237943F0020323718BE771
:10E4B00015B0BDE8F08F00BF0FFD3F029FFB3F028C
:10E4C0002AFD3F0259FD3F028842F8B504460D4639
:10E4D000164614D9904213D2A2F12406751AA1F15E
:10E4E00024072C44B74218D01CB131462046FEF711
:10E4F00093FE3046FEF7B4FB243E243CF2E70CD0FA
:10E50000B5420AD01CB129462046FEF785FE2846B2
:10E51000FEF7A6FB24352434F2E7F8BDF8B50E1E4D
:10E52000054613DD242707FB06F0FDF71FFA044616
:10E5300058B1D5E9001207FB0212FFF7C5FF2868A2
:10E54000FDF722FA01202C60AE60F8BD0024F6E74A
:10E550002DE9F04306460C469DB001AD2846FDF777
:10E560006BFF03A8FEF735FF06A8FEF732FF306900
:10E57000716913AB03C3337885E80300F289B1688E
:10E5800006A88DF82430FEF798FEB289716803A8BA
:10E59000FEF793FE94F9683013AF7F2B03D09DF9FB
:10E5A00024209A425CDB94F969307F2B03D09DF9DB
:10E5B00024209A4254DC384604F15001FEF7F2FC64
:10E5C000149B002B52DD139E06EBC309B14550D0BE
:10E5D00030462946FDF7A3FE083680460028F5D0D0
:10E5E0001398FDF7D1F9B8F1000F39D0294620462C
:10E5F000FEF79BFCA0B329462046FFF76AFA0646C1
:10E6000070B3384604F15C01FEF719FD149B002B32
:10E6100012DD06A8FEF7D2F8804603A8FEF7CEF872
:10E62000DDE9133203EB42029A4225D033F8021B94
:10E63000884501D08842F7D11398FDF7A5F97EB13E
:10E6400029462046FEF730FD50B1236AB3B1394662
:10E650006369139501336361636A04F11800984795
:10E660002846FEF7FDFA1DB0BDE8F0834FF0010823
:10E67000B6E74FF00008B3E70026DDE7D4F83080B6
:10E68000B8F1000F07D0636929460133636104F1D3
:10E690002800636BE3E7D4F80CC0BCF1000F25D071
:10E6A00063692269013393426361D9D824225343B9
:10E6B0002A46243B0CEB030603CA4CF803007160A6
:10E6C00006F1080003A9FEF7C0FD06A906F1140033
:10E6D000FEF7BBFD9DF9243086F82030D4E90432E2
:10E6E0009A42BDD34046FCF749FFB9E70DF128082F
:10E6F00095E8030088E8030003A90CA8FEF76FFD66
:10E7000006A90FA8FEF76BFD9DF824304146384658
:10E710008DF848306668FEF77FFDD4E90113994211
:10E7200010DA24222368616802FB063602FB0132FC
:10E7300006F124003146FFF7C7FE86B9636801334E
:10E74000636005E020460131FFF7E8FE0028E8D1CC
:10E750003846FEF785FA4046FEF782FA80E73946EA
:10E760003046FEF759FDE9E7002302480360FCF755
:10E77000BFBE00BFE8AE071070474174704708B5D0
:10E78000007CFCF78BFE20EAE07008BD08B5007C39
:10E79000FCF73EFE20EAE07008BD08B5007CFCF7FF
:10E7A00053FE40EAE07008BD08B5007CFCF73EFE71
:10E7B00040EAE07008BD007CFCF754BE37B5457CEC
:10E7C00004462DB1207C03B0BDE83040FCF712BEFA
:10E7D000007C0191FCF762FE00280199F2DC2846DA
:10E7E00003B030BD10B504461421FCF784FC20466C
:10E7F00010BD000010B54FF47A7304460846114668
:10E800000022C4E90123044B2074236001236374B4
:10E81000FCF752FE204610BDE4FD3F02007CFCF7F1
:10E820002FBE000002220020044B1A60044B054A50
:10E83000C3E900009A60FDF76FB800BFFCAE071097
:10E84000F0AE07100000FFFF002240681146FDF700
:10E850001DB8002240681146FDF734B80022406818
:10E86000FDF722B80022406881F00101FDF700B8F1
:10E87000002340681A461946FCF7ECBF00234068A5
:10E880001A461946FCF7D8BF002240681146FCF72B
:10E89000C5BF002240681146FCF7A4BF0022022138
:10E8A0004068FCF7ADBF002340681A46FCF78CBFF8
:10E8B0000322024B5A60024A1A60704700AF0710E9
:10E8C00014FE3F0210B504460068FDF75DF82046CF
:10E8D00010BD10B50446006808B1FDF755F80023D7
:10E8E000C4E90133236010BD38B504460D46006805
:10E8F0000131FDF757F810B1C4E90005012038BD1A
:10E9000010B50368044623B143688B4201D301204C
:10E9100010BD2046FFF7E8FF0028F9D0A368002BC0
:10E92000F5D122681370F2E737B50D461146019212
:10E930000446FFF7E5FF019A28B92046FFF7C9FF13
:10E94000204603B030BD2946A260206800F0A0FA3E
:10E9500000212268A368D154F2E7002313B50446CE
:10E96000C0E900338360037341B108460191FCF7AD
:10E9700099FB019902462046FFF7D6FF204602B0D8
:10E9800010BD38B5054600680C4668B16A688B68EA
:10E990009A4207D3096800F0D9FAA368AB60002354
:10E9A000A36038BDFCF7F0FF23682B6063686B60E1
:10E9B000A368AB600023C4E90033F1E7002310B57E
:10E9C0000446C0E9003383600373FFF7DAFF204693
:10E9D00010BD884210B5044605D00B682BB18A687B
:10E9E0001946FFF7A1FF204610BDFFF772FFFAE7B7
:10E9F000002310B50446C0E9003383600373FFF7BA
:10EA0000E8FF204610BD13B5044659B108460191F0
:10EA1000FCF748FB019902462046FFF785FF204698
:10EA200002B010BDFFF755FFF9E770B505460E4679
:10EA300009B9002070BD6AB1846814442146FFF70B
:10EA40005FFF0028F5D02868AB683146184400F015
:10EA50007DFAAC600120EDE7002307B501228DF8B7
:10EA6000041001A98DF80530FFF7DFFF03B05DF852
:10EA700004FB02680B46096862B141B9806860B165
:10EA800010787047986840B109784842704710463E
:10EA9000FCF7FEBA0029F5D10846704708B5826830
:10EAA0008B689A4205D1FFF7E4FFB0FA80F0400985
:10EAB00008BD0020FCE7704738B5142504462A46F7
:10EAC000002100F00CFA25804025074928462581C1
:10EAD000258200F0AFF804496060284600F0AAF8EB
:10EAE000E060204638BD00BF48FE3F0270477047D7
:10EAF00010B50446FFF7E0FF204610BD10B50446F0
:10EB0000FFF7DAFF204610BD10B50446FFF7D4FF2B
:10EB1000204610BD30B50E4D87B0D5E88F1F11F0DF
:10EB2000010411D12846FCF7E8FA68B101A8FFF703
:10EB3000DFFF214601AA0748FFF75CFE2846FCF7E5
:10EB4000E1FA054800F08EF9024807B030BD00BF79
:10EB50000CAF071018AF07107FF43F0210B50D4C33
:10EB600086B0D4E88F3FDB0711D42046FCF7C5FA06
:10EB700068B101A8FFF7C2FF012101AA0648FFF70B
:10EB800039FE2046FCF7BEFA044800F06BF9024853
:10EB900006B010BD10AF07102CAF0710B7F43F023E
:10EBA00010B5FFF7DBFF074B044653B1FFF736FE06
:10EBB00038B1236820461B699847002801DD00E032
:10EBC00000BF10BD0000000010B50D4C86B0D4E8A9
:10EBD0008F3FDB0711D42046FCF78FFA68B101A8FC
:10EBE000FFF792FF022101AA0648FFF703FE204625
:10EBF000FCF788FA044800F035F9024806B010BD69
:10EC000014AF071040AF0710B5F43F0210B5FFF77F
:10EC1000DBFF074B044653B1FFF700FE38B1236812
:10EC200020461B699847002801DD00E000BF10BDA9
:10EC300000000000FCF75DBA08B5FCF7C1FE00005B
:10EC4000014900F0F9B800BF64FE3F027FB500241F
:10EC5000102315461268CDE902340368CDE900445B
:10EC60009E696B46B0479DF8043003F00603062BFF
:10EC700005BF009B012020462B6004B070BD0098AA
:10EC8000904214BF0120062070470000034B10B5CE
:10EC90000446036000F0CDF8204610BDA4FE3F02FC
:10ECA00010B50446FFF7F2FF08212046FCF723FACF
:10ECB000204610BD2DE9F041DDF818801F460646BC
:10ECC0001546DDE90834984507D1079900F0B4F8F6
:10ECD00018B165710020BDE8F0813946304600F07A
:10ECE000ABF80028F6D00123C4F800802571A37189
:10ECF000F0E738B515461C4600F09EF820B1082311
:10ED00002560E3600623237138BD73B505460C46C4
:10ED10001E46019200F090F850B9032E08D82368DF
:10ED20002946019A20465B6902B0BDE87040184749
:10ED300002B070BD034B10B504460360FFF7A6FF99
:10ED4000204610BD04FF3F0210B50446FFF7F2FF56
:10ED50000C212046FCF7CFF9204610BDF7B5089FDF
:10ED600005460E46144697420AD0A8683146026806
:10ED70000897156A2246AC4603B0BDE8F0406047EC
:10ED80001946019300F058F8019B0028EDD00620A9
:10ED900003B0F0BD2DE9F14F0D46194681461746E7
:10EDA0009846DDE90A4BDDE90CA600F045F890B184
:10EDB000002D3460377109DB61198A450CBF0621CB
:10EDC0000121B171002001B0BDE8F08F0235F9D109
:10EDD0000123B371F6E7544506D15946484600F081
:10EDE0002BF808B17771EDE7D9F808003A462946C3
:10EDF0000368CDE90CA6CDE90A4BDC694346A4467D
:10EE000001B0BDE8F04F60472DE9F04107460C46E0
:10EE100015461E46FFF76DFF48B9B8682A462146D9
:10EE200003689F693346BC46BDE8F0416047BDE8D2
:10EE3000F081704700207047814208B50ED04068CD
:10EE400003782A2B0CD049680B782A2B08BF013194
:10EE5000FCF71EF9B0FA80F0400908BD0120FCE77C
:10EE60000020FAE7002301461A46184600F082B84F
:10EE70000139024410B5904201D1002005E0037829
:10EE800011F8014FA34201D0181B10BD0130F2E769
:10EE90000A44431E914200D1704710B511F8014B4E
:10EEA000914203F8014FF9D110BD884210B501EB32
:10EEB000020402D98442234607D8431EA14208D047
:10EEC00011F8012B03F8012FF8E7024401468A42AA
:10EED00000D110BD13F8014D02F8014DF7E70244CF
:10EEE0000346934200D1704703F8011BF9E7000085
:10EEF00038B5104B04461D68AB6BB3B91820FCF74E
:10EF000035FD0246A86320B90B4B42210B48FCF7A4
:10EF100065FD0B490B4BC0E900130B4B00218360CF
:10EF20000B2383810120C2E90401AB6B00221C6129
:10EF30005A6138BDF4AA07103DFF3F0254FF3F025B
:10EF40000E33CDAB34126DE6ECDE0500034611F84E
:10EF5000012B03F8012B002AF9D170470246014426
:10EF600010B58A42134603D01C780132002CF8D128
:10EF7000181A10BD2DE9F843DFF8BC8006461F467D
:10EF80000D46D8F80000914600F058F8264B1C6852
:10EF900034B9264C1C60264B13B11B68C4F888306A
:10EFA00063681F2B07DDD8F8000000F049F84FF028
:10EFB000FF30BDE8F8835EB3D4F8880088B91D4BF4
:10EFC00023B9D8F8000000F03AF8F0E74FF4847065
:10EFD000FCF7CCFC0028F4D00023C0E94033C4F88F
:10EFE000880063680122022E40F8239002FA03F29F
:10EFF00000EB8301D0F8003143EA0203C0F800318E
:10F00000C1F8807002BFD0F804311343C0F8043156
:10F010006368D8F800005A1C0233626044F8235039
:10F0200000F00EF80020C4E7E0AF071054AF07105F
:10F030000000000035C33F0258AB0710704770470F
:10F0400070470000000000000000FB349B5F800060
:10F050000080001000000000000000007DBA3F02A8
:10F06000A5BA3F02A9BA3F0200000000364534307D
:10F07000303030312D423541332D463339332D4533
:10F080003041392D453530453234444343413945CB
:10F090000036453430303030322D423541332D4644
:10F0A0003339332D453041392D45353045323444DF
:10F0B00043434139450036453430303030332D42FA
:10F0C0003541332D463339332D453041392D4535C2
:10F0D00030453234444343413945000000000000CC
:10F0E00000000000DDC33F02E7C33F02F1C33F025F
:10F0F000FBC33F0205C43F0211C43F021DC43F02CF
:10F1000025C43F022DC43F0239C43F0241C43F021F
:10F110004BC43F0255C43F02000000000000000045
:10F120009FC53F0295C53F028BC53F0241C53F02C7
:10F130007FC53F0273C53F021DC43F0225C43F0285
:10F1400067C53F025FC53F0255C53F024BC53F0241
:10F1500055C43F0200000000000000000000000055
:10F1600000000000FBC53F0263C63F0239C63F02F4
:10F17000C5C93F022BC63F02FDC53F020DC63F0277
:10F180005DC63F021DC63F02F5C53F0200000000FC
:10F190000000000009C73F02F9C63F02FBC63F025C
:10F1A00025592D256D2D25645425483A254D3A25A0
:10F1B00053257A0061736374696D65006170700036
:10F1C000417373657274696F6E4661696C757265BF
:10F1D0002066616C736500776972696E672E626C78
:10F1E0006500537461727420646973636F7665722D
:10F1F000696E672073657276696365732E00FFFF21
:10F20000FFFFFFFF00417373657274696F6E4661A3
:10F21000696C7572652068616C5F626C655F7374A0
:10F2200061636B5F696E6974286E756C6C70747263
:10F2300029203D3D2053595354454D5F4552524F6F
:10F24000525F4E4F4E450050656572206465766989
:10F250006365206973206D697373696E6721004669
:10F2600061696C656420746F20616C6C6F6361749C
:10F2700065206D656D6F727921004661696C65640A
:10F2800020746F20617070656E64207065657220F7
:10F2900043656E7472616C206465766963652E00E7
:10F2A000436F6E6E656374656400446973636F6E6B
:10F2B0006E6563746564004661696C656420746F93
:10F2C00020617070656E6420646973636F76657227
:10F2D000656420736572766963652E00537461728C
:10F2E0007420646973636F766572696E6720636802
:10F2F00061726163746572697374696373206F66A8
:10F3000020736572766963653A2025732E00436128
:10F310006E6E6F7420616464206E65772070656521
:10F3200072206465766963652E004E65772070658E
:10F33000726970686572616C20697320636F6E6EAC
:10F3400065637465642E00436861726163746572FD
:10F35000697374696320646973636F766572656449
:10F360002E00446973636F7665726564206368611B
:10F37000726163746572697374696327732068616D
:10F380006E646C6520697320696E76616C69642EA9
:10F39000004661696C656420746F20617070656EF1
:10F3A0006420646973636F76657265642063686165
:10F3B00072616374657269737469632E0000000082
:10F3C00000000000000000005DCA3F02C1CA3F0209
:10F3D00037CC3F02EBCA3F0261CA3F020000000087
:10F3E0000000000059CA3F02CFCA3F025BCA3F0279
:10F3F000F1CA3F0281CA3F02000000000000000085
:10F4000057CA3F02DDCA3F0219D83F02F7CA3F027E
:10F41000A1CA3F02000000000000000041F13F02CD
:10F42000ADF13F0285F13F02C5C93F0255F13F02F0
:10F4300071F13F0263F13F027FF13F0243F13F026E
:10F4400047F13F0200000000000000006FF23F02A1
:10F4500065F23F025BF23F0251F23F0245F23F028A
:10F4600039F23F021DC43F0225C43F022DF23F0284
:10F4700025F23F021BF23F0211F23F0255C43F0248
:10F4800000537431395F53705F6D616B655F7368F2
:10F49000617265645F74616700000000A4FE3F0252
:10F4A00049FE3F0204FF3F0278FE3F0228FF3F0271
:10F4B0004E31305F5F637878616269763131375FF2
:10F4C0005F636C6173735F747970655F696E666F9B
:10F4D00045000000000000006CFE3F0255F63F02B0
:10F4E00069F63F02FDF73F02FDF73F02D3F63F0208
:10F4F00015F63F02BBF63F027DF63F0247F63F029C
:10F5000004FF3F02D4FE3F026CFE3F024E31305FEB
:10F510005F637878616269763132305F5F73695F0B
:10F52000636C6173735F747970655F696E666F4554
:10F530000000000000000000C8FE3F02FDF63F0290
:10F5400011F73F02FDF73F02FDF73F02D3F63F02FE
:10F5500015F63F02D1F73F025DF73F0225F73F0264
:10F56000A4FE3F0230FF3F02537439747970655F27
:10F57000696E666F005245454E54206D616C6C6F2C
:10F580006320737563636565646564002F6D6E74D5
:10F590002F776F726B73706163652F776F726B7308
:10F5A000706163652F4743432D31302D706970655D
:10F5B0006C696E652F6A656E6B696E732D47434388
:10F5C0002D31302D706970656C696E652D34385F32
:10F5D00032303230313132345F31363036313830DA
:10F5E0003634312F7372632F6E65776C69622F6EBC
:10F5F00065776C69622F6C6962632F7374646C69E0
:10F60000622F72616E642E630000000079BC3F02BD
:10F610002DC53F02A9C53F0271C93F027DC93F0206
:10F62000B5C93F0231F13F02EDF13F0279F23F02ED
:10F63000000000027CFB3F02F8AA07100000000057
:10F6400000000000000000000000000000000000BA
:10F6500000000000000000000000000000000000AA
:10F66000000000000000000000000000000000009A
:10F67000000000000000000000000000000000008A
:10F68000000000000000000000000000000000007A
:10F69000000000000000000000000000E4AF0710C0
:04F6A0000000000066
:10FFBE000200100000B05F0888B05F0850BA3F0220
:10FFCE0001000A00FFFFFFFFFFFF00000102030414
:10FFDE0005060708090A0B0C0D0E0F10111213144B
:0EFFEE0015161718191A1B1C1D1E1F203E0089
:04FFFC0078563412ED
:04000005085FB018C8
:00000001FF
