:02000002B0004C
:1040000000400B00BAE60D00000006000C0005029F
:0840100004015014000000003F
:044018002C9C0D00CF
:1040200081F0004102E000BF83F0004330B54FEA69
:1040300041044FEA430594EA050F08BF90EA020FD6
:104040001FBF54EA000C55EA020C7FEA645C7FEA69
:10405000655C00F0E2804FEA5454D4EB5555B8BF8C
:104060006D420CDD2C4480EA020281EA030382EAFD
:10407000000083EA010180EA020281EA0303362D8F
:1040800088BF30BD11F0004F4FEA01314FF4801C62
:104090004CEA113102D0404261EB410113F0004F74
:1040A0004FEA03334CEA133302D0524263EB43032B
:1040B00094EA050F00F0A780A4F10104D5F1200EC9
:1040C0000DDB02FA0EFC22FA05F2801841F1000124
:1040D00003FA0EF2801843FA05F359410EE0A5F1F8
:1040E00020050EF1200E012A03FA0EFC28BF4CF029
:1040F000020C43FA05F3C01851EBE37101F00045DF
:1041000007D54FF0000EDCF1000C7EEB00006EEBEB
:104110000101B1F5801F1BD3B1F5001F0CD3490875
:104120005FEA30004FEA3C0C04F101044FEA4452CC
:1041300012F5800F80F09A80BCF1004F08BF5FEA53
:10414000500C50F1000041EB045141EA050130BD33
:104150005FEA4C0C404141EB0101013C28BFB1F545
:10416000801FE9D291F0000F04BF01460020B1FA90
:1041700081F308BF2033A3F10B03B3F120020CDA63
:104180000C3208DD02F1140CC2F10C0201FA0CF041
:1041900021FA02F10CE002F11402D8BFC2F1200CA6
:1041A00001FA02F120FA0CFCDCBF41EA0C0190405C
:1041B000E41AA2BF01EB0451294330BD6FEA0404A5
:1041C0001F3C1CDA0C340EDC04F11404C4F1200290
:1041D00020FA04F001FA02F340EA030021FA04F3A2
:1041E00045EA030130BDC4F10C04C4F1200220FAF9
:1041F00002F001FA04F340EA0300294630BD21FA37
:1042000004F0294630BD94F0000F83F4801306BFFC
:1042100081F480110134013D4EE77FEA645C18BFF0
:104220007FEA655C29D094EA050F08BF90EA020F87
:1042300005D054EA000C04BF1946104630BD91EA7F
:10424000030F1EBF0021002030BD5FEA545C05D182
:104250004000494128BF41F0004130BD14F58004C1
:104260003CBF01F5801130BD01F0004545F0FE4135
:1042700041F470014FF0000030BD7FEA645C1ABF6A
:10428000194610467FEA655C1CBF0B46024650EAA1
:10429000013406BF52EA033591EA030F41F40021CD
:1042A00030BD00BF90F0000F04BF0021704730B553
:1042B0004FF4806404F132044FF000054FF0000128
:1042C00050E700BF90F0000F04BF0021704730B5E9
:1042D0004FF4806404F1320410F0004548BF4042BE
:1042E0004FF000013EE700BF42004FEAE2014FEA13
:1042F00031014FEA02701FBF12F07F4393F07F4FEE
:1043000081F06051704732F07F4208BF704793F0F0
:104310007F4F04BF41F40021704730B54FF4607403
:1043200001F0004521F000411CE700BF50EA010206
:1043300008BF704730B54FF000050AE050EA0102AF
:1043400008BF704730B511F0004502D5404261EB1F
:1043500041014FF4806404F132045FEA915C3FF460
:10436000D8AE4FF003025FEADC0C18BF03325FEAFD
:10437000DC0C18BF033202EBDC02C2F1200300FAAE
:1043800003FC20FA02F001FA03FE40EA0E0021FAD3
:1043900002F11444BDE600BF70B54FF0FF0C4CF4C1
:1043A000E06C1CEA11541DBF1CEA135594EA0C0F73
:1043B00095EA0C0F00F0DEF82C4481EA030621EAAE
:1043C0004C5123EA4C5350EA013518BF52EA0335E9
:1043D00041F4801143F4801338D0A0FB02CE4FF09B
:1043E0000005E1FB02E506F00042E0FB03E54FF0CB
:1043F0000006E1FB03569CF0000F18BF4EF0010EC3
:10440000A4F1FF04B6F5007F64F5407404D25FEABE
:104410004E0E6D4146EB060642EAC62141EA555171
:104420004FEAC52040EA5E504FEACE2EB4F1FD0CB3
:1044300088BFBCF5E06F1ED8BEF1004F08BF5FEA31
:10444000500E50F1000041EB045170BD06F00046E3
:1044500046EA010140EA020081EA0301B4EB5C0490
:10446000C2BFD4EB0C0541EA045170BD41F4801188
:104470004FF0000E013C00F3AB8014F1360FDEBFAD
:10448000002001F0004170BDC4F10004203C35DA89
:104490000C341BDC04F11404C4F1200500FA05F30C
:1044A00020FA04F001FA05F240EA020001F00042AD
:1044B00021F0004110EBD37021FA04F642EB060123
:1044C0005EEA430E08BF20EAD37070BDC4F10C044D
:1044D000C4F1200500FA04F320FA05F001FA04F211
:1044E00040EA020001F0004110EBD37041F10001FD
:1044F0005EEA430E08BF20EAD37070BDC4F1200508
:1045000000FA05F24EEA020E20FA04F301FA05F26F
:1045100043EA020321FA04F001F0004121FA04F217
:1045200020EA020000EBD3705EEA430E08BF20EAE7
:10453000D37070BD94F0000F0FD101F00046400021
:1045400041EB010111F4801F08BF013CF7D041EAA3
:10455000060195F0000F18BF704703F000465200A7
:1045600043EB030313F4801F08BF013DF7D043EA78
:104570000603704794EA0C0F0CEA135518BF95EA2E
:104580000C0F0CD050EA410618BF52EA4306D1D1B5
:1045900081EA030101F000414FF0000070BD50EAD4
:1045A000410606BF1046194652EA430619D094EA5E
:1045B0000C0F02D150EA013613D195EA0C0F05D148
:1045C00052EA03361CBF104619460AD181EA03019C
:1045D00001F0004141F0FE4141F470014FF0000054
:1045E00070BD41F0FE4141F4780170BD70B54FF0EF
:1045F000FF0C4CF4E06C1CEA11541DBF1CEA13556F
:1046000094EA0C0F95EA0C0F00F0A7F8A4EB050450
:1046100081EA030E52EA03354FEA013100F0888047
:104620004FEA03334FF0805545EA131343EA126310
:104630004FEA022245EA111545EA10654FEA0026C5
:104640000EF000419D4208BF964244F1FD0404F57E
:10465000407402D25B084FEA3202B61A65EB0305DA
:104660005B084FEA32024FF480104FF4002CB6EB97
:10467000020E75EB030E22BFB61A754640EA0C0017
:104680005B084FEA3202B6EB020E75EB030E22BF57
:10469000B61A754640EA5C005B084FEA3202B6EB98
:1046A000020E75EB030E22BFB61A754640EA9C0057
:1046B0005B084FEA3202B6EB020E75EB030E22BF27
:1046C000B61A754640EADC0055EA060E18D04FEAE5
:1046D000051545EA16754FEA06164FEAC30343EA85
:1046E00052734FEAC2025FEA1C1CC0D111F4801F52
:1046F0000BD141EA00014FF000004FF0004CB6E74B
:1047000011F4801F04BF01430020B4F1FD0C88BFE9
:10471000BCF5E06F3FF6AFAEB5EB030C04BFB6EBF4
:10472000020C5FEA500C50F1000041EB045170BDE7
:104730000EF0004E4EEA113114EB5C04C2BFD4EB14
:104740000C0541EA045170BD41F480114FF0000E98
:10475000013C90E645EA060E8DE60CEA135594EA14
:104760000C0F08BF95EA0C0F3FF43BAF94EA0C0F17
:104770000AD150EA01347FF434AF95EA0C0F7FF48C
:1047800025AF104619462CE795EA0C0F06D152EAE0
:1047900003353FF4FDAE1046194622E750EA4106C4
:1047A00018BF52EA43067FF4C5AE50EA41047FF4D5
:1047B0000DAF52EA43057FF4EBAE12E74FF0FF3C3A
:1047C00006E000BF4FF0010C02E000BF4FF0010C0B
:1047D0004DF804CD4FEA410C7FEA6C5C4FEA430C84
:1047E00018BF7FEA6C5C1BD001B050EA410C0CBFD3
:1047F00052EA430C91EA030F02BF90EA020F002035
:10480000704710F1000F91EA030F58BF994208BF9B
:1048100090422CBFD8176FEAE37040F00100704758
:104820004FEA410C7FEA6C5C02D150EA013C07D1AF
:104830004FEA430C7FEA6C5CD6D152EA033CD3D0FA
:104840005DF8040B704700BF8446104662468C46F4
:104850001946634600E000BF01B5FFF7B7FF002827
:1048600048BF10F1000F01BD4DF808EDFFF7F4FF50
:104870000CBF012000205DF808FB00BF4DF808EDDB
:10488000FFF7EAFF34BF012000205DF808FB00BFFE
:104890004DF808EDFFF7E0FF94BF012000205DF820
:1048A00008FB00BF4DF808EDFFF7CEFF94BF0120D5
:1048B00000205DF808FB00BF4DF808EDFFF7C4FFCE
:1048C00034BF012000205DF808FB00BF4FEA410C17
:1048D0007FEA6C5C02D150EA013C0AD14FEA430CFA
:1048E0007FEA6C5C02D152EA033C02D14FF0000037
:1048F00070474FF0010070474FEA410212F5001275
:1049000015D211D56FF47873B3EB625212D94FEA16
:10491000C12343F0004343EA505311F0004F23FA00
:1049200002F018BF404270474FF00000704750EA55
:10493000013005D111F0004008BF6FF00040704712
:104940004FF00000704700BF4A0011D212F500126C
:1049500011D20DD56FF47873B3EB62520ED44FEAD7
:10496000C12343F0004343EA505323FA02F0704757
:104970004FF00000704750EA013002D14FF0FF3095
:1049800070474FF0000070474FEA4102B2F1E04338
:1049900024BFB3F5001CDCF1FE5C0DD901F0004C26
:1049A0004FEAC0024CEA5070B2F1004F40EB830076
:1049B00008BF20F00100704711F0804F21D113F1A2
:1049C0003872BCBF01F00040704741F480114FEADB
:1049D0005252C2F11802C2F1200C10FA0CF320FA64
:1049E00002F018BF40F001004FEAC1234FEAD32381
:1049F00003FA0CFC40EA0C0023FA02F34FEA4303EB
:104A0000CCE77FEA625307D150EA01331EBF4FF073
:104A1000FE4040F44000704701F0004040F0FE408E
:104A200040F40000704700BF53B94AB9002908BFDD
:104A300000281CBF4FF0FF314FF0FF3000F092B95B
:104A4000ADF1080C6DE904CE00F024F8DDF804E0C7
:104A5000DDE9022304B07047D0B50C4B00220646B6
:104A60000F46FFF799FCFFF76FFF0446FFF71AFCAC
:104A7000074B0022FFF790FC02460B4630463946B2
:104A8000FFF7D2FAFFF760FF2146D0BD0000F03DEE
:104A90000000F0412DE9F047089D04468E46002BAA
:104AA0004DD18A42944669D9B2FA82F252B101FAE2
:104AB00002F3C2F1200120FA01F10CFA02FC41EAF2
:104AC000030E94404FEA1C48210CBEFBF8F61FFA77
:104AD0008CF708FB16E341EA034306FB07F1994212
:104AE0000AD91CEB030306F1FF3080F01F819942C5
:104AF00040F21C81023E63445B1AA4B2B3FBF8F09F
:104B000008FB103344EA034400FB07F7A7420AD925
:104B10001CEB040400F1FF3380F00A81A74240F24D
:104B200007816444023840EA0640E41B00261DB1B8
:104B3000D4400023C5E900433146BDE8F0878B42ED
:104B400009D9002D00F0EF800026C5E900013046AC
:104B50003146BDE8F087B3FA83F6002E4AD18B4286
:104B600002D3824200F2F980841A61EB0303012030
:104B70009E46002DE0D0C5E9004EDDE702B9FFDE1C
:104B8000B2FA82F2002A40F09280A1EB0C014FEAC7
:104B90001C471FFA8CFE0126200CB1FBF7F307FB24
:104BA000131140EA01410EFB03F0884208D91CEBC7
:104BB000010103F1FF3802D2884200F2CB80434664
:104BC000091AA4B2B1FBF7F007FB101144EA014443
:104BD0000EFB00FEA64508D91CEB040400F1FF31D2
:104BE00002D2A64500F2BB800846A4EB0E0440EAC0
:104BF00003409CE7C6F12007B34022FA07FC4CEAC9
:104C0000030C20FA07F401FA06F31C43F9404FEABB
:104C10001C4900FA06F3B1FBF9F8200C1FFA8CFED0
:104C200009FB181140EA014108FB0EF0884202FA24
:104C300006F20BD91CEB010108F1FF3A80F08880E5
:104C4000884240F28580A8F102086144091AA4B2A2
:104C5000B1FBF9F009FB101144EA014100FB0EFE23
:104C60008E4508D91CEB010100F1FF346CD28E4552
:104C70006AD90238614440EA0840A0FB0294A1EBE3
:104C80000E01A142C846A64656D353D05DB1B3EB40
:104C9000080261EB0E0101FA07F722FA06F3F14070
:104CA0001F43C5E9007100263146BDE8F087C2F117
:104CB0002003D8400CFA02FC21FA03F3914001438F
:104CC0004FEA1C471FFA8CFEB3FBF7F007FB1036C8
:104CD0000B0C43EA064300FB0EF69E4204FA02F474
:104CE00008D91CEB030300F1FF382FD29E422DD9C7
:104CF000023863449B1B89B2B3FBF7F607FB1633FC
:104D000041EA034106FB0EF38B4208D91CEB01017B
:104D100006F1FF3816D28B4214D9023E6144C91AFB
:104D200046EA004638E72E46284605E70646E3E60B
:104D30001846F8E64B45A9D2B9EB020864EB0C0E15
:104D40000138A3E74646EAE7204694E74046D1E724
:104D5000D0467BE7023B614432E7304609E76444D2
:104D6000023842E7704700BF00000000000000006A
:104D700001F0FF01102A2BDB10F0070F08D010F80C
:104D8000013B013A8B422DD010F0070F42B3F6D110
:104D9000F0B441EA012141EA014122F007047FF029
:104DA00000070023F0E80256083C85EA010586EA80
:104DB000010685FA47F5A3FA87F586FA47F6A5FABC
:104DC00087F68EB9EED1F0BC01F0FF0102F00702C8
:104DD00032B110F8013B013A83EA010313B1F8D173
:104DE0000020704701387047002D06BF3546033854
:104DF000073815F0010F07D1013015F4807F02BF8D
:104E0000013015F4C03F0130F0BC0138704700BFDD
:104E100010F8012B11F8013B012A28BF9A42F7D064
:104E2000D01A7047034613F8012B002AFBD1181A39
:104E30000138704738B50022002304460D46FFF7BD
:104E40001DFD28B920462946BDE83840FFF704BEBD
:104E5000204605F10041FFF7FFFD404261EB4101B3
:104E600038BD00BF09480A49884208B505D0094A3B
:104E7000824202D0121A1FF0C3F90748074A0021E4
:104E8000121A1FF0E5F9014808BD00BF68C80320E9
:104E90008CE30D0068CB032068CB0320F4E70320EC
:104EA00070B5074E074C01F0ADFDA41BA40800250A
:104EB000AC4200D170BD56F8043B98470135F7E786
:104EC00028E30D0060E30D0000F0BAB808B500F06B
:104ED00023F9BDE8084001F04DBD00F0E9BF00F046
:104EE000E7BF00F0EDBF00F0EBBF00F0E9BF00004E
:104EF00000487047CE9E0D0008B5034A03490C20B8
:104F000000F010FFFEE700BFA55C0B00409C0D0009
:104F10000078B0FA80F040097047012303707047B1
:104F200070477047014B01221A70704724CC032050
:104F3000014B01221A707047B5CB032010B5054B09
:104F400000220446114640F8043B00F013FF2046BF
:104F500010BD00BF249D0D0010B50446FFF7EEFF05
:104F600020462021FFF7C1FF204610BD0A4B10B597
:104F70000446036001F00EFF214602F058F901F0EB
:104F80001BFC01F00DFC2046044B40F8043B01F0F3
:104F9000E9FF204610BD00BF389D0D000C9D0D009F
:104FA00010B50446FFF7E2FF20462421FFF79DFFDE
:104FB000204610BD0EB400B58CB00DAA4FF0200CE9
:104FC00052F8041B0392CDE900120023016804AAE1
:104FD0001E20CDE904C300F0B5FE0CB05DF804EB73
:104FE00003B0704708B5084B817900221A70074B4F
:104FF00002681A60064B82881A80064B06481970B0
:105000000649FFF7D7FF08BD8CC8032004CC032056
:1050100008CC0320B1CB032060CF0320559C0D00AA
:1050200010B5044600F046FE63682268C31A934236
:1050300004D3A3686060BDE81040184710BD0000AD
:1050400038B501F0B9FB4FF4165101F0A5FB03F0A0
:1050500031FA03F079FA1020FFF73FFF054620B13F
:1050600002231022272100F0FFFA1F4C284625605A
:1050700000F022FC206800F021FB206800F05CFBBF
:1050800020681A4A012100F019FC194A2068002101
:1050900000F014FC174B0321188805F0F3F9164BA8
:1050A0000821188805F0EEF9144B0821188805F03E
:1050B000E9F9134B0821188805F0E4F9114B082190
:1050C000188805F0DFF9104B0821188805F0DAF987
:1050D0000E4B0821188805F0D5F90D4A0D49BDE899
:1050E0003840104604F0DCB9BCCB03208EC8032046
:1050F00084C8032068C803206CC8032070C803203C
:1051000074C8032078C803207CC8032080C803200B
:105110001CCC0320E54F0B002DE9F0418AB003F0D1
:10512000C9F903F057FA0446002800F0AF80984B05
:10513000984C1B788DF81430238801339BB240F6CD
:10514000B7329342238005D993499448FFF732FF41
:105150000023238092480023012205A903F044F88C
:10516000904B1B78012B05D18F4B03221A70884B73
:1051700000221A70052005F0AFF98C4B8C4A18609C
:105180001378002B40F0EE80012809D18649087879
:10519000032808BF0B707E4B012119706423137024
:1051A000844D2B78002B3CD0834C00221146206884
:1051B00000F0D6FA814905A81FF0EEF905A920688C
:1051C00002F056FC0A210022206800F0C9FA7C4B4C
:1051D00020681B88B3F5FA6F03682CBF01210021FA
:1051E0009B68984720680122002100F0B9FA754BAE
:1051F000D3ED007AF5EEC07AF1EE10FA40F3B48008
:1052000017EE900AFFF770F8CDE900016E4A102101
:1052100005A800F075FE206805A902F029FC00230E
:105220002B706A4E337843B3694D5F4B29681C7805
:10523000B1FA81F149092960002C00F09B80032C10
:1052400008D1644B188805F02EF90121624B1888AB
:1052500005F029F9614B1C78002C00F09280032C9A
:1052600009D15F4B2978188805F01DF901215D4BA4
:10527000188805F018F9002333705B48FFF7D0FE5B
:105280005A48FFF7CDFE0AB0BDE8F081584D00F056
:1052900011FD2B68C01AB0F5FA6FFFF461AF00F092
:1052A00009FD286003F006F95249142203F0CAF9F7
:1052B000071E7FF755AF4F4EDFF85081E5B2BD4274
:1052C000BFF64EAF05A802F05FFD24235D4305F154
:1052D0000800012205A9304403F0FEFF00283FD05A
:1052E000414605A802F0ABFD002839D003F0E2F8F2
:1052F00072190146404E012303A804F013FC039BDE
:10530000049D336073689D4216D015B16B680133FC
:105310006B6074687CB16368013B63605BB9236850
:1053200020469B689847A368013BA3601BB923688C
:105330002046DB689847756003A803F0F2F92E4811
:1053400003F02AF800283FF40BAF2C4A2C492A48D6
:1053500004F07CF82B4A1249274804F077F8FFE65E
:105360000134ABE7013B1AE700220023CDE900231B
:10537000254A4CE7174B0121188805F094F821467F
:1053800064E7174B0121188805F08DF821466EE778
:1053900070CB0320B2CB0320639C0D0060CF0320B1
:1053A00014CC0320B1CB03208CC8032068C8032091
:1053B000B4CB032024CC0320BCCB0320759C0D0070
:1053C00008CC032004CC03207F9C0D00B5CB032028
:1053D0006CCB032070C803206CC803208DC8032049
:1053E00078C8032074C80320F8CE032004CF03201C
:1053F000B8CB032028CC03200CCC03209CCB03206B
:105400001CCC032088CB0320889C0D0074CB032088
:1054100070B5D0E900531426044606FB0356AE428D
:1054200004D0284604F078FE1435F8E7206800F030
:1054300047FD204670BD8842F8B504460D46164625
:1054400016D9904215D2A2F11406751AA1F11407CB
:105450002C44B7421CD02CB13146204604F0D8FE73
:10546000337C2374304604F057FE143E143CF0E7BE
:105470000ED0B5420CD02CB12946204604F0C8FE0F
:105480002B7C2374284604F047FE14351434F0E7CF
:10549000F8BD2DE9F0410023C0E9003383604F6877
:1054A0009F4204460E4623DD4FF0140808FB07F028
:1054B00000F0FEFC0546D8B1D4E9001208FB021248
:1054C000FFF7B9FF206800F0FBFC2560A760D6E974
:1054D000007308FB0378B84508D03946284604F025
:1054E000B1FE3B7C2B7414371435F4E773686360AA
:1054F0002046BDE8F081000070B54348434C8EB0B3
:1055000005F03CF84249434802F018FD424943483F
:1055100002F014FD4249434802F010FD0023CDE99A
:105520000233049301F048F902A9054605A8FFF7E4
:10553000B0FF05A908A8FFF7ACFF3B4B236008A903
:105540000BA8FFF7A6FF0BAA0121201D01F052FFB7
:105550000BA8FFF75DFF08A8FFF75AFF334B236046
:10556000256205A8FFF754FF314B236001F024F9B1
:105570004FF4165101F010F901F00CFC214601F036
:105580000FFE02A8FFF744FF2A4C14257F26204671
:1055900002F0EFFB04F1080003F0B0FB04F114008B
:1055A00003F0ACFB013D84F8206004F12404EED14B
:1055B0002148224C02F0F2FD214802F0EFFD214883
:1055C00002F0C8FE4FF4FA6323601F4BA36000F0A3
:1055D00071FB60601D4CFA2323601D4BA36000F03B
:1055E00069FB2A4660601421012000F045FC01227D
:1055F0001E21CDE9001203466FF07F41154800F0EF
:10560000D5FC0EB070BD00BFB0CB0320E0CB0320B3
:10561000929C0D0074CB0320B79C0D0088CB032017
:10562000DC9C0D009CCB03200C9D0D00049F0D0005
:10563000389D0D0028CC03201CCC0320F8CE03207D
:1056400014CC03200CCC0320254F0B0004CF0320E7
:10565000314F0B00C0CB0320704710B5102104461A
:10566000FFF743FC204610BD70B50025034E456092
:105670000660017242738373C57370BD509D0D0047
:1056800038B504460D4604F05BFE217A00F0F8FDC3
:10569000022000F007FB04F053FEE17B036829437E
:1056A0009B689847022000F0FDFA04F049FE00F0E4
:1056B000EFFDBDE83840022000F0F4BA0823C373C0
:1056C0000021FFF7DDBF38B50C4641F00401054667
:1056D000FFF7D6FF012000F0E5FA284604F0FB01B1
:1056E000FFF7CEFFBDE83840322000F0DBBA38B516
:1056F00004460D46FFF7C4FF29462046BDE8384062
:10570000FFF7E1BF70B50D4621F00F0114461143BC
:105710000646FFF7ECFF44EA05113046C9B2BDE882
:105720007040FFF7E4BF08B50122FFF7EBFF002050
:1057300008BD0022FFF7E6BF08B50121FFF7F9FF1A
:10574000BDE808404FF4FA6000F0ACBA08B5022199
:10575000FFF7EFFFBDE808404FF4FA6000F0A2BA8F
:105760007FB50E4B064615460C460FCB0DF1100CBF
:105770000CE90F00327BAA423CBF02F1FF32D5B2E6
:1057800004AB03EB8505304655F8101C214461F04D
:105790007F01C9B2FFF7CDFF04B070BD049C0D00BE
:1057A00008B5817A41F00402827241F00C01FFF7E2
:1057B000C0FF08BD01F00701C90070B541F040010C
:1057C00014460546FFF7B5FF661E07342B6816F82A
:1057D000011F9B6828469847A642F7D170BD10B5B7
:1057E000012A88BF417A027388BF41F0080104464C
:1057F00088BF41722BB1012A02BF437A43F00403F0
:105800004372322001F091F8E17B2046FFF738FF28
:105810004FF47A7001F089F830212046FFF767FFD6
:1058200041F2941000F03EFA30212046FFF75FFF6E
:1058300041F2941000F036FA30212046FFF757FF6E
:10584000962000F02FFA20462021FFF750FF617AC2
:10585000204641F02001FFF76CFF0423A37220468D
:10586000FFF79EFF2046FFF767FF02232046E37203
:105870000621FFF75EFF2046BDE81040FFF766BF38
:1058800010B5044604F05CFD0A4900F0EBFC04F09E
:1058900057FD012100F0EAFC04F052FD00F0EAFCA3
:1058A0000023A27B617B63722046BDE81040FFF7B6
:1058B00096BF00BFA0860100FFF7E2BFFFF77ABFE7
:1058C00008B5024B1B681B68019308BD4C0203001E
:1058D00008B5024B1B685B68019308BD4C020300CE
:1058E00008B5024B1B689B68019308BD4C0203007E
:1058F00008B5024B1B681B69019308BD4C020300ED
:1059000008B5024B1B685B69019308BD4C0203009C
:1059100008B5024B1B689B69019308BD4C0203004C
:1059200008B5024B1B68DB69019308BD4C020300FC
:1059300008B5024B1B681B6A019308BD4C020300AB
:1059400008B5024B1B68DB69019308BD30020300F8
:1059500008B5024B1B681B6A019308BD30020300A7
:1059600008B5024B1B681B68019308BD28020300A1
:1059700008B5024B1B689B68019308BD2802030011
:1059800008B5024B1B68DB68019308BD28020300C1
:1059900008B5024B1B689B69019308BD28020300F0
:1059A00008B5024B1B68DB69019308BD28020300A0
:1059B00008B5024B1B681B6A019308BD280203004F
:1059C00008B5024B1B685B6A019308BD28020300FF
:1059D00008B5024B1B689B6A019308BD28020300AF
:1059E00008B5024B1B68DB6A019308BD280203005F
:1059F00008B5024B1B681B6B019308BD280203000E
:105A000008B5024B1B685B6B019308BD28020300BD
:105A100008B5024B1B681B6C019308BD28020300EC
:105A200008B5024B1B689B68019308BD3C0203004C
:105A300008B5024B1B68DB68019308BD3C020300FC
:105A400008B5024B1B681B69019308BD3C020300AB
:105A500008B5024B1B685B69019308BD3C0203005B
:105A600008B5024B1B689B69019308BD3C0203000B
:105A700008B5024B1B68DB69019308BD3C020300BB
:105A800008B5024B1B681B6A019308BD3C0203006A
:105A900008B5024B1B689B6A019308BD3C020300DA
:105AA00008B5024B1B68DB6A019308BD3C0203008A
:105AB00008B5024B1B681B6C019308BD3C02030038
:105AC00008B5024B1B685B69019308BD64020300C3
:105AD00008B5024B1B685B6C019308BD48020300CC
:105AE00008B5024B1B689B6C019308BD480203007C
:105AF00008B5024B1B68DB6C019308BD480203002C
:105B000008B5024B1B685B6D019308BD480203009A
:105B100008B5024B1B689B68019308BD780203001F
:105B200008B5024B1B68DB6F019308BD78020300C8
:105B300008B5034B1B68D3F88430019308BD0000FF
:105B40007802030008B5034B1B68D3F89830019323
:105B500008BD00007802030008B5034B1B68D3F8AA
:105B6000B430019308BD00007802030008B5034B70
:105B70001B68D3F8BC30019308BD00007802030015
:105B800008B5034B1B68D3F8C430019308BD00006F
:105B90007802030008B5034B1B68D3F8D830019393
:105BA00008BD00007802030008B5034B1B68D3F85A
:105BB000DC30019308BD00007802030008B5034BF8
:105BC0001B68D3F8E030019308BD000078020300A1
:105BD00008B5034B1B68D3F8E430019308BD0000FF
:105BE0007802030008B5034B1B68D3F8F03001932B
:105BF00008BD00007802030008B5034B1B68D3F80A
:105C0000F430019308BD00007802030008B5034B8F
:105C10001B68D3F80031019308BD0000780203002F
:105C200008B5034B1B68D3F80431019308BD00008D
:105C30007802030008B5024B1B685B68019308BD3E
:105C40008402030008B5024B1B689B68019308BDE2
:105C50008402030008B5024B1B68DB68019308BD92
:105C60008402030008B5024B1B685B69019308BD01
:105C70008402030008B5024B1B68DB69019308BD71
:105C80008402030008B5024B1B681B6A019308BD20
:105C90008402030008B5024B1B685B68019308BDD2
:105CA0001802030008B5024B1B68DB68019308BDAE
:105CB0001802030008B5024B1B685B69019308BD1D
:105CC0001802030008B5024B1B689B68019308BDCE
:105CD0002C02030008B5024B1B68DB68019308BD6A
:105CE0002C02030008B5024B1B681B69019308BD19
:105CF0002C02030008B5024B1B685B69019308BDC9
:105D00002C02030008B5024B1B689B68019308BD79
:105D10006802030008B5024B1B68DB68019308BDED
:105D20006802030008B5024B1B685B6B019308BD5A
:105D30006002030008B5024B1B681B6D019308BD90
:105D40006002030008B5024B1B685B6D019308BD40
:105D50006002030008B5024B1B68DB6E019308BDAF
:105D60006002030008B5024B1B681B6F019308BD5E
:105D70006002030008B5034B1B68D3F88030019321
:105D800008BD00006002030008B5024B1B68DB6B16
:105D9000019308BD4402030008B5024B1B685B6811
:105DA000019308BD4002030008B5024B1B689B68C5
:105DB000019308BD4002030008B5024B1B68DB6875
:105DC000019308BD4002030008B5024B1B681B6924
:105DD000019308BD4002030008B5024B1B685B69D4
:105DE000019308BD4002030008B5024B1B689B6984
:105DF000019308BD4002030008B5024B1B68DB6934
:105E0000019308BD4002030008B5024B1B681B6AE2
:105E1000019308BD4002030008B5024B1B681B6BD1
:105E2000019308BD4002030008B5024B1B685B6B81
:105E3000019308BD4002030008B5024B1B681B6CB0
:105E4000019308BD4002030008B5024B1B685B6C60
:105E5000019308BD4002030008B5024B1B685B6854
:105E6000019308BD2002030008B5024B1B685B6963
:105E7000019308BD2002030008B5024B1B68DB6FCD
:105E8000019308BD2002030008B5034B1B68D3F83B
:105E90008830019308BD00002002030008B5034BC1
:105EA0001B68D3F89430019308BD00002002030062
:105EB00008B5024B1B681B68019308BD1C02030058
:105EC00008B5024B1B685B68019308BD1C02030008
:105ED00008B5024B1B689B68019308BD1C020300B8
:105EE00008B5024B1B685B69019308BD1C020300E7
:105EF00008B5024B1B689B69019308BD1C02030097
:105F000008B5024B1B68DB69019308BD1C02030046
:105F100008B5024B1B685B6A019308BD1C020300B5
:105F200008B5024B1B68DB6A019308BD1C02030025
:105F300008B5024B1B681B6B019308BD1C020300D4
:105F400008B5024B1B685B6B019308BD1C02030084
:105F500008B5024B1B689B6B019308BD1C02030034
:105F600008B5024B1B68DB6B019308BD1C020300E4
:105F700008B5024B1B681B6C019308BD1C02030093
:105F800008B5024B1B685B6C019308BD1C02030043
:105F900008B5024B1B689B6C019308BD1C020300F3
:105FA0000A680B46926801461846104770B50E4CB9
:105FB000046000251C24C0E901459DF814409DF8AB
:105FC0001060C56004F0030444EA8604E4B204747B
:105FD000427485744161427C0F2A0ABF034B0383DC
:105FE000C0E9063070BD00BF249D0D00A15F0B000D
:105FF000002340681A46FFF7CFBE40680022022106
:10600000FFF7DABE002240681146FFF7CDBE00223E
:1060100040681146FFF7D8BE002340681A4619466B
:10602000FFF7DABE002340681A461946FFF7DCBEC8
:1060300040680021FFF700BF40680021FFF704BF60
:106040004068002281F00101FFF7D6BE40680022BF
:10605000FFF7E2BE002240681146FFF7E5BE0022CE
:1060600040681146FFF7D0BE2DE9F04395B01446C5
:106070000D46074600F000FC00211C220DA80091EF
:106080001EF0E6F840230C9320466B460CAA002134
:10609000FFF740FE044600284BD102460121686804
:1060A000FFF792FE0221804622466868FFF78CFEC9
:1060B000009E81462146002E3BD0002939D17368CD
:1060C000022B03D00A2B11D0F669F4E7B8F1000FC8
:1060D000FAD0716906A8043107AD00F0FBFB0FCDC3
:1060E0003C1D0FC42B6823704146EDE7B9F1000F4A
:1060F000EAD07469102201A81EF0AAF806238DF8D0
:10610000143001AD04F108031834186859682A46A0
:1061100003C20833A3421546F7D101A906A807AD6B
:1061200000F0B8FB0FCD3C1D0FC42B68237049460F
:10613000CAE70098FFF7E6FD384615B0BDE8F083E2
:10614000024B034A1A6000225A60704710CF0320A6
:10615000689D0D00002240681146FFF735BE002201
:1061600040681146FFF750BE002240681146FFF715
:106170005BBE40680022FFF74FBE4068002281F0FE
:106180000101FFF739BE002340681A461946FFF7A0
:106190002BBE002340681A461946FFF71DBE002299
:1061A00040681146FFF700BE406800220221FFF759
:1061B00003BE002340681A46FFF7EEBD024B0422DF
:1061C0005A60024A1A60704718CF0320A49D0D0040
:1061D0007047F8B5064615460C468F18BC4206D0E7
:1061E000336814F8011B9B6830469847F6E7284649
:1061F000F8BD007C0022FFF7DBBB007C0021FFF72D
:10620000DFBB007C0021FFF7E3BB007C0021FFF730
:10621000E7BB007C0021FFF7EBBB10B5142104465F
:10622000FEF763FE204610BD38B5044615464FF410
:106230007A730022C4E90123094B217408462360C4
:106240002946FFF7E5FBBF3008D16B69DB0705D5B1
:106250006868FFF735FEE868FFF732FE204638BD74
:10626000E89D0D00007C0022FFF77ABB007C002235
:10627000FFF77EBB0023007C1A461946FFF780BB60
:10628000007C0022FFF784BB007C0022FFF788BB64
:106290000121FFF7F9BF38B5046805467CB1636892
:1062A000013B63605BB9236820469B689847A368FD
:1062B000013BA3601BB923682046DB68984728464A
:1062C00038BD38B50D1E0446006803DDFFF700FE3B
:1062D00018B938BDFFF7F4FD00202060A56001204B
:1062E000F7E738B50023C0E9003383600D464968FD
:1062F0009942044610DDFFF7E4FF68B1D5E90031AB
:1063000022681944994205D00AB1187810700133F7
:106310000132F7E76B686360204638BD00F1100377
:10632000012213F8101C0129184608D153F8041C47
:1063300002EB4102013A03F11003F2D17047022946
:1063400004BF53F8041C5218F4E70EB4F0B588B03B
:1063500000AF07F13405102155F8042B7A6004468C
:106360002B467818FD60FFF7D3FD0F287A681AD9FD
:1063700000F1080323F007036E46ADEB030D411C4B
:106380002B466846FD60FFF7C3FD021E04DD23684F
:1063900069469B6820469847B5462037BD46BDE80C
:1063A000F04003B070470028F7D0236802469B688E
:1063B00007F1100120469847EFE710B54368013B0D
:1063C0000446436063B903689B689847A368013B30
:1063D000A3602BB923682046DB68BDE8104018474E
:1063E00010BD38B50B6803604D6843689D42044694
:1063F00008D015B16B6801336B60606808B1FFF7B6
:10640000DCFF656038BD07B503688DF807109B6831
:1064100001220DF10701984703B05DF804FB0B461C
:106420001146002210B5C0E90022044683600BB972
:10643000204610BDFFF7D5FFFAE78368EBB11A7865
:10644000032A1AD8DFE802F00417021B0520704760
:1064500002685B685268D05C2D2812D0A0F130032E
:10646000092B0ED974280ED066280CD0A0F16E032B
:10647000584258417047062070470020704704205A
:106480007047032070470220704710B50446FFF79D
:10649000D4FF02280ED0C31EDBB2012B14D8226811
:1064A000A36850685B68BDE810400A2200211844C8
:1064B0001EF0BABF2268A36852685B68D05CA0F186
:1064C00074035842584110BD0020FCE738B5002342
:1064D000C0E9003304460E48C4E90203A9B10B78B1
:1064E000032B06D08BB9136858684B68C35C6E2BBE
:1064F00007D013684D6858688B6828445B1BA06000
:10650000E36011462046FFF76CFF204638BD00BF10
:10651000CE9E0D0038B500250B46C0E90055C0E9F8
:106520000255C0E90455044611464BB11A78012AB8
:1065300006D103F11002DB6882604361FFF751FF6F
:10654000204638BD10B54369044663B18068E060F9
:10655000013B1030A0602061636113B1FFF7DEFEE4
:10656000A060012000E0184610BD10B57D21044652
:10657000FFF749FF01232371204610BD08B50379B9
:10658000012B02D0022B04D008BD2C21FFF73BFFCA
:10659000FAE73A21FAE710B50446FFF7EFFF204685
:1065A0007B21FFF730FF00232371204610BD000040
:1065B00013B504460191FFF7E1FF2368019ADB68F8
:1065C00003492046984701232046237102B010BD9D
:1065D000609C0D0013B504460191FFF7CFFF2368BF
:1065E000019ADB680349204698470123204623711E
:1065F00002B010BD089E0D002DE9F0470D46222186
:1066000090460446FFF7FFFEDFF8A490A8442F460B
:106610004745BA463DD017F8016B222E06D05C2EB6
:1066200004D030461DF06AFC0028F1D12368AAEBA3
:1066300005029B682946204698475C212046FFF7C3
:10664000E2FE0D2E0AD8072E1CD9A6F10803052B51
:1066500018D8DFE803F00D0F11171315222E01D003
:106660005C2E0FD131462046FFF7CDFE3D46CFE7E9
:106670006221F8E77421F6E76E21F4E76621F2E77C
:106680007221F0E723683246DB6849462046984786
:10669000ECE7BD4205D023687A1B9B68294620465B
:1066A000984722212046FFF7AEFEBDE8F08700BFE5
:1066B0000B9E0D0013B50446CDE90021FFF75EFFE8
:1066C0002046DDE90021FFF797FF022320462371D2
:1066D00002B010BD13B50446CDE90021FFF74EFF0F
:1066E0002046DDE90021FFF787FF012320462371C3
:1066F00002B010BD417470477047704708B5002163
:10670000007CFFF705F940EAE07008BD08B50121FB
:10671000007CFFF7FDF840EAE07008BD08B5007C9A
:10672000FFF7EEF820EAE07008BD08B5007CFFF73F
:10673000DFF820EAE07008BD13B50446007C019143
:10674000FFF7DEF80028019901DC607C20B1207C95
:10675000FFF7E6F820EAE07002B010BD007CFFF71A
:10676000E7B810B514210446FEF7BFFB204610BD64
:1067700010B54FF47A73044608460021C4E90113AA
:10678000044B23600123207463741146FFF798F8CB
:10679000204610BD1C9E0D00007C0022FFF798B81B
:1067A000007CFFF79DB810B51422044600211DF0AF
:1067B0004FFD204610BD000010B50F4C88B003A857
:1067C000FFF7F1FF2178BFF35B8F11F001010FD1CB
:1067D00020460191FEF79CFB019948B103AA0748A6
:1067E000FFF7C6FF2046FEF798FB05481CF0EBFEBE
:1067F000024808B010BD00BF20CF032024CF0320E3
:10680000F9660B00704710B518210446FEF76DFBC2
:10681000204610BDF0B5037D062B8DB00E4600F16D
:1068200004074FF0000412D000F1080515F8011D0F
:106830000A22304601F023F9AF42044419D0002C5B
:10684000F4D02E21304601F017F90444EEE72F234F
:106850006A4639460A208DF80040FFF731F968464C
:10686000FEF7E0FA33680246DB686946304698472F
:10687000044620460DB0F0BD10B5054B044611226C
:1068800040F8043B00211DF0E3FC204610BD00BF92
:106890004C9E0D000346074A10B543F8042B01F146
:1068A000100251F8044B43F8044B9142F9D10A7895
:1068B0001A7010BD4C9E0D0010B59DF8084044EABA
:1068C000032343EA024242EA016104234160037563
:1068D00010BD000007B5064B0360CB7800938B78A2
:1068E0004A780978FFF7E8FF03B05DF804FB00BFC2
:1068F0004C9E0D0010B58368044613B10322014677
:106900009847204610BD13B50B460246D0E900015A
:106910006C4684E8030093E8030082E8030094E8EF
:10692000030083E8030002B010BD0021FFF79CBA0A
:10693000014B1860704700BF2CC9032008B50B4BF2
:1069400043B1FFF739FF03681B699847002801DD51
:10695000AFF30080064B43B103F032FD03681B69BF
:106960009847002801DDAFF3008008BD000000005B
:106970000000000008B5FFF7E1FFFFF79BF9014BAE
:10698000186008BDC8CF03200548064A064908B567
:10699000121A1DF035FC054B054A1A6008BD00BFF0
:1069A00000F4032004F403208CE60D0000F403201F
:1069B0001E1C279A07B5002300931A466FF0770133
:1069C000FFF76CFA03B05DF804FB000007B54388DD
:1069D0000A2B08D0502B0BD1094B1B684BB103B0CD
:1069E0005DF804EB1847FFF7E5FF03B05DF804FB23
:1069F000002300931A466FF07701FFF74FFAF4E790
:106A00003CCF032010B512480021FFF7B9FA114B13
:106A10001A68114B9A42114B0CBF012200221A70C6
:106A200001D0FFF7B1FFFFF735F904461DF06AFC0E
:106A30000B4B13B12046AFF3008000210848FFF74D
:106A4000A3F9BDE8104007480021FFF71DBA00BFB9
:106A500031690B0000F403201E1C279A38CF032055
:106A600000000000CD690B00014B00229A607047C6
:106A700040CF0320024B1A68024B1A60704700BFD8
:106A800098C8032050CF032080680368DB6818474C
:106A90007047084611B10B685B681847704770472C
:106AA00070477047704738B504460D4600682E2180
:106AB0001DF066FD2368C31A2B6023B1037803B170
:106AC000013023682060184638BD10B50C210446FB
:106AD000FEF70BFA204610BD10B504210446FEF760
:106AE00004FA204610BD10B504210446FEF7FDF956
:106AF000204610BDFEF7FCBF08B5FEF789F9B0FAD5
:106B000080F0400908BD704710B50C46FFF754FEF1
:106B1000844210D003F054FC844205D103F050FCB1
:106B2000BDE8104003F09BBA2CB1236820465B6897
:106B3000BDE81040184710BD0B6803604B68436008
:106B400013B15A6801325A60704713B504460846BB
:106B50000191FEF767F901990246204602B0BDE8AF
:106B60001040FFF7B7BD13B5044608460191FEF784
:106B700059F923680199DB680246204602B0BDE856
:106B80001040184707B503688DF80710DB6801222D
:106B90000DF10701984703B05DF804FB0A68026035
:106BA0004A6842600022C0E9022210B502618C6886
:106BB0008460CC68C4600C698A60CA6004610A6140
:106BC00010BD00002DE9F74FD0E900844FF0140A02
:106BD00000930AFB04F4184BA41017465C43454687
:106BE000002C21DD66100AFB06F005EB00093A4691
:106BF000B9F804B0285801915F4528BF5A461DF0E6
:106C0000D3FC002801994FF001030BD15F4503D15C
:106C1000009A13703446E3E7FCD9A61B09F114056A
:106C2000013EF7E7F9DBF5E7A5EB08050248AD10F3
:106C3000684303B0BDE8F08FCDCCCCCC7FB5036901
:106C4000057E019103B3F9B1002600F10C0403960F
:106C500003A901A8FFF727FF0146A8B10DF10B0317
:106C6000039A8DF80B602046FFF7ACFF9DF80B30C0
:106C700053B12368142404FB0034083434F9023C73
:106C8000002BA8BFDDB2E3E7284604B070BD0EB408
:106C9000F0B58CB000AF07F14405044655F8042B5D
:106CA0007A602B46202107F11000FD60FFF730F9D4
:106CB0001F287A681AD900F1080323F007036E46EB
:106CC000ADEB030D411C2B466846FD60FFF720F934
:106CD000021E04DD23686946DB6820469847B546F6
:106CE0003037BD46BDE8F04003B070470028F7D00C
:106CF00023680246DB6807F1100120469847EFE75A
:106D000010B5094C2378BFF35B8FDB0709D420460D
:106D1000FEF7FEF828B12046FEF7FFF803481CF006
:106D200052FC034810BD00BF58CF03209F6A0B00E0
:106D30009CC8032010B5094C2378BFF35B8FDB0799
:106D400009D42046FEF7E4F828B12046FEF7E5F81E
:106D500003481CF038FC034810BD00BF5CCF032083
:106D6000076B0B00A0C8032038B500250446C0E916
:106D70000055C0E904558560856140F8245FFEF741
:106D8000A7FEFFF7BDFFE061FFF7D4FF2573206288
:106D9000204638BD10B50A4C2378BFF35B8FDB0764
:106DA0000CD42046FEF7B4F840B10648FFF7DCFFEC
:106DB0002046FEF7B2F804481CF005FC014810BD5F
:106DC00054CF032064CF03200D730B00024A034904
:106DD00003480023FEF7C6BFF1700B007D700B0067
:106DE000FD6F0B0000231A4619461846FEF7BABF7E
:106DF00037B58D6804466846FFF79EFE6A46294609
:106E00002046FFF787FB01A8FFF745FA204603B0AD
:106E100030BD37B5CD6804466846FFF78DFE6A463B
:106E200029462046FFF752FB01A8FFF734FA204617
:106E300003B030BD37B50D6904466846FFF77CFEE8
:106E40006A4629462046FFF7EAFA01A8FFF723FA27
:106E5000204603B030BD000070B58AB00D46014633
:106E600004A8FFF7C5FF144E04A8FFF76BFBE8B1B9
:106E700004A96846FFF7CDFF02983146FFF73CFEB4
:106E8000044610B12C1E18BF012401A8FFF703FA15
:106E9000002CE9D004A96846FFF7CCFF6846FFF74D
:106EA000F4FA286001A8FFF7F6F9DDE705A8FFF777
:106EB000F2F90AB070BD00BF749E0D0037B50C46E4
:106EC000204613491546FDF7A3FF50B9FFF774FCA0
:106ED0004FF41651FFF760FC03B0BDE83040FFF7F8
:106EE0006BBC0C492046FDF793FF78B94FF416535D
:106EF00001A928460193FFF7AFFF03F061FA01995A
:106F000003F0AAF803F05CFA03B030BD0020FBE701
:106F1000799E0D00809E0D0070B5D0E900531426B7
:106F2000044606FB0356AE4205D005F10800FFF704
:106F3000F3FF1435F7E72068FEF7C2FF204670BD67
:106F400070B5D0E90053044605EB0316AE4204D0F9
:106F5000284603F0E1F81035F8E72068FEF7B0FFA7
:106F6000204670BD10B504460C30FFF7D5FF204613
:106F7000FFF7E6FF204610BD10B5044B044640F86D
:106F8000043BFFF7EFFF204610BD00BF0C9D0D0036
:106F900010B50446FFF7F0FF20462421FDF7A5FFBA
:106FA000204610BD10B5034B03600446FFF7E4FF15
:106FB000204610BD1C9F0D0010B50446FFF7F2FFE0
:106FC00020462421FDF791FF204610BD0022C0E994
:106FD000002210B582600C6804604C6844608C68C4
:106FE0000A604A6084608A6010BD10B50368044678
:106FF0001868FEF785FD204610BD00002DE9F04F12
:1070000087B0804603931C4B5B68C3F30803894633
:1070100016466BB9FFF7BEFE044600F12403406A32
:107020000593FFF767FD237B2BB105A8FFF7DDFF75
:1070300007B0BDE8F08F01232373D4E900535FFA52
:1070400089F905EB830AAA4512D055F8047B31462D
:10705000381DFFF7F3FD8145F5D33B68039A009295
:10706000D3F808B04A46334641463846D847EAE79F
:1070700000232373D9E700BF00ED00E02DE9F74FAF
:107080009B461A4B5B68C3F3080380468946164645
:107090006BB9FFF77FFE044600F12403406A0193B9
:1070A000FFF728FD237B2BB101A8FFF79EFF03B05C
:1070B000BDE8F08F01232373D4E90053F6B205EB4A
:1070C000830A55450ED055F8047B5946381DFFF705
:1070D000B5FD8642F5D33B684A46DB6841463846F3
:1070E0009847EEE700232373DEE700BF00ED00E0E2
:1070F0002DE9F341164B5B68C3F3080305460F46C1
:107100001BBBFFF747FE00F124030446406A0193CE
:10711000FFF7F0FCD4E90063462406EB8308B04592
:1071200009D101A8FFF761FFA542B4BF00200120EB
:1071300002B0BDE8F08156F8040B39460430FFF781
:107140007DFD8442A8BF0446E9E70020F0E700BFC8
:1071500000ED00E0F8B5D0E901539D4204460E462B
:107160000DDB6F1C002F006804DDB900FEF7B0FED8
:1071700018B9F8BDFEF7A4FE00202060A7602768BC
:10718000626807EB85019200A2EB8502081D1DF0E5
:1071900045F847F825606368013363600120E8E73C
:1071A00037B500F124030446406A01930D46FFF70A
:1071B000A1FCD4E9003203EB8202934219460BD0C2
:1071C0000968A94203F10403F7D101A8FFF70DFFF5
:1071D0000025284603B030BD29462046FFF7BAFFF8
:1071E00005460028F1D06368012B01D1FFF7EEFDC1
:1071F00001A8FFF7FAFEECE770B50446D0E90002FB
:107200000B4600EB820282420FD001461D6851F806
:10721000046BAE4207D1521A1DF000F86368013BBF
:107220006360012070BD0846EDE70020FAE71FB556
:1072300000F124030446406A01910393FFF75AFCCE
:1072400001A92046FFF7D8FF18B163680BB9FFF713
:10725000C9FD03A8FFF7C9FE04B010BD70B5D0E9A1
:1072600004561823044603FB0656AE4215D005F11A
:1072700010012046FFF7C0FF63680BB9FFF7B2FDAE
:10728000E06929690368DB689847696919B1206A70
:107290000368DB6898471835E7E7D4E904531826F4
:1072A00006FB0356AE4204D0284602F035FF1835DF
:1072B000F8E70023636170BD73B50446FFF792FDE4
:1072C00004F12403606A0193FFF714FC2046FFF7E2
:1072D000C5FF01A8FFF789FE606A08B1FEF700FC50
:1072E000D4E90453182606FB0356AE4204D02846C0
:1072F00002F012FF1835F8E72069FEF7E1FD20687B
:10730000FEF7DEFD204602B070BD00000148FFF729
:10731000D3BF00BF64CF03208842F8B504460D46B2
:10732000164615D9904214D2A2F11406751AA1F18D
:1073300014072C44B7421AD01CB131462046FFF73F
:107340002DFC06F10800FFF7E7FD143E143CF1E7C1
:107350000DD0B5420BD01CB129462046FFF71EFCCC
:1073600005F10800FFF7D8FD14351434F1E7F8BD36
:107370008842F8B504460D46164614D9904213D2F9
:10738000A2F11006751AA1F110072C44B74218D0CB
:107390001CB13146204602F03BFF304602F0BCFEF5
:1073A000103E103CF2E70CD0B5420AD01CB1294681
:1073B000204602F02DFF284602F0AEFE10351034B4
:1073C000F2E7F8BD70B50E1E054611DD3001FEF77F
:1073D0006FFD044658B1D5E9001201EB0212FFF728
:1073E000C7FF2868FEF76CFD2C60AE60012070BD01
:1073F0000024F6E72DE9F04F904695B00023039165
:10740000D8F804100A9346229942C0E90033C0E933
:107410000233C0E90433CDE908330446027623DCA5
:10742000D8E90057142303FB0757AF423BD0294646
:107430000BA802F0EDFE0BA90FA8099E02F0E8FED2
:10744000DDE9091399421BDA089B099A03EB06163A
:1074500003EB0212314606F11000FFF789FFEEB987
:10746000099B0133099311E008A8FFF7ABFF00283F
:10747000D6D108A8FFF764FD204615B0BDE8F08F0F
:10748000013108A8FFF79EFF0028DDD10FA802F008
:1074900043FE0BA802F040FE1435C6E70FA93046A4
:1074A00002F0B6FEDCE70026CDE90B660D964FF044
:1074B0001409DDE908239E427CDA3301D358069390
:1074C0000BB90136F5E70023079309FB06F3029396
:1074D0000BAD07A906A8FFF7E6FA82460028F0D010
:1074E0004FF000038DF817300146079A0DF117038E
:1074F0002846FFF767FB9DF817700190002F4AD1CF
:10750000BDF81C30ADF84030CDE911774FF6FF7370
:10751000CDF83CA0ADF842301397D5E90132934243
:1075200017DB03F1010ABAF1000F30DD09FB0AF0A5
:10753000FEF7BEFC834660B3D5E9001209FB0212D8
:10754000FFF7EAFE2868FEF7BBFCC5F800B0C5F8F7
:1075500008A02B68019A09FB023A6A68514609FBA8
:1075600002320AF11400FFF7D7FEBAF1000F03D080
:107570000FA95046FFF712FB6B6801336B6011A82F
:10758000FFF7CAFC3FB10BA8FFF7C6FC71E7BB468B
:10759000D8E70127F3E7019B2D6809FB0355069BFC
:1075A0001B782BB9D8F80030029A13441B7CEB806F
:1075B00008358EE72168226062686360A3680992DB
:1075C0000A9A0A93E368A2600B9A0B932369E2601C
:1075D0000C9A0C93636922610D9A0D93039B089199
:1075E00062612376CFE70000F0B5044687B00D4610
:1075F0002646194668461746FDF74BFF0B4B46F8E3
:10760000043B694603A8FDF744FF03AA3946304608
:10761000FFF7F0FE03A8FDF7FBFE6846FDF7F8FE56
:10762000034B23602046256207B0F0BD0C9D0D0082
:10763000049F0D00F0B50F4685B01D490A9C3846E1
:1076400016461D46FDF7E4FBC0B9A4B1294601A8C2
:10765000FFF7BCFC1749242002F051FF054630B16A
:1076600001AB32462146FFF7BFFF134B2B6001A849
:10767000FDF7CEFE2C46204605B0F0BD0F4938463A
:10768000FDF7C6FB90B9002CF5D0294601A8FFF7FD
:107690009DFC0849242002F032FF05460028E6D070
:1076A00001AB32462146FFF79FFFE0E70024E2E707
:1076B000889E0D0014A20D001C9F0D008C9E0D00D5
:1076C000014B024A1A60704760CF03209D9E0D0057
:1076D0002DE9F047089DD0F8209004460E46174645
:1076E0009846FFF769F881454CD02B79190704D5E6
:1076F0006A6954492046FFF7CAFAB8F1000F0DD065
:107700005B212046FFF73EFA41462046FFF72BFA61
:1077100023684D49DB680222204698472B79DA0717
:1077200023D5D5F808802F2140461CF05DFF08B115
:1077300000F1010841462046FFF715FA2B799B0717
:1077400008D53A212046FFF71DFAEA683F4920464E
:10775000FFF79DFA2A79236812F0040FDB6814BF43
:107760003B493C490222204698472B7958071DD5B2
:1077700029690B461A4613F8010B60B1202808D17D
:107780001946F7E73448FEF76AFC0028ADD0BDE89B
:10779000F0872828EED12368521ADB6820469847E4
:1077A00023682E49DB68042220469847002138468A
:1077B000FEF7D0FA01462046FFF7D5F923682549A0
:1077C000DB680222204698471EB131462046FFF76B
:1077D000CAF92B7913F0300F2CD023682049DB68CD
:1077E0000222204698472B79D9060AD523681D49DD
:1077F000DB68072220469847AA691B492046FFF705
:1078000046FA2B799A0611D5DB0605D5236810496F
:10781000DB6802222046984723681449DB6820462B
:107820000A229847E9692046FFF79DF95D21204625
:10783000FFF7A8F923680E49DB6820460222BDE85D
:10784000F0471847A19E0D00A89E0D00609C0D00FA
:10785000AB9E0D00B09E0D0010CF0320AE9E0D001C
:10786000B39E0D00B69E0D00BE9E0D00C19E0D0084
:10787000CC9E0D002DE9F0410446076A0D461646E0
:10788000FEF79AFF874207D0206A036832462946EE
:10789000DB68BDE8F04118470348FEF7E0FB00282D
:1078A000F2D0BDE8F08100BF10CF03202DE9F043F6
:1078B00085B0D0F820900C9C05460F4690461E4699
:1078C000FEF77AFF814505D14948FEF7C8FB00283D
:1078D00040F08A802B6A474A01924FF0000901A8C4
:1078E00003938DF80890FEF756FE49464046FEF792
:1078F00031FA41498046012201A8FEF7DBFE4146EC
:10790000FFF723F93FB13D49012201A8FEF7D2FE5E
:107910003946FFF71AF93EB13949012201A8FEF7AD
:10792000C9FE3146FFF711F92379DF070ED5A668A6
:107930002F2130461CF058FE00B1461C314901226F
:1079400001A8FEF7B7FE3146FFF7FFF823799E073F
:1079500007D52D49022201A8FEF7ACFEE168FEF72B
:1079600027FE2379580714D5266933461F4613F896
:10797000012B2AB1202A01D11E46F7E7282AF5D18A
:107980002249022201A8FEF795FEBA1B3146FEF7F6
:10799000A1FE2379190707D51D49012201A8FEF789
:1079A00089FE6169FEF716FE2379DA0608D50422FE
:1079B00018490DEB0200FEF77DFEA169FEF7F8FD08
:1079C00023799B0607D51449062201A8FEF772FE0B
:1079D000E169FFF7BAF801A8FEF7C7FD286A0F4969
:1079E00003680222DB68984705B0BDE8F08300BF5A
:1079F00010CF0320EC9E0D007E9E0D00C1D70D0020
:107A0000C6E20D00DA9C0D00CF9E0D00D29E0D0047
:107A100071D30D00D59E0D00DA9E0D00CC9E0D0099
:107A2000F8B506460D468F180024BD420CD03368C9
:107A300015F8011B9B6830469847031E01DB1C4468
:107A4000F3E7002C08BF1C462046F8BD13B50446DA
:107A5000084659B10191FDF7E5F923680199DB6802
:107A60000246204602B0BDE81040184702B010BDE3
:107A700008B5FFF7EBFF08BD03689B68184730B5F2
:107A80008BB00023012A8DF8243098BF0A2209AC5C
:107A90000D46B1FBF2F101FB125303F0FF03092B7A
:107AA00094BF30333733DBB2AA4204F8013DEFD93B
:107AB0002146FFF7CBFF0BB030BD704770477047D2
:107AC00070470000064B994210B500F10C0405D038
:107AD000084613F059FF002808BF0024204610BDB7
:107AE000D89D0D00064B994210B500F10C0405D04D
:107AF000084613F049FF002808BF0024204610BDA7
:107B0000D89D0D00064B994210B500F10C0405D02C
:107B1000084613F039FF002808BF0024204610BD96
:107B2000D89D0D0010B568210446FDF7DEF920460A
:107B300010BD10B528210446FDF7D7F9204610BD29
:107B400010B530210446FDF7D0F9204610BD68215C
:107B5000FDF7CBB92821FDF7C8B93021FDF7C5B92C
:107B6000F0B50025EC1C8C420DD86E1C445D875D81
:107B7000974205D12644B14205D31D60601CF0BD7B
:107B800001342544EEE70020F9E70000024A0349EA
:107B90000A20FEF7C7B800BFA55C0B005C9F0D0074
:107BA00030B40D4611461A46036809682868D3E9BF
:107BB0000043A44630BC6047012A38B5044602D1D0
:107BC0000B68236003E0022A03D0032A0DD00020B3
:107BD00038BD08200D68FDF780F903460028F0D075
:107BE00095E8030083E80300EBE700680028EED087
:107BF0000821FDF77AF9EAE710B5836804462BB14E
:107C00000322014698470023C4E9023310BD10B592
:107C1000836804462BB10322014698470023C4E938
:107C2000023310BD10B500238AB02022CDE9022313
:107C30000446084A0092084902AA0120FEF77AF891
:107C4000206806490088002322460AB0BDE810409B
:107C5000FDF78CBF7E9F0D00739F0D0049960B00B2
:107C600010B5013802EB410110F8013F1B0903F187
:107C70003004392C88BF03F1370402F8024B037833
:107C800003F00F0303F13004392C88BF03F13704EC
:107C9000914202F8014CE7D110BD10B504465830AE
:107CA000FEF728FE04F14800BDE8104002F034BAA7
:107CB00038B503688B4205460C4608D011B14B68B5
:107CC00001334B60286808B1FEF777FB2C6038BDA4
:107CD000A0F13003DAB2092A01D818467047A0F1A2
:107CE0006103052B01D857387047A0F14103052BDC
:107CF00094BF37384FF0FF307047000010B50023B5
:107D00000370044B04461868FDF7F2FE012323704C
:107D1000204610BD90CF032010B5037804461BB158
:107D2000024B1868FDF7ECFE204610BD90CF0320F3
:107D300082B00346086849686A4603C26A4603CAB5
:107D400018601846596002B0704708B582798B797F
:107D50009A4206D106221CF043FAB0FA80F040099C
:107D600008BD0020FCE74FF0FF3303608380002054
:107D7000704708B50246002101604160FFF7F3FF3C
:107D80009171104608BD000010B501230361054B39
:107D9000024603F1100153F8044B42F8044B8B42A6
:107DA000F9D110BD1A9C0D000B7C13F0FD0330B50A
:107DB0000DD103610C4B024603F1100453F8045B30
:107DC00042F8045BA342F9D10B88838130BD0123C3
:107DD000036101F11002034651F8044B43F8044BD0
:107DE0009142F9D1F2E700BF1A9C0D0010B50B4685
:107DF0000446B1B1012A01F110020AD1014653F83B
:107E0000040B41F8040B9342F9D10123236120466E
:107E100010BD411E12F8010D01F8010F9A42F9D16F
:107E2000F3E710221CF014FAF1E738B504460D46CA
:107E3000FFF7AAFF00232361A581204638BD08B5BE
:107E400002690B699A4206D110221CF0C9F9B0FAF6
:107E500080F0400908BD0020FCE7000001232DE967
:107E6000F3410361344B0C460646024603F1100110
:107E700053F8040B42F8040B8B42F9D144B324218C
:107E800020461CF0A5FB04284FF0000523D1ADF8D7
:107E9000045001AFA51C063415F8020CFFF718FFBB
:107EA000B0F1000812DB15F8010CFFF711FF0028F4
:107EB0000CDB023540EA0810A54207F8010BEBD1B4
:107EC0009DF8053033739DF80430737300233361DC
:107ED00002B0BDE8F0814FF01008242120461CF0CC
:107EE00077FBA84207D842460021304602B0BDE8E1
:107EF000F0411CF0ADB9B8F1000FE9D0605DFFF7BB
:107F0000E7FE030615D4000108F1FF38C7B206F8F2
:107F10000870242120461CF05BFB0135A84208D9DB
:107F2000605DFFF7D5FE40B20028A4BF384306F8D5
:107F300008000135D1E700BF1A9C0D0013B50446B7
:107F40000191FFF721FF20460199FFF787FF2046A7
:107F500002B010BD10B500F10F0301391C7801F813
:107F6000014F834203F1FF33F8D110BD2DE9F041F9
:107F70001F468EB00D4600295BD0DAB1D0F81080D4
:107F8000541EB8F1000F19D18389CDF814805BBA63
:107F900005AA022101A8ADF80430FFF761FE042C08
:107FA00028BF0424224605A928461CF029F905F813
:107FB0000480621C10460EB0BDE8F08101A9FFF7F5
:107FC000C9FF05AA7FB1102101A8FFF749FE242CA3
:107FD00028BF2424224605A928461CF011F90023B5
:107FE0002B55621CE6E704210DEB0100FFF738FE7C
:107FF0002D260DF11D02022102A88DF81C60FFF74D
:108000002FFE0DF1220202210DF10A008DF82160F0
:10801000FFF726FE0DF12702022103A88DF8266046
:10802000FFF71EFE8DF82B600BAA06210DF10E0046
:10803000CBE70A46BEE710B58AB0044600232522E6
:1080400008466946FFF792FF6946204602F0AFF8FE
:1080500020460AB010BDF7B5054616461F460A462B
:1080600001ABD0E90001FFF77BFD30F002040CD03A
:10807000841EBC4228BF3C463EB101992B680231A8
:108080002246194430461CF0BBF8204603B0F0BD30
:1080900037B513460C4601920A4608210546FFF7FC
:1080A000DAFF40B9019B22460921284603B0BDE80A
:1080B0003040FFF7D0BF03B030BD0000F0B50C4634
:1080C00089B00C49054602F072F81F226946204625
:1080D000FFF7DEFF064650B16C46002714F8011B7F
:1080E000284602F0E3F810B10137BE42F6D1284627
:1080F00009B0F0BDCE9E0D0007B5022301AA1921DB
:10810000FFF7A9FF08B1BDF8040003B05DF804FB58
:1081100038B54FF6FF730025044643800E222946EA
:108120000570057106301CF093F804F11400FFF798
:108130002BFE04F12800FFF727FE044904F13C0060
:1081400002F035F86565204638BD00BFCE9E0D00B3
:1081500038B50D680446014605F12800FFF76FFEAB
:1081600040B1AB89A28A9A4205D8E08A984234BFCE
:108170000020012038BD0020FCE710B5D0E9063210
:1081800003EBC2029342184606D0046824888C424E
:1081900003F10803F6D110BD0020FCE7002370B501
:1081A000036005466820FCF798FE041E04F10C06E7
:1081B00007D00123C4E90133044B23603046FFF7A5
:1081C000A7FFC5E90064284670BD00BF5CA10D0093
:1081D00070B50C681434064605460FCC0FC52368ED
:1081E0002B60304670BD0000F0B5064685B01F46D6
:1081F0000D46002950D0002A4ED004682378F42A76
:1082000028BFF42243B32379980709D5A0890392A4
:108210000023FDF7A1FC0028039A03DA05B0F0BDA6
:108220006FF0770034682379D90609D5012F07D07C
:10823000A0890023294605B0BDE8F040FDF7E6BC63
:108240009B06EBD5022FE9D0A0890023294605B073
:10825000BDE8F040FDF7E4BC60884FF6FF7188424E
:108260001CD021794E0701D5012F04D10B0709D469
:108270006FF07700D2E7A189009313462A46FDF7F5
:1082800093FCCBE7022FF3D00023A1890093134680
:108290002A46FDF77FFCC1E70248BFE76FF0D10037
:1082A000BCE700BFF2FEFFFF10B503681A7886B086
:1082B00052BB5C884FF6FF70844225D0188A30B3D9
:1082C000CDE903220592134A0092134ACDE9012316
:1082D0005A88ADF80C201A8AADF80E209A89ADF8AC
:1082E000102059B11A79920644BF022205921B79D7
:1082F000DB0642BF059B43F001030593002168465E
:10830000FDF77AFC06B010BD6FF0D100FAE76FF010
:108310007700F7E703001800ED840B00F8B500269E
:10832000066005462820FCF7D8FD041E04F10C0762
:108330000AD00123C4E90133054B23603846FFF717
:1083400023FD266284F82460C5E900742846F8BD40
:1083500078A10D0070B50025056006463020FCF7B9
:10836000BCFD044688B10123C0E90133094B036019
:108370004FF6FF7383810E30FFF7FBFCC4E906550F
:10838000C4E90855C4E90A55A57574600C34346015
:10839000304670BD94A10D0013B5044601A8FFF747
:1083A000ADFC23681C884FF6FF73E41A01A818BFC0
:1083B0000124FFF7B1FC204602B010BD37B50546D9
:1083C0000C4601A8FFF79AFC2A682368C2F802301D
:1083D0006368C2F8063001A8FFF79EFC03B030BD09
:1083E00037B50D46044601A8FFF788FC2A68D2F885
:1083F00002302360D2F80630636001A8FFF78CFCDE
:10840000204603B030BD30B5054687B00C4601A804
:10841000FFF774FC2A68236812881B889A420DD1E2
:10842000294602A8FFF7DCFF214604A8FFF7D8FF82
:1084300004A902A8FFF789FC044600B9002401A89A
:10844000FFF76AFC204607B030BD000010B50446B7
:108450006420FCF742FD68B10023C0E90033C0E9A5
:108460000233C0E90433C0E906330362C362C36365
:10847000C364C365206020B90A4A0B490A20FDF78E
:1084800051FC0020FDF744FB20B1064A07490A20B1
:10849000FDF748FC216806480022FDF7A3FB2046B3
:1084A00010BD00BFA55C0B005C9F0D009A9F0D00E6
:1084B0002D8E0B0010B50A4C2378BFF35B8FDB07C2
:1084C0000CD42046FCF724FD40B10648FFF7BEFF60
:1084D0002046FCF722FD04481BF075F8014810BD4A
:1084E0008CCF032094CF03208D870B0030B5036819
:1084F000093B012B8DB004460D4611D8FFF7DAFF7A
:10850000A1880068FFF739FE034658B92022CDE95B
:1085100004200B4A00920B4904AA3220FDF70AFC02
:108520000DB030BD6A6D002AFAD0D4E9032105F1FF
:108530004C00CDE90312AC6D04AA03A9A047EFE7F4
:10854000DC9F0D00739F0D0008B50020FDF7E0FAD9
:1085500000EAE07008BD000070B5044618300E4611
:108560001546FFF749FB04F12800FFF750FBC4E96B
:108570000365002221460348FDF7D2FA0028A8BF70
:10858000606970BD859D0B0010B504464069FDF71C
:1085900097FCA068FDF794FC204610BD002247F62A
:1085A0007F71C0E90022C0E90222C0E90422C0E9CB
:1085B0000E22C0E91022C0E91222C0E91422C0E94B
:1085C0001622C0E91822C0E91B2202620263A0F849
:1085D000681070470368D8690028D4BF00200120C4
:1085E000704710B504460068FDF76AFC204610BDD0
:1085F00070B50446C06DFDF763FC206DFDF760FCAF
:1086000004F1380504F14400FFF7EBFF2846FEF7BC
:1086100097FC04F12800FEF76DF904F11800FEF74D
:1086200069F9D4E90053242606FB0356AE4204D070
:108630002846FFF7A9FF2435F8E72068FDF740FC3E
:10864000204670BD30B515469FB00C4679B172B169
:1086500001A8FFF7A3FF21462A4601A8FFF77CFFE8
:10866000044601A8FFF7C4FF20461FB030BD014CEF
:10867000FAE700BFF2FEFFFF38B5141E4368054657
:1086800002DB62189A4200DD5C1A2A685018011950
:108690001A44521A1BF0C2FD6A68121B6A6038BD88
:1086A00038B500230446836008200D46FCF715FC0E
:1086B00018B12B6803606B684360034BE360034BA6
:1086C0002060A360204638BDA17B0B00B97B0B0066
:1086D0000B68036013B15A6801325A60704710B5D5
:1086E00051F8043B044640F8043BFFF7F1FF2368D0
:1086F0000BB9FFF74BFA204610BD10B551F8043BFB
:10870000044640F8043BFFF7E3FF204610BD10B5D8
:1087100051F8043B044640F8043BFFF7D9FF2046DC
:1087200010BD10B504460430FDF7B5FD204610BD60
:1087300070B5D0E90053044605EBC306AE4204D041
:10874000281DFDF7A8FD0835F8E72068FDF7B8FB00
:10875000204670BD70B5D0E90053044605EBC30652
:10876000AE4204D0281DFDF796FD0835F8E72068D5
:10877000FDF7A6FB204670BD10B504462430FFF778
:10878000E9FF04F11800FFF7D3FF10BD70B5174BD8
:108790001C6854B304F15400FEF7ACF804F1440033
:1087A000FEF7A8F804F13400FEF7A4F804F1240061
:1087B000FEF7A0F8D4E9065305EBC306AE4204D099
:1087C000281DFDF768FD0835F8E7A069FDF778FB7F
:1087D00004F10C00FFF7BEFF2046FFF7A9FF20467B
:1087E0006421BDE87040FCF780BB70BD94CF0320CE
:1087F000826810B50AB90DF0E2FABDE81040C3680E
:1088000018472DE9F0470023C0E900338360D1F811
:108810000480984505460F464ADD4FEA0810FDF7EB
:1088200047FB0646002843D0D5E90041A04204EBAF
:10883000011A16D9504515D2AAF1100AA4F110094F
:10884000AAEB04040444D1451DD01CB15146204676
:1088500001F0DEFC504601F05FFCAAF1100A103C6A
:10886000F1E710D0B146A2450DD0B9F1000F03D009
:108870002146484601F0CCFC204601F04DFC103466
:1088800009F11009EFE72868FDF71AFBC5F8088021
:108890002E60D7E9004304EB0318A04506D021461B
:1088A000304601F0CFFC10341036F6E77B686B6081
:1088B0002846BDE8F08730B58DB00C4600F1380190
:1088C00001A8FFF79EFF029B002B2FDD04F114018E
:1088D00004A8FFF7F3FB04F1080108A8FFF7EEFB7B
:1088E0000A9A069B13431FD0DDE9014504EB0515E9
:1088F000AC4219D004A9204601F0FAFC60B1012471
:1089000008A801F009FC04A801F006FC01A8FEF784
:1089100017FB20460DB030BD204608A901F0E8FC49
:1089200010340028E4D0EAE70024E9E70124EDE769
:10893000F8B50023C0E9003383604F689F420546C5
:108940000E463EDDF800FDF7B3FA0446C8B3D5E99C
:108950000003844200EBC30310D99C420FD2083BB2
:108960001A1AA0F1080C22449C4518D01AB11968B3
:10897000116059685160083B083AF5E70FD001468D
:1089800022468B420BD03AB1D1F800C0C2F800C0E9
:10899000D1F804C0C2F804C008310832F1E7FDF78D
:1089A0008FFA2C60AF60D6E9003103EBC10098422A
:1089B00006D01A6822605A68626008330834F6E705
:1089C00069602846F8BD70B504460020C4E900007F
:1089D000A0604E6886420D4612DD7100FDF778FA00
:1089E00070B12060A660D5E9003203EB42029A42E2
:1089F00004D033F8021B20F8021BF8E76B686360B1
:108A0000204670BD10B50379044623B90368186881
:108A100008B1FDF755FA204610BD10B5037904469C
:108A200023B90368186808B1FDF74AFA204610BD5B
:108A30002DE9F043D0F86C808FB00F46B8F1000FED
:108A400072D0056F002D6FD001F114091F23002291
:108A5000FF214846FFF7FFFA0837FF2304460022AC
:108A600019463846FFF7F7FAAC42064606D0AE4242
:108A700030D0002420460FB0BDE8F0832046FDF73B
:108A800017FA03AB04930023044603908DF81430C7
:108A900070B92023CDE90630244B009324490346C6
:108AA00006AA3220FDF746F904A8FFF7ABFFE1E77D
:108AB0000246FF212B464846FFF7CDFA03982A4687
:108AC00041461BF08DFB18B104A8FFF79BFFCEE7D2
:108AD0000124E9E72846FDF7EBF9002403AB06463D
:108AE000039004938DF8144078B92023CDE9063023
:108AF0000E4B00930E49034606AA3220FDF71AF9E1
:108B0000344604A8FFF789FFB4E70246FF212B464D
:108B10003846FFF7A0FA03982A4641461BF060FB4F
:108B20000028EED10124ECE70124A3E7F49F0D0017
:108B3000739F0D0008B583688B4202DAFDF7C1FB15
:108B400008BD0120FCE738B50B6803604B68436043
:108B500004460D4608300831FDF7C3FB05F114014A
:108B600004F11400FDF7BDFB95F8203084F82030A7
:108B7000204638BD1FB5044601A8FDF7B2FB019B96
:108B8000029A2068236063686260039A0293A36874
:108B9000A26001900393FDF793F904B010BD2DE995
:108BA000F0410F4641681D461944836899420446C6
:108BB000904612DC266862683E44D21B314670192A
:108BC0001BF02CFB2A46414630461BF019FB63681C
:108BD0002B4463600120BDE8F081FDF772FB0028A3
:108BE000E8D1F8E713460A46002110B50446416073
:108BF00002B10BB9002010BDFF2B28BFFF23FFF7E8
:108C0000CEFF0028F7D06068F5E7F8B50D46D0E94B
:108C100001139942044616460BDA276862687919EF
:108C2000521B481C1BF0FAFA7E55636801336360DF
:108C3000F8BD0131FDF745FB0028EED1F8E70A4603
:108C40004168FFF7E2BF2DE9F74304461D460F4692
:108C500001AB90460A46D0E900019DF82890FEF746
:108C60007FFFAE1C63680246B9F1000F26D128B31E
:108C700033441B1AFF2B09D801992046FFF7FCFC4F
:108C8000616820463144FFF755FF18B9606803B0AA
:108C9000BDE8F0836A1C0199D2B22046FFF7B5FF08
:108CA00001993A4601312046FFF7AFFF01992B4663
:108CB000424602312046FFF772FFE7E7F118FF292D
:108CC000E4D82046FFF736FF0028DFD0691CC9B280
:108CD0002046FFF7B4FF39462046FFF7B0FF616832
:108CE0002B464246E6E730B49DF808501AB102958B
:108CF00030BCFFF7A8BF406830BC70471FB50023E9
:108D0000C0E9003383600622009301238DF80F2011
:108D100019460DF10F020446FFF7E5FF204604B0A7
:108D200010BD8842F8B504460D46164614D9904247
:108D300013D2A2F10806751AA1F108072C44B74214
:108D400018D01CB131462046FFF7E1FC301DFDF77D
:108D5000A2FA083E083CF2E70CD0B5420AD01CB19A
:108D600029462046FFF7D3FC281DFDF794FA083565
:108D70000834F2E7F8BDF7B5044646686846FFF7E1
:108D8000C6FCD4E901739F4212DB0137002F29DDB5
:108D9000F800FDF78DF80546F0B1D4E9001201EBBB
:108DA000C202FFF7BEFF2068FDF78AF82560A760C2
:108DB0002368626803EBC60603EBC202314606F184
:108DC0000800FFF7AEFF1EB169463046FFF79FFC73
:108DD000636801336360012501A8FDF75CFA28464A
:108DE00003B0F0BD0025DEE7F8B5D0E90043054645
:108DF0000F4604EBC306A64205D039462046FFF7CE
:108E000002FB08B114B9F8BD0834F4E7201DFDF7E2
:108E100042FAD5E9003204F1080103EBC202204610
:108E2000FFF77FFF6B68013B6B60ECE72DE9F041DA
:108E300005468EB003A80C46FEF760FF2E68F31EB1
:108E40000D2B3CD8DFE813F00E0057003B00D30099
:108E50003B003B003B003B003B009D009D009D0014
:108E60009D009D0004A8FFF775FA049BAA891A804B
:108E70006968049808310230FEF75AFF04A906A871
:108E8000FFF745FC06A904F11800FFF774FF05463B
:108E900007A8FDF700FAC5B92023CDE906355E4BDA
:108EA0005E49009306AA2B460120FCF743FF049B72
:108EB00029461888FCF746FE05A8FDF7ECF903A83B
:108EC000FEF72AFF0EB0BDE8F081E36A23B104A9E2
:108ED00004F12400FFF78CFC05A8FDF7DCF9202144
:108EE0000023CDE906134E4A00924C4906AA012000
:108EF000FCF720FFE3E7A9892046FFF73EF9064685
:108F00000028DCD00568D5E906324FF6FF712980CC
:108F100003EBC2029A4203D053F8080B4180F9E7F1
:108F2000D5E9037307EBC308B84504D0381DFDF736
:108F3000B2F90837F8E700232B61D5E9067307EB90
:108F4000C308B84504D0381DFDF7A5F90837F8E780
:108F50000023EB61AB72E36B23B1314604F13400C3
:108F6000FFF746FC33684FF6FF721A80314604F172
:108F70001800FFF739FF20220023CDE90623294AF4
:108F8000B2E7A9892046FFF7F8F8002897D0E36CEC
:108F9000002B94D000230D2EADF8163001D0102EEA
:108FA00017D1002369681A4606258DF815300491FB
:108FB0008DF814200690DDE9040109AB8DF81C60E2
:108FC000089583E80300236D06A904F1440098473F
:108FD00075E70F2E01BF2B7A696803F0010208259F
:108FE0000FBFC3F340031A4619461D46DDE7A989A2
:108FF0002046FFF7C2F8014600283FF460AFE36D5A
:10900000002B3FF45CAF6B68069306AA236E04F155
:109010005400984753E700BF0FA00D00739F0D0049
:1090200035A00D003FA00D0038B50D1E04460068A8
:1090300005DD14216943FCF74BFF18B938BDFCF777
:109040003FFF00202060A5600120F7E72DE9F843ED
:109050000024C0E90044846088464968A14207466C
:109060001ADDFFF7E1FFB8B1D8E900934FF0140C17
:10907000D7F800E00CFB039C09EB0405AC4508D0D5
:109080001EEB04061FBF0FCD0FC62B6833601434D0
:10909000F2E7D8F804307B603846BDE8F8832DE964
:1090A000F843D1E9008745688368E9199942044685
:1090B00017DC1423266862685D4303FB07F95A43F3
:1090C0002E44521B314606EB09001BF0A7F84A4616
:1090D000414630461BF094F863683B446360BDE84A
:1090E000F883FFF7A1FF0028E3D1F8E782B070B55D
:1090F0000C4604A981E80C00D0E901139942054609
:1091000017DA142303FB04F16A682C685A430C44F1
:10911000521AE018214604AE1BF080F80FCE0FC49F
:10912000336823606B6801336B60BDE8704002B048
:1091300070470131FFF778FF0028E2D1F5E72DE90C
:10914000F04F002493B0931EC0E90044DBB2054603
:109150000F4690468460059379688C4272DA3868CD
:1091600007AB4246091B2044FEF7FAFC06460028DE
:1091700068D0059B012B2FD8A0F1020B4FEA5B0BA7
:109180004FF000090DF13C0A079BCB45234455D015
:109190003A6803EB4903134408A8D9789B7843EA5B
:1091A0000121FEF742FE0DF1200EBEE80F000DF189
:1091B000340CACE80F00DEF80030CCF800309AE850
:1091C00007008DE807000DAB0CCB69682846FFF758
:1091D0008DFF09F10109D7E7A8F10603012B2DD86E
:1091E000A0F1020B4FEA1B1B4FF000090DF13C0AE6
:1091F000CB45079B22D002333968234403EB091384
:109200000122194408A8FEF7F1FD0DF1200EBEE879
:109210000F000DF1340CACE80F00DEF80030CCF894
:1092200000309AE807008DE80700DDE90D23696842
:109230002846FFF75BFF09F10109D9E7079B1C44AA
:10924000344489E7284613B0BDE8F08F30B50023D9
:1092500085B0C0E9003383600446022201A80D46B0
:10926000FFF76DFF01A92046FFF719FF01A8FFF7DF
:10927000B8F90222294601A8FFF761FF01A920469B
:10928000FFF70DFF01A8FFF7ACF90322294601A85B
:10929000FFF755FF01A92046FFF701FF01A8FFF7DF
:1092A000A0F90622294601A8FFF749FF01A9204697
:1092B000FFF7F5FE01A8FFF794F90722294601A858
:1092C000FFF73DFF01A92046FFF7E9FE01A8FFF7E0
:1092D00088F9204605B030BD2DE9F04385B08846B9
:1092E000014601A89146FFF7B1FF019E029B4FF096
:1092F000140E0EFB036C0027B4450DD0B94506F1E2
:10930000140609D0A6F114050FCD0EFB07840FC477
:109310002B6823600137EFE701A8FFF762F93846B1
:1093200005B0BDE8F0832DE9F04F8BB00C4600F19D
:10933000440101A8FFF78AFE029B002B4ADD04F1DD
:10934000140104A8FFF782FF04F1080107A8FFF742
:109350007DFF059D089E002D01DC002E38DD019A61
:10936000029FDDF81080DDF81C90142303FB072713
:1093700003FB058503FB06969246BA4528D0C346F3
:10938000AB4515D059465046FEF759FD0BF1140B6D
:1093900004460028F4D007A8FFF723F904A8FFF734
:1093A00020F901A8FFF71DF920460BB0BDE8F08FAA
:1093B000CB46B34509D059465046FEF740FD0BF168
:1093C000140B04460028F4D0E5E70AF1140AD4E7A8
:1093D0000024E0E70124E4E738B505460C46FDF734
:1093E00092FAAB68A268AA60A360EB68E268EA60E0
:1093F000E36038BD30B585B0002302938B68054625
:109400000C4633B1022268469847E3680393A36889
:10941000029329466846FFF7DFFF6846FDF76AFAC0
:1094200005B030BD38B50D4601684B6D044623B11B
:1094300028684C314C30FFF7DDFF20462B6840F8A0
:10944000043B6968FEF734FC204638BD2DE9F04343
:10945000044687B068460E461746FEF74FFC236861
:10946000D3E9064304EBC3084445A14616D0214680
:1094700001A8FEF7ADFE394601A8FEF7E0FC08346E
:1094800005460028F0D049463046FFF7CBFF684636
:10949000FEF742FC284607B0BDE8F0830025F6E75A
:1094A00010B504688AB04C34B9B1CDE9001202A8F5
:1094B0006946FFF7F5F8002306A902A80893FFF70D
:1094C0008BFF214606A8FFF787FF06A8FDF712FAD3
:1094D00002A8FDF70FFA0AB010BD0491EBE788422D
:1094E000F8B504460D46164614D9904213D2A2F19F
:1094F0000806751AA1F108072C44B74218D01CB110
:1095000031462046FFF7F9F8301DFCF7C4FE083E4F
:10951000083CF2E70CD0B5420AD01CB129462046DF
:10952000FFF7EBF8281DFCF7B6FE08350834F2E724
:10953000F8BD70B50E1E054611DDF000FCF7B8FC55
:10954000044658B1D5E9001201EBC202FFF7C7FF8C
:109550002868FCF7B5FC2C60AE60012070BD0024CB
:10956000F6E72DE9F0410023C0E9003383600D46A2
:1095700049689942044613DDFFF7DBFF80B1D5E966
:109580000063276806EBC308B04507D01FB131461A
:109590003846FFF7B2F808360837F5E76B686360BE
:1095A0002046BDE8F08137B50D46044601A8FEF718
:1095B000A5FB296820460C31FFF7D3FF01A8FEF771
:1095C000ABFB204603B030BD38B50B689B7A05462F
:1095D0000C4633B90846FEF725FB10B92368012273
:1095E0009A7228462146FFF7DEFF284638BD73B53C
:1095F000044645686846FFF780F8D4E901139942AC
:1096000010DA2368626803EBC50503EBC202294642
:1096100005F10800FFF763FF8DB9636801336360EC
:10962000012606E001312046FFF783FF06460028A9
:10963000E7D101A8FCF72FFE304602B070BD6946A5
:109640002846FFF75AF8E8E72DE9F04FDFF8B89021
:10965000DFF8B8A093B00546884600272B68BB42C8
:109660004ED903A8FEF75AFE1C266A68039C7E4367
:1096700032440DF1140C131DE34614321868596876
:10968000E646AEE8030008339342F446F6D1186884
:10969000CEF8000059460AA8FEF786FB0DF1280C0B
:1096A000BCE80F000FC4DCF8003023606B68039A3D
:1096B000334403A91B8B93826B6833445B8BD38247
:1096C000D8F8000000F10C040AA8FFF716F82046AD
:1096D0000AA9FFF78CFF04460BA8FCF7DCFD54B980
:1096E0002023CDE90A34CDF8009023460AAA51463A
:1096F0003220FCF71FFB04A8FCF7CDFD0137ADE7D6
:1097000013B0BDE8F08F00BF4CA00D00739F0D009B
:109710008842F8B504460D46164614D9904213D235
:10972000A2F10806751AA1F108072C44B74218D017
:109730001CB131462046FEF7D2FF301DFCF7ABFDD1
:10974000083E083CF2E70CD0B5420AD01CB12946CD
:109750002046FEF7C4FF281DFCF79DFD08350834A0
:10976000F2E7F8BD70B50E1E054611DDF000FCF7FE
:109770009FFB044658B1D5E9001201EBC202FFF786
:10978000C7FF2868FCF79CFB2C60AE60012070BD11
:109790000024F6E72DE9F0410023C0E9003383609F
:1097A0000D4649689942044613DDFFF7DBFF80B19F
:1097B000D5E90063276806EBC308B04507D01FB1A1
:1097C00031463846FEF78BFF08360837F5E76B68F9
:1097D00063602046BDE8F08137B50D46044601A818
:1097E000FEF78CFA296820461831FFF7D3FF01A84D
:1097F000FEF792FA204603B030BD73B504464568C3
:109800006846FEF76CFFD4E90113994210DA236829
:10981000626803EBC50503EBC202294605F10800A7
:10982000FFF776FF8DB9636801336360012606E0B8
:1098300001312046FFF796FF06460028E7D101A830
:10984000FCF729FD304602B070BD69462846FEF798
:1098500046FFE8E7F0B585B0054601A80C46174677
:10986000FEF74CFA0023C5E90033AB602368D3E967
:10987000064604EBC606B44211D038682146FEF70E
:1098800067FC50B1214602A8FEF729FF02A928462D
:10989000FFF7B3FF03A8FCF7FEFC0834EBE701A8D1
:1098A000FEF73AFA284605B0F0BD00002DE9F04376
:1098B0000B689B7A91B006460F46904633B9C0E9D3
:1098C00000338360304611B0BDE8F08311680D7E2F
:1098D000002D58D120232A4603A8CDE90835FEF7EC
:1098E000AAFB039B01932B4B2B49009308AA2B4601
:1098F0000120FCF71FFA03A800F00EFC1C23ADF8B2
:109900002230D8F800309A8AADF83820DB8AADF8DA
:109910003A303B68214A1888009508A9FCF730F9CD
:10992000002830DB3B68D3E9064304EBC309083465
:10993000A4F10803994522D054F8083CDB89002B98
:10994000F5D0102200210DEB020003951AF080FCE7
:1099500054F8083CD9893B6803AA1888009513235A
:10996000FCF72CF90028E2D010AB184403A900F84A
:10997000345C54F8080C3C3000F06FFCD7E7D8F8A2
:10998000003001221A76424639463046FFF762FF20
:1099900098E700BF71A00D00739F0D00459B0B0061
:1099A000F0B50B689B7A85B006460D462BB901A829
:1099B000FFF70AFE01A8FEF7BBFE2B68D3E90347B9
:1099C00004EBC707BC4209D02246294601A8FFF78D
:1099D0006DFF01A8FEF7BEFE0834F3E730462946C6
:1099E000FFF7FAFE304605B0F0BD00002DE9F04368
:1099F000054693B0086807920F46496898460AAC36
:109A0000414B049303C405AB4FF0000983E8030006
:109A1000CDE90899FEF74EFD3C4B0893FEF74AFD51
:109A20002968036809934A4604A8FCF7D1F80AAEEE
:109A3000044638B12B684FF6FF721A80204613B0E7
:109A4000BDE8F08303A8FEF759F939462846FEF72A
:109A5000B5FCFEF72FFD0768294618373046FEF79C
:109A600056FE31463846FFF786F907460BA8FCF745
:109A700012FC4FF020091FBB3246254B254E2649CC
:109A8000009332202346CDE90A94FCF753F930685D
:109A9000FCF736F82B688DF80C40214618881F4CCF
:109AA000FCF750F83068FCF723F801238DF80C30F0
:109AB0002B684FF6FF721A8003A8FEF72DF9BDE759
:109AC00003A8FEF729F9164B0093134923463246A3
:109AD0000120CDE90A94FCF72DF9B8F1000FADD0C3
