:02000004085F93
:10B0000000B05F08FCFF5F0800000600200005019B
:08B010000401501400000000CF
:10B018000E480F4908B5884205D00E4A824202D030
:10B028000D4B121A98470D480D4A00210D4B121A64
:10B0380098470D480D49884205D00D4A824202D0F2
:10B04800054B121A9847014808BD00BF78AD071094
:10B05800CCFC5F08F0AD07102D0D1110F0AD0710F6
:10B06800E8AF0710A10E1110B8B33F0288B05F080F
:0CB07800FCFF3F0219B05F080000000060
:08B088007CB05F0894F83F0260
:10B0900010F8012B11F8013B012A28BF9A42F7D082
:10B0A000D01A7047034613F8012B002AFBD1181A57
:10B0B0000138704770B501F0A1FA0025054E064C25
:10B0C000A41BA408AC4200D170BD56F8043B9847BD
:10B0D0000135F7E7D8FF3F02FCFF3F0200F070B8F0
:10B0E00008B500F0CDF8BDE8084001F03FBA00F027
:10B0F000A1BD00F09FBD00F0ABBD00000C2008B565
:10B10000024A034900F070FCFEE700BFA9BC3F0201
:10B11000A4F83F020078B0FA80F04009704701239C
:10B12000037070477047000010B50446094B036078
:10B1300001F02EFC214601F077FE01F031F901F01B
:10B1400023F92046044B40F8043B01F009FD20465A
:10B1500010BD00BF54F93F023CF93F0210B5044650
:10B16000FFF7E2FF20462421FFF7C5FF204610BD70
:10B170000EB44FF0200C002300B58CB00DAA52F88D
:10B18000041BCDE904C3CDE900120392016804AAAF
:10B190001E2000F045FC0CB05DF804EB03B07047D6
:10B1A00008B5044B0288044904481A80FFF7E0FF01
:10B1B00008BD00BF50AE0710B9F83F02B4AE07108B
:10B1C00070B590B001F0ECF84FF4165101F0D8F8DA
:10B1D00002F036FE02F07EFE02F032FE244A014604
:10B1E0000BA803F0A3FB0BA802F019FF02F028FE46
:10B1F000204A01460BA803F099FB1F4C0BA802F054
:10B200000EFF06AD03A803F00EF80FCC0FC526689D
:10B2100006AD0BAC0FCD0FC40BA8266002F01CFCD2
:10B2200004460BA8DCB902F033FC02230321ADF87D
:10B230000A0000940DF10A0203A802F0E9FF02F0EF
:10B24000FFFD03A9002202F096FE00220B490948E7
:10B2500003F0F6F9039800F0FBFC10B070BD02F0AB
:10B2600019FC00230246009307211023E4E700BFE6
:10B270005CAE071054AE071014AE0710D1B43F02F5
:10B2800030B587B002F0DCFD02F034FE30B30224AA
:10B29000134A0DF10605138801339BB21380ADF8F4
:10B2A000043001F07DF803681B69984780B1142CC5
:10B2B0000ED001F075F8036801345B699847287077
:10B2C00001F06EF8036815F8011B9B689847E8E7E2
:10B2D00000232246034801A902F098FC07B030BDC4
:10B2E00050AE07105CAE071070B51426D0E90053BD
:10B2F000044606FB0356AE4204D0284603F0D6FCB3
:10B300001435F8E7206800F0A3FC204670BD8842A1
:10B31000F8B504460D46164616D9904215D2A2F14C
:10B320001406751AA1F114072C44B7421CD02CB195
:10B330003146204603F036FD337C2374304603F05B
:10B34000B5FC143E143CF0E70ED0B5420CD02CB145
:10B350002946204603F026FD2B7C2374284603F063
:10B36000A5FC14351434F0E7F8BD00232DE9F041B5
:10B37000C0E9003383604F6804469F420E4624DDD7
:10B380004FF0140808FB07F000F054FC0546E0B14C
:10B39000D4E9001208FB0212FFF7B9FF206800F0A1
:10B3A00057FC2560A760D6E9007308FB0378B84511
:10B3B00009D03946284603F00FFD3B7C143505F8CB
:10B3C000043C1437F3E7736863602046BDE8F081FE
:10B3D0002DE9F047002598B0CDE90455069500F019
:10B3E000DFFF534C0646274604A909A8FFF7BDFF17
:10B3F00009A90EA8FFF7B9FF4E4B0EA947F8043B69
:10B4000013A8FFF7B2FF13AA1E21384601F0EEFD84
:10B4100013A8FFF769FF0EA8FFF766FF464B2662E9
:10B42000236009A8FFF760FF444B454E236000F0FE
:10B43000B7FF4FF4165100F0A3FF01F0A9FA21461F
:10B44000404C01F0ABFC04A8FFF74EFF3E4F2046F6
:10B450003E4902F09FFB30463D4902F09BFB3846D7
:10B460003C4902F097FB0FCFD7F800E027460DF1DB
:10B47000100CACE80F000FCFCCF800E00DF1240C5D
:10B48000ACE80F00D7F800900DF1100ACCF800904E
:10B490000DF1380CBAE80F00ACE80F00DFF8C880F7
:10B4A000CCF800E00DF14C0C0DF1240EC8E900556C
:10B4B000BEE80F00ACE80F0013ABCCF8009040469C
:10B4C00000934FF010020EABCDE90155224903F075
:10B4D00003F90FCE0DF1100CACE80F000FCCD6F82D
:10B4E00000E009AE0FC6CCF800E0D7F800C004AC0D
:10B4F000C6F800C00EAE0FCC0FC6184FC6F800E05D
:10B5000009AC13AEC7E900550FCC0FC6144BC6F8F3
:10B5100000C0019313AB00934FF004023846114969
:10B5200002950EAB03F0D8F818B0BDE8F08700BF65
:10B53000F0AD07103CF93F02E4FA3F0254F93F0234
:10B5400028AE071014AE07103CAE0710BCF83F023F
:10B55000E1F83F0206F93F022BF93F0254AE071013
:10B56000D1B43F022EF93F025CAE071009B5044882
:10B570000068044B03441B681B68029309BD00006C
:10B5800078AD07103400000009B504480068044B8A
:10B5900003441B685B68029309BD000078AD071087
:10B5A0003400000009B504480068044B03441B68DC
:10B5B0009B68029309BD000078AD071034000000BD
:10B5C00009B504480068044B03441B681B690293D7
:10B5D00009BD000078AD07103400000009B504482B
:10B5E0000068044B03441B685B69029309BD0000BB
:10B5F00078AD07103400000009B504480068044B1A
:10B6000003441B689B69029309BD000078AD0710D5
:10B610003400000009B504480068044B03441B686B
:10B62000DB69029309BD000078AD0710340000000B
:10B6300009B504480068044B03441B681B6A029365
:10B6400009BD000078AD07103400000009B50448BA
:10B650000068044B03441B689B68029309BD00000B
:10B6600078AD07102400000009B504480068044BB9
:10B6700003441B68DB68029309BD000078AD071026
:10B680002400000009B504480068044B03441B680B
:10B690001B69029309BD000078AD0710240000006B
:10B6A00009B504480068044B03441B685B690293B6
:10B6B00009BD000078AD07102400000009B504485A
:10B6C0000068044B03441B689B69029309BD00009A
:10B6D00078AD07102400000009B504480068044B49
:10B6E00003441B68DB69029309BD000078AD0710B5
:10B6F0002400000009B504480068044B03441B689B
:10B700001B6A029309BD000078AD071024000000F9
:10B7100009B504480068044B03441B689B6A029304
:10B7200009BD000078AD07102400000009B50448E9
:10B730000068044B03441B68DB6A029309BD0000E8
:10B7400078AD07102400000009B504480068044BD8
:10B7500003441B681B6C029309BD000078AD071001
:10B760002400000009B504480068044B03441B682A
:10B770005B69029309BD000078AD07104C00000022
:10B7800009B504480068044B03441B685B6C0293D2
:10B7900009BD000078AD07103000000009B504486D
:10B7A0000068044B03441B689B6C029309BD0000B6
:10B7B00078AD07103000000009B504480068044B5C
:10B7C00003441B68DB6C029309BD000078AD0710D1
:10B7D0003000000009B504480068044B03441B68AE
:10B7E0005B6D029309BD000078AD071030000000CA
:10B7F00009B504480068044B03441B689B68029326
:10B8000009BD000078AD07106000000009B50448CC
:10B810000068044B03441B681B6D029309BD0000C4
:10B8200078AD07106000000009B504480068044BBB
:10B8300003441B689B6D029309BD000078AD07109F
:10B840006000000009B504480068044B03441B680D
:10B850001B6E029309BD000078AD07106000000068
:10B8600009B504480068044B03441B68D3F89830BA
:10B87000029309BD78AD07106000000009B50448C7
:10B880000068044B03441B68D3F8A830029309BD39
:10B8900078AD07106000000009B504480068044B4B
:10B8A00003441B68D3F8B430029309BD78AD071088
:10B8B0006000000009B504480068044B03441B689D
:10B8C000D3F8D830029309BD78AD071060000000AE
:10B8D00009B504480068044B03441B68D3F8DC3006
:10B8E000029309BD78AD07106000000009B5044857
:10B8F0000068044B03441B68D3F8EC30029309BD85
:10B9000078AD07106000000009B504480068044BDA
:10B9100003441B68D3F8F030029309BD78AD0710DB
:10B920006000000009B504480068044B03441B682C
:10B93000D3F80031029309BD78AD07106000000014
:10B9400009B504480068044B03441B68D3F804316C
:10B95000029309BD78AD07106000000009B50448E6
:10B960000068044B03441B685B68029309BD000038
:10B9700078AD07100000000009B504480068044BCA
:10B9800003441B68DB68029309BD000078AD071013
:10B990000000000009B504480068044B03441B681C
:10B9A0005B69029309BD000078AD0710000000003C
:10B9B00009B504480068044B03441B689B68029364
:10B9C00009BD000078AD07105000000009B504481B
:10B9D0000068044B03441B68DB68029309BD000048
:10B9E00078AD07105000000009B504480068044B0A
:10B9F00003441B685B6B029309BD000078AD071020
:10BA00004800000009B504480068044B03441B6863
:10BA10001B6D029309BD000078AD071048000000BF
:10BA200009B504480068044B03441B685B6D02932E
:10BA300009BD000078AD07104800000009B50448B2
:10BA40000068044B03441B68DB6E029309BD0000D1
:10BA500078AD07104800000009B504480068044BA1
:10BA600003441B681B6F029309BD000078AD0710EB
:10BA70004800000009B504480068044B03441B68F3
:10BA8000DB6B029309BD000078AD07102C000000AD
:10BA900009B504480068044B03441B685B680293C3
:10BAA00009BD000078AD07102800000009B5044862
:10BAB0000068044B03441B689B68029309BD0000A7
:10BAC00078AD07102800000009B504480068044B51
:10BAD00003441B68DB68029309BD000078AD0710C2
:10BAE0002800000009B504480068044B03441B68A3
:10BAF0001B69029309BD000078AD07102800000003
:10BB000009B504480068044B03441B685B69029351
:10BB100009BD000078AD07102800000009B50448F1
:10BB20000068044B03441B689B69029309BD000035
:10BB300078AD07102800000009B504480068044BE0
:10BB400003441B68DB69029309BD000078AD071050
:10BB50002800000009B504480068044B03441B6832
:10BB60001B6A029309BD000078AD07102800000091
:10BB700009B504480068044B03441B681B6B02931F
:10BB800009BD000078AD07102800000009B5044881
:10BB90000068044B03441B685B6B029309BD000003
:10BBA00078AD07102800000009B504480068044B70
:10BBB00003441B681B6C029309BD000078AD07109D
:10BBC0002800000009B504480068044B03441B68C2
:10BBD0005B6C029309BD000078AD071028000000DF
:10BBE00009B504480068044B03441B685B68029372
:10BBF00009BD000078AD07100800000009B5044831
:10BC00000068044B03441B68D3F88830029309BDD5
:10BC100078AD07100800000009B504480068044B1F
:10BC200003441B68D3F89430029309BD78AD071024
:10BC30000800000009B504480068044B03441B6871
:10BC40001B68029309BD000078AD071004000000D6
:10BC500009B504480068044B03441B685B68029301
:10BC600009BD000078AD07100400000009B50448C4
:10BC70000068044B03441B689B68029309BD0000E5
:10BC800078AD07100400000009B504480068044BB3
:10BC900003441B685B6A029309BD000078AD07107E
:10BCA0000400000009B504480068044B03441B6805
:10BCB000DB6A029309BD000078AD071004000000A4
:10BCC00009B504480068044B03441B68DB6B02930E
:10BCD00009BD000078AD07100400000009B5044854
:10BCE0000068044B03441B681B6C029309BD0000F1
:10BCF00078AD07100400000009B504480068044B43
:10BD000003441B685B6C029309BD000078AD07100B
:10BD100004000000002340681A46FFF7B9BE002265
:10BD200002214068FFF7D0BE002240681146FFF7AD
:10BD3000BDBE002240681146FFF7D4BE0023406814
:10BD40001A461946FFF7DCBE002340681A4619461A
:10BD5000FFF7E4BE00214068FFF726BF00214068DE
:10BD6000FFF730BF0022406881F00101FFF7E4BE19
:10BD700000224068FFF7FCBE002240681146FFF732
:10BD800005BF002240681146FFF7E4BE2DE9F043ED
:10BD900095B014460D46074600F060FB00211C22BA
:10BDA0000DA8009103F053FA402320460C93002184
:10BDB0006B460CAAFFF70AFE044600284BD1024648
:10BDC00001216868FFF78EFE0221804622466868DE
:10BDD000FFF788FE21468146009E002E3BD00029B9
:10BDE00039D17368022B03D00A2B11D0F669F4E71E
:10BDF000B8F1000FFAD0716906A804313C1D07ADF7
:10BE000000F05AFB0FCD0FC42B6841462370EDE7BD
:10BE1000B9F1000FEAD0102201A8746903F017FAF3
:10BE2000062301AD8DF8143004F1080318342A46B6
:10BE300018685968083303C2A3421546F7D101A90F
:10BE400006A83C1D07AD00F017FB0FCD0FC42B68F3
:10BE500049462370CAE70098FFF7AAFD384615B097
:10BE6000BDE8F083024B034A1A6000225A60704713
:10BE700064AE07106CF93F02002240681146FFF7DC
:10BE800031BE002240681146FFF764BE00224068C0
:10BE90001146FFF77BBE00224068FFF769BE002213
:10BEA000406881F00101FFF747BE002340681A4651
:10BEB0001946FFF733BE002340681A461946FFF7BC
:10BEC0001FBE002240681146FFF7F0BD002202218C
:10BED0004068FFF7F9BD002340681A46FFF7D8BD58
:10BEE0000422024B5A60024A1A6070476CAE071077
:10BEF000A8F93F02012200F1100313F8101C1846A4
:10BF0000012908D153F8041C02EB4102013A03F164
:10BF10001003F2D17047022904BF53F8041C5218D1
:10BF2000F4E70EB4F0B588B0102100AF07F1340586
:10BF300055F8042B04462B4678187A60FD60FFF70D
:10BF4000A3FE0F287A681AD900F1080323F007032B
:10BF50006E46ADEB030D411C2B466846FD60FFF7B6
:10BF600093FE021E04DD2368694620469B689847BD
:10BF7000B5462037BD46BDE8F04003B07047002805
:10BF8000F7D0236802469B68204607F110019847C6
:10BF9000EFE710B543680446013B436063B90368AB
:10BFA0009B689847A368013BA3602BB92368204690
:10BFB000BDE81040DB68184710BD38B50B68044673
:10BFC00003604D6843689D4208D015B16B6801332A
:10BFD0006B60606808B1FFF7DCFF656038BD07B5CE
:10BFE00003688DF8071001229B680DF1070198473F
:10BFF00003B05DF804FB0B461146002210B5044661
:10C00000C0E9002283600BB9204610BDFFF7D5FFC1
:10C01000FAE78368EBB11A78032A1AD8DFE802F04E
:10C020000417021B0520704702685B685268D05CE9
:10C030002D2812D0A0F13003092B0ED974280ED070
:10C0400066280CD0A0F16E03584258417047062074
:10C05000704700207047042070470320704702207B
:10C06000704710B50446FFF7D4FF02280ED0C31E58
:10C07000DBB2012B14D82268A36850685B680A22DF
:10C08000BDE810400021184403F0EEB92268A3680F
:10C0900052685B68D05CA0F174035842584110BDEF
:10C0A0000020FCE738B500230446C0E900330E4801
:10C0B000C4E90203A9B10B78032B06D08BB913682E
:10C0C00058684B68C35C6E2B07D013684D6858687E
:10C0D0008B6828445B1BA060E36011462046FFF795
:10C0E0006CFF204638BD00BFAAFA3F0238B50025D4
:10C0F0000B4604461146C0E90055C0E90255C0E9A7
:10C1000004554BB11A78012A06D103F11002DB68FD
:10C1100082604361FFF751FF204638BD10B5436987
:10C12000044663B18068013BE0601030A06020618C
:10C13000636113B1FFF7DEFEA060012000E0184646
:10C1400010BD10B57D210446FFF749FF01232046AD
:10C15000237110BD08B50379012B02D0022B04D046
:10C1600008BD2C21FFF73BFFFAE73A21FAE710B5AB
:10C170000446FFF7EFFF20467B21FFF730FF002347
:10C180002046237110BD000013B504460191FFF74E
:10C19000E1FF23682046DB68019A034998470123A1
:10C1A0002046237102B010BDB9F83F0213B5044612
:10C1B0000191FFF7CFFF23682046DB68019A03490E
:10C1C000984701232046237102B010BDE4F93F02D5
:10C1D0002DE9F0470D469046222104462F46FFF7F1
:10C1E000FEFEDFF8A490A8444745BA463DD017F8B4
:10C1F000016B222E06D05C2E04D0304602F0E8FF00
:10C200000028F1D12368294620469B68AAEB050245
:10C2100098475C212046FFF7E2FE0D2E0AD8072E34
:10C220001CD9A6F10803052B18D8DFE803F00D0F81
:10C2300011171315222E01D05C2E0FD13146204646
:10C24000FFF7CDFE3D46CFE76221F8E77421F6E720
:10C250006E21F4E76621F2E77221F0E723683246A7
:10C2600049462046DB689847ECE7BD4205D0236885
:10C27000294620469B687A1B984722212046FFF7D3
:10C28000AEFEBDE8F08700BFE7F93F0213B50446F4
:10C29000CDE90021FFF75EFFDDE900212046FFF731
:10C2A00097FF02232046237102B010BD13B5044648
:10C2B000CDE90021FFF74EFFDDE900212046FFF721
:10C2C00087FF01232046237102B010BD10B504463C
:10C2D000006808B1FFF75DFE204610BD417470474D
:10C2E0007047704708B50021007CFFF785F940EAE8
:10C2F000E07008BD08B50121007CFFF77DF940EA38
:10C30000E07008BD08B5007CFFF768F920EAE0702E
:10C3100008BD08B5007CFFF753F920EAE07008BDBE
:10C3200013B50446007C0191FFF758F900280199E4
:10C3300001DC607C20B1207CFFF76CF920EAE07022
:10C3400002B010BD007CFFF773B910B5044614218C
:10C35000FEF7D1FE204610BD10B54FF47A730446A7
:10C3600008460021C4E90113044B20742360012313
:10C3700011466374FFF7FAF8204610BDF8F93F0242
:10C380000022007CFFF700B9007CFFF70BB910B565
:10C3900004461422002102F05AFF204610BD00007E
:10C3A00010B588B003A8FFF7F2FF0C4CD4E88F1F3C
:10C3B00011F001010FD120460191FEF7ABFE01996A
:10C3C00048B103AA0648FFF7C7FF2046FEF7A7FEBD
:10C3D000044802F0F7FE024808B010BD74AE071022
:10C3E00078AE071011C63F02704710B504461821F9
:10C3F000FEF781FE204610BDF0B5037D0E46062BEC
:10C400004FF000048DB000F1040712D000F10805D0
:10C4100015F8011D0A22304601F02BF9AF42044401
:10C4200019D0002CF4D02E21304601F01FF904441D
:10C43000EEE72F236A4639460A208DF80040FFF7C1
:10C4400091F96846FEF72EFE33680246694630468B
:10C45000DB689847044620460DB0F0BD10B5044691
:10C46000044B1122002140F8043B02F0F0FE20466C
:10C4700010BD00BF28FA3F020346074A10B543F833
:10C48000042B01F1100251F8044B914243F8044B84
:10C49000F9D10A781A7010BD28FA3F0210B59DF83C
:10C4A000084044EA032343EA0242042342EA0161CA
:10C4B0004160037510BD000007B5064B0360CB78E3
:10C4C00000938B784A780978FFF7E8FF03B05DF8AE
:10C4D00004FB00BF28FA3F0210B58368044613B17D
:10C4E000032201469847204610BD13B56C460B4603
:10C4F0000246D0E9000184E8030093E8030082E8E3
:10C50000030094E8030083E8030002B010BD0000BC
:10C51000014B1860704700BF88AD071008B50F4B7E
:10C5200043B1FFF73DFF03681B699847002801DD11
:10C5300000E000BF0A4B43B102F09AFC03681B699C
:10C540009847002801DD00E000BF064B0BB102F068
:10C55000D5FC054B0BB102F007FD08BD0000000043
:10C5600000000000000000000000000008B5FFF718
:10C57000D5FFFFF70FFA014B186008BD08AF071091
:10C580000548064A08B5121A054902F039FE054B5E
:10C59000054A1A6008BD00BF00B4071004B40710B4
:10C5A00044FD5F0800B407101E1C279A002307B53E
:10C5B0001A466FF077010093FFF72EFB03B05DF88A
:10C5C00004FB000007B543880A2B08D0502B0BD181
:10C5D000094B1B684BB103B05DF804EB1847FFF73C
:10C5E000E5FF03B05DF804FB00231A466FF0770106
:10C5F0000093FFF711FBF4E790AE0710002110B590
:10C600001148FFF779FB114B1A68114B9A420CBF86
:10C61000012200220F4B1A7001D0FFF7B1FFFFF784
:10C620009DF9044602F01CFE0B4B13B1204600E0BE
:10C6300000BF00210848FFF71DFABDE810400021A7
:10C640000648FFF7DBBA00BF41C83F0200B407103D
:10C650001E1C279A8CAE071000000000F5C83F0290
:10C660000022014B9A60704794AE0710024B1A6883
:10C67000024B1A60704700BF7CAD0710A4AE0710D4
:10C6800080680368DB6818477047084611B10B687B
:10C690005B6818477047704770477047704738B5F8
:10C6A00004460D4600682E2102F015FE2368C31AC9
:10C6B0002B6023B1037803B1013023682060184652
:10C6C00038BD10B504460C21FEF715FD204610BDFF
:10C6D00010B504460421FEF70EFD204610BD10B52E
:10C6E00004460421FEF707FD204610BDFFF764B89D
:10C6F00008B5FEF7CDFCB0FA80F0400908BD7047E0
:10C7000010B50C46FFF74CFE844205D1FFF748FEFA
:10C71000BDE81040FFF738BE02F0AAFB844205D105
:10C7200002F0A6FBBDE8104002F069BA2CB1236804
:10C730002046BDE810405B68184710BD0B680360D9
:10C740004B68436013B15A6801325A60704713B5A1
:10C75000044608460191FEF7A5FC024620460199D1
:10C7600002B0BDE81040FFF7A1BD13B5044608466E
:10C770000191FEF797FC0246204623680199DB6889
:10C7800002B0BDE81040184707B503688DF80710E0
:10C790000122DB680DF10701984703B05DF804FB47
:10C7A0000A6810B502604A6842600022C0E90222AD
:10C7B00002618C688A608460CC68CA60C4600C695D
:10C7C0000A61046110BD00002DE9F74F4FF0140A13
:10C7D000D0E90084174645460AFB04F40093174B42
:10C7E000A4105C43002C21DD66100AFB06F005EB6B
:10C7F0000009B9F804B03A465F4528BF5A462858A0
:10C80000019102F07AFD00284FF0010301990BD14C
:10C810005F4503D1009A13703446E3E7FCD9A61BA9
:10C8200009F11405013EF7E7F9DBF5E7A5EB08058B
:10C830000248AD10684303B0BDE8F08FCDCCCCCC3E
:10C840007FB50369057E019103B3F9B1002600F1BC
:10C850000C04039603A901A8FFF721FF0146A8B124
:10C860000DF10B032046039A8DF80B60FFF7ACFF28
:10C870009DF80B3053B12368142404FB0034B4F941
:10C8800006300834002BA8BFDDB2E3E7284604B029
:10C8900070BD0EB4F0B58CB000AF07F1440555F88B
:10C8A000042B04462B46202107F110007A60FD601E
:10C8B000FFF7EAF91F287A681AD900F1080323F074
:10C8C00007036E46ADEB030D411C2B466846FD6029
:10C8D000FFF7DAF9021E04DD236869462046DB68AB
:10C8E0009847B5463037BD46BDE8F04003B07047C5
:10C8F0000028F7D023680246DB68204607F11001C4
:10C900009847EFE710B5084CD4E88F3FDB0709D410
:10C910002046FEF7FFFB28B12046FEF700FC034847
:10C9200002F050FC024810BDACAE0710C7C93F0270
:10C9300080AD071010B5084CD4E88F3FDB0709D451
:10C940002046FEF7E7FB28B12046FEF7E8FB034848
:10C9500002F038FC024810BDB0AE07102FCA3F02EB
:10C9600084AD071038B500250446C0E90055C0E97C
:10C9700004558560856140F8245FFEF701FFFFF7ED
:10C98000C1FFE061FFF7D6FF25732062204638BD66
:10C9900010B50A4CD4E88F3FDB070CD42046FEF7D5
:10C9A000B9FB40B10648FFF7DDFF2046FEF7B7FBB5
:10C9B000044802F007FC024810BD00BFA8AE0710F3
:10C9C000B8AE071035D23F020023024A024903489D
:10C9D000FFF742B81DD03F02A9CF3F0229CF3F0247
:10C9E00000231A4619461846FFF736B837B50446ED
:10C9F0008D686846FFF7A2FE6A4629462046FFF783
:10CA000075FB01A8FFF762FC204603B030BD37B5C7
:10CA10000446CD686846FFF791FE6A4629462046DF
:10CA2000FFF740FB01A8FFF751FC204603B030BDE3
:10CA300037B504460D696846FFF780FE6A46294609
:10CA40002046FFF7D8FA01A8FFF740FC204603B0C4
:10CA500030BD000070B58AB00D46014604A8FFF74E
:10CA6000C5FF144E04A8FFF759FBE8B1684604A9B6
:10CA7000FFF7CDFF31460298FFF73AFE044610B1AA
:10CA80002C1E18BF012401A8FFF720FC002CE9D0C0
:10CA9000684604A9FFF7CCFF6846FFF7E2FA286072
:10CAA00001A8FFF713FCDDE705A8FFF70FFC0AB0AC
:10CAB00070BD00BF50FA3F0237B50C4613492046FF
:10CAC0001546FEF7E5FA50B9FFF76AFC4FF4165128
:10CAD000FFF756FC03B0BDE83040FFF761BC2046CD
:10CAE0000B49FEF7D5FA78B94FF4165301A9284639
:10CAF0000193FFF7AFFF02F0BBF9019902F07CF858
:10CB000002F0B6F903B030BD0020FBE755FA3F0252
:10CB10005CFA3F0270B51426D0E90053044606FBC8
:10CB20000356AE4205D005F10800FFF7F3FF1435B8
:10CB3000F7E72068FFF78CF8204670BD70B5044613
:10CB4000D0E9005305EB0316AE4204D0284602F0AC
:10CB5000ADF81035F8E72068FFF77AF8204670BD89
:10CB600010B504460C30FFF7D5FF2046FFF7E6FF6F
:10CB7000204610BD10B50446034B40F8043BFFF7B8
:10CB8000EFFF204610BD00BF3CF93F0210B5044640
:10CB9000FFF7F0FF20462421FEF7ADFA204610BD36
:10CBA00010B50446024B0360FFF7E4FF204610BDBA
:10CBB000FCFA3F0210B50446FFF7F2FF204624219D
:10CBC000FEF799FA204610BD0022C0E900228260DB
:10CBD00010B50C680A6004604C684A6044608C6858
:10CBE0008A60846010BD10B5044603681868FEF7BB
:10CBF000F1FD204610BD00002DE9F04F87B00393F2
:10CC00001C4B80465B688946C3F3080316466BB924
:10CC1000FFF7BEFE044600F12403406A0593FFF7C8
:10CC200065FD237B2BB105A8FFF7DDFF07B0BDE84D
:10CC3000F08F01235FFA89F92373D4E9005305EBE0
:10CC4000830AAA4512D055F8047B3146381DFFF7F8
:10CC5000F7FD8145F5D3039A3B680092D3F808B0FD
:10CC60004A46334641463846D847EAE7002323730D
:10CC7000D9E700BF00ED00E02DE9F74F9B461A4BC6
:10CC800080465B688946C3F3080316466BB9FFF715
:10CC90007FFE044600F12403406A0193FFF726FD5E
:10CCA000237B2BB101A8FFF79EFF03B0BDE8F08FF7
:10CCB0000123F6B22373D4E9005305EB830A5545EB
:10CCC0000ED055F8047B5946381DFFF7B9FD864252
:10CCD000F5D33B684A4641463846DB689847EEE75D
:10CCE00000232373DEE700BF00ED00E02DE9F341F0
:10CCF000164B05465B680F46C3F308031BBBFFF7E3
:10CD000047FE044600F12403406A0193FFF7EEFC5E
:10CD1000D4E90063462406EB8308B04509D101A895
:10CD2000FFF761FFA542B4BF0020012002B0BDE8BB
:10CD3000F08156F8040B39460430FFF781FD844238
:10CD4000A8BF0446E9E70020F0E700BF00ED00E0DF
:10CD5000F8B5D0E901539D4204460E460DDB6F1C29
:10CD6000002F006804DDB900FEF780FF18B9F8BD98
:10CD7000FEF76EFF00202060A7602768626807EB5F
:10CD800085019200A2EB8502081D02F046FA47F8E1
:10CD900025606368012001336360E8E737B5044626
:10CDA00000F12403406A01930D46FFF79FFCD4E98C
:10CDB000003203EB8202934219460AD00968043319
:10CDC000A942F8D101A8FFF70EFF0025284603B0BD
:10CDD00030BD29462046FFF7BBFF05460028F1D0AD
:10CDE0006368012B01D1FFF7EFFD01A8FFF7FBFE00
:10CDF000ECE70B4670B50446D0E9000200EB820276
:10CE000082420FD001461D6851F8046BAE4207D133
:10CE1000521A02F002FA01206368013B636070BDA0
:10CE20000846EDE70020FAE71FB5044600F12403A9
:10CE3000406A01910393FFF759FC204601A9FFF7CF
:10CE4000D8FF18B163680BB9FFF7CAFD03A8FFF755
:10CE5000CAFE04B010BD182370B50446D0E90456CC
:10CE600003FB0656AE4215D0204605F11001FFF730
:10CE7000C0FF63680BB9FFF7B3FDE0692969036878
:10CE8000DB689847696919B1206A0368DB689847CD
:10CE90001835E7E71826D4E9045306FB0356AE42DB
:10CEA00004D0284601F002FF1835F8E7002363613B
:10CEB00070BD73B50446FFF793FD04F12403606A67
:10CEC0000193FFF713FC2046FFF7C5FF01A8FFF70A
:10CED0008AFE606A08B1FEF761FCD4E904531826A3
:10CEE00006FB0356AE4204D0284601F0DFFE18359B
:10CEF000F8E72069FEF7ACFE2068FEF7A9FE2046A1
:10CF000002B070BD0148FFF7D4BF00BFB8AE071034
:10CF10008842F8B504460D46164615D9904214D2FB
:10CF2000A2F11406751AA1F114072C44B7421AD0C5
:10CF30001CB131462046FFF733FC06F10800FFF72D
:10CF4000E9FD143E143CF1E70DD0B5420BD01CB105
:10CF500029462046FFF724FC05F10800FFF7DAFD1B
:10CF600014351434F1E7F8BD8842F8B504460D468F
:10CF7000164614D9904213D2A2F11006751AA1F1E7
:10CF800010072C44B74218D01CB13146204601F09E
:10CF900009FF304601F08AFE103E103CF2E70CD04B
:10CFA000B5420AD01CB12946204601F0FBFE2846B6
:10CFB00001F07CFE10351034F2E7F8BD70B50E1E9E
:10CFC000054611DD3001FEF735FE044658B1D5E9BE
:10CFD000001201EB0212FFF7C7FF2868FEF738FEC8
:10CFE00001202C60AE6070BD0024F6E72DE9F04F03
:10CFF00090460023462295B00391D8F804100446C9
:10D000009942C0E90033C0E90233C0E90433CDE9F5
:10D01000083302760A9323DCD8E90057142303FB74
:10D020000757AF423BD029460BA801F0BBFE0BA926
:10D030000FA8099E01F0B6FEDDE9091399421BDA3B
:10D04000089B099A03EB0616314603EB021206F120
:10D050001000FFF789FFEEB9099B0133099311E036
:10D0600008A8FFF7ABFF0028D6D108A8FFF766FD98
:10D07000204615B0BDE8F08F013108A8FFF79EFFEC
:10D080000028DDD10FA801F011FE0BA801F00EFE63
:10D090001435C6E730460FA901F084FEDCE7002610
:10D0A0004FF01409CDE90B660D96DDE908239E4289
:10D0B0007CDA3301D35806930BB90136F5E7002328
:10D0C000079309FB06F30BAD029307A906A8FFF728
:10D0D000E6FA82460028F0D04FF0000301468DF8B2
:10D0E00017302846079A0DF11703FFF76DFB9DF8DF
:10D0F00017700190002F4AD1BDF81C30CDE911778F
:10D10000ADF840304FF6FF73CDF83CA0ADF842309B
:10D110001397D5E90132934217DB03F1010ABAF103
:10D12000000F30DD09FB0AF0FEF784FD834660B393
:10D13000D5E9001209FB0212FFF7EAFE2868FEF7A4
:10D1400087FDC5F800B0C5F808A02B68019A09FB57
:10D15000023A6A68514609FB02320AF11400FFF7ED
:10D16000D7FEBAF1000F03D050460FA9FFF718FB06
:10D170006B6801336B6011A8FFF7CCFC3FB10BA8C3
:10D18000FFF7C8FC71E7BB46D8E70127F3E7019B2F
:10D190002D6809FB0355069B1B782BB9D8F8003086
:10D1A000029A13441B7CEB8008358EE721682260CD
:10D1B00062686360A36809920A9A0A93E368A260AE
:10D1C0000B9A0B932369E2600C9A0C9363692261BA
:10D1D0000D9A0D93039B089162612376CFE70000BF
:10D1E000F0B504462646174687B00D4668461946F0
:10D1F000FEF7BBF80B4B694646F8043B03A8FEF765
:10D20000B4F8394603AA3046FFF7F0FE03A8FEF74C
:10D210006BF86846FEF768F82046034B25622360EA
:10D2200007B0F0BD3CF93F02E4FA3F02F0B50F460B
:10D2300085B038461C4916461D460A9CFDF728FF56
:10D24000C0B9A4B1294601A8FFF7BEFC24201749A4
:10D2500001F09EFE054630B101AB32462146FFF794
:10D26000BFFF134B2B6001A8FEF73EF82C4620466B
:10D2700005B0F0BD38460F49FDF70AFF90B9002C04
:10D28000F5D0294601A8FFF79FFC2420074901F0AB
:10D290007FFE05460028E6D03246214601ABFFF767
:10D2A0009FFFE0E70024E2E764FA3F024CFD3F0203
:10D2B000FCFA3F0268FA3F02014B024A1A607047CB
:10D2C000B4AE071079FA3F022DE9F047089DD0F877
:10D2D000209004460E4617469846FFF761F88145B0
:10D2E0004DD02B79190704D520466A695449FFF7B8
:10D2F000D0FAB8F1000F0DD05B212046FFF744FAB9
:10D3000041462046FFF731FA236802222046DB68B7
:10D310004C4998472B79DA0724D5D5F808802F2176
:10D32000404602F00AF808B100F1010841462046E3
:10D33000FFF71BFA2B799B0708D53A212046FFF708
:10D3400023FA2046EA684049FFF7A3FA2A792368BE
:10D3500012F0040F20464FF00202DB6814BF3B4975
:10D360003B4998472B7958071DD529690B461A4622
:10D3700013F8010B60B1202808D11946F7E73548AA
:10D38000FEF7FFFC0028ACD0BDE8F0872828EED1DE
:10D390002368521A2046DB689847236804222046F7
:10D3A000DB682D49984700213846FEF747FB0146C8
:10D3B0002046FFF7DAF9236802222046DB68244979
:10D3C00098471EB131462046FFF7CFF92B7913F06D
:10D3D000300F2CD023682149DB6802222046984771
:10D3E0002B79D9060AD52368072220461C49DB6819
:10D3F00098472046AA691B49FFF74BFA2B799A06F2
:10D4000011D5DB0605D5236802222046DB680F49CB
:10D4100098472368204614490A22DB68984720462B
:10D42000E969FFF7A2F95D212046FFF7ADF923680E
:10D430002046BDE8F0470222DB680C49184700BFD0
:10D440007DFA3F0284FA3F02B9F83F0287FA3F02B1
:10D450008CFA3F0264AE07108AFA3F028FFA3F024D
:10D4600092FA3F029AFA3F029DFA3F02A8FA3F025F
:10D470002DE9F0410446076A0D461646FEF790FF77
:10D48000874207D0206A324603682946BDE8F0414A
:10D49000DB6818470348FEF774FC0028F2D0BDE8AB
:10D4A000F08100BF64AE07102DE9F04385B0D0F8DD
:10D4B000209005460F4690461E460C9CFEF770FFD6
:10D4C000814505D14948FEF75CFC002840F08A8080
:10D4D0004FF000092B6A464A01A8019203938DF888
:10D4E0000890FEF744FE49464046FEF7A7FA8046FC
:10D4F0004049012201A8FEF7C9FE4146FFF727F97E
:10D500003FB13D49012201A8FEF7C0FE3946FFF7B1
:10D510001EF93EB13949012201A8FEF7B7FE314696
:10D52000FFF715F92379DF070ED5A6682F213046BE
:10D5300001F003FF00B1461C3149012201A8FEF7AA
:10D54000A5FE3146FFF703F923799E0707D52D493C
:10D55000022201A8FEF79AFEE168FEF715FE237984
:10D56000580714D5266933461F4613F8012B2AB1F4
:10D57000202A01D11E46F7E7282AF5D102222249A6
:10D5800001A8FEF783FE3146BA1BFEF78FFE237912
:10D59000190707D51D49012201A8FEF777FE616929
:10D5A000FEF704FE2379DA0608D5042218490DEBAC
:10D5B0000200FEF76BFEA169FEF7E6FD23799B06EC
:10D5C00007D51449062201A8FEF760FEE169FFF7BE
:10D5D000BEF801A8FEF7B5FD286A022203680E49CD
:10D5E000DB68984705B0BDE8F08300BF64AE071064
:10D5F000CCFA3F025AFA3F02ABFA3F02D3FE3F0297
:10D6000004F93F02ADFA3F02B0FA3F02B3FA3F021B
:10D61000B5FA3F02BAFA3F02A8FA3F02F8B5064649
:10D620000D4600248F18BD420CD0336830469B68ED
:10D6300015F8011B9847031E01DB1C44F3E7002C7F
:10D6400008BF1C462046F8BD13B50446084659B12C
:10D650000191FDF727FD0246204623680199DB680A
:10D6600002B0BDE81040184702B010BD03689B68C7
:10D6700018470023012A98BF0A2230B58BB08DF8D5
:10D68000243009AC0D46B1FBF2F101FB125303F05B
:10D69000FF03092B94BF30333733DBB2AA4204F8BF
:10D6A000013DEFD92146FFF7CFFF0BB030BD7047EA
:10D6B0007047704770470000064B10B5994200F163
:10D6C0000C0405D0084601F06BFC002808BF0024BC
:10D6D000204610BDDCF93F02064B10B5994200F11F
:10D6E0000C0405D0084601F05BFC002808BF0024AC
:10D6F000204610BDDCF93F02064B10B5994200F1FF
:10D700000C0405D0084601F04BFC002808BF00249B
:10D71000204610BDDCF93F0210B504466821FDF734
:10D72000EAFC204610BD10B504462821FDF7E3FCB5
:10D73000204610BD10B504463021FDF7DCFC204624
:10D7400010BD6821FDF7D7BC2821FDF7D4BC3021DE
:10D75000FDF7D1BCF0B50025EC1C8C420DD86E1C39
:10D76000875D445D974205D12644B14205D31D60D3
:10D77000601CF0BD01342544EEE70020F9E700000D
:10D780000A20024A0249FEF72FB900BFA9BC3F0296
:10D790003CFB3F0230B40D4611461A460368096847
:10D7A000D3E900432868A44630BC6047012A38B555
:10D7B000044602D10B68236003E0022A03D0032A47
:10D7C0000DD0002038BD08200D68FDF790FC034601
:10D7D0000028F0D095E8030083E80300EBE7006839
:10D7E0000028EED00821FDF786FCEAE710B50446D4
:10D7F0005830FEF771FE04F14800BDE8104001F01A
:10D8000055BA38B5036805468B420C4608D011B1AD
:10D810004B6801334B60286808B1FEF7BAFB2C60F7
:10D8200038BDA0F13003DAB2092A01D81846704792
:10D83000A0F16103052B01D857387047A0F14103CF
:10D84000052B94BF37384FF0FF307047002310B5D9
:10D850000370044B04461868FDF7AEFF0123204611
:10D86000237010BDE8AE071010B5037804461BB155
:10D87000024B1868FDF7AEFF204610BDE8AE07105A
:10D8800082B06A4603460868496803C26A4603CA0A
:10D8900018601846596002B0704708B582798B79D4
:10D8A0009A4206D1062201F09BFCB0FA80F04009B2
:10D8B00008BD0020FCE7000070B50446384B86B078
:10D8C00018689B880090ADF80430364BA67918682C
:10D8D0009B880290ADF80C307EB90622694620463E
:10D8E00001F07EFC38B10622204602A901F078FC46
:10D8F000003818BF012006B070BDA3882068ADF8BD
:10D90000143006F0FD03012B049024D19DF815502E
:10D91000062205F03F05694604A88DF8155001F070
:10D920005FFC00283AD065F03F05062202A904A852
:10D930008DF8155001F054FC80B36079012E00F091
:10D94000C00004D1C02814BF00200120D3E7B0FAE2
:10D9500080F04009CFE7022E1ED103229DF815501A
:10D960000DEB020105F03F050DF113008DF8155088
:10D9700001F036FC90B165F03F0503220DF10B017B
:10D980000DF113008DF8155001F02AFC30B16079CB
:10D9900000F0C0004028D6E70120ACE70020AAE74D
:10D9A0007CF83F027AFB3F024FF0FF330360838035
:10D9B000002070470021024608B501604160FFF772
:10D9C000F3FF1046917108BD0123024610B50361B3
:10D9D000044B03F1100153F8044B8B4242F8044B03
:10D9E000F9D110BD82F83F0210B50B460446B1B123
:10D9F000012A01F110020AD1014653F8040B9342A7
:10DA000041F8040BF9D101232361204610BD411ECA
:10DA100012F8010D9A4201F8010FF9D1F3E7102233
:10DA200001F015FCF1E738B5044615461A46FFF734
:10DA3000DBFF2046A58138BD08B5026922B980897F
:10DA4000003818BF012008BD1022024901F0C8FBB0
:10DA5000F6E700BFD0FC3F020069704738B50C46BE
:10DA600014220021054601F0F2FB23691BB9A389AA
:10DA70002B80284638BD012321462B742B4604F108
:10DA8000100251F8040B914243F8040BF9D1F0E76E
:10DA900080897047704708B502690B699A4206D1C0
:10DAA000102201F09DFBB0FA80F0400908BD002073
:10DAB000FCE7000001232DE9F3410246064603611D
:10DAC000334B0C4603F1100153F8040B8B4242F820
:10DAD000040BF9D144B32421204601F022FC042890
:10DAE0004FF0000523D1ADF8045001AFA51C06345A
:10DAF00015F8020CFFF795FEB0F1000812DB15F8DF
:10DB0000010CFFF78EFE00280CDB023540EA0810FE
:10DB1000A54207F8010BEBD19DF8053033739DF852
:10DB2000043073730023336102B0BDE8F0814FF01D
:10DB300010082421204601F0F4FBA84207D84246F1
:10DB40000021304602B0BDE8F04101F080BBB8F1E1
:10DB5000000FE9D0605DFFF764FE030615D40001F5
:10DB6000C7B208F1FF382421204606F8087001F0FA
:10DB7000D8FB0135A84208D9605DFFF752FE40B2DC
:10DB80000028A4BF384306F808000135D1E700BFDC
:10DB900082F83F0213B504460191FFF715FF2046B6
:10DBA0000199FFF787FF204602B010BD38B54FF648
:10DBB000FF730025044643800E2229460570057137
:10DBC000063001F044FB04F11400FFF7FDFE04F100
:10DBD0002800FFF7F9FE044904F13C0001F0B1F818
:10DBE0002046656538BD00BFAAFA3F0210B5D0E9EE
:10DBF000063203EBC2029342184605D0046808338C
:10DC000024888C42F7D110BD0020FCE7F0B5064611
:10DC10001F460D4685B0002950D0002A4ED004681A
:10DC2000F42A237828BFF42243B32379980709D52F
:10DC30000023A0890392FDF72FFE0028039A03DA40
:10DC400005B0F0BD6FF0770034682379D90609D5A7
:10DC5000012F07D000232946A08905B0BDE8F04078
:10DC6000FDF760BE9B06EBD5022FE9D000232946C5
:10DC7000A08905B0BDE8F040FDF762BE4FF6FF7128
:10DC8000608888421CD021794E0701D5012F04D12C
:10DC90000B0709D46FF07700D2E7A18900931346F0
:10DCA0002A46FDF715FECBE7022FF3D00023A1890A
:10DCB000009313462A46FDF7FDFDC1E70248BFE782
:10DCC0006FF0D100BCE700BFF2FEFFFF2DE9F0418D
:10DCD00000260746066028200C46FDF708FA051EB8
:10DCE00005F10C080FD00123C5E90133084B40466C
:10DCF0002B60FFF769FE0FCC2E6285F82460464644
:10DD00000FC6236833603846C7E90085BDE8F08157
:10DD100090FC3F0270B50025064605603020FDF7F7
:10DD2000E6F9044698B10123C0E901330A4B0E30ED
:10DD300040F80E3C4FF6FF7320F8023CFFF73AFE26
:10DD4000C4E90655C4E90855C4E90A55A5757460C7
:10DD50000C343046346070BDACFC3F0237B50D4624
:10DD6000044601A8FFF772FD2A6801A8D2F8023024
:10DD70002360D2F806306360FFF776FD204603B0DB
:10DD800030BD30B505460C4687B001A8FFF75EFDF3
:10DD90002A68236812881B889A420DD1294602A856
:10DDA000FFF7DCFF214604A8FFF7D8FF04A902A86B
:10DDB000FFF773FD044600B9002401A8FFF754FDE6
:10DDC000204607B030BD000070B506467420FDF750
:10DDD0008EF90446A0B10025C0E90055C0E90255FE
:10DDE000C0E90455C0E9065505622430FFF792FFEB
:10DDF00004F12C00FFF78EFFE563E564E565E56659
:10DE0000346024B90A200A4A0A49FDF7EDFD0020D2
:10DE1000FDF7EEFC20B10A20054A0749FDF7E4FDB5
:10DE2000002231680548FDF76FFD304670BD00BF28
:10DE3000A9BC3F023CFB3F0281FB3F0289E63F0257
:10DE400010B50A4CD4E88F3FDB070CD42046FDF711
:10DE500061F940B10648FFF7B7FF2046FDF75FF9CB
:10DE6000044801F0AFF9024810BD00BFE0AE071052
:10DE7000ECAE071035E93F0230B503680446093BB4
:10DE8000012B0D468DB011D8FFF7DAFFA18800688D
:10DE9000FFF7ACFE034658B92022CDE904200B4A17
:10DEA000322000920A4904AAFDF7ACFD0DB030BD46
:10DEB0006A6D002AFAD0D4E9032105F14C00CDE9BE
:10DEC0000312AC6D04AA03A9A047EFE7C3FB3F020E
:10DED00053FB3F0208B50020FDF78AFC00EAE07022
:10DEE00008BD19B90A460846FDF790BC0022D1E9E1
:10DEF0000001F9E70368D8690028D4BF0020012099
:10DF0000704738B5141E0546436802DB62189A4212
:10DF100000DD5C1A2A68501801191A44521A01F0DF
:10DF20007CF96A68121B6A6038BD37B50A46044638
:10DF30000D46D0E9000101ABFFF70CFC024638B1F9
:10DF400020460199FFF7DDFF29462046FFF7EDFF48
:10DF500003B030BD10B50C4629B90A460846BDE8E5
:10DF60001040FDF761BC01212046FFF7DEFFD4E938
:10DF700000010022F3E738B504461546FFF7B1FF6C
:10DF800000280ADB29462046FFF7E4FF002804DBCF
:10DF9000BDE838400020FDF755BC38BD38B500233A
:10DFA0000446836008200D46FDF7A1F818B12B68E0
:10DFB00003606B684360034B2060E360024B2046C4
:10DFC000A36038BDC5DA3F02DDDA3F020B680360AB
:10DFD00013B15A6801325A60704710B5044651F8BF
:10DFE000043B40F8043BFFF7F1FF23680BB9FFF750
:10DFF000C7FB204610BD10B5044651F8043B40F85D
:10E00000043BFFF7E3FF204610BD10B5044651F86E
:10E01000043B40F8043BFFF7D9FF204610BD10B584
:10E0200004460430FEF752F9204610BD70B5044690
:10E03000D0E9005305EBC306AE4204D0281DFEF71D
:10E0400045F90835F8E72068FDF702FE204670BD67
:10E0500070B50446D0E9005305EBC306AE4204D0C8
:10E06000281DFEF733F90835F8E72068FDF7F0FDC5
:10E07000204670BD10B504462430FFF7E9FF04F1D7
:10E080001800FFF7D3FF10BD002313B5D1E90042FC
:10E09000C1E900330368046000934368426001A84B
:10E0A0000193FEF713F902B010BD826810B50AB9EA
:10E0B00000F072FFC368BDE81040184738B50D1E68
:10E0C0000446006803DDFDF7D1FD18B938BDFDF742
:10E0D000BFFD00202060A5600120F7E708B5836838
:10E0E0008B4202DAFFF7EAFF08BD0120FCE72DE9C9
:10E0F000F0410F4641681D46194483680446994221
:10E10000904612DC266862683E443146D21B701984
:10E1100001F083F82A464146304601F071F80120AB
:10E1200063682B446360BDE8F081FFF7C7FF0028F8
:10E13000E8D1F8E7F8B50D46D0E901139942044655
:10E1400016460BDA276862687919521B481C01F0E1
:10E1500064F87E55636801336360F8BD0131FFF7F1
:10E16000ADFF0028EED1F8E70A464168FFF7E2BFAD
:10E170002DE9F74304461D460F4601AB90460A467B
:10E18000D0E900019DF82890FFF7E4FAAE1C0246A2
:10E190006368B9F1000F26D128B333441B1AFF2B53
:10E1A00009D820460199FFF7ACFE6168204631444A
:10E1B000FFF794FF18B9606803B0BDE8F0836A1CEC
:10E1C00020460199D2B2FFF7B5FF01993A460131D5
:10E1D0002046FFF7AFFF2B46424601990231204609
:10E1E000FFF785FFE7E7F118FF29E4D82046FFF79E
:10E1F00075FF0028DFD0691C2046C9B2FFF7B4FFC5
:10E2000039462046FFF7B0FF2B4642466168E6E7F5
:10E2100030B49DF808501AB1029530BCFFF7A8BF82
:10E22000406830BC70471FB500230622C0E90033A8
:10E2300083600093012304468DF80F2019460DF1E9
:10E240000F02FFF7E5FF204604B010BD8842F8B585
:10E2500004460D46164614D9904213D2A2F1080680
:10E26000751AA1F108072C44B74218D01CB13146E9
:10E270002046FFF7CAFE301DFEF728F8083E083C8E
:10E28000F2E70CD0B5420AD01CB129462046FFF770
:10E29000BCFE281DFEF71AF808350834F2E7F8BD71
:10E2A000F7B5044646686846FFF7AFFED4E9017348
:10E2B0009F4212DB0137002F29DDF800FDF7BAFC81
:10E2C0000546F0B1D4E9001201EBC202FFF7BEFF30
:10E2D0002068FDF7BDFC2560A7602368626803EB3A
:10E2E000C606314603EBC20206F10800FFF7AEFF97
:10E2F0001EB169463046FFF788FE01256368013389
:10E30000636001A8FDF7E2FF284603B0F0BD0025D9
:10E31000DEE7F8B50546D0E900430F4604EBC30637
:10E32000A64205D039462046FFF72BFD08B114B9A7
:10E33000F8BD0834F4E7201DFDF7C8FFD5E9003229
:10E34000204603EBC20204F10801FFF77FFF6B6870
:10E35000013B6B60ECE700002DE9F04305468FB010
:10E3600003A80C46FFF772FA2E68F31E0D2B6AD82D
:10E37000DFE813F00E0078006900FC006900690016
:10E38000690069006900C600C600C600C600C60074
:10E39000606A04F118060230FFF78EFA38B321469E
:10E3A000AA8951F8243F06A81A80FFF72EFE06A975
:10E3B0003046FFF775FF07A8FDF788FF06A8FFF7AF
:10E3C000A9FC069B04F1280007996362FFF719FA7C
:10E3D00007A8FDF77BFF20210023CDE906136D4A36
:10E3E000009201206C4906AAFDF70CFB2BE004A863
:10E3F000FFF790FCAA89049B1A8069680498083189
:10E400000230FFF73DFA04A906A8FFF7FEFD3046EB
:10E4100006A9FFF745FF054607A8FDF757FFC5B951
:10E420002023CDE906355D4B01205B49009306AA08
:10E430002B46FDF7E7FA049B29461888FDF710FAEA
:10E4400005A8FDF743FF03A8FFF70EFA0FB0BDE8DC
:10E45000F083E36B23B104A904F13400FFF725FE38
:10E4600005A8B6E72046A989FFF7C0FB06460028A5
:10E47000E9D0014604F12C00FFF783FC04F11808F1
:10E4800048B131464046FFF744FF20220023CDE942
:10E490000623434AA4E74FF6FF713568D5E90632F3
:10E4A000298003EBC2029A4203D053F8080B418043
:10E4B000F9E7D5E9037307EBC309B94504D0381D63
:10E4C000FDF704FF0837F8E700232B61D5E9067351
:10E4D00007EBC309B94504D0381DFDF7F7FE08372F
:10E4E000F8E70023EB61AB72E36C23B1314604F132
:10E4F0004400FFF7DAFD4FF6FF7233681A80C0E779
:10E500002046A989FFF772FB00289CD0E36D002B01
:10E5100099D000230D2EADF8163001D0102E17D152
:10E52000002369681A4606258DF81530049109AB59
:10E530008DF8142006908DF81C60DDE90401089523
:10E5400083E80300236E06A904F1540098477AE794
:10E550000F2E01BF2B7A696803F0010208251DBF49
:10E560001A4619461D46C3F34003DDE7A989204634
:10E57000FFF73CFB014600283FF465AFE36E002B3C
:10E580003FF461AF6B6806AA069304F16400236F41
:10E59000984758E701FC3F0253FB3F02DBFB3F0279
:10E5A0000BFC3F0270B504466430FDF795FF04F1A3
:10E5B0005400FDF791FF04F14400FDF78DFF04F1D5
:10E5C0003400FDF789FF04F13000FDF77FFE04F110
:10E5D0002800FDF77BFED4E9065305EBC306AE42E7
:10E5E00004D0281DFDF772FE0835F8E7A069FDF795
:10E5F0002FFB04F10C00FFF72BFD2046FFF716FD63
:10E60000204670BD10B5064B1C6844B12046FFF78C
:10E61000C9FF2046BDE810407421FCF76CBD10BD59
:10E62000ECAE071038B505460C46FDF75EFFAB684B
:10E63000A268AA60A360EB68E268EA60E36038BDA4
:10E6400010B504688AB04C34B9B1CDE9001202A803
:10E650006946FFF7A3FC002306A902A80893FFF769
:10E66000E1FF214606A8FFF7DDFF06A8FDF734FF0E
:10E6700002A8FDF731FF0AB010BD0491EBE770B5B9
:10E6800004460E461D468CB00192FFF78FFA2671A4
:10E69000019904F13C0000F0AAFB04F14C06CDB155
:10E6A000109B02A904A802950393FFF777FC0023AF
:10E6B00008A904A80A93FFF7B5FF314608A8FFF799
:10E6C000B1FF08A8FDF708FF04A8FDF705FF2046E5
:10E6D0000CB070BD0695EAE72DE9F04F9246002296
:10E6E00087B08B461299804668201D46DDE91043AD
:10E6F000029103930492FCF7FAFC061E06F10C0942
:10E7000018D001223746C6E901220299154A039B17
:10E7100047F8202B48465A4600915146FFF7AFFF75
:10E720000FCD0FC72B6806F134053B600FCC0FC52A
:10E7300023682B60404604A9CDE90496FFF7A4FCAA
:10E7400005A8FDF7C3FDD8F800303BB90A20064AFA
:10E75000064907B0BDE8F04FFDF746B907B0BDE880
:10E76000F08F00BF74FC3F02A9BC3F023CFB3F029C
:10E770008842F8B504460D46164614D9904213D285
:10E78000A2F10806751AA1F108072C44B74218D067
:10E790001CB131462046FFF72EFC301DFDF796FDDB
:10E7A000083E083CF2E70CD0B5420AD01CB129461D
:10E7B0002046FFF720FC281DFDF788FD08350834AA
:10E7C000F2E7F8BD70B50E1E054611DDF000FDF74D
:10E7D00031FA044658B1D5E9001201EBC202FFF745
:10E7E000C7FF2868FDF734FA01202C60AE6070BDC9
:10E7F0000024F6E773B5044645686846FFF7FBFB5F
:10E80000D4E90113994210DA2368626803EBC50565
:10E81000294603EBC20205F10800FFF7A9FF8DB9F5
:10E82000636801260133636006E020460131FFF78B
:10E83000C9FF06460028E7D101A8FDF747FD30468D
:10E8400002B070BD69462846FFF7D5FBE8E788426D
:10E85000F8B504460D46164614D9904213D2A2F1DB
:10E860000806751AA1F108072C44B74218D01CB14C
:10E8700031462046FFF7B1FB301DFDF727FD083E6E
:10E88000083CF2E70CD0B5420AD01CB1294620461C
:10E89000FFF7A3FB281DFDF719FD08350834F2E743
:10E8A000F8BD70B50E1E054611DDF000FDF7C2F98A
:10E8B000044658B1D5E9001201EBC202FFF7C7FFC9
:10E8C0002868FDF7C5F901202C60AE6070BD0024FA
:10E8D000F6E773B5044645686846FFF77EFBD4E962
:10E8E0000113994210DA2368626803EBC5052946D3
:10E8F00003EBC20205F10800FFF7A9FF8DB96368B9
:10E9000001260133636006E020460131FFF7C9FFAD
:10E9100006460028E7D101A8FDF7D8FC304602B032
:10E9200070BD69462846FFF758FBE8E72DE9F04F30
:10E930001746A1B080460AA80E46FEF787FF3C683E
:10E94000237953B939464046FFF747FB0AA8FEF73B
:10E950008BFF404621B0BDE8F08F336804F1280AF0
:10E96000D3E9035305EBC303039304F1140B039B97
:10E970009D4221D0D5F80090584609F11401FFF7C7
:10E980008AF8B8B1504609F12801FFF784F888B138
:10E990002368D9F80020534033F47F430AD1202262
:10E9A000CDE915235E4A009215AA32205D49FDF794
:10E9B00029F8C7E70835DAE75046FFF73DF860B9B0
:10E9C0000122594915A8FFF70FF8D44615AD0FCD10
:10E9D000ACE80F002B68CCF800303368D3E9005363
:10E9E00005EBC30B5D45A94651466ED055F8080BA3
:10E9F000FFF751F80028F5D004F1140A5046FFF74C
:10EA00001BF888B9494B48491A8815A8013292B2B7
:10EA10001A800123FFF707F8D44615AD0FCDACE8F7
:10EA20000F002B68CCF80030414B2822002116A89B
:10EA3000159300F00CFC514604A8FFF70FF804AB47
:10EA400018AA0DF1200C154618685968083303C53B
:10EA500063452A46F7D11868002228602379A11D52
:10EA60008DF85830D9F8003015A89B8AADF874306D
:10EA7000E36B17932F4BCDE91E34FCF737FF0028CB
:10EA80007FF460AF01232370346839460C340DA83D
:10EA9000FFF7A3FA20460DA9FFF71BFF04460EA8B7
:10EAA000FDF714FC002C7FF44DAF2023CDE90D348D
:10EAB000214B0DAA0093234677E739464046FFF7DE
:10EAC0008CFA0CA8FDF702FC40E70BA8FFF7FEF854
:10EAD000514615A8FEF7C2FF0B9A002301201432FD
:10EAE00015A9FCF7CBFE0028E7D135680BA90DA8C6
:10EAF000FFF781FA28460DA9FFF77CFE05460EA810
:10EB0000FDF7E4FB002DD8D032680CA853681268DA
:10EB100003F10053013B02EBC309FDF7D7FB6BE7A1
:10EB200018FC3F0253FB3F02C0FC3F02E4AE07105B
:10EB300003002C00A9E13F0243FC3F0200230248EE
:10EB40000360FCF71DBE00BFE8AE071070474174BC
:10EB5000704708B5007CFCF7DBFD20EAE07008BDDB
:10EB600008B5007CFCF78EFD20EAE07008BD08B512
:10EB7000007CFCF7A3FD40EAE07008BD08B5007C0E
:10EB8000FCF78EFD40EAE07008BD007CFCF7A4BDF8
:10EB900037B5457C04462DB1207C03B0BDE830403C
:10EBA000FCF762BD007C0191FCF7B2FD00280199E1
:10EBB000F2DC284603B030BD10B504461421FCF742
:10EBC0009AFA204610BD000010B54FF47A7304463F
:10EBD000084611460022C4E90123044B2074236037
:10EBE00001236374FCF7B0FD204610BDE8FC3F0232
:10EBF0000023007CFCF79ABD0022FFF7F9BF007CE0
:10EC0000FCF724BD007CFCF775BD0000022200204B
:10EC1000044B1A60044B054AC3E900009A60FCF7F4
:10EC2000DFBF00BFFCAE0710F0AE07100000FFFF13
:10EC3000002240681146FCF78DBF00224068114653
:10EC4000FCF7A4BF00224068FCF792BF0022406896
:10EC500081F00101FCF770BF002340681A46194695
:10EC6000FCF75CBF002340681A461946FCF748BF12
:10EC7000002240681146FCF735BF0022406811466B
:10EC8000FCF714BF002202214068FCF71DBF0023DF
:10EC900040681A46FCF7FCBE0322024B5A60024A47
:10ECA0001A60704700AF071018FD3F0210B5044608
:10ECB0000068FCF7CDFF204610BD10B50446006883
:10ECC00008B1FCF7C5FF0023C4E90133236010BD80
:10ECD00038B504460D4600680131FCF7C7FF10B196
:10ECE000C4E90005012038BD10B50368044623B10E
:10ECF00043688B4201D3012010BD2046FFF7E8FF97
:10ED00000028F9D0A368002BF5D122681370F2E730
:10ED100037B50D46114601920446FFF7E5FF019A0B
:10ED200028B92046FFF7C9FF204603B030BD294669
:10ED3000A260206800F064FA00212268A368D15420
:10ED4000F2E7002313B50446C0E900338360037380
:10ED500041B108460191FCF7A5F901990246204608
:10ED6000FFF7D6FF204602B010BD38B50546006853
:10ED70000C4668B16A688B689A4207D3096800F04C
:10ED8000B4FAA368AB600023A36038BDFCF760FF52
:10ED900023682B6063686B60A368AB600023C4E9E1
:10EDA0000033F1E7002310B50446C0E90033836067
:10EDB0000373FFF7DAFF204610BD884210B5044602
:10EDC00005D00B682BB18A681946FFF7A1FF2046D2
:10EDD00010BDFFF772FFFAE7002310B50446C0E943
:10EDE000003383600373FFF7E8FF204610BD13B5BF
:10EDF000044659B108460191FCF754F901990246BD
:10EE00002046FFF785FF204602B010BDFFF755FFF3
:10EE1000F9E7704738B5142504462A46002100F06A
:10EE200016FA25804025074928462581258200F0CD
:10EE3000B1F804496060284600F0ACF8E060204674
:10EE400038BD00BF4CFD3F027047704710B5044607
:10EE5000FFF7E0FF204610BD10B50446FFF7DAFFCC
:10EE6000204610BD10B50446FFF7D4FF204610BD64
:10EE700030B50E4D87B0D5E88F1F11F0010411D1C8
:10EE80002846FCF747F968B101A8FFF7DFFF2146E4
:10EE900001AA0748FFF798FE2846FCF740F9054805
:10EEA00000F090F9024807B030BD00BF0CAF07106A
:10EEB00018AF071043F13F0210B50D4C86B0D4E8EF
:10EEC0008F3FDB0711D42046FCF724F968B101A875
:10EED000FFF7C2FF012101AA0648FFF775FE204691
:10EEE000FCF71DF9044800F06DF9024806B010BDAA
:10EEF00010AF07102CAF07107BF13F0210B5FFF7E2
:10EF0000DBFF074B044653B1FFF77CFE38B12368A3
:10EF100020461B699847002801DD00E000BF10BDB6
:10EF20000000000010B50D4C86B0D4E88F3FDB0721
:10EF300011D42046FCF7EEF868B101A8FFF792FF64
:10EF4000022101AA0648FFF73FFE2046FCF7E7F83A
:10EF5000044800F037F9024806B010BD14AF07109E
:10EF600040AF071079F13F0210B5FFF7DBFF074B09
:10EF7000044653B1FFF746FE38B1236820461B69AB
:10EF80009847002801DD00E000BF10BD0000000030
:10EF9000FCF7ADB8FCF7ADB808B5FCF783FE000090
:10EFA000014900F0F9B800BF68FD3F027FB50024B9
:10EFB000102315461268CDE902340368CDE90044F8
:10EFC0009E696B46B0479DF8043003F00603062B9C
:10EFD00005BF009B012020462B6004B070BD009847
:10EFE000904214BF0120062070470000034B10B56B
:10EFF0000446036000F0CDF8204610BDA8FD3F0296
:10F0000010B50446FFF7F2FF08212046FCF773F81D
:10F01000204610BD2DE9F041DDF818801F46064658
:10F020001546DDE90834984507D1079900F0B4F892
:10F0300018B165710020BDE8F0813946304600F016
:10F04000ABF80028F6D00123C4F800802571A37125
:10F05000F0E738B515461C4600F09EF820B10823AD
:10F060002560E3600623237138BD73B505460C4661
:10F070001E46019200F090F850B9032E08D823687C
:10F080002946019A20465B6902B0BDE870401847E6
:10F0900002B070BD034B10B504460360FFF7A6FF36
:10F0A000204610BD08FE3F0210B50446FFF7F2FFF0
:10F0B0000C212046FCF71FF8204610BDF7B5089F2D
:10F0C00005460E46144697420AD0A86831460268A3
:10F0D0000897156A2246AC4603B0BDE8F040604789
:10F0E0001946019300F058F8019B0028EDD0062046
:10F0F00003B0F0BD2DE9F14F0D4619468146174684
:10F100009846DDE90A4BDDE90CA600F045F890B120
:10F11000002D3460377109DB61198A450CBF062167
:10F120000121B171002001B0BDE8F08F0235F9D1A5
:10F130000123B371F6E7544506D15946484600F01D
:10F140002BF808B17771EDE7D9F808003A4629465F
:10F150000368CDE90CA6CDE90A4BDC694346A44619
:10F1600001B0BDE8F04F60472DE9F04107460C467D
:10F1700015461E46FFF76DFF48B9B8682A46214676
:10F1800003689F693346BC46BDE8F0416047BDE86F
:10F19000F081704700207047814208B50ED040686A
:10F1A00003782A2B0CD049680B782A2B08BF013131
:10F1B000FBF76EFFB0FA80F0400908BD0120FCE7C4
:10F1C0000020FAE7002301461A46184600F056B917
:10F1D000024B1844407800F097007047D5FE3F027C
:10F1E0000139024410B5904201D1002005E00378B6
:10F1F00011F8014FA34201D0181B10BD0130F2E7F6
:10F200000A44431E914200D1704710B511F8014BDA
:10F21000914203F8014FF9D110BD884210B501EBBE
:10F22000020402D98442234607D8431EA14208D0D3
:10F2300011F8012B03F8012FF8E7024401468A4236
:10F2400000D110BD13F8014D02F8014DF7E702445B
:10F250000346934200D1704703F8011BF9E7000011
:10F2600038B5104B04461D68AB6BB3B91820FCF7DA
:10F27000E1FC0246A86320B90B4B42210B48FCF786
:10F280002DFD0B490B4BC0E900130B4B0021836094
:10F290000B2383810120C2E90401AB6B00221C61B6
:10F2A0005A6138BD88AD071041FE3F0258FE3F024B
:10F2B0000E33CDAB34126DE6ECDE0500C9B2034669
:10F2C00010F8012B1AB18A42F9D11846704700296B
:10F2D00018BF0023F9E710B50446FFF7EFFF18B990
:10F2E0002046FBF7DFFE204410BD034611F8012B3A
:10F2F00003F8012B002AF9D1704710B57AB1034603
:10F300000139841813F8010B11F8012F904201D133
:10F31000A34201D1801A10BD0028F3D1FAE71046AC
:10F32000F9E70246014410B58A42134603D01C781F
:10F330000132002CF8D1181A10BD38B503460C461E
:10F3400069B9BDE83840FFF7B9BF431C05462146FF
:10F350001846FFF7B3FF0028F7D1284638BD00252F
:10F36000F5E70000012B2DE9F04701D0242B06D949
:10F37000FCF7A6FC162303600020BDE8F0870D46CD
:10F38000DFF8E0C02E4615F8014B14F80C7017F0AA
:10F390000807F7D12D2C32D12C780127B51C002B72
:10F3A0005BD0102B09D1302C07D12C7804F0DF046E
:10F3B000582C4DD16C781023023507F100484FF0DE
:10F3C000000C08F1FF386646B8FBF3F903FB198A15
:10F3D000A4F1300EBEF1090F16D87446A34224DD05
:10F3E000BCF1000F1EDBB1451CD301D1A24519DBD6
:10F3F00006FB03464FF0010C15F8014BE8E72B2CF8
:10F4000004BF2C78B51CCAE7A4F1410EBEF1190F58
:10F4100001D8373CE2E7A4F1610EBEF1190F04D820
:10F42000573CDBE74FF0FF3CE6E7BCF1000F05DAA5
:10F4300022234646036042B930469EE707B1764232
:10F44000002AF9D0BCF1000F00D0691E1160F3E76B
:10F450003024002BB1D10823AFE7302CA5D00A23EC
:10F46000ABE700BFD6FE3F0213460A4601460248FC
:10F470000068FFF777BF00BF88AD07102DE9F8439C
:10F48000DFF8BC8006461F460D46D8F800009146BE
:10F4900000F058F8264B1C6834B9264C1C60264BEB
:10F4A00013B11B68C4F8883063681F2B07DDD8F8D8
:10F4B000000000F049F84FF0FF30BDE8F8835EB37C
:10F4C000D4F8880088B91D4B23B9D8F8000000F0A3
:10F4D0003AF8F0E74FF48470FCF7ACFB0028F4D066
:10F4E0000023C0E94033C4F8880063680122022E7B
:10F4F00040F8239002FA03F200EB8301D0F80031C8
:10F5000043EA0203C0F80031C1F8807002BFD0F8AE
:10F5100004311343C0F804316368D8F800005A1C62
:10F520000233626044F8235000F00EF80020C4E774
:10F53000E0AF071054AF07100000000065BF3F02A6
:10F54000ECAD0710704770477047000000000000E6
:10F550000000FB349B5F8000008000100000000072
:10F5600000000000E5B33F020DB43F0211B43F02BA
:10F570000000000043616C6C206F6E207075726536
:10F58000207669727475616C0025640037383238F2
:10F59000663535642D633034632D343965382D3844
:10F5A0003665392D38663133363237353564633751
:10F5B0000037356331346434342D316231312D34C8
:10F5C0003531342D623232312D646631356663381F
:10F5D00038303530660031306663643837612D3835
:10F5E0003630312D343834652D383239642D64315C
:10F5F0003134613430613862613600747800727879
:10F6000000000000000000000000000000000000FA
:10F61000000000002DB43F0255B43F02000000007E
:10F620000000000059B43F028DB43F02F9D53F02FB
:10F63000A1D73F02000000000000000045C03F02CB
:10F640004FC03F0259C03F0263C03F026DC03F023E
:10F6500079C03F0285C03F028DC03F0295C03F0286
:10F66000A1C03F02A9C03F02B3C03F02BDC03F02DC
:10F67000000000000000000007C23F02FDC13F0281
:10F68000F3C13F02A9C13F02E7C13F02DBC13F0214
:10F6900085C03F028DC03F02CFC13F02C7C13F02BC
:10F6A000BDC13F02B3C13F02BDC03F020000000028
:10F6B000000000002575007525303478000000003A
:10F6C000000000000000000013C63F027BC63F029E
:10F6D00051C63F024DD93F0243C63F0215C63F0205
:10F6E00025C63F0275C63F0235C63F020DC63F0222
:10F6F000000000000000000029C73F0219C73F02B8
:10F700001BC73F0225592D256D2D25645425483AE8
:10F71000254D3A2553257A0061736374696D650040
:10F72000626175640053657269616C00536572694A
:10F73000616C31004A534F4E53747265616D4C6F6A
:10F740006748616E646C65720061707000253031CD
:10F75000307520005D20002C200028293A20002050
:10F760005B00636F6465203D20002569006465745B
:10F7700061696C73203D20000D0A006D006C6E0005
:10F78000666E007400636F64650064657461696C23
:10F79000000000000000000000000000CDC93F0292
:10F7A000F3C93F02B1C93F0253C23F02000000004B
:10F7B00000000000A5CE3F02BDCE3F02F9D53F02BA
:10F7C000A1D73F020000000000000000D1CE3F02A0
:10F7D000E5CE3F02D9D73F02B9C93F020000000081
:10F7E00000000000CBC93F0201CA3F025DD53F02C5
:10F7F000BBC93F020000000000000000C9C93F0271
:10F800000FCA3F02E9CD3F0231CA3F02417373651F
:10F810007274696F6E4661696C7572652066616CA1
:10F82000736500776972696E672E626C6500537448
:10F8300061727420646973636F766572696E6720A4
:10F8400073657276696365732E00FFFFFFFFFFFF2C
:10F8500000417373657274696F6E4661696C75728D
:10F86000652068616C5F626C655F737461636B5F78
:10F87000696E6974286E756C6C70747229203D3DD8
:10F880002053595354454D5F4552524F525F4E4F8E
:10F890004E45005065657220646576696365206930
:10F8A00073206D697373696E6721004661696C65C9
:10F8B0006420746F20617070656E6420706565727D
:10F8C0002043656E7472616C206465766963652E91
:10F8D00000436F6E6E656374656400446973636FA3
:10F8E0006E6E6563746564004475706C6963617401
:10F8F00065642063686172616374657269737469B9
:10F90000632063616E6E6F7420626520616464655C
:10F91000642E004661696C656420746F20617070AC
:10F92000656E64206C6F63616C20636861726163F3
:10F9300074657269737469632E0000000000000032
:10F9400000000000E5D93F0249DA3F021DDB3F021B
:10F9500073DA3F02E9D93F02000000000000000016
:10F96000E1D93F0257DA3F02E3D93F0279DA3F0299
:10F9700009DA3F020000000000000000DFD93F026A
:10F9800065DA3F02A5E33F027FDA3F0229DA3F0250
:10F990007BE327747BF815ACDD49A913000072F5F1
:10F9A000FB349B5F8000008000100000000000001E
:10F9B00000000000000000007DEE3F02E9EE3F0283
:10F9C000C1EE3F024DD93F0291EE3F02ADEE3F0244
:10F9D0009FEE3F02BBEE3F027FEE3F0283EE3F020F
:10F9E0000000000000000000BFEF3F02B5EF3F0243
:10F9F000ABEF3F02A1EF3F0295EF3F0289EF3F02DD
:10FA000085C03F028DC03F027DEF3F0275EF3F0290
:10FA10006BEF3F0261EF3F02BDC03F020053743104
:10FA2000395F53705F6D616B655F736861726564A8
:10FA30005F74616700000000A8FD3F024DFD3F02BA
:10FA400008FE3F027CFD3F022CFE3F024E31305F3C
:10FA50005F637878616269763131375F5F636C61CB
:10FA600073735F747970655F696E666F450000003F
:10FA70000000000070FD3F021DF33F0231F33F0222
:10FA8000C5F43F02C5F43F029BF33F02DDF23F02A3
:10FA900083F33F0245F33F020FF33F0208FE3F02AC
:10FAA000D8FD3F0270FD3F024E31305F5F637878D2
:10FAB000616269763132305F5F73695F636C617375
:10FAC000735F747970655F696E666F450000000052
:10FAD00000000000CCFD3F02C5F33F02D9F33F0216
:10FAE000C5F43F02C5F43F029BF33F02DDF23F0243
:10FAF00099F43F0225F43F02EDF33F02A8FD3F02D7
:10FB000034FE3F02537439747970655F696E666FB5
:10FB1000005245454E54206D616C6C6F63207375C7
:10FB200063636565646564002F6D6E742F776F7213
:10FB30006B73706163652F776F726B737061636550
:10FB40002F4743432D31302D706970656C696E65A8
:10FB50002F6A656E6B696E732D4743432D31302DCF
:10FB6000706970656C696E652D34385F3230323083
:10FB7000313132345F313630363138303634312F2E
:10FB80007372632F6E65776C69622F6E65776C692F
:10FB9000622F6C6962632F7374646C69622F726187
:10FBA0006E642E63000020202020202020202028AA
:10FBB0002828282820202020202020202020202025
:10FBC000202020202020881010101010101010105D
:10FBD000101010101010040404040404040404049D
:10FBE000101010101010104141414141410101011C
:10FBF00001010101010101010101010101010101F5
:10FC00000110101010101042424242424202020201
:10FC100002020202020202020202020202020202C4
:10FC20000210101010200000000000000000000072
:10FC300000000000000000000000000000000000C4
:10FC400000000000000000000000000000000000B4
:10FC500000000000000000000000000000000000A4
:10FC60000000000000000000000000000000000094
:10FC70000000000000000000000000000000000084
:10FC80000000000000000000000000000000000074
:10FC90000000000000000000000000000000000064
:10FCA000000000000000000001B73F0295C13F02C4
:10FCB00011C23F0291C93F029DC93F02E9D53F02EF
:0CFCC0006DEE3F023DEF3F02C9EF3F0236
:10FCCC000000000248FA3F0214FB3F022CFB3F02EB
:10FCDC008CAD0710000000000000000000000000C8
:10FCEC000000000000000000000000000000000008
:10FCFC0000000000000000000000000000000000F8
:10FD0C0000000000000000000000000000000000E7
:10FD1C0000000000000000000000000000000000D7
:10FD2C0000000000000000000000000000000000C7
:08FD3C0000000000E4AF071015
:04FD440000000000BB
:10FFBE000200100000B05F0888B05F08B8B33F02BF
:10FFCE0001000A00FFFFFFFFFFFF00000102030414
:10FFDE0005060708090A0B0C0D0E0F10111213144B
:0EFFEE0015161718191A1B1C1D1E1F203E0089
:04FFFC0078563412ED
:04000005085FB018C8
:00000001FF
