:02000002B0004C
:1040000000400B005A870B00000006000C00050260
:0840100004015014000000003F
:044018003C800B00DD
:10401C0010F8012B11F8013B012A28BF9A42F7D066
:10402C00D01A7047034613F8012B002AFBD1181A3B
:10403C000138704709480A49884208B505D0094A31
:10404C00824202D0121A03F04FFE0748074A0021A1
:10405C00121A03F071FE014808BD00BFB0E1032045
:10406C00B8860B0024E2032024E20320F0E70320AF
:10407C0070B5074E074C01F095F8A41BA408002559
:10408C00AC4200D170BD56F8043B98470135F7E7B8
:10409C0070860B0094860B0000F078B808B500F021
:1040AC007DF8BDE8084001F035B800F07FBB00F0AA
:1040BC007DBB00F083BB000008B5034A03490C200C
:1040CC0000F0B6FAFEE700BFFD450B0050800B0078
:1040DC000078B0FA80F040097047012303707047F4
:1040EC007047704710B5054B00220446114640F846
:1040FC00043B00F0C5FA204610BD00BF88800B00C1
:10410C0010B50446FFF7EEFF20462021FFF7D1FF44
:10411C00204610BD0A4B10B50446036001F00AFAA4
:10412C00214601F054FC00F02BFF00F01DFF20464F
:10413C00044B40F8043B01F0E5FA204610BD00BFEB
:10414C009C800B0070800B0010B50446FFF7E2FF5B
:10415C0020462421FFF7ADFF204610BD0EB400B55C
:10416C008CB00DAA4FF0200C52F8041B0392CDE931
:10417C0000120023016804AA1E20CDE904C300F03C
:10418C0067FA0CB05DF804EB03B0704708B502F0A9
:10419C002FFABDE8084002F047BA00002DE9F041C3
:1041AC008EB002F025FA322102F084FA02F020FAE5
:1041BC002049204C204DDFF88C801E2202F0C4FADE
:1041CC0000260746BE4222DA1F2306AAFF2104F16D
:1041DC00080002F012F9072816D19DF818309DF846
:1041EC0019201340FF2B0FD19DF81A30552B0BD1F2
:1041FC00DDF81B30019301A94046FFF7AFFF94F99E
:10420C0020309D42B8BF1D4601362434DAE70A4BF4
:10421C009D420AD00948002343611A46012104300B
:10422C000EB0BDE8F04100F02BBA00220448114654
:10423C00F6E700BF68E2032019FCFFFF24E203202D
:10424C0028E20320F0E6032070B5D0E900531426D1
:10425C00044606FB0356AE4204D0284603F0E6FAA9
:10426C001435F8E7206800F0A9FA204670BD8842A2
:10427C00F8B504460D46164616D9904215D2A2F151
:10428C001406751AA1F114072C44B7421CD02CB19A
:10429C003146204603F046FB337C2374304603F052
:1042AC00C5FA143E143CF0E70ED0B5420CD02CB13C
:1042BC002946204603F036FB2B7C2374284603F05A
:1042CC00B5FA14351434F0E7F8BD2DE9F0410023AC
:1042DC00C0E9003383604F689F4204460E4623DDDD
:1042EC004FF0140808FB07F000F060FA0546D8B14F
:1042FC00D4E9001208FB0212FFF7B9FF206800F0A6
:10430C005DFA2560A760D6E9007308FB0378B84511
:10431C0008D03946284603F01FFB3B7C2B7414371E
:10432C001435F4E7736863602046BDE8F081000043
:10433C0070B58EB00023CDE90233049300F020FE5B
:10434C0002A9054605A8294CFFF7BFFF05A908A837
:10435C00FFF7BBFF264B236008A90BA8FFF7B5FF9F
:10436C000BAA0121201D01F015FC0BA8FFF76CFF17
:10437C0008A8FFF769FF1F4B2360256205A8FFF70C
:10438C0063FF1D4B236000F0FBFD4FF4165100F052
:10439C00E7FD01F0CFF8214601F0D2FA02A8FFF7B1
:1043AC0053FF164C1E257F26204601F0D4FF04F146
:1043BC00080002F0EFFC04F1140002F0EBFC013DEC
:1043CC0084F8206004F12404EED12A461421012043
:1043DC0000F0D0F901221E21CDE9001203466FF046
:1043EC007F41074800F028FA0EB070BD44E203206C
:1043FC0070800B002C820B009C800B0068E2032069
:10440C0024E2032008B5024B1B681B68019308BD0E
:10441C004C02030008B5024B1B685B68019308BD96
:10442C004C02030008B5024B1B689B68019308BD46
:10443C004C02030008B5024B1B681B69019308BDB5
:10444C004C02030008B5024B1B685B69019308BD65
:10445C004C02030008B5024B1B689B69019308BD15
:10446C004C02030008B5024B1B68DB69019308BDC5
:10447C004C02030008B5024B1B681B6A019308BD74
:10448C004C02030008B5024B1B689B68019308BDE6
:10449C003C02030008B5024B1B68DB68019308BDA6
:1044AC003C02030008B5024B1B681B69019308BD55
:1044BC003C02030008B5024B1B685B69019308BD05
:1044CC003C02030008B5024B1B689B69019308BDB5
:1044DC003C02030008B5024B1B68DB69019308BD65
:1044EC003C02030008B5024B1B689B6A019308BD94
:1044FC003C02030008B5024B1B68DB6A019308BD44
:10450C003C02030008B5024B1B681B6C019308BDF1
:10451C003C02030008B5024B1B685B69019308BDA4
:10452C006402030008B5024B1B685B6C019308BD69
:10453C004802030008B5024B1B689B6C019308BD35
:10454C004802030008B5024B1B68DB6C019308BDE5
:10455C004802030008B5024B1B685B6D019308BD54
:10456C004802030008B5024B1B689B68019308BD09
:10457C007802030008B5024B1B685B6F019308BD02
:10458C007802030008B5024B1B689B6F019308BDB2
:10459C007802030008B5024B1B68DB6F019308BD62
:1045AC007802030008B5034B1B68D3F884300193E1
:1045BC0008BD00007802030008B5034B1B68D3F854
:1045CC009830019308BD00007802030008B5034B36
:1045DC001B68D3F8F030019308BD0000780203008B
:1045EC0008B5024B1B685B68019308BD18020300F9
:1045FC0008B5024B1B68DB68019308BD1802030069
:10460C0008B5024B1B685B69019308BD18020300D7
:10461C0008B5024B1B689B68019308BD6802030038
:10462C0008B5024B1B68DB68019308BD68020300E8
:10463C0008B5024B1B685B6B019308BD600203005D
:10464C0008B5024B1B681B6D019308BD600203008B
:10465C0008B5024B1B685B6D019308BD600203003B
:10466C0008B5024B1B68DB6E019308BD60020300AA
:10467C0008B5024B1B681B6F019308BD6002030059
:10468C0008B5034B1B68D3F88030019308BD0000BC
:10469C006002030008B5024B1B68DB6B019308BD7D
:1046AC004402030008B5024B1B685B68019308BD0C
:1046BC004002030008B5024B1B689B68019308BDC0
:1046CC004002030008B5024B1B68DB68019308BD70
:1046DC004002030008B5024B1B681B69019308BD1F
:1046EC004002030008B5024B1B685B69019308BDCF
:1046FC004002030008B5024B1B689B69019308BD7F
:10470C004002030008B5024B1B68DB69019308BD2E
:10471C004002030008B5024B1B681B6A019308BDDD
:10472C004002030008B5024B1B681B6B019308BDCC
:10473C004002030008B5024B1B685B6B019308BD7C
:10474C004002030008B5024B1B681B6C019308BDAB
:10475C004002030008B5024B1B685B6C019308BD5B
:10476C004002030008B5024B1B685B68019308BD4F
:10477C002002030008B5024B1B68DB6F019308BDD8
:10478C002002030008B5034B1B68D3F88830019353
:10479C0008BD00002002030008B5034B1B68D3F8CA
:1047AC009430019308BD00002002030008B5024BB1
:1047BC001B681B68019308BD1C02030008B5024B63
:1047CC001B685B68019308BD1C02030008B5024B13
:1047DC001B689B68019308BD1C02030008B5024BC3
:1047EC001B685B6A019308BD1C02030008B5024BF1
:1047FC001B68DB6A019308BD1C02030008B5024B61
:10480C001B68DB6B019308BD1C02030008B5024B4F
:10481C001B681B6C019308BD1C02030008B5024BFE
:10482C001B685B6C019308BD1C0203000A680B46F5
:10483C00926801461846104770B50E4C046000256E
:10484C001C24C0E901459DF814409DF81060C5601A
:10485C0004F0030444EA8604E4B2047442748574DC
:10486C004161427C0F2A0ABF034B0383C0E9063027
:10487C0070BD00BF88800B0039480B0000234068D6
:10488C001A46FFF70FBF406800220221FFF71ABF3C
:10489C00002240681146FFF70DBF00224068114608
:1048AC00FFF718BF002340681A461946FFF71ABFD6
:1048BC00002340681A461946FFF71CBF40680021C8
:1048CC00FFF740BF40680021FFF744BF406800225B
:1048DC0081F00101FFF716BF40680022FFF722BFED
:1048EC00002240681146FFF725BF002240681146A0
:1048FC00FFF710BF2DE9F04395B014460D4607465F
:10490C0000F09EFB00211C220DA8009103F014FA6C
:10491C0040230C9320466B460CAA0021FFF780FE27
:10492C00044600284BD1024601216868FFF7D2FEED
:10493C000221804622466868FFF7CCFE009E814625
:10494C002146002E3BD0002939D17368022B03D0AD
:10495C000A2B11D0F669F4E7B8F1000FFAD071699F
:10496C0006A8043107AD00F099FB0FCD3C1D0FC418
:10497C002B6823704146EDE7B9F1000FEAD074695A
:10498C00102201A803F0D8F906238DF8143001ADDC
:10499C0004F108031834186859682A4603C208330E
:1049AC00A3421546F7D101A906A807AD00F056FBA6
:1049BC000FCD3C1D0FC42B6823704946CAE70098E5
:1049CC00FFF726FE384615B0BDE8F083024B034ACC
:1049DC001A6000225A607047A0E60320B4800B00D6
:1049EC00002240681146FFF775BE00224068114650
:1049FC00FFF790BE002240681146FFF79BBE40684F
:104A0C000022FFF78FBE4068002281F00101FFF702
:104A1C0079BE002340681A461946FFF76BBE002387
:104A2C0040681A461946FFF75DBE002240681146E1
:104A3C00FFF740BE406800220221FFF743BE00236F
:104A4C0040681A46FFF72EBE024B04225A60024AF7
:104A5C001A607047A8E60320F0800B0038B5046894
:104A6C0005467CB16368013B63605BB923682046F3
:104A7C009B689847A368013BA3601BB92368204639
:104A8C00DB689847284638BD38B50D1E04460068CB
:104A9C0003DDFFF79BFE18B938BDFFF78FFE002032
:104AAC002060A5600120F7E738B50023C0E900338A
:104ABC0083600D4649689942044610DDFFF7E4FF18
:104ACC0068B1D5E9003122681944994205D00AB180
:104ADC001878107001330132F7E76B686360204679
:104AEC0038BD00F11003012213F8101C01291846DF
:104AFC0008D153F8041C02EB4102013A03F11003F4
:104B0C00F2D17047022904BF53F8041C5218F4E781
:104B1C000EB4F0B588B000AF07F13405102155F88C
:104B2C00042B7A6004462B467818FD60FFF756FE7E
:104B3C000F287A681AD900F1080323F007036E4690
:104B4C00ADEB030D411C2B466846FD60FFF746FE9E
:104B5C00021E04DD236869469B6820469847B546CB
:104B6C002037BD46BDE8F04003B070470028F7D0B1
:104B7C00236802469B6807F1100120469847EFE72F
:104B8C0010B54368013B0446436063B903689B68F6
:104B9C009847A368013BA3602BB923682046DB68C8
:104BAC00BDE81040184710BD38B50B6803604D6860
:104BBC0043689D42044608D015B16B6801336B60A5
:104BCC00606808B1FFF7DCFF656038BD07B50368A6
:104BDC008DF807109B6801220DF10701984703B06F
:104BEC005DF804FB0B461146002210B5C0E900220B
:104BFC00044683600BB9204610BDFFF7D5FFFAE7DA
:104C0C008368EBB11A78032A1AD8DFE802F004178C
:104C1C00021B0520704702685B685268D05C2D2827
:104C2C0012D0A0F13003092B0ED974280ED06628AF
:104C3C000CD0A0F16E0358425841704706207047C3
:104C4C0000207047042070470320704702207047F3
:104C5C0010B50446FFF7D4FF02280ED0C31EDBB2FA
:104C6C00012B14D82268A36850685B68BDE810401B
:104C7C000A220021184403F05FB92268A368526825
:104C8C005B68D05CA0F174035842584110BD002001
:104C9C00FCE7000038B50023C0E9003304460E4899
:104CAC00C4E90203A9B10B78032B06D08BB91368A6
:104CBC0058684B68C35C6E2B07D013684D685868F6
:104CCC008B6828445B1BA060E36011462046FFF70D
:104CDC006BFF204638BD00BFF2810B0038B50025B4
:104CEC000B46C0E90055C0E90255C0E9045504461D
:104CFC0011464BB11A78012A06D103F11002DB6878
:104D0C0082604361FFF750FF204638BD10B5436900
:104D1C00044663B18068E060013B1030A060206104
:104D2C00636113B1FFF7DDFEA060012000E01846BF
:104D3C0010BD10B57D210446FFF748FF01232371F8
:104D4C00204610BD08B50379012B02D0022B04D0EC
:104D5C0008BD2C21FFF73AFFFAE73A21FAE710B524
:104D6C000446FFF7EFFF20467B21FFF72FFF0023C0
:104D7C002371204610BD000013B504460191FFF7C6
:104D8C00E1FF2368019ADB68034920469847012319
:104D9C002046237102B010BD2C810B0013B50446C4
:104DAC000191FFF7CFFF2368019ADB680349204686
:104DBC00984701232046237102B010BD2F810B00B0
:104DCC002DE9F0470D46222190460446FFF7FEFEE2
:104DDC00DFF8A490A8442F464745BA463DD017F8B3
:104DEC00016B222E06D05C2E04D0304602F064FFFC
:104DFC000028F1D12368AAEB05029B6829462046BE
:104E0C0098475C212046FFF7E1FE0D2E0AD8072EAD
:104E1C001CD9A6F10803052B18D8DFE803F00D0FF9
:104E2C0011171315222E01D05C2E0FD131462046BE
:104E3C00FFF7CCFE3D46CFE76221F8E77421F6E799
:104E4C006E21F4E76621F2E77221F0E7236832461F
:104E5C00DB68494620469847ECE7BD4205D02368FD
:104E6C007A1B9B6829462046984722212046FFF74B
:104E7C00ADFEBDE8F08700BF32810B0013B50446D0
:104E8C00CDE90021FFF75EFF2046DDE90021FFF7A9
:104E9C0097FF02232046237102B010BD13B50446C0
:104EAC00CDE90021FFF74EFF2046DDE90021FFF799
:104EBC0087FF01232046237102B010BD4174704757
:104ECC007047704708B50021007CFFF7C3FA40EA31
:104EDC00E07008BD08B50121007CFFF7BBFA40EA81
:104EEC00E07008BD08B5007CFFF7ACFA20EAE07072
:104EFC0008BD08B5007CFFF79DFA20EAE07008BDFC
:104F0C0013B50446007C0191FFF79CFA0028019927
:104F1C0001DC607C20B1207CFFF7A4FA20EAE07071
:104F2C0002B010BD007CFFF7A5BA10B514210446E1
:104F3C00FFF7BFF8204610BD10B54FF47A73044646
:104F4C0008460021C4E90113044B2360012320749B
:104F5C0063741146FFF756FA204610BD40810B00D2
:104F6C00007C0022FFF756BA007CFFF75BBA10B545
:104F7C0014220446002102F0DFFE204610BD000082
:104F8C0010B50F4C88B003A8FFF7F1FF2178BFF3E1
:104F9C005B8F11F001010FD120460191FFF798F8BA
:104FAC00019948B103AA0748FFF7C6FF2046FFF74F
:104FBC0094F8054802F07AFE024808B010BD00BF14
:104FCC00B0E60320B4E60320CD4E0B00704710B5BD
:104FDC0018210446FFF76DF8204610BDF0B5037D8F
:104FEC00062B8DB00E4600F104074FF0000412D0D2
:104FFC0000F1080515F8011D0A22304601F00BF9E5
:10500C00AF42044419D0002CF4D02E21304601F0CC
:10501C00FFF80444EEE72F236A4639460A208DF840
:10502C000040FFF777FA6846FEF7FCFF336802464C
:10503C00DB68694630469847044620460DB0F0BD03
:10504C0010B5054B0446112240F8043B002102F038
:10505C0073FE204610BD00BF70810B000346074A4B
:10506C0010B543F8042B01F1100251F8044B43F82E
:10507C00044B9142F9D10A781A7010BD70810B0063
:10508C0010B59DF8084044EA032343EA024242EA81
:10509C00016104234160037510BD000007B5064B88
:1050AC000360CB7800938B784A780978FFF7E8FF98
:1050BC0003B05DF804FB00BF70810B0010B5836872
:1050CC00044613B1032201469847204610BD000048
:1050DC00014B1860704700BFBCE1032008B50B4BB7
:1050EC0043B1FFF74DFF03681B699847002801DDAA
:1050FC00AFF30080064B43B102F09AFC03681B69C6
:10510C009847002801DDAFF3008008BD00000000C7
:10511C000000000008B5FFF7E1FFFFF771FA014B43
:10512C00186008BD40E703200548064A064908B543
:10513C00121A02F0D9FD054B054A1A6008BD00BFD2
:10514C0000F4032004F403202C870B0000F403204C
:10515C001E1C279A07B5002300931A466FF077019F
:10516C00FFF71AFB03B05DF804FB000007B543889A
:10517C000A2B08D0502B0BD1094B1B684BB103B039
:10518C005DF804EB1847FFF7E5FF03B05DF804FB8F
:10519C00002300931A466FF07701FFF7FDFAF4E74E
:1051AC00CCE6032010B512480021FFF737FB114B5A
:1051BC001A68114B9A42114B0CBF012200221A7033
:1051CC0001D0FFF7B1FFFFF70BFA044602F0BCFD6C
:1051DC000B4B13B12046AFF3008000210848FFF7BA
:1051EC0059FABDE8104007480021FFF7CBBA00BFC1
:1051FC00DD500B0000F403201E1C279AC8E6032088
:10520C000000000079510B00014B00229A6070479E
:10521C00D0E60320024B1A68024B1A60704700BF9D
:10522C00B0E10320E0E6032080680368DB681847E0
:10523C007047084611B10B685B6818477047704798
:10524C0070477047704738B504460D4600682E21EC
:10525C0002F0B5FD2368C31A2B6023B1037803B1A8
:10526C00013023682060184638BD10B50C21044667
:10527C00FEF71FFF204610BD10B504210446FEF7B3
:10528C0018FF204610BD10B504210446FEF711FF8F
:10529C00204610BDFFF756B908B5FEF7B9FEB0FAB7
:1052AC0080F0400908BD704710B50C46FFF768FE4A
:1052BC00844210D002F0BCFB844205D102F0B8FB52
:1052CC00BDE8104002F05FBA2CB1236820465B6841
:1052DC00BDE81040184710BD0B6803604B68436075
:1052EC0013B15A6801325A60704713B50446084628
:1052FC000191FEF797FE01990246204602B0BDE8E7
:10530C001040FFF7CBBD13B5044608460191FEF7DC
:10531C0089FE23680199DB680246204602B0BDE88D
:10532C001040184707B503688DF80710DB68012299
:10533C000DF10701984703B05DF804FB0A680260A1
:10534C004A6842600022C0E9022210B502618C68F2
:10535C008460CC68C4600C698A60CA6004610A61AC
:10536C0010BD00002DE9F74FD0E900844FF0140A6E
:10537C0000930AFB04F4184BA41017465C434546F3
:10538C00002C21DD66100AFB06F005EB00093A46FD
:10539C00B9F804B0285801915F4528BF5A4602F06D
:1053AC0020FD002801994FF001030BD15F4503D17B
:1053BC00009A13703446E3E7FCD9A61B09F11405D7
:1053CC00013EF7E7F9DBF5E7A5EB08050248AD1060
:1053DC00684303B0BDE8F08FCDCCCCCC7FB503696E
:1053EC00057E019103B3F9B1002600F10C0403967C
:1053FC0003A901A8FFF727FF0146A8B10DF10B0384
:10540C00039A8DF80B602046FFF7ACFF9DF80B302C
:10541C0053B12368142404FB0034083434F9023CDF
:10542C00002BA8BFDDB2E3E7284604B070BD0EB474
:10543C00F0B58CB000AF07F14405044655F8042BC9
:10544C007A602B46202107F11000FD60FFF7C6F9AA
:10545C001F287A681AD900F1080323F007036E4657
:10546C00ADEB030D411C2B466846FD60FFF7B6F90A
:10547C00021E04DD23686946DB6820469847B54662
:10548C003037BD46BDE8F04003B070470028F7D078
:10549C0023680246DB6807F1100120469847EFE7C6
:1054AC0010B5094C2378BFF35B8FDB0709D420467A
:1054BC00FEF70EFE28B12046FEF70FFE034802F061
:1054CC00F5FB034810BD00BFE8E603204B520B0070
:1054DC00B4E1032010B5094C2378BFF35B8FDB07D5
:1054EC0009D42046FEF7F4FD28B12046FEF7F5FD61
:1054FC00034802F0DBFB034810BD00BFECE60320C1
:10550C00B3520B00B8E1032038B500250446C0E9BE
:10551C000055C0E904558560856140F8245FFFF7AC
:10552C0001F8FFF7BDFFE061FFF7D4FF25732062A0
:10553C00204638BD10B50A4C2378BFF35B8FDB07D0
:10554C000CD42046FEF7C4FD40B10648FFF7DCFF43
:10555C002046FEF7C2FD044802F0A8FB014810BD2E
:10556C00E4E60320F4E60320B95A0B00024A03498F
:10557C0003480023FFF77CB89D580B0029580B00FB
:10558C00A9570B0000231A4619461846FFF770B8A6
:10559C0037B58D6804466846FFF79EFE6A46294675
:1055AC002046FFF79BFB01A8FFF758FA204603B0F3
:1055BC0030BD37B5CD6804466846FFF78DFE6A46A8
:1055CC0029462046FFF766FB01A8FFF747FA20465D
:1055DC0003B030BD37B50D6904466846FFF77CFE55
:1055EC006A4629462046FFF7FDFA01A8FFF736FA6E
:1055FC00204603B030BD000070B58AB00D460146A0
:10560C0004A8FFF7C5FF144E04A8FFF77FFBE8B111
:10561C0004A96846FFF7CDFF02983146FFF73CFE20
:10562C00044610B12C1E18BF012401A8FFF716FA6E
:10563C00002CE9D004A96846FFF7CCFF6846FFF7B9
:10564C0007FB286001A8FFF709FADDE705A8FFF7BB
:10565C0005FA0AB070BD00BF98810B0037B50C4637
:10566C00204613491546FEF7D3FC50B9FFF788FCCA
:10567C004FF41651FFF774FC03B0BDE83040FFF750
:10568C007FBC0C492046FEF7C3FC78B94FF4165387
:10569C0001A928460193FFF7AFFF02F0C9F9019960
:1056AC0002F06EF802F0C4F903B030BD0020FBE745
:1056BC009D810B00A4810B0070B5D0E9005314261A
:1056CC00044606FB0356AE4205D005F10800FFF771
:1056DC00F3FF1435F7E72068FFF770F8204670BD2C
:1056EC0070B5D0E90053044605EB0316AE4204D066
:1056FC00284602F09BF81035F8E72068FFF75EF8B3
:10570C00204670BD10B504460C30FFF7D5FF20467F
:10571C00FFF7E6FF204610BD10B5044B044640F8D9
:10572C00043BFFF7EFFF204610BD00BF70800B005D
:10573C0010B50446FFF7F0FF20462421FEF7B9FC14
:10574C00204610BD10B5034B03600446FFF7E4FF81
:10575C00204610BD44820B0010B50446FFF7F2FF43
:10576C0020462421FEF7A5FC204610BD0022C0E9EE
:10577C00002210B582600C6804604C6844608C6830
:10578C000A604A6084608A6010BD10B503680446E4
:10579C001868FEF7DFFE204610BD00002DE9F04F23
:1057AC0087B0804603931C4B5B68C3F308038946A0
:1057BC0016466BB9FFF7BEFE044600F12403406A9F
:1057CC000593FFF767FD237B2BB105A8FFF7DDFFE2
:1057DC0007B0BDE8F08F01232373D4E900535FFABF
:1057EC0089F905EB830AAA4512D055F8047B31469A
:1057FC00381DFFF7F3FD8145F5D33B68039A009202
:10580C00D3F808B04A46334641463846D847EAE70B
:10581C0000232373D9E700BF00ED00E02DE9F74F1B
:10582C009B461A4B5B68C3F30803804689461646B1
:10583C006BB9FFF77FFE044600F12403406A019325
:10584C00FFF728FD237B2BB101A8FFF79EFF03B0C8
:10585C00BDE8F08F01232373D4E90053F6B205EBB6
:10586C00830A55450ED055F8047B5946381DFFF771
:10587C00B5FD8642F5D33B684A46DB68414638465F
:10588C009847EEE700232373DEE700BF00ED00E04E
:10589C002DE9F341164B5B68C3F3080305460F462D
:1058AC001BBBFFF747FE00F124030446406A01933B
:1058BC00FFF7F0FCD4E90063462406EB8308B045FF
:1058CC0009D101A8FFF761FFA542B4BF0020012058
:1058DC0002B0BDE8F08156F8040B39460430FFF7EE
:1058EC007DFD8442A8BF0446E9E70020F0E700BF35
:1058FC0000ED00E0F8B5D0E901539D4204460E4698
:10590C000DDB6F1C002F006804DDB900FEF75EFF95
:10591C0018B9F8BDFEF752FF00202060A760276879
:10592C00626807EB85019200A2EB8502081D02F06C
:10593C00E9F947F825606368013363600120E8E703
:10594C0037B500F124030446406A01930D46FFF776
:10595C00A1FCD4E9003203EB8202934219460BD02E
:10596C000968A94203F10403F7D101A8FFF70DFF61
:10597C000025284603B030BD29462046FFF7BAFF64
:10598C0005460028F1D06368012B01D1FFF7EEFD2D
:10599C0001A8FFF7FAFEECE770B50446D0E9000267
:1059AC000B4600EB820282420FD001461D6851F873
:1059BC00046BAE4207D1521A02F0A4F96368013BA2
:1059CC006360012070BD0846EDE70020FAE71FB5C3
:1059DC0000F124030446406A01910393FFF75AFC3B
:1059EC0001A92046FFF7D8FF18B163680BB9FFF780
:1059FC00C9FD03A8FFF7C9FE04B010BD70B5D0E90E
:105A0C0004561823044603FB0656AE4215D005F186
:105A1C0010012046FFF7C0FF63680BB9FFF7B2FD1A
:105A2C00E06929690368DB689847696919B1206ADC
:105A3C000368DB6898471835E7E7D4E90453182660
:105A4C0006FB0356AE4204D0284601F0EFFE183593
:105A5C00F8E70023636170BD73B50446FFF792FD50
:105A6C0004F12403606A0193FFF714FC2046FFF74E
:105A7C00C5FF01A8FFF789FE606A08B1FEF75AFD61
:105A8C00D4E90453182606FB0356AE4204D028462C
:105A9C0001F0CCFE1835F8E72069FEF78FFE206880
:105AAC00FEF78CFE204602B070BD00000148FFF7E7
:105ABC00D3BF00BFF4E603208842F8B504460D4678
:105ACC00164615D9904214D2A2F11406751AA1F1FA
:105ADC0014072C44B7421AD01CB131462046FFF7AC
:105AEC002DFC06F10800FFF7E7FD143E143CF1E72E
:105AFC000DD0B5420BD01CB129462046FFF71EFC39
:105B0C0005F10800FFF7D8FD14351434F1E7F8BDA2
:105B1C008842F8B504460D46164614D9904213D265
:105B2C00A2F11006751AA1F110072C44B74218D037
:105B3C001CB13146204601F0F5FE304601F076FEF0
:105B4C00103E103CF2E70CD0B5420AD01CB12946ED
:105B5C00204601F0E7FE284601F068FE10351034AF
:105B6C00F2E7F8BD70B50E1E054611DD3001FEF7EB
:105B7C001DFE044658B1D5E9001201EB0212FFF7E5
:105B8C00C7FF2868FEF71AFE2C60AE60012070BDBE
:105B9C000024F6E72DE9F04F904695B000230391D1
:105BAC00D8F804100A9346229942C0E90033C0E9A0
:105BBC000233C0E90433CDE908330446027623DC12
:105BCC00D8E90057142303FB0757AF423BD02946B3
:105BDC000BA801F0A7FE0BA90FA8099E01F0A2FECD
:105BEC00DDE9091399421BDA089B099A03EB0616A7
:105BFC0003EB0212314606F11000FFF789FFEEB9F4
:105C0C00099B0133099311E008A8FFF7ABFF0028AB
:105C1C00D6D108A8FFF764FD204615B0BDE8F08F7B
:105C2C00013108A8FFF79EFF0028DDD10FA801F075
:105C3C00FDFD0BA801F0FAFD1435C6E70FA930469F
:105C4C0001F070FEDCE70026CDE90B660D964FF0F7
:105C5C001409DDE908239E427CDA3301D3580693FC
:105C6C000BB90136F5E70023079309FB06F3029302
:105C7C000BAD07A906A8FFF7E6FA82460028F0D07C
:105C8C004FF000038DF817300146079A0DF11703FA
:105C9C002846FFF767FB9DF817700190002F4AD13B
:105CAC00BDF81C30ADF84030CDE911774FF6FF73DD
:105CBC00CDF83CA0ADF842301397D5E901329342B0
:105CCC0017DB03F1010ABAF1000F30DD09FB0AF012
:105CDC00FEF76CFD834660B3D5E9001209FB021296
:105CEC00FFF7EAFE2868FEF769FDC5F800B0C5F8B5
:105CFC0008A02B68019A09FB023A6A68514609FB15
:105D0C0002320AF11400FFF7D7FEBAF1000F03D0EC
:105D1C000FA95046FFF712FB6B6801336B6011A89B
:105D2C00FFF7CAFC3FB10BA8FFF7C6FC71E7BB46F7
:105D3C00D8E70127F3E7019B2D6809FB0355069B68
:105D4C001B782BB9D8F80030029A13441B7CEB80DB
:105D5C0008358EE72168226062686360A368099247
:105D6C000A9A0A93E368A2600B9A0B932369E26088
:105D7C000C9A0C93636922610D9A0D93039B089105
:105D8C0062612376CFE70000F0B5044687B00D467C
:105D9C002646194668461746FEF797FA0B4B46F807
:105DAC00043B694603A8FEF790FA03AA394630462D
:105DBC00FFF7F0FE03A8FEF747FA6846FEF744FA31
:105DCC00034B23602046256207B0F0BD70800B00AA
:105DDC002C820B00F0B50F4685B01D490A9C384645
:105DEC0016461D46FEF714F9C0B9A4B1294601A800
:105DFC00FFF7BCFC1749242001F03EFE054630B1EC
:105E0C0001AB32462146FFF7BFFF134B2B6001A8B5
:105E1C00FEF71AFA2C46204605B0F0BD0F4938465D
:105E2C00FEF7F6F890B9002CF5D0294601A8FFF73B
:105E3C009DFC0849242001F01FFE05460028E6D0F1
:105E4C0001AB32462146FFF79FFFE0E70024E2E773
:105E5C00AC810B00E4830B0044820B00B0810B007F
:105E6C00014B024A1A607047F0E60320C1810B0017
:105E7C002DE9F047089DD0F8209004460E461746B1
:105E8C009846FFF77DF881454CD02B79190704D53E
:105E9C006A6954492046FFF7CAFAB8F1000F0DD0D1
:105EAC005B212046FFF73EFA41462046FFF72BFACE
:105EBC0023684D49DB680222204698472B79DA0784
:105ECC0023D5D5F808802F21404601F09EFF08B15C
:105EDC0000F1010841462046FFF715FA2B799B0784
:105EEC0008D53A212046FFF71DFAEA683F492046BB
:105EFC00FFF79DFA2A79236812F0040FDB6814BFB0
:105F0C003B493C490222204698472B7958071DD51E
:105F1C0029690B461A4613F8010B60B1202808D1E9
:105F2C001946F7E73448FEF7E0FC0028ADD0BDE891
:105F3C00F0872828EED12368521ADB682046984750
:105F4C0023682E49DB6804222046984700213846F6
:105F5C00FEF786FB01462046FFF7D5F92368254955
:105F6C00DB680222204698471EB131462046FFF7D7
:105F7C00CAF92B7913F0300F2CD023682049DB6839
:105F8C000222204698472B79D9060AD523681D4949
:105F9C00DB68072220469847AA691B492046FFF771
:105FAC0046FA2B799A0611D5DB0605D523681049DC
:105FBC00DB6802222046984723681449DB68204698
:105FCC000A229847E9692046FFF79DF95D21204692
:105FDC00FFF7A8F923680E49DB6820460222BDE8CA
:105FEC00F0471847C5810B00CC810B002C810B00AE
:105FFC00CF810B00D4810B00A0E60320D2810B00D3
:10600C00D7810B00DA810B00E2810B00E5810B00DC
:10601C00F0810B002DE9F0410446076A0D46164647
:10602C00FEF7AEFF874207D0206A03683246294646
:10603C00DB68BDE8F04118470348FEF756FC002822
:10604C00F2D0BDE8F08100BFA0E603202DE9F043BB
:10605C0085B0D0F820900C9C05460F4690461E4605
:10606C00FEF78EFF814505D14948FEF73EFC00281E
:10607C0040F08A802B6A474A01924FF0000901A830
:10608C0003938DF80890FEF76AFE49464046FEF7EA
:10609C00E7FA41498046012201A8FEF7EFFE41468E
:1060AC00FFF723F93FB13D49012201A8FEF7E6FEB7
:1060BC003946FFF71AF93EB13949012201A8FEF71A
:1060CC00DDFE3146FFF711F92379DF070ED5A668FF
:1060DC002F21304601F099FE00B1461C31490122B6
:1060EC0001A8FEF7CBFE3146FFF7FFF823799E0798
:1060FC0007D52D49022201A8FEF7C0FEE168FEF784
:10610C003BFE2379580714D5266933461F4613F8EE
:10611C00012B2AB1202A01D11E46F7E7282AF5D1F6
:10612C002249022201A8FEF7A9FEBA1B3146FEF74E
:10613C00B5FE2379190707D51D49012201A8FEF7E1
:10614C009DFE6169FEF72AFE2379DA0608D5042242
:10615C0018490DEB0200FEF791FEA169FEF70CFE4B
:10616C0023799B0607D51449062201A8FEF786FE63
:10617C00E169FFF7BAF801A8FEF7DBFD286A0F49C1
:10618C0003680222DB68984705B0BDE8F08300BFC6
:10619C00A0E6032014820B00A2810B00F3810B00FC
:1061AC006B850B00F5810B00F7810B00FA810B005E
:1061BC00FD810B00FF810B0004820B00F0810B00B2
:1061CC00F8B506460D468F180024BD420CD0336836
:1061DC0015F8011B9B6830469847031E01DB1C44D5
:1061EC00F3E7002C08BF1C462046F8BD13B5044647
:1061FC00084659B10191FDF715FF23680199DB6839
:10620C000246204602B0BDE81040184702B010BD4F
:10621C0003689B68184730B58BB00023012A8DF8B2
:10622C00243098BF0A2209AC0D46B1FBF2F101FBF8
:10623C00125303F0FF03092B94BF30333733DBB217
:10624C00AA4204F8013DEFD92146FFF7CFFF0BB06E
:10625C0030BD7047064B994210B500F10C0405D0C7
:10626C00084601F011FC002808BF0024204610BD90
:10627C0024810B0010B530210446FDF71AFF20468F
:10628C0010BD3021FDF715BFF0B50025EC1C8C427C
:10629C000DD86E1C445D875D974205D12644B142F2
:1062AC0005D31D60601CF0BD01342544EEE70020D1
:1062BC00F9E710B5836804462BB1032201469847D1
:1062CC000023C4E9023310BD10B5836804462BB11A
:1062DC000322014698470023C4E9023310BD000095
:1062EC0010B500230370044B04461868FEF72AF916
:1062FC0001232370204610BD20E7032010B503783E
:10630C0004461BB1024B1868FEF724F9204610BD59
:10631C0020E7032082B00346086849686A4603C236
:10632C006A4603CA18601846596002B0704708B52F
:10633C0082798B799A4206D1062201F0C5FCB0FA1B
:10634C0080F0400908BD0020FCE74FF0FF330360EC
:10635C0083800020704708B502460021016041602F
:10636C00FFF7F3FF9171104608BD000010B5012333
:10637C000361054B024603F1100153F8044B42F83C
:10638C00044B8B42F9D110BD2A800B0010B50B4683
:10639C000446B1B1012A01F110020AD1014653F8A9
:1063AC00040B41F8040B9342F9D1012323612046DD
:1063BC0010BD411E12F8010D01F8010F9A42F9D1DE
:1063CC00F3E7102201F0B8FCF1E738B504460D46AE
:1063DC00FFF7CCFF00232361A581204638BD08B50B
:1063EC0002690B699A4206D1102201F06DFCB0FAD9
:1063FC0080F0400908BD0020FCE7F7B505461646BD
:10640C001F460A4601ABD0E90001FFF73DFF30F013
:10641C0002040CD0841EBC4228BF3C463EB10199FC
:10642C002B68023122461944304601F05DFC2046AF
:10643C0003B0F0BD37B513460C4601920A4608214D
:10644C000546FFF7DAFF40B9019B22460921284691
:10645C0003B0BDE83040FFF7D0BF03B030BD000043
:10646C00F0B50C4689B00C49054601F02AFA1F22FA
:10647C0069462046FFF7DEFF064650B16C46002702
:10648C0014F8011B284601F089FA10B10137BE42FD
:10649C00F6D1284609B0F0BDF2810B0007B50223F6
:1064AC0001AA1921FFF7A9FF08B1BDF8040003B038
:1064BC005DF804FB10B5D0E9063203EBC20293423F
:1064CC00184606D0046824888C4203F10803F6D1E0
:1064DC0010BD0020FCE7000070B5002505600646E5
:1064EC003020FDF7E2FD044688B10123C0E90133F9
:1064FC00094B03604FF6FF7383810E30FFF72BFFC0
:10650C00C4E90655C4E90855C4E90A55A575746073
:10651C000C343460304670BD64830B0037B50D46C7
:10652C00044601A8FFF7DCFE2A68D2F8023023608B
:10653C00D2F80630636001A8FFF7E0FE204603B0F6
:10654C0030BD30B5054687B00C4601A8FFF7C8FE34
:10655C002A68236812881B889A420DD1294602A802
:10656C00FFF7DCFF214604A8FFF7D8FF04A902A817
:10657C00FFF7DDFE044600B9002401A8FFF7BEFEBC
:10658C00204607B030BD000010B504466420FDF76E
:10659C008CFD68B10023C0E90033C0E90233C0E9C7
:1065AC000433C0E906330362C362C363C364C365C7
:1065BC00206020B90A4A0B490A20FEF739F800205E
:1065CC00FDF7D0FF20B1064A07490A20FEF730F844
:1065DC00216806480022FDF7F9FF204610BD00BFD8
:1065EC00FD450B0084820B00C2820B00D16E0B00A8
:1065FC0010B50A4C2378BFF35B8FDB070CD4204615
:10660C00FDF766FD40B10648FFF7BEFF2046FDF7DB
:10661C0064FD044801F04AFB014810BD1CE703204F
:10662C0024E7032031680B0008B50020FDF79AFF22
:10663C0000EAE07008BD000070B5044618300E4644
:10664C001546FFF736FE04F12800FFF73DFEC4E9BE
:10665C000365002221460348FDF79CFF0028A8BFD4
:10666C00606970BDB7740B0010B504464069FEF745
:10667C00A5F8A068FEF7A2F8204610BD002247F648
:10668C007F71C0E90022C0E90222C0E90422C0E9FE
:10669C000E22C0E91022C0E91222C0E91422C0E97E
:1066AC001622C0E91822C0E91B2202620263A0F87C
:1066BC006810704730B585B0002410230D46ADF836
:1066CC000230214603236846ADF80030CDE9014481
:1066DC000394FDF757FF21466846ADF80850FDF7C7
:1066EC0049FF05B030BD10B504460068FEF766F8EA
:1066FC00204610BD70B50446C06DFEF75FF8206DE6
:10670C00FEF75CF804F1380504F14400FFF7EBFFE9
:10671C002846FEF7E5FF04F12800FEF7CFFC04F154
:10672C001800FEF7CBFCD4E90053242606FB0356D5
:10673C00AE4204D02846FFF797FF2435F8E72068CF
:10674C00FEF73CF8204670BD30B515469FB00C46A0
:10675C0079B172B101A8FFF791FF21462A4601A831
:10676C00FFF76AFF044601A8FFF7C4FF20461FB0DD
:10677C0030BD014CFAE700BFF2FEFFFF38B5141E26
:10678C004368054602DB62189A4200DD5C1A2A68EF
:10679C00501801191A44521A01F0B4FA6A68121B03
:1067AC006A6038BD0B68036013B15A6801325A60D5
:1067BC00704710B551F8043B044640F8043BFFF712
:1067CC00F1FF204610BD70B5D0E90053044605EB2F
:1067DC00C306AE4204D0281DFEF740F90835F8E791
:1067EC002068FDF7EBFF204670BD70B5D0E9005373
:1067FC00044605EBC306AE4204D0281DFEF72EF965
:10680C000835F8E72068FDF7D9FF204670BD10B5B4
:10681C0004462430FFF7E9FF04F11800FFF7D3FF1B
:10682C0010BD000070B5174B1C6854B304F1540034
:10683C00FEF744FC04F14400FEF740FC04F1340084
:10684C00FEF73CFC04F12400FEF738FCD4E90653B7
:10685C0005EBC306AE4204D0281DFEF7FFF8083541
:10686C00F8E7A069FDF7AAFF04F10C00FFF7BDFFE4
:10687C002046FFF7A8FF20466421BDE87040FDF7D5
:10688C0018BC70BD24E70320826810B50AB901F06A
:10689C00F7F8BDE81040C36818472DE9F04700230E
:1068AC00C0E900338360D1F80480984505460F4653
:1068BC004ADD4FEA0810FDF779FF0646002843D061
:1068CC00D5E90041A04204EB011A16D9504515D266
:1068DC00AAF1100AA4F11009AAEB04040444D1454E
:1068EC001DD01CB15146204601F01CF8504600F05A
:1068FC009DFFAAF1100A103CF1E710D0B146A24559
:10690C000DD0B9F1000F03D02146484601F00AF82A
:10691C00204600F08BFF103409F11009EFE72868CE
:10692C00FDF74CFFC5F808802E60D7E9004304EB57
:10693C000318A04506D02146304601F00DF810345E
:10694C001036F6E77B686B602846BDE8F08730B5FB
:10695C008DB00C4600F1380101A8FFF79EFF029B99
:10696C00002B2FDD04F1140104A8FFF779FD04F1CD
:10697C00080108A8FFF774FD0A9A069B13431FD061
:10698C00DDE9014504EB0515AC4219D004A92046FC
:10699C0001F026F860B1012408A800F047FF04A814
:1069AC0000F044FF01A8FEF79BFE20460DB030BD61
:1069BC00204608A901F014F810340028E4D0EAE7C6
:1069CC000024E9E70124EDE7F8B50023C0E9003322
:1069DC0083604F689F4205460E463EDDF800FDF78A
:1069EC00E5FE0446C8B3D5E90003844200EBC303BB
:1069FC0010D99C420FD2083B1A1AA0F1080C224461
:106A0C009C4518D01AB11968116059685160083B3F
:106A1C00083AF5E70FD0014622468B420BD03AB12B
:106A2C00D1F800C0C2F800C0D1F804C0C2F804C04C
:106A3C0008310832F1E7FDF7C1FE2C60AF60D6E9F2
:106A4C00003103EBC100984206D01A6822605A68E4
:106A5C00626008330834F6E769602846F8BD70B503
:106A6C0004460020C4E90000A0604E6886420D4632
:106A7C0012DD7100FDF7AAFE70B12060A660D5E9A9
:106A8C00003203EB42029A4204D033F8021B20F886
:106A9C00021BF8E76B686360204670BD10B5037984
:106AAC00044623B90368186808B1FDF787FE204631
:106ABC0010BD10B50379044623B90368186808B1F2
:106ACC00FDF77CFE204610BD2DE9F043D0F86C801C
:106ADC008FB00F46B8F1000F72D0056F002D6FD03C
:106AEC0001F114091F230022FF214846FFF785FC02
:106AFC000837FF230446002219463846FFF77DFC71
:106B0C00AC42064606D0AE4230D0002420460FB030
:106B1C00BDE8F0832046FDF749FE03AB0493002348
:106B2C00044603908DF8143070B92023CDE906305B
:106B3C00244B00932449034606AA3220FDF780FD1E
:106B4C0004A8FFF7ABFFE1E70246FF212B464846BE
:106B5C00FFF753FC03982A46414601F0B5F818B1EB
:106B6C0004A8FFF79BFFCEE70124E9E72846FDF7D1
:106B7C001DFE002403AB0646039004938DF81440CD
:106B8C0078B92023CDE906300E4B00930E4903460D
:106B9C0006AA3220FDF754FD344604A8FFF789FFFE
:106BAC00B4E70246FF212B463846FFF726FC039834
:106BBC002A46414601F088F80028EED10124ECE782
:106BCC000124A3E704830B009B820B0008B58368A8
:106BDC008B4202DAFDF758FF08BD0120FCE738B5FF
:106BEC000B6803604B68436004460D46083008315F
:106BFC00FDF75AFF05F1140104F11400FDF754FFE1
:106C0C0095F8203084F82030204638BD1FB5044656
:106C1C0001A8FDF749FF019B029A20682360636875
:106C2C006260039A0293A368A26001900393FDF73C
:106C3C00C5FD04B010BD2DE9F0410F4641681D465D
:106C4C001944836899420446904612DC26686268AF
:106C5C003E44D21B3146701901F054F82A46414685
:106C6C00304601F041F863682B4463600120BDE8B5
:106C7C00F081FDF709FF0028E8D1F8E713460A4632
:106C8C00002110B50446416002B10BB9002010BDC3
:106C9C00FF2B28BFFF23FFF7CEFF0028F7D060683B
:106CAC00F5E7F8B50D46D0E90113994204461646AE
:106CBC000BDA276862687919521B481C01F022F81C
:106CCC007E55636801336360F8BD0131FDF7DCFE6E
:106CDC000028EED1F8E70A464168FFF7E2BF2DE93C
:106CEC00F74304461D460F4601AB90460A46D0E9D1
:106CFC0000019DF82890FFF7C7FAAE1C63680246A6
:106D0C00B9F1000F26D128B333441B1AFF2B09D835
:106D1C0001992046FFF732FD616820463144FFF7A8
:106D2C0055FF18B9606803B0BDE8F0836A1C01997F
:106D3C00D2B22046FFF7B5FF01993A460131204601
:106D4C00FFF7AFFF01992B46424602312046FFF771
:106D5C0072FFE7E7F118FF29E4D82046FFF736FF6A
:106D6C000028DFD0691CC9B22046FFF7B4FF3946B2
:106D7C002046FFF7B0FF61682B464246E6E730B489
:106D8C009DF808501AB1029530BCFFF7A8BF4068B7
:106D9C0030BC70471FB50023C0E900338360062266
:106DAC00009301238DF80F2019460DF10F020446B4
:106DBC00FFF7E5FF204604B010BD8842F8B5044645
:106DCC000D46164614D9904213D2A2F10806751A34
:106DDC00A1F108072C44B74218D01CB1314620460B
:106DEC00FFF7E7FC301DFDF739FE083E083CF2E7E3
:106DFC000CD0B5420AD01CB129462046FFF7D9FC6D
:106E0C00281DFDF72BFE08350834F2E7F8BDF7B561
:106E1C00044646686846FFF7CCFCD4E901739F42F0
:106E2C0012DB0137002F29DDF800FDF7BFFC05460A
:106E3C00F0B1D4E9001201EBC202FFF7BEFF2068EB
:106E4C00FDF7BCFC2560A7602368626803EBC606EF
:106E5C0003EBC202314606F10800FFF7AEFF1EB18C
:106E6C0069463046FFF7A5FC636801336360012572
:106E7C0001A8FDF7F3FD284603B0F0BD0025DEE7C1
:106E8C00F8B5D0E9004305460F4604EBC306A6420D
:106E9C0005D039462046FFF754FB08B114B9F8BDAC
:106EAC000834F4E7201DFDF7D9FDD5E9003204F1D3
:106EBC00080103EBC2022046FFF77FFF6B68013B22
:106ECC006B60ECE72DE9F04105468EB003A80C464B
:106EDC00FFF706FA2E68F31E0D2B3CD8DFE813F0F3
:106EEC000E0057003B00D3003B003B003B003B0037
:106EFC003B009D009D009D009D009D0004A8FFF798
:106F0C00EBFA049BAA891A8069680498083102304C
:106F1C00FFF700FA04A906A8FFF74BFC06A904F139
:106F2C001800FFF774FF054607A8FDF797FDC5B9D4
:106F3C002023CDE906355E4B5E49009306AA2B460D
:106F4C000120FDF77DFB049B29461888FDF734FBD7
:106F5C0005A8FDF783FD03A8FFF7D0F90EB0BDE837
:106F6C00F081E36A23B104A904F12400FFF78CFC3F
:106F7C0005A8FDF773FD20210023CDE906134E4A29
:106F8C0000924C4906AA0120FDF75AFBE3E7A989B8
:106F9C002046FFF78FFA06460028DCD00568D5E9B5
:106FAC0006324FF6FF71298003EBC2029A4203D0DE
:106FBC0053F8080B4180F9E7D5E9037307EBC308D5
:106FCC00B84504D0381DFDF749FD0837F8E7002314
:106FDC002B61D5E9067307EBC308B84504D0381DFF
:106FEC00FDF73CFD0837F8E70023EB61AB72E36B70
:106FFC0023B1314604F13400FFF746FC33684FF6F9
:10700C00FF721A80314604F11800FFF739FF202275
:10701C000023CDE90623294AB2E7A9892046FFF7C8
:10702C0049FA002897D0E36C002B94D000230D2E46
:10703C00ADF8163001D0102E17D1002369681A460E
:10704C0006258DF8153004918DF814200690DDE995
:10705C00040109AB8DF81C60089583E80300236DCF
:10706C0006A904F14400984775E70F2E01BF2B7A4F
:10707C00696803F0010208250FBFC3F340031A46E9
:10708C0019461D46DDE7A9892046FFF713FA01468C
:10709C0000283FF460AFE36D002B3FF45CAF6B68EE
:1070AC00069306AA236E04F15400984753E700BFD9
:1070BC001F830B009B820B0045830B004F830B003F
:1070CC0038B50D1E0446006805DD14216943FDF733
:1070DC007DFB18B938BDFDF771FB00202060A56061
:1070EC000120F7E72DE9F8430024C0E9004484604F
:1070FC0088464968A14207461ADDFFF7E1FFB8B19F
:10710C00D8E900934FF0140CD7F800E00CFB039C6B
:10711C0009EB0405AC4508D01EEB04061FBF0FCDD0
:10712C000FC62B6833601434F2E7D8F804307B6058
:10713C003846BDE8F8832DE9F843D1E90087456866
:10714C008368E9199942044617DC1423266862689F
:10715C005D4303FB07F95A432E44521B314606EBA1
:10716C00090000F0CFFD4A464146304600F0BCFD18
:10717C0063683B446360BDE8F883FFF7A1FF002818
:10718C00E3D1F8E782B070B50C4604A981E80C0095
:10719C00D0E901139942054617DA142303FB04F1D5
:1071AC006A682C685A430C44521AE018214604AE03
:1071BC0000F0A8FD0FCE0FC4336823606B68013359
:1071CC006B60BDE8704002B070470131FFF778FF8B
:1071DC000028E2D1F5E72DE9F04F002493B0931E7F
:1071EC00C0E90044DBB205460F4690468460059327
:1071FC0079688C4272DA386807AB4246091B204426
:10720C00FFF742F80646002868D0059B012B2FD8C3
:10721C00A0F1020B4FEA5B0B4FF000090DF13C0A99
:10722C00079BCB45234455D03A6803EB49031344E1
:10723C0008A8D9789B7843EA0121FFF7C6F80DF12D
:10724C00200EBEE80F000DF1340CACE80F00DEF898
:10725C000030CCF800309AE807008DE807000DAB41
:10726C000CCB69682846FFF78DFF09F10109D7E7B8
:10727C00A8F10603012B2DD8A0F1020B4FEA1B1B22
:10728C004FF000090DF13C0ACB45079B22D002338D
:10729C003968234403EB09130122194408A8FFF7AA
:1072AC0075F80DF1200EBEE80F000DF1340CACE8B2
:1072BC000F00DEF80030CCF800309AE807008DE8BB
:1072CC000700DDE90D2369682846FFF75BFF09F12C
:1072DC000109D9E7079B1C44344489E7284613B0BD
:1072EC00BDE8F08F30B5002385B0C0E90033836072
:1072FC000446022201A80D46FFF76DFF01A92046A6
:10730C00FFF719FF01A8FFF7EEF90222294601A8A1
:10731C00FFF761FF01A92046FFF70DFF01A8FFF75A
:10732C00E2F90322294601A8FFF755FF01A92046DF
:10733C00FFF701FF01A8FFF7D6F90622294601A89D
:10734C00FFF749FF01A92046FFF7F5FE01A8FFF75B
:10735C00CAF90722294601A8FFF73DFF01A92046DB
:10736C00FFF7E9FE01A8FFF7BEF9204605B030BDD6
:10737C002DE9F04F8BB00C4600F1440101A8FFF74A
:10738C00B1FE029B002B4ADD04F1140104A8FFF7A7
:10739C00A9FF04F1080107A8FFF7A4FF059D089EAB
:1073AC00002D01DC002E38DD019A029FDDF81080E3
:1073BC00DDF81C90142303FB072703FB058503FB57
:1073CC0006969246BA4528D0C346AB4515D05946C9
:1073DC005046FFF704F80BF1140B04460028F4D0C8
:1073EC0007A8FFF780F904A8FFF77DF901A8FFF7BC
:1073FC007AF920460BB0BDE8F08FCB46B34509D0E7
:10740C0059465046FEF7EBFF0BF1140B04460028CF
:10741C00F4D0E5E70AF1140AD4E70024E0E70124EC
:10742C00E4E78842F8B504460D46164614D9904256
:10743C0013D2A2F12406751AA1F124072C44B742E9
:10744C0018D01CB131462046FFF7C9FB3046FFF778
:10745C000BF9243E243CF2E70CD0B5420AD01CB107
:10746C0029462046FFF7BBFB2846FFF7FDF82435DD
:10747C002434F2E7F8BDF8B50E1E054613DD2427BB
:10748C0007FB06F0FDF792F9044658B1D5E9001256
:10749C0007FB0212FFF7C5FF2868FDF78FF92C6078
:1074AC00AE600120F8BD0024F6E72DE9F0439DB055
:1074BC0001AD064628460C46FEF74DFF03A8FFF724
:1074CC0069FC06A8FFF766FC30697169F28913AB99
:1074DC0003C385E803003378B1688DF8243006A81F
:1074EC00FFF7CCFBB289716803A8FFF7C7FB94F9CF
:1074FC0068307F2B13AF03D09DF924209A425CDBBC
:10750C0094F969307F2B03D09DF924209A4254DCE6
:10751C0004F150013846FFF757FA149B002B52DD4B
:10752C00139E06EBC309B14550D030462946FEF7F1
:10753C00FEFE083680460028F5D01398FDF73EF97C
:10754C00B8F1000F39D029462046FFF700FAA0B356
:10755C0029462046FFF70CFF064670B304F15C0188
:10756C003846FFF77CFA149B002B12DD06A8FEF7B9
:10757C0095FF804603A8FEF791FFDDE9133203EB7C
:10758C0042029A4225D033F8021B884501D088422A
:10759C00F7D11398FDF712F97EB129462046FFF773
:1075AC0093FA50B1236AB3B16369139501336361E4
:1075BC00636A394604F1180098472846FFF754F8D7
:1075CC001DB0BDE8F0834FF00108B6E74FF000089E
:1075DC00B3E70026DDE7D4F83080B8F1000F07D010
:1075EC006369013363612946636B04F12800E3E7A7
:1075FC00D4F80CC0BCF1000F25D0636922690133AB
:10760C0093426361D9D8242253432A4603CA243BAC
:10761C000CEB03064CF80300716006F1080003A99B
:10762C00FFF7F4FA06A906F11400FFF7EFFA9DF93B
:10763C00243086F82030D4E904329A42BDD3404637
:10764C00FCF7B0FFB9E795E803000DF1280888E8CE
:10765C00030003A90CA8FDF727FA06A90FA8FDF74C
:10766C0023FA9DF824308DF8483041463846666838
:10767C00FFF7B5FAD4E90113994210DA236861686F
:10768C00242202FB063606F1240002FB01323146AD
:10769C00FFF7C7FE86B963680133636005E001310B
:1076AC002046FFF7E8FE0028E8D13846FEF7DCFF5D
:1076BC004046FEF7D9FF80E739463046FFF78FFA90
:1076CC00E9E70000024800230360FCF72BBF00BF72
:1076DC0020E7032070474174704708B5007CFCF725
:1076EC0001FF20EAE07008BD08B5007CFCF7DAFE6B
:1076FC0020EAE07008BD08B5007CFCF7E3FE40EA28
:10770C00E07008BD08B5007CFCF7D4FE40EAE070E0
:10771C0008BD007CFCF7DEBE37B5457C04462DB1B8
:10772C00207C03B0BDE83040FCF7B4BE007C019176
:10773C00FCF7D8FE00280199F2DC284603B030BDD6
:10774C0010B514210446FCF7B4FC204610BD000013
:10775C0010B54FF47A730446084611460022C4E96A
:10776C000123044B2360012320746374FCF7CAFECD
:10777C00204610BD80830B00007C0023FCF7BABEB2
:10778C000022FFF7F9BF007CFCF77CBE054B022200
:10779C001A60054B054A9A600020C3E90000FCF70B
:1077AC00E1BF00BF34E7032028E703200000FFFF00
:1077BC00002240681146FCF7ADBF0022406811461C
:1077CC00FCF7B8BF40680022FCF7ACBF4068002251
:1077DC0081F00101FCF796BF002340681A46194658
:1077EC00FCF788BF002340681A461946FCF77ABF9D
:1077FC00002240681146FCF76DBF0022406811461C
:10780C00FCF758BF406800220221FCF75BBF002345
:10781C0040681A46FCF746BF024B03225A60024AE4
:10782C001A60704738E70320B0830B0010B504468C
:10783C000068FCF7C3FF204610BD10B50446006875
:10784C0008B1FCF7BBFF0023C4E90133236010BD72
:10785C0038B504460D4600680131FCF7B7FF10B18E
:10786C00C4E90005012038BD10B50368044623B1F6
:10787C0043688B4201D3012010BD2046FFF7E8FF7F
:10788C000028F9D0A368002BF5D122681370F2E719
:10789C0037B50D46114601920446FFF7E5FF019AF4
:1078AC0028B92046FFF7C9FF204603B030BDA260BF
:1078BC002946206800F018FA2268A3680021D154E8
:1078CC00F2E7002313B5C0E9003304468360037369
:1078DC0041B108460191FCF7A5FB019902462046EF
:1078EC00FFF7D6FF204602B010BD38B5054600683C
:1078FC000C4668B16A688B689A4207D3096800F035
:10790C0068FAA368AB600023A36038BDFCF756FF90
:10791C0023682B6063686B60A368AB600023C4E9C9
:10792C000033F1E710B50023C0E90033044683604F
:10793C000373FFF7DAFF204610BD884210B50446EA
:10794C0005D00B682BB18A681946FFF7A1FF2046BA
:10795C0010BDFFF772FFFAE710B500230446C0E92B
:10796C00003383600373FFF7E8FF204610BD70B54A
:10797C0005460E4609B9002070BD6AB184681444EE
:10798C002146FFF771FF0028F5D02868AB68314617
:10799C00184400F01EFAAC600120EDE707B5002397
:1079AC008DF80410012201A98DF80530FFF7DFFFD7
:1079BC0003B05DF804FB02680B46096862B141B97B
:1079CC00806860B110787047986840B10978484277
:1079DC0070471046FCF71CBB0029F5D108467047D0
:1079EC0008B582688B689A4205D1FFF7E4FFB0FABC
:1079FC0080F0400908BD0020FCE7704738B504460C
:107A0C0014252A46002100F097F9258040250749C6
:107A1C0025812846258200F031F80449606028460B
:107A2C0000F02CF8E060204638BD00BFE4830B006A
:107A3C0030B50E4D2978BFF35B8F11F0010487B080
:107A4C0011D12846FCF744FB68B101A8FFF7D6FF1B
:107A5C0001AA21460648FFF77BFE2846FCF73DFBB2
:107A6C00044800F023F9024807B030BD44E7032076
:107A7C0048E70320077A0B00FCF717BBFCF717BB92
:107A8C0008B5FCF7B3FE0000014900F0F9B800BFDF
:107A9C0000840B007FB500241023CDE90234036869
:107AAC0015469E6912686B46CDE90044B0479DF8B7
:107ABC00043003F00603062B03BF009B2B60012050
:107ACC00204604B070BD0098904214BF01200620DF
:107ADC007047000010B5034B0360044600F0CDF86E
:107AEC00204610BD40840B0010B50446FFF7F2FF92
:107AFC0020460821FCF7DDFA204610BD2DE9F041A7
:107B0C001F46DDE90834DDF8188098450646154611
:107B1C0007D1079900F0B4F818B165710020BDE8E1
:107B2C00F0813946304600F0ABF80028F6D001233E
:107B3C00C4F800802571A371F0E738B515461C46D2
:107B4C0000F09EF820B10823E36006232560237122
:107B5C0038BD73B505460C4601921E4600F090F8F0
:107B6C0050B9032E08D82368019A5B692946204630
:107B7C0002B0BDE87040184702B070BD10B5034BA1
:107B8C0003600446FFF7A6FF204610BDA0840B003F
:107B9C0010B50446FFF7F2FF20460C21FCF789FADA
:107BAC00204610BDF7B5089F974205460E46144671
:107BBC000AD0A86802680897156A31462246AC4676
:107BCC0003B0BDE8F04060471946019300F058F847
:107BDC00019B0028EDD0062003B0F0BD2DE9F14F3C
:107BEC000D461946DDE90A4BDDE90CA68146174620
:107BFC00984600F045F890B1002D3460377109DBE0
:107C0C0061198A450CBF06210121B171002001B018
:107C1C00BDE8F08F0235F9D10123B371F6E7544575
:107C2C0006D15946484600F02BF808B17771EDE7BC
:107C3C00D9F808000368CDE90CA6CDE90A4BDC693C
:107C4C003A4643462946A44601B0BDE8F04F60478A
:107C5C002DE9F04107460C4615461E46FFF76DFF11
:107C6C0048B9B86803689F692A4633462146BC4622
:107C7C00BDE8F0416047BDE8F081704700207047D7
:107C8C00814208B50ED0406803782A2B0CD0496885
:107C9C000B782A2B08BF0131FCF7BAF9B0FA80F047
:107CAC00400908BD0120FCE70020FAE7002301464B
:107CBC001A46184600F04AB9024B1844407800F0B6
:107CCC00970070476D850B0010B501390244904246
:107CDC0001D1002005E0037811F8014FA34201D037
:107CEC00181B10BD0130F2E70A44914200F1FF333A
:107CFC0000D1704710B511F8014B03F8014F9142B8
:107D0C00F9D110BD884210B501EB020402D98442AE
:107D1C00234607D8431EA14208D011F8012B03F8C3
:107D2C00012FF8E7024401468A4200D110BD13F836
:107D3C00014D02F8014DF7E702440346934200D18E
:107D4C00704703F8011BF9E738B5104B1D68AB6B96
:107D5C000446B3B91820FCF729FD0246A86320B9E4
:107D6C000B4B0C484221FCF751FD0B490B4BC0E966
:107D7C0000130B4B83600B23838100210120C2E98C
:107D8C000401AB6B00221C615A6138BDBCE10320BD
:107D9C00D9840B00F0840B000E33CDAB34126DE69E
:107DAC00ECDE0500C9B2034610F8012B1AB18A4269
:107DBC00F9D118467047002918BF0023F9E710B510
:107DCC000446FFF7EFFF18B92046FCF72BF92044C7
:107DDC0010BD034611F8012B03F8012B002AF9D131
:107DEC00704710B57AB103460139841813F8010BAA
:107DFC0011F8012F904201D1A34201D1801A10BD7C
:107E0C000028F3D1FAE71046F9E738B503460C46DB
:107E1C0069B9BDE83840FFF7C5BF431C054621468C
:107E2C001846FFF7BFFF0028F7D1284638BD0025BC
:107E3C00F5E70000012B2DE9F04701D0242B06D9E2
:107E4C00FCF7DCFC162303600020BDE8F087DFF8AC
:107E5C00E4C00D462E4615F8014B14F80C7017F0C3
:107E6C000807F7D12D2C32D12C780127B51C002B0B
:107E7C005BD0102B09D1302C07D12C7804F0DF0407
:107E8C00582C4DD16C781023023507F1004808F1BD
:107E9C00FF384FF0000CB8FBF3F9664603FB198A68
:107EAC00A4F1300EBEF1090F16D87446A34224DD9E
:107EBC00BCF1000F1EDBB1451CD301D1A24519DB6F
:107ECC0006FB03464FF0010C15F8014BE8E72B2C91
:107EDC0004BF2C78B51CCAE7A4F1410EBEF1190FF2
:107EEC0001D8373CE2E7A4F1610EBEF1190F04D8BA
:107EFC00573CDBE74FF0FF3CE6E7BCF1000F05DA3F
:107F0C0022230360464642B930469EE707B17642CB
:107F1C00002AF9D0BCF1000F00D0691E1160F3E704
:107F2C003024002BB1D10823AFE7302CA5D00A2385
:107F3C00ABE700BF6E850B0013460A4601460248AC
:107F4C000068FFF777BF00BFBCE103202DE9F843C1
:107F5C00DFF8B8800646D8F800001F460D4691465B
:107F6C0000F056F8254B1C6834B9254C1C60254B89
:107F7C0013B11B68C4F8883063681F2B07DDD8F871
:107F8C00000000F047F84FF0FF30BDE8F8834EB327
:107F9C00D4F8880088B91C4B23B9D8F8000000F03D
:107FAC0038F8F0E74FF48470FCF700FC0028F4D0AC
:107FBC000023C0E94033C4F88800636840F823907C
:107FCC0001229A4000EB8301D0F800311343C0F832
:107FDC000031022EC1F8807002BFD0F80431134377
:107FEC00C0F804316368D8F800005A1C0233626090
:107FFC0044F8235000F00EF80020C6E7E8E7032011
:10800C005CE7032000000000B9470B0020E20320CE
:10801C007047704770470000000000000000FB3400
:10802C009B5F80000080001000000000000000003A
:10803C0041400B007D400B00A5400B00A9400B00FC
:10804C000000000043616C6C206F6E2070757265CF
:10805C00207669727475616C0000000000000000ED
:10806C00000000000000000000000000C5400B00F4
:10807C00ED400B000000000000000000F1400B0080
:10808C000D410B00EF400B00000000000000000051
:10809C0021410B0055410B007D5E0B0021600B0054
:1080AC00000000000000000089480B0093480B0002
:1080BC009D480B00A7480B00B1480B00BD480B00B6
:1080CC00C9480B00D1480B00D9480B00E5480B0000
:1080DC00ED480B00F7480B0001490B0000000000B5
:1080EC00000000004B4A0B00414A0B00374A0B00C2
:1080FC00ED490B002B4A0B001F4A0B00C9480B0023
:10810C00D1480B00134A0B000B4A0B00014A0B0021
:10811C00F7490B0001490B000000000000000000B3
:10812C0025640025750075253034780000000000AA
:10813C0000000000CF4E0B00374F0B000D4F0B0013
:10814C00CD610B00FF4E0B00D14E0B00E14E0B002E
:10815C00314F0B00F14E0B00C94E0B00000000001C
:10816C0000000000E94F0B00D94F0B00DB4F0B0058
:10817C0025592D256D2D25645425483A254D3A2534
:10818C0053257A0061736374696D6500626175646F
:10819C000053657269616C0053657269616C3100E2
:1081AC004A534F4E53747265616D4C6F6748616EE4
:1081BC00646C657200617070002530313075200080
:1081CC005D20002C200028293A2000205B00636FE2
:1081DC006465203D200025690064657461696C73D9
:1081EC00203D20000D0A006D0066006C6E00666E6E
:1081FC00007400636F64650064657461696C0000F1
:10820C00000000000000000051520B0077520B00E0
:10821C0035520B001D4B0B0000000000000000004D
:10822C0025570B003D570B007D5E0B0021600B00AA
:10823C00000000000000000051570B0065570B00B8
:10824C0059600B003D520B000000000000000000C4
:10825C004F520B0085520B00E15D0B003F520B009F
:10826C0000000000000000004D520B0093520B0068
:10827C0069560B00B5520B00417373657274696FCC
:10828C006E4661696C7572652066616C736500770A
:10829C006972696E672E626C65005374617274202A
:1082AC00646973636F766572696E67207365727645
:1082BC00696365732E00417373657274696F6E46E2
:1082CC0061696C7572652068616C5F626C655F7367
:1082DC007461636B5F696E6974286E756C6C707415
:1082EC007229203D3D2053595354454D5F45525200
:1082FC004F525F4E4F4E45004661696C6564207469
:10830C006F20616C6C6F63617465206D656D6F724D
:10831C007921004661696C656420746F206170700E
:10832C00656E6420706565722043656E7472616C55
:10833C00206465766963652E00436F6E6E656374A9
:10834C00656400446973636F6E6E65637465640085
:10835C0000000000000000005F620B0081620B0057
:10836C001B680B008F620B0061620B0000000000A9
:10837C0000000000E1760B004D770B0025770B0019
:10838C00CD610B00F5760B0011770B0003770B001A
:10839C001F770B00E3760B00E7760B000000000064
:1083AC00000000001B780B0011780B0007780B0005
:1083BC00FD770B00F1770B00E5770B00C9480B003C
:1083CC00D1480B00D9770B00D1770B00C7770B0086
:1083DC00BD770B0001490B0000537431395F5370AA
:1083EC005F6D616B655F7368617265645F74616713
:1083FC000000000040840B00E5830B00A0840B0000
:10840C0014840B00C4840B004E31305F5F637878AA
:10841C00616269763131375F5F636C6173735F746E
:10842C007970655F696E666F4500000000000000A2
:10843C0008840B00E17A0B00F57A0B00897C0B00A9
:10844C00897C0B005F7B0B00A17A0B00477B0B0038
:10845C00097B0B00D37A0B00A0840B0070840B00FB
:10846C0008840B004E31305F5F6378786162697607
:10847C003132305F5F73695F636C6173735F747902
:10848C0070655F696E666F450000000000000000BB
:10849C0064840B00897B0B009D7B0B00897C0B009B
:1084AC00897C0B005F7B0B00A17A0B005D7C0B00C1
:1084BC00E97B0B00B17B0B0040840B00CC840B00E0
:1084CC00537439747970655F696E666F00524545F7
:1084DC004E54206D616C6C6F6320737563636565BE
:1084EC00646564002F6D6E742F776F726B7370619F
:1084FC0063652F776F726B73706163652F474343AE
:10850C002D31302D706970656C696E652F6A656EE2
:10851C006B696E732D4743432D31302D7069706537
:10852C006C696E652D34385F323032303131323413
:10853C005F313630363138303634312F7372632F29
:10854C006E65776C69622F6E65776C69622F6C69EA
:10855C0062632F7374646C69622F72616E642E6334
:10856C000000202020202020202020282828282817
:10857C0020202020202020202020202020202020EF
:10858C002020881010101010101010101010101047
:10859C001010040404040404040404041010101047
:1085AC001010104141414141410101010101010102
:1085BC000101010101010101010101010110101072
:1085CC0010101042424242424202020202020202D5
:1085DC000202020202020202020202020210101045
:1085EC00102000000000000000000000000000004F
:1085FC00000000000000000000000000000000006F
:10860C00000000000000000000000000000000005E
:10861C00000000000000000000000000000000004E
:10862C00000000000000000000000000000000003E
:10863C00000000000000000000000000000000002E
:10864C00000000000000000000000000000000001E
:10865C00000000000000000000000000000000000E
:10866C00000000003D430B00D9490B00554A0B009C
:10867C0015520B0021520B006D5E0B00D1760B00D6
:08868C0099770B0025780B0023
:10869400040000001400000003000000474E5500D1
:1086A4009D4171355F8CB475A951DCBCB1899B883F
:0486B400770369F1EE
:1086B80090810B005C820B0074820B00C0E10320E8
:1086C80000000000000000000000000000000000A2
:1086D8000000000000000000000000000000000092
:1086E8000000000000000000000000000000000082
:1086F8000000000000000000000000000000000072
:108708000000000000000000000000000000000061
:108718000000000000000000000000000000000051
:04872800ECE7032057
:04872C000000000049
:1087360000000102030405060708090A0B0C0D0ECA
:108746000F101112131415161718191A1B1C1D1EBB
:048756001F202800B8
:04875A007856341207
:04000003B000401CED
:00000001FF
