:02000004085D95
:1040000000405D08FCFF5F0800000600200005017D
:084010000401A81600000000E5
:104018001348144908B5884205D0134A824202D091
:10402800124B121A98471248124A0021124B121AC0
:10403800984712481249884205D0124A824202D053
:104048000A4B121A984710481049884205D0104A5E
:10405800824202D0054B121A9847014808BD00BF9A
:10406800908B071010EE5F08A88E07102D0D111009
:10407800A88E0710F8AF0710A10E111098523D0234
:10408800B0405D08A0523D02A0523D02B8405D0814
:0C409800F8FF3F0219405D080000000026
:0840A400E01BE07901000000BF
:0840B0009C405D0820B83F02AE
:1040B80081F0004102E000BF83F0004330B54FEAD1
:1040C80041044FEA430594EA050F08BF90EA020F3E
:1040D8001FBF54EA000C55EA020C7FEA645C7FEAD1
:1040E800655C00F0E2804FEA5454D4EB5555B8BFF4
:1040F8006D420CDD2C4480EA020281EA030382EA65
:10410800000083EA010180EA020281EA0303362DF6
:1041180088BF30BD11F0004F4FEA01314FF4801CC9
:104128004CEA113102D0404261EB410113F0004FDB
:104138004FEA03334CEA133302D0524263EB430392
:1041480094EA050F00F0A780A4F10104D5F1200E30
:104158000DDB02FA0EFC22FA05F2801841F100018B
:1041680003FA0EF2801843FA05F359410EE0A5F15F
:1041780020050EF1200E012A03FA0EFC28BF4CF090
:10418800020C43FA05F3C01851EBE37101F0004546
:1041980007D54FF0000EDCF1000C7EEB00006EEB53
:1041A8000101B1F5801F1BD3B1F5001F0CD34908DD
:1041B8005FEA30004FEA3C0C04F101044FEA445234
:1041C80012F5800F80F09A80BCF1004F08BF5FEABB
:1041D800500C50F1000041EB045141EA050130BD9B
:1041E8005FEA4C0C404141EB0101013C28BFB1F5AD
:1041F800801FE9D291F0000F04BF01460020B1FAF8
:1042080081F308BF2033A3F10B03B3F120020CDACA
:104218000C3208DD02F1140CC2F10C0201FA0CF0A8
:1042280021FA02F10CE002F11402D8BFC2F1200C0D
:1042380001FA02F120FA0CFCDCBF41EA0C019040C3
:10424800E41AA2BF01EB0451294330BD6FEA04040C
:104258001F3C1CDA0C340EDC04F11404C4F12002F7
:1042680020FA04F001FA02F340EA030021FA04F309
:1042780045EA030130BDC4F10C04C4F1200220FA60
:1042880002F001FA04F340EA0300294630BD21FA9E
:1042980004F0294630BD94F0000F83F4801306BF64
:1042A80081F480110134013D4EE77FEA645C18BF58
:1042B8007FEA655C29D094EA050F08BF90EA020FEF
:1042C80005D054EA000C04BF1946104630BD91EAE7
:1042D800030F1EBF0021002030BD5FEA545C05D1EA
:1042E8004000494128BF41F0004130BD14F5800429
:1042F8003CBF01F5801130BD01F0004545F0FE419D
:1043080041F470014FF0000030BD7FEA645C1ABFD1
:10431800194610467FEA655C1CBF0B46024650EA08
:10432800013406BF52EA033591EA030F41F4002134
:1043380030BD00BF90F0000F04BF0021704730B5BA
:104348004FF4806404F132044FF000054FF000018F
:1043580050E700BF90F0000F04BF0021704730B550
:104368004FF4806404F1320410F0004548BF404225
:104378004FF000013EE700BF42004FEAE2014FEA7A
:1043880031014FEA02701FBF12F07F4393F07F4F55
:1043980081F06051704732F07F4208BF704793F058
:1043A8007F4F04BF41F40021704730B54FF460746B
:1043B80001F0004521F000411CE700BF50EA01026E
:1043C80008BF704730B54FF000050AE050EA010217
:1043D80008BF704730B511F0004502D5404261EB87
:1043E80041014FF4806404F132045FEA915C3FF4C8
:1043F800D8AE4FF003025FEADC0C18BF03325FEA65
:10440800DC0C18BF033202EBDC02C2F1200300FA15
:1044180003FC20FA02F001FA03FE40EA0E0021FA3A
:1044280002F11444BDE600BF70B54FF0FF0C4CF428
:10443800E06C1CEA11541DBF1CEA135594EA0C0FDA
:1044480095EA0C0F00F0DEF82C4481EA030621EA15
:104458004C5123EA4C5350EA013518BF52EA033550
:1044680041F4801143F4801338D0A0FB02CE4FF002
:104478000005E1FB02E506F00042E0FB03E54FF032
:104488000006E1FB03569CF0000F18BF4EF0010E2A
:10449800A4F1FF04B6F5007F64F5407404D25FEA26
:1044A8004E0E6D4146EB060642EAC62141EA5551D9
:1044B8004FEAC52040EA5E504FEACE2EB4F1FD0C1B
:1044C80088BFBCF5E06F1ED8BEF1004F08BF5FEA99
:1044D800500E50F1000041EB045170BD06F000464B
:1044E80046EA010140EA020081EA0301B4EB5C04F8
:1044F800C2BFD4EB0C0541EA045170BD41F48011F0
:104508004FF0000E013C00F3AB8014F1360FDEBF14
:10451800002001F0004170BDC4F10004203C35DAF0
:104528000C341BDC04F11404C4F1200500FA05F373
:1045380020FA04F001FA05F240EA020001F0004214
:1045480021F0004110EBD37021FA04F642EB06018A
:104558005EEA430E08BF20EAD37070BDC4F10C04B4
:10456800C4F1200500FA04F320FA05F001FA04F278
:1045780040EA020001F0004110EBD37041F1000164
:104588005EEA430E08BF20EAD37070BDC4F120056F
:1045980000FA05F24EEA020E20FA04F301FA05F2D7
:1045A80043EA020321FA04F001F0004121FA04F27F
:1045B80020EA020000EBD3705EEA430E08BF20EA4F
:1045C800D37070BD94F0000F0FD101F00046400089
:1045D80041EB010111F4801F08BF013CF7D041EA0B
:1045E800060195F0000F18BF704703F0004652000F
:1045F80043EB030313F4801F08BF013DF7D043EAE0
:104608000603704794EA0C0F0CEA135518BF95EA95
:104618000C0F0CD050EA410618BF52EA4306D1D11C
:1046280081EA030101F000414FF0000070BD50EA3B
:10463800410606BF1046194652EA430619D094EAC5
:104648000C0F02D150EA013613D195EA0C0F05D1AF
:1046580052EA03361CBF104619460AD181EA030103
:1046680001F0004141F0FE4141F470014FF00000BB
:1046780070BD41F0FE4141F4780170BD70B54FF056
:10468800FF0C4CF4E06C1CEA11541DBF1CEA1355D6
:1046980094EA0C0F95EA0C0F00F0A7F8A4EB0504B8
:1046A80081EA030E52EA03354FEA013100F08880AF
:1046B8004FEA03334FF0805545EA131343EA126378
:1046C8004FEA022245EA111545EA10654FEA00262D
:1046D8000EF000419D4208BF964244F1FD0404F5E6
:1046E800407402D25B084FEA3202B61A65EB030542
:1046F8005B084FEA32024FF480104FF4002CB6EBFF
:10470800020E75EB030E22BFB61A754640EA0C007E
:104718005B084FEA3202B6EB020E75EB030E22BFBE
:10472800B61A754640EA5C005B084FEA3202B6EBFF
:10473800020E75EB030E22BFB61A754640EA9C00BE
:104748005B084FEA3202B6EB020E75EB030E22BF8E
:10475800B61A754640EADC0055EA060E18D04FEA4C
:10476800051545EA16754FEA06164FEAC30343EAEC
:1047780052734FEAC2025FEA1C1CC0D111F4801FB9
:104788000BD141EA00014FF000004FF0004CB6E7B2
:1047980011F4801F04BF01430020B4F1FD0C88BF51
:1047A800BCF5E06F3FF6AFAEB5EB030C04BFB6EB5C
:1047B800020C5FEA500C50F1000041EB045170BD4F
:1047C8000EF0004E4EEA113114EB5C04C2BFD4EB7C
:1047D8000C0541EA045170BD41F480114FF0000E00
:1047E800013C90E645EA060E8DE60CEA135594EA7C
:1047F8000C0F08BF95EA0C0F3FF43BAF94EA0C0F7F
:104808000AD150EA01347FF434AF95EA0C0F7FF4F3
:1048180025AF104619462CE795EA0C0F06D152EA47
:1048280003353FF4FDAE1046194622E750EA41062B
:1048380018BF52EA43067FF4C5AE50EA41047FF43C
:104848000DAF52EA43057FF4EBAE12E74FF0FF3CA1
:1048580006E000BF4FF0010C02E000BF4FF0010C72
:104868004DF804CD4FEA410C7FEA6C5C4FEA430CEB
:1048780018BF7FEA6C5C1BD001B050EA410C0CBF3A
:1048880052EA430C91EA030F02BF90EA020F00209C
:10489800704710F1000F91EA030F58BF994208BF03
:1048A80090422CBFD8176FEAE37040F001007047C0
:1048B8004FEA410C7FEA6C5C02D150EA013C07D117
:1048C8004FEA430C7FEA6C5CD6D152EA033CD3D062
:1048D8005DF8040B704700BF8446104662468C465C
:1048E8001946634600E000BF01B5FFF7B7FF00288F
:1048F80048BF10F1000F01BD4DF808EDFFF7F4FFB8
:104908000CBF012000205DF808FB00BF4DF808ED42
:10491800FFF7EAFF34BF012000205DF808FB00BF65
:104928004DF808EDFFF7E0FF94BF012000205DF887
:1049380008FB00BF4DF808EDFFF7CEFF94BF01203C
:1049480000205DF808FB00BF4DF808EDFFF7C4FF35
:1049580034BF012000205DF808FB00BF4FEA410C7E
:104968007FEA6C5C02D150EA013C0AD14FEA430C61
:104978007FEA6C5C02D152EA033C02D14FF000009E
:1049880070474FF0010070474FEA4102B2F1E0432F
:1049980024BFB3F5001CDCF1FE5C0DD901F0004C1E
:1049A8004FEAC0024CEA5070B2F1004F40EB83006E
:1049B80008BF20F00100704711F0804F21D113F19A
:1049C8003872BCBF01F00040704741F480114FEAD3
:1049D8005252C2F11802C2F1200C10FA0CF320FA5C
:1049E80002F018BF40F001004FEAC1234FEAD32379
:1049F80003FA0CFC40EA0C0023FA02F34FEA4303E3
:104A0800CCE77FEA625307D150EA01331EBF4FF06B
:104A1800FE4040F44000704701F0004040F0FE4086
:104A280040F40000704700BF53B94AB9002908BFD5
:104A380000281CBF4FF0FF314FF0FF3000F0A0B945
:104A4800ADF1080C6DE904CE00F024F8DDF804E0BF
:104A5800DDE9022304B07047D0B500220B4B0646AF
:104A68000F46FFF7E1FC00F08DF90446FFF762FC02
:104A78000022074BFFF7D8FC02460B463046394662
:104A8800FFF71AFB00F07EF92146D0BD0000F03D8B
:104A98000000F0412DE9F04F099D04460F46002B18
:104AA80048D18A42944661D9B2FA82F343B1C3F13C
:104AB80020019F4002FA03FC9C4020FA01F10F43B9
:104AC8004FEA1C411FFA8CFE220CB7FBF1F601FBE2
:104AD800167706FB0EF042EA0742904208D91CEB13
:104AE800020206F1FF3702D2904200F237813E46B9
:104AF800121AA4B2B2FBF1F001FB102200FB0EFE69
:104B080044EA0244A64508D91CEB040400F1FF322C
:104B180002D2A64500F21C81104640EA0640A4EBEA
:104B28000E0400261DB1DC400023C5E900433146D0
:104B3800BDE8F08F8B4209D9002D00F0FD800026DA
:104B4800C5E9000130463146BDE8F08FB3FA83F677
:104B5800002E4BD18B42C0F0F280824240F2EF80AF
:104B68003046002DE3D0C5E90047E0E702B9FFDE93
:104B7800B2FA82F3002B40F09D80891A4FEA124E58
:104B880097B20126200CB1FBFEF20EFB121140EA8F
:104B9800014107FB02F088420FD91CEB010102F129
:104BA800FF382CBF4FF001094FF00009884203D9A4
:104BB800B9F1000F00F0CF804246091AA4B2B1FB48
:104BC800FEF00EFB101100FB07F744EA0144A74270
:104BD80008D91CEB040400F1FF3102D2A74200F20D
:104BE800B4800846E41B40EA02409BE7C6F1200770
:104BF800B34001FA06F422FA07FCF940B2404CEA45
:104C0800030C20FA07F34FEA1C491C431FFA8CFED9
:104C180000FA06F3200CB1FBF9F809FB181140EA79
:104C2800014108FB0EF088420FD91CEB010108F185
:104C3800FF3A2CBF4FF0010B4FF0000B884203D90D
:104C4800BBF1000F00F08D80D046091AA4B2B1FB69
:104C5800F9F009FB101100FB0EFE44EA01418E45F4
:104C680007D91CEB010100F1FF3401D28E457FD832
:104C7800204640EA0840A1EB0E01A0FB02984145FE
:104C88004C46C64602D306D14B4504D20138B9EB8F
:104C9800020468EB0C0E002D70D01A1B61EB0E019C
:104CA80022FA06F301FA07F7F14000261F43C5E987
:104CB80000713CE702FA03FCC3F1200001FA03F299
:104CC80021FA00F64FEA1C4E24FA00F11FFA8CF77D
:104CD8009C401143B6FBFEF00A0C0EFB106642EA3C
:104CE800064200FB07F696420ED91CEB020200F1C1
:104CF800FF382CBF4FF001094FF00009964202D946
:104D0800B9F1000F31D04046921B89B2B2FBFEF6D2
:104D18000EFB162241EA024106FB07F28A4207D936
:104D28001CEB010106F1FF3801D28A4223D846461E
:104D3800891A46EA004625E72E462846F7E6841AE9
:104D480061EB030301201F460BE76444023849E77F
:104D580064440238E1E6023A61442EE7023E6244C6
:104D6800C6E6A8F1020861446FE702386244CBE75F
:104D7800023861447DE7023E6144D9E72E46D6E613
:104D8800704700BF4A0011D212F5001211D20DD59A
:104D98006FF47873B3EB62520ED44FEAC12343F039
:104DA800004343EA505323FA02F070474FF00000E3
:104DB800704750EA013002D14FF0FF3070474FF092
:104DC8000000704710F8012B11F8013B012A28BF99
:104DD8009A42F7D0D01A7047034613F8012B002ADD
:104DE800FBD1181A013870474FEA410212F5001238
:104DF80015D211D56FF47873B3EB625212D94FEA1A
:104E0800C12343F0004343EA505311F0004F23FA03
:104E180002F018BF404270474FF00000704750EA58
:104E2800013005D111F0004008BF6FF00040704715
:104E38004FF00000704700BF38B500220023044639
:104E48000D46FFF763FD28B920462946BDE83840DE
:104E5800FFF702BE204605F10041FFF7FDFD404285
:104E680061EB410138BD00BF70B502F029F900259A
:104E7800054E064CA41BA408AC4200D170BD56F8E0
:104E8800043B98470135F7E7C0FF3F02F8FF3F02B0
:104E980000F0E8B808B500F069F9BDE8084002F08C
:104EA800C7B801F0DBBA01F0D9BA01F0E5BA01F0F0
:104EB800E3BA01F0E1BA00000048704752BB3F0274
:104EC8000C2008B5024A034901F05CF9FEE700BF6F
:104ED80095723D0230B83F020078B0FA80F0400980
:104EE8007047012303707047704770470122014BD8
:104EF8001A707047B88F07100122014B1A7070475B
:104F0800578F07100268064B1A608288054B1A8073
:104F18008279054B1A700022044B1A70704700BF43
:104F2800808F0710848F0710B08E0710C88B07106A
:104F38000268064B1A608288054B1A80C288054BA6
:104F48001A800022044B1A70704700BFC8960710D9
:104F5800C4960710B28E0710C98B0710002210B52F
:104F68000446044B114640F8043B01F051F9204631
:104F780010BD00BF84B93F0210B50446FFF7EEFF2D
:104F880020462021FFF795FF204610BD70B50B681D
:104F9800054603604E6843689E4216D016B1736892
:104FA800013373606C687CB16368013B63605BB913
:104FB800236820469B689847A368013BA3601BB9F8
:104FC80023682046DB6898476E6070BD10B50446BC
:104FD800094B036002F030FA214602F08BFC01F025
:104FE80047FF01F039FF2046044B40F8043B02F02C
:104FF8000BFB204610BD00BF98B93F026CB93F02B9
:1050080010B50446FFF7E2FF20462421FFF751FFC1
:10501800204610BD0EB44FF0200C002300B58CB014
:105028000DAA52F8041BCDE904C3CDE9001203927E
:10503800016804AA1E2001F0C1F80CB05DF804EB69
:1050480003B0704710B5044601F03AF86368226867
:10505800C31A934204D3A3686060BDE810401847A0
:1050680010BD000038B501F003FF4FF4165101F0F0
:10507800EFFE03F0EDFD03F035FE1020FFF711FF02
:10508800054620B102231022272100F0A5FB274C5A
:105098002846256000F0C8FC206800F0C7FB20689F
:1050A80000F002FC20680321214A00F0BFFC2068C0
:1050B8000221204A00F0BAFC206801211E4A00F0B3
:1050C800B5FC1E4A2068002100F0B0FC1C4B0321EF
:1050D800188805F009FF1B4B0821188805F004FF04
:1050E800194B0821188805F0FFFE184B082118886D
:1050F80005F0FAFE164B0821188805F0F5FE154B49
:105108000821188805F0F0FE134B0821188805F0CF
:10511800EBFE124A1249104604F0BAFDBDE83840C9
:10512800104A1149104604F0B3BD00BF5C8F071048
:10513800B08B0710C08B0710CA8B0710B88B0710ED
:10514800948B0710988B07109C8B0710A08B071067
:10515800A48B0710A88B0710AC8B0710A88F07101B
:10516800F5603D02B08F071021613D022DE9F04343
:105178008DB003F06DFD03F001FE7C4E044600285F
:1051880000F0308140F6B732794C7A4D23788DF8AB
:105198001C30794B1B788DF81D302B8801339BB25E
:1051A80093422B8005D975497548FFF733FF0023D3
:1051B8002B800023022207A9724803F0D9FB237829
:1051C80002228DF81C30704B70481B7807A98DF8A7
:1051D8001D30002303F0CCFB2378012B05D16C494B
:1051E8006748FFF717FF00232370082005F0A6FE85
:1051F800684B694A18601378002B40F066810128D3
:1052080003D15B4B1870642313703378042B06D0DA
:10521800624B1B78012B0CBF032300233370DFF88C
:10522800C081F3EE047A98ED007AB4EEE77AF1EEF5
:1052380010FA9EBFDFED5A7A77EEC77AFCEEE77A6E
:10524800584D98BFCDED037A95ED007ADFED567A8B
:10525800B4EEE77A8CBF00239DF80C30F1EE10FA1B
:10526800454A524F1370CCBF01220022464B1A7098
:105278003B78002B45D000224D4C1146206800F0A9
:1052880027FB2868FFF778F84A4ACDE90001102182
:1052980007A801F029F907A9206802F035FF0022C4
:1052A8000B21206800F014FB2068022103689B682A
:1052B800984700220C21206800F00AFB206803218F
:1052C80003689B68984701220021206800F000FBD2
:1052D800D8ED007AF5EEC07AF1EE10FA40F3F780D7
:1052E80017EE900AFFF748F8CDE900011021324A7D
:1052F80007A801F0F9F8206807A902F005FF0023C4
:105308003B702E4F3B783BB32D4D34782968B1FA6A
:1053180081F149092960002C00F0DE80032C08D1B6
:10532800284B188805F0F1FD0121274B188805F056
:10533800ECFD264B1C78002C00F0D580032C09D1FD
:10534800234B2978188805F0E0FD0121214B1888A6
:1053580005F0DBFD00233B701F48FFF773FE1F4875
:10536800FFF770FE0DB0BDE8F08300BFC88B0710D3
:10537800B98F0710528F0710558F071045B83F0295
:1053880034970710988F0710568F0710A08F0710B3
:1053980057B83F02948B0710548F0710B08E071030
:1053A8000000C842C896071000002042B88F0710B6
:1053B8005C8F07106DB83F0277B83F02578F071010
:1053C800AC8E07109C8B0710988B0710C98B0710A1
:1053D800A48B0710A08B0710CC960710D89607103F
:1053E800808F07100423337000F06AFE414D2B684C
:1053F800C01AB0F5FA6FFFF4F8AE00F061FE28604D
:1054080003F026FC32223C4903F0F4FCB0F100081A
:105418007FF7EBAE384FDFF81891E5B24545BFF698
:10542800E4AE07A803F074F824235D4305F10800EF
:10543800012207A9384404F047FB002843D0494615
:1054480007A803F0C0F8E0B103F002FC012301460D
:105458007A1905A804F06CFF284805A9FFF796FDFE
:1054680005A803F036FD254803F05CFB48B1244A43
:105478002449224804F0E2FB234A24491F4804F047
:10548800DDFB234907A803F09EF8E0B103F0E0FB39
:10549800012301467A1905A804F04AFF1D4805A909
:1054A800FFF774FD05A803F014FD1A4803F03AFB52
:1054B80048B1194A1949174804F0C0FB184A194954
:1054C800144804F0BBFB0134A7E7013B9CE600222B
:1054D8000023CDE9002309E7134B0121188805F0C3
:1054E80014FD214621E7114B0121188805F00DFD17
:1054F80021462BE7588F0710BC8F0710888F07109D
:10550800148F0710A88F0710008F0710988F0710A7
:10551800EC8E0710908F07103C8F0710B08F071084
:10552800288F0710A08F07109C8B0710A48B0710DB
:10553800D88E071070B51426D0E90053044606FB30
:105548000356AE4204D0284605F092FA1435F8E71F
:10555800206800F091FF204670BD8842F8B50446E7
:105568000D46164616D9904215D2A2F11406751AA0
:10557800A1F114072C44B7421CD02CB13146204667
:1055880005F0F3FA337C2374304605F071FA143EC3
:10559800143CF0E70ED0B5420CD02CB12946204679
:1055A80005F0E3FA2B7C2374284605F061FA1435DC
:1055B8001434F0E7F8BD00232DE9F041C0E90033C9
:1055C80083604F6804469F420E4624DD4FF014085E
:1055D80008FB07F000F042FF0546E0B1D4E90012ED
:1055E80008FB0212FFF7B9FF206800F045FF2560AD
:1055F800A760D6E9007308FB0378B84509D0394697
:10560800284605F0CCFA3B7C143505F8043C1437E1
:10561800F3E7736863602046BDE8F08170B54D48D4
:105628008EB005F0DDFC0023CDE90233049301F0D0
:105638001FFC054602A905A8FFF7BDFF05A908A894
:10564800454CFFF7B8FF454B08A923600BA8FFF7A7
:10565800B2FF0BAA1E21201D02F0ECF90BA8FFF7E0
:1056680069FF08A8FFF766FF3D4B2562236005A880
:10567800FFF760FF3B4B3225236001F0F9FB4FF445
:10568800165101F0E5FB01F0D7FE214602F0ECF8D7
:1056980002A8FFF74FFF3449344803F013F83449A0
:1056A800344803F00FF83449344803F00BF8344910
:1056B800344803F007F83449344803F003F8344910
:1056C800344802F0FFFF7F26334C204602F016FFD5
:1056D80004F1080003F09DFE04F1140003F099FEA4
:1056E800013D84F8206004F12404EED12B4803F036
:1056F80019F92B4803F016F92A4803F0EFF92A485C
:1057080003F010F9294803F00DF9294803F0E6F9E8
:105718004FF4FA63274C2360274BA36000F0D0FCBA
:10572800FA236060254C2360254BA36000F0C8FC79
:105738002A4660601421012000F066FE01221E2125
:105748000346CDE900121F486FF07F4100F05EFF6D
:105758000EB070BD508F0710B48E07106CB93F02A1
:1057680088BB3F0298B93F0284B83F02D88E071021
:10577800A9B83F02008F0710CEB83F02148F071058
:10578800F3B83F02EC8E071018B93F023C8F0710A0
:105798003DB93F02288F0710BC8F0710A88F07104C
:1057A800988F0710888F0710B08F0710A08F0710E9
:1057B800908F0710CC960710DD603D02D896071031
:1057C800E9603D02608F0710704710B5044610214C
:1057D800FFF76FFB204610BD70B50025034E4560EE
:1057E8000660017242738373C57370BDB0B93F021E
:1057F80038B504460D4605F055FA217A01F0D6F879
:10580800022000F04FFC05F04DFAE17B03682943C4
:105818009B689847022000F045FC05F043FA01F028
:10582800CDF8BDE83840022000F03CBC0823002138
:10583800C373FFF7DDBF38B505460C4641F00401D8
:10584800FFF7D6FF012000F02DFC284604F0FB01ED
:10585800FFF7CEFFBDE83840322000F023BC38B552
:1058680004460D46FFF7C4FF29462046BDE83840E8
:10587800FFF7E1BF70B50D461446064621F00F014B
:105888001143FFF7ECFF44EA05113046BDE87040CC
:10589800C9B2FFF7E4BF08B50122FFF7EBFF00200C
:1058A80008BD0022FFF7E6BF08B50121FFF7F9FFA1
:1058B800BDE808404FF4FA6000F0F4BB08B50221D7
:1058C800FFF7EFFFBDE808404FF4FA6000F0EABBCD
:1058D8007FB5064615460C460C4B0DF1100C0FCB48
:1058E8000CE90F00327B04ABAA423CBF02F1FF3245
:1058F800D5B203EB850555F8101C3046214461F0FC
:105908007F01C9B2FFF7CDFF04B070BDF8B73F0201
:1059180008B5817A41F00402827241F00C01FFF768
:10592800C0FF08BD01F00701C90070B541F0400192
:1059380014460546FFF7B5FF661E07342B6816F8B0
:10594800011F28469B689847A642F7D170BD10B53D
:10595800012A88BF417A044684BF41F00801417298
:1059680002732BB1012A02BF437A43F00403437246
:10597800322001F02BFBE17B2046FFF739FF4FF483
:105988007A7001F023FB30212046FFF768FF41F2CF
:10599800941000F087FB30212046FFF760FF41F2AA
:1059A800941000F07FFB30212046FFF758FF962027
:1059B80000F078FB20462021FFF751FF617A20464E
:1059C80041F02001FFF76DFF04232046A372FFF783
:1059D8009FFF2046FFF768FF02232046E372062157
:1059E800FFF75FFF2046BDE81040FFF767BF0000E4
:1059F80010B5044605F056F90A4900F0C9FF05F04C
:105A080051F9012100F0C8FF05F04CF900F0C8FF7A
:105A180000232046A27B617B6372BDE81040FFF73C
:105A280096BF00BFA0860100FFF7E2BFFFF77ABF6D
:105A380009B504480068044B03441B681B680293BB
:105A480009BD0000908B07103400000009B5044818
:105A58000068044B03441B685B68029309BD00009F
:105A6800908B07103400000009B504480068044B07
:105A780003441B689B68029309BD0000908B0710C4
:105A88003400000009B504480068044B03441B684F
:105A98001B69029309BD0000908B071034000000B9
:105AA80009B504480068044B03441B685B6902930A
:105AB80009BD0000908B07103400000009B50448A8
:105AC8000068044B03441B689B69029309BD0000EE
:105AD800908B07103400000009B504480068044B97
:105AE80003441B68DB69029309BD0000908B071013
:105AF8003400000009B504480068044B03441B68DF
:105B08001B6A029309BD0000908B07103400000047
:105B180009B504480068044B03441B68DB69029319
:105B280009BD0000908B07101800000009B5044853
:105B38000068044B03441B681B6A029309BD0000FC
:105B4800908B07101800000009B504480068044B42
:105B580003441B681B68029309BD0000908B071063
:105B68001000000009B504480068044B03441B6892
:105B78009B68029309BD0000908B0710100000007D
:105B880009B504480068044B03441B68DB680293AA
:105B980009BD0000908B07101000000009B50448EB
:105BA8000068044B03441B689B69029309BD00000D
:105BB800908B07101000000009B504480068044BDA
:105BC80003441B68DB69029309BD0000908B071032
:105BD8001000000009B504480068044B03441B6822
:105BE8001B6A029309BD0000908B0710100000008B
:105BF80009B504480068044B03441B685B6A0293B8
:105C080009BD0000908B07101000000009B504487A
:105C18000068044B03441B689B6A029309BD00009B
:105C2800908B07101000000009B504480068044B69
:105C380003441B68DB6A029309BD0000908B0710C0
:105C48001000000009B504480068044B03441B68B1
:105C58001B6B029309BD0000908B07101000000019
:105C680009B504480068044B03441B685B6B029346
:105C780009BD0000908B07101000000009B504480A
:105C88000068044B03441B681B6C029309BD0000A9
:105C9800908B07101000000009B504480068044BF9
:105CA80003441B689B68029309BD0000908B071092
:105CB8002400000009B504480068044B03441B682D
:105CC800DB68029309BD0000908B071024000000D8
:105CD80009B504480068044B03441B681B69029318
:105CE80009BD0000908B07102400000009B5044886
:105CF8000068044B03441B685B69029309BD0000FC
:105D0800908B07102400000009B504480068044B74
:105D180003441B689B69029309BD0000908B071020
:105D28002400000009B504480068044B03441B68BC
:105D3800DB69029309BD0000908B07102400000066
:105D480009B504480068044B03441B681B6A0293A6
:105D580009BD0000908B07102400000009B5044815
:105D68000068044B03441B689B6A029309BD00004A
:105D7800908B07102400000009B504480068044B04
:105D880003441B68DB6A029309BD0000908B07106F
:105D98002400000009B504480068044B03441B684C
:105DA8001B6C029309BD0000908B071024000000B3
:105DB80009B504480068044B03441B685B690293F7
:105DC80009BD0000908B07104C00000009B504487D
:105DD8000068044B03441B685B6C029309BD000018
:105DE800908B07103000000009B504480068044B88
:105DF80003441B689B6C029309BD0000908B07103D
:105E08003000000009B504480068044B03441B68CF
:105E1800DB6C029309BD0000908B07103000000076
:105E280009B504480068044B03441B685B6D029382
:105E380009BD0000908B07103000000009B5044828
:105E48000068044B03441B689B68029309BD00006B
:105E5800908B07106000000009B504480068044BE7
:105E680003441B68DB6F029309BD0000908B071089
:105E78006000000009B504480068044B03441B682F
:105E8800D3F88430029309BD908B0710600000009E
:105E980009B504480068044B03441B68D3F89830DC
:105EA800029309BD908B07106000000009B50448F3
:105EB8000068044B03441B68D3F8B430029309BD4F
:105EC800908B07106000000009B504480068044B77
:105ED80003441B68D3F8BC30029309BD908B0710AC
:105EE8006000000009B504480068044B03441B68BF
:105EF800D3F8C430029309BD908B071060000000EE
:105F080009B504480068044B03441B68D3F8D8302B
:105F1800029309BD908B07106000000009B5044882
:105F28000068044B03441B68D3F8DC30029309BDB6
:105F3800908B07106000000009B504480068044B06
:105F480003441B68D3F8E030029309BD908B071017
:105F58006000000009B504480068044B03441B684E
:105F6800D3F8E430029309BD908B0710600000005D
:105F780009B504480068044B03441B68D3F8F030A3
:105F8800029309BD908B07106000000009B5044812
:105F98000068044B03441B68D3F8F430029309BD2E
:105FA800908B07106000000009B504480068044B96
:105FB80003441B68D3F80031029309BD908B071086
:105FC8006000000009B504480068044B03441B68DE
:105FD800D3F80431029309BD908B071060000000CC
:105FE80009B504480068044B03441B685B680293C6
:105FF80009BD0000908B07106400000009B5044833
:106008000068044B03441B689B68029309BD0000A9
:10601800908B07106400000009B504480068044B21
:1060280003441B68DB68029309BD0000908B0710CE
:106038006400000009B504480068044B03441B6869
:106048005B69029309BD0000908B07106400000093
:1060580009B504480068044B03441B68DB690293D4
:1060680009BD0000908B07106400000009B50448C2
:106078000068044B03441B681B6A029309BD0000B7
:10608800908B07106400000009B504480068044BB1
:1060980003441B685B68029309BD0000908B0710DE
:1060A8000000000009B504480068044B03441B685D
:1060B800DB68029309BD0000908B07100000000008
:1060C80009B504480068044B03441B685B690293E4
:1060D80009BD0000908B07100000000009B50448B6
:1060E8000068044B03441B689B68029309BD0000C9
:1060F800908B07101400000009B504480068044B91
:1061080003441B68DB68029309BD0000908B0710ED
:106118001400000009B504480068044B03441B68D8
:106128001B69029309BD0000908B07101400000042
:1061380009B504480068044B03441B685B69029373
:1061480009BD0000908B07101400000009B5044831
:106158000068044B03441B689B68029309BD000058
:10616800908B07105000000009B504480068044BE4
:1061780003441B68DB68029309BD0000908B07107D
:106188005000000009B504480068044B03441B682C
:106198005B6B029309BD0000908B0710480000005C
:1061A80009B504480068044B03441B681B6D02933F
:1061B80009BD0000908B07104800000009B504488D
:1061C8000068044B03441B685B6D029309BD000023
:1061D800908B07104800000009B504480068044B7C
:1061E80003441B68DB6E029309BD0000908B071007
:1061F8004800000009B504480068044B03441B68C4
:106208001B6F029309BD0000908B07104800000027
:1062180009B504480068044B03441B68D3F8803070
:10622800029309BD908B07104800000009B5044887
:106238000068044B03441B68DB6B029309BD000034
:10624800908B07102C00000009B504480068044B27
:1062580003441B685B68029309BD0000908B07101C
:106268002800000009B504480068044B03441B6873
:106278009B68029309BD0000908B0710280000005E
:1062880009B504480068044B03441B68DB680293A3
:1062980009BD0000908B07102800000009B50448CC
:1062A8000068044B03441B681B69029309BD000086
:1062B800908B07102800000009B504480068044BBB
:1062C80003441B685B69029309BD0000908B0710AB
:1062D8002800000009B504480068044B03441B6803
:1062E8009B69029309BD0000908B071028000000ED
:1062F80009B504480068044B03441B68DB69029332
:1063080009BD0000908B07102800000009B504485B
:106318000068044B03441B681B6A029309BD000014
:10632800908B07102800000009B504480068044B4A
:1063380003441B681B6B029309BD0000908B071078
:106348002800000009B504480068044B03441B6892
:106358005B6B029309BD0000908B071028000000BA
:1063680009B504480068044B03441B681B6C02937E
:1063780009BD0000908B07102800000009B50448EB
:106388000068044B03441B685B6C029309BD000062
:10639800908B07102800000009B504480068044BDA
:1063A80003441B685B6D029309BD0000908B0710C6
:1063B8002800000009B504480068044B03441B6822
:1063C8009B6D029309BD0000908B07102800000008
:1063D80009B504480068044B03441B685B680293D2
:1063E80009BD0000908B07100800000009B504489B
:1063F8000068044B03441B685B69029309BD0000F5
:10640800908B07100800000009B504480068044B89
:1064180003441B68DB6F029309BD0000908B0710D3
:106428000800000009B504480068044B03441B68D1
:10643800D3F88830029309BD908B0710080000003C
:1064480009B504480068044B03441B68D3F894302A
:10645800029309BD908B07100800000009B5044895
:106468000068044B03441B681B68029309BD0000C5
:10647800908B07100400000009B504480068044B1D
:1064880003441B685B68029309BD0000908B0710EA
:106498000400000009B504480068044B03441B6865
:1064A8009B68029309BD0000908B07100400000050
:1064B80009B504480068044B03441B685B690293F0
:1064C80009BD0000908B07100400000009B50448BE
:1064D8000068044B03441B689B69029309BD0000D4
:1064E800908B07100400000009B504480068044BAD
:1064F80003441B68DB69029309BD0000908B0710F9
:106508000400000009B504480068044B03441B68F4
:106518005B6A029309BD0000908B0710040000001D
:1065280009B504480068044B03441B68DB6A0293FE
:1065380009BD0000908B07100400000009B504484D
:106548000068044B03441B681B6B029309BD0000E1
:10655800908B07100400000009B504480068044B3C
:1065680003441B685B6B029309BD0000908B071006
:106578000400000009B504480068044B03441B6884
:106588009B6B029309BD0000908B0710040000006C
:1065980009B504480068044B03441B68DB6B02938D
:1065A80009BD0000908B07100400000009B50448DD
:1065B8000068044B03441B681B6C029309BD000070
:1065C800908B07100400000009B504480068044BCC
:1065D80003441B685B6C029309BD0000908B071095
:1065E8000400000009B504480068044B03441B6814
:1065F8009B6C029309BD0000908B071004000000FB
:106608000B460A68014692681846104770B50E4C4A
:10661800002504601C24C0E901459DF814409DF83C
:10662800106004F0030444EA8604E4B2047442747B
:1066380085744161427CC5600F2A0ABF034B0383FE
:10664800C0E9063070BD00BF84B93F02F1773D0252
:10665800002340681A46FFF7F7BD00220221406870
:10666800FFF70EBE002240681146FFF7FBBD00226F
:1066780040681146FFF712BE002340681A461946C3
:10668800FFF71ABE002340681A461946FFF722BED4
:1066980000214068FFF764BE00214068FFF76EBE26
:1066A8000022406881F00101FFF722BE0022406805
:1066B800FFF73ABE002240681146FFF743BE0022AA
:1066C80040681146FFF722BE00214068FFF772BEFE
:1066D8002DE9F04395B014460D46074600F026FC18
:1066E80000211C220DA800911EF0B7FA4023204675
:1066F8000C9300216B460CAAFFF736FD04460028D0
:106708004BD1024601216868FFF7C8FD0221804687
:1067180022466868FFF7C2FD21468146009E002E8A
:106728003BD0002939D17368022B03D00A2B11D032
:10673800F669F4E7B8F1000FFAD0716906A80431D8
:106748003C1D07AD00F020FC0FCD0FC42B6841465F
:106758002370EDE7B9F1000FEAD0102201A874699F
:106768001EF07BFA062301AD8DF8143004F10803FE
:1067780018342A4618685968083303C2A3421546D4
:10678800F7D101A906A83C1D07AD00F0DDFB0FCD30
:106798000FC42B6849462370CAE70098FFF7D6FC58
:1067A800384615B0BDE8F083033802289ABF024B7B
:1067B80053F8200001487047C0B93F02E49607101B
:1067C80008B500224068FFF7E7FDBDE80840FFF77D
:1067D800EBBF0000024B034A1A6000225A60704760
:1067E800E4960710D4B93F02002240681146FFF72B
:1067F80055BD002240681146FFF788BD0022406859
:106808001146FFF79FBD00224068FFF78DBD0022AB
:10681800406881F00101FFF76BBD002340681A460C
:106828001946FFF757BD002340681A461946FFF777
:1068380043BD002240681146FFF714BD0022022123
:106848004068FFF71DBD002340681A46FFF7FCBCEF
:106858000422024B5A60024A1A607047EC960710ED
:1068680018BA3F0210B58368044613B103220146E3
:106878009847204610BD8842F8B504460D4616468E
:1068880014D9904213D2A2F11006751AA1F110077B
:106898002C44B74218D01CB13146204604F065F9A3
:1068A800304604F0E5F8103E103CF2E70CD0B54253
:1068B8000AD01CB12946204604F057F9284604F0AE
:1068C800D7F810351034F2E7F8BD70B50E1E05463E
:1068D80011DD3001FFF7C2FD044658B1D5E90012B9
:1068E80001EB0212FFF7C7FF2868FFF7C5FD01207B
:1068F8002C60AE6070BD0024F6E77047F8B5064618
:1069080015460C468F18BC4206D0336830469B6843
:1069180014F8011B9847F6E72846F8BD0022007CCA
:10692800FFF758B90021007CFFF762B90021007C0D
:10693800FFF76CB90021007CFFF776B90021007CD5
:10694800FFF780B910B504461421FEF7B2FA2046C5
:1069580010BD000038B5044615464FF47A7300227E
:10696800C4E90123094B0846217423602946FFF72F
:1069780085F9BF3008D16B69DB0705D56868FFF773
:106988007BFDE868FFF778FD204638BD64BA3F0212
:106998000022007CFFF7D8B80022007CFFF7E2B89D
:1069A8000023007C1A461946FFF7EAB80022007C4B
:1069B800FFF7F4B80022007CFFF7FEB80121FFF7CB
:1069C800F9BF012200F1100313F8101C1846012921
:1069D80008D153F8041C02EB4102013A03F11003F9
:1069E800F2D17047022904BF53F8041C5218F4E787
:1069F8000EB4F0B588B0102100AF07F1340555F892
:106A0800042B04462B4678187A60FD60FFF77AFD60
:106A18000F287A681AD900F1080323F007036E4695
:106A2800ADEB030D411C2B466846FD60FFF76AFD80
:106A3800021E04DD2368694620469B689847B546D0
:106A48002037BD46BDE8F04003B070470028F7D0B6
:106A5800236802469B68204607F110019847EFE734
:106A680010B543680446013B436063B903689B68FB
:106A78009847A368013BA3602BB923682046BDE86B
:106A88001040DB68184710BD38B50B680446036032
:106A98004D6843689D4208D015B16B6801336B603F
:106AA800606808B1FFF7DCFF656038BD07B50368AB
:106AB8008DF8071001229B680DF10701984703B074
:106AC8005DF804FB0B461146002210B50446C0E9E8
:106AD800002283600BB9204610BDFFF7D5FFFAE707
:106AE8008368EBB11A78032A1AD8DFE802F0041792
:106AF800021B0520704702685B685268D05C2D282D
:106B080012D0A0F13003092B0ED974280ED06628B4
:106B18000CD0A0F16E0358425841704706207047C8
:106B280000207047042070470320704702207047F8
:106B380010B50446FFF7D4FF02280ED0C31EDBB2FF
:106B4800012B14D82268A36850685B680A22BDE844
:106B58001040002118441FF06BB92268A3685268DE
:106B68005B68D05CA0F174035842584110BD002006
:106B7800FCE7000038B500230446C0E900330E489E
:106B8800C4E90203A9B10B78032B06D08BB91368AB
:106B980058684B68C35C6E2B07D013684D685868FB
:106BA8008B6828445B1BA060E36011462046FFF712
:106BB8006BFF204638BD00BF52BB3F0238B50025E9
:106BC8000B4604461146C0E90055C0E90255C0E924
:106BD80004554BB11A78012A06D103F11002DB687B
:106BE80082604361FFF750FF204638BD10B5436906
:106BF800044663B18068013BE0601030A06020610A
:106C0800636113B1FFF7DDFEA060012000E01846C4
:106C180010BD10B57D210446FFF748FF012320462B
:106C2800237110BD08B50379012B02D0022B04D0C3
:106C380008BD2C21FFF73AFFFAE73A21FAE710B529
:106C48000446FFF7EFFF20467B21FFF72FFF0023C5
:106C58002046237110BD000013B504460191FFF7CB
:106C6800E1FF23682046DB68019A0349984701231E
:106C78002046237102B010BD88BA3F0213B50446FE
:106C88000191FFF7CFFF23682046DB68019A03498B
:106C9800984701232046237102B010BD8BBA3F02EA
:106CA8002DE9F0470D469046222104462F46FFF76E
:106CB800FDFEDFF8A490A8444745BA463DD017F832
:106CC800016B222E06D05C2E04D030461DF00EFE3D
:106CD8000028F1D12368294620469B68AAEB0502C3
:106CE80098475C212046FFF7E1FE0D2E0AD8072EB3
:106CF8001CD9A6F10803052B18D8DFE803F00D0FFF
:106D080011171315222E01D05C2E0FD131462046C3
:106D1800FFF7CCFE3D46CFE76221F8E77421F6E79E
:106D28006E21F4E76621F2E77221F0E72368324624
:106D380049462046DB689847ECE7BD4205D0236802
:106D4800294620469B687A1B984722212046FFF750
:106D5800ADFEBDE8F08700BF8EBA3F0213B504460A
:106D6800CDE90021FFF75EFFDDE900212046FFF7AE
:106D780097FF02232046237102B010BD13B50446C5
:106D8800CDE90021FFF74EFFDDE900212046FFF79E
:106D980087FF01232046237102B010BD10B50446B9
:106DA800006808B1FFF75CFE204610BD41747047CB
:106DB8007047704708B50021007CFEF77FFE40EA67
:106DC800E07008BD08B50121007CFEF777FE40EAB7
:106DD800E07008BD08B5007CFEF762FE20EAE070AE
:106DE80008BD08B5007CFEF74DFE20EAE07008BD3E
:106DF80013B50446007C0191FEF752FE0028019964
:106E080001DC607C20B1207CFEF766FE20EAE070A1
:106E180002B010BD007CFEF76DBE10B5044614210B
:106E2800FEF747F8204610BD10B54FF47A730446B4
:106E380008460021C4E90113044B20742360012390
:106E480011466374FEF7F4FD204610BD9CBA3F025C
:106E58000022007CFEF7FABD007CFEF705BE10B5E7
:106E68000446142200211DF0F8FE204610BD000043
:106E780010B588B003A8FFF7F2FF0C4CD4E88F1FB9
:106E880011F001010FD120460191FEF725F8019973
:106E980048B103AA0648FFF7C7FF2046FEF721F8C6
:106EA80004481DF08AF8024808B010BDF49607108F
:106EB800F8960710A17F3D02704710B504461821C7
:106EC800FDF7F7FF204610BDF0B5037D0E46062BF3
:106ED8004FF000048DB000F1040712D000F108054E
:106EE80015F8011D0A22304601F015F9AF42044495
:106EF80019D0002CF4D02E21304601F009F90444B1
:106F0800EEE72F236A4639460A208DF80040FEF73F
:106F18004FFF6846FDF760FF336802466946304612
:106F2800DB689847044620460DB0F0BD10B504460E
:106F3800044B1122002140F8043B1DF08EFE204630
:106F480010BD00BFD0BA3F020346074A10B543F848
:106F5800042B01F1100251F8044B914243F8044B01
:106F6800F9D10A781A7010BDD0BA3F0210B59DF851
:106F7800084044EA032343EA0242042342EA016147
:106F88004160037510BD000007B5064B0360CB7860
:106F980000938B784A780978FFF7E8FF03B05DF82B
:106FA80004FB00BFD0BA3F0213B56C460B4602463D
:106FB800D0E9000184E8030093E8030082E80300B5
:106FC80094E8030083E8030002B010BD0021FFF736
:106FD8000DBA0000014B1860704700BF688C07109D
:106FE80008B50F4B43B1FFF743FF03681B69984788
:106FF800002801DD00E000BF0A4B43B103F0A6FE04
:1070080003681B699847002801DD00E000BF064BB4
:107018000BB103F0E1FE054B0BB103F013FF08BD04
:107028000000000000000000000000000000000058
:1070380008B5FFF7D5FFFFF743F8014B186008BD07
:107048009C9707100548064A08B5121A05491DF00D
:10705800DDFD054B054A1A6008BD00BF00B40710E6
:1070680004B4071028F15F0800B407101E1C279A03
:10707800002307B51A466FF077010093FFF7E0F990
:1070880003B05DF804FB000007B543880A2B08D05D
:10709800502B0BD1094B1B684BB103B05DF804EBC7
:1070A8001847FFF7E5FF03B05DF804FB00231A4615
:1070B8006FF077010093FFF7C3F9F4E71097071013
:1070C800002110B51148FFF77FFA114B1A68114BD0
:1070D8009A420CBF012200220F4B1A7001D0FFF711
:1070E800B1FFFEF7D1FF04461DF012FE0B4B13B1A2
:1070F800204600E000BF00210848FFF797F8BDE8E8
:10710800104000210648FFF78DB900BFC5813D0238
:1071180000B407101E1C279A0C97071000000000E7
:1071280079823D020022014B9A607047149707103C
:10713800024B1A68024B1A60704700BFD48B0710C5
:107148002497071010B5044680680368DB689847E1
:10715800E3681844E06010BD7047084611B10B6839
:107168005B6818477047704770477047704738B575
:1071780004460D4600682E211DF008FF2368C31A37
:107188002B6023B1037803B10130236820601846CF
:1071980038BD10B504461021FDF78BFE204610BD02
:1071A80010B504460421FDF784FE204610BD10B535
:1071B80004460421FDF77DFE204610BDFEF722BEE1
:1071C80008B5FDF7FFFDB0FA80F0400908BD70472B
:1071D80010B50C46FFF74CFE844205D1FFF748FE78
:1071E800BDE81040FFF738BE03F0B0FD844205D17A
:1071F80003F0ACFDBDE8104003F0D9BB2CB1236807
:107208002046BDE810405B68184710BD0B68036056
:107218004B68436013B15A6801325A60704713B51E
:10722800044608460191FDF7D7FD0246204601991C
:1072380002B0BDE81040FFF7A1BD13B504460846EB
:107248000191FDF7C9FD0246204623680199DB68D4
:1072580002B0BDE81040184707B503688DF807105D
:107268000122DB680DF10701984703B05DF804FBC4
:107278002DE9F74F4FF0140AD0E900841746454628
:107288000AFB04F40093174BA4105C43002C21DD87
:1072980066100AFB06F005EB0009B9F804B03A4697
:1072A8005F4528BF5A46285801911DF083FE0028E3
:1072B8004FF0010301990BD15F4503D1009A137078
:1072C8003446E3E7FCD9A61B09F11405013EF7E7AC
:1072D800F9DBF5E7A5EB08050248AD10684303B0F4
:1072E800BDE8F08FCDCCCCCC7FB50369057E01918C
:1072F80003B3F9B1002600F10C04039603A901A811
:10730800FFF735FF0146A8B10DF10B032046039A9C
:107318008DF80B60FFF7ACFF9DF80B3053B1236875
:10732800142404FB0034B4F906300834002BA8BF39
:10733800DDB2E3E7284604B070BD0EB4F0B58CB0FA
:1073480000AF07F1440555F8042B04462B462021CD
:1073580007F110007A60FD60FFF7D4F81F287A68FB
:107368001AD900F1080323F007036E46ADEB030DAD
:10737800411C2B466846FD60FFF7C4F8021E04DD79
:10738800236869462046DB689847B5463037BD46CE
:10739800BDE8F04003B070470028F7D023680246E4
:1073A800DB68204607F110019847EFE710B5084C55
:1073B800D4E88F3FDB0709D42046FDF78DFD28B1BF
:1073C8002046FDF78EFD03481CF0F7FD024810BD6E
:1073D8002C97071057833D02D88B071010B5084C1F
:1073E800D4E88F3FDB0709D42046FDF775FD28B1A7
:1073F8002046FDF776FD03481CF0DFFD024810BD6E
:1074080030970710BF833D02DC8B071038B5002585
:107418000446C0E90055C0E904558560856140F817
:10742800245FFEF7D3FCFFF7C1FFE061FFF7D6FF4B
:1074380025732062204638BD10B50A4CD4E88F3F2A
:10744800DB070CD42046FDF747FD40B10648FFF79F
:10745800DDFF2046FDF745FD04481CF0AEFD02485F
:1074680010BD00BF2897071038970710C18B3D0241
:107478000023024A02490348FEF7BCBEA9893D021F
:1074880035893D02B5883D0200231A46194618463B
:10749800FEF7B0BE37B504468D686846FFF7B6FEFE
:1074A8006A4629462046FFF789FB01A8FFF776FCC4
:1074B800204603B030BD37B50446CD686846FFF7AF
:1074C800A5FE6A4629462046FFF754FB01A8FFF7A8
:1074D80065FC204603B030BD37B504460D696846E3
:1074E800FFF794FE6A4629462046FFF7EBFA01A803
:1074F800FFF754FC204603B030BD000070B58AB0D9
:107508000D46014604A8FFF7C5FF144E04A8FFF76F
:107518006DFBE8B1684604A9FFF7CDFF3146029834
:10752800FFF74EFE044610B12C1E18BF012401A817
:10753800FFF734FC002CE9D0684604A9FFF7CCFF1C
:107548006846FFF7F5FA286001A8FFF727FCDDE792
:1075580005A8FFF723FC0AB070BD00BFF8BA3F02C8
:1075680037B50C46134920461546FDF72BFC50B994
:10757800FFF77EFC4FF41651FFF76AFC03B0BDE835
:107588003040FFF775BC20460B49FDF71BFC78B966
:107598004FF4165301A928460193FFF7AFFF03F0F4
:1075A800D5FB019903F000FA03F0D0FB03B030BD1E
:1075B8000020FBE7FDBA3F0204BB3F0270B514266A
:1075C800D0E90053044606FB0356AE4205D005F148
:1075D8000800FFF7F3FF1435F7E72068FEF74CFFC4
:1075E800204670BD70B50446D0E9005305EB03167C
:1075F800AE4204D0284603F03BFA1035F8E720687D
:10760800FEF73AFF204670BD10B504460C30FFF770
:10761800D5FF2046FFF7E6FF204610BD10B504460B
:10762800034B40F8043BFFF7EFFF204610BD00BFB7
:107638006CB93F0210B50446FFF7F0FF204624213D
:10764800FDF737FC204610BD10B50446024B036019
:10765800FFF7E4FF204610BDA0BB3F0210B504466B
:10766800FFF7F2FF20462421FDF723FC204610BD3A
:107678000A6810B502604A6842600022C0E9022226
:1076880002618C688A608460CC68CA60C4600C69D6
:107698000A61046110BD0022C0E90022826010B5B1
:1076A8000C680A6004604C684A6044608C688A60B0
:1076B800846010BD10B5044603681868FEF7B0FB77
:1076C800204610BD2DE9F04F87B003931C4B804630
:1076D8005B688946C3F3080316466BB9FFF7ACFE2F
:1076E800044600F12403406A0593FFF767FD237BF6
:1076F8002BB105A8FFF7DEFF07B0BDE8F08F012327
:107708005FFA89F92373D4E9005305EB830AAA4584
:1077180012D055F8047B3146381DFFF7E5FD814549
:10772800F5D3039A3B680092D3F808B04A4633462B
:1077380041463846D847EAE700232373D9E700BF14
:1077480000ED00E02DE9F74F9B461A4B80465B6839
:107758008946C3F3080316466BB9FFF76DFE044666
:1077680000F12403406A0193FFF728FD237B2BB126
:1077780001A8FFF79FFF03B0BDE8F08F0123F6B221
:107788002373D4E9005305EB830A55450ED055F809
:10779800047B5946381DFFF7A7FD8642F5D33B68A1
:1077A8004A4641463846DB689847EEE7002323738C
:1077B800DEE700BF00ED00E02DE9F341164B05467A
:1077C8005B680F46C3F308031BBBFFF735FE04468F
:1077D80000F12403406A0193FFF7F0FCD4E9006349
:1077E800462406EB8308B04509D101A8FFF762FFDC
:1077F800A542B4BF0020012002B0BDE8F08156F8D0
:10780800040B39460430FFF76FFD8442A8BF0446D5
:10781800E9E70020F0E700BF00ED00E0F8B5D0E9A7
:1078280001539D4204460E460DDB6F1C002F006875
:1078380004DDB900FEF72EFE18B9F8BDFEF71CFEF0
:1078480000202060A7602768626807EB8501920026
:10785800A2EB8502081D1DF0E6F947F8256063686C
:10786800012001336360E8E737B5044600F12403DB
:10787800406A01930D46FFF7A1FCD4E9003203EBFF
:107888008202934219460AD009680433A942F8D102
:1078980001A8FFF70FFF0025284603B030BD294691
:1078A8002046FFF7BBFF05460028F1D06368012B8F
:1078B80001D1FFF7DDFD01A8FFF7FCFEECE70B4661
:1078C80070B50446D0E9000200EB820282420FD074
:1078D80001461D6851F8046BAE4207D1521A1DF0DB
:1078E800A2F901206368013B636070BD0846EDE7BB
:1078F8000020FAE71FB5044600F12403406A01910D
:107908000393FFF75BFC204601A9FFF7D8FF18B1E6
:1079180063680BB9FFF7B8FD03A8FFF7CBFE04B007
:1079280010BD182370B50446D0E9045603FB06566B
:10793800AE4215D0204605F11001FFF7C0FF63687D
:107948000BB9FFF7A1FDE06929690368DB6898476F
:10795800696919B1206A0368DB6898471835E7E751
:107968001826D4E9045306FB0356AE4204D0284631
:1079780003F07EF81835F8E70023636170BD73B52E
:107988000446FFF781FD04F12403606A0193FFF7C1
:1079980015FC2046FFF7C5FF01A8FFF78BFE606ABC
:1079A80008B1FEF721FAD4E90453182606FB03565A
:1079B800AE4204D0284603F05BF81835F8E7206992
:1079C800FEF75AFD2068FEF757FD204602B070BD4D
:1079D8000148FFF7D4BF00BF389707108842F8B5B1
:1079E80004460D46164615D9904214D2A2F1140643
:1079F800751AA1F114072C44B7421AD01CB13146AC
:107A08002046FFF735FE06F10800FFF7D7FD143EC4
:107A1800143CF1E70DD0B5420BD01CB129462046E5
:107A2800FFF726FE05F10800FFF7C8FD14351434EA
:107A3800F1E7F8BD2DE9F04F90460023462295B0B6
:107A48000391D8F8041004469942C0E90033C0E90C
:107A58000233C0E90433CDE9083302760A9323DC04
:107A6800D8E90057142303FB0757AF423BD02946F8
:107A78000BA803F07AF80BA90FA8099E03F075F874
:107A8800DDE9091399421BDA089B099A03EB0616EC
:107A9800314603EB021206F11000FEF7ECFEEEB9D8
:107AA800099B0133099311E008A8FEF70EFF00288F
:107AB800D6D108A8FFF796FD204615B0BDE8F08F8F
:107AC800013108A8FEF701FF0028DDD10FA802F058
:107AD800CFFF0BA802F0CCFF1435C6E730460FA93C
:107AE80003F043F8DCE700264FF01409CDE90B66F4
:107AF8000D96DDE908239E427CDA3301D3580693BC
:107B08000BB90136F5E70023079309FB06F30BAD24
:107B1800029307A906A8FFF72AFB82460028F0D09F
:107B28004FF0000301468DF817302846079A0DF1EB
:107B38001703FFF79DFB9DF817700190002F4AD19E
:107B4800BDF81C30CDE91177ADF840304FF6FF7322
:107B5800CDF83CA0ADF842301397D5E901329342F5
:107B680017DB03F1010ABAF1000F30DD09FB0AF057
:107B7800FEF774FC834660B3D5E9001209FB0212D4
:107B8800FFF72CFF2868FEF777FCC5F800B0C5F8AA
:107B980008A02B68019A09FB023A6A68514609FB5A
:107BA80002320AF11400FFF719FFBAF1000F03D0EF
:107BB80050460FA9FFF75CFD6B6801336B6011A895
:107BC800FFF7FCFC3FB10BA8FFF7F8FC71E7BB46D9
:107BD800D8E70127F3E7019B2D6809FB0355069BAE
:107BE8001B782BB9D8F80030029A13441B7CEB8021
:107BF80008358EE72168226062686360A36809928D
:107C08000A9A0A93E368A2600B9A0B932369E260CD
:107C18000C9A0C93636922610D9A0D93039B08914A
:107C280062612376CFE70000F0B504462646174682
:107C380087B00D4668461946FDF7BDFC0B4B6946F3
:107C480046F8043B03A8FDF7B6FC394603AA3046BC
:107C5800FFF7F0FE03A8FDF76DFC6846FDF76AFC28
:107C68002046034B2562236007B0F0BD6CB93F0284
:107C780088BB3F02F0B50F4685B038461C4916460A
:107C88001D460A9CFDF79EF8C0B9A4B1294601A873
:107C9800FFF701FD2420174903F063F9054630B1C9
:107CA80001AB32462146FFF7BFFF134B2B6001A8FB
:107CB800FDF740FC2C46204605B0F0BD38460F497C
:107CC800FDF780F890B9002CF5D0294601A8FFF7F8
:107CD800E2FC2420074903F044F905460028E6D0D1
:107CE8003246214601ABFFF79FFFE0E70024E2E7B9
:107CF8000CBB3F02ACBE3F02A0BB3F0210BB3F0221
:107D0800014B024A1A6070473497071021BB3F02A3
:107D18002DE9F047089DD0F8209004460E461746F6
:107D28009846FFF7A5F881454DD02B79190704D55A
:107D380020466A695449FFF700FBB8F1000F0DD0DF
:107D48005B212046FFF788FA41462046FFF775FA7F
:107D5800236802222046DB684C4998472B79DA07CA
:107D680024D5D5F808802F2140461DF043F908B1E5
:107D780000F1010841462046FFF75FFA2B799B077F
:107D880008D53A212046FFF767FA2046EA684049B5
:107D9800FFF7D3FA2A79236812F0040F20464FF030
:107DA8000202DB6814BF3B493B4998472B795807C7
:107DB8001DD529690B461A4613F8010B60B1202816
:107DC80008D11946F7E73548FEF779FC0028ACD00A
:107DD800BDE8F0872828EED12368521A2046DB68D0
:107DE8009847236804222046DB682D4998470021DC
:107DF8003846FEF7F1F901462046FFF71EFA2368D8
:107E080002222046DB68244998471EB131462046A5
:107E1800FFF713FA2B7913F0300F2CD02368214980
:107E2800DB680222204698472B79D9060AD52368B1
:107E3800072220461C49DB6898472046AA691B4947
:107E4800FFF77BFA2B799A0611D5DB0605D523684F
:107E580002222046DB680F499847236820461449C8
:107E68000A22DB6898472046E969FFF7E6F95D21B1
:107E78002046FFF7F1F923682046BDE8F0470222C3
:107E8800DB680C49184700BF25BB3F022CBB3F02EB
:107E980088BA3F022FBB3F0234BB3F02E49607106B
:107EA80032BB3F0237BB3F023ABB3F0242BB3F02F5
:107EB80045BB3F0250BB3F022DE9F0410446076A2B
:107EC8000D461646FEF7D4FF874207D0206A324691
:107ED80003682946BDE8F041DB6818470348FEF708
:107EE800EEFB0028F2D0BDE8F08100BFE496071051
:107EF8002DE9F04385B0D0F8209005460F4690460E
:107F08001E460C9CFEF7B4FF814505D14948FEF793
:107F1800D6FB002840F08A804FF000092B6A464AB9
:107F28006846CDE9023900928DF80490FEF787FE85
:107F380049464046FEF750F98046404901226846C6
:107F4800FEF70CFF4146FFF76AF93FB13C490122B1
:107F58006846FEF703FF3946FFF761F93EB1394934
:107F680001226846FEF7FAFE3146FFF758F92379F1
:107F7800DF070ED5A6682F2130461DF03BF800B16B
:107F8800461C314901226846FEF7E8FE3146FFF7F4
:107F980046F923799E0707D52C4902226846FEF741
:107FA800DDFEE168FEF758FE2379580714D52669E7
:107FB80033461F4613F8012B2AB1202A01D11E4649
:107FC800F7E7282AF5D1022221496846FEF7C6FEBE
:107FD8003146BA1BFEF7D2FE2379190707D51D498A
:107FE80001226846FEF7BAFE6169FEF747FE23796B
:107FF800DA0607D5184904226846FEF7AFFEA169DC
:10800800FEF72AFE23799B0607D5144906226846FF
:10801800FEF7A4FEE169FFF702F96846FEF7F9FDED
:10802800286A022203680E49DB68984705B0BDE854
:10803800F08300BFE496071070BB3F0202BB3F020B
:1080480059F43F025EFF3F02CCB83F0253BB3F02E8
:1080580056BB3F0209F03F0259BB3F025EBB3F02DD
:1080680050BB3F0210B50446FEF72AF8E0602368CB
:1080780020465B699847002808DAFEF721F8E3688C
:10808800C01AA3689842F2D34FF0FF3010BD2DE913
:10809800F04107460C460D468E18B542A5EB04087C
:1080A80007D03846FFF7DEFF031E02DB05F8013B69
:1080B800F3E74046BDE8F081F8B506460D460024D2
:1080C8008F18BD420CD0336830469B6815F8011BE9
:1080D8009847031E01DB1C44F3E7002C08BF1C462D
:1080E8002046F8BD13B50446084659B10191FCF77E
:1080F80073FE0246204623680199DB6802B0BDE89A
:108108001040184702B010BD08B5FFF7EBFF08BDD7
:1081180003689B6818470023012A98BF0A2230B5D4
:108128008BB08DF8243009AC0D46B1FBF2F101FBA0
:10813800125303F0FF03092B94BF30333733DBB2FC
:10814800AA4204F8013DEFD92146FFF7CBFF0BB057
:1081580030BD70477047704770470000064B10B538
:10816800994200F10C0405D0084614F025F90028BE
:1081780008BF0024204610BD54BA3F02064B10B574
:10818800994200F10C0405D0084614F015F90028AE
:1081980008BF0024204610BD54BA3F02064B10B554
:1081A800994200F10C0405D0084614F005F900289E
:1081B80008BF0024204610BD54BA3F0210B504463B
:1081C8006821FCF776FE204610BD10B5044628212C
:1081D800FCF76FFE204610BD10B504463021FCF7B1
:1081E80068FE204610BD6821FCF763BE2821FCF715
:1081F80060BE3021FCF75DBEF0B50025EC1C8C425A
:108208000DD86E1C875D445D974205D12644B14266
:1082180005D31D60601CF0BD01342544EEE7002045
:10822800F9E700000A20024A0249FDF7ABBF00BF88
:1082380095723D02E0BB3F0230B40D4611461A4626
:1082480003680968D3E900432868A44630BC60473E
:10825800012A38B5044602D10B68236003E0022ADC
:1082680003D0032A0DD0002038BD08200D68FCF784
:1082780018FE03460028F0D095E8030083E80300C1
:10828800EBE700680028EED00821FCF712FEEAE7C9
:1082980010B5836804462BB1032201469847002392
:1082A800C4E9023310BD10B5836804462BB103221C
:1082B800014698470023C4E9023310BD0023202259
:1082C80010B504468AB0CDE90223084A012000927D
:1082D800074902AAFDF764FF0023224620680549E2
:1082E80000880AB0BDE81040FDF7EEBD02BC3F02B1
:1082F800F7BB3F0229B03D0210B5013802EB41013E
:1083080010F8013F02321B0903F13004392C88BFF1
:1083180003F1370402F8024C037803F00F0303F16A
:108328003004392C88BF03F13704914202F8014C1C
:10833800E6D110BD10B504465830FEF793FA04F1A3
:108348004800BDE8104002F093BB38B50368054605
:108358008B420C4608D011B14B6801334B6028683A
:1083680008B1FEF77DFB2C6038BDA0F13003DAB20E
:10837800092A01D818467047A0F16103052B01D8D6
:1083880057387047A0F14103052B94BF37384FF099
:10839800FF307047002310B50370044B044618687B
:1083A800FDF730FD01232046237010BD64970710A8
:1083B80010B5037804461BB1024B1868FDF730FD71
:1083C800204610BD6497071082B06A4603460868C5
:1083D800496803C26A4603CA18601846596002B061
:1083E800704708B582798B799A4206D106221CF02B
:1083F800FDFBB0FA80F0400908BD0020FCE7000052
:1084080070B50446384B86B018689B880090ADF864
:108418000430364BA67918689B880290ADF80C306A
:108428007EB90622694620461CF0E0FB38B10622D8
:10843800204602A91CF0DAFB003818BF012006B05C
:1084480070BDA3882068ADF8143006F0FD03012B39
:10845800049024D19DF81550062205F03F05694681
:1084680004A88DF815501CF0C1FB00283AD065F01F
:108478003F05062202A904A88DF815501CF0B6FB8A
:1084880080B36079012E00F0C00004D1C02814BF69
:1084980000200120D3E7B0FA80F04009CFE7022E90
:1084A8001ED103229DF815500DEB020105F03F0582
:1084B8000DF113008DF815501CF098FB90B165F084
:1084C8003F0503220DF10B010DF113008DF8155036
:1084D8001CF08CFB30B1607900F0C0004028D6E772
:1084E8000120ACE70020AAE708B83F021EBC3F0203
:1084F8004FF0FF330360838000207047002102465D
:1085080008B501604160FFF7F3FF1046917108BD9F
:108518000123024610B50361044B03F1100153F81F
:10852800044B8B4242F8044BF9D110BD0EB83F0200
:108538000B7C30B513F0FD030DD1024603610C4BE3
:1085480003F1100453F8045BA34242F8045BF9D129
:108558000B88838130BD01230361034601F11002BA
:1085680051F8044B914243F8044BF9D1F2E700BFAC
:108578000EB83F0210B50B460446B1B1012A01F10D
:1085880010020AD1014653F8040B934241F8040B38
:10859800F9D101232361204610BD411E12F8010DB7
:1085A8009A4201F8010FF9D1F3E710221CF055FBAC
:1085B800F1E738B504460D46FFF7AAFF0023204629
:1085C8002361A58138BD08B502690B699A4206D1B5
:1085D80010221CF00BFBB0FA80F0400908BD002007
:1085E800FCE7000001232DE9F3410246064603613A
:1085F800334B0C4603F1100153F8040B8B4242F83D
:10860800040BF9D144B3242120461CF0E7FC0428CC
:108618004FF0000523D1ADF8045001AFA51C063476
:1086280015F8020CFFF7A1FEB0F1000812DB15F8EF
:10863800010CFFF79AFE00280CDB023540EA08100F
:10864800A54207F8010BEBD19DF8053033739DF86F
:10865800043073730023336102B0BDE8F0814FF03A
:108668001008242120461CF0B9FCA84207D842462D
:108678000021304602B0BDE8F0411CF0EEBAB8F176
:10868800000FE9D0605DFFF770FE030615D4000106
:10869800C7B208F1FF382421204606F808701CF0FC
:1086A8009DFC0135A84208D9605DFFF75EFE40B227
:1086B8000028A4BF384306F808000135D1E700BFF9
:1086C8000EB83F0213B504460191FFF721FF20467B
:1086D8000199FFF787FF204602B010BD10B500F1E1
:1086E8000F0301391C78834201F8014F03F1FF336E
:1086F800F8D110BD2DE9F0411F460D468EB0002976
:108708005BD0DAB1D0F81080541EB8F1000F19D13F
:10871800838902215BBA05AA01A8ADF80430CDF817
:108728001480FFF7E9FD042C28BF042428462246BC
:1087380005A91CF06BFA621C05F8048010460EB0FF
:10874800BDE8F08101A9FFF7C9FF05AA7FB1102193
:1087580001A8FFF7D1FD242C28BF2424284622464F
:1087680005A91CF053FA0023621C2B55E6E70421E7
:108778002D260DEB0100FFF7BFFD02210DF11D02B3
:1087880002A88DF81C60FFF7B7FD02210DF1220247
:108798000DF10A008DF82160FFF7AEFD02210DF101
:1087A800270203A88DF82660FFF7A6FD06218DF89D
:1087B8002B600BAA0DF10E00CBE70A46BEE710B5F9
:1087C80004468AB00023252208466946FFF792FF2F
:1087D8006946204602F097F920460AB010BDF7B561
:1087E800054616461F460A46D0E9000101ABFFF7C9
:1087F80003FD30F002040CD0841EBC4228BF3C4666
:108808003EB101992B6802312246304619441CF0CA
:10881800FDF9204603B0F0BD37B513460C4601926A
:108828000A4608210546FFF7DAFF40B92246092122
:108838002846019B03B0BDE83040FFF7D0BF03B026
:1088480030BD0000F0B50C4689B00C49054602F071
:108858005AF91F2269462046FFF7DEFF064650B147
:108868006C460027284614F8011B02F0D1F910B114
:108878000137BE42F6D1284609B0F0BD52BB3F02CF
:1088880007B50223192101AAFFF7A9FF08B1BDF80E
:10889800040003B05DF804FB38B54FF6FF730025FC
:1088A800044643800E2229460570057106301CF0E7
:1088B800D4F904F11400FFF72BFE04F12800FFF7A8
:1088C80027FE044904F13C0002F01DF920466565C5
:1088D80038BD00BF52BB3F0238B50D68044601469B
:1088E80005F12800FFF76FFE40B1AB89A28A9A42D2
:1088F80005D8E08A984234BF0020012038BD002006
:10890800FCE710B5D0E9063203EBC20293421846E1
:1089180005D00468083324888C42F7D110BD0020A4
:10892800FCE70000002370B5036005466820FCF7EB
:10893800B8FA041E04F10C0607D00123C4E9013378
:10894800044B30462360FFF7A7FF2846C5E90064BB
:1089580070BD00BFE8BD3F0270B5054606460C680D
:1089680014340FCC0FC5236830462B6070BD00004F
:10897800F0B506461F460D4685B0002950D0002A9E
:108988004ED00468F42A237828BFF42243B323790D
:10899800980709D50023A0890392FDF787FA0028D4
:1089A800039A03DA05B0F0BD6FF0770034682379D5
:1089B800D90609D5012F07D000232946A08905B07B
:1089C800BDE8F040FDF7F0BA9B06EBD5022FE9D0E1
:1089D80000232946A08905B0BDE8F040FDF7F2BAAA
:1089E8004FF6FF71608888421CD021794E0701D567
:1089F800012F04D10B0709D46FF07700D2E7A189C2
:108A0800009313462A46FDF789FACBE7022FF3D0E5
:108A18000023A189009313462A46FDF771FAC1E79E
:108A28000248BFE76FF0D100BCE700BFF2FEFFFFCE
:108A380010B5036886B01A7852BB4FF6FF705C8891
:108A4800844225D0188A30B3CDE903220592134A0F
:108A58000092134ACDE901235A88ADF80C201A8AEE
:108A6800ADF80E209A89ADF8102059B11A799206FE
:108A780044BF022205921B79DB0642BF059B43F0E7
:108A88000103059300216846FDF780FA06B010BD82
:108A98006FF0D100FAE76FF07700F7E703001800EE
:108AA800799E3D02F8B50026054606602820FCF7A9
:108AB800F8F9041E04F10C070AD00123C4E90133B4
:108AC800054B38462360FFF723FD266284F82460AF
:108AD8002846C5E90074F8BD04BE3F0270B50025FC
:108AE800064605603020FCF7DCF9044698B10123FE
:108AF800C0E901330A4B0E3040F80E3C4FF6FF73C5
:108B080020F8023CFFF7FAFCC4E90655C4E9085509
:108B1800C4E90A55A57574600C343046346070BDDC
:108B280020BE3F0213B5044601A8FFF733FC2368B3
:108B380001A81C884FF6FF73E41A18BF0124FFF739
:108B480037FC204602B010BD37B50C46054601A8D3
:108B5800FFF720FC23682A6801A8C2F8023063687E
:108B6800C2F80630FFF724FC03B030BD37B50D4618
:108B7800044601A8FFF70EFC2A6801A8D2F80230C3
:108B88002360D2F806306360FFF712FC204603B07A
:108B980030BD30B505460C4687B001A8FFF7FAFB93
:108BA8002A68236812881B889A420DD1294602A890
:108BB800FFF7DCFF214604A8FFF7D8FF04A902A8A5
:108BC800FFF70FFC044600B9002401A8FFF7F0FBEB
:108BD800204607B030BD000070B506467420FCF78B
:108BE80060F90446A0B10025C0E90055C0E9025566
:108BF800C0E90455C0E9065505622430FFF76EFF49
:108C080004F12C00FFF76AFFE563E564E565E566B6
:108C1800346024B90A200A4A0A49FDF7B3FA002049
:108C2800FDF70CF920B10A20054A0749FDF7AAFA11
:108C3800002231680548FDF79BF9304670BD00BF3A
:108C480095723D02E0BB3F0225BC3F0235A73D02BD
:108C580010B50A4CD4E88F3FDB070CD42046FCF74C
:108C68003BF940B10648FFF7B7FF2046FCF739F952
:108C780004481BF0A2F9024810BD00BF6097071016
:108C880068970710E5A93D0230B503680446093B1B
:108C9800012B0D468DB011D8FFF7DAFFA1880068C7
:108CA800FFF72FFE034658B92022CDE904200B4ACE
:108CB800322000920A4904AAFDF772FA0DB030BDBD
:108CC8006A6D002AFAD0D4E9032105F14C00CDE9F8
:108CD8000312AC6D04AA03A9A047EFE767BC3F02E3
:108CE800F7BB3F0208B50020FDF7A8F800EAE070DE
:108CF80008BD000070B504460E4615461830FFF74B
:108D0800C7FA04F12800FFF7CEFA00222146C4E989
:108D180003650348FDF7A0F80028A8BF606970BD87
:108D280031B83D0210B504464069FDF7A5FBA068BF
:108D3800FDF7A2FB204610BD002247F67F71C0E96F
:108D48000022C0E90222C0E90422C0E90E22C0E9DB
:108D58001022C0E91222C0E91422C0E91622C0E993
:108D68001822C0E91B22C0E91E2202620263A0F891
:108D7800681080F87420C0F8802070470368D869AC
:108D88000028D4BF00200120704710B504460068B1
:108D9800FDF772FB204610BD70B504462426806F8F
:108DA800FDF76AFBE06DFDF767FB206DFDF764FBDF
:108DB80004F1380504F14400FFF7E7FF2846FEF701
:108DC80011FC04F12800FDF74DFD04F11800FDF732
:108DD80049FDD4E9005306FB0356AE4204D02846A9
:108DE800FFF7A0FF2435F8E72068FDF745FB20468C
:108DF80070BD000030B515460C46A3B079B172B10C
:108E080001A8FFF799FF21462A4601A8FFF772FF3C
:108E1800044601A8FFF7C0FF204623B030BD014C2F
:108E2800FAE700BFF2FEFFFF38B5141E0546436897
:108E380002DB62189A4200DD5C1A2A685018011990
:108E48001A44521A1BF0EFFE6A68121B6A6038BD9A
:108E580038B500230446836008200D46FCF721F846
:108E680018B12B6803606B684360034B2060E360B4
:108E7800024B2046A36038BD29943D0241943D022F
:108E88000B68036013B15A6801325A60704710B515
:108E9800044651F8043B40F8043BFFF7F1FF236810
:108EA8000BB9FFF7BFF9204610BD10B5044651F8BD
:108EB800043B40F8043BFFF7E3FF204610BD10B524
:108EC800044651F8043B40F8043BFFF7D9FF20461D
:108ED80010BD10B504460430FDF760FF204610BDF4
:108EE80070B50446D0E9005305EBC306AE4204D082
:108EF800281DFDF753FF0835F8E72068FDF7BCFA91
:108F0800204670BD70B50446D0E9005305EBC30692
:108F1800AE4204D0281DFDF741FF0835F8E7206868
:108F2800FDF7AAFA204670BD10B504462430FFF7B5
:108F3800E9FF04F11800FFF7D3FF10BD826810B5F0
:108F48000AB90DF062FCC368BDE810401847002359
:108F58002DE9F047C0E900338360D1F80480054665
:108F680098450F464ADD4FEA0810FDF777FA06469E
:108F7800002843D0D5E90041A04204EB011A16D9D4
:108F8800504515D2AAF1100AA4F11009AAEB04045D
:108F98000444D1451DD01CB15146204601F0E5FDE1
:108FA800504601F065FDAAF1100A103CF1E710D017
:108FB800B146A2450DD0B9F1000F03D0214648466D
:108FC80001F0D3FD204601F053FD103409F11009DA
:108FD800EFE72868FDF750FAC5F808802E60D7E952
:108FE800004304EB0318A04506D02146304601F0A3
:108FF800D6FD10341036F6E77B686B602846BDE86E
:10900800F08730B58DB00C4600F1380101A8FFF7A4
:109018009EFF029B002B2FDD04F1140104A8FFF72B
:1090280011FC04F1080108A8FFF70CFC0A9A069B3A
:1090380013431FD0DDE9014504EB0515AC4219D0F7
:10904800204604A901F006FE60B1012408A801F039
:109058000FFD04A801F00CFD01A8FEF7C3FA204695
:109068000DB030BD204608A901F0F4FD10340028E9
:10907800E4D0EAE70024E9E70124EDE770B5044607
:109088000020C4E90000A0604E680D46864212DD4B
:109098007100FDF7FFF970B12060A660D5E90032D4
:1090A80003EB42029A4204D033F8021B20F8021B59
:1090B800F8E76B686360204670BD10B50379044615
:1090C80023B90368186808B1FDF7D6F9204610BD22
:1090D80010B50379044623B90368186808B1FDF789
:1090E800CBF9204610BD00002DE9F043D0F86C8084
:1090F8000F468FB0B8F1000F72D0056F002D6FD0FA
:1091080001F114091F230022FF214846FFF767FBDE
:10911800FF2308370446002219463846FFF75FFB4D
:10912800AC42064606D0AE4230D0002420460FB0EE
:10913800BDE8F0832046FDF791F903AB04930023C3
:10914800044603908DF8143070B92023CDE9063019
:10915800244B2549009306AA03463220FDF720F840
:1091680004A8FFF7AAFFE1E70246FF212B4648467D
:10917800FFF735FB2A46414603981BF037FD18B127
:1091880004A8FFF79AFFCEE70124E9E72846FDF790
:1091980065F9002403AB0646039004938DF8144048
:1091A80078B92023CDE906300E4B0F49009306AA63
:1091B80003463220FCF7F4FF344604A8FFF788FF83
:1091C800B4E70246FF212B463846FFF708FB2A463C
:1091D800414603981BF00AFD0028EED10124ECE774
:1091E8000124A3E77FBC3F02F7BB3F0238B50D1E41
:1091F8000446006803DDFDF74DF918B938BDFDF7E1
:109208003BF900202060A5600120F7E708B58368D6
:109218008B4202DAFFF7EAFF08BD0120FCE738B508
:109228000023C0E9003383600D464968044699422B
:1092380010DDFFF7DBFF68B1D5E90031226819447A
:10924800994205D00AB11878107001330132F7E756
:109258006B686360204638BD38B504460D460B6818
:10926800083040F8083C4B68083140F8043CFFF7E8
:10927800D6FF05F1140104F11400FFF7D0FF95F8AB
:109288002030204684F8203038BD1FB5044601A898
:10929800FFF7C5FF019B029A20682360636862603C
:1092A800039A0293A368A26001900393FDF7E4F880
:1092B80004B010BD2DE9F0410F4641681D46194420
:1092C800836804469942904612DC266862683E44E8
:1092D8003146D21B70191BF0A6FC2A46414630467F
:1092E8001BF094FC012063682B446360BDE8F081A7
:1092F800FFF77CFF0028E8D1F8E713460A4600216B
:1093080010B50446416002B10BB9002010BDFF2B17
:1093180028BFFF23FFF7CEFF0028F7D06068F5E7E6
:10932800F8B50D46D0E901139942044616460BDA02
:10933800276862687919521B481C1BF074FC7E551B
:10934800636801336360F8BD0131FFF74FFF002800
:10935800EED1F8E70A464168FFF7E2BF2DE9F74387
:1093680004461D460F4601AB90460A46D0E9000167
:109378009DF82890FEF740FFAE1C02466368B9F1DD
:10938800000F26D128B333441B1AFF2B09D82046D7
:109398000199FFF749FD616820463144FFF736FF20
:1093A80018B9606803B0BDE8F0836A1C20460199CB
:1093B800D2B2FFF7B5FF01993A4601312046FFF7CF
:1093C800AFFF2B464246019902312046FFF772FF54
:1093D800E7E7F118FF29E4D82046FFF717FF002830
:1093E800DFD0691C2046C9B2FFF7B4FF39462046D2
:1093F800FFF7B0FF2B4642466168E6E730B49DF8B8
:1094080008501AB1029530BCFFF7A8BF406830BCBD
:1094180070471FB500230622C0E90033836000931C
:10942800012304468DF80F2019460DF10F02FFF7AE
:10943800E5FF204604B010BD8842F8B504460D4645
:10944800164614D9904213D2A2F10806751AA1F152
:1094580008072C44B74218D01CB131462046FFF704
:109468002EFD301DFDF79AFC083E083CF2E70CD0B3
:10947800B5420AD01CB129462046FFF720FD281D19
:10948800FDF78CFC08350834F2E7F8BDF7B504465B
:1094980046686846FFF713FDD4E901739F4212DB63
:1094A8000137002F29DDF800FCF7D8FF0546F0B199
:1094B800D4E9001201EBC202FFF7BEFF2068FCF7F7
:1094C800DBFF2560A7602368626803EBC6063146A8
:1094D80003EBC20206F10800FFF7AEFF1EB16946B2
:1094E8003046FFF7ECFC012563680133636001A88F
:1094F800FDF754FC284603B0F0BD0025DEE7F8B5BB
:109508000546D0E900430F4604EBC306A64205D042
:1095180039462046FFF73DFB08B114B9F8BD0834B9
:10952800F4E7201DFDF73AFCD5E90032204603EBAD
:10953800C20204F10801FFF77FFF6B68013B6B6013
:10954800ECE700002DE9F041054690B005A80C466F
:10955800FEF720FF2E68F31E0D2B6AD8DFE813F004
:109568000E0078006900FE00690069006900690062
:109578006900C800C800C800C800C800606A04F1D3
:1095880018060230FEF73CFF38B32146AA8951F885
:10959800243F08A81A80FFF792FC08A93046FFF775
:1095A80075FF09A8FDF7FAFB08A8FFF797FA089BCB
:1095B80004F1280009996362FEF7C7FE09A8FDF7C0
:1095C800EDFB20210023CDE908136E4A009201200B
:1095D8006D4908AAFCF7E4FD2BE006A8FFF77EFA20
:1095E800AA89069B1A806968069808310230FEF736
:1095F800EBFE06A908A8FFF762FC304608A9FFF7AA
:1096080045FF054609A8FDF7C9FBC5B92023CDE9E3
:1096180008355E4B01205C49009308AA2B46FCF7ED
:10962800BFFD069B29461888FCF732FC07A8FDF702
:10963800B5FB05A8FEF7BCFE10B0BDE8F081E36BF2
:1096480023B106A904F13400FFF778FC07A8B6E7B0
:10965800A9892046FFF755F901460028E9D003906B
:1096680004F12C00FFF795FA04F11807039940B1AB
:109678003846FFF744FF20220023CDE90823444A57
:10968800A4E74FF6FF700D68D5E90632288003EB92
:10969800C2029A4203D053F8086B7080F9E7D5E903
:1096A800036306EBC308B04506D0301D03910836A6
:1096B800FDF774FB0399F6E700232B61D5E90663F0
:1096C80006EBC308B04506D0301D03910836FDF7F8
:1096D80065FB0399F6E70023EB61AB72E36C002BA3
:1096E800C6D004F144000391FFF728FC0399BFE7B3
:1096F8002046A989FFF705F900289AD0E36D002BC9
:1097080097D000230D2EADF81E3001D0102E17D1A2
:10971800002369681A4606258DF81D3006910BABA3
:109728008DF81C2008908DF82460DDE906010A9563
:1097380083E80300236E08A904F15400984778E7EA
:109748000F2E01BF2B7A696803F0010208251DBF9F
:109758001A4619461D46C3F34003DDE7A98920468A
:10976800FFF7CFF8014600283FF463AFE36E002B04
:109778003FF45FAF6B6808AA089304F16400236F95
:10978800984756E7C0BC3F02F7BB3F029ABC3F026E
:10979800CABC3F0270B504466430FDF763F804F1B3
:1097A8005400FDF75FF804F14400FDF75BF804F19D
:1097B8003400FDF757F804F13000FDF7EFFA04F133
:1097C8002800FDF7EBFAD4E9065305EBC306AE42D1
:1097D80004D0281DFDF7E2FA0835F8E7A069FCF780
:1097E8004BFE04F10C00FFF78DFB2046FFF778FBDA
:1097F800204670BD10B5064B1C6844B12046FFF7E3
:10980800C9FF2046BDE810407421FBF752BB10BDCC
:109818006897071038B50D1E0446006805DD142149
:109828006943FCF737FE18B938BDFCF725FE002060
:109838002060A5600120F7E72DE9F8430024C0E97E
:1098480000448460884649680746A1421CDDFFF74A
:10985800E1FFC8B1D8E900934FF0140C0CFB039C4E
:10986800D7F800E009EB0405AC450AD01EEB040666
:109878001EBF0FCD0FC62B6804F1140418BF336048
:10988800F0E7D8F804307B603846BDE8F8832DE966
:10989800F84345688368D1E90087E9199942044685
:1098A80017DC142362685D4303FB07F95A432668F3
:1098B800521B2E44314606EB09001BF0B4F94A4608
:1098C800414630461BF0A2F963683B446360BDE83B
:1098D800F883FFF79FFF0028E3D1F8E782B070B55F
:1098E8000C4604A981E80C00D0E901139942054609
:1098F80017DA14236A6803FB04F15A432C68521AD6
:109908000C442146E01804AE1BF08DF90FCE0FC4AD
:10991800336823606B6801336B60BDE8704002B048
:1099280070470131FFF776FF0028E2D1F5E72DE90E
:10993800F04F002405460F469046931EC0E90044A8
:1099480093B0DBB28460059379688C4272DA386828
:10995800424607AB091B2044FEF74EFC064600288A
:1099680068D0059B012B2FD84FF00009A0F1020BFE
:109978004FEA5B0B0DF13C0A079BCB45234455D0BE
:109988003A6803EB49031344D9789B7808A843EA5B
:109998000121FEF70EFE0DF1340C0DF1200EBEE88C
:1099A8000F00ACE80F00DEF8003009F10109CCF82F
:1099B80000309AE807008DE807000DAB28460CCB6D
:1099C8006968FFF78BFFD7E7A8F10603012B2DD8AD
:1099D8004FF00009A0F1020B4FEA1B1B0DF13C0AE6
:1099E800CB45079B22D002333968234403EB091384
:1099F8000122194408A8FEF7BDFD0DF1340C0DF144
:109A0800200EBEE80F00ACE80F00DEF8003009F1C8
:109A18000109CCF800309AE807008DE80700DDE975
:109A28000D2328466968FFF759FFD9E7079B1C44AF
:109A3800344489E7284613B0BDE8F08F002330B5D9
:109A480004460D4685B0C0E900338360022201A8B0
:109A5800FFF76DFF01A92046FFF719FF01A8FFF7DF
:109A680094F90222294601A8FFF761FF01A92046BF
:109A7800FFF70DFF01A8FFF788F90322294601A87F
:109A8800FFF755FF01A92046FFF701FF01A8FFF7DF
:109A98007CF90622294601A8FFF749FF01A92046BB
:109AA800FFF7F5FE01A8FFF770F90722294601A87C
:109AB800FFF73DFF204601A9FFF7E9FE01A8FFF7E0
:109AC80064F9204605B030BD2DE9F04385B08846DD
