:02000004085F93
:10B0000000B05F08FCFF5F0800000600200005019B
:08B010000401501400000000CF
:10B018000E480F4908B5884205D00E4A824202D030
:10B028000D4B121A98470D480D4A00210D4B121A64
:10B0380098470D480D49884205D00D4A824202D0F2
:10B04800054B121A9847014808BD00BF74A907109C
:10B0580018FD5F08ECA907102D0D1110ECA90710B9
:10B06800E8AF0710A10E111068B33F0288B05F085F
:0CB07800F8FF3F0219B05F080000000064
:08B088007CB05F0858F93F029B
:10B0900010F8012B11F8013B012A28BF9A42F7D082
:10B0A000D01A7047034613F8012B002AFBD1181A57
:10B0B0000138704770B501F013FA0025054E064CB3
:10B0C000A41BA408AC4200D170BD56F8043B9847BD
:10B0D0000135F7E7D4FF3F02F8FF3F0200F078B8F0
:10B0E00008B500F07DF8BDE8084001F0B1B900F006
:10B0F000FDBC00F0FBBC00F007BD00000C2008B553
:10B10000024A034900F0B0FBFEE700BFD9BA3F0294
:10B1100068F93F020078B0FA80F0400970470123D7
:10B120000370704770477047002210B50446044B07
:10B13000114640F8043B00F0DDFB204610BD00BF87
:10B14000E4F93F0210B50446FFF7EEFF2046202148
:10B15000FFF7D1FF204610BD10B50446094B036030
:10B1600001F088FB214601F0D1FD01F09DF801F0CE
:10B170008FF82046044B40F8043B01F063FC204666
:10B1800010BD00BFF8F93F02CCF93F0210B50446EC
:10B19000FFF7E2FF20462421FFF7ADFF204610BD58
:10B1A0000EB44FF0200C002300B58CB00DAA52F85D
:10B1B000041BCDE904C3CDE900120392016804AA7F
:10B1C0001E2000F06DFB0CB05DF804EB03B070477F
:10B1D00008B502F041FCBDE8084002F059BC00008F
:10B1E0002DE9F04F95B002F037FC322102F096FCC9
:10B1F00002F032FC1E22334902F0DAFC0025314C09
:10B20000DFF8CC80DFF8CCA0DFF8C0B00690069B5A
:10B210009D424EDA1F23FF210CAA04F1080002F020
:10B2200018FB072842D19DF830309DF8312013409B
:10B23000FF2B3BD19DF83230552B37D194F920307C
:10B24000002120460B93DDF8336002F013FA012150
:10B250000790204602F00EFA02210890204602F0E4
:10B2600009FA03210990204602F004FA04210A9009
:10B27000204602F0FFF905210746204602F0FAF9C0
:10B28000099B0A9A0293089BCDE904700193079BDE
:10B290000392009332460B9B51465846FFF780FFBE
:10B2A00094F920304345C4BF9846B1460135243453
:10B2B000ADE74A4604490548FFF772FF15B0BDE8FF
:10B2C000F08F00BF30AA0710BDF93F02B8AE0710DB
:10B2D00019FCFFFF7DF93F0270B51426D0E9005339
:10B2E000044606FB0356AE4204D0284603F040FD58
:10B2F0001435F8E7206800F007FC204670BD88424E
:10B30000F8B504460D46164616D9904215D2A2F15C
:10B310001406751AA1F114072C44B7421CD02CB1A5
:10B320003146204603F0A0FD337C2374304603F001
:10B330001FFD143E143CF0E70ED0B5420CD02CB1EA
:10B340002946204603F090FD2B7C2374284603F009
:10B350000FFD14351434F0E7F8BD00232DE9F0415A
:10B36000C0E9003383604F6804469F420E4624DDE7
:10B370004FF0140808FB07F000F0B8FB0546E0B1F9
:10B38000D4E9001208FB0212FFF7B9FF206800F0B1
:10B39000BBFB2560A760D6E9007308FB0378B845BE
:10B3A00009D03946284603F079FD3B7C143505F871
:10B3B000043C1437F3E7736863602046BDE8F0810E
:10B3C000002370B58EB0CDE90233049300F06CFF1A
:10B3D000054602A905A8FFF7C0FF05A908A8274C44
:10B3E000FFF7BBFF264B08A923600BA8FFF7B5FFAB
:10B3F0000BAA0121201D01F06BFD0BA8FFF76CFFCC
:10B4000008A8FFF769FF1F4B2562236005A8FFF717
:10B4100063FF1D4B1E25236000F046FF4FF41651BD
:10B4200000F032FF01F026FA214601F029FC02A8C3
:10B43000FFF752FF7F26154C204602F0B9F904F1C0
:10B44000080002F0DAFE04F1140002F0D6FE013D1D
:10B4500084F8206004F12404EED12A46142101204E
:10B4600000F01AFB01221E210346CDE90012084814
:10B470006FF07F4100F0B0FB0EB070BD0CAA07105A
:10B48000CCF93F0288FB3F02F8F93F0230AA0710CF
:10B49000ECA9071009B504480068044B03441B6875
:10B4A0001B68029309BD000074A907103400000056
:10B4B00009B504480068044B03441B685B680293A9
:10B4C00009BD000074A907103400000009B5044844
:10B4D0000068044B03441B689B68029309BD00008D
:10B4E00074A907103400000009B504480068044B33
:10B4F00003441B681B69029309BD000074A907106F
:10B500003400000009B504480068044B03441B687C
:10B510005B69029309BD000074A9071034000000A4
:10B5200009B504480068044B03441B689B690293F7
:10B5300009BD000074A907103400000009B50448D3
:10B540000068044B03441B68DB69029309BD0000DB
:10B5500074A907103400000009B504480068044BC2
:10B5600003441B681B6A029309BD000074A90710FD
:10B570003400000009B504480068044B03441B680C
:10B580009B68029309BD000074A907102400000005
:10B5900009B504480068044B03441B68DB68029348
:10B5A00009BD000074A907102400000009B5044873
:10B5B0000068044B03441B681B69029309BD00002B
:10B5C00074A907102400000009B504480068044B62
:10B5D00003441B685B69029309BD000074A907104E
:10B5E0002400000009B504480068044B03441B68AC
:10B5F0009B69029309BD000074A907102400000094
:10B6000009B504480068044B03441B68DB690293D6
:10B6100009BD000074A907102400000009B5044802
:10B620000068044B03441B681B6A029309BD0000B9
:10B6300074A907102400000009B504480068044BF1
:10B6400003441B689B6A029309BD000074A907109C
:10B650002400000009B504480068044B03441B683B
:10B66000DB6A029309BD000074A9071024000000E2
:10B6700009B504480068044B03441B681B6C029323
:10B6800009BD000074A907102400000009B5044892
:10B690000068044B03441B685B69029309BD00000A
:10B6A00074A907104C00000009B504480068044B59
:10B6B00003441B685B6C029309BD000074A907106A
:10B6C0003000000009B504480068044B03441B68BF
:10B6D0009B6C029309BD000074A9071030000000A4
:10B6E00009B504480068044B03441B68DB6C0293F3
:10B6F00009BD000074A907103000000009B5044816
:10B700000068044B03441B685B6D029309BD000095
:10B7100074A907103000000009B504480068044B04
:10B7200003441B689B68029309BD000074A90710BD
:10B730006000000009B504480068044B03441B681E
:10B740005B6F029309BD000074A907106000000040
:10B7500009B504480068044B03441B689B6F0293BF
:10B7600009BD000074A907106000000009B5044875
:10B770000068044B03441B68DB6F029309BD0000A3
:10B7800074A907106000000009B504480068044B64
:10B7900003441B68D3F88430029309BD74A90710D1
:10B7A0006000000009B504480068044B03441B68AE
:10B7B000D3F89830029309BD74A907106000000007
:10B7C00009B504480068044B03441B68D3F8F03003
:10B7D000029309BD74A907106000000009B5044870
:10B7E0000068044B03441B685B68029309BD0000BA
:10B7F00074A907100000000009B504480068044B54
:10B8000003441B68DB68029309BD000074A907109C
:10B810000000000009B504480068044B03441B689D
:10B820005B69029309BD000074A9071000000000C5
:10B8300009B504480068044B03441B689B680293E5
:10B8400009BD000074A907105000000009B50448A4
:10B850000068044B03441B68DB68029309BD0000C9
:10B8600074A907105000000009B504480068044B93
:10B8700003441B685B6B029309BD000074A90710A9
:10B880004800000009B504480068044B03441B68E5
:10B890001B6D029309BD000074A907104800000049
:10B8A00009B504480068044B03441B685B6D0293B0
:10B8B00009BD000074A907104800000009B504483C
:10B8C0000068044B03441B68DB6E029309BD000053
:10B8D00074A907104800000009B504480068044B2B
:10B8E00003441B681B6F029309BD000074A9071075
:10B8F0004800000009B504480068044B03441B6875
:10B90000D3F88030029309BD74A9071048000000E5
:10B9100009B504480068044B03441B68DB6B0293C1
:10B9200009BD000074A907102C00000009B50448E7
:10B930000068044B03441B685B68029309BD000068
:10B9400074A907102800000009B504480068044BDA
:10B9500003441B689B68029309BD000074A907108B
:10B960002800000009B504480068044B03441B6824
:10B97000DB68029309BD000074A9071028000000CD
:10B9800009B504480068044B03441B681B69029313
:10B9900009BD000074A907102800000009B504487B
:10B9A0000068044B03441B685B69029309BD0000F7
:10B9B00074A907102800000009B504480068044B6A
:10B9C00003441B689B69029309BD000074A907101A
:10B9D0002800000009B504480068044B03441B68B4
:10B9E000DB69029309BD000074A90710280000005C
:10B9F00009B504480068044B03441B681B6A0293A2
:10BA000009BD000074A907102800000009B504480A
:10BA10000068044B03441B681B6B029309BD0000C4
:10BA200074A907102800000009B504480068044BF9
:10BA300003441B685B6B029309BD000074A90710E7
:10BA40002800000009B504480068044B03441B6843
:10BA50001B6C029309BD000074A9071028000000A8
:10BA600009B504480068044B03441B685B6C0293EF
:10BA700009BD000074A907102800000009B504489A
:10BA80000068044B03441B685B68029309BD000017
:10BA900074A907100800000009B504480068044BA9
:10BAA00003441B68DB6F029309BD000074A90710F3
:10BAB0000800000009B504480068044B03441B68F3
:10BAC000D3F88830029309BD74A90710080000005C
:10BAD00009B504480068044B03441B68D3F894304C
:10BAE000029309BD74A907100800000009B50448B5
:10BAF0000068044B03441B681B68029309BD0000E7
:10BB000074A907100400000009B504480068044B3C
:10BB100003441B685B68029309BD000074A9071009
:10BB20000400000009B504480068044B03441B6886
:10BB30009B68029309BD000074A90710040000006F
:10BB400009B504480068044B03441B685B6A029310
:10BB500009BD000074A907100400000009B50448DD
:10BB60000068044B03441B68DB6A029309BD0000B4
:10BB700074A907100400000009B504480068044BCC
:10BB800003441B68DB6B029309BD000074A9071016
:10BB90000400000009B504480068044B03441B6816
:10BBA0001B6C029309BD000074A90710040000007B
:10BBB00009B504480068044B03441B685B6C02939E
:10BBC00009BD000074A90710040000000B460A68B4
:10BBD000014692681846104770B50E4C0025046067
:10BBE0001C24C0E901459DF814409DF8106004F044
:10BBF000030444EA8604E4B2047442748574416127
:10BC0000427CC5600F2A0ABF034B0383C0E906309C
:10BC100070BD00BFE4F93F02ADBE3F0200234068A3
:10BC20001A46FFF783BE002202214068FFF79ABE42
:10BC3000002240681146FFF787BE00224068114687
:10BC4000FFF79EBE002340681A461946FFF7A6BEBE
:10BC5000002340681A461946FFF7AEBE002140682F
:10BC6000FFF7F0BE00214068FFF7FABE00224068EF
:10BC700081F00101FFF7AEBE00224068FFF7C6BEAB
:10BC8000002240681146FFF7CFBE002240681146EF
:10BC9000FFF7AEBE2DE9F04395B014460D460746BA
:10BCA00000F060FB00211C220DA8009103F065FB51
:10BCB000402320460C9300216B460CAAFFF7C6FDDB
:10BCC000044600284BD1024601216868FFF758FE60
:10BCD0000221804622466868FFF752FE21468146CF
:10BCE000009E002E3BD0002939D17368022B03D06F
:10BCF0000A2B11D0F669F4E7B8F1000FFAD0716998
:10BD000006A804313C1D07AD00F05AFB0FCD0FC44F
:10BD10002B6841462370EDE7B9F1000FEAD01022FD
:10BD200001A8746903F029FB062301AD8DF81430D6
:10BD300004F1080318342A4618685968083303C206
:10BD4000A3421546F7D101A906A83C1D07AD00F096
:10BD500017FB0FCD0FC42B6849462370CAE7009824
:10BD6000FFF766FD384615B0BDE8F083024B034A85
:10BD70001A6000225A60704768AE071010FA3F023E
:10BD8000002240681146FFF7FBBD002240681146C3
:10BD9000FFF72EBE002240681146FFF745BE002285
:10BDA0004068FFF733BE0022406881F00101FFF7D1
:10BDB00011BE002340681A461946FFF7FDBD002357
:10BDC00040681A461946FFF7E9BD0022406811464F
:10BDD000FFF7BABD002202214068FFF7C3BD002370
:10BDE00040681A46FFF7A2BD0422024B5A60024A7D
:10BDF0001A60704770AE07104CFA3F02012200F142
:10BE0000100313F8101C1846012908D153F8041C1C
:10BE100002EB4102013A03F11003F2D1704702290B
:10BE200004BF53F8041C5218F4E70EB4F0B588B000
:10BE3000102100AF07F1340555F8042B04462B46BA
:10BE400078187A60FD60FFF77BFE0F287A681AD9B0
:10BE500000F1080323F007036E46ADEB030D411C10
:10BE60002B466846FD60FFF76BFE021E04DD23686B
:10BE7000694620469B689847B5462037BD46BDE8D1
:10BE8000F04003B070470028F7D0236802469B6853
:10BE9000204607F110019847EFE710B543680446C4
:10BEA000013B436063B903689B689847A368013B03
:10BEB000A3602BB923682046BDE81040DB68184713
:10BEC00010BD38B50B68044603604D6843689D4259
:10BED00008D015B16B6801336B60606808B1FFF77B
:10BEE000DCFF656038BD07B503688DF807100122D7
:10BEF0009B680DF10701984703B05DF804FB0B4602
:10BF00001146002210B50446C0E9002283600BB937
:10BF1000204610BDFFF7D5FFFAE78368EBB11A782A
:10BF2000032A1AD8DFE802F00417021B0520704725
:10BF300002685B685268D05C2D2812D0A0F13003F3
:10BF4000092B0ED974280ED066280CD0A0F16E03F0
:10BF5000584258417047062070470020704704201F
:10BF60007047032070470220704710B50446FFF762
:10BF7000D4FF02280ED0C31EDBB2012B14D82268D6
:10BF8000A36850685B680A22BDE81040002118448D
:10BF900003F0F4BA2268A36852685B68D05CA0F131
:10BFA00074035842584110BD0020FCE738B5002307
:10BFB0000446C0E900330E48C4E90203A9B10B7876
:10BFC000032B06D08BB9136858684B68C35C6E2B83
:10BFD00007D013684D6858688B6828445B1BA060C5
:10BFE000E36011462046FFF76CFF204638BD00BFD6
:10BFF0004EFB3F0238B500250B4604461146C0E90A
:10C000000055C0E90255C0E904554BB11A78012A20
:10C0100006D103F11002DB6882604361FFF751FF34
:10C02000204638BD10B54369044663B18068013BC2
:10C03000E0601030A0602061636113B1FFF7DEFEA5
:10C04000A060012000E0184610BD10B57D21044617
:10C05000FFF749FF01232046237110BD08B503797E
:10C06000012B02D0022B04D008BD2C21FFF73BFF8F
:10C07000FAE73A21FAE710B50446FFF7EFFF20464A
:10C080007B21FFF730FF00232046237110BD000005
:10C0900013B504460191FFF7E1FF23682046DB68F2
:10C0A000019A0349984701232046237102B010BD2D
:10C0B00088FA3F0213B504460191FFF7CFFF2368CA
:10C0C0002046DB68019A03499847012320462371E3
:10C0D00002B010BD8BFA3F022DE9F0470D469046A5
:10C0E000222104462F46FFF7FEFEDFF8A490A84465
:10C0F0004745BA463DD017F8016B222E06D05C2E7C
:10C1000004D0304603F0FAF80028F1D1236829461C
:10C1100020469B68AAEB050298475C212046FFF762
:10C12000E2FE0D2E0AD8072E1CD9A6F10803052B16
:10C1300018D8DFE803F00D0F11171315222E01D0C8
:10C140005C2E0FD131462046FFF7CDFE3D46CFE7AE
:10C150006221F8E77421F6E76E21F4E76621F2E741
:10C160007221F0E72368324649462046DB6898474B
:10C17000ECE7BD4205D02368294620469B687A1B20
:10C18000984722212046FFF7AEFEBDE8F08700BFAA
:10C190008EFA3F0213B50446CDE90021FFF75EFF9A
:10C1A000DDE900212046FFF797FF02232046237197
:10C1B00002B010BD13B50446CDE90021FFF74EFFD4
:10C1C000DDE900212046FFF787FF01232046237188
:10C1D00002B010BD10B50446006808B1FFF75DFE5F
:10C1E000204610BD417470477047704708B5002164
:10C1F000007CFFF795F940EAE07008BD08B5012121
:10C20000007CFFF78DF940EAE07008BD08B5007CBE
:10C21000FFF778F920EAE07008BD08B5007CFFF769
:10C2200063F920EAE07008BD13B50446007C019173
:10C23000FFF768F90028019901DC607C20B1207CBF
:10C24000FFF77CF920EAE07002B010BD007CFFF738
:10C2500083B910B504461421FEF74DFF204610BDEA
:10C2600010B54FF47A73044608460021C4E901135F
:10C27000044B20742360012311466374FFF70AF90D
:10C28000204610BD9CFA3F020022007CFFF710B947
:10C29000007CFFF71BB910B504461422002103F0FF
:10C2A0006CF8204610BD000010B588B003A8FFF759
:10C2B000F2FF0C4CD4E88F1F11F001010FD1204682
:10C2C0000191FEF727FF019948B103AA0648FFF73D
:10C2D000C7FF2046FEF723FF044803F009F8024891
:10C2E00008B010BD78AE07107CAE0710C9C43F027D
:10C2F000704710B504461821FEF7FDFE204610BD1C
:10C30000F0B5037D0E46062B4FF000048DB000F112
:10C31000040712D000F1080515F8011D0A22304665
:10C3200001F019F9AF42044419D0002CF4D02E21A9
:10C33000304601F00DF90444EEE72F236A463946F2
:10C340000A208DF80040FFF7A1F96846FEF7AAFE23
:10C350003368024669463046DB6898470446204603
:10C360000DB0F0BD10B50446044B1122002140F879
:10C37000043B03F002F8204610BD00BFCCFA3F0298
:10C380000346074A10B543F8042B01F1100251F897
:10C39000044B914243F8044BF9D10A781A7010BD4E
:10C3A000CCFA3F0210B59DF8084044EA032343EA63
:10C3B0000242042342EA01614160037510BD00009E
:10C3C00007B5064B0360CB7800938B784A780978E1
:10C3D000FFF7E8FF03B05DF804FB00BFCCFA3F02B3
:10C3E00010B58368044613B10322014698472046DE
:10C3F00010BD0000014B1860704700BF84A90710F2
:10C4000008B50F4B43B1FFF74FFF03681B6998470F
:10C41000002801DD00E000BF0A4B43B102F0BEFD81
:10C4200003681B699847002801DD00E000BF064B48
:10C430000BB102F0F9FD054B0BB102F02BFE08BD6C
:10C4400000000000000000000000000000000000EC
:10C4500008B5FFF7D5FFFFF7DDF9014B186008BD00
:10C4600008AF07100548064A08B5121A054902F038
:10C470005DFF054B054A1A6008BD00BF00B40710F8
:10C4800004B4071090FD5F0800B407101E1C279A23
:10C49000002307B51A466FF077010093FFF718FBEA
:10C4A00003B05DF804FB000007B543880A2B08D0F1
:10C4B000502B0BD1094B1B684BB103B05DF804EB5B
:10C4C0001847FFF7E5FF03B05DF804FB00231A46A9
:10C4D0006FF077010093FFF7FBFAF4E794AE0710D3
:10C4E000002110B51148FFF763FB114B1A68114B7F
:10C4F0009A420CBF012200220F4B1A7001D0FFF7A5
:10C50000B1FFFFF76BF9044602F040FF0B4B13B18C
:10C51000204600E000BF00210848FFF7F9F9BDE818
:10C52000104000210648FFF7C5BA00BFD5C63F023C
:10C5300000B407101E1C279A90AE071000000000E0
:10C5400089C73F020022014B9A60704798AE0710DE
:10C55000024B1A68024B1A60704700BF78A9071097
:10C56000A8AE071080680368DB6818477047084664
:10C5700011B10B685B681847704770477047704788
:10C58000704738B504460D4600682E2102F039FF89
:10C590002368C31A2B6023B1037803B101302368E9
:10C5A0002060184638BD10B504460C21FEF7A3FDE7
:10C5B000204610BD10B504460421FEF79CFD204620
:10C5C00010BD10B504460421FEF795FD204610BDB0
:10C5D000FFF786B808B5FEF75BFDB0FA80F04009BA
:10C5E00008BD704710B50C46FFF75EFE844205D1CA
:10C5F000FFF75AFEBDE81040FFF74ABE02F0CEFC3E
:10C60000844205D102F0CAFCBDE8104002F059BBDB
:10C610002CB123682046BDE810405B68184710BD68
:10C620000B6803604B68436013B15A6801325A606B
:10C63000704713B5044608460191FEF733FD0246E4
:10C640002046019902B0BDE81040FFF7B3BD13B515
:10C65000044608460191FEF725FD02462046236860
:10C660000199DB6802B0BDE81040184707B50368C0
:10C670008DF807100122DB680DF10701984703B020
:10C680005DF804FB0A6810B502604A684260002247
:10C69000C0E9022202618C688A608460CC68CA604A
:10C6A000C4600C690A61046110BD00002DE9F74FF8
:10C6B0004FF0140AD0E90084174645460AFB04F4FB
:10C6C0000093174BA4105C43002C21DD66100AFB7D
:10C6D00006F005EB0009B9F804B03A465F4528BFFB
:10C6E0005A462858019102F09EFE00284FF001039F
:10C6F00001990BD15F4503D1009A13703446E3E7EB
:10C70000FCD9A61B09F11405013EF7E7F9DBF5E7B3
:10C71000A5EB08050248AD10684303B0BDE8F08FF3
:10C72000CDCCCCCC7FB50369057E019103B3F9B1C3
:10C73000002600F10C04039603A901A8FFF721FFCE
:10C740000146A8B10DF10B032046039A8DF80B604A
:10C75000FFF7ACFF9DF80B3053B12368142404FBA2
:10C760000034B4F906300834002BA8BFDDB2E3E78B
:10C77000284604B070BD0EB4F0B58CB000AF07F120
:10C78000440555F8042B04462B46202107F11000E0
:10C790007A60FD60FFF7D4F91F287A681AD900F192
:10C7A000080323F007036E46ADEB030D411C2B4637
:10C7B0006846FD60FFF7C4F9021E04DD2368694680
:10C7C0002046DB689847B5463037BD46BDE8F040A7
:10C7D00003B070470028F7D023680246DB68204684
:10C7E00007F110019847EFE710B5084CD4E88F3FE8
:10C7F000DB0709D42046FEF78DFC28B12046FEF762
:10C800008EFC034802F074FD024810BDB0AE071064
:10C810005BC83F027CA9071010B5084CD4E88F3FD5
:10C82000DB0709D42046FEF775FC28B12046FEF749
:10C8300076FC034802F05CFD024810BDB4AE071060
:10C84000C3C83F0280A9071038B500250446C0E9D7
:10C850000055C0E904558560856140F8245FFEF706
:10C8600023FFFFF7C1FFE061FFF7D6FF25732062CA
:10C87000204638BD10B50A4CD4E88F3FDB070CD4F6
:10C880002046FEF747FC40B10648FFF7DDFF204693
:10C89000FEF745FC044802F02BFD024810BD00BF26
:10C8A000ACAE0710BCAE0710C9D03F020023024A4D
:10C8B00002490348FFF710B8B1CE3F023DCE3F0218
:10C8C000BDCD3F0200231A4619461846FFF704B8AB
:10C8D00037B504468D686846FFF7A2FE6A462946CA
:10C8E0002046FFF787FB01A8FFF774FC204603B042
:10C8F00030BD37B50446CD686846FFF791FE6A46FD
:10C9000029462046FFF752FB01A8FFF763FC2046AB
:10C9100003B030BD37B504460D696846FFF780FEA9
:10C920006A4629462046FFF7EAFA01A8FFF752FCBB
:10C93000204603B030BD000070B58AB00D460146F8
:10C9400004A8FFF7C5FF144E04A8FFF76BFBE8B17E
:10C95000684604A9FFF7CDFF31460298FFF73AFE7B
:10C96000044610B12C1E18BF012401A8FFF732FCA9
:10C97000002CE9D0684604A9FFF7CCFF6846FFF712
:10C98000F4FA286001A8FFF725FCDDE705A8FFF70A
:10C9900021FC0AB070BD00BFF4FA3F0237B50C4667
:10C9A000134920461546FEF773FB50B9FFF77CFC90
:10C9B0004FF41651FFF768FC03B0BDE83040FFF7B5
:10C9C00073BC20460B49FEF763FB78B94FF416534E
:10C9D00001A928460193FFF7AFFF02F0DFFA0199A2
:10C9E00002F06CF902F0DAFA03B030BD0020FBE788
:10C9F000F9FA3F0200FB3F0270B51426D0E900535C
:10CA0000044606FB0356AE4205D005F10800FFF7C9
:10CA1000F3FF1435F7E72068FFF776F8204670BD7E
:10CA200070B50446D0E9005305EB0316AE4204D0BE
:10CA3000284602F09DF91035F8E72068FFF764F802
:10CA4000204670BD10B504460C30FFF7D5FF2046D8
:10CA5000FFF7E6FF204610BD10B50446034B40F833
:10CA6000043BFFF7EFFF204610BD00BFCCF93F02AB
:10CA700010B50446FFF7F0FF20462421FEF73BFBEC
:10CA8000204610BD10B50446024B0360FFF7E4FFDB
:10CA9000204610BDA0FB3F0210B50446FFF7F2FF91
:10CAA00020462421FEF727FB204610BD0022C0E9C6
:10CAB0000022826010B50C680A6004604C684A600D
:10CAC00044608C688A60846010BD10B504460368B9
:10CAD0001868FEF713FE204610BD00002DE9F04F48
:10CAE00087B003931C4B80465B688946C3F30803F9
:10CAF00016466BB9FFF7BEFE044600F12403406AF8
:10CB00000593FFF765FD237B2BB105A8FFF7DDFF3C
:10CB100007B0BDE8F08F01235FFA89F92373D4E9E8
:10CB2000005305EB830AAA4512D055F8047B314621
:10CB3000381DFFF7F7FD8145F5D3039A3B68009256
:10CB4000D3F808B04A46334641463846D847EAE764
:10CB500000232373D9E700BF00ED00E02DE9F74F74
:10CB60009B461A4B80465B688946C3F3080316460A
:10CB70006BB9FFF77FFE044600F12403406A01937E
:10CB8000FFF726FD237B2BB101A8FFF79EFF03B023
:10CB9000BDE8F08F0123F6B22373D4E9005305EB0F
:10CBA000830A55450ED055F8047B5946381DFFF7CA
:10CBB000B9FD8642F5D33B684A4641463846DB68B4
:10CBC0009847EEE700232373DEE700BF00ED00E0A7
:10CBD0002DE9F341164B05465B680F46C3F3080386
:10CBE0001BBBFFF747FE044600F12403406A019394
:10CBF000FFF7EEFCD4E90063462406EB8308B0455A
:10CC000009D101A8FFF761FFA542B4BF00200120B0
:10CC100002B0BDE8F08156F8040B39460430FFF746
:10CC200081FD8442A8BF0446E9E70020F0E700BF89
:10CC300000ED00E0F8B5D0E901539D4204460E46F0
:10CC40000DDB6F1C002F006804DDB900FEF76AFFE2
:10CC500018B9F8BDFEF758FF00202060A7602768CC
:10CC6000626807EB85019200A2EB8502081D02F0C5
:10CC70006AFB47F825606368012001336360E8E7D9
:10CC800037B5044600F12403406A01930D46FFF7CF
:10CC90009FFCD4E9003203EB8202934219460AD08A
:10CCA00009680433A942F8D101A8FFF70EFF002557
:10CCB000284603B030BD29462046FFF7BBFF054696
:10CCC0000028F1D06368012B01D1FFF7EFFD01A827
:10CCD000FFF7FBFEECE70B4670B50446D0E9000217
:10CCE00000EB820282420FD001461D6851F8046BAE
:10CCF000AE4207D1521A02F026FB01206368013BC5
:10CD0000636070BD0846EDE70020FAE71FB50446F2
:10CD100000F12403406A01910393FFF759FC204678
:10CD200001A9FFF7D8FF18B163680BB9FFF7CAFD77
:10CD300003A8FFF7CAFE04B010BD182370B504465F
:10CD4000D0E9045603FB0656AE4215D0204605F145
:10CD50001001FFF7C0FF63680BB9FFF7B3FDE0698F
:10CD600029690368DB689847696919B1206A036813
:10CD7000DB6898471835E7E71826D4E9045306FB23
:10CD80000356AE4204D0284601F0F2FF1835F8E70A
:10CD90000023636170BD73B50446FFF793FD04F192
:10CDA0002403606A0193FFF713FC2046FFF7C5FFD9
:10CDB00001A8FFF78AFE606A08B1FEF783FCD4E998
:10CDC0000453182606FB0356AE4204D0284601F051
:10CDD000CFFF1835F8E72069FEF796FE2068FEF7CA
:10CDE00093FE204602B070BD0148FFF7D4BF00BFDC
:10CDF000BCAE07108842F8B504460D46164615D954
:10CE0000904214D2A2F11406751AA1F114072C4411
:10CE1000B7421AD01CB131462046FFF733FC06F169
:10CE20000800FFF7E9FD143E143CF1E70DD0B542D0
:10CE30000BD01CB129462046FFF724FC05F1080061
:10CE4000FFF7DAFD14351434F1E7F8BD8842F8B580
:10CE500004460D46164614D9904213D2A2F110068C
:10CE6000751AA1F110072C44B74218D01CB13146F5
:10CE7000204601F0F9FF304601F07AFF103E103CE9
:10CE8000F2E70CD0B5420AD01CB12946204601F089
:10CE9000EBFF284601F06CFF10351034F2E7F8BDC7
:10CEA00070B50E1E054611DD3001FEF71FFE04466B
:10CEB00058B1D5E9001201EB0212FFF7C7FF28684D
:10CEC000FEF722FE01202C60AE6070BD0024F6E764
:10CED0002DE9F04F90460023462295B00391D8F8F3
:10CEE000041004469942C0E90033C0E90233C0E9A6
:10CEF0000433CDE9083302760A9323DCD8E90057DE
:10CF0000142303FB0757AF423BD029460BA801F07F
:10CF1000ABFF0BA90FA8099E01F0A6FFDDE90913DD
:10CF200099421BDA089B099A03EB0616314603EB7C
:10CF3000021206F11000FFF789FFEEB9099B0133D9
:10CF4000099311E008A8FFF7ABFF0028D6D108A885
:10CF5000FFF766FD204615B0BDE8F08F013108A847
:10CF6000FFF79EFF0028DDD10FA801F001FF0BA8FD
:10CF700001F0FEFE1435C6E730460FA901F074FF3C
:10CF8000DCE700264FF01409CDE90B660D96DDE9CC
:10CF900008239E427CDA3301D35806930BB901363D
:10CFA000F5E70023079309FB06F30BAD029307A9EE
:10CFB00006A8FFF7E6FA82460028F0D04FF00003FB
:10CFC00001468DF817302846079A0DF11703FFF731
:10CFD0006DFB9DF817700190002F4AD1BDF81C30F1
:10CFE000CDE91177ADF840304FF6FF73CDF83CA096
:10CFF000ADF842301397D5E90132934217DB03F1C4
:10D00000010ABAF1000F30DD09FB0AF0FEF76EFDF0
:10D01000834660B3D5E9001209FB0212FFF7EAFE6E
:10D020002868FEF771FDC5F800B0C5F808A02B68A8
:10D03000019A09FB023A6A68514609FB02320AF179
:10D040001400FFF7D7FEBAF1000F03D050460FA926
:10D05000FFF718FB6B6801336B6011A8FFF7CCFC7E
:10D060003FB10BA8FFF7C8FC71E7BB46D8E7012723
:10D07000F3E7019B2D6809FB0355069B1B782BB931
:10D08000D8F80030029A13441B7CEB8008358EE7F9
:10D090002168226062686360A36809920A9A0A9311
:10D0A000E368A2600B9A0B932369E2600C9A0C93DD
:10D0B000636922610D9A0D93039B08916261237647
:10D0C000CFE70000F0B504462646174687B00D4668
:10D0D00068461946FEF741F90B4B694646F8043B92
:10D0E00003A8FEF73AF9394603AA3046FFF7F0FEE7
:10D0F00003A8FEF7F1F86846FEF7EEF82046034B6A
:10D100002562236007B0F0BDCCF93F0288FB3F02E7
:10D11000F0B50F4685B038461C4916461D460A9C98
:10D12000FDF7B6FFC0B9A4B1294601A8FFF7BEFCC0
:10D130002420174901F0C2FF054630B101AB324649
:10D140002146FFF7BFFF134B2B6001A8FEF7C4F881
:10D150002C46204605B0F0BD38460F49FDF798FF34
:10D1600090B9002CF5D0294601A8FFF79FFC242098
:10D17000074901F0A3FF05460028E6D032462146C4
:10D1800001ABFFF79FFFE0E70024E2E708FB3F0267
:10D1900048FD3F02A0FB3F020CFB3F02014B024A4D
:10D1A0001A607047B8AE07101DFB3F022DE9F0472B
:10D1B000089DD0F8209004460E4617469846FFF783
:10D1C00073F881454DD02B79190704D520466A693B
:10D1D0005449FFF7D0FAB8F1000F0DD05B2120467B
:10D1E000FFF744FA41462046FFF731FA236802224E
:10D1F0002046DB684C4998472B79DA0724D5D5F8C7
:10D2000008802F21404602F022F908B100F1010800
:10D2100041462046FFF71BFA2B799B0708D53A2198
:10D220002046FFF723FA2046EA684049FFF7A3FAB1
:10D230002A79236812F0040F20464FF00202DB68BF
:10D2400014BF3B493B4998472B7958071DD529699D
:10D250000B461A4613F8010B60B1202808D1194675
:10D26000F7E73548FEF711FD0028ACD0BDE8F087A0
:10D270002828EED12368521A2046DB689847236895
:10D2800004222046DB682D49984700213846FEF7E6
:10D2900015FB01462046FFF7DAF9236802222046F3
:10D2A000DB68244998471EB131462046FFF7CFF985
:10D2B0002B7913F0300F2CD023682149DB68022230
:10D2C000204698472B79D9060AD52368072220469D
:10D2D0001C49DB6898472046AA691B49FFF74BFAAF
:10D2E0002B799A0611D5DB0605D523680222204644
:10D2F000DB680F4998472368204614490A22DB68F7
:10D3000098472046E969FFF7A2F95D212046FFF71B
:10D31000ADF923682046BDE8F0470222DB680C49DE
:10D32000184700BF21FB3F0228FB3F0288FA3F025B
:10D330002BFB3F0230FB3F0268AE07102EFB3F0283
:10D3400033FB3F0236FB3F023EFB3F0241FB3F0205
:10D350004CFB3F022DE9F0410446076A0D46164694
:10D36000FEF7A2FF874207D0206A324603682946AB
:10D37000BDE8F041DB6818470348FEF786FC00284B
:10D38000F2D0BDE8F08100BF68AE07102DE9F04390
:10D3900085B0D0F8209005460F4690461E460C9C5E
:10D3A000FEF782FF814505D14948FEF76EFC002853
:10D3B00040F08A804FF000092B6A464A01A801928A
:10D3C00003938DF80890FEF756FE49464046FEF757
:10D3D00075FA80464049012201A8FEF7DBFE41466E
:10D3E000FFF727F93FB13D49012201A8FEF7D2FE20
:10D3F0003946FFF71EF93EB13949012201A8FEF76F
:10D40000C9FE3146FFF715F92379DF070ED5A66867
:10D410002F21304602F01BF800B1461C3149012291
:10D4200001A8FEF7B7FE3146FFF703F923799E07FF
:10D4300007D52D49022201A8FEF7ACFEE168FEF7F0
:10D4400027FE2379580714D5266933461F4613F85B
:10D45000012B2AB1202A01D11E46F7E7282AF5D14F
:10D460000222224901A8FEF795FE3146BA1BFEF7BB
:10D47000A1FE2379190707D51D49012201A8FEF74E
:10D4800089FE6169FEF716FE2379DA0608D50422C3
:10D4900018490DEB0200FEF77DFEA169FEF7F8FDCD
:10D4A00023799B0607D51449062201A8FEF772FED0
:10D4B000E169FFF7BEF801A8FEF7C7FD286A02225E
:10D4C00003680E49DB68984705B0BDE8F08300BFEC
:10D4D00068AE071070FB3F02FEFA3F024FFB3F02AF
:10D4E000CFFE3F0251FB3F0253FB3F0256FB3F0280
:10D4F00059FB3F025BFB3F0260FB3F024CFB3F02DC
:10D50000F8B506460D4600248F18BD420CD033688E
:10D5100030469B6815F8011B9847031E01DB1C442D
:10D52000F3E7002C08BF1C462046F8BD13B504469F
:10D53000084659B10191FDF7B5FD02462046236822
:10D540000199DB6802B0BDE81040184702B010BD79
:10D5500003689B6818470023012A98BF0A2230B548
:10D560008BB08DF8243009AC0D46B1FBF2F101FB14
:10D57000125303F0FF03092B94BF30333733DBB270
:10D58000AA4204F8013DEFD92146FFF7CFFF0BB0C7
:10D5900030BD7047064B10B5994200F10C0405D020
:10D5A000084601F093FD002808BF0024204610BD66
:10D5B00080FA3F0210B504463021FDF79CFD20465D
:10D5C00010BD3021FDF797BDF0B50025EC1C8C4255
:10D5D0000DD86E1C875D445D974205D12644B1424B
:10D5E00005D31D60601CF0BD01342544EEE700202A
:10D5F000F9E710B5836804462BB10322014698472A
:10D600000023C4E9023310BD10B5836804462BB172
:10D610000322014698470023C4E9023310BD38B500
:10D62000036805468B420C4608D011B14B680133A4
:10D630004B60286808B1FEF730FC2C6038BD000054
:10D64000002310B50370044B04461868FEF748F831
:10D6500001232046237010BDE8AE071010B50378F3
:10D6600004461BB1024B1868FEF748F8204610BD6F
:10D67000E8AE0710052994BF405C0020704782B0D7
:10D680006A4603460868496803C26A4603CA1860C6
:10D690001846596002B0704708B582798B799A4272
:10D6A00006D1062201F032FEB0FA80F0400908BD32
:10D6B0000020FCE770B50446384B86B018689B889C
:10D6C0000090ADF80430364BA67918689B8802901C
:10D6D000ADF80C307EB906226946204601F016FEF0
:10D6E00038B10622204602A901F010FE003818BF0A
:10D6F000012006B070BDA3882068ADF8143006F094
:10D70000FD03012B049024D19DF81550062205F04D
:10D710003F05694604A88DF8155001F0F7FD002873
:10D720003AD065F03F05062202A904A88DF81550ED
:10D7300001F0ECFD80B36079012E00F0C00004D14F
:10D74000C02814BF00200120D3E7B0FA80F04009C0
:10D75000CFE7022E1ED103229DF815500DEB0201DA
:10D7600005F03F050DF113008DF8155001F0CEFDC9
:10D7700090B165F03F0503220DF10B010DF113008F
:10D780008DF8155001F0C2FD30B1607900F0C00095
:10D790004028D6E70120ACE70020AAE740F93F0285
:10D7A0001EFC3F024FF0FF33036083800020704770
:10D7B0000021024608B501604160FFF7F3FF104603
:10D7C000917108BD0123024610B50361044B03F1BA
:10D7D000100153F8044B8B4242F8044BF9D110BDB1
:10D7E00046F93F0210B50B460446B1B1012A01F1DA
:10D7F00010020AD1014653F8040B934241F8040B7E
:10D80000F9D101232361204610BD411E12F8010DFC
:10D810009A4201F8010FF9D1F3E7102201F0ADFDB2
:10D82000F1E738B504460D46FFF7CCFF002320464C
:10D830002361A58138BD08B502690B699A4206D1FA
:10D84000102201F063FDB0FA80F0400908BD00200D
:10D85000FCE7F7B5054616461F460A46D0E9000123
:10D8600001ABFFF7B1FE30F002040CD0841EBC42C5
:10D8700028BF3C463EB101992B6802312246304612
:10D88000194401F053FD204603B0F0BD37B51346EF
:10D890000C4601920A4608210546FFF7DAFF40B917
:10D8A000224609212846019B03B0BDE83040FFF71E
:10D8B000D0BF03B030BD0000F0B50C4689B00C49B4
:10D8C000054601F0A0FA1F2269462046FFF7DEFF59
:10D8D000064650B16C460027284614F8011B01F09B
:10D8E000FFFA10B10137BE42F6D1284609B0F0BDAB
:10D8F0004EFB3F0207B50223192101AAFFF7A9FF3A
:10D9000008B1BDF8040003B05DF804FB10B5D0E920
:10D91000063203EBC2029342184605D0046808336E
:10D9200024888C42F7D110BD0020FCE770B500259B
:10D93000064605603020FDF7DAFB044698B1012366
:10D94000C0E901330A4B0E3040F80E3C4FF6FF732E
:10D9500020F8023CFFF72CFFC4E90655C4E908553E
:10D96000C4E90A55A57574600C343046346070BD46
:10D97000C8FC3F0237B50D46044601A8FFF760FE1C
:10D980002A6801A8D2F802302360D2F8063063601A
:10D99000FFF764FE204603B030BD30B505460C46A7
:10D9A00087B001A8FFF74CFE2A68236812881B88FD
:10D9B0009A420DD1294602A8FFF7DCFF214604A8B0
:10D9C000FFF7D8FF04A902A8FFF766FE044600B9D6
:10D9D000002401A8FFF742FE204607B030BD00003A
:10D9E00070B506467420FDF782FB0446A0B1002501
:10D9F000C0E90055C0E90255C0E90455C0E9065523
:10DA000005622430FFF792FF04F12C00FFF78EFF30
:10DA1000E563E564E565E566346024B90A200A4AF1
:10DA20000A49FDF721FF0020FDF776FE20B10A200C
:10DA3000054A0749FDF718FF002231680548FDF740
:10DA4000BFFE304670BD00BFD9BA3F02E0FB3F02C7
:10DA500025FC3F020DE63F0210B50A4CD4E88F3F8B
:10DA6000DB070CD42046FDF755FB40B10648FFF715
:10DA7000B7FF2046FDF753FB044801F039FC02488C
:10DA800010BD00BFE4AE0710ECAE0710B9E83F02CE
:10DA900008B50020FDF740FE00EAE07008BD000078
:10DAA00070B504460E4615461830FFF7A2FD04F186
:10DAB0002800FFF7A9FD00222146C4E903650348B9
:10DAC000FDF754FE0028A8BF606970BDC7EC3F0297
:10DAD00010B504464069FEF717F8A068FEF714F881
:10DAE000204610BD002247F67F71C0E90022C0E940
:10DAF0000222C0E90422C0E90E22C0E91022C0E9D6
:10DB00001222C0E91422C0E91622C0E91822C0E995
:10DB10001B2202620263A0F868107047102330B520
:10DB2000002485B0ADF8023003230D466846214637
:10DB3000ADF80030CDE901440394FDF709FE21461C
:10DB40006846ADF80850FDF7F5FD05B030BD10B5DD
:10DB500004460068FDF7D8FF204610BD70B50446A6
:10DB60002426C06DFDF7D0FF206DFDF7CDFF04F139
:10DB7000380504F14400FFF7EAFF2846FEF750FF9E
:10DB800004F12800FEF72CFC04F11800FEF728FC35
:10DB9000D4E9005306FB0356AE4204D02846FFF7F3
:10DBA00097FF2435F8E72068FDF7AEFF204670BDEB
:10DBB00030B515460C469FB079B172B101A8FFF798
:10DBC00091FF21462A4601A8FFF76AFF044601A8F3
:10DBD000FFF7C4FF20461FB030BD014CFAE700BF7D
:10DBE000F2FEFFFF38B5141E0546436802DB6218DB
:10DBF0009A4200DD5C1A2A68501801191A44521A18
:10DC000001F0A1FB6A68121B6A6038BD0B680360F3
:10DC100013B15A6801325A60704710B5044651F882
:10DC2000043B40F8043BFFF7F1FF204610BD70B500
:10DC30000446D0E9005305EBC306AE4204D0281DCC
:10DC4000FEF7C8FA0835F8E72068FDF75DFF2046C3
:10DC500070BD70B50446D0E9005305EBC306AE4273
:10DC600004D0281DFEF7B6FA0835F8E72068FDF75E
:10DC70004BFF204670BD10B504462430FFF7E9FF86
:10DC800004F11800FFF7D3FF10BD826810B50AB980
:10DC900001F018FAC368BDE81040184700232DE9C9
:10DCA000F047C0E900338360D1F804800546984509
:10DCB0000F464ADD4FEA0810FDF718FF0646002818
:10DCC00043D0D5E90041A04204EB011A16D95045D2
:10DCD00015D2AAF1100AA4F11009AAEB0404044415
:10DCE000D1451DD01CB15146204601F0BDF850462B
:10DCF00001F03EF8AAF1100A103CF1E710D0B1464D
:10DD0000A2450DD0B9F1000F03D02146484601F0DD
:10DD1000ABF8204601F02CF8103409F11009EFE7B8
:10DD20002868FDF7F1FEC5F808802E60D7E90043AA
:10DD300004EB0318A04506D02146304601F0AEF8AA
:10DD400010341036F6E77B686B602846BDE8F08734
:10DD500030B58DB00C4600F1380101A8FFF79EFFE9
:10DD6000029B002B2FDD04F1140104A8FFF7A4FD92
:10DD700004F1080108A8FFF79FFD0A9A069B1343C8
:10DD80001FD0DDE9014504EB0515AC4219D0204652
:10DD900004A901F0C7F860B1012408A800F0E8FF69
:10DDA00004A800F0E5FF01A8FEF73AFE20460DB0FA
:10DDB00030BD204608A901F0B5F810340028E4D0A1
:10DDC000EAE70024E9E70124EDE7F8B50023C0E91C
:10DDD000003383604F6805469F420E4640DDF800E1
:10DDE000FDF784FE0446D8B3D5E90003844200EB76
:10DDF000C30310D99C420FD2083B1A1AA0F1080C99
:10DE000022449C4518D01AB11968116059685160B4
:10DE1000083B083AF5E70FD0014622468B420BD06B
:10DE20003AB1D1F800C0C2F800C0D1F804C0C2F8BD
:10DE300004C008310832F1E7FDF766FE2C60AF60E0
:10DE4000D6E9003103EBC100984208D01A680834C3
:10DE500044F8082C5A68083344F8042CF4E7696045
:10DE60002846F8BD70B504460020C4E90000A06053
:10DE70004E680D46864212DD7100FDF753FE70B10B
:10DE80002060A660D5E9003203EB42029A4204D03A
:10DE900033F8021B20F8021BF8E76B68636020462A
:10DEA00070BD10B50379044623B90368186808B13A
:10DEB000FDF72AFE204610BD10B50379044623B9AC
:10DEC0000368186808B1FDF71FFE204610BD00006A
:10DED0002DE9F043D0F86C800F468FB0B8F1000FF9
:10DEE00072D0056F002D6FD001F114091F2300229D
:10DEF000FF214846FFF7ADFCFF2308370446002208
:10DF000019463846FFF7A5FCAC42064606D0AE429D
:10DF100030D0002420460FB0BDE8F0832046FDF746
:10DF2000E5FD03AB04930023044603908DF8143001
:10DF300070B92023CDE90630244B2549009306AA69
:10DF400003463220FDF79EFC04A8FFF7AAFFE1E795
:10DF50000246FF212B464846FFF77BFC2A464146F6
:10DF6000039801F0D3F918B104A8FFF79AFFCEE7A0
:10DF70000124E9E72846FDF7B9FD002403AB064676
:10DF8000039004938DF8144078B92023CDE906302E
:10DF90000E4B0F49009306AA03463220FDF772FC90
:10DFA000344604A8FFF788FFB4E70246FF212B465A
:10DFB0003846FFF74EFC2A464146039801F0A6F981
:10DFC0000028EED10124ECE70124A3E767FC3F021F
:10DFD000F7FB3F0238B50D1E0446006803DDFDF770
:10DFE000A1FD18B938BDFDF78FFD00202060A560A8
:10DFF0000120F7E708B583688B4202DAFFF7EAFFF2
:10E0000008BD0120FCE738B50023C0E90033836078
:10E010000D4649680446994210DDFFF7DBFF68B101
:10E02000D5E9003122681944994205D00AB118781F
:10E03000107001330132F7E76B686360204638BD2A
:10E0400038B504460D460B68083040F8083C4B686C
:10E05000083140F8043CFFF7D6FF05F1140104F144
:10E060001400FFF7D0FF95F82030204684F82030C8
:10E0700038BD1FB5044601A8FFF7C5FF019B029AF2
:10E080002068236063686260039A0293A368A260B9
:10E0900001900393FDF738FD04B010BD2DE9F04168
:10E0A0000F4641681D4619448368044699429046CC
:10E0B00012DC266862683E443146D21B701901F0BA
:10E0C00042F92A464146304601F030F901206368A2
:10E0D0002B446360BDE8F081FFF77CFF0028E8D1A6
:10E0E000F8E713460A46002110B50446416002B124
:10E0F0000BB9002010BDFF2B28BFFF23FFF7CEFF79
:10E100000028F7D06068F5E7F8B50D46D0E90113AF
:10E110009942044616460BDA276862687919521B41
:10E12000481C01F010F97E55636801336360F8BD47
:10E130000131FFF74FFF0028EED1F8E70A464168AA
:10E14000FFF7E2BF2DE9F74304461D460F4601AB3A
:10E1500090460A46D0E900019DF82890FFF734FA6E
:10E16000AE1C02466368B9F1000F26D128B33344D0
:10E170001B1AFF2B09D820460199FFF733FD616870
:10E1800020463144FFF736FF18B9606803B0BDE898
:10E19000F0836A1C20460199D2B2FFF7B5FF0199BE
:10E1A0003A4601312046FFF7AFFF2B464246019920
:10E1B00002312046FFF772FFE7E7F118FF29E4D8A4
:10E1C0002046FFF717FF0028DFD0691C2046C9B2A0
:10E1D000FFF7B4FF39462046FFF7B0FF2B46424613
:10E1E0006168E6E730B49DF808501AB1029530BC7A
:10E1F000FFF7A8BF406830BC70471FB50023062258
:10E20000C0E9003383600093012304468DF80F209A
:10E2100019460DF10F02FFF7E5FF204604B010BDCF
:10E220008842F8B504460D46164614D9904213D2DA
:10E23000A2F10806751AA1F108072C44B74218D0BC
:10E240001CB131462046FFF7E8FC301DFDF7C2FF48
:10E25000083E083CF2E70CD0B5420AD01CB1294672
:10E260002046FFF7DAFC281DFDF7B4FF0835083417
:10E27000F2E7F8BDF7B5044646686846FFF7CDFCFF
:10E28000D4E901739F4212DB0137002F29DDF8002A
:10E29000FDF72CFC0546F0B1D4E9001201EBC202F7
:10E2A000FFF7BEFF2068FDF72FFC2560A7602368FD
:10E2B000626803EBC606314603EBC20206F10800B2
:10E2C000FFF7AEFF1EB169463046FFF7A6FC0125F9
:10E2D00063680133636001A8FDF77CFF284603B043
:10E2E000F0BD0025DEE7F8B50546D0E900430F464E
:10E2F00004EBC306A64205D039462046FFF74DFB86
:10E3000008B114B9F8BD0834F4E7201DFDF762FF29
:10E31000D5E90032204603EBC20204F10801FFF701
:10E320007FFF6B68013B6B60ECE700002DE9F04379
:10E3300005468FB003A80C46FFF782F92E68F31E3E
:10E340000D2B6AD8DFE813F00E0078006900FC009E
:10E3500069006900690069006900C600C600C6005E
:10E36000C600C600606A04F118060230FFF7A2F981
:10E3700038B32146AA8951F8243F06A81A80FFF72E
:10E380004CFC06A93046FFF775FF07A8FDF722FFF2
:10E3900006A8FFF7CBFA069B04F1280007996362F1
:10E3A000FFF73DF907A8FDF715FF20210023CDE970
:10E3B00006136D4A009201206C4906AAFDF762FA25
:10E3C0002BE004A8FFF7B2FAAA89049B1A806968B7
:10E3D000049808310230FFF752F904A906A8FFF7A4
:10E3E0001CFC304606A9FFF745FF054607A8FDF7C8
:10E3F000F1FEC5B92023CDE906355D4B01205B490F
:10E40000009306AA2B46FDF73DFA049B294618887F
:10E41000FDF7C8F905A8FDF7DDFE03A8FFF71EF913
:10E420000FB0BDE8F083E36B23B104A904F134001D
:10E43000FFF72BFC05A8B6E72046A989FFF766FA87
:10E4400006460028E9D0014604F12C00FFF7A5FAA2
:10E4500004F1180848B131464046FFF744FF202236
:10E460000023CDE90623434AA4E74FF6FF71356840
:10E47000D5E90632298003EBC2029A4203D053F851
:10E48000080B4180F9E7D5E9037307EBC309B945E8
:10E4900004D0381DFDF79EFE0837F8E700232B61F6
:10E4A000D5E9067307EBC309B94504D0381DFDF75C
:10E4B00091FE0837F8E70023EB61AB72E36C23B100
:10E4C000314604F14400FFF7E0FB4FF6FF7233687A
:10E4D0001A80C0E72046A989FFF718FA00289CD0C7
:10E4E000E36D002B99D000230D2EADF8163001D02E
:10E4F000102E17D1002369681A4606258DF81530AD
:10E50000049109AB8DF8142006908DF81C60DDE9AC
:10E510000401089583E80300236E06A904F1540062
:10E5200098477AE70F2E01BF2B7A696803F0010242
:10E5300008251DBF1A4619461D46C3F34003DDE7F3
:10E54000A9892046FFF7E2F9014600283FF465AFAC
:10E55000E36E002B3FF461AF6B6806AA069304F1EB
:10E560006400236F984758E7A8FC3F02F7FB3F027F
:10E5700082FC3F02B2FC3F0270B504466430FDF7F6
:10E580002FFF04F15400FDF72BFF04F14400FDF7C9
:10E5900027FF04F13400FDF723FF04F13000FDF7FD
:10E5A00019FE04F12800FDF715FED4E9065305EB2A
:10E5B000C306AE4204D0281DFDF70CFE0835F8E76F
:10E5C000A069FDF7A1FA04F10C00FFF742FB204619
:10E5D000FFF72DFB204670BD10B5064B1C6844B1FB
:10E5E0002046FFF7C9FF2046BDE810407421FCF724
:10E5F00082BD10BDECAE071038B50D1E0446006894
:10E6000005DD14216943FDF78DFA18B938BDFDF712
:10E610007BFA00202060A5600120F7E72DE9F84390
:10E620000024C0E900448460884649680746A14246
:10E630001CDDFFF7E1FFC8B1D8E900934FF0140CDF
:10E640000CFB039CD7F800E009EB0405AC450AD0AD
:10E650001EEB04061EBF0FCD0FC62B6804F1140479
:10E6600018BF3360F0E7D8F804307B603846BDE867
:10E67000F8832DE9F84345688368D1E90087E919F3
:10E680009942044617DC142362685D4303FB07F9D3
:10E690005A432668521B2E44314606EB090000F00F
:10E6A00052FE4A464146304600F040FE63683B4415
:10E6B0006360BDE8F883FFF79FFF0028E3D1F8E728
:10E6C00082B070B50C4604A981E80C00D0E90113B2
:10E6D0009942054617DA14236A6803FB04F15A438A
:10E6E0002C68521A0C442146E01804AE00F02BFEB0
:10E6F0000FCE0FC4336823606B6801336B60BDE8D5
:10E70000704002B070470131FFF776FF0028E2D178
:10E71000F5E72DE9F04F002405460F469046931E7D
:10E72000C0E9004493B0DBB28460059379688C4201
:10E7300072DA3868424607AB091B2044FEF744FFF3
:10E740000646002868D0059B012B2FD84FF0000902
:10E75000A0F1020B4FEA5B0B0DF13C0A079BCB4586
:10E76000234455D03A6803EB49031344D9789B7886
:10E7700008A843EA0121FFF754F80DF1340C0DF11C
:10E78000200EBEE80F00ACE80F00DEF8003009F103
:10E790000109CCF800309AE807008DE807000DABBE
:10E7A00028460CCB6968FFF78BFFD7E7A8F1060373
:10E7B000012B2DD84FF00009A0F1020B4FEA1B1BD3
:10E7C0000DF13C0ACB45079B22D002333968234424
:10E7D00003EB09130122194408A8FFF703F80DF110
:10E7E000340C0DF1200EBEE80F00ACE80F00DEF88F
:10E7F000003009F10109CCF800309AE807008DE8F3
:10E800000700DDE90D2328466968FFF759FFD9E7BE
:10E81000079B1C44344489E7284613B0BDE8F08FB9
:10E82000002330B504460D4685B0C0E9003383604F
:10E83000022201A8FFF76DFF01A92046FFF719FF8B
:10E8400001A8FFF784F90222294601A8FFF761FF1A
:10E8500001A92046FFF70DFF01A8FFF778F9032271
:10E86000294601A8FFF755FF01A92046FFF701FF40
:10E8700001A8FFF76CF90622294601A8FFF749FF16
:10E8800001A92046FFF7F5FE01A8FFF760F907226E
:10E89000294601A8FFF73DFF204601A9FFF7E9FE41
:10E8A00001A8FFF754F9204605B030BD2DE9F04F1F
:10E8B0008BB00C4600F1440101A8FFF7AFFE029BAC
:10E8C000002B4ADD04F1140104A8FFF7A9FF04F1AD
:10E8D000080107A8FFF7A4FF059D089E002D01DC95
:10E8E000002E38DD1423019A029F9246DDF8108035
:10E8F000DDF81C9003FB072703FB058503FB069649
:10E90000BA4528D0C346AB4515D059465046FEF708
:10E9100092FF0BF1140B04460028F4D007A8FFF770
:10E9200016F904A8FFF713F901A8FFF710F920461C
:10E930000BB0BDE8F08FCB46B34509D059465046E1
:10E94000FEF779FF0BF1140B04460028F4D0E5E73D
:10E950000AF1140AD4E70024E0E70124E4E788423E
:10E96000F8B504460D46164614D9904213D2A2F1CA
:10E970002406751AA1F124072C44B74218D01CB103
:10E9800031462046FFF75CFB3046FFF7A1F8243EF6
:10E99000243CF2E70CD0B5420AD01CB129462046EF
:10E9A000FFF74EFB2846FFF793F824352434F2E7AF
:10E9B000F8BDF8B50E1E054613DD242707FB06F04B
:10E9C000FDF794F8044658B1D5E9001207FB02128E
:10E9D000FFF7C5FF2868FDF797F801202C60AE60AF
:10E9E000F8BD0024F6E72DE9F04306460C469DB03D
:10E9F00001AD2846FEF7DCFE03A8FFF7FEFB06A8E4
:10EA0000FFF7FBFB3069716913AB03C3337885E80B
:10EA10000300F289B16806A88DF82430FFF761FB86
:10EA2000B289716803A8FFF75CFB94F9683013AFF3
:10EA30007F2B03D09DF924209A425CDB94F9693046
:10EA40007F2B03D09DF924209A4254DC384604F1F0
:10EA50005001FFF7BAF9149B002B52DD139E06EB11
:10EA6000C309B14550D030462946FEF715FE083699
:10EA700080460028F5D01398FDF746F8B8F1000F4E
:10EA800039D029462046FFF763F9A0B3294620462E
:10EA9000FFF70CFF064670B3384604F15C01FFF740
:10EAA000E1F9149B002B12DD06A8FEF723FF804638
:10EAB00003A8FEF71FFFDDE9133203EB42029A427F
:10EAC00025D033F8021B884501D08842F7D113982E
:10EAD000FDF71AF87EB129462046FFF7F9F950B143
:10EAE000236AB3B139466369139501336361636A7D
:10EAF00004F1180098472846FEF7EAFF1DB0BDE86C
:10EB0000F0834FF00108B6E74FF00008B3E70026A6
:10EB1000DDE7D4F83080B8F1000F07D063692946EB
:10EB20000133636104F12800636BE3E7D4F80CC0A0
:10EB3000BCF1000F25D06369226901339342636100
:10EB4000D9D8242253432A46243B0CEB030603CA9C
:10EB50004CF80300716006F1080003A9FFF789FA79
:10EB600006A906F11400FFF784FA9DF9243086F80F
:10EB70002030D4E904329A42BDD34046FCF704FE6B
:10EB8000B9E70DF1280895E8030088E8030003A918
:10EB90000CA8FFF738FA06A90FA8FFF734FA9DF87A
:10EBA0002430414638468DF848306668FFF748FA09
:10EBB000D4E90113994210DA24222368616802FB28
:10EBC000063602FB013206F124003146FFF7C7FE8C
:10EBD00086B963680133636005E020460131FFF7C1
:10EBE000E8FE0028E8D13846FEF772FF4046FEF7FF
:10EBF0006FFF80E739463046FFF722FAE9E7000069
:10EC0000002302480360FCF74FBD00BFE8AE0710C9
:10EC100070474174704708B5007CFCF70DFD20EA91
:10EC2000E07008BD08B5007CFCF7C0FC20EAE0708D
:10EC300008BD08B5007CFCF7D5FC40EAE07008BDD3
:10EC400008B5007CFCF7C0FC40EAE07008BD007C21
:10EC5000FCF7D6BC37B5457C04462DB1207C03B00B
:10EC6000BDE83040FCF794BC007C0191FCF7E4FC6B
:10EC700000280199F2DC284603B030BD10B50446E7
:10EC80001421FCF738FA204610BD000010B54FF4EF
:10EC90007A730446084611460022C4E90123044B56
:10ECA0002074236001236374FCF7E2FC204610BD4E
:10ECB000E4FC3F020023007CFCF7CCBC0022FFF701
:10ECC000F9BF007CFCF756BC007CFCF7A7BC000039
:10ECD00002220020044B1A60044B054AC3E90000DD
:10ECE0009A60FCF7CBBE00BFFCAE0710F0AE071079
:10ECF0000000FFFF002240681146FCF779BE0022A9
:10ED000040681146FCF790BE00224068FCF77EBECA
:10ED10000022406881F00101FCF75CBE00234068DE
:10ED20001A461946FCF748BE002340681A461946A1
:10ED3000FCF734BE002240681146FCF721BE0022D9
:10ED400040681146FCF700BE002202214068FCF733
:10ED500009BE002340681A46FCF7E8BD0322024BB7
:10ED60005A60024A1A60704700AF071014FD3F0254
:10ED700010B504460068FCF7C7FE204610BD10B56C
:10ED80000446006808B1FCF7BFFE0023C4E9013364
:10ED9000236010BD38B504460D4600680131FCF70C
:10EDA000C1FE10B1C4E90005012038BD10B50368EB
:10EDB000044623B143688B4201D3012010BD204695
:10EDC000FFF7E8FF0028F9D0A368002BF5D12268EF
:10EDD0001370F2E737B50D46114601920446FFF76E
:10EDE000E5FF019A28B92046FFF7C9FF204603B086
:10EDF00030BD2946A260206800F098FA0021226800
:10EE0000A368D154F2E7002313B50446C0E90033E8
:10EE10008360037341B108460191FCF743F90199FE
:10EE200002462046FFF7D6FF204602B010BD38B597
:10EE3000054600680C4668B16A688B689A4207D339
:10EE4000096800F0E8FAA368AB600023A36038BD4E
:10EE5000FCF75AFE23682B6063686B60A368AB60A5
:10EE60000023C4E90033F1E7002310B50446C0E9EC
:10EE7000003383600373FFF7DAFF204610BD88423A
:10EE800010B5044605D00B682BB18A681946FFF708
:10EE9000A1FF204610BDFFF772FFFAE7002310B56F
:10EEA0000446C0E9003383600373FFF7E8FF2046A0
:10EEB00010BD70B505460E4609B9002070BD6AB197
:10EEC000846814442146FFF771FF0028F5D02868B4
:10EED000AB683146184400F09EFAAC600120EDE7C3
:10EEE000002307B501228DF8041001A98DF8053023
:10EEF000FFF7DFFF03B05DF804FB02680B4609680B
:10EF000062B141B9806860B110787047986840B1CB
:10EF10000978484270471046FCF7BAB80029F5D185
:10EF20000846704708B582688B689A4205D1FFF79A
:10EF3000E4FFB0FA80F0400908BD0020FCE770470C
:10EF400038B5142504462A46002100F016FA25801B
:10EF50004025074928462581258200F0B1F804495B
:10EF60006060284600F0ACF8E060204638BD00BF85
:10EF700048FD3F027047704710B50446FFF7E0FFB9
:10EF8000204610BD10B50446FFF7DAFF204610BD3D
:10EF900010B50446FFF7D4FF204610BD30B50E4D26
:10EFA00087B0D5E88F1F11F0010411D12846FCF776
:10EFB000B1F868B101A8FFF7DFFF214601AA0748B1
:10EFC000FFF764FE2846FCF7AAF8054800F090F920
:10EFD000024807B030BD00BF0CAF071018AF0710D4
:10EFE0001FF23F0210B50D4C86B0D4E88F3FDB070F
:10EFF00011D42046FCF78EF868B101A8FFF7C2FFD4
:10F00000012101AA0648FFF741FE2046FCF787F8D8
:10F01000044800F06DF9024806B010BD10AF0710AB
:10F020002CAF071057F23F0210B5FFF7DBFF074B7D
:10F03000044653B1FFF748FE38B1236820461B69E8
:10F040009847002801DD00E000BF10BD000000006F
:10F0500010B50D4C86B0D4E88F3FDB0711D42046A5
:10F06000FCF758F868B101A8FFF792FF022101AA46
:10F070000648FFF70BFE2046FCF751F8044800F065
:10F0800037F9024806B010BD14AF071040AF0710A3
:10F0900055F23F0210B5FFF7DBFF074B044653B1B3
:10F0A000FFF712FE38B1236820461B6998470028F5
:10F0B00001DD00E000BF10BD00000000FCF717B844
:10F0C000FCF717B808B5FCF749FD0000014900F04E
:10F0D000F9B800BF64FD3F027FB500241023154638
:10F0E0001268CDE902340368CDE900449E696B469D
:10F0F000B0479DF8043003F00603062B05BF009BC4
:10F10000012020462B6004B070BD0098904214BFCF
:10F110000120062070470000034B10B50446036031
:10F1200000F0CDF8204610BDA4FD3F0210B5044606
:10F13000FFF7F2FF08212046FBF7DDFF204610BD58
:10F140002DE9F041DDF818801F4606461546DDE939
:10F150000834984507D1079900F0B4F818B16571E3
:10F160000020BDE8F0813946304600F0ABF80028B9
:10F17000F6D00123C4F800802571A371F0E738B5FB
:10F1800015461C4600F09EF820B108232560E36078
:10F190000623237138BD73B505460C461E46019201
:10F1A00000F090F850B9032E08D823682946019A38
:10F1B00020465B6902B0BDE87040184702B070BDE0
:10F1C000034B10B504460360FFF7A6FF204610BDB1
:10F1D00004FE3F0210B50446FFF7F2FF0C21204663
:10F1E000FBF789FF204610BDF7B5089F05460E4680
:10F1F000144697420AD0A868314602680897156AF3
:10F200002246AC4603B0BDE8F04060471946019382
:10F2100000F058F8019B0028EDD0062003B0F0BDA7
:10F220002DE9F14F0D461946814617469846DDE90E
:10F230000A4BDDE90CA600F045F890B1002D3460D2
:10F24000377109DB61198A450CBF06210121B171B3
:10F25000002001B0BDE8F08F0235F9D10123B37170
:10F26000F6E7544506D15946484600F02BF808B158
:10F270007771EDE7D9F808003A4629460368CDE9E9
:10F280000CA6CDE90A4BDC694346A44601B0BDE8B3
:10F29000F04F60472DE9F04107460C4615461E46E3
:10F2A000FFF76DFF48B9B8682A46214603689F6991
:10F2B0003346BC46BDE8F0416047BDE8F081704789
:10F2C00000207047814208B50ED0406803782A2B91
:10F2D0000CD049680B782A2B08BF0131FBF7D8FE08
:10F2E000B0FA80F0400908BD0120FCE70020FAE7F1
:10F2F000002301461A46184600F04AB9024B18444A
:10F30000407800F097007047D1FE3F020139024477
:10F3100010B5904201D1002005E0037811F8014FAB
:10F32000A34201D0181B10BD0130F2E70A44431E6E
:10F33000914200D1704710B511F8014B914203F88A
:10F34000014FF9D110BD884210B501EB020402D97A
:10F350008442234607D8431EA14208D011F8012B4E
:10F3600003F8012FF8E7024401468A4200D110BD9C
:10F3700013F8014D02F8014DF7E7024403469342AA
:10F3800000D1704703F8011BF9E7000038B5104BB6
:10F3900004461D68AB6BB3B91820FCF7A7FB024607
:10F3A000A86320B90B4B42210B48FCF7F3FB0B4938
:10F3B0000B4BC0E900130B4B002183600B238381AF
:10F3C0000120C2E90401AB6B00221C615A6138BD07
:10F3D00084A907103DFE3F0254FE3F020E33CDAB21
:10F3E00034126DE6ECDE0500C9B2034610F8012BBD
:10F3F0001AB18A42F9D118467047002918BF002374
:10F40000F9E710B50446FFF7EFFF18B92046FBF700
:10F4100049FE204410BD034611F8012B03F8012BCF
:10F42000002AF9D1704710B57AB103460139841822
:10F4300013F8010B11F8012F904201D1A34201D121
:10F44000801A10BD0028F3D1FAE71046F9E738B565
:10F4500003460C4669B9BDE83840FFF7C5BF431CF9
:10F46000054621461846FFF7BFFF0028F7D128467A
:10F4700038BD0025F5E70000012B2DE9F04701D04C
:10F48000242B06D9FCF778FB162303600020BDE887
:10F49000F0870D46DFF8E0C02E4615F8014B14F852
:10F4A0000C7017F00807F7D12D2C32D12C780127DA
:10F4B000B51C002B5BD0102B09D1302C07D12C7838
:10F4C00004F0DF04582C4DD16C781023023507F17D
:10F4D00000484FF0000C08F1FF386646B8FBF3F91E
:10F4E00003FB198AA4F1300EBEF1090F16D8744639
:10F4F000A34224DDBCF1000F1EDBB1451CD301D1BA
:10F50000A24519DB06FB03464FF0010C15F8014B31
:10F51000E8E72B2C04BF2C78B51CCAE7A4F1410EF8
:10F52000BEF1190F01D8373CE2E7A4F1610EBEF13C
:10F53000190F04D8573CDBE74FF0FF3CE6E7BCF17E
:10F54000000F05DA22234646036042B930469EE7A3
:10F5500007B17642002AF9D0BCF1000F00D0691E35
:10F560001160F3E73024002BB1D10823AFE7302C32
:10F57000A5D00A23ABE700BFD2FE3F0213460A46DE
:10F58000014602480068FFF777BF00BF84A9071053
:10F590002DE9F843DFF8BC8006461F460D46D8F833
:10F5A0000000914600F058F8264B1C6834B9264CF0
:10F5B0001C60264B13B11B68C4F8883063681F2B8E
:10F5C00007DDD8F8000000F049F84FF0FF30BDE843
:10F5D000F8835EB3D4F8880088B91D4B23B9D8F8F6
:10F5E000000000F03AF8F0E74FF48470FCF77EFA80
:10F5F0000028F4D00023C0E94033C4F888006368D1
:10F600000122022E40F8239002FA03F200EB83015C
:10F61000D0F8003143EA0203C0F80031C1F880702D
:10F6200002BFD0F804311343C0F804316368D8F83E
:10F6300000005A1C0233626044F8235000F00EF8B8
:10F640000020C4E7E0AF071054AF0710000000002F
:10F65000CDBD3F02E8A90710704770477047000012
:10F66000000000000000FB349B5F80000080001061
:10F67000000000000000000095B33F02BDB33F0250
:10F68000C1B33F020000000043616C6C206F6E202C
:10F6900070757265207669727475616C00636F6C49
:10F6A0006F72436F64653A203078256C78207273EE
:10F6B00073693D256420616464726573733D253010
:10F6C00032583A253032583A253032583A253032BD
:10F6D000583A253032583A25303258200025233008
:10F6E00038780A0000000000000000000000000060
:10F6F00000000000DDB33F0205B43F02000000003F
:10F700000000000009B43F0225B43F0207B43F02E5
:10F71000000000000000000039B43F026DB43F0259
:10F720008DD43F0235D63F020000000000000000EB
:10F73000FDBE3F0207BF3F0211BF3F021BBF3F029A
:10F7400025BF3F0231BF3F023DBF3F0245BF3F02E1
:10F750004DBF3F0259BF3F0261BF3F026BBF3F0237
:10F7600075BF3F020000000000000000BFC03F0264
:10F77000B5C03F02ABC03F0261C03F029FC03F0225
:10F7800093C03F023DBF3F0245BF3F0287C03F02DB
:10F790007FC03F0275C03F026BC03F0275BF3F0292
:10F7A000000000000000000025640025750075259C
:10F7B000303478000000000000000000CBC43F029D
:10F7C00033C53F0209C53F02E1D73F02FBC43F02F8
:10F7D000CDC43F02DDC43F022DC53F02EDC43F0250
:10F7E000C5C43F020000000000000000E1C53F0268
:10F7F000D1C53F02D3C53F0225592D256D2D256466
:10F800005425483A254D3A2553257A00617363748F
:10F81000696D6500626175640053657269616C00B1
:10F8200053657269616C31004A534F4E537472656F
:10F83000616D4C6F6748616E646C657200617070D9
:10F8400000253031307520005D20002C2000282953
:10F850003A2000205B00636F6465203D200025692D
:10F860000064657461696C73203D20000D0A006DB1
:10F870000066006C6E00666E007400636F64650065
:10F8800064657461696C0000000000000000000005
:10F8900061C83F0287C83F0245C83F020BC13F0213
:10F8A000000000000000000039CD3F0251CD3F02B2
:10F8B0008DD43F0235D63F0200000000000000005A
:10F8C00065CD3F0279CD3F026DD63F024DC83F0264
:10F8D00000000000000000005FC83F0295C83F0222
:10F8E000F1D33F024FC83F020000000000000000BB
:10F8F0005DC83F02A3C83F027DCC3F02C5C83F029E
:10F90000417373657274696F6E4661696C75726577
:10F910002066616C736500776972696E672E626C30
:10F920006500537461727420646973636F766572E5
:10F93000696E672073657276696365732E00FFFFD9
:10F94000FFFFFFFF00417373657274696F6E46615C
:10F95000696C7572652068616C5F626C655F737459
:10F9600061636B5F696E6974286E756C6C7074721C
:10F9700029203D3D2053595354454D5F4552524F28
:10F98000525F4E4F4E45004661696C656420746F4E
:10F9900020616C6C6F63617465206D656D6F727949
:10F9A00021004661696C656420746F206170706528
:10F9B0006E6420706565722043656E7472616C20A0
:10F9C0006465766963652E00436F6E6E656374656A
:10F9D0006400446973636F6E6E65637465640000F0
:10F9E000000000000000000073D83F0295D83F02DD
:10F9F00057DF3F02A3D83F0275D83F020000000046
:10FA000000000000F1EE3F025DEF3F0235EF3F02E4
:10FA1000E1D73F0205EF3F0221EF3F0213EF3F0224
:10FA20002FEF3F02F3EE3F02F7EE3F02000000002F
:10FA30000000000033F03F0229F03F021FF03F02B8
:10FA400015F03F0209F03F02FDEF3F023DBF3F02CC
:10FA500045BF3F02F1EF3F02E9EF3F02DFEF3F0218
:10FA6000D5EF3F0275BF3F0200537431395F5370C9
:10FA70005F6D616B655F7368617265645F74616718
:10FA800000000000A4FD3F0249FD3F0204FE3F02CA
:10FA900078FD3F0228FE3F024E31305F5F63787889
:10FAA000616269763131375F5F636C6173735F7474
:10FAB0007970655F696E666F4500000000000000A8
:10FAC0006CFD3F02F9F33F020DF43F02A1F53F0246
:10FAD000A1F53F0277F43F02B9F33F025FF43F0222
:10FAE00021F43F02EBF33F0204FE3F02D4FD3F024C
:10FAF0006CFD3F024E31305F5F63787861626976FA
:10FB00003132305F5F73695F636C6173735F747907
:10FB100070655F696E666F450000000000000000C0
:10FB2000C8FD3F02A1F43F02B5F43F02A1F53F0238
:10FB3000A1F53F0277F43F02B9F33F0275F53F02AA
:10FB400001F53F02C9F43F02A4FD3F0230FE3F022F
:10FB5000537439747970655F696E666F00524545FC
:10FB60004E54206D616C6C6F6320737563636565C3
:10FB7000646564002F6D6E742F776F726B737061A4
:10FB800063652F776F726B73706163652F474343B3
:10FB90002D31302D706970656C696E652F6A656EE8
:10FBA0006B696E732D4743432D31302D706970653D
:10FBB0006C696E652D34385F323032303131323419
:10FBC0005F313630363138303634312F7372632F2F
:10FBD0006E65776C69622F6E65776C69622F6C69F0
:10FBE00062632F7374646C69622F72616E642E633A
:10FBF000000020202020202020202028282828281D
:10FC000020202020202020202020202020202020F4
:10FC1000202088101010101010101010101010104C
:10FC2000101004040404040404040404101010104C
:10FC30001010104141414141410101010101010107
:10FC40000101010101010101010101010110101077
:10FC500010101042424242424202020202020202DA
:10FC6000020202020202020202020202021010104A
:10FC70001020000000000000000000000000000054
:10FC80000000000000000000000000000000000074
:10FC90000000000000000000000000000000000064
:10FCA0000000000000000000000000000000000054
:10FCB0000000000000000000000000000000000044
:10FCC0000000000000000000000000000000000034
:10FCD0000000000000000000000000000000000024
:10FCE0000000000000000000000000000000000014
:10FCF00000000000A1B63F024DC03F02C9C03F0254
:10FD000025C83F0231C83F027DD43F02E1EE3F02E9
:08FD1000B1EF3F023DF03F029C
:10FD180000000002ECFA3F02B8FB3F02D0FB3F02B2
:10FD280088A9071000000000000000000000000083
:10FD380000000000000000000000000000000000BB
:10FD480000000000000000000000000000000000AB
:10FD5800000000000000000000000000000000009B
:10FD6800000000000000000000000000000000008B
:10FD7800000000000000000000000000000000007B
:08FD880000000000E4AF0710C9
:04FD9000000000006F
:10FFBE000200100000B05F0888B05F0868B33F020F
:10FFCE0001000A00FFFFFFFFFFFF00000102030414
:10FFDE0005060708090A0B0C0D0E0F10111213144B
:0EFFEE0015161718191A1B1C1D1E1F203E0089
:04FFFC0078563412ED
:04000005085FB018C8
:00000001FF
