:02000004085D95
:1060000000605D08FCFF5F0800000600200005013D
:0860100004015014000000001F
:106018000E480F4908B5884205D00E4A824202D080
:106028000D4B121A98470D480D4A00210D4B121AB4
:1060380098470D480D49884205D00D4A824202D042
:10604800054B121A9847014808BD00BF808F0710FA
:10605800C0F05F08589207102D0D111058920710C4
:10606800E8AF0710A10E1110C86F3D0290605D08DF
:0C607800F8FF3F0219605D080000000006
:08608400C019E07901000000E1
:086090007C605D08A0BA3F022C
:1060980081F0004102E000BF83F0004330B54FEAD1
:1060A80041044FEA430594EA050F08BF90EA020F3E
:1060B8001FBF54EA000C55EA020C7FEA645C7FEAD1
:1060C800655C00F0E2804FEA5454D4EB5555B8BFF4
:1060D8006D420CDD2C4480EA020281EA030382EA65
:1060E800000083EA010180EA020281EA0303362DF7
:1060F80088BF30BD11F0004F4FEA01314FF4801CCA
:106108004CEA113102D0404261EB410113F0004FDB
:106118004FEA03334CEA133302D0524263EB430392
:1061280094EA050F00F0A780A4F10104D5F1200E30
:106138000DDB02FA0EFC22FA05F2801841F100018B
:1061480003FA0EF2801843FA05F359410EE0A5F15F
:1061580020050EF1200E012A03FA0EFC28BF4CF090
:10616800020C43FA05F3C01851EBE37101F0004546
:1061780007D54FF0000EDCF1000C7EEB00006EEB53
:106188000101B1F5801F1BD3B1F5001F0CD34908DD
:106198005FEA30004FEA3C0C04F101044FEA445234
:1061A80012F5800F80F09A80BCF1004F08BF5FEABB
:1061B800500C50F1000041EB045141EA050130BD9B
:1061C8005FEA4C0C404141EB0101013C28BFB1F5AD
:1061D800801FE9D291F0000F04BF01460020B1FAF8
:1061E80081F308BF2033A3F10B03B3F120020CDACB
:1061F8000C3208DD02F1140CC2F10C0201FA0CF0A9
:1062080021FA02F10CE002F11402D8BFC2F1200C0D
:1062180001FA02F120FA0CFCDCBF41EA0C019040C3
:10622800E41AA2BF01EB0451294330BD6FEA04040C
:106238001F3C1CDA0C340EDC04F11404C4F12002F7
:1062480020FA04F001FA02F340EA030021FA04F309
:1062580045EA030130BDC4F10C04C4F1200220FA60
:1062680002F001FA04F340EA0300294630BD21FA9E
:1062780004F0294630BD94F0000F83F4801306BF64
:1062880081F480110134013D4EE77FEA645C18BF58
:106298007FEA655C29D094EA050F08BF90EA020FEF
:1062A80005D054EA000C04BF1946104630BD91EAE7
:1062B800030F1EBF0021002030BD5FEA545C05D1EA
:1062C8004000494128BF41F0004130BD14F5800429
:1062D8003CBF01F5801130BD01F0004545F0FE419D
:1062E80041F470014FF0000030BD7FEA645C1ABFD2
:1062F800194610467FEA655C1CBF0B46024650EA09
:10630800013406BF52EA033591EA030F41F4002134
:1063180030BD00BF90F0000F04BF0021704730B5BA
:106328004FF4806404F132044FF000054FF000018F
:1063380050E700BF90F0000F04BF0021704730B550
:106348004FF4806404F1320410F0004548BF404225
:106358004FF000013EE700BF42004FEAE2014FEA7A
:1063680031014FEA02701FBF12F07F4393F07F4F55
:1063780081F06051704732F07F4208BF704793F058
:106388007F4F04BF41F40021704730B54FF460746B
:1063980001F0004521F000411CE700BF50EA01026E
:1063A80008BF704730B54FF000050AE050EA010217
:1063B80008BF704730B511F0004502D5404261EB87
:1063C80041014FF4806404F132045FEA915C3FF4C8
:1063D800D8AE4FF003025FEADC0C18BF03325FEA65
:1063E800DC0C18BF033202EBDC02C2F1200300FA16
:1063F80003FC20FA02F001FA03FE40EA0E0021FA3B
:1064080002F11444BDE600BF70B54FF0FF0C4CF428
:10641800E06C1CEA11541DBF1CEA135594EA0C0FDA
:1064280095EA0C0F00F0DEF82C4481EA030621EA15
:106438004C5123EA4C5350EA013518BF52EA033550
:1064480041F4801143F4801338D0A0FB02CE4FF002
:106458000005E1FB02E506F00042E0FB03E54FF032
:106468000006E1FB03569CF0000F18BF4EF0010E2A
:10647800A4F1FF04B6F5007F64F5407404D25FEA26
:106488004E0E6D4146EB060642EAC62141EA5551D9
:106498004FEAC52040EA5E504FEACE2EB4F1FD0C1B
:1064A80088BFBCF5E06F1ED8BEF1004F08BF5FEA99
:1064B800500E50F1000041EB045170BD06F000464B
:1064C80046EA010140EA020081EA0301B4EB5C04F8
:1064D800C2BFD4EB0C0541EA045170BD41F48011F0
:1064E8004FF0000E013C00F3AB8014F1360FDEBF15
:1064F800002001F0004170BDC4F10004203C35DAF1
:106508000C341BDC04F11404C4F1200500FA05F373
:1065180020FA04F001FA05F240EA020001F0004214
:1065280021F0004110EBD37021FA04F642EB06018A
:106538005EEA430E08BF20EAD37070BDC4F10C04B4
:10654800C4F1200500FA04F320FA05F001FA04F278
:1065580040EA020001F0004110EBD37041F1000164
:106568005EEA430E08BF20EAD37070BDC4F120056F
:1065780000FA05F24EEA020E20FA04F301FA05F2D7
:1065880043EA020321FA04F001F0004121FA04F27F
:1065980020EA020000EBD3705EEA430E08BF20EA4F
:1065A800D37070BD94F0000F0FD101F00046400089
:1065B80041EB010111F4801F08BF013CF7D041EA0B
:1065C800060195F0000F18BF704703F0004652000F
:1065D80043EB030313F4801F08BF013DF7D043EAE0
:1065E8000603704794EA0C0F0CEA135518BF95EA96
:1065F8000C0F0CD050EA410618BF52EA4306D1D11D
:1066080081EA030101F000414FF0000070BD50EA3B
:10661800410606BF1046194652EA430619D094EAC5
:106628000C0F02D150EA013613D195EA0C0F05D1AF
:1066380052EA03361CBF104619460AD181EA030103
:1066480001F0004141F0FE4141F470014FF00000BB
:1066580070BD41F0FE4141F4780170BD70B54FF056
:10666800FF0C4CF4E06C1CEA11541DBF1CEA1355D6
:1066780094EA0C0F95EA0C0F00F0A7F8A4EB0504B8
:1066880081EA030E52EA03354FEA013100F08880AF
:106698004FEA03334FF0805545EA131343EA126378
:1066A8004FEA022245EA111545EA10654FEA00262D
:1066B8000EF000419D4208BF964244F1FD0404F5E6
:1066C800407402D25B084FEA3202B61A65EB030542
:1066D8005B084FEA32024FF480104FF4002CB6EBFF
:1066E800020E75EB030E22BFB61A754640EA0C007F
:1066F8005B084FEA3202B6EB020E75EB030E22BFBF
:10670800B61A754640EA5C005B084FEA3202B6EBFF
:10671800020E75EB030E22BFB61A754640EA9C00BE
:106728005B084FEA3202B6EB020E75EB030E22BF8E
:10673800B61A754640EADC0055EA060E18D04FEA4C
:10674800051545EA16754FEA06164FEAC30343EAEC
:1067580052734FEAC2025FEA1C1CC0D111F4801FB9
:106768000BD141EA00014FF000004FF0004CB6E7B2
:1067780011F4801F04BF01430020B4F1FD0C88BF51
:10678800BCF5E06F3FF6AFAEB5EB030C04BFB6EB5C
:10679800020C5FEA500C50F1000041EB045170BD4F
:1067A8000EF0004E4EEA113114EB5C04C2BFD4EB7C
:1067B8000C0541EA045170BD41F480114FF0000E00
:1067C800013C90E645EA060E8DE60CEA135594EA7C
:1067D8000C0F08BF95EA0C0F3FF43BAF94EA0C0F7F
:1067E8000AD150EA01347FF434AF95EA0C0F7FF4F4
:1067F80025AF104619462CE795EA0C0F06D152EA48
:1068080003353FF4FDAE1046194622E750EA41062B
:1068180018BF52EA43067FF4C5AE50EA41047FF43C
:106828000DAF52EA43057FF4EBAE12E74FF0FF3CA1
:1068380006E000BF4FF0010C02E000BF4FF0010C72
:106848004DF804CD4FEA410C7FEA6C5C4FEA430CEB
:1068580018BF7FEA6C5C1BD001B050EA410C0CBF3A
:1068680052EA430C91EA030F02BF90EA020F00209C
:10687800704710F1000F91EA030F58BF994208BF03
:1068880090422CBFD8176FEAE37040F001007047C0
:106898004FEA410C7FEA6C5C02D150EA013C07D117
:1068A8004FEA430C7FEA6C5CD6D152EA033CD3D062
:1068B8005DF8040B704700BF8446104662468C465C
:1068C8001946634600E000BF01B5FFF7B7FF00288F
:1068D80048BF10F1000F01BD4DF808EDFFF7F4FFB8
:1068E8000CBF012000205DF808FB00BF4DF808ED43
:1068F800FFF7EAFF34BF012000205DF808FB00BF66
:106908004DF808EDFFF7E0FF94BF012000205DF887
:1069180008FB00BF4DF808EDFFF7CEFF94BF01203C
:1069280000205DF808FB00BF4DF808EDFFF7C4FF35
:1069380034BF012000205DF808FB00BF4FEA410C7E
:106948007FEA6C5C02D150EA013C0AD14FEA430C61
:106958007FEA6C5C02D152EA033C02D14FF000009E
:1069680070474FF0010070474FEA410212F50012DC
:1069780015D211D56FF47873B3EB625212D94FEA7E
:10698800C12343F0004343EA505311F0004F23FA68
:1069980002F018BF404270474FF00000704750EABD
:1069A800013005D111F0004008BF6FF0004070477A
:1069B8004FF00000704700BF4A0011D212F50012D4
:1069C80011D20DD56FF47873B3EB62520ED44FEA3F
:1069D800C12343F0004343EA505323FA02F07047BF
:1069E8004FF00000704750EA013002D14FF0FF30FD
:1069F80070474FF0000070474FEA4102B2F1E043A0
:106A080024BFB3F5001CDCF1FE5C0DD901F0004C8D
:106A18004FEAC0024CEA5070B2F1004F40EB8300DD
:106A280008BF20F00100704711F0804F21D113F109
:106A38003872BCBF01F00040704741F480114FEA42
:106A48005252C2F11802C2F1200C10FA0CF320FACB
:106A580002F018BF40F001004FEAC1234FEAD323E8
:106A680003FA0CFC40EA0C0023FA02F34FEA430352
:106A7800CCE77FEA625307D150EA01331EBF4FF0DB
:106A8800FE4040F44000704701F0004040F0FE40F6
:106A980040F40000704700BF53B94AB9002908BF45
:106AA80000281CBF4FF0FF314FF0FF3000F0A0B9B5
:106AB800ADF1080C6DE904CE00F024F8DDF804E02F
:106AC800DDE9022304B07047D0B500220B4B06461F
:106AD8000F46FFF799FCFFF76FFF0446FFF71AFC14
:106AE8000022074BFFF790FC02460B46304639461A
:106AF800FFF7D2FAFFF760FF2146D0BD0000F03D56
:106B08000000F0412DE9F04F099D04460F46002B87
:106B180048D18A42944661D9B2FA82F343B1C3F1AB
:106B280020019F4002FA03FC9C4020FA01F10F4328
:106B38004FEA1C411FFA8CFE220CB7FBF1F601FB51
:106B4800167706FB0EF042EA0742904208D91CEB82
:106B5800020206F1FF3702D2904200F237813E4628
:106B6800121AA4B2B2FBF1F001FB102200FB0EFED8
:106B780044EA0244A64508D91CEB040400F1FF329C
:106B880002D2A64500F21C81104640EA0640A4EB5A
:106B98000E0400261DB1DC400023C5E90043314640
:106BA800BDE8F08F8B4209D9002D00F0FD8000264A
:106BB800C5E9000130463146BDE8F08FB3FA83F6E7
:106BC800002E4BD18B42C0F0F280824240F2EF801F
:106BD8003046002DE3D0C5E90047E0E702B9FFDE03
:106BE800B2FA82F3002B40F09D80891A4FEA124EC8
:106BF80097B20126200CB1FBFEF20EFB121140EAFF
:106C0800014107FB02F088420FD91CEB010102F198
:106C1800FF382CBF4FF001094FF00009884203D913
:106C2800B9F1000F00F0CF804246091AA4B2B1FBB7
:106C3800FEF00EFB101100FB07F744EA0144A742DF
:106C480008D91CEB040400F1FF3102D2A74200F27C
:106C5800B4800846E41B40EA02409BE7C6F12007DF
:106C6800B34001FA06F422FA07FCF940B2404CEAB4
:106C7800030C20FA07F34FEA1C491C431FFA8CFE49
:106C880000FA06F3200CB1FBF9F809FB181140EAE9
:106C9800014108FB0EF088420FD91CEB010108F1F5
:106CA800FF3A2CBF4FF0010B4FF0000B884203D97D
:106CB800BBF1000F00F08D80D046091AA4B2B1FBD9
:106CC800F9F009FB101100FB0EFE44EA01418E4564
:106CD80007D91CEB010100F1FF3401D28E457FD8A2
:106CE800204640EA0840A1EB0E01A0FB029841456E
:106CF8004C46C64602D306D14B4504D20138B9EBFF
:106D0800020468EB0C0E002D70D01A1B61EB0E010B
:106D180022FA06F301FA07F7F14000261F43C5E9F6
:106D280000713CE702FA03FCC3F1200001FA03F208
:106D380021FA00F64FEA1C4E24FA00F11FFA8CF7EC
:106D48009C401143B6FBFEF00A0C0EFB106642EAAB
:106D5800064200FB07F696420ED91CEB020200F130
:106D6800FF382CBF4FF001094FF00009964202D9B5
:106D7800B9F1000F31D04046921B89B2B2FBFEF642
:106D88000EFB162241EA024106FB07F28A4207D9A6
:106D98001CEB010106F1FF3801D28A4223D846468E
:106DA800891A46EA004625E72E462846F7E6841A59
:106DB80061EB030301201F460BE76444023849E7EF
:106DC80064440238E1E6023A61442EE7023E624436
:106DD800C6E6A8F1020861446FE702386244CBE7CF
:106DE800023861447DE7023E6144D9E72E46D6E683
:106DF800704700BF10F8012B11F8013B012A28BF8A
:106E08009A42F7D0D01A7047034613F8012B002A8C
:106E1800FBD1181A0138704738B500220023044600
:106E28000D46FFF763FD28B920462946BDE83840DE
:106E3800FFF74ABE204605F10041FFF745FE4042F4
:106E480061EB410138BD00BF70B501F003FD0025BD
:106E5800054E064CA41BA408AC4200D170BD56F8E0
:106E6800043B98470135F7E7C0FF3F02F8FF3F02B0
:106E780000F080B808B500F0A7F8BDE8084001F0B8
:106E8800A1BC00F025BF00F023BF00F02FBF00F029
:106E98002DBF00F02BBF000000487047B2BC3F0276
:106EA8000C2008B5024A034900F0C2FDFEE700BF06
:106EB80001893D02B0BA3F020078B0FA80F040097B
:106EC800704701230370704770477047002210B560
:106ED8000446044B114640F8043B00F0EFFD204601
:106EE80010BD00BF08BB3F0210B50446FFF7EEFF18
:106EF80020462021FFF7CDFF204610BD10B50446DF
:106F0800094B036001F070FE214602F0B9F801F068
:106F180083FB01F075FB2046044B40F8043B01F06D
:106F28004BFF204610BD00BF1CBB3F02F0BA3F021A
:106F380010B50446FFF7E2FF20462421FFF7A9FF1A
:106F4800204610BD0EB44FF0200C002300B58CB0C5
:106F58000DAA52F8041BCDE904C3CDE9001203922F
:106F6800016804AA1E2000F07FFD0CB05DF804EB58
:106F780003B0704738B502F029FF02F043FF01F073
:106F88004BFB4FF4165101F037FB1020FFF779FF48
:106F9800044620B102231022272100F05BF9084D96
:106FA80020462C6000F068FA286800F07DF928680F
:106FB80000F0B8F928680349BDE8384000F05EBA27
:106FC80060920710C5BA3F02F0B58DB002F0FEFE20
:106FD800642102F05DFF02F0F9FE1E22214900261D
:106FE80002F0A0FF354607461F4CBD421BDA1F239F
:106FF800FF21204604AA02F0E6FD0A2810D19DF8D8
:107008001030AB2B0CD19DF81130CD2B08D19DF849
:107018001230332B02BFDDF81330BDF8176003932D
:1070280001352434E1E7114F01223868002100F0CE
:107038008DF90398FFF790F904460D460C4A0A218A
:10704800CDE9004504A800F089FE04A9386802F0DB
:1070580039FC3246CDE9004506490748FFF772FF7B
:107068000DB0F0BDA8920710B092071060920710FB
:10707800D6BA3F02DFBA3F023097071070B5142620
:10708800D0E90053044606FB0356AE4204D0284616
:1070980004F028F81435F8E7206800F027FE2046A9
:1070A80070BD8842F8B504460D46164616D990427A
:1070B80015D2A2F11406751AA1F114072C44B7428F
:1070C8001CD02CB13146204604F088F8337C237458
:1070D800304604F007F8143E143CF0E70ED0B542F1
:1070E8000CD02CB12946204604F078F82B7C237468
:1070F800284603F0F7FF14351434F0E7F8BD0023F1
:107108002DE9F041C0E9003383604F6804469F428F
:107118000E4624DD4FF0140808FB07F000F0D8FDF8
:107128000546E0B1D4E9001208FB0212FFF7B9FFE7
:10713800206800F0DBFD2560A760D6E9007308FB36
:107148000378B84509D03946284604F061F83B7CF5
:10715800143505F8043C1437F3E773686360204678
:10716800BDE8F08170B530488EB004F0DFF9002337
:10717800CDE90233049301F04FFA054602A905A8A8
:10718800FFF7BDFF05A908A8284CFFF7B8FF284B53
:1071980008A923600BA8FFF7B2FF0BAA0121201D45
:1071A80002F050F80BA8FFF769FF08A8FFF766FF81
:1071B800204B2562236005A8FFF760FF1E4B1E25A4
:1071C800236001F029FA4FF4165101F015FA01F085
:1071D8000BFD214601F00EFF02A8FFF74FFF7F26A7
:1071E800164C204602F09EFC04F1080003F0BFF99B
:1071F80004F1140003F0BBF9013D84F8206004F1A8
:107208002404EED12A461421012000F037FD012282
:107218001E210346CDE9001209486FF07F4100F0B6
:107228002FFE0EB070BD00BF5C920710849207104D
:10723800F0BA3F02E8BC3F021CBB3F02A89207100D
:1072480064920710704710B504461021FFF721FE1D
:10725800204610BD70B50025034E456006600172DA
:1072680042738373C57370BD34BB3F0238B504469F
:107278000D4604F039F8217A00F06CFF022000F086
:107288009FFB04F031F8E17B036829439B6898472A
:10729800022000F095FB04F027F800F063FFBDE83A
:1072A8003840022000F08CBB08230021C373FFF78D
:1072B800DDBF38B505460C4641F00401FFF7D6FF9F
:1072C800012000F07DFB284604F0FB01FFF7CEFF0C
:1072D800BDE83840322000F073BB38B504460D468F
:1072E800FFF7C4FF29462046BDE83840FFF7E1BF55
:1072F80070B50D461446064621F00F011143FFF7FD
:10730800ECFF44EA05113046BDE87040C9B2FFF70A
:10731800E4BF08B50122FFF7EBFF002008BD0022FB
:10732800FFF7E6BF08B50121FFF7F9FFBDE8084000
:107338004FF4FA6000F044BB08B50221FFF7EFFFF5
:10734800BDE808404FF4FA6000F03ABB7FB5064646
:1073580015460C460C4B0DF1100C0FCB0CE90F0029
:10736800327B04ABAA423CBF02F1FF32D5B203EB39
:10737800850555F8101C3046214461F07F01C9B2DB
:10738800FFF7CDFF04B070BD78BA3F0208B5817A27
:1073980041F00402827241F00C01FFF7C0FF08BD02
:1073A80010B5012A88BF417A044684BF41F008011C
:1073B800417202732BB1012A02BF437A43F00403DE
:1073C8004372322001F0CDF9E17B2046FFF74EFFF2
:1073D8004FF47A7001F0C5F930212046FFF77DFFA0
:1073E80041F2941000F0ECFA30212046FFF775FFC7
:1073F80041F2941000F0E4FA30212046FFF76DFFC7
:10740800962000F0DDFA20462021FFF766FF617A1A
:10741800204641F02001FFF782FF04232046A37293
:10742800FFF7B4FF2046FFF77DFF02232046E372F3
:107438000621FFF774FF2046BDE81040FFF77CBF28
:1074480010B5044603F050FF0A4900F075FE03F03A
:107458004BFF012100F074FE03F046FF00F074FEBC
:1074680000232046A27B617B6372BDE81040FFF7D2
:1074780097BF00BFA0860100FFF7E2BF02F022BA63
:1074880009B504480068044B03441B681B68029351
:1074980009BD0000808F07103400000009B50448BA
:1074A8000068044B03441B685B68029309BD000035
:1074B800808F07103400000009B504480068044BA9
:1074C80003441B689B68029309BD0000808F071066
:1074D8003400000009B504480068044B03441B68E5
:1074E8001B69029309BD0000808F0710340000005B
:1074F80009B504480068044B03441B685B690293A0
:1075080009BD0000808F07103400000009B5044849
:107518000068044B03441B689B69029309BD000083
:10752800808F07103400000009B504480068044B38
:1075380003441B68DB69029309BD0000808F0710B4
:107548003400000009B504480068044B03441B6874
:107558001B6A029309BD0000808F071034000000E9
:1075680009B504480068044B03441B681B68029370
:1075780009BD0000808F07101000000009B50448FD
:107588000068044B03441B689B68029309BD000014
:10759800808F07101000000009B504480068044BEC
:1075A80003441B68DB68029309BD0000808F071045
:1075B8001000000009B504480068044B03441B6828
:1075C8009B69029309BD0000808F0710100000001E
:1075D80009B504480068044B03441B68DB6902933F
:1075E80009BD0000808F07101000000009B504488D
:1075F8000068044B03441B681B6A029309BD000022
:10760800808F07101000000009B504480068044B7B
:1076180003441B685B6A029309BD0000808F071052
:107628001000000009B504480068044B03441B68B7
:107638009B6A029309BD0000808F071010000000AC
:1076480009B504480068044B03441B68DB6A0293CD
:1076580009BD0000808F07101000000009B504481C
:107668000068044B03441B681B6B029309BD0000B0
:10767800808F07101000000009B504480068044B0B
:1076880003441B681B6C029309BD0000808F071020
:107698001000000009B504480068044B03441B6847
:1076A8009B68029309BD0000808F0710240000002A
:1076B80009B504480068044B03441B68DB6802935F
:1076C80009BD0000808F07102400000009B5044898
:1076D8000068044B03441B681B69029309BD000042
:1076E800808F07102400000009B504480068044B87
:1076F80003441B685B69029309BD0000808F071073
:107708002400000009B504480068044B03441B68C2
:107718009B69029309BD0000808F071024000000B8
:1077280009B504480068044B03441B68DB690293ED
:1077380009BD0000808F07102400000009B5044827
:107748000068044B03441B681B6A029309BD0000D0
:10775800808F07102400000009B504480068044B16
:1077680003441B689B6A029309BD0000808F0710C1
:107778002400000009B504480068044B03441B6852
:10778800DB6A029309BD0000808F07102400000007
:1077980009B504480068044B03441B681B6C02933A
:1077A80009BD0000808F07102400000009B50448B7
:1077B8000068044B03441B685B69029309BD000021
:1077C800808F07104C00000009B504480068044B7E
:1077D80003441B685B6C029309BD0000808F07108F
:1077E8003000000009B504480068044B03441B68D6
:1077F8009B6C029309BD0000808F071030000000C9
:1078080009B504480068044B03441B68DB6C029309
:1078180009BD0000808F07103000000009B504483A
:107828000068044B03441B685B6D029309BD0000AC
:10783800808F07103000000009B504480068044B29
:1078480003441B689B68029309BD0000808F0710E2
:107858006000000009B504480068044B03441B6835
:107868005B6F029309BD0000808F07106000000065
:1078780009B504480068044B03441B689B6F0293D6
:1078880009BD0000808F07106000000009B504489A
:107898000068044B03441B68DB6F029309BD0000BA
:1078A800808F07106000000009B504480068044B89
:1078B80003441B68D3F88430029309BD808F0710F6
:1078C8006000000009B504480068044B03441B68C5
:1078D800D3F89830029309BD808F0710600000002C
:1078E80009B504480068044B03441B68D3F8F0301A
:1078F800029309BD808F07106000000009B5044895
:107908000068044B03441B685B68029309BD0000D0
:10791800808F07106400000009B504480068044B14
:1079280003441B689B68029309BD0000808F071001
:107938006400000009B504480068044B03441B6850
:10794800DB68029309BD0000808F07106400000007
:1079580009B504480068044B03441B685B6902933B
:1079680009BD0000808F07106400000009B50448B5
:107978000068044B03441B68DB69029309BD0000DF
:10798800808F07106400000009B504480068044BA4
:1079980003441B681B6A029309BD0000808F07100F
:1079A8006400000009B504480068044B03441B68E0
:1079B8005B68029309BD0000808F0710000000007B
:1079C80009B504480068044B03441B68DB6802934C
:1079D80009BD0000808F07100000000009B50448A9
:1079E8000068044B03441B685B69029309BD0000EF
:1079F800808F07100000000009B504480068044B98
:107A080003441B689B68029309BD0000808F071020
:107A18005000000009B504480068044B03441B6883
:107A2800DB68029309BD0000808F0710500000003A
:107A380009B504480068044B03441B685B6B029358
:107A480009BD0000808F07104800000009B50448F0
:107A58000068044B03441B681B6D029309BD0000BA
:107A6800808F07104800000009B504480068044BDF
:107A780003441B685B6D029309BD0000808F0710EB
:107A88004800000009B504480068044B03441B681B
:107A9800DB6E029309BD0000808F071048000000CC
:107AA80009B504480068044B03441B681B6F029324
:107AB80009BD0000808F07104800000009B5044880
:107AC8000068044B03441B68D3F88030029309BD57
:107AD800808F07104800000009B504480068044B6F
:107AE80003441B68DB6B029309BD0000808F0710FD
:107AF8002C00000009B504480068044B03441B68C7
:107B08005B68029309BD0000808F07102800000001
:107B180009B504480068044B03441B689B6802933A
:107B280009BD0000808F07102800000009B504482F
:107B38000068044B03441B68DB68029309BD00001E
:107B4800808F07102800000009B504480068044B1E
:107B580003441B681B69029309BD0000808F07104E
:107B68002800000009B504480068044B03441B685A
:107B78005B69029309BD0000808F07102800000090
:107B880009B504480068044B03441B689B690293C9
:107B980009BD0000808F07102800000009B50448BF
:107BA8000068044B03441B68DB69029309BD0000AD
:107BB800808F07102800000009B504480068044BAE
:107BC80003441B681B6A029309BD0000808F0710DD
:107BD8002800000009B504480068044B03441B68EA
:107BE8001B6B029309BD0000808F0710280000005E
:107BF80009B504480068044B03441B685B6B029397
:107C080009BD0000808F07102800000009B504484E
:107C18000068044B03441B681B6C029309BD0000F9
:107C2800808F07102800000009B504480068044B3D
:107C380003441B685B6C029309BD0000808F07102A
:107C48002800000009B504480068044B03441B6879
:107C58005B68029309BD0000808F071008000000D0
:107C680009B504480068044B03441B685B69029328
:107C780009BD0000808F07100800000009B50448FE
:107C88000068044B03441B68DB6F029309BD0000C6
:107C9800808F07100800000009B504480068044BED
:107CA80003441B68D3F88830029309BD808F0710FE
:107CB8000800000009B504480068044B03441B6829
:107CC800D3F89430029309BD808F07100800000094
:107CD80009B504480068044B03441B681B680293F9
:107CE80009BD0000808F07100400000009B5044892
:107CF8000068044B03441B685B68029309BD0000DD
:107D0800808F07100400000009B504480068044B80
:107D180003441B689B68029309BD0000808F07100D
:107D28000400000009B504480068044B03441B68BC
:107D38005B69029309BD0000808F071004000000F2
:107D480009B504480068044B03441B689B69029307
:107D580009BD0000808F07100400000009B5044821
:107D68000068044B03441B68DB69029309BD0000EB
:107D7800808F07100400000009B504480068044B10
:107D880003441B685B6A029309BD0000808F0710DB
:107D98000400000009B504480068044B03441B684C
:107DA800DB6A029309BD0000808F07100400000001
:107DB80009B504480068044B03441B681B6B029315
:107DC80009BD0000808F07100400000009B50448B1
:107DD8000068044B03441B685B6B029309BD0000F9
:107DE800808F07100400000009B504480068044BA0
:107DF80003441B689B6B029309BD0000808F07102A
:107E08000400000009B504480068044B03441B68DB
:107E1800DB6B029309BD0000808F0710040000008F
:107E280009B504480068044B03441B681B6C0293A3
:107E380009BD0000808F07100400000009B5044840
:107E48000068044B03441B685B6C029309BD000087
:107E5800808F07100400000009B504480068044B2F
:107E680003441B689B6C029309BD0000808F0710B8
:107E7800040000000B460A6801469268184610473D
:107E880070B50E4C002504601C24C0E901459DF81E
:107E980014409DF8106004F0030444EA8604E4B238
:107EA8000474427485744161427CC5600F2A0ABF1C
:107EB800034B0383C0E9063070BD00BF08BB3F0217
:107EC800B58D3D02002340681A46FFF713BE002215
:107ED80002214068FFF72ABE002240681146FFF7DA
:107EE80017BE002240681146FFF72EBE00234068E7
:107EF8001A461946FFF736BE002340681A46194647
:107F0800FFF73EBE00214068FFF780BE00214068B1
:107F1800FFF78ABE0022406881F00101FFF73EBEEC
:107F280000224068FFF756BE002240681146FFF75E
:107F38005FBE002240681146FFF73EBE2DE9F043C0
:107F480095B014460D46074600F0C4FB00211C22DC
:107F58000DA800911DF025F9402320460C9300211F
:107F68006B460CAAFFF756FD044600284BD1024683
:107F780001216868FFF7E8FD02218046224668680B
:107F8800FFF7E2FD21468146009E002E3BD00029E6
:107F980039D17368022B03D00A2B11D0F669F4E7A4
:107FA800B8F1000FFAD0716906A804313C1D07AD7D
:107FB80000F0BEFB0FCD0FC42B6841462370EDE7E0
:107FC800B9F1000FEAD0102201A874691DF0E9F890
:107FD800062301AD8DF8143004F1080318342A463D
:107FE80018685968083303C2A3421546F7D101A996
:107FF80006A83C1D07AD00F07BFB0FCD0FC42B6816
:1080080049462370CAE70098FFF7F6FC384615B0D2
:10801800BDE8F083024B034A1A6000225A60704799
:10802800E09607104CBB3F02002240681146FFF75C
:108038008BBD002240681146FFF7BEBD0022406894
:108048001146FFF7D5BD00224068FFF7C3BD0022E7
:10805800406881F00101FFF7A1BD002340681A467E
:108068001946FFF78DBD002340681A461946FFF7E9
:1080780079BD002240681146FFF74ABD002202215F
:108088004068FFF753BD002340681A46FFF732BD2A
:108098000422024B5A60024A1A607047E896071099
:1080A80088BB3F027047F8B5064615460C468F1840
:1080B800BC4206D0336830469B6814F8011B9847C9
:1080C800F6E72846F8BD0022007CFFF78FBA0021AA
:1080D800007CFFF799BA0021007CFFF7A3BA0021C2
:1080E800007CFFF7ADBA0021007CFFF7B7BA10B5E6
:1080F80004461421FEF7CDFE204610BD38B50446CF
:1081080015464FF47A730022C4E90123094B084647
:10811800217423602946FFF7AFFABF3008D16B6995
:10812800DB0705D56868FFF7E1FDE868FFF7DEFDC6
:10813800204638BDCCBB3F020022007CFFF710BAB6
:108148000022007CFFF71ABA0023007C1A46194661
:10815800FFF722BA0022007CFFF72CBA0022007C2D
:10816800FFF736BA0121FFF7F9BF012200F110032A
:1081780013F8101C1846012908D153F8041C02EB07
:108188004102013A03F11003F2D17047022904BFFA
:1081980053F8041C5218F4E70EB4F0B588B0102157
:1081A80000AF07F1340555F8042B04462B46781820
:1081B8007A60FD60FFF7E0FD0F287A681AD900F1B0
:1081C800080323F007036E46ADEB030D411C2B4655
:1081D8006846FD60FFF7D0FD021E04DD236869468E
:1081E80020469B689847B5462037BD46BDE8F04015
:1081F80003B070470028F7D0236802469B682046E2
:1082080007F110019847EFE710B543680446013BB2
:10821800436063B903689B689847A368013BA36000
:108228002BB923682046BDE81040DB68184710BD0D
:1082380038B50B68044603604D6843689D4208D012
:1082480015B16B6801336B60606808B1FFF7DCFF3C
:10825800656038BD07B503688DF8071001229B6873
:108268000DF10701984703B05DF804FB0B46114672
:10827800002210B50446C0E9002283600BB92046ED
:1082880010BDFFF7D5FFFAE78368EBB11A78032A28
:108298001AD8DFE802F00417021B052070470268AD
:1082A8005B685268D05C2D2812D0A0F13003092BEE
:1082B8000ED974280ED066280CD0A0F16E0358424F
:1082C80058417047062070470020704704207047C7
:1082D800032070470220704710B50446FFF7D4FF0B
:1082E80002280ED0C31EDBB2012B14D82268A36863
:1082F80050685B680A22BDE81040002118441EF04F
:108308002FB82268A36852685B68D05CA0F1740338
:108318005842584110BD0020FCE7000038B5002342
:108328000446C0E900330E48C4E90203A9B10B783A
:10833800032B06D08BB9136858684B68C35C6E2B47
:1083480007D013684D6858688B6828445B1BA06089
:10835800E36011462046FFF76BFF204638BD00BF9B
:10836800B2BC3F0238B500250B4604461146C0E9A9
:108378000055C0E90255C0E904554BB11A78012AE5
:1083880006D103F11002DB6882604361FFF750FFFA
:10839800204638BD10B54369044663B18068013B87
:1083A800E0601030A0602061636113B1FFF7DDFE6B
:1083B800A060012000E0184610BD10B57D210446DC
:1083C800FFF748FF01232046237110BD08B5037944
:1083D800012B02D0022B04D008BD2C21FFF73AFF55
:1083E800FAE73A21FAE710B50446FFF7EFFF20460F
:1083F8007B21FFF72FFF00232046237110BD0000CB
:1084080013B504460191FFF7E1FF23682046DB68B6
:10841800019A0349984701232046237102B010BDF1
:10842800ECBB3F0213B504460191FFF7CFFF236869
:108438002046DB68019A03499847012320462371A7
:1084480002B010BDEFBB3F022DE9F0470D46904644
:10845800222104462F46FFF7FDFEDFF8A490A8442A
:108468004745BA463DD017F8016B222E06D05C2E40
:1084780004D030461CF0DEFC0028F1D123682946E0
:1084880020469B68AAEB050298475C212046FFF727
:10849800E1FE0D2E0AD8072E1CD9A6F10803052BDC
:1084A80018D8DFE803F00D0F11171315222E01D08D
:1084B8005C2E0FD131462046FFF7CCFE3D46CFE774
:1084C8006221F8E77421F6E76E21F4E76621F2E706
:1084D8007221F0E72368324649462046DB68984710
:1084E800ECE7BD4205D02368294620469B687A1BE5
:1084F800984722212046FFF7ADFEBDE8F08700BF70
:10850800F2BB3F0213B50446CDE90021FFF75EFF39
:10851800DDE900212046FFF797FF0223204623715B
:1085280002B010BD13B50446CDE90021FFF74EFF98
:10853800DDE900212046FFF787FF0123204623714C
:1085480002B010BD10B50446006808B1FFF75CFE24
:10855800204610BD417470477047704708B5002128
:10856800007CFEF7D3FF40EAE07008BD08B50121A2
:10857800007CFEF7CBFF40EAE07008BD08B5007C40
:10858800FEF7B6FF20EAE07008BD08B5007CFEF7EC
:10859800A1FF20EAE07008BD13B50446007C0191F4
:1085A800FEF7A6FF0028019901DC607C20B1207C41
:1085B800FEF7BAFF20EAE07002B010BD007CFEF7BB
:1085C800C1BF10B504461421FEF763FC204610BD58
:1085D80010B54FF47A73044608460021C4E9011324
:1085E800044B20742360012311466374FEF748FF8F
:1085F800204610BD00BC3F020022007CFEF74EBFA3
:10860800007CFEF759BF10B50446142200211CF067
:10861800C8FD204610BD000010B588B003A8FFF7BC
:10862800F2FF0C4CD4E88F1F11F001010FD1204646
:108638000191FEF741FC019948B103AA0648FFF7EA
:10864800C7FF2046FEF73DFC04481BF05AFF0248CE
:1086580008B010BDF0960710F496071099943D02E3
:10866800704710B504461821FEF713FC204610BDCC
:10867800F0B5037D0E46062B4FF000048DB000F1D7
:10868800040712D000F1080515F8011D0A2230462A
:1086980001F01FF9AF42044419D0002CF4D02E2168
:1086A800304601F013F90444EEE72F236A463946B1
:1086B8000A208DF80040FFF779F86846FEF7A4FB1A
:1086C8003368024669463046DB68984704462046C8
:1086D8000DB0F0BD10B50446044B1122002140F83E
:1086E800043B1CF05EFD204610BD00BF30BC3F02BD
:1086F8000346074A10B543F8042B01F1100251F85C
:10870800044B914243F8044BF9D10A781A7010BD12
:1087180030BC3F0210B59DF8084044EA032343EA01
:108728000242042342EA01614160037510BD000062
:1087380007B5064B0360CB7800938B784A780978A5
:10874800FFF7E8FF03B05DF804FB00BF30BC3F0251
:1087580010B58368044613B10322014698472046A2
:1087680010BD0021FFF77CBA014B1860704700BFAD
:108778001890071008B50F4B43B1FFF74DFF03687A
:108788001B699847002801DD00E000BF0A4B43B190
:1087980002F0FEFD03681B699847002801DD00E030
:1087A80000BF064B0BB102F039FE054B0BB102F0CE
:1087B8006BFE08BD00000000000000000000000083
:1087C8000000000008B5FFF7D5FFFFF707F9014BD8
:1087D800186008BD989707100548064A08B5121A88
:1087E80005491CF0B7FC054B054A1A6008BD00BFD7
:1087F80000B4071004B4071098F35F0800B407101A
:108808001E1C279A002307B51A466FF077010093BC
:10881800FFF750FA03B05DF804FB000007B5438882
:108828000A2B08D0502B0BD1094B1B684BB103B056
:108838005DF804EB1847FFF7E5FF03B05DF804FBAC
:1088480000231A466FF077010093FFF733FAF4E735
:108858000C970710002110B51148FFF7EFFA114BDC
:108868001A68114B9A420CBF012200220F4B1A7052
:1088780001D0FFF7B1FFFFF795F804461CF0ECFCB8
:108888000B4B13B1204600E000BF00210848FFF75A
:1088980023F9BDE8104000210648FFF7FDB900BFE5
:1088A800A9963D0200B407101E1C279A08970710C6
:1088B800000000005D973D020022014B9A6070475E
:1088C80010970710024B1A68024B1A60704700BFD6
:1088D800848F07102097071080680368DB681847A3
:1088E8007047084611B10B685B68184770477047B6
:1088F80070477047704738B504460D4600682E210A
:108908001CF0E8FD2368C31A2B6023B1037803B178
:10891800013023682060184638BD10B504460C2184
:10892800FEF7B7FA204610BD10B504460421FEF73D
:10893800B0FA204610BD10B504460421FEF7A9FA86
:10894800204610BDFEF75CBF08B5FEF753FAB0FA33
:1089580080F0400908BD704710B50C46FFF75CFE73
:10896800844205D1FFF758FEBDE81040FFF748BE26
:1089780002F00EFD844205D102F00AFDBDE8104068
:1089880002F059BB2CB123682046BDE810405B6853
:10899800184710BD0B6803604B68436013B15A68F1
:1089A80001325A60704713B5044608460191FEF734
:1089B8002BFA02462046019902B0BDE81040FFF7A5
:1089C800B1BD13B5044608460191FEF71DFA0246EB
:1089D800204623680199DB6802B0BDE810401847BB
:1089E80007B503688DF807100122DB680DF1070150
:1089F800984703B05DF804FB0A6810B502604A683E
:108A080042600022C0E9022202618C688A608460A8
:108A1800CC68CA60C4600C690A61046110BD0000BA
:108A28002DE9F74F4FF0140AD0E900841746454660
:108A38000AFB04F40093174BA4105C43002C21DDBF
:108A480066100AFB06F005EB0009B9F804B03A46CF
:108A58005F4528BF5A46285801911CF04FFD002851
:108A68004FF0010301990BD15F4503D1009A1370B0
:108A78003446E3E7FCD9A61B09F11405013EF7E7E4
:108A8800F9DBF5E7A5EB08050248AD10684303B02C
:108A9800BDE8F08FCDCCCCCC7FB50369057E0191C4
:108AA80003B3F9B1002600F10C04039603A901A849
:108AB800FFF721FF0146A8B10DF10B032046039AE9
:108AC8008DF80B60FFF7ACFF9DF80B3053B12368AE
:108AD800142404FB0034B4F906300834002BA8BF72
:108AE800DDB2E3E7284604B070BD0EB4F0B58CB033
:108AF80000AF07F1440555F8042B04462B46202106
:108B080007F110007A60FD60FFF736F91F287A68D0
:108B18001AD900F1080323F007036E46ADEB030DE5
:108B2800411C2B466846FD60FFF726F9021E04DD4E
:108B3800236869462046DB689847B5463037BD4606
:108B4800BDE8F04003B070470028F7D0236802461C
:108B5800DB68204607F110019847EFE710B5084C8D
:108B6800D4E88F3FDB0709D42046FEF7A5F928B1E2
:108B78002046FEF7A6F903481BF0C3FC024810BDC7
:108B8800289707102F983D02888F071010B5084CBA
:108B9800D4E88F3FDB0709D42046FEF78DF928B1CA
:108BA8002046FEF78EF903481BF0ABFC024810BDC7
:108BB8002C97071097983D028C8F071038B5002521
:108BC8000446C0E90055C0E904558560856140F850
:108BD800245FFEF7F9FDFFF7C1FFE061FFF7D6FF5D
:108BE80025732062204638BD10B50A4CD4E88F3F63
:108BF800DB070CD42046FEF75FF940B10648FFF7C3
:108C0800DDFF2046FEF75DF904481BF07AFC0248B8
:108C180010BD00BF24970710349707109DA03D0290
:108C28000023024A02490348FEF73ABF859E3D02E7
:108C3800119E3D02919D3D0200231A461946184691
:108C4800FEF72EBF37B504468D686846FFF7A2FECB
:108C58006A4629462046FFF785FB01A8FFF772FC04
:108C6800204603B030BD37B50446CD686846FFF7E7
:108C780091FE6A4629462046FFF750FB01A8FFF7F8
:108C880061FC204603B030BD37B504460D6968461F
:108C9800FFF780FE6A4629462046FFF7E7FA01A853
:108CA800FFF750FC204603B030BD000070B58AB015
:108CB8000D46014604A8FFF7C5FF144E04A8FFF7A8
:108CC80069FBE8B1684604A9FFF7CDFF3146029871
:108CD800FFF73AFE044610B12C1E18BF012401A864
:108CE800FFF730FC002CE9D0684604A9FFF7CCFF59
:108CF8006846FFF7F1FA286001A8FFF723FCDDE7D3
:108D080005A8FFF71FFC0AB070BD00BF58BC3F02A2
:108D180037B50C46134920461546FEF76BF850B98F
:108D2800FFF77AFC4FF41651FFF766FC03B0BDE875
:108D38003040FFF771BC20460B49FEF75BF878B965
:108D48004FF4165301A928460193FFF7AFFF02F02D
:108D58001FFB019902F06CF902F01AFB03B030BD59
:108D68000020FBE75DBC3F0264BC3F0270B51426DF
:108D7800D0E90053044606FB0356AE4205D005F180
:108D88000800FFF7F3FF1435F7E72068FEF7AEFF9A
:108D9800204670BD70B50446D0E9005305EB0316B4
:108DA800AE4204D0284602F09DF91035F8E7206855
:108DB800FEF79CFF204670BD10B504460C30FFF747
:108DC800D5FF2046FFF7E6FF204610BD10B5044644
:108DD800034B40F8043BFFF7EFFF204610BD00BFF0
:108DE800F0BA3F0210B50446FFF7F0FF20462421F1
:108DF800FEF74FF8204610BD10B50446024B03603D
:108E0800FFF7E4FF204610BD00BD3F0210B5044641
:108E1800FFF7F2FF20462421FEF73BF8204610BD5D
:108E28000022C0E90022826010B50C680A60046064
:108E38004C684A6044608C688A60846010BD10B5D4
:108E4800044603681868FEF7E9FC204610BD0000D8
:108E58002DE9F04F87B003931C4B80465B68894629
:108E6800C3F3080316466BB9FFF7BEFE044600F1CC
:108E78002403406A0593FFF765FD237B2BB105A802
:108E8800FFF7DDFF07B0BDE8F08F01235FFA89F92E
:108E98002373D4E9005305EB830AAA4512D055F889
:108EA800047B3146381DFFF7F7FD8145F5D3039A5A
:108EB8003B680092D3F808B04A46334641463846E4
:108EC800D847EAE700232373D9E700BF00ED00E0A5
:108ED8002DE9F74F9B461A4B80465B688946C3F3DA
:108EE800080316466BB9FFF77FFE044600F124031A
:108EF800406A0193FFF726FD237B2BB101A8FFF7FA
:108F08009EFF03B0BDE8F08F0123F6B22373D4E9C6
:108F1800005305EB830A55450ED055F8047B594696
:108F2800381DFFF7B9FD8642F5D33B684A464146EE
:108F38003846DB689847EEE700232373DEE700BF77
:108F480000ED00E02DE9F341164B05465B680F463E
:108F5800C3F308031BBBFFF747FE044600F12403D5
:108F6800406A0193FFF7EEFCD4E90063462406EB60
:108F78008308B04509D101A8FFF761FFA542B4BF36
:108F88000020012002B0BDE8F08156F8040B3946F4
:108F98000430FFF781FD8442A8BF0446E9E70020BA
:108FA800F0E700BF00ED00E0F8B5D0E901539D42BD
:108FB80004460E460DDB6F1C002F006804DDB90067
:108FC800FEF7A2FE18B9F8BDFEF790FE002020605B
:108FD800A7602768626807EB85019200A2EB85020B
:108FE800081D1CF0C4F847F82560636801200133A8
:108FF8006360E8E737B5044600F12403406A01934B
:109008000D46FFF79FFCD4E9003203EB820293423E
:1090180019460AD009680433A942F8D101A8FFF714
:109028000EFF0025284603B030BD29462046FFF72D
:10903800BBFF05460028F1D06368012B01D1FFF77B
:10904800EFFD01A8FFF7FBFEECE70B4670B5044601
:10905800D0E9000200EB820282420FD001461D686F
:1090680051F8046BAE4207D1521A1CF080F8012067
:109078006368013B636070BD0846EDE70020FAE7CE
:109088001FB5044600F12403406A01910393FFF7DA
:1090980059FC204601A9FFF7D8FF18B163680BB93E
:1090A800FFF7CAFD03A8FFF7CAFE04B010BD1823D6
:1090B80070B50446D0E9045603FB0656AE4215D0F7
:1090C800204605F11001FFF7C0FF63680BB9FFF7F1
:1090D800B3FDE06929690368DB689847696919B1D4
:1090E800206A0368DB6898471835E7E71826D4E94B
:1090F800045306FB0356AE4204D0284601F0F2FFA3
:109108001835F8E70023636170BD73B50446FFF7AF
:1091180093FD04F12403606A0193FFF713FC2046D2
:10912800FFF7C5FF01A8FFF78AFE606A08B1FEF7DE
:1091380059FBD4E90453182606FB0356AE4204D063
:10914800284601F0CFFF1835F8E72069FEF7CEFD75
:109158002068FEF7CBFD204602B070BD0148FFF73E
:10916800D4BF00BF349707108842F8B504460D46AF
:10917800164615D9904214D2A2F11406751AA1F117
:1091880014072C44B7421AD01CB131462046FFF7C9
:1091980033FC06F10800FFF7E9FD143E143CF1E743
:1091A8000DD0B5420BD01CB129462046FFF724FC50
:1091B80005F10800FFF7DAFD14351434F1E7F8BDBE
:1091C8008842F8B504460D46164614D9904213D283
:1091D800A2F11006751AA1F110072C44B74218D055
:1091E8001CB13146204601F0F9FF304601F07AFF04
:1091F800103E103CF2E70CD0B5420AD01CB129460B
:10920800204601F0EBFF284601F06CFF10351034C2
:10921800F2E7F8BD70B50E1E054611DD3001FEF708
:1092280057FD044658B1D5E9001201EB0212FFF7C9
:10923800C7FF2868FEF75AFD01202C60AE6070BD9C
:109248000024F6E72DE9F04F90460023462295B01A
:109258000391D8F8041004469942C0E90033C0E9E4
:109268000233C0E90433CDE9083302760A9323DCDC
:10927800D8E90057142303FB0757AF423BD02946D0
:109288000BA801F0ABFF0BA90FA8099E01F0A6FFE0
:10929800DDE9091399421BDA089B099A03EB0616C4
:1092A800314603EB021206F11000FFF789FFEEB911
:1092B800099B0133099311E008A8FFF7ABFF0028C9
:1092C800D6D108A8FFF766FD204615B0BDE8F08F97
:1092D800013108A8FFF79EFF0028DDD10FA801F093
:1092E80001FF0BA801F0FEFE1435C6E730460FA9B2
:1092F80001F074FFDCE700264FF01409CDE90B6696
:109308000D96DDE908239E427CDA3301D358069393
:109318000BB90136F5E70023079309FB06F30BADFC
:10932800029307A906A8FFF7E6FA82460028F0D0BC
:109338004FF0000301468DF817302846079A0DF1C3
:109348001703FFF76DFB9DF817700190002F4AD1A6
:10935800BDF81C30CDE91177ADF840304FF6FF73FA
:10936800CDF83CA0ADF842301397D5E901329342CD
:1093780017DB03F1010ABAF1000F30DD09FB0AF02F
:10938800FEF7A6FC834660B3D5E9001209FB02127A
:10939800FFF7EAFE2868FEF7A9FCC5F800B0C5F893
:1093A80008A02B68019A09FB023A6A68514609FB32
:1093B80002320AF11400FFF7D7FEBAF1000F03D00A
:1093C80050460FA9FFF718FB6B6801336B6011A8B3
:1093D800FFF7CCFC3FB10BA8FFF7C8FC71E7BB4611
:1093E800D8E70127F3E7019B2D6809FB0355069B86
:1093F8001B782BB9D8F80030029A13441B7CEB80F9
:1094080008358EE72168226062686360A368099264
:109418000A9A0A93E368A2600B9A0B932369E260A5
:109428000C9A0C93636922610D9A0D93039B089122
:1094380062612376CFE70000F0B50446264617465A
:1094480087B00D4668461946FDF759FE0B4B69462D
:1094580046F8043B03A8FDF752FE394603AA3046F6
:10946800FFF7F0FE03A8FDF709FE6846FDF706FEC4
:109478002046034B2562236007B0F0BDF0BA3F02D7
:10948800E8BC3F02F0B50F4685B038461C49164681
:109498001D460A9CFDF7AEFCC0B9A4B1294601A837
:1094A800FFF7BEFC2420174902F002F8054630B148
:1094B80001AB32462146FFF7BFFF134B2B6001A8D3
:1094C800FDF7DCFD2C46204605B0F0BD38460F49B7
:1094D800FDF790FC90B9002CF5D0294601A8FFF7BC
:1094E8009FFC2420074901F0E3FF05460028E6D049
:1094F8003246214601ABFFF79FFFE0E70024E2E791
:109508006CBC3F02A8BE3F0200BD3F0270BC3F02D8
:10951800014B024A1A6070473097071081BC3F021E
:109528002DE9F047089DD0F8209004460E461746CE
:109538009846FFF771F881454DD02B79190704D566
:1095480020466A695449FFF7D0FAB8F1000F0DD0E8
:109558005B212046FFF744FA41462046FFF731FADF
:10956800236802222046DB684C4998472B79DA07A2
:1095780024D5D5F808802F2140461BF0D3FF08B129
:1095880000F1010841462046FFF71BFA2B799B079B
:1095980008D53A212046FFF723FA2046EA684049D1
:1095A800FFF7A3FA2A79236812F0040F20464FF038
:1095B8000202DB6814BF3B493B4998472B7958079F
:1095C8001DD529690B461A4613F8010B60B12028EE
:1095D80008D11946F7E73548FEF7ABFC0028ACD0B0
:1095E800BDE8F0872828EED12368521A2046DB68A8
:1095F8009847236804222046DB682D4998470021B4
:109608003846FEF73FFA01462046FFF7DAF92368A5
:1096180002222046DB68244998471EB1314620467D
:10962800FFF7CFF92B7913F0300F2CD0236821499D
:10963800DB680222204698472B79D9060AD5236889
:10964800072220461C49DB6898472046AA691B491F
:10965800FFF74BFA2B799A0611D5DB0605D5236857
:1096680002222046DB680F499847236820461449A0
:109678000A22DB6898472046E969FFF7A2F95D21CD
:109688002046FFF7ADF923682046BDE8F0470222DF
:10969800DB680C49184700BF85BC3F028CBC3F0201
:1096A800ECBB3F028FBC3F0294BC3F02E096071020
:1096B80092BC3F0297BC3F029ABC3F02A2BC3F0249
:1096C800A5BC3F02B0BC3F022DE9F0410446076A41
:1096D8000D461646FEF7A0FF874207D0206A32469D
:1096E80003682946BDE8F041DB6818470348FEF7E0
:1096F80020FC0028F2D0BDE8F08100BFE0960710FA
:109708002DE9F04385B0D0F8209005460F469046E5
:109718001E460C9CFEF780FF814505D14948FEF79F
:1097280008FC002840F08A804FF000092B6A464A5E
:1097380001A8019203938DF80890FEF754FE49465C
:109748004046FEF79FF980464049012201A8FEF7EE
:10975800D9FE4146FFF727F93FB13D49012201A84B
:10976800FEF7D0FE3946FFF71EF93EB1394901220E
:1097780001A8FEF7C7FE3146FFF715F92379DF0781
:109788000ED5A6682F2130461BF0CCFE00B1461C32
:109798003149012201A8FEF7B5FE3146FFF703F96A
:1097A80023799E0707D52D49022201A8FEF7AAFEB4
:1097B800E168FEF725FE2379580714D52669334654
:1097C8001F4613F8012B2AB1202A01D11E46F7E7BC
:1097D800282AF5D10222224901A8FEF793FE314634
:1097E800BA1BFEF79FFE2379190707D51D490122E9
:1097F80001A8FEF787FE6169FEF714FE2379DA06F1
:1098080008D5042218490DEB0200FEF77BFEA1697A
:10981800FEF7F6FD23799B0607D51449062201A811
:10982800FEF770FEE169FFF7BEF801A8FEF7C5FD77
:10983800286A022203680E49DB68984705B0BDE82C
:10984800F08300BFE0960710D0BC3F0262BC3F0225
:1098580055F43F025EFF3F02DDBA3F02B3BC3F0250
:10986800B6BC3F0205F03F02B9BC3F02BEBC3F0296
:10987800B0BC3F02F8B506460D4600248F18BD421D
:109888000CD0336830469B6815F8011B9847031EB7
:1098980001DB1C44F3E7002C08BF1C462046F8BD3A
:1098A80013B50446084659B10191FDF7ADFA0246D1
:1098B800204623680199DB6802B0BDE810401847CC
:1098C80002B010BD08B5FFF7EBFF08BD03689B6841
:1098D80018470023012A98BF0A2230B58BB08DF8AB
:1098E800243009AC0D46B1FBF2F101FB125303F031
:1098F800FF03092B94BF30333733DBB2AA4204F895
:10990800013DEFD92146FFF7CBFF0BB030BD7047C3
:10991800064B10B5994200F10C0405D0084612F028
:10992800EFFF002808BF0024204610BDBCBB3F0243
:1099380010B504463021FDF7ACFA204610BD3021A1
:10994800FDF7A7BAF0B50025EC1C8C420DD86E1CAB
:10995800875D445D974205D12644B14205D31D6019
:10996800601CF0BD01342544EEE70020F9E710B58E
:10997800836804462BB10322014698470023C4E9B3
:10998800023310BD10B5836804462BB1032201468B
:1099980098470023C4E9023310BD38B5036805466B
:1099A8008B420C4608D011B14B6801334B602868D4
:1099B80008B1FEF729FC2C6038BD0000002310B563
:1099C8000370044B04461868FDF71AFF012320466C
:1099D800237010BD6097071010B5037804461BB1BB
:1099E800024B1868FDF71AFF204610BD6097071054
:1099F80082B06A4603460868496803C26A4603CAD1
:109A080018601846596002B0704708B582798B799A
:109A18009A4206D106221BF08DFBB0FA80F040096D
:109A280008BD0020FCE7000070B50446384B86B03E
:109A380018689B880090ADF80430364BA6791868F2
:109A48009B880290ADF80C307EB906226946204604
:109A58001BF070FB38B10622204602A91BF06AFBF6
:109A6800003818BF012006B070BDA3882068ADF883
:109A7800143006F0FD03012B049024D19DF81550F5
:109A8800062205F03F05694604A88DF815501BF01D
:109A980051FB00283AD065F03F05062202A904A828
:109AA8008DF815501BF046FB80B36079012E00F04D
:109AB800C00004D1C02814BF00200120D3E7B0FAA9
:109AC80080F04009CFE7022E1ED103229DF81550E1
:109AD8000DEB020105F03F050DF113008DF815504F
:109AE8001BF028FB90B165F03F0503220DF10B0137
:109AF8000DF113008DF815501BF01CFB30B1607987
:109B080000F0C0004028D6E70120ACE70020AAE713
:109B180088BA3F027EBD3F024FF0FF330360838067
:109B2800002070470021024608B501604160FFF738
:109B3800F3FF1046917108BD0123024610B5036179
:109B4800044B03F1100153F8044B8B4242F8044BC9
:109B5800F9D110BD8EBA3F0210B50B460446B1B11B
:109B6800012A01F110020AD1014653F8040B93426D
:109B780041F8040BF9D101232361204610BD411E91
:109B880012F8010D9A4201F8010FF9D1F3E71022FA
:109B98001BF007FBF1E738B504460D46FFF7CCFF8D
:109BA800002320462361A58138BD08B502690B69E9
:109BB8009A4206D110221BF0BDFAB0FA80F0400993
:109BC80008BD0020FCE7F7B5054616461F460A46BD
:109BD800D0E9000101ABFFF7B5FE30F002040CD06C
:109BE800841EBC4228BF3C463EB101992B68023115
:109BF8002246304619441BF0ADFA204603B0F0BDAA
:109C080037B513460C4601920A4608210546FFF768
:109C1800DAFF40B9224609212846019B03B0BDE876
:109C28003040FFF7D0BF03B030BD0000F0B50C46A0
:109C380089B00C49054601F0A0FA1F226946204662
:109C4800FFF7DEFF064650B16C460027284614F899
:109C5800011B01F0FFFA10B10137BE42F6D12846C8
:109C680009B0F0BDB2BC3F0207B50223192101AA11
:109C7800FFF7A9FF08B1BDF8040003B05DF804FBC5
:109C880010B5D0E9063203EBC2029342184605D05C
:109C98000468083324888C42F7D110BD0020FCE703
:109CA80070B50025064605603020FDF7EAF8044641
:109CB80098B10123C0E901330A4B0E3040F80E3C3D
:109CC8004FF6FF7320F8023CFFF72CFFC4E9065556
:109CD800C4E90855C4E90A55A57574600C343046C2
:109CE800346070BD28BE3F0237B50D46044601A852
:109CF800FFF764FE2A6801A8D2F802302360D2F880
:109D080006306360FFF768FE204603B030BD30B50B
:109D180005460C4687B001A8FFF750FE2A6823685D
:109D280012881B889A420DD1294602A8FFF7DCFF4A
:109D3800214604A8FFF7D8FF04A902A8FFF765FE8B
:109D4800044600B9002401A8FFF746FE204607B0E4
:109D580030BD000070B506467420FDF792F8044641
:109D6800A0B10025C0E90055C0E90255C0E9045575
:109D7800C0E9065505622430FFF792FF04F12C0074
:109D8800FFF78EFFE563E564E565E566346024B9B1
:109D98000A200A4A0A49FDF74BFE0020FDF74CFD50
:109DA80020B10A20054A0749FDF742FE0022316822
:109DB8000548FDF795FD304670BD00BF01893D029D
:109DC80040BD3F0285BD3F02E1B53D0210B50A4CDA
:109DD800D4E88F3FDB070CD42046FDF76DF840B17F
:109DE8000648FFF7B7FF2046FDF76BF804481AF05E
:109DF80088FB024810BD00BF5C97071064970710E6
:109E08008DB83D0208B50020FDF716FD00EAE070A8
:109E180008BD000070B504460E4615461830FFF719
:109E2800A6FD04F12800FFF7ADFD00222146C4E994
:109E380003650348FDF72AFD0028A8BF606970BDC7
:109E48009BBC3D0210B504464069FDF74FFFA06872
:109E5800FDF74CFF204610BD002247F67F71C0E990
:109E68000022C0E90222C0E90422C0E90E22C0E9AA
:109E78001022C0E91222C0E91422C0E91622C0E962
:109E88001822C0E91B2202620263A0F8681070471A
:109E9800102330B5002485B0ADF8023003230D46F9
:109EA80068462146ADF80030CDE901440394FDF73A
:109EB800DFFC21466846ADF80850FDF7CBFC05B03D
:109EC80030BD10B504460068FDF710FF204610BDF0
:109ED80070B504462426C06DFDF708FF206DFDF718
:109EE80005FF04F1380504F14400FFF7EAFF2846AE
:109EF800FEF750FF04F12800FEF72AFC04F11800D1
:109F0800FEF726FCD4E9005306FB0356AE4204D004
:109F18002846FFF797FF2435F8E72068FDF7E6FEA7
:109F2800204670BD30B515460C469FB079B172B168
:109F380001A8FFF791FF21462A4601A8FFF76AFF0B
:109F4800044601A8FFF7C4FF20461FB030BD014CEE
:109F5800FAE700BFF2FEFFFF38B5141E0546436856
:109F680002DB62189A4200DD5C1A2A68501801194F
:109F78001A44521A1BF0FBF86A68121B6A6038BD53
:109F88000B68036013B15A6801325A60704710B504
:109F9800044651F8043B40F8043BFFF7F1FF204624
:109FA80010BD70B50446D0E9005305EBC306AE42B8
:109FB80004D0281DFEF7C6FA0835F8E72068FDF733
:109FC80095FE204670BD70B50446D0E9005305EBF8
:109FD800C306AE4204D0281DFEF7B4FA0835F8E7E8
:109FE8002068FDF783FE204670BD10B50446243076
:109FF800FFF7E9FF04F11800FFF7D3FF10BD8268EF
:10A0080010B50AB90CF0A5FEC368BDE810401847A2
:10A0180000232DE9F047C0E900338360D1F80480BC
:10A02800054698450F464ADD4FEA0810FDF750FEF1
:10A038000646002843D0D5E90041A04204EB011AA6
:10A0480016D9504515D2AAF1100AA4F11009AAEBA5
:10A0580004040444D1451DD01CB15146204601F0EA
:10A06800BDF8504601F03EF8AAF1100A103CF1E79D
:10A0780010D0B146A2450DD0B9F1000F03D021464A
:10A08800484601F0ABF8204601F02CF8103409F1ED
:10A098001009EFE72868FDF729FEC5F808802E604B
:10A0A800D7E9004304EB0318A04506D02146304603
:10A0B80001F0AEF810341036F6E77B686B6028467E
:10A0C800BDE8F08730B58DB00C4600F1380101A825
:10A0D800FFF79EFF029B002B2FDD04F1140104A85B
:10A0E800FFF7A4FD04F1080108A8FFF79FFD0A9AED
:10A0F800069B13431FD0DDE9014504EB0515AC426F
:10A1080019D0204604A901F0C7F860B1012408A8B5
:10A1180000F0E8FF04A800F0E5FF01A8FEF73AFE0A
:10A1280020460DB030BD204608A901F0B5F810341E
:10A138000028E4D0EAE70024E9E70124EDE7F8B5D0
:10A148000023C0E9003383604F6805469F420E46EE
:10A1580040DDF800FDF7BCFD0446D8B3D5E900039F
:10A16800844200EBC30310D99C420FD2083B1A1A51
:10A17800A0F1080C22449C4518D01AB11968116046
:10A1880059685160083B083AF5E70FD00146224666
:10A198008B420BD03AB1D1F800C0C2F800C0D1F858
:10A1A80004C0C2F804C008310832F1E7FDF79EFD8B
:10A1B8002C60AF60D6E9003103EBC100984208D0AB
:10A1C8001A68083444F8082C5A68083344F8042CF0
:10A1D800F4E769602846F8BD70B504460020C4E974
:10A1E8000000A0604E680D46864212DD7100FDF742
:10A1F8008BFD70B12060A660D5E9003203EB420206
:10A208009A4204D033F8021B20F8021BF8E76B6867
:10A218006360204670BD10B50379044623B903680E
:10A22800186808B1FDF762FD204610BD10B5037926
:10A23800044623B90368186808B1FDF757FD20469E
:10A2480010BD00002DE9F043D0F86C800F468FB0A8
:10A25800B8F1000F72D0056F002D6FD001F114090D
:10A268001F230022FF214846FFF7ADFCFF230837D4
:10A278000446002219463846FFF7A5FCAC420646BC
:10A2880006D0AE4230D0002420460FB0BDE8F0839F
:10A298002046FDF71DFD03AB0493002304460390FD
:10A2A8008DF8143070B92023CDE90630244B2549A8
:10A2B800009306AA03463220FDF7C8FB04A8FFF75F
:10A2C800AAFFE1E70246FF212B464846FFF77BFC41
:10A2D8002A46414603981AF02DFF18B104A8FFF743
:10A2E8009AFFCEE70124E9E72846FDF7F1FC0024B0
:10A2F80003AB0646039004938DF8144078B92023E5
:10A30800CDE906300E4B0F49009306AA03463220CA
:10A31800FDF79CFB344604A8FFF788FFB4E7024624
:10A32800FF212B463846FFF74EFC2A464146039844
:10A338001AF000FF0028EED10124ECE70124A3E77E
:10A34800C7BD3F0257BD3F0238B50D1E0446006821
:10A3580003DDFDF7D9FC18B938BDFDF7C7FC0020AF
:10A368002060A5600120F7E708B583688B4202DA10
:10A37800FFF7EAFF08BD0120FCE738B50023C0E974
:10A38800003383600D4649680446994210DDFFF7A3
:10A39800DBFF68B1D5E9003122681944994205D03C
:10A3A8000AB11878107001330132F7E76B686360FF
:10A3B800204638BD38B504460D460B68083040F8CD
:10A3C800083C4B68083140F8043CFFF7D6FF05F11C
:10A3D800140104F11400FFF7D0FF95F8203020464F
:10A3E80084F8203038BD1FB5044601A8FFF7C5FF23
:10A3F800019B029A2068236063686260039A029353
:10A40800A368A26001900393FDF770FC04B010BD2F
:10A418002DE9F0410F4641681D46194483680446FA
:10A428009942904612DC266862683E443146D21B47
:10A4380070191AF09CFE2A46414630461AF08AFEE8
:10A44800012063682B446360BDE8F081FFF77CFF5F
:10A458000028E8D1F8E713460A46002110B504465B
:10A46800416002B10BB9002010BDFF2B28BFFF23AC
:10A47800FFF7CEFF0028F7D06068F5E7F8B50D467E
:10A48800D0E901139942044616460BDA2768626838
:10A498007919521B481C1AF06AFE7E55636801330D
:10A4A8006360F8BD0131FFF74FFF0028EED1F8E7F0
:10A4B8000A464168FFF7E2BF2DE9F74304461D4607
:10A4C8000F4601AB90460A46D0E900019DF8289056
:10A4D800FFF738FAAE1C02466368B9F1000F26D1BF
:10A4E80028B333441B1AFF2B09D820460199FFF7DC
:10A4F80033FD616820463144FFF736FF18B96068BC
:10A5080003B0BDE8F0836A1C20460199D2B2FFF778
:10A51800B5FF01993A4601312046FFF7AFFF2B46B8
:10A528004246019902312046FFF772FFE7E7F1182A
:10A53800FF29E4D82046FFF717FF0028DFD0691C61
:10A548002046C9B2FFF7B4FF39462046FFF7B0FFEF
:10A558002B4642466168E6E730B49DF808501AB1C8
:10A56800029530BCFFF7A8BF406830BC70471FB5E4
:10A5780000230622C0E900338360009301230446C8
:10A588008DF80F2019460DF10F02FFF7E5FF204661
:10A5980004B010BD8842F8B504460D46164614D9D5
:10A5A800904213D2A2F10806751AA1F108072C44AB
:10A5B800B74218D01CB131462046FFF7E8FC301DE1
:10A5C800FDF7C0FF083E083CF2E70CD0B5420AD0C0
:10A5D8001CB129462046FFF7DAFC281DFDF7B2FF1B
:10A5E80008350834F2E7F8BDF7B50446466868460A
:10A5F800FFF7CDFCD4E901739F4212DB0137002F2E
:10A6080029DDF800FDF764FB0546F0B1D4E9001236
:10A6180001EBC202FFF7BEFF2068FDF767FB25606C
:10A62800A7602368626803EBC606314603EBC202E3
:10A6380006F10800FFF7AEFF1EB169463046FFF786
:10A64800A6FC012563680133636001A8FDF77AFF62
:10A65800284603B0F0BD0025DEE7F8B50546D0E989
:10A6680000430F4604EBC306A64205D039462046F0
:10A67800FFF74DFB08B114B9F8BD0834F4E7201D05
:10A68800FDF760FFD5E90032204603EBC20204F172
:10A698000801FFF77FFF6B68013B6B60ECE7000088
:10A6A8002DE9F04305468FB003A80C46FFF786F95D
:10A6B8002E68F31E0D2B6AD8DFE813F00E00780021
:10A6C8006900FC0069006900690069006900C6004A
:10A6D800C600C600C600C600606A04F1180602304B
:10A6E800FFF7A2F938B32146AA8951F8243F06A8F2
:10A6F8001A80FFF74CFC06A93046FFF775FF07A83C
:10A70800FDF720FF06A8FFF7CBFA069B04F1280007
:10A7180007996362FFF741F907A8FDF713FF2021A6
:10A728000023CDE906136D4A009201206C4906AA60
:10A73800FDF78CF92BE004A8FFF7B2FAAA89049B6D
:10A748001A806968049808310230FFF751F904A9A2
:10A7580006A8FFF71CFC304606A9FFF745FF05468B
:10A7680007A8FDF7EFFEC5B92023CDE906355D4BF7
:10A7780001205B49009306AA2B46FDF767F9049B65
:10A7880029461888FDF79EF805A8FDF7DBFE03A803
:10A79800FFF722F90FB0BDE8F083E36B23B104A9FA
:10A7A80004F13400FFF72BFC05A8B6E72046A98979
:10A7B800FFF766FA06460028E9D0014604F12C00A6
:10A7C800FFF7A5FA04F1180848B131464046FFF7EB
:10A7D80044FF20220023CDE90623434AA4E74FF68D
:10A7E800FF713568D5E90632298003EBC2029A4227
:10A7F80003D053F8080B4180F9E7D5E9037307EB59
:10A80800C309B94504D0381DFDF79CFE0837F8E7A1
:10A8180000232B61D5E9067307EBC309B94504D0BA
:10A82800381DFDF78FFE0837F8E70023EB61AB72A0
:10A83800E36C23B1314604F14400FFF7E0FB4FF627
:10A84800FF7233681A80C0E72046A989FFF718FA13
:10A8580000289CD0E36D002B99D000230D2EADF875
:10A86800163001D0102E17D1002369681A46062524
:10A878008DF81530049109AB8DF8142006908DF8E9
:10A888001C60DDE90401089583E80300236E06A92E
:10A8980004F1540098477AE70F2E01BF2B7A6968B4
:10A8A80003F0010208251DBF1A4619461D46C3F3C9
:10A8B8004003DDE7A9892046FFF7E2F901460028B1
:10A8C8003FF465AFE36E002B3FF461AF6B6806AAF7
:10A8D800069304F16400236F984758E708BE3F02C7
:10A8E80057BD3F02E2BD3F0212BE3F0270B50446AB
:10A8F8006430FDF72DFF04F15400FDF729FF04F142
:10A908004400FDF725FF04F13400FDF721FF04F1B1
:10A918003000FDF717FE04F12800FDF713FED4E917
:10A92800065305EBC306AE4204D0281DFDF70AFE08
:10A938000835F8E7A069FDF7D9F904F10C00FFF72D
:10A9480042FB2046FFF72DFB204670BD10B5064B95
:10A958001C6844B12046FFF7C9FF2046BDE81040F7
:10A968007421FCF796BA10BD6497071038B50D1E10
:10A978000446006805DD14216943FDF7C5F918B9D7
:10A9880038BDFDF7B3F900202060A5600120F7E786
:10A998002DE9F8430024C0E90044846088464968EA
:10A9A8000746A1421CDDFFF7E1FFC8B1D8E90093D3
:10A9B8004FF0140C0CFB039CD7F800E009EB0405DE
:10A9C800AC450AD01EEB04061EBF0FCD0FC62B6880
:10A9D80004F1140418BF3360F0E7D8F804307B6042
:10A9E8003846BDE8F8832DE9F84345688368D1E91E
:10A9F8000087E9199942044617DC142362685D430D
:10AA080003FB07F95A432668521B2E44314606EBCE
:10AA180009001AF0ACFB4A46414630461AF09AFB48
:10AA280063683B446360BDE8F883FFF79FFF002835
:10AA3800E3D1F8E782B070B50C4604A981E80C00B0
:10AA4800D0E901139942054617DA14236A6803FB13
:10AA580004F15A432C68521A0C442146E01804AEFB
:10AA68001AF085FB0FCE0FC4336823606B6801337F
:10AA78006B60BDE8704002B070470131FFF776FFA8
:10AA88000028E2D1F5E72DE9F04F002405460F46EE
:10AA98009046931EC0E9004493B0DBB284600593EE
:10AAA80079688C4272DA3868424607AB091B204441
:10AAB800FEF748FF0646002868D0059B012B2FD8D3
:10AAC8004FF00009A0F1020B4FEA5B0B0DF13C0AB5
:10AAD800079BCB45234455D03A6803EB49031344FD
:10AAE800D9789B7808A843EA0121FFF754F80DF1BB
:10AAF800340C0DF1200EBEE80F00ACE80F00DEF8B4
:10AB0800003009F10109CCF800309AE807008DE817
:10AB180007000DAB28460CCB6968FFF78BFFD7E71A
:10AB2800A8F10603012B2DD84FF00009A0F1020B64
:10AB38004FEA1B1B0DF13C0ACB45079B22D0023381
:10AB48003968234403EB09130122194408A8FFF7C5
:10AB580003F80DF1340C0DF1200EBEE80F00ACE83F
:10AB68000F00DEF8003009F10109CCF800309AE84E
:10AB780007008DE80700DDE90D2328466968FFF71F
:10AB880059FFD9E7079B1C44344489E7284613B08A
:10AB9800BDE8F08F002330B504460D4685B0C0E906
:10ABA80000338360022201A8FFF76DFF01A9204648
:10ABB800FFF719FF01A8FFF784F90222294601A827
:10ABC800FFF761FF01A92046FFF70DFF01A8FFF776
:10ABD80078F90322294601A8FFF755FF01A9204665
:10ABE800FFF701FF01A8FFF76CF90622294601A823
:10ABF800FFF749FF01A92046FFF7F5FE01A8FFF777
:10AC080060F90722294601A8FFF73DFF204601A960
:10AC1800FFF7E9FE01A8FFF754F9204605B030BD5B
:10AC28002DE9F04F8BB00C4600F1440101A8FFF765
:10AC3800AFFE029B002B4ADD04F1140104A8FFF7C4
:10AC4800A9FF04F1080107A8FFF7A4FF059D089EC6
:10AC5800002D01DC002E38DD1423019A029F924654
:10AC6800DDF81080DDF81C9003FB072703FB058542
:10AC780003FB0696BA4528D0C346AB4515D05946BE
:10AC88005046FEF792FF0BF1140B04460028F4D04F
:10AC980007A8FFF716F904A8FFF713F901A8FFF7AB
:10ACA80010F920460BB0BDE8F08FCB46B34509D06C
:10ACB80059465046FEF779FF0BF1140B044600285D
:10ACC800F4D0E5E70AF1140AD4E70024E0E7012408
:10ACD800E4E78842F8B504460D46164614D9904272
:10ACE80013D2A2F12406751AA1F124072C44B74205
:10ACF80018D01CB131462046FFF75CFB3046FFF701
:10AD0800A1F8243E243CF2E70CD0B5420AD01CB18D
:10AD180029462046FFF74EFB2846FFF793F82435CF
:10AD28002434F2E7F8BDF8B50E1E054613DD2427D6
:10AD380007FB06F0FCF7CCFF044658B1D5E9001232
:10AD480007FB0212FFF7C5FF2868FCF7CFFF0120B9
:10AD58002C60AE60F8BD0024F6E72DE9F043064606
:10AD68000C469DB001AD2846FEF7DCFE03A8FFF7B0
:10AD7800FEFB06A8FFF7FBFB3069716913AB03C341
:10AD8800337885E80300F289B16806A88DF8243085
:10AD9800FFF761FBB289716803A8FFF75CFB94F9C0
:10ADA800683013AF7F2B03D09DF924209A425CDBD7
:10ADB80094F969307F2B03D09DF924209A4254DC02
:10ADC800384604F15001FFF7BAF9149B002B52DD05
:10ADD800139E06EBC309B14550D030462946FEF70D
:10ADE80014FE083680460028F5D01398FCF77EFF3D
:10ADF800B8F1000F39D029462046FFF763F9A0B310
:10AE080029462046FFF70CFF064670B3384604F182
:10AE18005C01FFF7E1F9149B002B12DD06A8FEF791
:10AE280023FF804603A8FEF71FFFDDE9133203EB7B
:10AE380042029A4225D033F8021B884501D0884245
:10AE4800F7D11398FCF752FF7EB129462046FFF749
:10AE5800F9F950B1236AB3B13946636913950133DF
:10AE68006361636A04F1180098472846FEF7EAFF11
:10AE78001DB0BDE8F0834FF00108B6E74FF00008B9
:10AE8800B3E70026DDE7D4F83080B8F1000F07D02B
:10AE9800636929460133636104F12800636BE3E7C2
:10AEA800D4F80CC0BCF1000F25D0636922690133C6
:10AEB80093426361D9D8242253432A46243B0CEB9E
:10AEC800030603CA4CF80300716006F1080003A9E1
:10AED800FFF789FA06A906F11400FFF784FA9DF92D
:10AEE800243086F82030D4E904329A42BDD3404653
:10AEF800FCF7DAFCB9E70DF1280895E8030088E8C3
:10AF0800030003A90CA8FFF738FA06A90FA8FFF752
:10AF180034FA9DF82430414638468DF84830666842
:10AF2800FFF748FAD4E90113994210DA242223687A
:10AF3800616802FB063602FB013206F12400314645
:10AF4800FFF7C7FE86B963680133636005E02046F2
:10AF58000131FFF7E8FE0028E8D13846FEF772FF16
:10AF68004046FEF76FFF80E739463046FFF722FA82
:10AF7800E9E70000002302480360FCF725BC00BF96
:10AF88006097071070474174704708B5007CFCF75C
:10AF9800E3FB20EAE07008BD08B5007CFCF796FBEF
:10AFA80020EAE07008BD08B5007CFCF7ABFB40EA7E
:10AFB800E07008BD08B5007CFCF796FB40EAE0703D
:10AFC80008BD007CFCF7ACBB37B5457C04462DB109
:10AFD800207C03B0BDE83040FCF76ABB007C0191DF
:10AFE800FCF7BAFB00280199F2DC284603B030BD13
:10AFF80010B504461421FBF74CFF204610BD000095
:10B0080010B54FF47A730446084611460022C4E985
:10B018000123044B2074236001236374FCF7B8FBFD
:10B02800204610BD44BE3F020023007CFCF7A2BBB3
:10B038000022FFF7F9BF007CFCF72CBB007CFCF773
:10B048007DBB000002220020044B1A60044B054A15
:10B05800C3E900009A60FCF7F5BD00BF74970710BC
:10B06800689707100000FFFF002240681146FCF7B0
:10B07800A3BD002240681146FCF7BABD0022406813
:10B08800FCF7A8BD0022406881F00101FCF786BDED
:10B09800002340681A461946FCF772BD0023406831
:10B0A8001A461946FCF75EBD002240681146FCF7B7
:10B0B8004BBD002240681146FCF72ABD0022022140
:10B0C8004068FCF733BD002340681A46FCF712BD00
:10B0D8000322024B5A60024A1A6070477897071099
:10B0E80074BE3F0210B504460068FCF7FFFD204619
:10B0F80010BD10B50446006808B1FCF7F7FD002341
:10B10800C4E90133236010BD38B504460D46006814
:10B118000131FCF7F9FD10B1C4E90005012038BD83
:10B1280010B50368044623B143688B4201D301205C
:10B1380010BD2046FFF7E8FF0028F9D0A368002BD0
:10B14800F5D122681370F2E737B50D461146019222
:10B158000446FFF7E5FF019A28B92046FFF7C9FF23
:10B16800204603B030BD2946A260206819F0F2FFDE
:10B1780000212268A368D154F2E7002313B50446DE
:10B18800C0E900338360037341B108460191FBF7BE
:10B198003BFE019902462046FFF7D6FF204602B043
:10B1A80010BD38B5054600680C4668B16A688B68FA
:10B1B8009A4207D309681AF099F9A368AB6000238B
:10B1C800A36038BDFCF792FD23682B6063686B6051
:10B1D800A368AB600023C4E90033F1E7002310B58E
:10B1E8000446C0E9003383600373FFF7DAFF2046A3
:10B1F80010BD884210B5044605D00B682BB18A688B
:10B208001946FFF7A1FF204610BDFFF772FFFAE7C6
:10B21800002310B50446C0E9003383600373FFF7C9
:10B22800E8FF204610BD70B505460E4609B9002056
:10B2380070BD6AB1846814442146FFF771FF002885
:10B24800F5D02868AB68314618441AF04FF9AC605D
:10B258000120EDE7002307B501228DF8041001A9AC
:10B268008DF80530FFF7DFFF03B05DF804FB0268D7
:10B278000B46096862B141B9806860B110787047BF
:10B28800986840B10978484270471046FBF7B2BD4C
:10B298000029F5D10846704708B582688B689A423C
:10B2A80005D1FFF7E4FFB0FA80F0400908BD00209F
:10B2B800FCE7704738B50A4B044603600123094987
:10B2C8004361202000F0F6F82025606005492846F3
:10B2D800A56000F0EFF8C4E90305204638BD00BFBB
:10B2E80018000100A8BE3F0230B50E4D87B0D5E862
:10B2F8008F1F11F0010411D12846FBF7DDFD68B15D
:10B308006846FFF7D7FF6A4621460748FCF7F6FE6E
:10B318002846FBF7D6FD054819F0F3F8024807B0B0
:10B3280030BD00BF8097071084970710F3C13D0216
:10B338007047000038B5142504462A46002119F044
:10B3480030FF25804025074928462581258200F0C1
:10B35800B1F804496060284600F0ACF8E060204687
:10B3680038BD00BFA8BE3F027047704710B50446FD
:10B37800FFF7E0FF204610BD10B50446FFF7DAFFDF
:10B38800204610BD10B50446FFF7D4FF204610BD77
:10B3980030B50E4D87B0D5E88F1F11F0010411D1DB
:10B3A8002846FBF789FD68B101A8FFF7DFFF2146B2
:10B3B80001AA0748FFF724FE2846FBF782FD054847
:10B3C80019F09FF8024807B030BD00BF9C970710DE
:10B3D800A897071071C23D0210B50D4C86B0D4E88D
:10B3E8008F3FDB0711D42046FBF766FD68B101A843
:10B3F800FFF7C2FF012101AA0648FFF701FE204618
:10B40800FBF75FFD044819F07CF8024806B010BD50
:10B41800A0970710BC970710ABC23D0210B5FFF705
:10B42800DBFF074B044653B1FFF708FE38B123682A
:10B4380020461B699847002801DD00E000BF10BDC9
:10B448000000000010B50D4C86B0D4E88F3FDB0734
:10B4580011D42046FBF730FD68B101A8FFF792FF31
:10B46800022101AA0648FFF7CBFD2046FBF729FD7C
:10B47800044819F046F8024806B010BDA497071012
:10B48800D0970710A9C23D0210B5FFF7DBFF074BA5
:10B49800044653B1FFF7D2FD38B1236820461B6933
:10B4A8009847002801DD00E000BF10BD0000000043
:10B4B800FBF7E7BCFBF7E7BC37B5051D0446019170
:10B4C80028460BF0D7FC00230199284684F87C30E5
:10B4D800C4E91D33C4E92033C4E92233044B236093
:10B4E8001433636003B0BDE830400BF0ADBC00BF5F
:10B4F80028E43F0237B5051D0446019128460BF0A4
:10B50800B9FC0023019928466367A4F87830C4E998
:10B518001F33C4E92133044B23601433636003B041
:10B52800BDE830400BF05CBCF8E33F022DE9F04F7A
:10B53800DFF84492D9F80040631C2DED028BC9F85E
:10B54800003083B008EE100A002C40F0ED80DFF8E0
:10B558002CB20122784B4FF0FF38784F1A70DBF885
:10B56800003007F11C00764A9D68BC61754EDFF813
:10B5780010A2C7E90024C7E90244C7E9044400F05F
:10B5880075FEDBF800106E4A06F11C00C7F800A033
:10B598003D62C7F824804D68B461C6E90024C6E955
:10B5A8000244C6E9044400F061FEDBF80010644A76
:10B5B800CB68C6F800A00193C6E90858624DC5E9F2
:10B5C8000024C5E90244C5E90444AC6105F11C0046
:10B5D80000F04CFE019BC5F800A03946DFF8A4A195
:10B5E800C5E908385046FFF785FF584A10460BF062
:10B5F80041FC564A5649A2F10807104642F8081C71
:10B6080014311467B9603146524EA2F8744042F8BA
:10B61800044CC2E91E44C2E920440BF0E1FB294670
:10B628003046FFF767FF29464B48FFF763FF32694B
:10B63800DBF8003042F40052C7F878A0474F326177
:10B64800474A07F11C009D68C6F874A0BC61454EC6
:10B65800DFF834A1C7E90024C7E90244C7E9044474
:10B6680000F004FEDBF800103D4A06F11C00C7F8A4
:10B6780000A0C7E908584D68B461C6E90024C6E9C6
:10B688000244C6E9044400F0F1FDDBF80010344A36
:10B69800D1F80CB0C6F800A0C6E90858324DC5E983
:10B6A8000024C5E90244C5E90444AC6105F11C0065
:10B6B80000F0DCFD3946C5F800A0C5E908B8DFF898
:10B6C800CCB0DFF8CC805846FFF7F6FE40460BF0CA
:10B6D800D1FB264BA8F1080788F8784048F8083CC1
:10B6E800143348F8044C3146BB604046C8E91C4452
:10B6F800C8E91F44C8E921441D4C0BF0A5FB2946A5
:10B708002046FFF7D9FE29461A48FFF7D5FE2369D8
:10B71800C8F870B043F40053C4F874B02361D9F882
:10B7280000300133C9F8003018EE100A03B0BDEC40
:10B73800028BBDE8F08F00BF908F071004A9071097
:10B7480034E53F02B4A80710DCA80710ACA907101D
:10B75800BCDD3F0234AA0710C0AA07107CA9071055
:10B7680074E53F022CA9071054A90710ECDD3F022D
:10B778006CAC0710FCAC0710E8A70710189007106E
:10B788000CDC3F024CAB07104CDC3F028CAD0710C1
:10B79800E0AB071070474268511E012A416002D190
:10B7A80003685B6818477047044A0B6812680360AF
:10B7B80093421EBF1A6801321A607047E897071053
:10B7C8000160704700220249024818F047B900BFDB
:10B7D800A9BE3F02F097071010B5034C23680BB9B8
:10B7E800FFF7F0FF206810BDF0970710004870477A
:10B7F800A9BE3F0238B5436804465BB10025D4E9C9
:10B808000132AA4206D953F8250008B1FFF7C3FF51
:10B818000135F4E7606808B1FBF739FBE3685BB111
:10B828000025D4E90223AA4206D953F8250008B115
:10B83800FFF7B1FF0135F4E7E06808B1FBF727FB34
:10B8480023691BB9206958B9204638BD00252369EA
:10B85800585908B1FBF71BFB0435182DF7D1F1E750
:10B86800FBF715FBF0E703685A1E012B10B50446D9
:10B87800026006D1FFF7BEFF2046BDE81040FBF787
:10B8880004BB10BD054B10B51B6804460068984200
:10B8980001D0FFF7E8FF204610BD00BFE89707106A
:10B8A800094A38B50B680D461168044600688B4292
:10B8B8001EBF1A6801321A60814201D0FFF7D3FF18
:10B8C8002B682046236038BDE8970710036823B922
:10B8D800034A136801331360036000680138704736
:10B8E800EC9707102DE9F84F044616460846002A3B
:10B8F80000F0AD80FFF7EAFFA3680546013B9842D8
:10B9080041D900F104086FF06043D4F804A09845C9
:10B9180034BF4FEA88074FF0FF373846FBF7B3FAD2
:10B9280000238346A068984269D1C0F1040200212F
:10B938002A449200804538BF00220BEB800019F0A2
:10B9480030FC3846D4F80C90FBF79DFA00230746E4
:10B95800A06898425AD1C0F1040200212A449200FA
:10B96800804538BF002207EB800019F01AFCE76019
:10B97800C4E901B8BAF1000F4FD1B9F1000F02D0F4
:10B988004846FBF784FA7368D4F80490013373606F
:10B9980059F825300BB32F490868D0B1FFF796FF47
:10B9A80085423ED1D4F804A04868FFF78FFF5AF8C3
:10B9B800203007466BB14968304608F02FF84368D5
:10B9C8008046013343605AF82700FFF7E4FE4AF83F
:10B9D800278059F82500FFF7DEFE49F82560002585
:10B9E8002E46A368AB4232D9E36853F8250020B14C
:10B9F800FFF7D1FEE36843F825600135F1E7626897
:10BA080052F823204BF8232001338CE7E26852F8E0
:10BA1800232047F8232001339BE75046FBF737FAEA
:10BA2800ABE74868FFF752FF85420ED1D4F804A06F
:10BA38000868FFF74BFF5AF820300746002BC8D09C
:10BA48000968304602F0F6FEB9E70831A4E7BDE818
:10BA5800F88F00BFC8BE3F022DE9F04106460C46EC
:10BA680015461F4FD7E88F3FDB0706D43846FBF74C
:10BA780023FA10B13846FBF724FA1A490868F0B1DE
:10BA8800FFF724FFA84248680DD1FFF71FFF0346C0
:10BA9800F16851F82520AAB1FCB1236820465B68FB
:10BAA800BDE8F0411847FFF711FFA84205D1086823
:10BAB800FFF70CFF2B460546EAE70831DEE74FF0B3
:10BAC800FF33E5E76268501C6060581C41F8254068
