:02000004085D95
:1050000000505D08FCFF5F0800000600200005015D
:0850100004015014000000002F
:105018000E480F4908B5884205D00E4A824202D090
:105028000D4B121A98470D480D4A00210D4B121AC4
:1050380098470D480D49884205D00D4A824202D052
:10504800054B121A9847014808BD00BF2890071061
:1050580068FA5F08309307102D0D11103093071070
:10506800ECAF0710A10E111020563D0290505D08BC
:0C507800F8FF3F0219505D080000000026
:085084001810E07901000000A2
:085090007C505D08B8B83F0236
:1050980081F0004102E000BF83F0004330B54FEAE1
:1050A80041044FEA430594EA050F08BF90EA020F4E
:1050B8001FBF54EA000C55EA020C7FEA645C7FEAE1
:1050C800655C00F0E2804FEA5454D4EB5555B8BF04
:1050D8006D420CDD2C4480EA020281EA030382EA75
:1050E800000083EA010180EA020281EA0303362D07
:1050F80088BF30BD11F0004F4FEA01314FF4801CDA
:105108004CEA113102D0404261EB410113F0004FEB
:105118004FEA03334CEA133302D0524263EB4303A2
:1051280094EA050F00F0A780A4F10104D5F1200E40
:105138000DDB02FA0EFC22FA05F2801841F100019B
:1051480003FA0EF2801843FA05F359410EE0A5F16F
:1051580020050EF1200E012A03FA0EFC28BF4CF0A0
:10516800020C43FA05F3C01851EBE37101F0004556
:1051780007D54FF0000EDCF1000C7EEB00006EEB63
:105188000101B1F5801F1BD3B1F5001F0CD34908ED
:105198005FEA30004FEA3C0C04F101044FEA445244
:1051A80012F5800F80F09A80BCF1004F08BF5FEACB
:1051B800500C50F1000041EB045141EA050130BDAB
:1051C8005FEA4C0C404141EB0101013C28BFB1F5BD
:1051D800801FE9D291F0000F04BF01460020B1FA08
:1051E80081F308BF2033A3F10B03B3F120020CDADB
:1051F8000C3208DD02F1140CC2F10C0201FA0CF0B9
:1052080021FA02F10CE002F11402D8BFC2F1200C1D
:1052180001FA02F120FA0CFCDCBF41EA0C019040D3
:10522800E41AA2BF01EB0451294330BD6FEA04041C
:105238001F3C1CDA0C340EDC04F11404C4F1200207
:1052480020FA04F001FA02F340EA030021FA04F319
:1052580045EA030130BDC4F10C04C4F1200220FA70
:1052680002F001FA04F340EA0300294630BD21FAAE
:1052780004F0294630BD94F0000F83F4801306BF74
:1052880081F480110134013D4EE77FEA645C18BF68
:105298007FEA655C29D094EA050F08BF90EA020FFF
:1052A80005D054EA000C04BF1946104630BD91EAF7
:1052B800030F1EBF0021002030BD5FEA545C05D1FA
:1052C8004000494128BF41F0004130BD14F5800439
:1052D8003CBF01F5801130BD01F0004545F0FE41AD
:1052E80041F470014FF0000030BD7FEA645C1ABFE2
:1052F800194610467FEA655C1CBF0B46024650EA19
:10530800013406BF52EA033591EA030F41F4002144
:1053180030BD00BF90F0000F04BF0021704730B5CA
:105328004FF4806404F132044FF000054FF000019F
:1053380050E700BF90F0000F04BF0021704730B560
:105348004FF4806404F1320410F0004548BF404235
:105358004FF000013EE700BF42004FEAE2014FEA8A
:1053680031014FEA02701FBF12F07F4393F07F4F65
:1053780081F06051704732F07F4208BF704793F068
:105388007F4F04BF41F40021704730B54FF460747B
:1053980001F0004521F000411CE700BF50EA01027E
:1053A80008BF704730B54FF000050AE050EA010227
:1053B80008BF704730B511F0004502D5404261EB97
:1053C80041014FF4806404F132045FEA915C3FF4D8
:1053D800D8AE4FF003025FEADC0C18BF03325FEA75
:1053E800DC0C18BF033202EBDC02C2F1200300FA26
:1053F80003FC20FA02F001FA03FE40EA0E0021FA4B
:1054080002F11444BDE600BF70B54FF0FF0C4CF438
:10541800E06C1CEA11541DBF1CEA135594EA0C0FEA
:1054280095EA0C0F00F0DEF82C4481EA030621EA25
:105438004C5123EA4C5350EA013518BF52EA033560
:1054480041F4801143F4801338D0A0FB02CE4FF012
:105458000005E1FB02E506F00042E0FB03E54FF042
:105468000006E1FB03569CF0000F18BF4EF0010E3A
:10547800A4F1FF04B6F5007F64F5407404D25FEA36
:105488004E0E6D4146EB060642EAC62141EA5551E9
:105498004FEAC52040EA5E504FEACE2EB4F1FD0C2B
:1054A80088BFBCF5E06F1ED8BEF1004F08BF5FEAA9
:1054B800500E50F1000041EB045170BD06F000465B
:1054C80046EA010140EA020081EA0301B4EB5C0408
:1054D800C2BFD4EB0C0541EA045170BD41F4801100
:1054E8004FF0000E013C00F3AB8014F1360FDEBF25
:1054F800002001F0004170BDC4F10004203C35DA01
:105508000C341BDC04F11404C4F1200500FA05F383
:1055180020FA04F001FA05F240EA020001F0004224
:1055280021F0004110EBD37021FA04F642EB06019A
:105538005EEA430E08BF20EAD37070BDC4F10C04C4
:10554800C4F1200500FA04F320FA05F001FA04F288
:1055580040EA020001F0004110EBD37041F1000174
:105568005EEA430E08BF20EAD37070BDC4F120057F
:1055780000FA05F24EEA020E20FA04F301FA05F2E7
:1055880043EA020321FA04F001F0004121FA04F28F
:1055980020EA020000EBD3705EEA430E08BF20EA5F
:1055A800D37070BD94F0000F0FD101F00046400099
:1055B80041EB010111F4801F08BF013CF7D041EA1B
:1055C800060195F0000F18BF704703F0004652001F
:1055D80043EB030313F4801F08BF013DF7D043EAF0
:1055E8000603704794EA0C0F0CEA135518BF95EAA6
:1055F8000C0F0CD050EA410618BF52EA4306D1D12D
:1056080081EA030101F000414FF0000070BD50EA4B
:10561800410606BF1046194652EA430619D094EAD5
:105628000C0F02D150EA013613D195EA0C0F05D1BF
:1056380052EA03361CBF104619460AD181EA030113
:1056480001F0004141F0FE4141F470014FF00000CB
:1056580070BD41F0FE4141F4780170BD70B54FF066
:10566800FF0C4CF4E06C1CEA11541DBF1CEA1355E6
:1056780094EA0C0F95EA0C0F00F0A7F8A4EB0504C8
:1056880081EA030E52EA03354FEA013100F08880BF
:105698004FEA03334FF0805545EA131343EA126388
:1056A8004FEA022245EA111545EA10654FEA00263D
:1056B8000EF000419D4208BF964244F1FD0404F5F6
:1056C800407402D25B084FEA3202B61A65EB030552
:1056D8005B084FEA32024FF480104FF4002CB6EB0F
:1056E800020E75EB030E22BFB61A754640EA0C008F
:1056F8005B084FEA3202B6EB020E75EB030E22BFCF
:10570800B61A754640EA5C005B084FEA3202B6EB0F
:10571800020E75EB030E22BFB61A754640EA9C00CE
:105728005B084FEA3202B6EB020E75EB030E22BF9E
:10573800B61A754640EADC0055EA060E18D04FEA5C
:10574800051545EA16754FEA06164FEAC30343EAFC
:1057580052734FEAC2025FEA1C1CC0D111F4801FC9
:105768000BD141EA00014FF000004FF0004CB6E7C2
:1057780011F4801F04BF01430020B4F1FD0C88BF61
:10578800BCF5E06F3FF6AFAEB5EB030C04BFB6EB6C
:10579800020C5FEA500C50F1000041EB045170BD5F
:1057A8000EF0004E4EEA113114EB5C04C2BFD4EB8C
:1057B8000C0541EA045170BD41F480114FF0000E10
:1057C800013C90E645EA060E8DE60CEA135594EA8C
:1057D8000C0F08BF95EA0C0F3FF43BAF94EA0C0F8F
:1057E8000AD150EA01347FF434AF95EA0C0F7FF404
:1057F80025AF104619462CE795EA0C0F06D152EA58
:1058080003353FF4FDAE1046194622E750EA41063B
:1058180018BF52EA43067FF4C5AE50EA41047FF44C
:105828000DAF52EA43057FF4EBAE12E74FF0FF3CB1
:1058380006E000BF4FF0010C02E000BF4FF0010C82
:105848004DF804CD4FEA410C7FEA6C5C4FEA430CFB
:1058580018BF7FEA6C5C1BD001B050EA410C0CBF4A
:1058680052EA430C91EA030F02BF90EA020F0020AC
:10587800704710F1000F91EA030F58BF994208BF13
:1058880090422CBFD8176FEAE37040F001007047D0
:105898004FEA410C7FEA6C5C02D150EA013C07D127
:1058A8004FEA430C7FEA6C5CD6D152EA033CD3D072
:1058B8005DF8040B704700BF8446104662468C466C
:1058C8001946634600E000BF01B5FFF7B7FF00289F
:1058D80048BF10F1000F01BD4DF808EDFFF7F4FFC8
:1058E8000CBF012000205DF808FB00BF4DF808ED53
:1058F800FFF7EAFF34BF012000205DF808FB00BF76
:105908004DF808EDFFF7E0FF94BF012000205DF897
:1059180008FB00BF4DF808EDFFF7CEFF94BF01204C
:1059280000205DF808FB00BF4DF808EDFFF7C4FF45
:1059380034BF012000205DF808FB00BF4FEA410C8E
:105948007FEA6C5C02D150EA013C0AD14FEA430C71
:105958007FEA6C5C02D152EA033C02D14FF00000AE
:1059680070474FF0010070474FEA410212F50012EC
:1059780015D211D56FF47873B3EB625212D94FEA8E
:10598800C12343F0004343EA505311F0004F23FA78
:1059980002F018BF404270474FF00000704750EACD
:1059A800013005D111F0004008BF6FF0004070478A
:1059B8004FF00000704700BF4A0011D212F50012E4
:1059C80011D20DD56FF47873B3EB62520ED44FEA4F
:1059D800C12343F0004343EA505323FA02F07047CF
:1059E8004FF00000704750EA013002D14FF0FF300D
:1059F80070474FF0000070474FEA4102B2F1E043B0
:105A080024BFB3F5001CDCF1FE5C0DD901F0004C9D
:105A18004FEAC0024CEA5070B2F1004F40EB8300ED
:105A280008BF20F00100704711F0804F21D113F119
:105A38003872BCBF01F00040704741F480114FEA52
:105A48005252C2F11802C2F1200C10FA0CF320FADB
:105A580002F018BF40F001004FEAC1234FEAD323F8
:105A680003FA0CFC40EA0C0023FA02F34FEA430362
:105A7800CCE77FEA625307D150EA01331EBF4FF0EB
:105A8800FE4040F44000704701F0004040F0FE4006
:105A980040F40000704700BF53B94AB9002908BF55
:105AA80000281CBF4FF0FF314FF0FF3000F0A0B9C5
:105AB800ADF1080C6DE904CE00F024F8DDF804E03F
:105AC800DDE9022304B07047D0B500220B4B06462F
:105AD8000F46FFF799FCFFF76FFF0446FFF71AFC24
:105AE8000022074BFFF790FC02460B46304639462A
:105AF800FFF7D2FAFFF760FF2146D0BD0000F03D66
:105B08000000F0412DE9F04F099D04460F46002B97
:105B180048D18A42944661D9B2FA82F343B1C3F1BB
:105B280020019F4002FA03FC9C4020FA01F10F4338
:105B38004FEA1C411FFA8CFE220CB7FBF1F601FB61
:105B4800167706FB0EF042EA0742904208D91CEB92
:105B5800020206F1FF3702D2904200F237813E4638
:105B6800121AA4B2B2FBF1F001FB102200FB0EFEE8
:105B780044EA0244A64508D91CEB040400F1FF32AC
:105B880002D2A64500F21C81104640EA0640A4EB6A
:105B98000E0400261DB1DC400023C5E90043314650
:105BA800BDE8F08F8B4209D9002D00F0FD8000265A
:105BB800C5E9000130463146BDE8F08FB3FA83F6F7
:105BC800002E4BD18B42C0F0F280824240F2EF802F
:105BD8003046002DE3D0C5E90047E0E702B9FFDE13
:105BE800B2FA82F3002B40F09D80891A4FEA124ED8
:105BF80097B20126200CB1FBFEF20EFB121140EA0F
:105C0800014107FB02F088420FD91CEB010102F1A8
:105C1800FF382CBF4FF001094FF00009884203D923
:105C2800B9F1000F00F0CF804246091AA4B2B1FBC7
:105C3800FEF00EFB101100FB07F744EA0144A742EF
:105C480008D91CEB040400F1FF3102D2A74200F28C
:105C5800B4800846E41B40EA02409BE7C6F12007EF
:105C6800B34001FA06F422FA07FCF940B2404CEAC4
:105C7800030C20FA07F34FEA1C491C431FFA8CFE59
:105C880000FA06F3200CB1FBF9F809FB181140EAF9
:105C9800014108FB0EF088420FD91CEB010108F105
:105CA800FF3A2CBF4FF0010B4FF0000B884203D98D
:105CB800BBF1000F00F08D80D046091AA4B2B1FBE9
:105CC800F9F009FB101100FB0EFE44EA01418E4574
:105CD80007D91CEB010100F1FF3401D28E457FD8B2
:105CE800204640EA0840A1EB0E01A0FB029841457E
:105CF8004C46C64602D306D14B4504D20138B9EB0F
:105D0800020468EB0C0E002D70D01A1B61EB0E011B
:105D180022FA06F301FA07F7F14000261F43C5E906
:105D280000713CE702FA03FCC3F1200001FA03F218
:105D380021FA00F64FEA1C4E24FA00F11FFA8CF7FC
:105D48009C401143B6FBFEF00A0C0EFB106642EABB
:105D5800064200FB07F696420ED91CEB020200F140
:105D6800FF382CBF4FF001094FF00009964202D9C5
:105D7800B9F1000F31D04046921B89B2B2FBFEF652
:105D88000EFB162241EA024106FB07F28A4207D9B6
:105D98001CEB010106F1FF3801D28A4223D846469E
:105DA800891A46EA004625E72E462846F7E6841A69
:105DB80061EB030301201F460BE76444023849E7FF
:105DC80064440238E1E6023A61442EE7023E624446
:105DD800C6E6A8F1020861446FE702386244CBE7DF
:105DE800023861447DE7023E6144D9E72E46D6E693
:105DF800704700BF10F8012B11F8013B012A28BF9A
:105E08009A42F7D0D01A7047034613F8012B002A9C
:105E1800FBD1181A0138704738B500220023044610
:105E28000D46FFF763FD28B920462946BDE83840EE
:105E3800FFF74ABE204605F10041FFF745FE404204
:105E480061EB410138BD00BF70B502F003F80025D1
:105E5800054E064CA41BA408AC4200D170BD56F8F0
:105E6800043B98470135F7E7C0FF3F02F8FF3F02C0
:105E780000F0B6B808B500F01FF9BDE8084001F019
:105E8800A1BF01F013BA01F011BA01F01DBA01F077
:105E98001BBA01F019BA0000004870475EBB3F0208
:105EA8000C2008B5024A034901F0B0F8FEE700BF2C
:105EB800C5743D02C8B83F020078B0FA80F04009C6
:105EC8007047012303707047704770470122014BE8
:105ED8001A707047EC9307100122014B1A70704733
:105EE8007E930710002210B50446044B114640F873
:105EF800043B01F0D1F8204610BD00BFB4B93F0201
:105F080010B50446FFF7EEFF20462021FFF7C1FF3A
:105F1800204610BD10B50446094B036002F064F931
:105F2800214602F0ADFB01F065FE01F057FE204668
:105F3800044B40F8043B02F03FFA204610BD00BF76
:105F4800C8B93F029CB93F0210B50446FFF7E2FF0B
:105F580020462421FFF79DFF204610BD0EB44FF0C8
:105F6800200C002300B58CB00DAA52F8041BCDE913
:105F780004C3CDE900120392016804AA1E2001F0AF
:105F880061F80CB05DF804EB03B0704708B5074B37
:105F9800026807491A608288064B1A808279064B84
:105FA80006481A70FFF7DAFF08BD00BFCC93071048
:105FB800DDB83F02D09307103893071028970710D1
:105FC80010B5044600F0C0FF63682268C31A934204
:105FD80004D3A3686060BDE81040184710BD0000F6
:105FE80038B501F007FE4FF4165101F0F3FD03F048
:105FF8000DFD03F055FD1020FFF743FF054620B1C6
:1060080002231022272100F02BFB1F4C2846256075
:1060180000F04EFC206800F04DFB206800F088FB83
:1060280020680121194A00F045FC194A206800211E
:1060380000F040FC174B0321188805F0CDFD164BE6
:106048000821188805F0C8FD144B0821188805F0A8
:10605800C3FD134B0821188805F0BEFD114B08211C
:10606800188805F0B9FD104B0821188805F0B4FD13
:106078000E4B0821188805F0AFFDBDE838400C4AE2
:106088000C49104604F022BD849307105290071063
:10609800489007102C900710309007103490071084
:1060A800389007103C900710409007104490071054
:1060B800E493071025653D022DE9F0438DB003F008
:1060C800A5FC03F033FDA84D0446002800F0CD8060
:1060D80040F6B732A54CA64E23788DF81C30A54B58
:1060E8001B788DF81D30338801339BB2934233807F
:1060F80005D9A149A148FFF731FF002333800026C5
:10610800022233469E4807A92E7003F00FFB23781E
:10611800012B04D19B499948FFF720FF26700820DE
:1061280005F084FD984B994A18601378002B40F0CD
:106138000B81012803D18D4B1870642313702B78C1
:10614800042B06D0924B1B78012B0CBF0323002392
:106158002B70904FF3EE047A97ED007AB4EEE77A5D
:10616800F1EE10FA9FBFDFED8C7A77EEC77AFCEE7E
:10617800E77ACDED037A8CBF00239DF80C307D4A79
:10618800864E13703378002B3BD00022844C114686
:10619800206800F0E1FA834907A81FF07BFD07A9F2
:1061A800206802F08FFE0A210022206800F0D4FA4D
:1061B8007D4B20681B88B3F5FA6F03682CBF01215B
:1061C80000219B68984701220021206800F0C4FA4A
:1061D800D7ED007AF5EEC07AF1EE10FA40F3B6800A
:1061E80017EE900AFFF7B8F8CDE900016F4A1021C1
:1061F80007A801F0A1F8206807A902F063FE0023B0
:1062080033706B4F3B783BB36A4E2C783168B1FAE8
:1062180081F149093160002C00F09E80032C08D1DF
:10622800654B188805F0E9FC0121644B188805F0D6
:10623800E4FC634B1C78002C00F0DC80032C09D1B3
:10624800604B3178188805F0D8FC01215E4B18881E
:1062580005F0D3FC00233B705C48FFF7B1FE5C48B7
:10626800FFF7AEFE0DB0BDE8F08304232B7000F0FD
:106278006BFE584E3368C01AB0F5FA6FFFF44FAF93
:1062880000F062FE306003F0C1FB1422524903F0B3
:1062980085FCB0F100087FF742AF4F4FDFF850910F
:1062A800E6B24645BFF63BAF07A803F00FF8242334
:1062B8005E4306F10800012207A9384404F022FBD6
:1062C80000283FD0494607A803F05BF8002839D0DA
:1062D80003F09CFBBA190146012305A804F048FF06
:1062E8003E4F059B069E3B607B689E4216D016B1CA
:1062F8007368013373607C687CB16368013B6360D9
:106308005BB9236820469B689847A368013BA36054
:106318001BB923682046DB6898477E6005A803F010
:10632800ACFC2E4803F0DCFA00283FF4F8AE2C4A07
:106338002C492A4804F0A0FB2B4A1149274804F0AD
:106348009BFBECE60134ABE7013BF7E600220023B8
:10635800CDE90023254A4AE7174B0121188805F0A3
:106368004CFC214661E700BF50900710ED930710E1
:106378007A9307107D930710E0B83F02289707101B
:10638800DC930710F2B83F022C9007107C9307109B
:1063980038930710CC9307100000C842EC930710FD
:1063A8008493071008B93F02D093071012B93F022F
:1063B8007E9307103493071034900710309007101D
:1063C800519007103C90071038900710C09607109E
:1063D800CC96071080930710F0930710D4930710FA
:1063E80064930710E4930710509307101BB93F02FA
:1063F8003C930710034B0121188805F0FEFB21464A
:1064080024E700BF3C90071070B51426D0E900536C
:10641800044606FB0356AE4204D0284605F0A6F90A
:106428001435F8E7206800F04FFF204670BD884219
:10643800F8B504460D46164616D9904215D2A2F173
:106448001406751AA1F114072C44B7421CD02CB1BC
:106458003146204605F006FA337C2374304605F0B1
:1064680085F9143E143CF0E70ED0B5420CD02CB19F
:106478002946204605F0F6F92B7C2374284605F0BA
:1064880075F914351434F0E7F8BD00232DE9F0410F
:10649800C0E9003383604F6804469F420E4624DDFE
:1064A8004FF0140808FB07F000F000FF0546E0B1C4
:1064B800D4E9001208FB0212FFF7B9FF206800F0C8
:1064C80003FF2560A760D6E9007308FB0378B84589
:1064D80009D03946284605F0DFF93B7C143505F824
:1064E800043C1437F3E7736863602046BDE8F08125
:1064F80070B543488EB005F0EBFB4249424802F0C4
:10650800BFFF4249424802F0BBFF4249424802F0FD
:10651800B7FF0023CDE90233049301F06BFB054676
:1065280002A905A8FFF7B1FF05A908A83B4CFFF78A
:10653800ACFF3B4B08A923600BA8FFF7A6FF0BAAEB
:106548000121201D02F07EF90BA8FFF75DFF08A8C6
:10655800FFF75AFF334B2562236005A8FFF754FF66
:10656800314B1425236001F045FB4FF4165101F01F
:1065780031FB01F039FE214602F03CF802A8FFF792
:1065880043FF7F26294C204602F096FE04F10800BE
:1065980003F05FFE04F1140003F05BFE013D84F894
:1065A800206004F12404EED1214803F099F8214831
:1065B80003F096F8204803F06FF94FF4FA631F4C84
:1065C80023601F4BA36000F0BFFCFA2360601D4CE2
:1065D80023601D4BA36000F0B7FC2A4660601421BD
:1065E800012000F039FE01221E210346CDE90012E8
:1065F80016486FF07F4100F031FF0EB070BD00BF4C
:106608007893071025B93F023C9307104AB93F0217
:10661800509307106FB93F0264930710A8930710AF
:106628009CB93F0294BB3F02C8B93F02F0930710E0
:10663800E4930710DC930710D4930710C096071053
:1066480065643D02CC96071071643D02889307107B
:10665800704710B504461021FFF71BFC204610BDFB
:1066680070B50025034E456006600172427383735E
:10667800C57370BDE0B93F0238B504460D4605F054
:1066880089F9217A01F054F8022000F04FFC05F056
:1066980081F9E17B036829439B689847022000F051
:1066A80045FC05F077F901F04BF8BDE838400220C9
:1066B80000F03CBC08230021C373FFF7DDBF38B5E9
:1066C80005460C4641F00401FFF7D6FF012000F013
:1066D8002DFC284604F0FB01FFF7CEFFBDE838404B
:1066E800322000F023BC38B504460D46FFF7C4FF3E
:1066F80029462046BDE83840FFF7E1BF70B50D4692
:106708001446064621F00F011143FFF7ECFF44EA57
:1067180005113046BDE87040C9B2FFF7E4BF08B5BF
:106728000122FFF7EBFF002008BD0022FFF7E6BFBC
:1067380008B50121FFF7F9FFBDE808404FF4FA60FA
:1067480000F0F4BB08B50221FFF7EFFFBDE80840F1
:106758004FF4FA6000F0EABB7FB5064615460C46D2
:106768000C4B0DF1100C0FCB0CE90F00327B04AB76
:10677800AA423CBF02F1FF32D5B203EB850555F8BA
:10678800101C3046214461F07F01C9B2FFF7CDFFEC
:1067980004B070BD90B83F0208B5817A41F0040298
:1067A800827241F00C01FFF7C0FF08BD01F007013C
:1067B800C90070B541F0400114460546FFF7B5FF22
:1067C800661E07342B6816F8011F28469B689847F1
:1067D800A642F7D170BD10B5012A88BF417A044698
:1067E80084BF41F00801417202732BB1012A02BF34
:1067F800437A43F004034372322001F0B2FAE17B9A
:106808002046FFF739FF4FF47A7001F0AAFA3021D9
:106818002046FFF768FF41F2941000F087FB302113
:106828002046FFF760FF41F2941000F07FFB302113
:106838002046FFF758FF962000F078FB20462021DD
:10684800FFF751FF617A204641F02001FFF76DFF05
:1068580004232046A372FFF79FFF2046FFF768FF37
:1068680002232046E3720621FFF75FFF2046BDE8BA
:106878001040FFF767BF000010B5044605F08AF81E
:106888000A4900F047FF05F085F8012100F046FFAE
:1068980005F080F800F046FF00232046A27B617BCC
:1068A8006372BDE81040FFF796BF00BFA0860100E5
:1068B800FFF7E2BFFFF77ABF09B504480068044B49
:1068C80003441B681B68029309BD00002890071049
:1068D8003400000009B504480068044B03441B68F1
:1068E8005B68029309BD000028900710340000007F
:1068F80009B504480068044B03441B689B6802936D
:1069080009BD0000289007103400000009B50448AC
:106918000068044B03441B681B69029309BD00000F
:10692800289007103400000009B504480068044B9B
:1069380003441B685B69029309BD00002890071097
:106948003400000009B504480068044B03441B6880
:106958009B69029309BD00002890071034000000CD
:1069680009B504480068044B03441B68DB690293BB
:1069780009BD0000289007103400000009B504483C
:106988000068044B03441B681B6A029309BD00009E
:10699800289007103400000009B504480068044B2B
:1069A80003441B68DB69029309BD000028900710A7
:1069B8001800000009B504480068044B03441B682C
:1069C8001B6A029309BD00002890071018000000F8
:1069D80009B504480068044B03441B681B6802930C
:1069E80009BD0000289007101000000009B50448F0
:1069F8000068044B03441B689B68029309BD0000B0
:106A0800289007101000000009B504480068044BDE
:106A180003441B68DB68029309BD00002890071037
:106A28001000000009B504480068044B03441B68C3
:106A38009B69029309BD0000289007101000000010
:106A480009B504480068044B03441B68DB690293DA
:106A580009BD0000289007101000000009B504487F
:106A68000068044B03441B681B6A029309BD0000BD
:106A7800289007101000000009B504480068044B6E
:106A880003441B685B6A029309BD00002890071045
:106A98001000000009B504480068044B03441B6853
:106AA8009B6A029309BD000028900710100000009F
:106AB80009B504480068044B03441B68DB6A029369
:106AC80009BD0000289007101000000009B504480F
:106AD8000068044B03441B681B6B029309BD00004C
:106AE800289007101000000009B504480068044BFE
:106AF80003441B685B6B029309BD000028900710D4
:106B08001000000009B504480068044B03441B68E2
:106B18001B6C029309BD00002890071010000000AC
:106B280009B504480068044B03441B689B6802933A
:106B380009BD0000289007102400000009B504488A
:106B48000068044B03441B68DB68029309BD00001E
:106B5800289007102400000009B504480068044B79
:106B680003441B681B69029309BD000028900710A5
:106B78002400000009B504480068044B03441B685E
:106B88005B69029309BD00002890071024000000EB
:106B980009B504480068044B03441B689B690293C9
:106BA80009BD0000289007102400000009B504481A
:106BB8000068044B03441B68DB69029309BD0000AD
:106BC800289007102400000009B504480068044B09
:106BD80003441B681B6A029309BD00002890071034
:106BE8002400000009B504480068044B03441B68EE
:106BF8009B6A029309BD000028900710240000003A
:106C080009B504480068044B03441B68DB6A029317
:106C180009BD0000289007102400000009B50448A9
:106C28000068044B03441B681B6C029309BD0000F9
:106C3800289007102400000009B504480068044B98
:106C480003441B685B69029309BD00002890071084
:106C58004C00000009B504480068044B03441B6855
:106C68005B6C029309BD00002890071030000000FB
:106C780009B504480068044B03441B689B6C0293E5
:106C880009BD0000289007103000000009B504482D
:106C98000068044B03441B68DB6C029309BD0000C9
:106CA800289007103000000009B504480068044B1C
:106CB80003441B685B6D029309BD00002890071010
:106CC8003000000009B504480068044B03441B6801
:106CD8009B68029309BD000028900710600000001F
:106CE80009B504480068044B03441B68DB6F029332
:106CF80009BD0000289007106000000009B504488D
:106D08000068044B03441B68D3F88430029309BD20
:106D1800289007106000000009B504480068044B7B
:106D280003441B68D3F89830029309BD28900710D4
:106D38006000000009B504480068044B03441B6860
:106D4800D3F8B430029309BD289007106000000002
:106D580009B504480068044B03441B68D3F8BC30E9
:106D6800029309BD289007106000000009B5044887
:106D78000068044B03441B68D3F8C430029309BD70
:106D8800289007106000000009B504480068044B0B
:106D980003441B68D3F8D830029309BD2890071024
:106DA8006000000009B504480068044B03441B68F0
:106DB800D3F8DC30029309BD28900710600000006A
:106DC80009B504480068044B03441B68D3F8E03055
:106DD800029309BD289007106000000009B5044817
:106DE8000068044B03441B68D3F8E430029309BDE0
:106DF800289007106000000009B504480068044B9B
:106E080003441B68D3F8F030029309BD289007109B
:106E18006000000009B504480068044B03441B687F
:106E2800D3F8F430029309BD2890071060000000E1
:106E380009B504480068044B03441B68D3F80031C3
:106E4800029309BD289007106000000009B50448A6
:106E58000068044B03441B68D3F80431029309BD4E
:106E6800289007106000000009B504480068044B2A
:106E780003441B685B68029309BD00002890071053
:106E88006400000009B504480068044B03441B680B
:106E98009B68029309BD0000289007106400000059
:106EA80009B504480068044B03441B68DB68029377
:106EB80009BD0000289007106400000009B50448C7
:106EC8000068044B03441B685B69029309BD00001A
:106ED800289007106400000009B504480068044BB6
:106EE80003441B68DB69029309BD00002890071062
:106EF8006400000009B504480068044B03441B689B
:106F08001B6A029309BD0000289007106400000066
:106F180009B504480068044B03441B685B68029386
:106F280009BD0000289007100000000009B50448BA
:106F38000068044B03441B68DB68029309BD00002A
:106F4800289007100000000009B504480068044BA9
:106F580003441B685B69029309BD00002890071071
:106F68000000000009B504480068044B03441B688E
:106F78009B68029309BD00002890071014000000C8
:106F880009B504480068044B03441B68DB68029396
:106F980009BD0000289007101400000009B5044836
:106FA8000068044B03441B681B69029309BD000079
:106FB800289007101400000009B504480068044B25
:106FC80003441B685B69029309BD00002890071001
:106FD8001400000009B504480068044B03441B680A
:106FE8009B68029309BD000028900710500000001C
:106FF80009B504480068044B03441B68DB68029326
:1070080009BD0000289007105000000009B5044889
:107018000068044B03441B685B6B029309BD0000C6
:10702800289007104800000009B504480068044B80
:1070380003441B681B6D029309BD000028900710CC
:107048004800000009B504480068044B03441B6865
:107058005B6D029309BD00002890071048000000EE
:1070680009B504480068044B03441B68DB6E0293AF
:1070780009BD0000289007104800000009B5044821
:107088000068044B03441B681B6F029309BD000092
:10709800289007104800000009B504480068044B10
:1070A80003441B68D3F88030029309BD2890071069
:1070B8004800000009B504480068044B03441B68F5
:1070C800DB6B029309BD0000289007102C0000001C
:1070D80009B504480068044B03441B685B680293C5
:1070E80009BD0000289007102800000009B50448D1
:1070F8000068044B03441B689B68029309BD0000A9
:10710800289007102800000009B504480068044BBF
:1071180003441B68DB68029309BD00002890071030
:107128002800000009B504480068044B03441B68A4
:107138001B69029309BD0000289007102800000071
:1071480009B504480068044B03441B685B69029353
:1071580009BD0000289007102800000009B5044860
:107168000068044B03441B689B69029309BD000037
:10717800289007102800000009B504480068044B4F
:1071880003441B68DB69029309BD000028900710BF
:107198002800000009B504480068044B03441B6834
:1071A8001B6A029309BD0000289007102800000000
:1071B80009B504480068044B03441B681B6B029321
:1071C80009BD0000289007102800000009B50448F0
:1071D8000068044B03441B685B6B029309BD000005
:1071E800289007102800000009B504480068044BDF
:1071F80003441B681B6C029309BD0000289007100C
:107208002800000009B504480068044B03441B68C3
:107218005B6C029309BD000028900710280000004D
:1072280009B504480068044B03441B685B68029373
:1072380009BD0000289007100800000009B504489F
:107248000068044B03441B685B69029309BD000096
:10725800289007100800000009B504480068044B8E
:1072680003441B68DB6F029309BD000028900710D8
:107278000800000009B504480068044B03441B6873
:10728800D3F88830029309BD289007100800000041
:1072980009B504480068044B03441B68D3F89430CC
:1072A800029309BD289007100800000009B504489A
:1072B8000068044B03441B681B68029309BD000067
:1072C800289007100400000009B504480068044B22
:1072D80003441B685B68029309BD000028900710EF
:1072E8000400000009B504480068044B03441B6807
:1072F8009B68029309BD0000289007100400000055
:1073080009B504480068044B03441B685B69029391
:1073180009BD0000289007100400000009B50448C2
:107328000068044B03441B689B69029309BD000075
:10733800289007100400000009B504480068044BB1
:1073480003441B68DB69029309BD000028900710FD
:107358000400000009B504480068044B03441B6896
:107368005B6A029309BD0000289007100400000022
:1073780009B504480068044B03441B68DB6A0293A0
:1073880009BD0000289007100400000009B5044852
:107398000068044B03441B681B6B029309BD000083
:1073A800289007100400000009B504480068044B41
:1073B80003441B685B6B029309BD0000289007100B
:1073C8000400000009B504480068044B03441B6826
:1073D8009B6B029309BD0000289007100400000071
:1073E80009B504480068044B03441B68DB6B02932F
:1073F80009BD0000289007100400000009B50448E2
:107408000068044B03441B681B6C029309BD000011
:10741800289007100400000009B504480068044BD0
:1074280003441B685B6C029309BD00002890071099
:107438000400000009B504480068044B03441B68B5
:107448009B6C029309BD00002890071004000000FF
:107458000B460A68014692681846104770B50E4CEC
:10746800002504601C24C0E901459DF814409DF8DE
:10747800106004F0030444EA8604E4B2047442741D
:1074880085744161427CC5600F2A0ABF034B0383A0
:10749800C0E9063070BD00BFB4B93F02E9793D02CA
:1074A800002340681A46FFF713BE002202214068F5
:1074B800FFF72ABE002240681146FFF717BE0022D8
:1074C80040681146FFF72EBE002340681A46194649
:1074D800FFF736BE002340681A461946FFF73EBE3E
:1074E80000214068FFF780BE00214068FFF78ABE90
:1074F8000022406881F00101FFF73EBE002240688B
:10750800FFF756BE002240681146FFF75FBE002213
:1075180040681146FFF73EBE2DE9F04395B014468A
:107528000D46074600F0C4FB00211C220DA800915F
:107538001EF00BFA402320460C9300216B460CAA40
:10754800FFF756FD044600284BD102460121686822
:10755800FFF7E8FD0221804622466868FFF7E2FD52
:1075680021468146009E002E3BD0002939D1736800
:10757800022B03D00A2B11D0F669F4E7B8F1000FFB
:10758800FAD0716906A804313C1D07AD00F0BEFBB6
:107598000FCD0FC42B6841462370EDE7B9F1000FFA
:1075A800EAD0102201A874691EF0CFF9062301ADB4
:1075B8008DF8143004F1080318342A4618685968FD
:1075C800083303C2A3421546F7D101A906A83C1DFA
:1075D80007AD00F07BFB0FCD0FC42B684946237025
:1075E800CAE70098FFF7F6FC384615B0BDE8F08307
:1075F800024B034A1A6000225A607047D896071057
:10760800F8B93F02002240681146FFF78BBD0022FF
:1076180040681146FFF7BEBD002240681146FFF7DB
:10762800D5BD00224068FFF7C3BD0022406881F045
:107638000101FFF7A1BD002340681A461946FFF76C
:107648008DBD002340681A461946FFF779BD002210
:1076580040681146FFF74ABD002202214068FFF743
:1076680053BD002340681A46FFF732BD0422024B7F
:107678005A60024A1A607047E096071034BA3F020F
:107688007047F8B5064615460C468F18BC4206D01A
:10769800336830469B6814F8011B9847F6E728467C
:1076A800F8BD0022007CFFF7D9B90021007CFFF764
:1076B800E3B90021007CFFF7EDB90021007CFFF75A
:1076C800F7B90021007CFFF701BA10B50446142170
:1076D800FEF7DFFB204610BD38B5044615464FF4CB
:1076E8007A730022C4E90123094B084621742360F8
:1076F8002946FFF707FABF3008D16B69DB0705D5C4
:107708006868FFF7E1FDE868FFF7DEFD204638BD51
:1077180078BA3F020022007CFFF75AB90022007CA9
:10772800FFF764B90023007C1A461946FFF76CB9C5
:107738000022007CFFF776B90022007CFFF780B9B1
:107748000121FFF7F9BF012200F1100313F8101C03
:107758001846012908D153F8041C02EB4102013AEA
:1077680003F11003F2D17047022904BF53F8041C37
:107778005218F4E70EB4F0B588B0102100AF07F145
:10778800340555F8042B04462B4678187A60FD60BA
:10779800FFF7E0FD0F287A681AD900F1080323F0F3
:1077A80007036E46ADEB030D411C2B466846FD6092
:1077B800FFF7D0FD021E04DD2368694620469B685A
:1077C8009847B5462037BD46BDE8F04003B070473E
:1077D8000028F7D0236802469B68204607F110016D
:1077E8009847EFE710B543680446013B436063B927
:1077F80003689B689847A368013BA3602BB923687B
:107808002046BDE81040DB68184710BD38B50B6846
:10781800044603604D6843689D4208D015B16B6803
:1078280001336B60606808B1FFF7DCFF656038BD45
:1078380007B503688DF8071001229B680DF1070151
:10784800984703B05DF804FB0B461146002210B5BB
:107858000446C0E9002283600BB9204610BDFFF73B
:10786800D5FFFAE78368EBB11A78032A1AD8DFE85C
:1078780002F00417021B0520704702685B68526813
:10788800D05C2D2812D0A0F13003092B0ED9742812
:107898000ED066280CD0A0F16E03584258417047AC
:1078A8000620704700207047042070470320704767
:1078B8000220704710B50446FFF7D4FF02280ED007
:1078C800C31EDBB2012B14D82268A36850685B681A
:1078D8000A22BDE81040002118441FF021B922688F
:1078E800A36852685B68D05CA0F1740358425841A1
:1078F80010BD0020FCE7000038B500230446C0E9AD
:1079080000330E48C4E90203A9B10B78032B06D053
:107918008BB9136858684B68C35C6E2B07D0136823
:107928004D6858688B6828445B1BA060E36011466B
:107938002046FFF76BFF204638BD00BF5EBB3F0205
:1079480038B500250B4604461146C0E90055C0E984
:107958000255C0E904554BB11A78012A06D103F142
:107968001002DB6882604361FFF750FF204638BD94
:1079780010B54369044663B18068013BE06010308C
:10798800A0602061636113B1FFF7DDFEA0600120F4
:1079980000E0184610BD10B57D210446FFF748FFEA
:1079A80001232046237110BD08B50379012B02D0AD
:1079B800022B04D008BD2C21FFF73AFFFAE73A2141
:1079C800FAE710B50446FFF7EFFF20467B21FFF7E3
:1079D8002FFF00232046237110BD000013B5044675
:1079E8000191FFF7E1FF23682046DB68019A03490C
:1079F800984701232046237102B010BDDDB83F022D
:107A080013B504460191FFF7CFFF23682046DB68D2
:107A1800019A0349984701232046237102B010BDFB
:107A280098BA3F022DE9F0470D46904622210446B8
:107A38002F46FFF7FDFEDFF8A490A8444745BA4655
:107A48003DD017F8016B222E06D05C2E04D03046AC
:107A58001DF0C4FD0028F1D12368294620469B6803
:107A6800AAEB050298475C212046FFF7E1FE0D2EA0
:107A78000AD8072E1CD9A6F10803052B18D8DFE869
:107A880003F00D0F11171315222E01D05C2E0FD104
:107A980031462046FFF7CCFE3D46CFE76221F8E7A6
:107AA8007421F6E76E21F4E76621F2E77221F0E728
:107AB8002368324649462046DB689847ECE7BD42D2
:107AC80005D02368294620469B687A1B98472221BF
:107AD8002046FFF7ADFEBDE8F08700BF9BBA3F0226
:107AE80013B50446CDE90021FFF75EFFDDE900216B
:107AF8002046FFF797FF02232046237102B010BDEE
:107B080013B50446CDE90021FFF74EFFDDE900215A
:107B18002046FFF787FF01232046237102B010BDDE
:107B280010B50446006808B1FFF75CFE204610BD9A
:107B3800417470477047704708B50021007CFEF714
:107B480001FF40EAE07008BD08B50121007CFEF79E
:107B5800F9FE40EAE07008BD08B5007CFEF7E4FED7
:107B680020EAE07008BD08B5007CFEF7CFFE20EAE9
:107B7800E07008BD13B50446007C0191FEF7D4FE01
:107B88000028019901DC607C20B1207CFEF7E8FE2A
:107B980020EAE07002B010BD007CFEF7EFBE10B521
:107BA80004461421FEF775F9204610BD10B54FF4B0
:107BB8007A73044608460021C4E90113044B207473
:107BC8002360012311466374FEF776FE204610BD3C
:107BD800ACBA3F020022007CFEF77CBE007CFEF7B8
:107BE80087BE10B50446142200211DF0AEFE2046C3
:107BF80010BD000010B588B003A8FFF7F2FF0C4CC9
:107C0800D4E88F1F11F001010FD120460191FEF732
:107C180053F9019948B103AA0648FFF7C7FF204660
:107C2800FEF74FF904481DF040F8024808B010BDAF
:107C3800E8960710EC960710CD803D02704710B506
:107C480004461821FEF725F9204610BDF0B5037D3E
:107C58000E46062B4FF000048DB000F1040712D039
:107C680000F1080515F8011D0A22304601F031F926
:107C7800AF42044419D0002CF4D02E21304601F034
:107C880025F90444EEE72F236A4639460A208DF881
:107C98000040FEF7D1FF6846FEF7B6F833680246A3
:107CA80069463046DB689847044620460DB0F0BD6B
:107CB80010B50446044B1122002140F8043B1DF086
:107CC80044FE204610BD00BFDCBA3F020346074A07
:107CD80010B543F8042B01F1100251F8044B9142FE
:107CE80043F8044BF9D10A781A7010BDDCBA3F0288
:107CF80010B59DF8084044EA032343EA02420423EE
:107D080042EA01614160037510BD000007B5064BEA
:107D18000360CB7800938B784A780978FFF7E8FFFF
:107D280003B05DF804FB00BFDCBA3F0210B58368FE
:107D3800044613B1032201469847204610BD13B5E7
:107D48006C460B460246D0E9000184E8030093E83C
:107D5800030082E8030094E8030083E8030002B00C
:107D680010BD0021FFF76ABA014B1860704700BFC9
:107D7800F090071008B50F4B43B1FFF73BFF0368BE
:107D88001B699847002801DD00E000BF0A4B43B19A
:107D980003F054FE03681B699847002801DD00E0E2
:107DA80000BF064B0BB103F08FFE054B0BB103F080
:107DB800C1FE08BD00000000000000000000000037
:107DC8000000000008B5FFF7D5FFFFF7BDF8014B2D
:107DD800186008BD909707100548064A08B5121A9A
:107DE80005491DF08BFD054B054A1A6008BD00BF0B
:107DF80000B4071004B4071070FD5F0800B4071042
:107E08001E1C279A002307B51A466FF077010093C6
:107E1800FFF73EFA03B05DF804FB000007B543889E
:107E28000A2B08D0502B0BD1094B1B684BB103B060
:107E38005DF804EB1847FFF7E5FF03B05DF804FBB6
:107E480000231A466FF077010093FFF721FAF4E751
:107E580004970710002110B51148FFF7DDFA114B00
:107E68001A68114B9A420CBF012200220F4B1A705C
:107E780001D0FFF7B1FFFFF74BF804461DF0C0FD36
:107E88000B4B13B1204600E000BF00210848FFF764
:107E980011F9BDE8104000210648FFF7EBB900BF13
:107EA80001833D0200B407101E1C279A0097071093
:107EB80000000000B5833D020022014B9A60704724
:107EC80008970710024B1A68024B1A60704700BFE8
:107ED8005C9007101897071080680368DB681847DC
:107EE8007047084611B10B685B68184770477047C0
:107EF80070477047704738B504460D4600682E2114
:107F08001DF0BCFE2368C31A2B6023B1037803B1AC
:107F1800013023682060184638BD10B504460C218E
:107F2800FDF7B7FF204610BD10B504460421FDF744
:107F3800B0FF204610BD10B504460421FDF7A9FF87
:107F4800204610BDFEF7A2BE08B5FDF753FFB0FAF4
:107F580080F0400908BD704710B50C46FFF74AFE8F
:107F6800844205D1FFF746FEBDE81040FFF736BE54
:107F780003F064FD844205D103F060FDBDE81040C4
:107F880003F093BB2CB123682046BDE810405B6822
:107F9800184710BD0B6803604B68436013B15A68FB
:107FA80001325A60704713B5044608460191FDF73F
:107FB8002BFF02462046019902B0BDE81040FFF7AA
:107FC8009FBD13B5044608460191FDF71DFF024603
:107FD800204623680199DB6802B0BDE810401847C5
:107FE80007B503688DF807100122DB680DF107015A
:107FF800984703B05DF804FB0A6810B502604A6848
:1080080042600022C0E9022202618C688A608460B2
:10801800CC68CA60C4600C690A61046110BD0000C4
:108028002DE9F74F4FF0140AD0E90084174645466A
:108038000AFB04F40093174BA4105C43002C21DDC9
:1080480066100AFB06F005EB0009B9F804B03A46D9
:108058005F4528BF5A46285801911DF023FE002885
:108068004FF0010301990BD15F4503D1009A1370BA
:108078003446E3E7FCD9A61B09F11405013EF7E7EE
:10808800F9DBF5E7A5EB08050248AD10684303B036
:10809800BDE8F08FCDCCCCCC7FB50369057E0191CE
:1080A80003B3F9B1002600F10C04039603A901A853
:1080B800FFF721FF0146A8B10DF10B032046039AF3
:1080C8008DF80B60FFF7ACFF9DF80B3053B12368B8
:1080D800142404FB0034B4F906300834002BA8BF7C
:1080E800DDB2E3E7284604B070BD0EB4F0B58CB03D
:1080F80000AF07F1440555F8042B04462B46202110
:1081080007F110007A60FD60FFF724F91F287A68EC
:108118001AD900F1080323F007036E46ADEB030DEF
:10812800411C2B466846FD60FFF714F9021E04DD6A
:10813800236869462046DB689847B5463037BD4610
:10814800BDE8F04003B070470028F7D02368024626
:10815800DB68204607F110019847EFE710B5084C97
:10816800D4E88F3FDB0709D42046FDF7A5FE28B1E8
:108178002046FDF7A6FE03481CF097FD024810BDF7
:108188002097071087843D026090071010B5084CAF
:10819800D4E88F3FDB0709D42046FDF78DFE28B1D0
:1081A8002046FDF78EFE03481CF07FFD024810BDF7
:1081B80024970710EF843D026490071038B5002516
:1081C8000446C0E90055C0E904558560856140F85A
:1081D800245FFEF73FFDFFF7C1FFE061FFF7D6FF21
:1081E80025732062204638BD10B50A4CD4E88F3F6D
:1081F800DB070CD42046FDF75FFE40B10648FFF7C9
:10820800DDFF2046FDF75DFE04481CF04EFD0248E8
:1082180010BD00BF1C9707102C970710F58C3D0266
:108228000023024A02490348FEF728BFDD8A3D02BF
:10823800698A3D02E9893D0200231A461946184613
:10824800FEF71CBF37B504468D686846FFF7A2FEE7
:108258006A4629462046FFF773FB01A8FFF760FC32
:10826800204603B030BD37B50446CD686846FFF7F1
:1082780091FE6A4629462046FFF73EFB01A8FFF714
:108288004FFC204603B030BD37B504460D6968463B
:10829800FFF780FE6A4629462046FFF7D5FA01A86F
:1082A800FFF73EFC204603B030BD000070B58AB031
:1082B8000D46014604A8FFF7C5FF144E04A8FFF7B2
:1082C80057FBE8B1684604A9FFF7CDFF314602988D
:1082D800FFF73AFE044610B12C1E18BF012401A86E
:1082E800FFF71EFC002CE9D0684604A9FFF7CCFF75
:1082F8006846FFF7DFFA286001A8FFF711FCDDE701
:1083080005A8FFF70DFC0AB070BD00BF04BB3F0213
:1083180037B50C46134920461546FDF76BFD50B995
:10832800FFF768FC4FF41651FFF754FC03B0BDE8A3
:108338003040FFF75FBC20460B49FDF75BFD78B97D
:108348004FF4165301A928460193FFF7AFFF03F036
:1083580075FB019903F0A6F903F070FB03B030BD7B
:108368000020FBE709BB3F0210BB3F0270B5142693
:10837800D0E90053044606FB0356AE4205D005F18A
:108388000800FFF7F3FF1435F7E72068FEF79CFFB6
:10839800204670BD70B50446D0E9005305EB0316BE
:1083A800AE4204D0284603F0E1F91035F8E720681A
:1083B800FEF78AFF204670BD10B504460C30FFF763
:1083C800D5FF2046FFF7E6FF204610BD10B504464E
:1083D800034B40F8043BFFF7EFFF204610BD00BFFA
:1083E8009CB93F0210B50446FFF7F0FF2046242150
:1083F800FDF74FFD204610BD10B50446024B036043
:10840800FFF7E4FF204610BDACBB3F0210B50446A1
:10841800FFF7F2FF20462421FDF73BFD204610BD63
:108428000022C0E90022826010B50C680A6004606E
:108438004C684A6044608C688A60846010BD10B5DE
:10844800044603681868FEF72FFC204610BD00009C
:108458002DE9F04F87B003931C4B80465B68894633
:10846800C3F3080316466BB9FFF7BEFE044600F1D6
:108478002403406A0593FFF765FD237B2BB105A80C
:10848800FFF7DDFF07B0BDE8F08F01235FFA89F938
:108498002373D4E9005305EB830AAA4512D055F893
:1084A800047B3146381DFFF7F7FD8145F5D3039A64
:1084B8003B680092D3F808B04A46334641463846EE
:1084C800D847EAE700232373D9E700BF00ED00E0AF
:1084D8002DE9F74F9B461A4B80465B688946C3F3E4
:1084E800080316466BB9FFF77FFE044600F1240324
:1084F800406A0193FFF726FD237B2BB101A8FFF704
:108508009EFF03B0BDE8F08F0123F6B22373D4E9D0
:10851800005305EB830A55450ED055F8047B5946A0
:10852800381DFFF7B9FD8642F5D33B684A464146F8
:108538003846DB689847EEE700232373DEE700BF81
:1085480000ED00E02DE9F341164B05465B680F4648
:10855800C3F308031BBBFFF747FE044600F12403DF
:10856800406A0193FFF7EEFCD4E90063462406EB6A
:108578008308B04509D101A8FFF761FFA542B4BF40
:108588000020012002B0BDE8F08156F8040B3946FE
:108598000430FFF781FD8442A8BF0446E9E70020C4
:1085A800F0E700BF00ED00E0F8B5D0E901539D42C7
:1085B80004460E460DDB6F1C002F006804DDB90071
:1085C800FEF790FE18B9F8BDFEF77EFE0020206089
:1085D800A7602768626807EB85019200A2EB850215
:1085E800081D1DF098F947F82560636801200133DC
:1085F8006360E8E737B5044600F12403406A019355
:108608000D46FFF79FFCD4E9003203EB8202934248
:1086180019460AD009680433A942F8D101A8FFF71E
:108628000EFF0025284603B030BD29462046FFF737
:10863800BBFF05460028F1D06368012B01D1FFF785
:10864800EFFD01A8FFF7FBFEECE70B4670B504460B
:10865800D0E9000200EB820282420FD001461D6879
:1086680051F8046BAE4207D1521A1DF054F901209B
:108678006368013B636070BD0846EDE70020FAE7D8
:108688001FB5044600F12403406A01910393FFF7E4
:1086980059FC204601A9FFF7D8FF18B163680BB948
:1086A800FFF7CAFD03A8FFF7CAFE04B010BD1823E0
:1086B80070B50446D0E9045603FB0656AE4215D001
:1086C800204605F11001FFF7C0FF63680BB9FFF7FB
:1086D800B3FDE06929690368DB689847696919B1DE
:1086E800206A0368DB6898471835E7E71826D4E955
:1086F800045306FB0356AE4204D0284603F036F86E
:108708001835F8E70023636170BD73B50446FFF7B9
:1087180093FD04F12403606A0193FFF713FC2046DC
:10872800FFF7C5FF01A8FFF78AFE606A08B1FEF7E8
:108738009FFAD4E90453182606FB0356AE4204D028
:10874800284603F013F81835F8E72069FEF7BCFD52
:108758002068FEF7B9FD204602B070BD0148FFF75A
:10876800D4BF00BF2C9707108842F8B504460D46C1
:10877800164615D9904214D2A2F11406751AA1F121
:1087880014072C44B7421AD01CB131462046FFF7D3
:1087980033FC06F10800FFF7E9FD143E143CF1E74D
:1087A8000DD0B5420BD01CB129462046FFF724FC5A
:1087B80005F10800FFF7DAFD14351434F1E7F8BDC8
:1087C8008842F8B504460D46164614D9904213D28D
:1087D800A2F11006751AA1F110072C44B74218D05F
:1087E8001CB13146204603F03DF8304602F0BEFF8A
:1087F800103E103CF2E70CD0B5420AD01CB1294615
:10880800204603F02FF8284602F0B0FF1035103448
:10881800F2E7F8BD70B50E1E054611DD3001FEF712
:1088280045FD044658B1D5E9001201EB0212FFF7E5
:10883800C7FF2868FEF748FD01202C60AE6070BDB8
:108848000024F6E72DE9F04F90460023462295B024
:108858000391D8F8041004469942C0E90033C0E9EE
:108868000233C0E90433CDE9083302760A9323DCE6
:10887800D8E90057142303FB0757AF423BD02946DA
:108888000BA802F0EFFF0BA90FA8099E02F0EAFF60
:10889800DDE9091399421BDA089B099A03EB0616CE
:1088A800314603EB021206F11000FFF789FFEEB91B
:1088B800099B0133099311E008A8FFF7ABFF0028D3
:1088C800D6D108A8FFF766FD204615B0BDE8F08FA1
:1088D800013108A8FFF79EFF0028DDD10FA802F09C
:1088E80045FF0BA802F042FF1435C6E730460FA932
:1088F80002F0B8FFDCE700264FF01409CDE90B665B
:108908000D96DDE908239E427CDA3301D35806939D
:108918000BB90136F5E70023079309FB06F30BAD06
:10892800029307A906A8FFF7E6FA82460028F0D0C6
:108938004FF0000301468DF817302846079A0DF1CD
:108948001703FFF76DFB9DF817700190002F4AD1B0
:10895800BDF81C30CDE91177ADF840304FF6FF7304
:10896800CDF83CA0ADF842301397D5E901329342D7
:1089780017DB03F1010ABAF1000F30DD09FB0AF039
:10898800FEF794FC834660B3D5E9001209FB021296
:10899800FFF7EAFE2868FEF797FCC5F800B0C5F8AF
:1089A80008A02B68019A09FB023A6A68514609FB3C
:1089B80002320AF11400FFF7D7FEBAF1000F03D014
:1089C80050460FA9FFF718FB6B6801336B6011A8BD
:1089D800FFF7CCFC3FB10BA8FFF7C8FC71E7BB461B
:1089E800D8E70127F3E7019B2D6809FB0355069B90
:1089F8001B782BB9D8F80030029A13441B7CEB8003
:108A080008358EE72168226062686360A36809926E
:108A18000A9A0A93E368A2600B9A0B932369E260AF
:108A28000C9A0C93636922610D9A0D93039B08912C
:108A380062612376CFE70000F0B504462646174664
:108A480087B00D4668461946FDF71FFD0B4B694672
:108A580046F8043B03A8FDF718FD394603AA30463B
:108A6800FFF7F0FE03A8FDF7CFFC6846FDF7CCFC46
:108A78002046034B2562236007B0F0BD9CB93F0236
:108A880094BB3F02F0B50F4685B038461C491646E0
:108A98001D460A9CFDF7AEF9C0B9A4B1294601A844
:108AA800FFF7BEFC2420174903F0D3F8054630B180
:108AB80001AB32462146FFF7BFFF134B2B6001A8DD
:108AC800FDF7A2FC2C46204605B0F0BD38460F49FC
:108AD800FDF790F990B9002CF5D0294601A8FFF7C9
:108AE8009FFC2420074903F0B4F805460028E6D087
:108AF8003246214601ABFFF79FFFE0E70024E2E79B
:108B080018BB3F02ACBE3F02ACBB3F021CBB3F02DE
:108B1800014B024A1A607047289707102DBB3F0285
:108B28002DE9F047089DD0F8209004460E461746D8
:108B38009846FFF75FF881454DD02B79190704D582
:108B480020466A695449FFF7D0FAB8F1000F0DD0F2
:108B58005B212046FFF744FA41462046FFF731FAE9
:108B6800236802222046DB684C4998472B79DA07AC
:108B780024D5D5F808802F2140461DF0B3F808B158
:108B880000F1010841462046FFF71BFA2B799B07A5
:108B980008D53A212046FFF723FA2046EA684049DB
:108BA800FFF7A3FA2A79236812F0040F20464FF042
:108BB8000202DB6814BF3B493B4998472B795807A9
:108BC8001DD529690B461A4613F8010B60B12028F8
:108BD80008D11946F7E73548FEF799FC0028ACD0CC
:108BE800BDE8F0872828EED12368521A2046DB68B2
:108BF8009847236804222046DB682D4998470021BE
:108C08003846FEF72DFA01462046FFF7DAF92368C1
:108C180002222046DB68244998471EB13146204687
:108C2800FFF7CFF92B7913F0300F2CD023682149A7
:108C3800DB680222204698472B79D9060AD5236893
:108C4800072220461C49DB6898472046AA691B4929
:108C5800FFF74BFA2B799A0611D5DB0605D5236861
:108C680002222046DB680F499847236820461449AA
:108C78000A22DB6898472046E969FFF7A2F95D21D7
:108C88002046FFF7ADF923682046BDE8F0470222E9
:108C9800DB680C49184700BF31BB3F0238BB3F02B5
:108CA800DDB83F023BBB3F0240BB3F02D8960710EE
:108CB8003EBB3F0243BB3F0246BB3F024EBB3F02A7
:108CC80051BB3F025CBB3F022DE9F0410446076AF5
:108CD8000D461646FEF78EFF874207D0206A3246B9
:108CE80003682946BDE8F041DB6818470348FEF7EA
:108CF8000EFC0028F2D0BDE8F08100BFD89607101E
:108D08002DE9F04385B0D0F8209005460F469046EF
:108D18001E460C9CFEF76EFF814505D14948FEF7BB
:108D2800F6FB002840F08A804FF000092B6A464A7B
:108D380001A8019203938DF80890FEF742FE494678
:108D48004046FEF78DF980464049012201A8FEF70A
:108D5800C7FE4146FFF727F93FB13D49012201A867
:108D6800FEF7BEFE3946FFF71EF93EB1394901222A
:108D780001A8FEF7B5FE3146FFF715F92379DF079D
:108D88000ED5A6682F2130461CF0ACFF00B1461C5A
:108D98003149012201A8FEF7A3FE3146FFF703F986
:108DA80023799E0707D52D49022201A8FEF798FED0
:108DB800E168FEF713FE2379580714D52669334670
:108DC8001F4613F8012B2AB1202A01D11E46F7E7C6
:108DD800282AF5D10222224901A8FEF781FE314650
:108DE800BA1BFEF78DFE2379190707D51D49012205
:108DF80001A8FEF775FE6169FEF702FE2379DA061F
:108E080008D5042218490DEB0200FEF769FEA16996
:108E1800FEF7E4FD23799B0607D51449062201A82D
:108E2800FEF75EFEE169FFF7BEF801A8FEF7B3FDA5
:108E3800286A022203680E49DB68984705B0BDE836
:108E4800F08300BFD89607107CBB3F020EBB3F02E1
:108E580059F43F025EFF3F026DB93F025FBB3F021C
:108E680062BB3F0209F03F0265BB3F026ABB3F029B
:108E78005CBB3F02F8B506460D4600248F18BD427C
:108E88000CD0336830469B6815F8011B9847031EC1
:108E980001DB1C44F3E7002C08BF1C462046F8BD44
:108EA80013B50446084659B10191FCF7ADFF0246D7
:108EB800204623680199DB6802B0BDE810401847D6
:108EC80002B010BD08B5FFF7EBFF08BD03689B684B
:108ED80018470023012A98BF0A2230B58BB08DF8B5
:108EE800243009AC0D46B1FBF2F101FB125303F03B
:108EF800FF03092B94BF30333733DBB2AA4204F89F
:108F0800013DEFD92146FFF7CBFF0BB030BD7047CD
:108F18007047704770470000064B10B5994200F142
:108F28000C0405D0084614F0BFF8002808BF002438
:108F3800204610BD68BA3F02064B10B5994200F1B1
:108F48000C0405D0084614F0AFF8002808BF002428
:108F5800204610BD68BA3F02064B10B5994200F191
:108F68000C0405D0084614F09FF8002808BF002418
:108F7800204610BD68BA3F0210B504466821FCF7C8
:108F880088FF204610BD10B504462821FCF781FF54
:108F9800204610BD10B504463021FCF77AFF204664
:108FA80010BD6821FCF775BF2821FCF772BF30217E
:108FB800FCF76FBFF0B50025EC1C8C420DD86E1C79
:108FC800875D445D974205D12644B14205D31D60B3
:108FD800601CF0BD01342544EEE70020F9E70000ED
:108FE8000A20024A0249FEF711B800BFC5743D02C3
:108FF800ECBB3F0230B40D4611461A4603680968B7
:10900800D3E900432868A44630BC6047012A38B534
:10901800044602D10B68236003E0022A03D0032A26
:109028000DD0002038BD08200D68FCF72AFF034644
:109038000028F0D095E8030083E80300EBE7006818
:109048000028EED00821FCF724FFEAE710B5836872
:1090580004462BB10322014698470023C4E9023392
:1090680010BD10B5836804462BB10322014698470A
:109078000023C4E9023310BD0023202210B50446A2
:109088008AB0CDE90223084A01200092074902AAC2
:10909800FDF7CAFF002322462068054900880AB068
:1090A800BDE81040FDF754BE0EBC3F0203BC3F02B2
:1090B8000DB23D0210B5013802EB410110F8013F35
:1090C8001B0903F13004392C88BF03F1370402F877
:1090D800024B037803F00F0303F13004392C88BFE7
:1090E80003F13704914202F8014CE7D110BD10B5E5
:1090F80004465830FEF71AFE04F14800BDE8104057
:1091080002F034BB38B5036805468B420C4608D0DC
:1091180011B14B6801334B60286808B1FEF762FB58
:109128002C6038BDA0F13003DAB2092A01D81846FC
:109138007047A0F16103052B01D857387047A0F19B
:109148004103052B94BF37384FF0FF3070470000BC
:10915800002310B50370044B04461868FDF796FD0C
:1091680001232046237010BD5897071010B50378C7
:1091780004461BB1024B1868FDF796FD204610BD4A
:109188005897071082B06A4603460868496803C2C0
:109198006A4603CA18601846596002B0704708B595
:1091A80082798B799A4206D106221CF097FBB0FA95
:1091B80080F0400908BD0020FCE7000070B50446B7
:1091C800384B86B018689B880090ADF80430364B51
:1091D800A67918689B880290ADF80C307EB90622F3
:1091E800694620461CF07AFB38B10622204602A9BF
:1091F8001CF074FB003818BF012006B070BDA388AE
:109208002068ADF8143006F0FD03012B049024D13A
:109218009DF81550062205F03F05694604A88DF80B
:1092280015501CF05BFB00283AD065F03F0506227C
:1092380002A904A88DF815501CF050FB80B3607982
:10924800012E00F0C00004D1C02814BF0020012066
:10925800D3E7B0FA80F04009CFE7022E1ED10322EF
:109268009DF815500DEB020105F03F050DF11300B7
:109278008DF815501CF032FB90B165F03F050322C4
:109288000DF10B010DF113008DF815501CF026FBA4
:1092980030B1607900F0C0004028D6E70120ACE783
:1092A8000020AAE7A0B83F022ABC3F024FF0FF33D4
:1092B80003608380002070470021024608B50160E2
:1092C8004160FFF7F3FF1046917108BD0123024684
:1092D80010B50361044B03F1100153F8044B8B42A2
:1092E80042F8044BF9D110BDA6B83F020B7C30B54B
:1092F80013F0FD030DD1024603610C4B03F110047A
:1093080053F8045BA34242F8045BF9D10B888381CC
:1093180030BD01230361034601F1100251F8044BEB
:10932800914243F8044BF9D1F2E700BFA6B83F02D7
:1093380010B50B460446B1B1012A01F110020AD159
:10934800014653F8040B934241F8040BF9D1012369
:109358002361204610BD411E12F8010D9A4201F802
:10936800010FF9D1F3E710221CF0EFFAF1E738B555
:1093780004460D46FFF7AAFF002320462361A58176
:1093880038BD08B502690B699A4206D110221CF053
:10939800A5FAB0FA80F0400908BD0020FCE70000FB
:1093A80001232DE9F341024606460361334B0C467F
:1093B80003F1100153F8040B8B4242F8040BF9D166
:1093C80044B3242120461CF081FC04284FF00005FA
:1093D80023D1ADF8045001AFA51C063415F8020CD2
:1093E800FFF7A0FEB0F1000812DB15F8010CFFF73B
:1093F80099FE00280CDB023540EA0810A54207F860
:10940800010BEBD19DF8053033739DF8043073736D
:109418000023336102B0BDE8F0814FF01008242129
:1094280020461CF053FCA84207D84246002130468B
:1094380002B0BDE8F0411CF088BAB8F1000FE9D0DD
:10944800605DFFF76FFE030615D40001C7B208F18F
:10945800FF382421204606F808701CF037FC013537
:10946800A84208D9605DFFF75DFE40B20028A4BF9E
:10947800384306F808000135D1E700BFA6B83F0217
:1094880013B504460191FFF721FF20460199FFF724
:1094980087FF204602B010BD10B500F10F03013957
:1094A8001C78834201F8014F03F1FF33F8D110BD56
:1094B8002DE9F0411F460D468EB000295BD0DAB188
:1094C800D0F81080541EB8F1000F19D183890221F9
:1094D8005BBA05AA01A8ADF80430CDF81480FFF7EF
:1094E800E9FD042C28BF04242846224605A91CF0BF
:1094F80005FA621C05F8048010460EB0BDE8F0813C
:1095080001A9FFF7C9FF05AA7FB1102101A8FFF73C
:10951800D1FD242C28BF24242846224605A91CF066
:10952800EDF90023621C2B55E6E704212D260DEBEF
:109538000100FFF7BFFD02210DF11D0202A88DF801
:109548001C60FFF7B7FD02210DF122020DF10A00A0
:109558008DF82160FFF7AEFD02210DF1270203A867
:109568008DF82660FFF7A6FD06218DF82B600BAA63
:109578000DF10E00CBE70A46BEE710B504468AB0E7
:109588000023252208466946FFF792FF69462046D0
:1095980002F037F920460AB010BDF7B50546164661
:1095A8001F460A46D0E9000101ABFFF703FD30F082
:1095B80002040CD0841EBC4228BF3C463EB101992F
:1095C8002B6802312246304619441CF097F9204690
:1095D80003B0F0BD37B513460C4601920A46082180
:1095E8000546FFF7DAFF40B9224609212846019BC4
:1095F80003B0BDE83040FFF7D0BF03B030BD000076
:10960800F0B50C4689B00C49054602F0FAF81F225D
:1096180069462046FFF7DEFF064650B16C46002734
:10962800284614F8011B02F06BF910B10137BE424D
:10963800F6D1284609B0F0BD5EBB3F0207B502234C
:10964800192101AAFFF7A9FF08B1BDF8040003B06A
:109658005DF804FB38B54FF6FF73002504464380D8
:109668000E2229460570057106301CF06EF904F1CA
:109678001400FFF72BFE04F12800FFF727FE04492A
:1096880004F13C0002F0BDF82046656538BD00BF16
:109698005EBB3F0238B50D680446014605F1280057
:1096A800FFF76FFE40B1AB89A28A9A4205D8E08ADB
:1096B800984234BF0020012038BD0020FCE710B5D7
:1096C800D0E9063203EBC2029342184605D004687B
:1096D800083324888C42F7D110BD0020FCE7000035
:1096E800002370B5036005466820FCF7CAFB041E1A
:1096F80004F10C0607D00123C4E90133044B3046BA
:109708002360FFF7A7FF2846C5E9006470BD00BFC6
:10971800F4BD3F0270B5054606460C6814340FCCFC
:109728000FC5236830462B6070BD0000F0B50646B3
:109738001F460D4685B0002950D0002A4ED0046837
:10974800F42A237828BFF42243B32379980709D54C
:109758000023A0890392FDF7EDFA0028039A03DAA3
:1097680005B0F0BD6FF0770034682379D90609D5C4
:10977800012F07D000232946A08905B0BDE8F04095
:10978800FDF756BB9B06EBD5022FE9D000232946EF
:10979800A08905B0BDE8F040FDF758BB4FF6FF7152
:1097A800608888421CD021794E0701D5012F04D149
:1097B8000B0709D46FF07700D2E7A189009313460D
:1097C8002A46FDF7EFFACBE7022FF3D00023A18951
:1097D800009313462A46FDF7D7FAC1E70248BFE7C8
:1097E8006FF0D100BCE700BFF2FEFFFF10B50368C1
:1097F80086B01A7852BB4FF6FF705C88844225D039
:10980800188A30B3CDE903220592134A0092134A0D
:10981800CDE901235A88ADF80C201A8AADF80E203C
:109828009A89ADF8102059B11A79920644BF0222DC
:1098380005921B79DB0642BF059B43F001030593A4
:1098480000216846FDF7E6FA06B010BD6FF0D100BA
:10985800FAE76FF07700F7E703001800DD9F3D0295
:10986800F8B50026054606602820FCF70AFB041E0A
:1098780004F10C070AD00123C4E90133054B38462B
:109888002360FFF723FD266284F824602846C5E993
:109898000074F8BD10BE3F0270B50025064605608D
:1098A8003020FCF7EEFA044698B10123C0E90133F1
:1098B8000A4B0E3040F80E3C4FF6FF7320F8023C7E
:1098C800FFF7FAFCC4E90655C4E90855C4E90A5586
:1098D800A57574600C343046346070BD2CBE3F02F0
:1098E80013B5044601A8FFF733FC236801A81C88B8
:1098F8004FF6FF73E41A18BF0124FFF737FC204620
:1099080002B010BD37B50C46054601A8FFF720FC8C
:1099180023682A6801A8C2F802306368C2F80630D2
:10992800FFF724FC03B030BD37B50D46044601A847
:10993800FFF70EFC2A6801A8D2F802302360D2F89B
:1099480006306360FFF712FC204603B030BD30B527
:1099580005460C4687B001A8FFF7FAFB2A6823687A
:1099680012881B889A420DD1294602A8FFF7DCFF0E
:10997800214604A8FFF7D8FF04A902A8FFF70FFCA7
:10998800044600B9002401A8FFF7F0FB204607B001
:1099980030BD000070B506467420FCF772FA044624
:1099A800A0B10025C0E90055C0E90255C0E9045539
:1099B800C0E9065505622430FFF76EFF04F12C005C
:1099C800FFF76AFFE563E564E565E566346024B999
:1099D8000A200A4A0A49FDF719FB0020FDF772F927
:1099E80020B10A20054A0749FDF710FB002231681B
:1099F8000548FDF701FA304670BD00BFC5743D0249
:109A0800ECBB3F0231BC3F021DA93D0210B50A4C18
:109A1800D4E88F3FDB070CD42046FCF74DFA40B161
:109A28000648FFF7B7FF2046FCF74BFA04481BF03F
:109A38003CF9024810BD00BF549707105C97071007
:109A4800C9AB3D0230B503680446093B012B0D46FE
:109A58008DB011D8FFF7DAFFA1880068FFF72FFE55
:109A6800034658B92022CDE904200B4A322000923F
:109A78000A4904AAFDF7D8FA0DB030BD6A6D002A6C
:109A8800FAD0D4E9032105F14C00CDE90312AC6DFD
:109A980004AA03A9A047EFE773BC3F0203BC3F0237
:109AA80008B50020FDF70EF900EAE07008BD0000D7
:109AB80070B504460E4615461830FFF7C7FA04F18C
:109AC8002800FFF7CEFA00222146C4E903650348BF
:109AD800FDF706F90028A8BF606970BD69B93D02A5
:109AE80010B504464069FDF7EFFBA068FDF7ECFBF5
:109AF800204610BD002247F67F71C0E90022C0E968
:109B08000222C0E90422C0E90E22C0E91022C0E9FD
:109B18001222C0E91422C0E91622C0E91822C0E9BD
:109B28001B2202620263A0F8681070470368D869B4
:109B38000028D4BF00200120704710B504460068F3
:109B4800FDF7C2FB204610BD70B504462426C06D43
:109B5800FDF7BAFB206DFDF7B7FB04F1380504F1FA
:109B68004400FFF7EAFF2846FEF714FC04F128003A
:109B7800FEF7DCF804F11800FEF7D8F8D4E9005332
:109B880006FB0356AE4204D02846FFF7A9FF24354A
:109B9800F8E72068FDF798FB204670BD30B51546FC
:109BA8000C469FB079B172B101A8FFF7A3FF214617
:109BB8002A4601A8FFF77CFF044601A8FFF7C4FF67
:109BC80020461FB030BD014CFAE700BFF2FEFFFF90
:109BD80038B5141E0546436802DB62189A4200DD58
:109BE8005C1A2A68501801191A44521A1BF093FE7D
:109BF8006A68121B6A6038BD38B500230446836062
:109C080008200D46FCF73DF918B12B6803606B6816
:109C18004360034B2060E360024B2046A36038BDDD
:109C28008D953D02A5953D020B68036013B15A68F6
:109C380001325A60704710B5044651F8043B40F8A9
:109C4800043BFFF7F1FF23680BB9FFF7C9F920467A
:109C580010BD10B5044651F8043B40F8043BFFF72B
:109C6800E3FF204610BD10B5044651F8043B40F808
:109C7800043BFFF7D9FF204610BD10B50446043059
:109C8800FDF74EFF204610BD70B50446D0E90053DD
:109C980005EBC306AE4204D0281DFDF741FF083589
:109CA800F8E72068FDF710FB204670BD70B5044644
:109CB800D0E9005305EBC306AE4204D0281DFDF7DA
:109CC8002FFF0835F8E72068FDF7FEFA204670BD3B
:109CD80010B504462430FFF7E9FF04F11800FFF738
:109CE800D3FF10BD826810B50AB90DF006FCC36831
:109CF800BDE81040184700232DE9F047C0E90033BC
:109D08008360D1F80480054698450F464ADD4FEA3E
:109D18000810FDF7CBFA0646002843D0D5E90041E4
:109D2800A04204EB011A16D9504515D2AAF1100A1F
:109D3800A4F11009AAEB04040444D1451DD01CB1B8
:109D48005146204601F08EFD504601F00FFDAAF164
:109D5800100A103CF1E710D0B146A2450DD0B9F178
:109D6800000F03D02146484601F07CFD204601F053
:109D7800FDFC103409F11009EFE72868FDF7A4FA93
:109D8800C5F808802E60D7E9004304EB0318A04506
:109D980006D02146304601F07FFD10341036F6E734
:109DA8007B686B602846BDE8F08730B58DB00C46FF
:109DB80000F1380101A8FFF79EFF029B002B2FDD61
:109DC80004F1140104A8FFF71BFC04F1080108A81A
:109DD800FFF716FC0A9A069B13431FD0DDE90145DD
:109DE80004EB0515AC4219D0204604A901F0AAFDE0
:109DF80060B1012408A801F0B9FC04A801F0B6FC80
:109E080001A8FEF7C7FA20460DB030BD204608A9C4
:109E180001F098FD10340028E4D0EAE70024E9E7CF
:109E28000124EDE7F8B50023C0E9003383604F68EB
:109E380005469F420E4640DDF800FDF737FA044616
:109E4800D8B3D5E90003844200EBC30310D99C4280
:109E58000FD2083B1A1AA0F1080C22449C4518D0CE
:109E68001AB11968116059685160083B083AF5E75A
:109E78000FD0014622468B420BD03AB1D1F800C030
:109E8800C2F800C0D1F804C0C2F804C008310832D2
:109E9800F1E7FDF719FA2C60AF60D6E9003103EB62
:109EA800C100984208D01A68083444F8082C5A6847
:109EB800083344F8042CF4E769602846F8BD70B507
:109EC80004460020C4E90000A0604E680D468642A2
:109ED80012DD7100FDF706FA70B12060A660D5E9C1
:109EE800003203EB42029A4204D033F8021B20F8F6
:109EF800021BF8E76B686360204670BD10B50379F4
:109F0800044623B90368186808B1FDF7DDF920464F
:109F180010BD10B50379044623B90368186808B161
:109F2800FDF7D2F9204610BD2DE9F043D0F86C803A
:109F38000F468FB0B8F1000F72D0056F002D6FD0AB
:109F480001F114091F230022FF214846FFF725FBD2
:109F5800FF2308370446002219463846FFF71DFB41
:109F6800AC42064606D0AE4230D0002420460FB0A0
:109F7800BDE8F0832046FDF799F903AB049300236D
:109F8800044603908DF8143070B92023CDE90630CB
:109F9800244B2549009306AA03463220FDF744F8CE
:109FA80004A8FFF7ABFFE1E70246FF212B4648462E
:109FB800FFF7F3FA2A46414603981BF08FFC18B1C5
:109FC80004A8FFF79BFFCEE70124E9E72846FDF741
:109FD8006DF9002403AB0646039004938DF81440F2
:109FE80078B92023CDE906300E4B0F49009306AA15
:109FF80003463220FDF718F8344604A8FFF789FF16
:10A00800B4E70246FF212B463846FFF7C6FA2A4630
:10A01800414603981BF062FC0028EED10124ECE7CE
:10A028000124A3E78BBC3F0203BC3F0238B50D1ED9
:10A038000446006803DDFDF755F918B938BDFDF78A
:10A0480043F900202060A5600120F7E708B5836880
:10A058008B4202DAFFF7EAFF08BD0120FCE738B5BA
:10A068000023C0E9003383600D46496804469942DD
:10A0780010DDFFF7DBFF68B1D5E90031226819442C
:10A08800994205D00AB11878107001330132F7E708
:10A098006B686360204638BD38B504460D460B68CA
:10A0A800083040F8083C4B68083140F8043CFFF79A
:10A0B800D6FF05F1140104F11400FFF7D0FF95F85D
:10A0C8002030204684F8203038BD1FB5044601A84A
:10A0D800FFF7C5FF019B029A2068236063686260EE
:10A0E800039A0293A368A26001900393FDF7ECF82A
:10A0F80004B010BD2DE9F0410F4641681D461944D2
:10A10800836804469942904612DC266862683E4499
:10A118003146D21B70191BF0FEFB2A4641463046D9
:10A128001BF0ECFB012063682B446360BDE8F08101
:10A13800FFF77CFF0028E8D1F8E713460A4600211C
:10A1480010B50446416002B10BB9002010BDFF2BC9
:10A1580028BFFF23FFF7CEFF0028F7D06068F5E798
:10A16800F8B50D46D0E901139942044616460BDAB4
:10A17800276862687919521B481C1BF0CCFB7E5576
:10A18800636801336360F8BD0131FFF74FFF0028B2
:10A19800EED1F8E70A464168FFF7E2BF2DE9F74339
:10A1A80004461D460F4601AB90460A46D0E9000119
:10A1B8009DF82890FEF7FEFEAE1C02466368B9F1D2
:10A1C800000F26D128B333441B1AFF2B09D8204689
:10A1D8000199FFF7FDFC616820463144FFF736FF1F
:10A1E80018B9606803B0BDE8F0836A1C204601997D
:10A1F800D2B2FFF7B5FF01993A4601312046FFF781
:10A20800AFFF2B464246019902312046FFF772FF05
:10A21800E7E7F118FF29E4D82046FFF717FF0028E1
:10A22800DFD0691C2046C9B2FFF7B4FF3946204683
:10A23800FFF7B0FF2B4642466168E6E730B49DF869
:10A2480008501AB1029530BCFFF7A8BF406830BC6F
:10A2580070471FB500230622C0E9003383600093CE
:10A26800012304468DF80F2019460DF10F02FFF760
:10A27800E5FF204604B010BD8842F8B504460D46F7
:10A28800164614D9904213D2A2F10806751AA1F104
:10A2980008072C44B74218D01CB131462046FFF7B6
:10A2A800E2FC301DFDF73CFC083E083CF2E70CD010
:10A2B800B5420AD01CB129462046FFF7D4FC281D18
:10A2C800FDF72EFC08350834F2E7F8BDF7B504466B
:10A2D80046686846FFF7C7FCD4E901739F4212DB62
:10A2E8000137002F29DDF800FCF7E0FF0546F0B143
:10A2F800D4E9001201EBC202FFF7BEFF2068FCF7A9
:10A30800E3FF2560A7602368626803EBC606314651
:10A3180003EBC20206F10800FFF7AEFF1EB1694663
:10A328003046FFF7A0FC012563680133636001A88C
:10A33800FDF7F6FB284603B0F0BD0025DEE7F8B5CB
:10A348000546D0E900430F4604EBC306A64205D0F4
:10A3580039462046FFF7FBFA08B114B9F8BD0834AE
:10A36800F4E7201DFDF7DCFBD5E90032204603EBBE
:10A37800C20204F10801FFF77FFF6B68013B6B60C5
:10A38800ECE700002DE9F04305468FB003A80C4622
:10A39800FEF7DEFE2E68F31E0D2B6AD8DFE813F0F9
:10A3A8000E0078006900FC00690069006900690016
:10A3B8006900C600C600C600C600C600606A04F18F
:10A3C80018060230FEF7FAFE38B32146AA8951F87A
:10A3D800243F06A81A80FFF746FC06A93046FFF777
:10A3E80075FF07A8FDF79CFB06A8FFF755FA069B23
:10A3F80004F1280007996362FEF784FE07A8FDF7B9
:10A408008FFB20210023CDE906136D4A009201201D
:10A418006C4906AAFCF708FE2BE004A8FFF73CFAF3
:10A42800AA89049B1A806968049808310230FEF7EB
:10A43800A9FE04A906A8FFF716FC304606A9FFF7EF
:10A4480045FF054607A8FDF76BFBC5B92023CDE9F5
:10A4580006355D4B01205B49009306AA2B46FCF7A5
:10A46800E3FD049B29461888FCF756FC05A8FDF770
:10A4780057FB03A8FEF77AFE0FB0BDE8F083E36B45
:10A4880023B104A904F13400FFF72CFC05A8B6E7B2
:10A498002046A989FFF713F906460028E9D00146A6
:10A4A80004F12C00FFF753FA04F1180848B13146BB
:10A4B8004046FFF744FF20220023CDE90623434A04
:10A4C800A4E74FF6FF713568D5E90632298003EB1A
:10A4D800C2029A4203D053F8080B4180F9E7D5E944
:10A4E800037307EBC309B94504D0381DFDF718FB02
:10A4F8000837F8E700232B61D5E9067307EBC30992
:10A50800B94504D0381DFDF70BFB0837F8E70023E1
:10A51800EB61AB72E36C23B1314604F14400FFF701
:10A52800E1FB4FF6FF7233681A80C0E72046A9891D
:10A53800FFF7C5F800289CD0E36D002B99D00023C5
:10A548000D2EADF8163001D0102E17D100236968F2
:10A558001A4606258DF81530049109AB8DF814209C
:10A5680006908DF81C60DDE90401089583E8030076
:10A57800236E06A904F1540098477AE70F2E01BF0D
:10A588002B7A696803F0010208251DBF1A4619468F
:10A598001D46C3F34003DDE7A9892046FFF78FF87E
:10A5A800014600283FF465AFE36E002B3FF461AF2E
:10A5B8006B6806AA069304F16400236F984758E76E
:10A5C800CCBC3F0203BC3F02A6BC3F02D6BC3F0244
:10A5D80070B504466430FDF7A9FB04F15400FDF79B
:10A5E800A5FB04F14400FDF7A1FB04F13400FDF7DD
:10A5F8009DFB04F13000FDF793FA04F12800FDF704
:10A608008FFAD4E9065305EBC306AE4204D0281DE1
:10A61800FDF786FA0835F8E7A069FCF755FE04F15E
:10A628000C00FFF743FB2046FFF72EFB204670BDCA
:10A6380010B5064B1C6844B12046FFF7C9FF2046F9
:10A64800BDE810407421FBF724BC10BD5C970710CF
:10A6580038B50D1E0446006805DD14216943FCF772
:10A6680041FE18B938BDFCF72FFE00202060A56018
:10A678000120F7E72DE9F8430024C0E9004484608D
:10A68800884649680746A1421CDDFFF7E1FFC8B1CB
:10A69800D8E900934FF0140C0CFB039CD7F800E0AA
:10A6A80009EB0405AC450AD01EEB04061EBF0FCD0E
:10A6B8000FC62B6804F1140418BF3360F0E7D8F80C
:10A6C80004307B603846BDE8F8832DE9F8434568D7
:10A6D8008368D1E90087E9199942044617DC1423F5
:10A6E80062685D4303FB07F95A432668521B2E44F0
:10A6F800314606EB09001BF00EF94A464146304642
:10A708001BF0FCF863683B446360BDE8F883FFF71F
:10A718009FFF0028E3D1F8E782B070B50C4604A982
:10A7280081E80C00D0E901139942054617DA142391
:10A738006A6803FB04F15A432C68521A0C442146F8
:10A74800E01804AE1BF0E7F80FCE0FC4336823609F
:10A758006B6801336B60BDE8704002B0704701312F
:10A76800FFF776FF0028E2D1F5E72DE9F04F002446
:10A7780005460F469046931EC0E9004493B0DBB2ED
:10A788008460059379688C4272DA3868424607AB70
:10A79800091B2044FEF70EFC0646002868D0059BDE
:10A7A800012B2FD84FF00009A0F1020B4FEA5B0BE9
:10A7B8000DF13C0A079BCB45234455D03A6803EB7F
:10A7C80049031344D9789B7808A843EA0121FEF786
:10A7D800CEFD0DF1340C0DF1200EBEE80F00ACE8F3
:10A7E8000F00DEF8003009F10109CCF800309AE8D2
:10A7F80007008DE807000DAB28460CCB6968FFF70A
:10A808008BFFD7E7A8F10603012B2DD84FF00009DD
:10A81800A0F1020B4FEA1B1B0DF13C0ACB45079B2D
:10A8280022D002333968234403EB09130122194467
:10A8380008A8FEF77DFD0DF1340C0DF1200EBEE8E1
:10A848000F00ACE80F00DEF8003009F10109CCF880
:10A8580000309AE807008DE80700DDE90D23284657
:10A868006968FFF759FFD9E7079B1C44344489E717
:10A87800284613B0BDE8F08F002330B504460D46D6
:10A8880085B0C0E900338360022201A8FFF76DFF9D
:10A8980001A92046FFF719FF01A8FFF74EF9022288
:10A8A800294601A8FFF761FF01A92046FFF70DFF20
:10A8B80001A8FFF742F90322294601A8FFF755FF2F
:10A8C80001A92046FFF701FF01A8FFF736F9062284
:10A8D800294601A8FFF749FF01A92046FFF7F5FE21
:10A8E80001A8FFF72AF90722294601A8FFF73DFF2B
:10A8F800204601A9FFF7E9FE01A8FFF71EF9204647
:10A9080005B030BD2DE9F04385B08846014601A861
:10A918009146FFF7B1FF4FF0140E0027019E029BEE
:10A928000EFB036CB4450DD0B94506F1140609D0E9
:10A938000EFB0784A6F114050FCD0FC42B68013751
:10A948002360EFE701A8FFF7F8F8384605B0BDE83F
:10A95800F0832DE9F04F8BB00C4600F1440101A8BB
:10A96800FFF788FE029B002B4ADD04F1140104A8BE
:10A97800FFF782FF04F1080107A8FFF77DFF059D97
:10A98800089E002D01DC002E38DD1423019A029F59
:10A998009246DDF81080DDF81C9003FB072703FBC7
:10A9A800058503FB0696BA4528D0C346AB4515D0A6
:10A9B80059465046FEF7E5FC0BF1140B04460028F7
:10A9C800F4D007A8FFF7B9F804A8FFF7B6F801A86C
:10A9D800FFF7B3F820460BB0BDE8F08FCB46B34580
:10A9E80009D059465046FEF7CCFC0BF1140B04462F
:10A9F8000028F4D0E5E70AF1140AD4E70024E0E7D8
:10AA08000124E4E738B505460C46FDF798F9AB682C
:10AA1800A268AA60A360EB68E268EA60E36038BDF8
:10AA2800002330B585B002938B6805460C4633B1D8
:10AA3800022268469847E3680393A368029329466D
:10AA48006846FFF7DFFF6846FDF770F905B030BDCF
:10AA580038B50D46016804464B6D23B128684C3162
:10AA68004C30FFF7DDFF20462B6840F8043B69684F
:10AA7800FEF748FB204638BD2DE9F043044687B071
:10AA880068460E461746FEF763FB2368D3E906437C
:10AA980004EBC3084445A14616D0214601A8FEF799
:10AAA80039FE394601A8FEF76CFC08340546002833
:10AAB800F0D049463046FFF7CBFF6846FEF756FB15
:10AAC800284607B0BDE8F0830025F6E710B504680E
