:02000002B0004C
:1040000000400B0072950B00000006000C0005023A
:0840100004015014000000003F
:04401800D08C0B003D
:1040200081F0004102E000BF83F0004330B54FEA69
:1040300041044FEA430594EA050F08BF90EA020FD6
:104040001FBF54EA000C55EA020C7FEA645C7FEA69
:10405000655C00F0E2804FEA5454D4EB5555B8BF8C
:104060006D420CDD2C4480EA020281EA030382EAFD
:10407000000083EA010180EA020281EA0303362D8F
:1040800088BF30BD11F0004F4FEA01314FF4801C62
:104090004CEA113102D0404261EB410113F0004F74
:1040A0004FEA03334CEA133302D0524263EB43032B
:1040B00094EA050F00F0A780A4F10104D5F1200EC9
:1040C0000DDB02FA0EFC22FA05F2801841F1000124
:1040D00003FA0EF2801843FA05F359410EE0A5F1F8
:1040E00020050EF1200E012A03FA0EFC28BF4CF029
:1040F000020C43FA05F3C01851EBE37101F00045DF
:1041000007D54FF0000EDCF1000C7EEB00006EEBEB
:104110000101B1F5801F1BD3B1F5001F0CD3490875
:104120005FEA30004FEA3C0C04F101044FEA4452CC
:1041300012F5800F80F09A80BCF1004F08BF5FEA53
:10414000500C50F1000041EB045141EA050130BD33
:104150005FEA4C0C404141EB0101013C28BFB1F545
:10416000801FE9D291F0000F04BF01460020B1FA90
:1041700081F308BF2033A3F10B03B3F120020CDA63
:104180000C3208DD02F1140CC2F10C0201FA0CF041
:1041900021FA02F10CE002F11402D8BFC2F1200CA6
:1041A00001FA02F120FA0CFCDCBF41EA0C0190405C
:1041B000E41AA2BF01EB0451294330BD6FEA0404A5
:1041C0001F3C1CDA0C340EDC04F11404C4F1200290
:1041D00020FA04F001FA02F340EA030021FA04F3A2
:1041E00045EA030130BDC4F10C04C4F1200220FAF9
:1041F00002F001FA04F340EA0300294630BD21FA37
:1042000004F0294630BD94F0000F83F4801306BFFC
:1042100081F480110134013D4EE77FEA645C18BFF0
:104220007FEA655C29D094EA050F08BF90EA020F87
:1042300005D054EA000C04BF1946104630BD91EA7F
:10424000030F1EBF0021002030BD5FEA545C05D182
:104250004000494128BF41F0004130BD14F58004C1
:104260003CBF01F5801130BD01F0004545F0FE4135
:1042700041F470014FF0000030BD7FEA645C1ABF6A
:10428000194610467FEA655C1CBF0B46024650EAA1
:10429000013406BF52EA033591EA030F41F40021CD
:1042A00030BD00BF90F0000F04BF0021704730B553
:1042B0004FF4806404F132044FF000054FF0000128
:1042C00050E700BF90F0000F04BF0021704730B5E9
:1042D0004FF4806404F1320410F0004548BF4042BE
:1042E0004FF000013EE700BF42004FEAE2014FEA13
:1042F00031014FEA02701FBF12F07F4393F07F4FEE
:1043000081F06051704732F07F4208BF704793F0F0
:104310007F4F04BF41F40021704730B54FF4607403
:1043200001F0004521F000411CE700BF50EA010206
:1043300008BF704730B54FF000050AE050EA0102AF
:1043400008BF704730B511F0004502D5404261EB1F
:1043500041014FF4806404F132045FEA915C3FF460
:10436000D8AE4FF003025FEADC0C18BF03325FEAFD
:10437000DC0C18BF033202EBDC02C2F1200300FAAE
:1043800003FC20FA02F001FA03FE40EA0E0021FAD3
:1043900002F11444BDE600BF70B54FF0FF0C4CF4C1
:1043A000E06C1CEA11541DBF1CEA135594EA0C0F73
:1043B00095EA0C0F00F0DEF82C4481EA030621EAAE
:1043C0004C5123EA4C5350EA013518BF52EA0335E9
:1043D00041F4801143F4801338D0A0FB02CE4FF09B
:1043E0000005E1FB02E506F00042E0FB03E54FF0CB
:1043F0000006E1FB03569CF0000F18BF4EF0010EC3
:10440000A4F1FF04B6F5007F64F5407404D25FEABE
:104410004E0E6D4146EB060642EAC62141EA555171
:104420004FEAC52040EA5E504FEACE2EB4F1FD0CB3
:1044300088BFBCF5E06F1ED8BEF1004F08BF5FEA31
:10444000500E50F1000041EB045170BD06F00046E3
:1044500046EA010140EA020081EA0301B4EB5C0490
:10446000C2BFD4EB0C0541EA045170BD41F4801188
:104470004FF0000E013C00F3AB8014F1360FDEBFAD
:10448000002001F0004170BDC4F10004203C35DA89
:104490000C341BDC04F11404C4F1200500FA05F30C
:1044A00020FA04F001FA05F240EA020001F00042AD
:1044B00021F0004110EBD37021FA04F642EB060123
:1044C0005EEA430E08BF20EAD37070BDC4F10C044D
:1044D000C4F1200500FA04F320FA05F001FA04F211
:1044E00040EA020001F0004110EBD37041F10001FD
:1044F0005EEA430E08BF20EAD37070BDC4F1200508
:1045000000FA05F24EEA020E20FA04F301FA05F26F
:1045100043EA020321FA04F001F0004121FA04F217
:1045200020EA020000EBD3705EEA430E08BF20EAE7
:10453000D37070BD94F0000F0FD101F00046400021
:1045400041EB010111F4801F08BF013CF7D041EAA3
:10455000060195F0000F18BF704703F000465200A7
:1045600043EB030313F4801F08BF013DF7D043EA78
:104570000603704794EA0C0F0CEA135518BF95EA2E
:104580000C0F0CD050EA410618BF52EA4306D1D1B5
:1045900081EA030101F000414FF0000070BD50EAD4
:1045A000410606BF1046194652EA430619D094EA5E
:1045B0000C0F02D150EA013613D195EA0C0F05D148
:1045C00052EA03361CBF104619460AD181EA03019C
:1045D00001F0004141F0FE4141F470014FF0000054
:1045E00070BD41F0FE4141F4780170BD70B54FF0EF
:1045F000FF0C4CF4E06C1CEA11541DBF1CEA13556F
:1046000094EA0C0F95EA0C0F00F0A7F8A4EB050450
:1046100081EA030E52EA03354FEA013100F0888047
:104620004FEA03334FF0805545EA131343EA126310
:104630004FEA022245EA111545EA10654FEA0026C5
:104640000EF000419D4208BF964244F1FD0404F57E
:10465000407402D25B084FEA3202B61A65EB0305DA
:104660005B084FEA32024FF480104FF4002CB6EB97
:10467000020E75EB030E22BFB61A754640EA0C0017
:104680005B084FEA3202B6EB020E75EB030E22BF57
:10469000B61A754640EA5C005B084FEA3202B6EB98
:1046A000020E75EB030E22BFB61A754640EA9C0057
:1046B0005B084FEA3202B6EB020E75EB030E22BF27
:1046C000B61A754640EADC0055EA060E18D04FEAE5
:1046D000051545EA16754FEA06164FEAC30343EA85
:1046E00052734FEAC2025FEA1C1CC0D111F4801F52
:1046F0000BD141EA00014FF000004FF0004CB6E74B
:1047000011F4801F04BF01430020B4F1FD0C88BFE9
:10471000BCF5E06F3FF6AFAEB5EB030C04BFB6EBF4
:10472000020C5FEA500C50F1000041EB045170BDE7
:104730000EF0004E4EEA113114EB5C04C2BFD4EB14
:104740000C0541EA045170BD41F480114FF0000E98
:10475000013C90E645EA060E8DE60CEA135594EA14
:104760000C0F08BF95EA0C0F3FF43BAF94EA0C0F17
:104770000AD150EA01347FF434AF95EA0C0F7FF48C
:1047800025AF104619462CE795EA0C0F06D152EAE0
:1047900003353FF4FDAE1046194622E750EA4106C4
:1047A00018BF52EA43067FF4C5AE50EA41047FF4D5
:1047B0000DAF52EA43057FF4EBAE12E74FEA410238
:1047C000B2F1E04324BFB3F5001CDCF1FE5C0DD96F
:1047D00001F0004C4FEAC0024CEA5070B2F1004FB9
:1047E00040EB830008BF20F00100704711F0804FBC
:1047F00021D113F13872BCBF01F00040704741F481
:1048000080114FEA5252C2F11802C2F1200C10FA84
:104810000CF320FA02F018BF40F001004FEAC12368
:104820004FEAD32303FA0CFC40EA0C0023FA02F30C
:104830004FEA4303CCE77FEA625307D150EA0133E2
:104840001EBF4FF0FE4040F44000704701F00040B2
:1048500040F0FE4040F40000704700BF10F8012B0C
:1048600011F8013B012A28BF9A42F7D0D01A7047AD
:10487000034613F8012B002AFBD1181A01387047A0
:1048800009480A49884208B505D0094A824202D03F
:10489000121A04F06DF80748074A0021121A04F0B2
:1048A0008FF8014808BD00BF44E50320AC940B001D
:1048B000DCE50320DCE50320F0E7032070B5074EBC
:1048C000074C01F0BDFAA41BA4080025AC4200D19E
:1048D00070BD56F8043B98470135F7E764940B0028
:1048E00088940B0000F070B808B500F08FF9BDE8AF
:1048F000084001F05DBA00F08FBD00F08DBD00F002
:1049000093BD000008B5034A03490C2000F0D0FC19
:10491000FEE700BF11520B00E48C0B000078B0FAE8
:1049200080F0400970470123037070477047000012
:104930000A4B10B50446036001F04AFC214601F021
:1049400094FE01F059F901F049F92046044B40F872
:10495000043B01F025FD204610BD00BFC48D0B00B7
:10496000AC8D0B0010B50446FFF7E2FF2046242172
:10497000FFF7C5FF204610BD0EB400B58CB00DAAE0
:104980004FF0200C52F8041B0392CDE900120023D3
:10499000016804AA1E20CDE904C300F099FC0CB004
:1049A0005DF804EB03B0704708B5044B044982B2CC
:1049B0001A800448FFF7E0FF08BD00BF2CE6032083
:1049C000F98C0B00C8E6032070B590B001F014F923
:1049D0004FF4165101F0FEF8002000F029FC47F2D8
:1049E00030550446002000F023FC001B61F100015B
:1049F000A84271F1000307D201F0FEF801F0F1F8CE
:104A000010B900F07DFCEDE701F0F6F801F0E9F8EF
:104A10003D4B3E4C1888012103F038FE3C4B0121F0
:104A2000188803F033FE3B4B0121188803F02EFE5B
:104A3000394B0121188803F029FE384B01211888D1
:104A400003F024FE01F0D8F8354902F03EFA354B68
:104A50000021188803F01AFE334B0021188803F058
:104A600015FE324B0021188803F010FE304B002158
:104A7000188803F00BFE01F0BFF82E4902F025FA6A
:104A800002F09EFD02F0E6FD02F09AFD2A4A014680
:104A90000BA803F0C5FA0BA802F081FE274A2849AB
:104AA000104603F047F903A802F09FFF0FCC06ADB4
:104AB0000FC506AD0FCD26680BAC0FC40BA8266042
:104AC00002F078FB04460BA8B4B902F08FFB009407
:104AD000ADF80A0002230DF10A02032103A802F037
:104AE00079FF02F06DFD002203A902F004FE039895
:104AF00000F09AFC10B070BD02F07AFB0023009326
:104B0000024610230721E9E750E5032004E60320CD
:104B10004CE5032058E5032054E5032060E503201D
:104B2000048D0B0064E50320E0E5032044E5032049
:104B30005CE50320148D0B0070E6032060E6032083
:104B4000A9490B0038B50B4B188803F0B0FD04469B
:104B500000F066FB08490B68C31A632B074B07D9A3
:104B60001A78A4B2A2421EBF82F001021A70086035
:104B7000187838BD44E5032030E6032048E50320DB
:104B800008B5044B188803F092FDB0FA80F0400994
:104B900008BD00BFE0E503202DE9F04118A7D7E9E3
:104BA0000067DFF86480144C6425B8F8000003F057
:104BB00091FD07EE900AF8EEE77A17EE900AFFF7FC
:104BC00093FB32463B46FFF7E7FBFFF7F7FDD4EDDB
:104BD000007A9FED0A0A07EE100AE7EE007A013D1F
:104BE000C4ED007AE1D1002387EE800A2360BDE89E
:104BF000F08100BFAFF30080ECE503200000C84265
:104C0000B4D934E70C684A3F64E5032037B502F0B5
:104C1000D7FC02F02FFDC8B1FFF7BEFF0C4D0D4CC5
:104C200085ED000AFFF7ACFF2080FFF78BFF0A4BF2
:104C3000ADF8060018802B6800932388ADF8043087
:104C4000064800230822694602F0AAFB03B030BDE3
:104C5000E8E50320E4E50320DCE5032070E603201B
:104C600070B5D0E900531426044606FB0356AE4245
:104C700004D0284603F09AFB1435F8E7206800F0CA
:104C8000D3FB204670BD8842F8B504460D46164653
:104C900016D9904215D2A2F11406751AA1F1140783
:104CA0002C44B7421CD02CB13146204603F0FAFB0D
:104CB000337C2374304603F079FB143E143CF0E758
:104CC0000ED0B5420CD02CB12946204603F0EAFBA9
:104CD0002B7C2374284603F069FB14351434F0E769
:104CE000F8BD2DE9F0410023C0E9003383604F682F
:104CF0009F4204460E4623DD4FF0140808FB07F0E0
:104D000000F08AFB0546D8B1D4E9001208FB021274
:104D1000FFF7B9FF206800F087FB2560A760D6E9A0
:104D2000007308FB0378B84508D03946284603F0DD
:104D3000D3FB3B7C2B7414371435F4E77368636042
:104D40002046BDE8F08100002DE9F04F99B0002524
:104D5000CDE90455069500F04FFF584CDFF89081DF
:104D6000DFF890A1064604A909A8FFF7BAFF274675
:104D700009A90EA8FFF7B5FF514B47F8043B0EA950
:104D800013A8FFF7AEFF13AA1E21384601F050FD0D
:104D900013A8FFF765FF0EA8FFF762FF494B2360DA
:104DA000266209A8FFF75CFF474B236000F024FF51
:104DB0004FF4165100F00EFF01F00AFA2146434C61
:104DC000434E01F00BFC04A8FFF74AFF414920467F
:104DD00002F08EFA4049404602F08AFA3F493046D6
:104DE00002F086FAC446BCE80F0010270DEB070E50
:104DF000A046AEE80F00B8E80F00DCF80090CEF84F
:104E000000900DF1240CACE80F000DEB070BBBE894
:104E10000F00D8F800E0CCF800E00DF1380CACE859
:104E20000F00CCF800900DF12409CAE90055B9E84B
:104E30000F000DF14C0CACE80F0013ABCCF800E008
:104E40003A46009350460EABCDE90155244902F095
:104E5000BDFF0FCE0DEB070CACE80F000FCCD6F862
:104E600000E0CCF800E009AE0FC60DEB07040FCC54
:104E7000D8F80080C6F800800EAE0FC6DFF878C004
:104E8000C6F800E009ACCCE900550FCC13AE0FC654
:104E900013ABC6F800806046124900933A460EAB49
:104EA000CDE9015502F092FF0F4802F05FFA0F487A
:104EB00019B0BDE8F04F02F0F7BA00BF34E60320A6
:104EC000AC8D0B00788F0B00C48D0B0004E6032023
:104ED000F0E50320238D0B00488D0B006D8D0B003A
:104EE000928D0B00978D0B0060E6032058E603209F
:104EF00018E6032070E6032068E6032008B5024B9D
:104F00001B681B68019308BD4C02030008B5024BE7
:104F10001B685B68019308BD4C02030008B5024B97
:104F20001B689B68019308BD4C02030008B5024B47
:104F30001B681B69019308BD4C02030008B5024BB6
:104F40001B685B69019308BD4C02030008B5024B66
:104F50001B689B69019308BD4C02030008B5024B16
:104F60001B68DB69019308BD4C02030008B5024BC6
:104F70001B681B6A019308BD4C02030008B5024B75
:104F80001B689B6A019308BD4C02030008B5024BE5
:104F90001B68DB69019308BD3002030008B5024BB2
:104FA0001B681B6A019308BD3002030008B5024B61
:104FB0001B681B6A019308BD2802030008B5024B59
:104FC0001B685B6A019308BD2802030008B5024B09
:104FD0001B689B6A019308BD2802030008B5024BB9
:104FE0001B68DB6A019308BD2802030008B5024B69
:104FF0001B681B6B019308BD2802030008B5024B18
:105000001B685B6B019308BD2802030008B5024BC7
:105010001B681B6C019308BD2802030008B5024BF6
:105020001B689B68019308BD3C02030008B5024B56
:105030001B68DB68019308BD3C02030008B5024B06
:105040001B681B69019308BD3C02030008B5024BB5
:105050001B685B69019308BD3C02030008B5024B65
:105060001B689B69019308BD3C02030008B5024B15
:105070001B68DB69019308BD3C02030008B5024BC5
:105080001B681B6A019308BD3C02030008B5024B74
:105090001B689B6A019308BD3C02030008B5024BE4
:1050A0001B68DB6A019308BD3C02030008B5024B94
:1050B0001B681B6C019308BD3C02030008B5024B42
:1050C0001B685B69019308BD6402030008B5024BCD
:1050D0001B685B6C019308BD4802030008B5024BD6
:1050E0001B689B6C019308BD4802030008B5024B86
:1050F0001B68DB6C019308BD4802030008B5024B36
:105100001B685B6D019308BD4802030008B5024BA4
:105110001B689B68019308BD7802030008B5024B29
:105120001B681B6D019308BD7802030008B5024B94
:105130001B689B6D019308BD7802030008B5024B04
:105140001B681B6E019308BD7802030008B5034B72
:105150001B68D3F89830019308BD00007802030063
:1051600008B5034B1B68D3F8A830019308BD0000B5
:105170007802030008B5034B1B68D3F8B4300193E1
:1051800008BD00007802030008B5034B1B68D3F884
:10519000D830019308BD00007802030008B5034B26
:1051A0001B68D3F8DC30019308BD000078020300CF
:1051B00008B5034B1B68D3F8EC30019308BD000021
:1051C0007802030008B5034B1B68D3F8F030019355
:1051D00008BD00007802030008B5034B1B68D3F834
:1051E0000031019308BD00007802030008B5034BAD
:1051F0001B68D3F80431019308BD00007802030056
:1052000008B5024B1B685B68019308BD18020300D8
:1052100008B5024B1B68DB68019308BD1802030048
:1052200008B5024B1B685B69019308BD18020300B7
:1052300008B5024B1B68DB6D019308BD1802030023
:1052400008B5024B1B685B68019308BD2C02030084
:1052500008B5024B1B689B68019308BD2C02030034
:1052600008B5024B1B68DB68019308BD2C020300E4
:1052700008B5024B1B685B69019308BD2C02030053
:1052800008B5024B1B681B6B019308BD2C02030081
:1052900008B5024B1B689B68019308BD68020300B8
:1052A00008B5024B1B68DB68019308BD6802030068
:1052B00008B5024B1B685B6B019308BD60020300DD
:1052C00008B5024B1B681B6D019308BD600203000B
:1052D00008B5024B1B685B6D019308BD60020300BB
:1052E00008B5024B1B68DB6E019308BD600203002A
:1052F00008B5024B1B681B6F019308BD60020300D9
:1053000008B5024B1B689B68019308BD440203006B
:1053100008B5024B1B68DB6B019308BD4402030018
:1053200008B5024B1B685B68019308BD400203008F
:1053300008B5024B1B689B68019308BD400203003F
:1053400008B5024B1B68DB68019308BD40020300EF
:1053500008B5024B1B681B69019308BD400203009E
:1053600008B5024B1B685B69019308BD400203004E
:1053700008B5024B1B689B69019308BD40020300FE
:1053800008B5024B1B68DB69019308BD40020300AE
:1053900008B5024B1B681B6A019308BD400203005D
:1053A00008B5024B1B681B6B019308BD400203004C
:1053B00008B5024B1B685B6B019308BD40020300FC
:1053C00008B5024B1B681B6C019308BD400203002B
:1053D00008B5024B1B685B6C019308BD40020300DB
:1053E00008B5024B1B685B68019308BD20020300EF
:1053F00008B5034B1B68D3F88830019308BD000043
:105400002002030008B5034B1B68D3F894300193C6
:1054100008BD00002002030008B5024B1B681B6892
:10542000019308BD1C02030008B5024B1B685B68B2
:10543000019308BD1C02030008B5024B1B689B6862
:10544000019308BD1C02030008B5024B1B685B6A90
:10545000019308BD1C02030008B5024B1B68DB6A00
:10546000019308BD1C02030008B5024B1B68DB6BEF
:10547000019308BD1C02030008B5024B1B681B6C9E
:10548000019308BD1C02030008B5024B1B685B6C4E
:10549000019308BD1C020300002340681A46FFF771
:1054A0003FBF406800220221FFF74ABF0022406848
:1054B0001146FFF73DBF002240681146FFF748BF85
:1054C000002340681A461946FFF74ABF0023406888
:1054D0001A461946FFF74CBF40680021FFF770BF1E
:1054E00040680021FFF774BF4068002281F001018D
:1054F000FFF746BF40680022FFF752BF0022406816
:105500001146FFF755BF002240681146FFF740BF24
:105510002DE9F04395B014460D46074600F0CCFB4C
:1055200000211C220DA8009103F04AFA40230C939D
:1055300020466B460CAA0021FFF7B2FE0446002865
:105540004BD1024601216868FFF702FF0221804625
:1055500022466868FFF7FCFE009E81462146002E29
:105560003BD0002939D17368022B03D00A2B11D00C
:10557000F669F4E7B8F1000FFAD0716906A80431B2
:1055800007AD00F0C7FB0FCD3C1D0FC42B68237087
:105590004146EDE7B9F1000FEAD07469102201A885
:1055A00003F00EFA06238DF8143001AD04F1080360
:1055B0001834186859682A4603C20833A3421546AE
:1055C000F7D101A906A807AD00F084FB0FCD3C1D63
:1055D0000FC42B6823704946CAE70098FFF758FEAE
:1055E000384615B0BDE8F083024B034A1A6000222A
:1055F0005A60704778E60320DC8D0B00002240687B
:105600001146FFF7A5BE002240681146FFF7C0BE55
:10561000002240681146FFF7CBBE40680022FFF72A
:10562000BFBE4068002281F00101FFF7A9BE002340
:1056300040681A461946FFF79BBE002340681A4689
:105640001946FFF78DBE002240681146FFF770BE75
:10565000406800220221FFF773BE002340681A460B
:10566000FFF75EBE024B04225A60024A1A6070477E
:1056700080E60320188E0B007047F8B506461546E5
:105680000C468F18BC4206D0336814F8011B9B6887
:1056900030469847F6E72846F8BD007C0022FFF721
:1056A00085BC007C0021FFF789BC007C0021FFF74E
:1056B0008DBC007C0021FFF791BC007C0021FFF72E
:1056C00095BC10B514210446FFF719F9204610BD0A
:1056D00038B5044615464FF47A730022C4E9012315
:1056E000094B2174084623602946FFF78FFCBF3021
:1056F00008D16B69DB0705D56868FFF795FEE86898
:10570000FFF792FE204638BD5C8E0B0038B504686A
:1057100005467CB16368013B63605BB92368204642
:105720009B689847A368013BA3601BB92368204688
:10573000DB689847284638BD38B50D1E044600681A
:1057400003DDFFF779FE18B938BDFFF76DFE0020C5
:105750002060A5600120F7E700F11003012213F893
:10576000101C0129184608D153F8041C02EB410211
:10577000013A03F11003F2D17047022904BF53F834
:10578000041C5218F4E70EB4F0B588B000AF07F16E
:105790003405102155F8042B7A6004462B467818FE
:1057A000FD60FFF751FE0F287A681AD900F108034F
:1057B00023F007036E46ADEB030D411C2B466846F4
:1057C000FD60FFF741FE021E04DD236869469B6809
:1057D00020469847B5462037BD46BDE8F04003B0A7
:1057E00070470028F7D0236802469B6807F1100134
:1057F00020469847EFE710B54368013B04464360F5
:1058000063B903689B689847A368013BA3602BB901
:1058100023682046DB68BDE81040184710BD38B546
:105820000B6803604D6843689D42044608D015B17B
:105830006B6801336B60606808B1FFF7DCFF65607F
:1058400038BD07B503688DF807109B6801220DF17C
:105850000701984703B05DF804FB0B461146002290
:1058600010B5C0E90022044683600BB9204610BD84
:10587000FFF7D5FFFAE78368EBB11A78032A1AD845
:10588000DFE802F00417021B0520704702685B681E
:105890005268D05C2D2812D0A0F13003092B0ED90C
:1058A00074280ED066280CD0A0F16E0358425841DF
:1058B000704706207047002070470420704703207F
:1058C00070470220704710B50446FFF7D4FF022846
:1058D0000ED0C31EDBB2012B14D82268A368506817
:1058E0005B68BDE810400A220021184403F074B937
:1058F0002268A36852685B68D05CA0F174035842C8
:10590000584110BD0020FCE738B50023C0E9003342
:1059100004460E48C4E90203A9B10B78032B06D054
:105920008BB9136858684B68C35C6E2B07D013683B
:105930004D6858688B6828445B1BA060E360114683
:105940002046FFF76CFF204638BD00BF428F0B009A
:1059500038B500250B46C0E90055C0E90255C0E93D
:105960000455044611464BB11A78012A06D103F1B9
:105970001002DB6882604361FFF751FF204638BDAB
:1059800010B54369044663B18068E060013B1030A4
:10599000A0602061636113B1FFF7DEFEA06001200B
:1059A00000E0184610BD10B57D210446FFF749FF01
:1059B00001232371204610BD08B50379012B02D0C5
:1059C000022B04D008BD2C21FFF73BFFFAE73A2158
:1059D000FAE710B50446FFF7EFFF20467B21FFF7FB
:1059E00030FF00232371204610BD000013B504468C
:1059F0000191FFF7E1FF2368019ADB680349204624
:105A0000984701232046237102B010BD018D0B0081
:105A100013B504460191FFF7CFFF2368019ADB68B5
:105A200003492046984701232046237102B010BD48
:105A30007C8E0B002DE9F0470D462221904604464E
:105A4000FFF7FFFEDFF8A490A8442F464745BA466B
:105A50003DD017F8016B222E06D05C2E04D03046C4
:105A600002F06EFF0028F1D12368AAEB05029B68C3
:105A70002946204698475C212046FFF7E2FE0D2E7E
:105A80000AD8072E1CD9A6F10803052B18D8DFE881
:105A900003F00D0F11171315222E01D05C2E0FD11C
:105AA00031462046FFF7CDFE3D46CFE76221F8E7BD
:105AB0007421F6E76E21F4E76621F2E77221F0E740
:105AC00023683246DB68494620469847ECE7BD42EA
:105AD00005D023687A1B9B682946204698472221D7
:105AE0002046FFF7AEFEBDE8F08700BF7F8E0B00BB
:105AF00013B50446CDE90021FFF75EFF2046DDE93E
:105B00000021FFF797FF02232046237102B010BD4A
:105B100013B50446CDE90021FFF74EFF2046DDE92D
:105B20000021FFF787FF01232046237102B010BD3B
:105B3000417470477047704708B50021007CFFF73B
:105B400005FA40EAE07008BD08B50121007CFFF7C6
:105B5000FDF940EAE07008BD08B5007CFFF7EEF9FA
:105B600020EAE07008BD08B5007CFFF7DFF920EA05
:105B7000E07008BD13B50446007C0191FFF7DEF923
:105B80000028019901DC607C20B1207CFFF7E6F958
:105B900020EAE07002B010BD007CFFF7E7B910B555
:105BA00014210446FEF7ABFE204610BD10B54FF49D
:105BB0007A73044608460021C4E90113044B2360AC
:105BC0000123207463741146FFF798F9204610BD35
:105BD000908E0B00007C0022FFF798B9007CFFF745
:105BE0009DB9007CFFF7CAB910B514220446002104
:105BF00002F0E6FE204610BD10B50F4C88B003A899
:105C0000FFF7F2FF2178BFF35B8F11F001010FD195
:105C100020460191FEF782FE019948B103AA074888
:105C2000FFF7C4FF2046FEF77EFE054802F082FE25
:105C3000024808B010BD00BF88E603208CE60320B0
:105C4000355B0B00704710B518210446FEF757FE70
:105C5000204610BDF0B5037D062B8DB00E4600F139
:105C600004074FF0000412D000F1080515F8011DDB
:105C70000A22304601F033F9AF42044419D0002C17
:105C8000F4D02E21304601F011F90444EEE72F2321
:105C90006A4639460A208DF80040FFF70FFA684639
:105CA000FEF7E6FD33680246DB68694630469847F2
:105CB000044620460DB0F0BD10B5054B0446112238
:105CC00040F8043B002102F07BFE204610BD00BFDF
:105CD000C08E0B000346074A10B543F8042B01F1B0
:105CE000100251F8044B43F8044B9142F9D10A7861
:105CF0001A7010BDC08E0B0010B59DF8084044EA24
:105D0000032343EA024242EA01610423416003752E
:105D100010BD000007B5064B0360CB7800938B786D
:105D20004A780978FFF7E8FF03B05DF804FB00BF8D
:105D3000C08E0B0010B58368044613B103220146E0
:105D40009847204610BD13B50B460246D0E9000126
:105D50006C4684E8030093E8030082E8030094E8BB
:105D6000030083E8030002B010BD0000014B18607F
:105D7000704700BF74E5032008B50B4B43B1FFF734
:105D80003BFF03681B699847002801DDAFF30080E3
:105D9000064B43B102F018FC03681B6998470028C2
:105DA00001DDAFF3008008BD00000000000000002E
:105DB00008B5FFF7E1FFFFF733FA014B186008BDA4
:105DC00034E703200548064A064908B5121A02F0CE
:105DD000CFFD054B054A1A6008BD00BF00F4032043
:105DE00004F4032044950B0000F403201E1C279AA2
:105DF00007B5002300931A466FF07701FFF702FB07
:105E000003B05DF804FB000007B543880A2B08D0F7
:105E1000502B0BD1094B1B684BB103B05DF804EB61
:105E20001847FFF7E5FF03B05DF804FB002300937C
:105E30001A466FF07701FFF7E5FAF4E7A4E60320CE
:105E400010B512480021FFF71FFB114B1A68114BC8
:105E50009A42114B0CBF012200221A7001D0FFF7A9
:105E6000B1FFFFF7CDF9044602F0B2FD0B4B13B1C1
:105E70002046AFF3008000210848FFF749FABDE84B
:105E8000104007480021FFF7B3BA00BF6D5D0B005B
:105E900000F403201E1C279AA0E603200000000047
:105EA000095E0B00014B00229A607047A8E60320B0
:105EB000024B1A68024B1A60704700BF68E5032066
:105EC000B8E6032080680368DB6818477047084617
:105ED00011B10B685B68184770477047704770478F
:105EE000704738B504460D4600682E2102F0ABFD20
:105EF0002368C31A2B6023B1037803B101302368F0
:105F00002060184638BD10B50C210446FEF7F7FC9A
:105F1000204610BD10B504210446FEF7F0FC2046D3
:105F200010BD10B504210446FEF7E9FC204610BD63
:105F3000FFF7DCB808B5FEF791FCB0FA80F0400935
:105F400008BD704710B50C46FFF756FE844210D0CE
:105F500002F03AFB844205D102F036FBBDE8104066
:105F600002F0C7B92CB1236820465B68BDE8104039
:105F7000184710BD0B6803604B68436013B15A6843
:105F800001325A60704713B5044608460191FEF786
:105F90006FFC01990246204602B0BDE81040FFF7B1
:105FA000B7BD13B5044608460191FEF761FC2368AE
:105FB0000199DB680246204602B0BDE81040184750
:105FC00007B503688DF80710DB6801220DF10701A2
:105FD000984703B05DF804FB0A6802604A684260B3
:105FE0000022C0E9022210B502618C688460CC688E
:105FF000C4600C698A60CA6004610A6110BD000057
:106000002DE9F74FD0E900844FF0140A00930AFB02
:1060100004F4184BA41017465C434546002C21DDC0
:1060200066100AFB06F005EB00093A46B9F804B021
:10603000285801915F4528BF5A4602F016FD0028F6
:1060400001994FF001030BD15F4503D1009A137002
:106050003446E3E7FCD9A61B09F11405013EF7E736
:10606000F9DBF5E7A5EB08050248AD10684303B07E
:10607000BDE8F08FCDCCCCCC7FB50369057E019116
:1060800003B3F9B1002600F10C04039603A901A89B
:10609000FFF727FF0146A8B10DF10B03039A8DF816
:1060A0000B602046FFF7ACFF9DF80B3053B123681F
:1060B000142404FB0034083434F9023C002BA8BF3C
:1060C000DDB2E3E7284604B070BD0EB4F0B58CB085
:1060D00000AF07F14405044655F8042B7A602B46BF
:1060E000202107F11000FD60FFF7AEF91F287A6844
:1060F0001AD900F1080323F007036E46ADEB030D38
:10610000411C2B466846FD60FFF79EF9021E04DD28
:1061100023686946DB6820469847B5463037BD4658
:10612000BDE8F04003B070470028F7D0236802466E
:10613000DB6807F1100120469847EFE710B5094CDE
:106140002378BFF35B8FDB0709D42046FEF7E6FB1D
:1061500028B12046FEF7E7FB034802F0EBFB0348BB
:1061600010BD00BFC0E60320DB5E0B006CE5032022
:1061700010B5094C2378BFF35B8FDB0709D42046A9
:10618000FEF7CCFB28B12046FEF7CDFB034802F01A
:10619000D1FB034810BD00BFC4E60320435F0B00E2
:1061A00070E5032038B500250446C0E90055C0E974
:1061B00004558560856140F8245FFEF787FFFFF78F
:1061C000BDFFE061FFF7D4FF25732062204638BD94
:1061D00010B50A4C2378BFF35B8FDB070CD4204645
:1061E000FEF79CFB40B10648FFF7DCFF2046FEF7B8
:1061F0009AFB044802F09EFB014810BDBCE6032058
:10620000CCE6032049670B00024A034903480023F8
:10621000FFF76EB82D650B00B9640B0039640B00F5
:1062200000231A4619461846FFF762B837B58D683D
:1062300004466846FFF79EFE6A4629462046FFF759
:1062400087FB01A8FFF762FA204603B030BD37B5DF
:10625000CD6804466846FFF78DFE6A46294620460B
:10626000FFF752FB01A8FFF751FA204603B030BDFB
:1062700037B50D6904466846FFF77CFE6A46294635
:106280002046FFF7EAFA01A8FFF740FA204603B0DC
:1062900030BD000070B58AB00D46014604A8FFF776
:1062A000C5FF144E04A8FFF76BFBE8B104A96846CC
:1062B000FFF7CDFF02983146FFF73CFE044610B1D0
:1062C0002C1E18BF012401A8FFF720FA002CE9D0EA
:1062D00004A96846FFF7CCFF6846FFF7F4FA286088
:1062E00001A8FFF713FADDE705A8FFF70FFA0AB0D8
:1062F00070BD00BFE88E0B0037B50C462046134931
:106300001546FEF7ABFA50B9FFF776FC4FF416517D
:10631000FFF760FC03B0BDE83040FFF76DBC0C49EF
:106320002046FEF79BFA78B94FF4165301A9284688
:106330000193FFF7AFFF02F047F9019901F0D6FF93
:1063400002F042F903B030BD0020FBE7ED8E0B00F8
:10635000F48E0B0070B5D0E900531426044606FBFA
:106360000356AE4205D005F10800FFF7F3FF1435E0
:10637000F7E72068FFF758F8204670BD70B5D0E900
:106380000053044605EB0316AE4204D0284602F043
:106390000DF81035F8E72068FFF746F8204670BD85
:1063A00010B504460C30FFF7D5FF2046FFF7E6FF97
:1063B000204610BD10B5044B044640F8043BFFF7DF
:1063C000EFFF204610BD00BFAC8D0B0010B504469A
:1063D000FFF7F0FF20462421FEF791FA204610BD7A
:1063E00010B5034B03600446FFF7E4FF204610BDE1
:1063F000908F0B0010B50446FFF7F2FF20462421D2
:10640000FEF77DFA204610BD0022C0E9002210B53B
:1064100082600C6804604C6844608C680A604A6062
:1064200084608A6010BD10B5036804461868FEF7E2
:1064300065FE204610BD00002DE9F04F87B0804674
:1064400003931C4B5B68C3F30803894616466BB97C
:10645000FFF7BEFE044600F12403406A0593FFF7F0
:1064600067FD237B2BB105A8FFF7DDFF07B0BDE873
:10647000F08F01232373D4E900535FFA89F905EB08
:10648000830AAA4512D055F8047B3146381DFFF720
:10649000F3FD8145F5D33B68039A0092D3F808B029
:1064A0004A46334641463846D847EAE70023237335
:1064B000D9E700BF00ED00E02DE9F74F9B461A4BEE
:1064C0005B68C3F308038046894616466BB9FFF73D
:1064D0007FFE044600F12403406A0193FFF728FD84
:1064E000237B2BB101A8FFF79EFF03B0BDE8F08F1F
:1064F00001232373D4E90053F6B205EB830A554513
:106500000ED055F8047B5946381DFFF7B5FD86427D
:10651000F5D33B684A46DB68414638469847EEE784
:1065200000232373DEE700BF00ED00E02DE9F34117
:10653000164B5B68C3F3080305460F461BBBFFF70A
:1065400047FE00F124030446406A0193FFF7F0FC84
:10655000D4E90063462406EB8308B04509D101A8BD
:10656000FFF761FFA542B4BF0020012002B0BDE8E3
:10657000F08156F8040B39460430FFF77DFD844264
:10658000A8BF0446E9E70020F0E700BF00ED00E007
:10659000F8B5D0E901539D4204460E460DDB6F1C51
:1065A000002F006804DDB900FEF746FF18B9F8BDFA
:1065B000FEF73AFF00202060A7602768626807EBBB
:1065C00085019200A2EB8502081D02F0DFF947F871
:1065D00025606368013363600120E8E737B500F1A7
:1065E00024030446406A01930D46FFF7A1FCD4E959
:1065F000003203EB8202934219460BD00968A9428C
:1066000003F10403F7D101A8FFF70DFF0025284689
:1066100003B030BD29462046FFF7BAFF05460028E3
:10662000F1D06368012B01D1FFF7EEFD01A8FFF760
:10663000FAFEECE770B50446D0E900020B4600EB29
:10664000820282420FD001461D6851F8046BAE42AF
:1066500007D1521A02F09AF96368013B6360012086
:1066600070BD0846EDE70020FAE71FB500F12403EE
:106670000446406A01910393FFF75AFC01A92046A2
:10668000FFF7D8FF18B163680BB9FFF7C9FD03A87E
:10669000FFF7C9FE04B010BD70B5D0E90456182349
:1066A000044603FB0656AE4215D005F11001204604
:1066B000FFF7C0FF63680BB9FFF7B2FDE069296916
:1066C0000368DB689847696919B1206A0368DB6869
:1066D00098471835E7E7D4E90453182606FB035614
:1066E000AE4204D0284601F061FE1835F8E70023D9
:1066F000636170BD73B50446FFF792FD04F1240396
:10670000606A0193FFF714FC2046FFF7C5FF01A85C
:10671000FFF789FE606A08B1FEF7E0FCD4E9045394
:10672000182606FB0356AE4204D0284601F03EFE72
:106730001835F8E72069FEF777FE2068FEF774FE4B
:10674000204602B070BD00000148FFF7D3BF00BF74
:10675000CCE603208842F8B504460D46164615D906
:10676000904214D2A2F11406751AA1F114072C4418
:10677000B7421AD01CB131462046FFF72DFC06F176
:106780000800FFF7E7FD143E143CF1E70DD0B542D9
:106790000BD01CB129462046FFF71EFC05F108006E
:1067A000FFF7D8FD14351434F1E7F8BD8842F8B589
:1067B00004460D46164614D9904213D2A2F1100693
:1067C000751AA1F110072C44B74218D01CB13146FC
:1067D000204601F067FE304601F0E8FD103E103C17
:1067E000F2E70CD0B5420AD01CB12946204601F090
:1067F00059FE284601F0DAFD10351034F2E7F8BDF5
:1068000070B50E1E054611DD3001FEF705FE04468B
:1068100058B1D5E9001201EB0212FFF7C7FF286853
:10682000FEF702FE2C60AE60012070BD0024F6E78A
:106830002DE9F04F904695B000230391D8F804104D
:106840000A9346229942C0E90033C0E90233C0E905
:106850000433CDE908330446027623DCD8E9005737
:10686000142303FB0757AF423BD029460BA801F086
:1068700019FE0BA90FA8099E01F014FEDDE909130A
:1068800099421BDA089B099A03EB061603EB0212E6
:10689000314606F11000FFF789FFEEB9099B01337D
:1068A000099311E008A8FFF7ABFF0028D6D108A88C
:1068B000FFF764FD204615B0BDE8F08F013108A850
:1068C000FFF79EFF0028DDD10FA801F06FFD0BA898
:1068D00001F06CFD1435C6E70FA9304601F0E2FD6A
:1068E000DCE70026CDE90B660D964FF01409DDE9D3
:1068F00008239E427CDA3301D35806930BB9013644
:10690000F5E70023079309FB06F302930BAD07A9F4
:1069100006A8FFF7E6FA82460028F0D04FF0000301
:106920008DF817300146079A0DF117032846FFF737
:1069300067FB9DF817700190002F4AD1BDF81C30FD
:10694000ADF84030CDE911774FF6FF73CDF83CA09C
:10695000ADF842301397D5E90132934217DB03F1CA
:10696000010ABAF1000F30DD09FB0AF0FEF754FD11
:10697000834660B3D5E9001209FB0212FFF7EAFE75
:106980002868FEF751FDC5F800B0C5F808A02B68CF
:10699000019A09FB023A6A68514609FB02320AF180
:1069A0001400FFF7D7FEBAF1000F03D00FA950462D
:1069B000FFF712FB6B6801336B6011A8FFF7CAFC8D
:1069C0003FB10BA8FFF7C6FC71E7BB46D8E701272C
:1069D000F3E7019B2D6809FB0355069B1B782BB938
:1069E000D8F80030029A13441B7CEB8008358EE700
:1069F0002168226062686360A36809920A9A0A9318
:106A0000E368A2600B9A0B932369E2600C9A0C93E3
:106A1000636922610D9A0D93039B0891626123764D
:106A2000CFE70000F0B5044687B00D46264619466C
:106A300068461746FEF755F90B4B46F8043B694686
:106A400003A8FEF74EF903AA39463046FFF7F0FED9
:106A500003A8FEF705F96846FEF702F9034B236029
:106A60002046256207B0F0BDAC8D0B00788F0B007F
:106A7000F0B50F4685B01D490A9C384616461D469E
:106A8000FDF7ECFEC0B9A4B1294601A8FFF7BCFC94
:106A90001749242001F035FE054630B101AB3246DE
:106AA0002146FFF7BFFF134B2B6001A8FEF7D8F874
:106AB0002C46204605B0F0BD0F493846FDF7CEFE06
:106AC00090B9002CF5D0294601A8FFF79DFC084994
:106AD000242001F016FE05460028E6D001AB324620
:106AE0002146FFF79FFFE0E70024E2E7FC8E0B0062
:106AF000D8910B00908F0B00008F0B00014B024AC6
:106B00001A607047C8E60320118F0B002DE9F0478B
:106B1000089DD0F8209004460E4617469846FFF789
:106B20006BF881454CD02B79190704D56A69544913
:106B30002046FFF7CAFAB8F1000F0DD05B212046BE
:106B4000FFF73EFA41462046FFF72BFA23684D49EE
:106B5000DB680222204698472B79DA0723D5D5F83F
:106B600008802F21404601F0A0FF08B100F1010884
:106B700041462046FFF715FA2B799B0708D53A21A5
:106B80002046FFF71DFAEA683F492046FFF79DFAC5
:106B90002A79236812F0040FDB6814BF3B493C4993
:106BA0000222204698472B7958071DD529690B46A4
:106BB0001A4613F8010B60B1202808D11946F7E7EF
:106BC0003448FEF7A0FC0028ADD0BDE8F0872828A7
:106BD000EED12368521ADB682046984723682E4975
:106BE000DB6804222046984700213846FEF778FBF0
:106BF00001462046FFF7D5F923682549DB680222C4
:106C0000204698471EB131462046FFF7CAF92B7936
:106C100013F0300F2CD023682049DB680222204675
:106C200098472B79D9060AD523681D49DB680722C6
:106C300020469847AA691B492046FFF746FA2B7958
:106C40009A0611D5DB0605D523681049DB680222B8
:106C50002046984723681449DB6820460A22984753
:106C6000E9692046FFF79DF95D212046FFF7A8F965
:106C700023680E49DB6820460222BDE8F04718472A
:106C8000158F0B001C8F0B00018D0B001F8F0B004D
:106C9000248F0B0078E60320228F0B00278F0B0038
:106CA0002A8F0B00328F0B00358F0B00408F0B00AB
:106CB0002DE9F0410446076A0D461646FEF79CFF93
:106CC000874207D0206A036832462946DB68BDE860
:106CD000F04118470348FEF716FC0028F2D0BDE843
:106CE000F08100BF78E603202DE9F04385B0D0F8AD
:106CF00020900C9C05460F4690461E46FEF77CFFF2
:106D0000814505D14948FEF7FEFB002840F08A8006
:106D10002B6A474A01924FF0000901A803938DF8AE
:106D20000890FEF756FE49464046FEF7D9FA41491B
:106D30008046012201A8FEF7DBFE4146FFF723F95A
:106D40003FB13D49012201A8FEF7D2FE3946FFF7C7
:106D50001AF93EB13949012201A8FEF7C9FE3146B0
:106D6000FFF711F92379DF070ED5A6682F213046EA
:106D700001F09BFE00B1461C3149012201A8FEF73B
:106D8000B7FE3146FFF7FFF823799E0707D52D4957
:106D9000022201A8FEF7ACFEE168FEF727FE237988
:106DA000580714D5266933461F4613F8012B2AB11C
:106DB000202A01D11E46F7E7282AF5D122490222CE
:106DC00001A8FEF795FEBA1B3146FEF7A1FE237916
:106DD000190707D51D49012201A8FEF789FE61693F
:106DE000FEF716FE2379DA0608D5042218490DEBC2
:106DF0000200FEF77DFEA169FEF7F8FD23799B06F0
:106E000007D51449062201A8FEF772FEE169FFF7D3
:106E1000BAF801A8FEF7C7FD286A0F4903680222E5
:106E2000DB68984705B0BDE8F08300BF78E6032033
:106E3000608F0B00F28E0B00438F0B005F930B00F3
:106E4000908D0B00458F0B00488F0B00218D0B00A0
:106E50004B8F0B00508F0B00408F0B00F8B5064690
:106E60000D468F180024BD420CD0336815F8011B65
:106E70009B6830469847031E01DB1C44F3E7002C57
:106E800008BF1C462046F8BD13B50446084659B154
:106E90000191FDF7EDFC23680199DB68024620466D
:106EA00002B0BDE81040184702B010BD03689B68EF
:106EB000184738B50D210546FFF7F8FF0A210446AB
:106EC0002846FFF7F3FF204438BD38B50546FFF7E5
:106ED000DBFF04462846FFF7ECFF204438BD30B501
:106EE0008BB00023012A8DF8243098BF0A2209AC08
:106EF0000D46B1FBF2F101FB125303F0FF03092B26
:106F000094BF30333733DBB2AA4204F8013DEFD9E6
:106F10002146FFF7B9FF0BB030BD7047704770478F
:106F200070470000064B994210B500F10C0405D0E3
:106F3000084601F0EDFB002808BF0024204610BDE4
:106F40004C8E0B00064B994210B500F10C0405D095
:106F5000084601F0DDFB002808BF0024204610BDD4
:106F60004C8E0B00064B994210B500F10C0405D075
:106F7000084601F0CDFB002808BF0024204610BDC4
:106F80004C8E0B0010B568210446FDF7B8FC204676
:106F900010BD10B528210446FDF7B1FC204610BDF8
:106FA00010B530210446FDF7AAFC204610BD68212B
:106FB000FDF7A5BC2821FDF7A2BC3021FDF79FBC41
:106FC000F0B50025EC1C8C420DD86E1C445D875D2D
:106FD000974205D12644B14205D31D60601CF0BD27
:106FE00001342544EEE70020F9E70000024A034996
:106FF0000A20FEF75DB900BF11520B00D08F0B00C5
:1070000030B40D4611461A46036809682868D3E96A
:107010000043A44630BC6047012A38B5044602D17B
:107020000B68236003E0022A03D0032A0DD000205E
:1070300038BD08200D68FDF75EFC03460028F0D03F
:1070400095E8030083E80300EBE700680028EED032
:107050000821FDF754FCEAE710B504465830FEF766
:1070600069FE04F14800BDE8104001F09FB9A0F1AD
:107070003003DAB2092A01D818467047A0F161033B
:10708000052B01D857387047A0F14103052B94BF59
:1070900037384FF0FF30704710B500230370044BB2
:1070A00004461868FEF722F801232370204610BD1D
:1070B000FCE6032010B5037804461BB1024B1868A8
:1070C000FEF71CF8204610BDFCE6032082B0034604
:1070D000086849686A4603C26A4603CA18601846C7
:1070E000596002B0704708B582798B799A4206D10F
:1070F000062201F02DFCB0FA80F0400908BD002006
:10710000FCE74FF0FF33036083800020704708B531
:107110000246002101604160FFF7F3FF91711046C4
:1071200008BD000010B501230361054B024603F1C1
:10713000100153F8044B42F8044B8B42F9D110BDB7
:10714000BE8C0B0010B50B460446B1B1012A01F10B
:1071500010020AD1014653F8040B41F8040B934284
:10716000F9D101232361204610BD411E12F8010D03
:1071700001F8010F9A42F9D1F3E7102201F020FC47
:10718000F1E738B5044615461A46FFF7DBFFA5813F
:10719000204638BD08B5026922B98089003818BF79
:1071A000012008BD0249102201F0D2FBF6E700BF22
:1071B0005C910B000069704738B50C461422002121
:1071C000054601F0FDFB23691BB9A3892B802846E6
:1071D00038BD01232B7421462B4604F1100251F8CF
:1071E000040B43F8040B9142F9D1F0E78089704712
:1071F000704708B502690B699A4206D1102201F066
:10720000A7FBB0FA80F0400908BD0020FCE70000B1
:1072100001232DE9F3410361344B0C460646024637
:1072200003F1100153F8040B42F8040B8B42F9D11F
:1072300044B32421204601F02CFC04284FF0000523
:1072400023D1ADF8045001AFA51C063415F8020C8B
:10725000FFF70DFFB0F1000812DB15F8010CFFF786
:1072600006FF00280CDB023540EA0810A54207F8AB
:10727000010BEBD19DF8053033739DF80430737327
:107280000023336102B0BDE8F0814FF010082421E3
:10729000204601F0FEFBA84207D8424600213046B6
:1072A00002B0BDE8F04101F08BBBB8F1000FE9D0AE
:1072B000605DFFF7DCFE030615D4000108F1FF381E
:1072C000C7B206F808702421204601F0E2FB013520
:1072D000A84208D9605DFFF7CAFE40B20028A4BFEB
:1072E000384306F808000135D1E700BFBE8C0B001B
:1072F00013B504460191FFF715FF20460199FFF7EA
:1073000087FF204602B010BD38B54FF6FF73002549
:10731000044643800E22294605700571063001F0AF
:107320004FFB04F11400FFF7FDFE04F12800FFF706
:10733000F9FE044904F13C0001F083F8656520463C
:1073400038BD00BF428F0B0010B5D0E9063203EB09
:10735000C2029342184606D0046824888C4203F186
:107360000803F6D110BD0020FCE70000002370B533
:10737000036005466820FDF7BEFA041E04F10C0602
:1073800007D00123C4E90133044B23603046FFF7E3
:10739000BBFFC5E90064284670BD00BF00910B002B
:1073A000F0B5064685B01F460D46002950D0002A8C
:1073B0004ED004682378F42A28BFF42243B32379FB
:1073C000980709D5A08903920023FDF7D3FE002872
:1073D000039A03DA05B0F0BD6FF0770034682379C3
:1073E000D90609D5012F07D0A0890023294605B069
:1073F000BDE8F040FDF7F0BE9B06EBD5022FE9D0CB
:10740000A0890023294605B0BDE8F040FDF7EEBE97
:1074100060884FF6FF7188421CD021794E0701D554
:10742000012F04D10B0709D46FF07700D2E7A189AF
:10743000009313462A46FDF7B1FECBE7022FF3D0A7
:107440000023A189009313462A46FDF79DFEC1E75C
:107450000248BFE76FF0D100BCE700BFF2FEFFFFBC
:107460002DE9F04100260660074628200C46FDF76E
:1074700042FA051E05F10C080FD00123C5E90133BE
:10748000084B2B604046FFF74DFE0FCC2E6285F86F
:10749000246046460FC623683360C7E90085384636
:1074A000BDE8F0811C910B0070B500250560064613
:1074B0003020FDF720FA044688B10123C0E90133EA
:1074C000094B03604FF6FF7383810E30FFF71FFEF9
:1074D000C4E90655C4E90855C4E90A55A5757460A0
:1074E0000C343460304670BD38910B0037B50D4612
:1074F000044601A8FFF7D0FD2A68D2F802302360C5
:10750000D2F80630636001A8FFF7D4FD204603B02F
:1075100030BD30B5054687B00C4601A8FFF7BCFD6D
:107520002A68236812881B889A420DD1294602A82E
:10753000FFF7DCFF214604A8FFF7D8FF04A902A843
:10754000FFF7D1FD044600B9002401A8FFF7B2FD02
:10755000204607B030BD000010B504466420FDF79A
:10756000CAF968B10023C0E90033C0E90233C0E9B9
:107570000433C0E906330362C362C363C364C365F3
:10758000206020B90A4A0B490A20FDF791FE00202D
:10759000FDF7BCFD20B1064A07490A20FDF788FE29
:1075A000216806480022FDF70DFE204610BD00BFF1
:1075B00011520B00D08F0B000E900B001D7B0B00A7
:1075C00010B50A4C2378BFF35B8FDB070CD4204641
:1075D000FDF7A4F940B10648FFF7BEFF2046FDF7CE
:1075E000A2F9044801F0A6F9014810BDF4E6032011
:1075F00000E7032009780B0030B50368093B012B35
:107600008DB004460D4611D8FFF7DAFFA188006857
:10761000FFF79AFE034658B92022CDE904200B4A11
:1076200000920B4904AA3220FDF74AFE0DB030BD8E
:107630006A6D002AFAD0D4E9032105F14C00CDE9A6
:107640000312AC6D04AA03A9A047EFE750900B000A
:10765000E78F0B0008B50020FDF758FD00EAE07049
:1076600008BD19B90A460846FDF758BDD1E9000121
:107670000022F9E70368D8690028D4BF0020012060
:10768000704738B5141E4368054602DB62189A42FB
:1076900000DD5C1A2A68501801191A44521A01F0C8
:1076A00075F96A68121B6A6038BD37B50A46044628
:1076B0000D4601ABD0E90001FFF782FC024638B16C
:1076C00001992046FFF7DDFF29462046FFF7EDFF31
:1076D00003B030BD10B50C4629B90A460846BDE8CE
:1076E0001040FDF723BD01212046FFF7DEFFD4E95E
:1076F00000010022F3E738B504461546FFF7B1FF55
:1077000000280ADB29462046FFF7E4FF002804DBB7
:10771000BDE838400020FDF711BD38BD38B5002365
:107720000446836008200D46FDF7E5F818B12B6884
:1077300003606B684360034BE360034B2060A3600E
:10774000204638BD01700B0019700B000B680360F8
:1077500013B15A6801325A60704710B551F8043BB2
:10776000044640F8043BFFF7F1FF23680BB9FFF72D
:107770003DFC204610BD10B551F8043B044640F8CE
:10778000043BFFF7E3FF204610BD10B551F8043B62
:10779000044640F8043BFFF7D9FF204610BD10B562
:1077A00004460430FDF7B2FF204610BD70B5D0E9A5
:1077B0000053044605EBC306AE4204D0281DFDF776
:1077C000A5FF0835F8E72068FDF72EFE204670BDBE
:1077D00070B5D0E90053044605EBC306AE4204D0B1
:1077E000281DFDF793FF0835F8E72068FDF71CFE1C
:1077F000204670BD10B504462430FFF7E9FF04F1C0
:107800001800FFF7D3FF10BD70B5174B1C6854B3B9
:1078100004F15400FEF78EFA04F14400FEF78AFAF0
:1078200004F13400FEF786FA04F12400FEF782FA30
:10783000D4E9065305EBC306AE4204D0281DFDF77C
:1078400065FF0835F8E7A069FDF7EEFD04F10C00CF
:10785000FFF7BEFF2046FFF7A9FF20466421BDE8E1
:107860007040FDF74CB870BD00E7032013B500234E
:10787000D1E90042C1E90033036800930460436822
:10788000426001A80193FDF741FF02B010BD82687C
:1078900010B50AB900F039FFBDE81040C3681847B9
:1078A00008B583688B4202DAFDF746FF08BD012068
:1078B000FCE72DE9F0410F4641681D4619448368F5
:1078C00099420446904612DC266862683E44D21B08
:1078D0003146701901F05AF82A464146304601F007
:1078E00047F863682B4463600120BDE8F081FDF731
:1078F00023FF0028E8D1F8E7F8B50D46D0E90113D9
:107900009942044616460BDA276862687919521BB9
:10791000481C01F03BF87E55636801336360F8BD95
:107920000131FDF709FF0028EED1F8E70A4641686A
:10793000FFF7E2BF2DE9F74304461D460F4601ABB2
:1079400090460A46D0E900019DF82890FFF738FBE1
:10795000AE1C63680246B9F1000F26D128B3334448
:107960001B1AFF2B09D801992046FFF78AFE616890
:1079700020463144FFF794FF18B9606803B0BDE8B2
:10798000F0836A1C0199D2B22046FFF7B5FF019936
:107990003A4601312046FFF7AFFF01992B46424698
:1079A00002312046FFF785FFE7E7F118FF29E4D809
:1079B0002046FFF775FF0028DFD0691CC9B22046BA
:1079C000FFF7B4FF39462046FFF7B0FF61682B464A
:1079D0004246E6E730B49DF808501AB1029530BC33
:1079E000FFF7A8BF406830BC70471FB50023C0E94F
:1079F000003383600622009301238DF80F2019467F
:107A00000DF10F020446FFF7E5FF204604B010BD5C
:107A10008842F8B504460D46164614D9904213D252
:107A2000A2F10806751AA1F108072C44B74218D034
:107A30001CB131462046FFF7A8FE301DFDF766FE5B
:107A4000083E083CF2E70CD0B5420AD01CB12946EA
:107A50002046FFF79AFE281DFDF758FE083508342A
:107A6000F2E7F8BDF7B5044646686846FFF78DFEB5
:107A7000D4E901739F4212DB0137002F29DDF800A2
:107A8000FDF7CAFC0546F0B1D4E9001201EBC202D1
:107A9000FFF7BEFF2068FDF7C7FC2560A7602368DD
:107AA000626803EBC60603EBC202314606F108002A
:107AB000FFF7AEFF1EB169463046FFF766FE63680A
:107AC00001336360012501A8FDF720FE284603B0BD
:107AD000F0BD0025DEE7F8B5D0E9004305460F46C6
:107AE00004EBC306A64205D039462046FFF711FD38
:107AF00008B114B9F8BD0834F4E7201DFDF706FEFF
:107B0000D5E9003204F1080103EBC2022046FFF779
:107B10007FFF6B68013B6B60ECE700002DE9F041F3
:107B200005468EB003A80C46FFF7B6FA2E68F31E82
:107B30000D2B3CD8DFE813F00E0057003B00D300BC
:107B40003B003B003B003B003B009D009D009D0037
:107B50009D009D0004A8FFF7A7FC049BAA891A803A
:107B60006968049808310230FFF7B0FA04A906A842
:107B7000FFF70BFE06A904F11800FFF773FF054697
:107B800007A8FDF7C3FDC5B92023CDE906355E4B37
:107B90005E49009306AA2B460120FDF791FB049B4A
:107BA00029461888FDF7D2FA05A8FDF7AFFD03A80E
:107BB000FFF780FA0EB0BDE8F081E36A23B104A9B3
:107BC00004F12400FFF763FE05A8FDF79FFD2021C7
:107BD0000023CDE906134E4A00924C4906AA012023
:107BE000FDF76EFBE3E7A9892046FFF7ADFB0646EC
:107BF0000028DCD00568D5E906324FF6FF712980F0
:107C000003EBC2029A4203D053F8080B4180F9E714
:107C1000D5E9037307EBC308B84504D0381DFDF759
:107C200075FD0837F8E700232B61D5E9067307EBEC
:107C3000C308B84504D0381DFDF768FD0837F8E7DC
:107C40000023EB61AB72E36B23B1314604F13400E6
:107C5000FFF71DFE33684FF6FF721A80314604F1BC
:107C60001800FFF738FF20220023CDE90623294A18
:107C7000B2E7A9892046FFF767FB002897D0E36C9D
:107C8000002B94D000230D2EADF8163001D0102E0D
:107C900017D1002369681A4606258DF8153004911E
:107CA0008DF814200690DDE9040109AB8DF81C6005
:107CB000089583E80300236D06A904F14400984762
:107CC00075E70F2E01BF2B7A696803F001020825C2
:107CD0000FBFC3F340031A4619461D46DDE7A989C5
:107CE0002046FFF731FB014600283FF460AFE36D0B
:107CF000002B3FF45CAF6B68069306AA236E04F179
:107D00005400984753E700BF68900B00E78F0B00C3
:107D10008E900B0098900B0038B505460C46FEF788
:107D200012F8AB68A268AA60A360EB68E268EA6038
:107D3000E36038BD10B504688AB04C34B9B1CDE900
:107D4000001202A86946FFF7E9FC002306A902A871
:107D50000893FFF7E1FF214606A8FFF7DDFF06A81D
:107D6000FDF7E8FF02A8FDF7E5FF0AB010BD04919A
:107D7000EBE770B504468CB00E4601921D46FFF746
:107D8000C3FA2671019904F13C0000F0B0FB04F144
:107D90004C06CDB1109B029502A904A80393FFF7EE
:107DA000BDFC002308A904A80A93FFF7B5FF3146DC
:107DB00008A8FFF7B1FF08A8FDF7BCFF04A8FDF76E
:107DC000B9FF20460CB070BD0695EAE72DE9F04FEB
:107DD00087B01D46DDE9104380468B4692461299D6
:107DE00003930022682002910492FCF784FD061E92
:107DF00006F10C0918D001223746C6E90122029982
:107E0000154A47F8202B039B00915A465146484695
:107E1000FFF7AFFF0FCD0FC72B683B600FCC06F10C
:107E200034050FC523682B6004A94046CDE90496AC
:107E3000FFF71CFD05A8FDF769FCD8F800303BB939
:107E4000064A07490A2007B0BDE8F04FFDF730BAEF
:107E500007B0BDE8F08F00BF00910B0011520B007E
:107E6000D08F0B008842F8B504460D46164614D94B
:107E7000904213D2A2F10806751AA1F108072C440A
:107E8000B74218D01CB131462046FFF774FC301DB4
:107E9000FDF73CFC083E083CF2E70CD0B5420AD0A6
:107EA0001CB129462046FFF766FC281DFDF72EFC75
:107EB00008350834F2E7F8BD70B50E1E054611DD31
:107EC000F000FDF7A9FA044658B1D5E9001201EB1C
:107ED000C202FFF7C7FF2868FDF7A6FA2C60AE6064
:107EE000012070BD0024F6E773B504464568684676
:107EF000FFF741FCD4E90113994210DA2368626864
:107F000003EBC50503EBC202294605F10800FFF7A4
:107F1000A9FF8DB9636801336360012606E0013172
:107F20002046FFF7C9FF06460028E7D101A8FDF764
:107F3000EDFB304602B070BD69462846FFF71BFCDA
:107F4000E8E78842F8B504460D46164614D9904233
:107F500013D2A2F10806751AA1F108072C44B74202
:107F600018D01CB131462046FFF7F7FB301DFDF756
:107F7000CDFB083E083CF2E70CD0B5420AD01CB15C
:107F800029462046FFF7E9FB281DFDF7BFFB083512
:107F90000834F2E7F8BD70B50E1E054611DDF0009D
:107FA000FDF73AFA044658B1D5E9001201EBC202D6
:107FB000FFF7C7FF2868FDF737FA2C60AE60012095
:107FC00070BD0024F6E773B5044645686846FFF7C0
:107FD000C4FBD4E90113994210DA2368626803EB09
:107FE000C50503EBC202294605F10800FFF7A9FF0A
:107FF0008DB9636801336360012606E001312046D4
:10800000FFF7C9FF06460028E7D101A8FDF77EFB70
:10801000304602B070BD69462846FFF79EFBE8E790
:108020002DE9F04F1746A1B080460AA80E46FFF78B
:1080300033F83C68237953B939464046FFF78DFB46
:108040000AA8FFF737F8404621B0BDE8F08F336843
:10805000D3E9035305EBC303039304F1280A04F1A6
:10806000140B039B9D4221D0D5F80090584609F18E
:108070001401FFF7BEF8B8B109F128015046FFF727
:10808000B8F888B12368D9F80020534033F47F430F
:108090000AD12022CDE915235E4A009215AA5E4935
:1080A0003220FDF70DF9C7E70835DAE75046FFF74C
:1080B00071F860B95949012215A815ADFFF742F8CA
:1080C0000FCDD446ACE80F002B68CCF800303368F5
:1080D000D3E9005305EBC30B5D45A94651466ED06D
:1080E00055F8080BFFF785F80028F5D004F1140ABD
:1080F0005046FFF74FF888B9494B48491A88013272
:1081000092B21A8015A8012315ADFFF73AF80FCDEA
:10811000D446ACE80F002B68CCF80030414B1593E7
:108120002822002116A800F04BFC514604A8FFF7B6
:1081300043F804AB18AA0DF1200C186859681546CD
:1081400003C5083363452A46F7D1186828602379A8
:108150008DF85830D9F800309B8AADF87430E36B55
:108160001793314B0022A11D15A8CDE91E34FDF750
:108170001FF800287FF460AF01232370346839466C
:108180000C340DA8FFF7E9FA20460DA9FFF71BFFF5
:1081900004460EA8FDF7BAFA002C7FF44DAF202359
:1081A000CDE90D34214B00930DAA234677E73946DC
:1081B0004046FFF7D2FA0CA8FDF7A8FA40E70BA853
:1081C000FFF74EF9514615A8FEF7F6FF0B9A00236C
:1081D000143215A90120FCF7C3FF0028E7D1356848
:1081E0000BA90DA8FFF7C7FA28460DA9FFF77CFEDB
:1081F00005460EA8FDF78AFA002DD8D032685368DC
:10820000126803F10053013B0CA802EBC309FDF710
:108210007DFA6BE7A5900B00E78F0B004C910B00EC
:10822000F8E6032003002C00F9750B00D0900B003A
:10823000024800230360FCF749BF00BFFCE60320AF
:1082400070474174704708B5007CFCF71FFF20EAB7
:10825000E07008BD08B5007CFCF7F0FE20EAE07095
:1082600008BD08B5007CFCF7F9FE40EAE07008BDE7
:1082700008B5007CFCF7EAFE40EAE07008BD007C2F
:10828000FCF7F4BE37B5457C04462DB1207C03B025
:10829000BDE83040FCF7CABE007C0191FCF7F6FE59
:1082A00000280199F2DC284603B030BD10B5142136
:1082B0000446FCF724FB204610BD000010B54FF427
:1082C0007A730446084611460022C4E90123044B90
:1082D0002360012320746374FCF7E8FE204610BD80
:1082E00074910B00007C0023FCF7D8BE0022FFF73E
:1082F000F9BF007CFCF792BE054B02221A60054BC9
:10830000054A9A600020C3E90000FDF769B800BF84
:1083100010E7032004E703200000FFFF10B5044628
:1083200008462170FCF732FE00236360204610BD32
:10833000002240681146FDF72BB800224068114624
:10834000FDF736B840680022FDF72AB840680022E1
:1083500081F00101FDF714B8002340681A46194660
:10836000FDF706B8002340681A461946FCF7F8BF27
:10837000002240681146FCF7EBBF0022406811461E
:10838000FCF7D6BF406800220221FCF7D9BF0023CA
:1083900040681A46FCF7C4BF024B03225A60024AE7
:1083A0001A60704714E70320A4910B0010B504462F
:1083B0000068FDF739F8204610BD10B50446006886
:1083C00008B1FDF731F80023C4E90133236010BD83
:1083D00038B504460D4600680131FDF72DF810B19F
:1083E000C4E90005012038BD10B50368044623B177
:1083F00043688B4201D3012010BD2046FFF7E8FF00
:108400000028F9D0A368002BF5D122681370F2E799
:1084100037B50D46114601920446FFF7E5FF019A74
:1084200028B92046FFF7C9FF204603B030BDA2603F
:108430002946206800F09CFA2268A3680021D154E4
:10844000F2E7002313B5C0E90033044683600373E9
:1084500041B108460191FCF70BFA0199024620460A
:10846000FFF7D6FF204602B010BD38B505460068BC
:108470000C4668B16A688B689A4207D3096800F0B5
:10848000ECFAA368AB600023A36038BDFCF7CCFF17
:1084900023682B6063686B60A368AB600023C4E94A
:1084A0000033F1E710B50023C0E9003304468360D0
:1084B0000373FFF7DAFF204610BD884210B504466B
:1084C00005D00B682BB18A681946FFF7A1FF20463B
:1084D00010BDFFF772FFFAE710B500230446C0E9AC
:1084E000003383600373FFF7E8FF204610BD13B528
:1084F000044659B108460191FCF7BAF901990246C0
:108500002046FFF785FF204602B010BDFFF755FF5C
:10851000F9E7704738B50A4B03600123044643610D
:108520000849202000F0EFF8202560600549A5608B
:10853000284600F0E8F8C4E90305204638BD00BF2E
:1085400018000100D8910B0030B50E4D2978BFF30B
:108550005B8F11F0010487B011D12846FCF7DEF9DA
:1085600068B16846FFF7D6FF6A4621460648FDF720
:10857000AFF82846FCF7D7F9044800F0DBF90248C9
:1085800007B030BD1CE7032020E7032013850B0054
:108590007047000038B5044614252A46002100F033
:1085A0000FFA25804025074925812846258200F0BD
:1085B000AAF804496060284600F0A5F8E06020466B
:1085C00038BD00BFD8910B0030B50E4D2978BFF3F0
:1085D0005B8F11F0010487B011D12846FCF79EF99A
:1085E00068B101A8FFF7D6FF01AA21460648FFF7A8
:1085F00065FE2846FCF797F9044800F09BF902480D
:1086000007B030BD38E703203CE7032091850B001D
:10861000232813B502D9002002B010BDA0F10B032E
:10862000022B1AD8174C2178BFF35B8F11F0010190
:108630000BD120460191FCF771F9019928B112483C
:10864000FFF76CFE2046FCF76EF90F4B1878FCF72D
:10865000A5FC0028DFD10120DEE7012809D8FFF7BB
:1086600073FF0021007CFCF7C9FC80F00100C0B260
:10867000D2E709380128EED8FFF7A6FF007CFCF707
:10868000FDFCF2E750E7032054E70320232838B528
:1086900004460D460AD8FF2908D0FFF7B9FF28B1D4
:1086A00029462046BDE83840FCF7D2BD38BD10B59C
:1086B0000446FCF7D5FD031FDBB2012B08D9204689
:1086C000FFF7A6FF20B12046BDE81040FCF7D0BD63
:1086D000002010BD0D2810B504469CBF0E34A4B276
:1086E0002046FFF795FF50B103212046FCF7A8FD77
:1086F000032804D12046BDE81040FCF7C1BD00208E
:1087000010BDFCF7F8B8FCF7F8B808B5FCF7A4FE04
:10871000014900F0F9B800BFF4910B007FB50024C7
:108720001023CDE90234036815469E6912686B4632
:10873000CDE90044B0479DF8043003F00603062B52
:1087400003BF009B2B600120204604B070BD009841
:10875000904214BF012006207047000010B5034B63
:108760000360044600F0CDF8204610BD34920B00A3
:1087700010B50446FFF7F2FF20460821FCF7BFF8CA
:10878000204610BD2DE9F0411F46DDE90834DDF833
:10879000188098450646154607D1079900F0B4F8A9
:1087A00018B165710020BDE8F0813946304600F00F
:1087B000ABF80028F6D00123C4F800802571A3711E
:1087C000F0E738B515461C4600F09EF820B10823A6
:1087D000E36006232560237138BD73B505460C465A
:1087E00001921E4600F090F850B9032E08D8236875
:1087F000019A5B692946204602B0BDE870401847DF
:1088000002B070BD10B5034B03600446FFF7A6FF2E
:10881000204610BD94920B0010B50446FFF7F2FFFE
:1088200020460C21FCF76BF8204610BDF7B5089FD9
:10883000974205460E4614460AD0A8680268089773
:10884000156A31462246AC4603B0BDE8F0406047A9
:108850001946019300F058F8019B0028EDD006203E
:1088600003B0F0BD2DE9F14F0D461946DDE90A4B85
:10887000DDE90CA681461746984600F045F890B110
:10888000002D3460377109DB61198A450CBF062160
:108890000121B171002001B0BDE8F08F0235F9D19E
:1088A0000123B371F6E7544506D15946484600F016
:1088B0002BF808B17771EDE7D9F808000368CDE926
:1088C0000CA6CDE90A4BDC693A4643462946A44644
:1088D00001B0BDE8F04F60472DE9F04107460C4676
:1088E00015461E46FFF76DFF48B9B86803689F69D3
:1088F0002A4633462146BC46BDE8F0416047BDE804
:10890000F081704700207047814208B50ED0406862
:1089100003782A2B0CD049680B782A2B08BF013129
:10892000FBF79CFFB0FA80F0400908BD0120FCE78E
:108930000020FAE7002301461A46184600F056B90F
:10894000024B1844407800F09700704761930B0089
:1089500010B501390244904201D1002005E00378AE
:1089600011F8014FA34201D0181B10BD0130F2E7EE
:108970000A44914200F1FF3300D1704710B511F85D
:10898000014B03F8014F9142F9D110BD884210B557
:1089900001EB020402D98442234607D8431EA142B8
:1089A00008D011F8012B03F8012FF8E70244014623
:1089B0008A4200D110BD13F8014D02F8014DF7E7CE
:1089C00002440346934200D1704703F8011BF9E7C4
:1089D00038B5104B1D68AB6B0446B3B91820FCF7D3
:1089E0001BFD0246A86320B90B4B0C484221FCF743
:1089F00043FD0B490B4BC0E900130B4B83600B236A
:108A0000838100210120C2E90401AB6B00221C61BB
:108A10005A6138BD74E50320CD920B00E4920B003F
:108A20000E33CDAB34126DE6ECDE0500C9B2034661
:108A300010F8012B1AB18A42F9D118467047002963
:108A400018BF0023F9E710B50446FFF7EFFF18B988
:108A50002046FBF70DFF204410BD034611F8012B03
:108A600003F8012B002AF9D1704710B57AB10346FB
:108A70000139841813F8010B11F8012F904201D12C
:108A8000A34201D1801A10BD0028F3D1FAE71046A5
:108A9000F9E710B5024601448A42134603D01C7818
:108AA0000132002CF8D1181A10BD38B503460C4617
:108AB00069B9BDE83840FFF7B9BF431C05462146F8
:108AC0001846FFF7B3FF0028F7D1284638BD002528
:108AD000F5E70000012B2DE9F04701D0242B06D942
:108AE000FCF7C2FC162303600020BDE8F087DFF826
:108AF000E4C00D462E4615F8014B14F80C7017F023
:108B00000807F7D12D2C32D12C780127B51C002B6A
:108B10005BD0102B09D1302C07D12C7804F0DF0466
:108B2000582C4DD16C781023023507F1004808F11C
:108B3000FF384FF0000CB8FBF3F9664603FB198AC7
:108B4000A4F1300EBEF1090F16D87446A34224DDFD
:108B5000BCF1000F1EDBB1451CD301D1A24519DBCE
:108B600006FB03464FF0010C15F8014BE8E72B2CF0
:108B700004BF2C78B51CCAE7A4F1410EBEF1190F51
:108B800001D8373CE2E7A4F1610EBEF1190F04D819
:108B9000573CDBE74FF0FF3CE6E7BCF1000F05DA9E
:108BA00022230360464642B930469EE707B176422B
:108BB000002AF9D0BCF1000F00D0691E1160F3E764
:108BC0003024002BB1D10823AFE7302CA5D00A23E5
:108BD000ABE700BF62930B0013460A46014602480A
:108BE0000068FFF777BF00BF74E503202DE9F84365
:108BF000DFF8B8800646D8F800001F460D469146BB
:108C000000F056F8254B1C6834B9254C1C60254BE8
:108C100013B11B68C4F8883063681F2B07DDD8F8D0
:108C2000000000F047F84FF0FF30BDE8F8834EB386
:108C3000D4F8880088B91C4B23B9D8F8000000F09C
:108C400038F8F0E74FF48470FCF7E6FB0028F4D026
:108C50000023C0E94033C4F88800636840F82390DB
:108C600001229A4000EB8301D0F800311343C0F891
:108C70000031022EC1F8807002BFD0F804311343D6
:108C8000C0F804316368D8F800005A1C02336260EF
:108C900044F8235000F00EF80020C6E7E8E7032070
:108CA0005CE703200000000019540B00D8E5032006
:108CB0007047704770470000000000000000FB3460
:108CC0009B5F80000080001000000000000000009A
:108CD00081480B00BD480B00E5480B00E9480B003C
:108CE0000000000043616C6C206F6E20707572652F
:108CF000207669727475616C00636F756E74203DC7
:108D0000202564004F75747075742050696E73204F
:108D100053657400496E7075742050696E732053EA
:108D200065740062666333376663362D36346231AC
:108D30002D346632642D613365352D6330646639B8
:108D4000306264356364640065353033643466379B
:108D50002D616439612D343133312D613139322D3A
:108D6000373135306233613766633738003131620D
:108D700061333563632D386564622D343961302D7C
:108D8000616336382D333735646565356637376648
:108D9000660074656D700043656E7472616C527824
:108DA0003031000000000000000000000000000062
:108DB0000000000005490B002D490B0000000000D9
:108DC0000000000031490B0065490B000D6B0B00E2
:108DD000B16C0B00000000000000000099540B0073
:108DE000A3540B00AD540B00B7540B00C1540B003F
:108DF000CD540B00D9540B00E1540B00E9540B0087
:108E0000F5540B00FD540B0007550B0011550B00DA
:108E100000000000000000005B560B0051560B00E4
:108E200047560B00FD550B003B560B002F560B0011
:108E3000D9540B00E1540B0023560B001B560B00BA
:108E400011560B0007560B0011550B0000000000D7
:108E500000000000000000000000000079560B0038
:108E6000C3560B009B560B007B560B00A3560B0002
:108E7000AB560B00B3560B00BB560B0025750075A7
:108E800025303478000000000000000000000000E1
:108E9000375B0B009F5B0B00755B0B005D6E0B007F
:108EA000675B0B00395B0B00495B0B00995B0B00A8
:108EB000595B0B00315B0B0000000000000000005C
:108EC000555C0B00455C0B00475C0B0025592D25BC
:108ED0006D2D25645425483A254D3A2553257A00B1
:108EE00061736374696D65006261756400536572D6
:108EF00069616C0053657269616C31004A534F4E71
:108F000053747265616D4C6F6748616E646C657215
:108F10000061707000253031307520005D20002C1C
:108F2000200028293A2000205B00636F6465203D03
:108F3000200025690064657461696C73203D200020
:108F40000D0A006D006C6E00666E00636F64650054
:108F500064657461696C000000000000000000009E
:108F6000E15E0B00075F0B00C55E0B0087570B002F
:108F70000000000000000000B5630B00CD630B0093
:108F80000D6B0B00B16C0B00000000000000000036
:108F9000E1630B00F5630B00E96C0B00CD5E0B0089
:108FA0000000000000000000DF5E0B00155F0B00FA
:108FB000716A0B00CF5E0B00000000000000000093
:108FC000DD5E0B00235F0B00F9620B00455F0B00B9
:108FD000417373657274696F6E4661696C75726511
:108FE0002066616C736500776972696E672E626CCA
:108FF0006500537461727420646973636F7665727F
:10900000696E672073657276696365732E004173BC
:1090100073657274696F6E4661696C7572652068FC
:10902000616C5F626C655F737461636B5F696E69CD
:1090300074286E756C6C70747229203D3D205359F4
:109040005354454D5F4552524F525F4E4F4E45006F
:109050005065657220646576696365206973206D6B
:10906000697373696E6721004661696C6564207479
:109070006F20617070656E64207065657220436555
:109080006E7472616C206465766963652E00436F4F
:109090006E6E656374656400446973636F6E6E65BC
:1090A00063746564004475706C6963617465642001
:1090B0006368617261637465726973746963206364
:1090C000616E6E6F742062652061646465642E0059
:1090D0004661696C656420746F20617070656E64B0
:1090E000206C6F63616C2063686172616374657288
:1090F00069737469632E0000000000000000000026
:10910000216F0B00856F0B0059700B00AF6F0B00C8
:10911000256F0B0000000000000000001D6F0B0019
:10912000936F0B001F6F0B00B56F0B00456F0B00AB
:1091300000000000000000001B6F0B00A16F0B007F
:10914000F5770B00BB6F0B00656F0B007BE327749B
:109150007BF815ACDD49A913000072F5FB349B5F69
:1091600080000080001000000000000000000000EF
:109170000000000041820B00AD820B0085820B00D5
:109180005D6E0B0055820B0071820B0063820B0039
:109190007F820B0043820B0047820B00000000001F
:1091A000000000008F830B0085830B007B830B0086
:1091B00071830B0065830B0059830B00D9540B009E
:1091C000E1540B004D830B0045830B003B830B00E8
:1091D00031830B0011550B0000537431395F53700C
:1091E0005F6D616B655F7368617265645F74616711
:1091F0000000000034920B00D9910B0094920B00F8
:1092000008920B00B8920B004E31305F5F637878A4
:10921000616269763131375F5F636C6173735F746C
:109220007970655F696E666F4500000000000000A0
:10923000FC910B005D870B0071870B0005890B000B
:1092400005890B00DB870B001D870B00C3870B0014
:1092500085870B004F870B0094920B0064920B00E4
:10926000FC910B004E31305F5F6378786162697604
:109270003132305F5F73695F636C6173735F747900
:1092800070655F696E666F450000000000000000B9
:1092900058920B0005880B0019880B0005890B00FC
:1092A00005890B00DB870B001D870B00D9880B009D
:1092B00065880B002D880B0034920B00C0920B00C8
:1092C000537439747970655F696E666F00524545F5
:1092D0004E54206D616C6C6F6320737563636565BC
:1092E000646564002F6D6E742F776F726B7370619D
:1092F00063652F776F726B73706163652F474343AC
:109300002D31302D706970656C696E652F6A656EE0
:109310006B696E732D4743432D31302D7069706535
:109320006C696E652D34385F323032303131323411
:109330005F313630363138303634312F7372632F27
:109340006E65776C69622F6E65776C69622F6C69E8
:1093500062632F7374646C69622F72616E642E6332
:109360000000202020202020202020282828282815
:1093700020202020202020202020202020202020ED
:109380002020881010101010101010101010101045
:109390001010040404040404040404041010101045
:1093A0001010104141414141410101010101010100
:1093B0000101010101010101010101010110101070
:1093C00010101042424242424202020202020202D3
:1093D0000202020202020202020202020210101043
:1093E000102000000000000000000000000000004D
:1093F000000000000000000000000000000000006D
:10940000000000000000000000000000000000005C
:10941000000000000000000000000000000000004C
:10942000000000000000000000000000000000003C
:10943000000000000000000000000000000000002C
:10944000000000000000000000000000000000001C
:10945000000000000000000000000000000000000C
:1094600000000000494D0B00E9550B0065560B004C
:10947000A55E0B00B15E0B00FD6A0B0031820B0094
:08948000F9820B0099830B0037
:10948800040000001400000003000000474E5500CF
:10949800B05F04948D247FD7C9FE484D3EC952520F
:0494A8003A9B2C9D22
:1094AC0005000000010000000300000002000000A5
:1094BC0001000000040000000F000000100000007C
:1094CC000E000000E08E0B00A88F0B00C08F0B006D
:1094DC0078E5032000000000000000000000000000
:1094EC000000000000000000000000000000000070
:1094FC000000000000000000000000000000000060
:10950C00000000000000000000000000000000004F
:10951C00000000000000000000000000000000003F
:10952C00000000000000000000000000000000002F
:08953C0000000000ECE7032031
:049544000000000023
:10954E0000000102030405060708090A0B0C0D0EA4
:10955E000F101112131415161718191A1B1C1D1E95
:04956E001F20280092
:0495720078563412E1
:04000003B0004020E9
:00000001FF
