:02000002B0004C
:1040000000400B00CA6C0B00000006000C0005020B
:0840100004015014000000003F
:04401800D4660B005F
:10401C0010F8012B11F8013B012A28BF9A42F7D066
:10402C00D01A7047034613F8012B002AFBD1181A3B
:10403C000138704709480A49884208B505D0094A31
:10404C00824202D0121A02F063FA0748074A002192
:10405C00121A02F085FA014808BD00BF14E60320CD
:10406C00306C0B0080E6032080E60320F0E7032091
:10407C0070B5074E074C00F0DDFDA41BA40800250D
:10408C00AC4200D170BD56F8043B98470135F7E7B8
:10409C00E86B0B000C6C0B0000F03EB808B500F0A0
:1040AC0093F8BDE8084000F07DBD00F0FBBA00F0CD
:1040BC00F9BA00F0FFBA0078B0FA80F04009704706
:1040CC000123037070470EB400B58CB00DAA4FF0ED
:1040DC00200C52F8041B0392CDE900120023016856
:1040EC0004AA1E20CDE904C300F050FA0CB05DF810
:1040FC0004EB03B07047000008B5044B044982B2CE
:10410C001A800448FFF7DFFF08BD00BFBCE60320A0
:10411C00E8660B0014E7032070B590B000F066FC65
:10412C004FF4165100F056FC01F050F901F098F9DB
:10413C0001F04CF9214A224C01460BA801F058FE23
:10414C000BA801F032FA01F041F91E4A01460BA806
:10415C0001F04EFE0BA801F028FA03A801F04BFB6E
:10416C000FCC06AD0FC506AD0FCD26680BAC0FC43A
:10417C000BA8266000F03EFF04460BA8B4B900F073
:10418C0055FF0094ADF80A0002230DF10A02032139
:10419C0003A801F025FB01F019F9002203A901F095
:1041AC00B0F9039800F086FA10B070BD00F040FF33
:1041BC0000230093024610230721E9E7C8E60320F9
:1041CC0080E60320C0E603207FB501F0FFF801F084
:1041DC0057F960B1074A0848138801339BB2138022
:1041EC00ADF804300222002301A900F0DFFF07B074
:1041FC005DF804FBBCE60320C8E603202DE9F0477C
:10420C00364C374D3749384E98B0204600F090FF69
:10421C003649284600F08CFF3549304600F088FFBF
:10422C000FCE04AF0FC7D6F800C0C7F800C02746A2
:10423C000FCF09AE0FC60DF1100ABAE80F00D7F870
:10424C000090C6F800900EAE0FC6DFF8B8E0C6F8C6
:10425C0000C04FF000080DF1240CCEE90088BCE83A
:10426C000F0013AE0FC6C6F8009013AE0EAB70461F
:10427C00CDE901881F4900964FF0100201F08EFC29
:10428C000FCD0DF1100CACE80F000FCCD5F800E001
:10429C00CCF800E009AD0FC5D7F800C0C5F800C0D8
:1042AC0004AD0FCD0EAC0FC4134FC4F800E009AD34
:1042BC00C7E900880FCD34460FC4104BC4F800C0BA
:1042CC000F49CDF80880CDE900634FF004020EAB26
:1042DC00384601F063FC18B0BDE8F08780E6032097
:1042EC0094E60320F8660B00A8E603201D670B007C
:1042FC0042670B0067670B00C0E6032005410B000B
:10430C006A670B00C8E6032008B5024B1B681B68E4
:10431C00019308BD4C02030008B5024B1B685B6897
:10432C00019308BD4C02030008B5024B1B681B69C6
:10433C00019308BD4C02030008B5024B1B685B6976
:10434C00019308BD4C02030008B5024B1B689B6926
:10435C00019308BD4C02030008B5024B1B68DB69D6
:10436C00019308BD4C02030008B5024B1B681B6A85
:10437C00019308BD4C02030008B5024B1B68DB68B7
:10438C00019308BD3C02030008B5024B1B681B6976
:10439C00019308BD3C02030008B5024B1B685B6926
:1043AC00019308BD3C02030008B5024B1B689B69D6
:1043BC00019308BD3C02030008B5024B1B68DB6986
:1043CC00019308BD3C02030008B5024B1B689B6AB5
:1043DC00019308BD3C02030008B5024B1B681B6C23
:1043EC00019308BD3C02030008B5024B1B685B69D6
:1043FC00019308BD6402030008B5024B1B685B6C9B
:10440C00019308BD4802030008B5024B1B68DB6C26
:10441C00019308BD4802030008B5024B1B685B6D95
:10442C00019308BD4802030008B5024B1B689B684A
:10443C00019308BD7802030008B5024B1B681B6D85
:10444C00019308BD7802030008B5024B1B689B6DF5
:10445C00019308BD7802030008B5024B1B681B6E64
:10446C00019308BD7802030008B5034B1B68D3F811
:10447C009830019308BD00007802030008B5034B87
:10448C001B68D3F8A830019308BD00007802030024
:10449C0008B5034B1B68D3F8B430019308BD00007A
:1044AC007802030008B5034B1B68D3F8D83001938E
:1044BC0008BD00007802030008B5034B1B68D3F855
:1044CC00DC30019308BD00007802030008B5034BF3
:1044DC001B68D3F8EC30019308BD00007802030090
:1044EC0008B5034B1B68D3F8F030019308BD0000EE
:1044FC007802030008B5034B1B68D3F80031019315
:10450C0008BD00007802030008B5034B1B68D3F804
:10451C000431019308BD00007802030008B5024B7A
:10452C001B685B68019308BD1802030008B5024BB9
:10453C001B68DB68019308BD1802030008B5024B29
:10454C001B685B69019308BD1802030008B5024B98
:10455C001B689B68019308BD6802030008B5024BF9
:10456C001B68DB68019308BD6802030008B5024BA9
:10457C001B685B6B019308BD6002030008B5024B1E
:10458C001B681B6D019308BD6002030008B5024B4C
:10459C001B685B6D019308BD6002030008B5024BFC
:1045AC001B68DB6B019308BD4402030008B5024B8A
:1045BC001B685B68019308BD4002030008B5024B01
:1045CC001B689B68019308BD4002030008B5024BB1
:1045DC001B68DB68019308BD4002030008B5024B61
:1045EC001B681B69019308BD4002030008B5024B10
:1045FC001B685B69019308BD4002030008B5024BC0
:10460C001B689B69019308BD4002030008B5024B6F
:10461C001B68DB69019308BD4002030008B5024B1F
:10462C001B681B6A019308BD4002030008B5024BCE
:10463C001B681B6B019308BD4002030008B5024BBD
:10464C001B685B6B019308BD4002030008B5024B6D
:10465C001B681B6C019308BD4002030008B5024B9C
:10466C001B685B6C019308BD4002030008B5024B4C
:10467C001B685B68019308BD2002030008B5034B5F
:10468C001B68D3F88830019308BD0000200203009A
:10469C0008B5034B1B68D3F89430019308BD000098
:1046AC002002030008B5024B1B681B68019308BD70
:1046BC001C02030008B5024B1B685B68019308BD24
:1046CC001C02030008B5024B1B689B68019308BDD4
:1046DC001C02030008B5024B1B68DB6A019308BD82
:1046EC001C02030008B5024B1B681B6C019308BD30
:1046FC001C02030008B5024B1B685B6C019308BDE0
:10470C001C020300002340681A46FFF74FBF4068A5
:10471C0000220221FFF75ABF002240681146FFF722
:10472C004DBF002240681146FFF758BF0023406878
:10473C001A461946FFF75ABF002340681A46194615
:10474C00FFF75CBF40680021FFF780BF4068002185
:10475C00FFF784BF4068002281F00101FFF756BFCC
:10476C0040680022FFF762BF002240681146FFF745
:10477C0065BF002240681146FFF750BF2DE9F0439A
:10478C0095B014460D46074600F090F900211C2206
:10479C000DA8009101F0E4FE40230C9320466B46DB
:1047AC000CAA0021FFF7DAFE044600284BD1024682
:1047BC0001216868FFF712FF0221804622466868D3
:1047CC00FFF70CFF009E81462146002E3BD00029AE
:1047DC0039D17368022B03D00A2B11D0F669F4E798
:1047EC00B8F1000FFAD0716906A8043107AD00F0DA
:1047FC008BF90FCD3C1D0FC42B6823704146EDE7A0
:10480C00B9F1000FEAD07469102201A801F0A8FEDA
:10481C0006238DF8143001AD04F108031834186820
:10482C0059682A4603C20833A3421546F7D101A999
:10483C0006A807AD00F048F90FCD3C1D0FC42B683E
:10484C0023704946CAE70098FFF780FE384615B03A
:10485C00BDE8F083024B034A1A6000225A6070478D
:10486C00D0E6032078670B00002240681146FFF762
:10487C00B5BE002240681146FFF7D0BE002240684A
:10488C001146FFF7DBBE40680022FFF7CFBE406841
:10489C00002281F00101FFF7B9BE002340681A46DF
:1048AC001946FFF7ABBE002340681A461946FFF7BE
:1048BC009DBE002240681146FFF780BE4068002272
:1048CC000221FFF783BE002340681A46FFF76EBE35
:1048DC00024B04225A60024A1A607047D8E6032041
:1048EC00B4670B0038B5046805467CB16368013BBE
:1048FC0063605BB9236820469B689847A368013BBB
:10490C00A3601BB923682046DB689847284638BD4E
:10491C0038B50D1E0446006803DDFFF7D3FE18B949
:10492C0038BDFFF7C7FE00202060A5600120F7E727
:10493C00417470477047704708B50021007CFFF741
:10494C0003FD40EAE07008BD08B50121007CFFF7CB
:10495C00FBFC40EAE07008BD08B5007CFFF7ECFCFE
:10496C0020EAE07008BD08B5007CFFF7DDFC20EA0A
:10497C00E07008BD13B50446007C0191FFF7DCFC28
:10498C000028019901DC607C20B1207CFFF7E4FC5D
:10499C0020EAE07002B010BD007CFFF7E5BC10B55A
:1049AC0014210446FFF785FB204610BD10B54FF4CB
:1049BC007A73044608460021C4E90113044B2360B2
:1049CC000123207463741146FFF79EFC204610BD32
:1049DC00F8670B00007C0022FFF79EBC10B5142278
:1049EC000446002101F0BCFD204610BD10B50F4C53
:1049FC0088B003A8FFF7F2FF2178BFF35B8F11F0AB
:104A0C0001010FD120460191FFF755FB019948B1E7
:104A1C0003AA0748FFF7CAFF2046FFF751FB0548DA
:104A2C0001F060FD024808B010BD00BFE0E60320B5
:104A3C00E4E6032041490B00704710B518210446E9
:104A4C00FFF737FB204610BDF0B5037D062B8DB06C
:104A5C000E4600F104074FF0000412D000F10805D7
:104A6C0015F8011D0A22304600F059F9AF420444F2
:104A7C0019D0002CF4D02E21304600F04DF904440E
:104A8C00EEE72F236A4639460A208DF80040FFF7DF
:104A9C00ABFC6846FFF7C6FA33680246DB6869462A
:104AAC0030469847044620460DB0F0BD10B5054B76
:104ABC000446112240F8043B002101F051FD204630
:104ACC0010BD00BF28680B000346074A10B543F819
:104ADC00042B01F1100251F8044B43F8044B9142A2
:104AEC00F9D10A781A7010BD28680B0010B59DF822
:104AFC00084044EA032343EA024242EA01610423E8
:104B0C004160037510BD000007B5064B0360CB7800
:104B1C0000938B784A780978FFF7E8FF03B05DF8CB
:104B2C0004FB00BF28680B0010B58368044613B162
:104B3C00032201469847204610BD13B50B4602468A
:104B4C00D0E900016C4684E8030093E8030082E896
:104B5C00030094E8030083E8030002B010BD0000DA
:104B6C00014B1860704700BF18E6032008B50B4BCB
:104B7C0043B1FFF73BFF03681B699847002801DD31
:104B8C00AFF30080064B43B101F070FB03681B6967
:104B9C009847002801DDAFF3008008BD000000003D
:104BAC000000000008B5FFF7E1FFFFF7C7FC014B61
:104BBC00186008BD40E703200548064A064908B5B9
:104BCC00121A01F0A5FC054B054A1A6008BD00BF7E
:104BDC0000F4032004F403209C6C0B0000F403206D
:104BEC001E1C279A07B5002300931A466FF0770115
:104BFC00FFF74EFD03B05DF804FB000007B54388DA
:104C0C000A2B08D0502B0BD1094B1B684BB103B0AE
:104C1C005DF804EB1847FFF7E5FF03B05DF804FB04
:104C2C00002300931A466FF07701FFF731FDF4E78C
:104C3C00FCE6032010B512480021FFF75BFD114B79
:104C4C001A68114B9A42114B0CBF012200221A70A8
:104C5C0001D0FFF7B1FFFFF761FC044601F088FCBF
:104C6C000B4B13B12046AFF3008000210848FFF72F
:104C7C0095FCBDE8104007480021FFF7FFBC00BFC2
:104C8C006D4B0B0000F403201E1C279AF8E6032042
:104C9C0000000000094C0B00014B00229A60704789
:104CAC0000E70320024B1A68024B1A60704700BFE2
:104CBC0014E6032010E70320014B024A1A607047E8
:104CCC0014E7032050680B00F8B506460D468F1804
:104CDC000024BD420CD0336815F8011B9B6830468C
:104CEC009847031E01DB1C44F3E7002C08BF1C464D
:104CFC002046F8BD13B50446084659B10191FFF79B
:104D0C0091F923680199DB680246204602B0BDE8A0
:104D1C001040184702B010BD03689B68184730B5A7
:104D2C008BB00023012A8DF8243098BF0A2209ACDD
:104D3C000D46B1FBF2F101FB125303F0FF03092BFB
:104D4C0094BF30333733DBB2AA4204F8013DEFD9BC
:104D5C002146FFF7CFFF0BB030BD7047704770474F
:104D6C0070470000064B994210B500F10C0405D0B9
:104D7C00084601F0A5FA002808BF0024204610BD03
:104D8C00E8670B00064B994210B500F10C0405D0F6
:104D9C00084601F095FA002808BF0024204610BDF3
:104DAC00E8670B00064B994210B500F10C0405D0D6
:104DBC00084601F085FA002808BF0024204610BDE3
:104DCC00E8670B0010B568210446FFF772F920461E
:104DDC0010BD10B528210446FFF76BF9204610BD15
:104DEC0010B530210446FFF764F9204610BD682148
:104DFC00FFF75FB92821FFF75CB93021FFF759B9EC
:104E0C00F0B50025EC1C8C420DD86E1C445D875D02
:104E1C00974205D12644B14205D31D60601CF0BDFC
:104E2C0001342544EEE70020F9E70000024A03496B
:104E3C000A20FFF79BBB00BF39450B0054680B00E1
:104E4C0030B40D4611461A46036809682868D3E940
:104E5C000043A44630BC6047012A38B5044602D151
:104E6C000B68236003E0022A03D0032A0DD0002034
:104E7C0038BD08200D68FFF718F903460028F0D05C
:104E8C0095E8030083E80300EBE700680028EED008
:104E9C000821FFF70EF9EAE710B504465830FFF782
:104EAC0043FE04F14800BDE8104001F053B9A0F1F5
:104EBC003003DAB2092A01D818467047A0F1610311
:104ECC00052B01D857387047A0F14103052B94BF2F
:104EDC0037384FF0FF30704710B500230370044B88
:104EEC0004461868FFF790FA01232370204610BD82
:104EFC0020E7032010B5037804461BB1024B186859
:104F0C00FFF78AFA204610BD20E7032082B0034643
:104F1C00086849686A4603C26A4603CA186018469C
:104F2C00596002B0704708B582798B799A4206D1E4
:104F3C00062201F0DDFAB0FA80F0400908BD00202D
:104F4C00FCE74FF0FF33036083800020704708B507
:104F5C000246002101604160FFF7F3FF917110469A
:104F6C0008BD000010B501230361054B024603F197
:104F7C00100153F8044B42F8044B8B42F9D110BD8D
:104F8C00C2660B0010B50B460446B1B1012A01F103
:104F9C0010020AD1014653F8040B41F8040B93425A
:104FAC00F9D101232361204610BD411E12F8010DD9
:104FBC0001F8010F9A42F9D1F3E7102201F0D0FA6F
:104FCC00F1E738B5044615461A46FFF7DBFFA58115
:104FDC00204638BD08B5026922B98089003818BF4F
:104FEC00012008BD0249102201F082FAF6E700BF49
:104FFC00E0690B000069704738B50C46142200219B
:10500C00054601F0ADFA23691BB9A3892B8028460C
:10501C0038BD01232B7421462B4604F1100251F8A4
:10502C00040B43F8040B9142F9D1F0E780897047E7
:10503C00704708B502690B699A4206D1102201F03B
:10504C0057FAB0FA80F0400908BD0020FCE70000D8
:10505C0001232DE9F3410361344B0C46064602460D
:10506C0003F1100153F8040B42F8040B8B42F9D1F5
:10507C0044B32421204601F0A9FA04284FF000057E
:10508C0023D1ADF8045001AFA51C063415F8020C61
:10509C00FFF70DFFB0F1000812DB15F8010CFFF75C
:1050AC0006FF00280CDB023540EA0810A54207F881
:1050BC00010BEBD19DF8053033739DF804307373FD
:1050CC000023336102B0BDE8F0814FF010082421B9
:1050DC00204601F07BFAA84207D842460021304610
:1050EC0002B0BDE8F04101F03BBAB8F1000FE9D0D5
:1050FC00605DFFF7DCFE030615D4000108F1FF38F4
:10510C00C7B206F808702421204601F05FFA013579
:10511C00A84208D9605DFFF7CAFE40B20028A4BFC0
:10512C00384306F808000135D1E700BFC2660B0012
:10513C0013B504460191FFF715FF20460199FFF7BF
:10514C0087FF204602B010BD38B54FF6FF7300251F
:10515C00044643800E22294605700571063001F085
:10516C00FFF904F11400FFF7FDFE04F12800FFF72E
:10517C00F9FE044904F13C0001F037F8656520465E
:10518C0038BD00BFEB680B0010B5D0E9063203EB5D
:10519C00C2029342184606D0046824888C4203F15C
:1051AC000803F6D110BD0020FCE70000F0B5064660
:1051BC0085B01F460D46002950D0002A4ED00468F9
:1051CC002378F42A28BFF42243B32379980709D50E
:1051DC00A08903920023FFF75BF90028039A03DAF6
:1051EC0005B0F0BD6FF0770034682379D90609D586
:1051FC00012F07D0A0890023294605B0BDE8F04057
:10520C00FFF778B99B06EBD5022FE9D0A0890023D4
:10521C00294605B0BDE8F040FFF776B960884FF637
:10522C00FF7188421CD021794E0701D5012F04D182
:10523C000B0709D46FF07700D2E7A18900931346CE
:10524C002A46FFF739F9CBE7022FF3D00023A189C7
:10525C00009313462A46FFF725F9C1E70248BFE73A
:10526C006FF0D100BCE700BFF2FEFFFF2DE9F0416B
:10527C0000260660074628200C46FEF716FF051E82
:10528C0005F10C080FD00123C5E90133084B2B6045
:10529C004046FFF767FE0FCC2E6285F82460464629
:1052AC000FC623683360C7E900853846BDE8F08136
:1052BC00A0690B0070B50025056006463020FEF78E
:1052CC00F4FE044688B10123C0E90133094B0360A5
:1052DC004FF6FF7383810E30FFF739FEC4E9065594
:1052EC00C4E90855C4E90A55A57574600C343460DA
:1052FC00304670BDBC690B0037B50D46044601A89D
:10530C00FFF7EAFD2A68D2F802302360D2F80630A3
:10531C00636001A8FFF7EEFD204603B030BD30B549
:10532C00054687B00C4601A8FFF7D6FD2A6823680E
:10533C0012881B889A420DD1294602A8FFF7DCFF80
:10534C00214604A8FFF7D8FF04A902A8FFF7EBFD3C
:10535C00044600B9002401A8FFF7CCFD204607B095
:10536C0030BD000010B504466420FEF79EFE68B107
:10537C000023C0E90033C0E90233C0E90433C0E9BB
:10538C0006330362C362C363C364C365206020B980
:10539C000A4A0B490A20FFF7E9F80020FFF744F806
:1053AC0020B1064A07490A20FFF7E0F821680648B1
:1053BC000022FFF795F8204610BD00BF39450B00C1
:1053CC0054680B0092680B0035590B0010B50A4C51
:1053DC002378BFF35B8FDB070CD42046FEF76BFE04
:1053EC0040B10648FFF7BEFF2046FEF769FE0448B1
:1053FC0001F078F8014810BD18E7032024E70320DA
:10540C0021560B0030B50368093B012B8DB00446C7
:10541C000D4611D8FFF7DAFFA1880068FFF7B4FE3C
:10542C00034658B92022CDE904200B4A00920B49BF
:10543C0004AA3220FFF7A2F80DB030BD6A6D002A25
:10544C00FAD0D4E9032105F14C00CDE90312AC6D7F
:10545C0004AA03A9A047EFE7D4680B006B680B0004
:10546C0008B50020FEF7E0FF00EAE07008BD19B9AE
:10547C000A460846FEF7E0BFD1E900010022F9E731
:10548C000368D8690028D4BF00200120704738B5C4
:10549C00141E4368054602DB62189A4200DD5C1A52
:1054AC002A68501801191A44521A01F03FF86A6818
:1054BC00121B6A6038BD37B50A4604460D4601AB6F
:1054CC00D0E90001FFF79CFC024638B10199204657
:1054DC00FFF7DDFF29462046FFF7EDFF03B030BD97
:1054EC0010B50C4629B90A460846BDE81040FEF72F
:1054FC00ABBF01212046FFF7DEFFD4E900010022FB
:10550C00F3E738B504461546FFF7B1FF00280ADB70
:10551C0029462046FFF7E4FF002804DBBDE83840AD
:10552C000020FEF799BF38BD38B5002304468360D0
:10553C0008200D46FEF7B9FD18B12B6803606B68A7
:10554C004360034BE360034B2060A360204638BDEF
:10555C004D4E0B00654E0B000B68036013B15A687F
:10556C0001325A60704710B551F8043B044640F8BC
:10557C00043BFFF7F1FF23680BB9FFF757FC2046FC
:10558C0010BD10B551F8043B044640F8043BFFF73E
:10559C00E3FF204610BD10B551F8043B044640F81B
:1055AC00043BFFF7D9FF204610BD10B5044604306C
:1055BC00FFF798F9204610BD70B5D0E900530446AA
:1055CC0005EBC306AE4204D0281DFFF78BF9083556
:1055DC00F8E72068FFF76EF8204670BD70B5D0E98B
:1055EC000053044605EBC306AE4204D0281DFFF75A
:1055FC0079F90835F8E72068FFF75CF8204670BDAC
:10560C0010B504462430FFF7E9FF04F11800FFF74A
:10561C00D3FF10BD70B5174B1C6854B304F1540084
:10562C00FFF782FA04F14400FFF77EFA04F134002C
:10563C00FFF77AFA04F12400FFF776FAD4E906535F
:10564C0005EBC306AE4204D0281DFFF74BF9083515
:10565C00F8E7A069FFF72EF804F10C00FFF7BEFF86
:10566C002046FFF7A9FF20466421BDE87040FEF7F5
:10567C0020BD70BD24E7032013B50023D1E90042FF
:10568C00C1E900330368009304604368426001A8D9
:10569C000193FFF727F902B010BD826810B50AB963
:1056AC0000F00AFEBDE81040C368184708B58368CF
:1056BC008B4202DAFFF72CF908BD0120FCE72DE93B
:1056CC00F0410F4641681D461944836899420446CF
:1056DC00904612DC266862683E44D21B3146701933
:1056EC0000F024FF2A464146304600F011FF636863
:1056FC002B4463600120BDE8F081FFF709F9002815
:10570C00E8D1F8E7F8B50D46D0E901139942044603
:10571C0016460BDA276862687919521B481C00F090
:10572C0005FF7E55636801336360F8BD0131FFF7F7
:10573C00EFF80028EED1F8E70A464168FFF7E2BF20
:10574C002DE9F74304461D460F4601AB90460A4629
:10575C00D0E900019DF82890FFF752FBAE1C63685E
:10576C000246B9F1000F26D128B333441B1AFF2B84
:10577C0009D801992046FFF78AFE6168204631441A
:10578C00FFF794FF18B9606803B0BDE8F0836A1C9A
:10579C000199D2B22046FFF7B5FF01993A46013183
:1057AC002046FFF7AFFF01992B46424602312046B7
:1057BC00FFF785FFE7E7F118FF29E4D82046FFF74C
:1057CC0075FF0028DFD0691CC9B22046FFF7B4FF73
:1057DC0039462046FFF7B0FF61682B464246E6E7A4
:1057EC0030B49DF808501AB1029530BCFFF7A8BF31
:1057FC00406830BC70471FB50023C0E9003383609C
:10580C000622009301238DF80F2019460DF10F028B
:10581C000446FFF7E5FF204604B010BD8842F8B5FA
:10582C0004460D46164614D9904213D2A2F108062E
:10583C00751AA1F108072C44B74218D01CB1314697
:10584C002046FFF7A8FE301DFFF74CF8083E083C39
:10585C00F2E70CD0B5420AD01CB129462046FFF71E
:10586C009AFE281DFFF73EF808350834F2E7F8BD1C
:10587C00F7B5044646686846FFF78DFED4E9017318
:10588C009F4212DB0137002F29DDF800FEF70AFFDB
:10589C000546F0B1D4E9001201EBC202FFF7BEFFDE
:1058AC002068FEF707FF2560A7602368626803EB9A
:1058BC00C60603EBC202314606F10800FFF7AEFF45
:1058CC001EB169463046FFF766FE636801336360BC
:1058DC00012501A8FFF706F8284603B0F0BD002506
:1058EC00DEE7F8B5D0E9004305460F4604EBC306E6
:1058FC00A64205D039462046FFF711FD08B114B970
:10590C00F8BD0834F4E7201DFEF7ECFFD5E90032B2
:10591C0004F1080103EBC2022046FFF77FFF6B681E
:10592C00013B6B60ECE700002DE9F04105468EB0C1
:10593C0003A80C46FFF7D0FA2E68F31E0D2B3CD8AB
:10594C00DFE813F00E0057003B00D3003B003B0098
:10595C003B003B003B009D009D009D009D009D0079
:10596C0004A8FFF7A7FC049BAA891A80696804980D
:10597C0008310230FFF7CAFA04A906A8FFF70BFE9C
:10598C0006A904F11800FFF773FF054607A8FEF7F8
:10599C00A9FFC5B92023CDE906355E4B5E490093BE
:1059AC0006AA2B460120FEF7E9FD049B2946188820
:1059BC00FEF75AFD05A8FEF795FF03A8FFF79AFA24
:1059CC000EB0BDE8F081E36A23B104A904F1240010
:1059DC00FFF763FE05A8FEF785FF20210023CDE924
:1059EC0006134E4A00924C4906AA0120FEF7C6FD4A
:1059FC00E3E7A9892046FFF7C7FB06460028DCD061
:105A0C000568D5E906324FF6FF71298003EBC20217
:105A1C009A4203D053F8080B4180F9E7D5E9037398
:105A2C0007EBC308B84504D0381DFEF75BFF0837F9
:105A3C00F8E700232B61D5E9067307EBC308B845DB
:105A4C0004D0381DFEF74EFF0837F8E70023EB6152
:105A5C00AB72E36B23B1314604F13400FFF71DFE4A
:105A6C0033684FF6FF721A80314604F11800FFF7C5
:105A7C0038FF20220023CDE90623294AB2E7A98961
:105A8C002046FFF781FB002897D0E36C002B94D0C5
:105A9C0000230D2EADF8163001D0102E17D1002397
:105AAC0069681A4606258DF8153004918DF8142076
:105ABC000690DDE9040109AB8DF81C60089583E8BC
:105ACC000300236D06A904F14400984775E70F2ED7
:105ADC0001BF2B7A696803F0010208250FBFC3F3DD
:105AEC0040031A4619461D46DDE7A9892046FFF7F3
:105AFC004BFB014600283FF460AFE36D002B3FF4F5
:105B0C005CAF6B68069306AA236E04F154009847A9
:105B1C0053E700BFEC680B006B680B0012690B00BD
:105B2C001C690B0038B505460C46FFF706F8AB6848
:105B3C00A268AA60A360EB68E268EA60E36038BD23
:105B4C0070B504468CB00E4601921D46FFF7FCFA68
:105B5C002671019904F13C0000F05BFB04F14C064A
:105B6C00CDB1109B029502A904A80393FFF7DCFCAE
:105B7C00002308A904A80A93FFF7D4FF314608A80C
:105B8C00FFF7D0FF08A8FEF7CFFF04A8FEF7CCFF65
:105B9C0020460CB070BD0695EAE700002DE9F04FE9
:105BAC0087B01D46DDE9104380468B46924612991C
:105BBC0003930022682002910492FEF776FA061EE7
:105BCC0006F10C0918D001223746C6E901220299C8
:105BDC00154A47F8202B039B00915A4651464846DC
:105BEC00FFF7AEFF0FCD0FC72B683B600FCC06F154
:105BFC0034050FC523682B6004A94046CDE90496F3
:105C0C00FFF73AFD05A8FEF76DFED8F800303BB95A
:105C1C00064A07490A2007B0BDE8F04FFEF7A6BCBC
:105C2C0007B0BDE8F08F00BF84690B0039450B004D
:105C3C0054680B008842F8B504460D46164614D934
:105C4C00904213D2A2F10806751AA1F108072C4450
:105C5C00B74218D01CB131462046FFF792FC301DDC
:105C6C00FEF740FE083E083CF2E70CD0B5420AD0E5
:105C7C001CB129462046FFF784FC281DFEF732FE96
:105C8C0008350834F2E7F8BD70B50E1E054611DD77
:105C9C00F000FEF707FD044658B1D5E9001201EB00
:105CAC00C202FFF7C7FF2868FEF704FD2C60AE6048
:105CBC00012070BD0024F6E773B5044645686846BC
:105CCC00FFF75FFCD4E90113994210DA236862688C
:105CDC0003EBC50503EBC202294605F10800FFF7EB
:105CEC00A9FF8DB9636801336360012606E00131B9
:105CFC002046FFF7C9FF06460028E7D101A8FEF7AA
:105D0C00F1FD304602B070BD69462846FFF739FCFC
:105D1C00E8E78842F8B504460D46164614D9904279
:105D2C0013D2A2F10806751AA1F108072C44B74248
:105D3C0018D01CB131462046FFF715FC301DFEF77C
:105D4C00D1FD083E083CF2E70CD0B5420AD01CB19C
:105D5C0029462046FFF707FC281DFEF7C3FD083532
:105D6C000834F2E7F8BD70B50E1E054611DDF000E3
:105D7C00FEF798FC044658B1D5E9001201EBC202BB
:105D8C00FFF7C7FF2868FEF795FC2C60AE6001207A
:105D9C0070BD0024F6E773B5044645686846FFF706
:105DAC00E2FBD4E90113994210DA2368626803EB31
:105DBC00C50503EBC202294605F10800FFF7A9FF50
:105DCC008DB9636801336360012606E0013120461A
:105DDC00FFF7C9FF06460028E7D101A8FEF782FDB0
:105DEC00304602B070BD69462846FFF7BCFBE8E7B9
:105DFC002DE9F04F1746A1B080460AA80E46FFF7D2
:105E0C006BF83C68237953B939464046FFF7ABFB36
:105E1C000AA8FFF76FF8404621B0BDE8F08F336851
:105E2C00D3E9035305EBC303039304F1280A04F1EC
:105E3C00140B039B9D4221D0D5F80090584609F1D4
:105E4C001401FFF7F6F8B8B109F128015046FFF735
:105E5C00F0F888B12368D9F80020534033F47F431D
:105E6C000AD12022CDE915235E4A009215AA5E497B
:105E7C003220FEF783FBC7E70835DAE75046FFF719
:105E8C00A9F860B95949012215A815ADFFF77AF8A0
:105E9C000FCDD446ACE80F002B68CCF8003033683B
:105EAC00D3E9005305EBC30B5D45A94651466ED0B3
:105EBC0055F8080BFFF7BDF80028F5D004F1140ACB
:105ECC005046FFF787F888B9494B48491A88013280
:105EDC0092B21A8015A8012315ADFFF772F80FCDF9
:105EEC00D446ACE80F002B68CCF80030414B15932E
:105EFC002822002116A800F033FB514604A8FFF716
:105F0C007BF804AB18AA0DF1200C186859681546DB
:105F1C0003C5083363452A46F7D1186828602379EE
:105F2C008DF85830D9F800309B8AADF87430E36B9B
:105F3C001793314B0022A11D15A8CDE91E34FEF795
:105F4C00C5FA00287FF460AF01232370346839460A
:105F5C000C340DA8FFF707FB20460DA9FFF71BFF1C
:105F6C0004460EA8FEF7BEFC002C7FF44DAF202398
:105F7C00CDE90D34214B00930DAA234677E7394622
:105F8C004046FFF7F0FA0CA8FEF7ACFC40E70BA874
:105F9C00FFF76CF9514615A8FFF72EF80B9A002362
:105FAC00143215A90120FEF769FA0028E7D13568EB
:105FBC000BA90DA8FFF7E5FA28460DA9FFF77CFE03
:105FCC0005460EA8FEF78EFC002DD8D0326853681B
:105FDC00126803F10053013B0CA802EBC309FEF756
:105FEC0081FC6BE729690B006B680B00D0690B0017
:105FFC001CE7032003002C0011540B0054690B0008
:10600C00024800230360FEF7F7B900BF20E7032026
:10601C0070474174704708B5007CFEF7D5F920EA4B
:10602C00E07008BD08B5007CFEF7AEF920EAE07020
:10603C0008BD08B5007CFEF7B7F940EAE07008BD72
:10604C0008B5007CFEF7A8F940EAE07008BD007CBA
:10605C00FEF7B2B937B5457C04462DB1207C03B0B0
:10606C00BDE83040FEF788B9007C0191FEF7ACF931
:10607C0000280199F2DC284603B030BD10B514217C
:10608C000446FEF716F8204610BD000010B54FF47C
:10609C007A730446084611460022C4E90123044BD6
:1060AC002360012320746374FEF796F9204610BD1B
:1060BC00F8690B00054B02221A60054B054A9A60E1
:1060CC000020C3E90000FEF7D1BA00BF34E703207B
:1060DC0028E703200000FFFF002240681146FEF76E
:1060EC009DBA002240681146FEF7A8BA406800220B
:1060FC00FEF79CBA4068002281F00101FEF786BAD7
:10610C00002340681A461946FEF778BA0023406807
:10611C001A461946FEF76ABA002240681146FEF785
:10612C005DBA002240681146FEF748BA406800226A
:10613C000221FEF74BBA002340681A46FEF736BA26
:10614C00024B03225A60024A1A60704738E7032058
:10615C00286A0B0010B504460068FEF7ABFA20461F
:10616C0010BD10B50446006808B1FEF7A3FA002371
:10617C00C4E90133236010BD38B504460D460068F0
:10618C000131FEF79FFA10B1C4E90005012038BDBA
:10619C0010B50368044623B143688B4201D3012038
:1061AC0010BD2046FFF7E8FF0028F9D0A368002BAC
:1061BC00F5D122681370F2E737B50D4611460192FE
:1061CC000446FFF7E5FF019A28B92046FFF7C9FFFF
:1061DC00204603B030BDA2602946206800F098F933
:1061EC002268A3680021D154F2E7002313B5C0E95B
:1061FC00003304468360037341B108460191FDF7F7
:10620C0011FF019902462046FFF7D6FF204602B047
:10621C0010BD13B5044659B108460191FDF702FFB4
:10622C00019902462046FFF7C7FF204602B010BD79
:10623C00FFF797FFF9E7704738B5044614252A464F
:10624C00002100F08DF9258040250749258128463D
:10625C00258200F02FF804496060284600F02AF8E7
:10626C00E060204638BD00BF5C6A0B0030B50E4DB7
:10627C002978BFF35B8F11F0010487B011D1284648
:10628C00FDF719FF68B101A8FFF7D6FF01AA214657
:10629C000648FFF7FBFE2846FDF712FF044800F006
:1062AC0021F9024807B030BD44E7032048E703203A
:1062BC0043620B00FDF7FBBE08B5FEF70BFA0000BE
:1062CC00014900F0F9B800BF786A0B007FB50024D3
:1062DC001023CDE90234036815469E6912686B469B
:1062EC00CDE90044B0479DF8043003F00603062BBB
:1062FC0003BF009B2B600120204604B070BD0098AA
:10630C00904214BF012006207047000010B5034BCB
:10631C000360044600F0CDF8204610BDB86A0B00AF
:10632C0010B50446FFF7F2FF20460821FDF7C1FE29
:10633C00204610BD2DE9F0411F46DDE90834DDF89B
:10634C00188098450646154607D1079900F0B4F811
:10635C0018B165710020BDE8F0813946304600F077
:10636C00ABF80028F6D00123C4F800802571A37186
:10637C00F0E738B515461C4600F09EF820B108230E
:10638C00E36006232560237138BD73B505460C46C2
:10639C0001921E4600F090F850B9032E08D82368DD
:1063AC00019A5B692946204602B0BDE87040184747
:1063BC0002B070BD10B5034B03600446FFF7A6FF97
:1063CC00204610BD186B0B0010B50446FFF7F2FF0A
:1063DC0020460C21FDF76DFE204610BDF7B5089F39
:1063EC00974205460E4614460AD0A86802680897DC
:1063FC00156A31462246AC4603B0BDE8F040604712
:10640C001946019300F058F8019B0028EDD00620A6
:10641C0003B0F0BD2DE9F14F0D461946DDE90A4BED
:10642C00DDE90CA681461746984600F045F890B178
:10643C00002D3460377109DB61198A450CBF0621C8
:10644C000121B171002001B0BDE8F08F0235F9D106
:10645C000123B371F6E7544506D15946484600F07E
:10646C002BF808B17771EDE7D9F808000368CDE98E
:10647C000CA6CDE90A4BDC693A4643462946A446AC
:10648C0001B0BDE8F04F60472DE9F04107460C46DE
:10649C0015461E46FFF76DFF48B9B86803689F693B
:1064AC002A4633462146BC46BDE8F0416047BDE86C
:1064BC00F081704700207047814208B50ED04068CB
:1064CC0003782A2B0CD049680B782A2B08BF013192
:1064DC00FDF79EFDB0FA80F0400908BD0120FCE7F5
:1064EC000020FAE7002301461A46184600F07AB855
:1064FC0010B501390244904201D1002005E0037827
:10650C0011F8014FA34201D0181B10BD0130F2E766
:10651C000A44914200F1FF3300D1704710B511F8D5
:10652C00014B03F8014F9142F9D110BD884210B5CF
:10653C0001EB020402D98442234607D8431EA14230
:10654C0008D011F8012B03F8012FF8E7024401469B
:10655C008A4200D110BD13F8014D02F8014DF7E746
:10656C0002440346934200D1704703F8011BF9E73C
:10657C0038B5104B1D68AB6B0446B3B91820FEF749
:10658C0091F80246A86320B90B4B0C484221FEF748
:10659C00A9F80B490B4BC0E900130B4B83600B2381
:1065AC00838100210120C2E90401AB6B00221C6134
:1065BC005A6138BD18E60320516B0B00686B0B0059
:1065CC000E33CDAB34126DE6ECDE050010B5024691
:1065DC0001448A42134603D01C780132002CF8D1B6
:1065EC00181A10BD2DE9F843DFF8B8800646D8F824
:1065FC0000001F460D46914600F056F8254B1C68CE
:10660C0034B9254C1C60254B13B11B68C4F8883079
:10661C0063681F2B07DDD8F8000000F047F84FF037
:10662C00FF30BDE8F8834EB3D4F8880088B91C4B12
:10663C0023B9D8F8000000F038F8F0E74FF4847074
:10664C00FEF730F80028F4D00023C0E94033C4F83A
:10665C008800636840F8239001229A4000EB830184
:10666C00D0F800311343C0F80031022EC1F880700D
:10667C0002BFD0F804311343C0F804316368D8F872
:10668C0000005A1C0233626044F8235000F00EF8EC
:10669C000020C6E7E8E703205CE7032000000000C9
:1066AC00B1460B007CE60320704770477047000032
:1066BC00000000000000FB349B5F80000080001095
:1066CC00000000000000000041400B007D400B006A
:1066DC00A5400B00A9400B0000000000436F756E35
:1066EC0074204152474F4E3A2025640036453430D1
:1066FC00303030312D423541332D463339332D4531
:10670C003041392D453530453234444343413945C8
:10671C000036453430303030332D423541332D4640
:10672C003339332D453041392D45353045323444DC
:10673C0043434139450036453430303030322D42F8
:10674C003541332D463339332D453041392D4535BF
:10675C0030453234444343413945007478007278F3
:10676C0000000000000000000000000011470B00BA
:10677C001B470B0025470B002F470B0039470B001D
:10678C0045470B0051470B0059470B0061470B0065
:10679C006D470B0075470B007F470B0089470B00BB
:1067AC000000000000000000D3480B00C9480B009B
:1067BC00BF480B0075480B00B3480B00A7480B00F3
:1067CC0051470B0059470B009B480B0093480B009B
:1067DC0089480B007F480B0089470B000000000024
:1067EC0000000000000000000000000043490B0006
:1067FC00AB490B0081490B00D54C0B0073490B00C6
:10680C0045490B0055490B00A5490B0065490B0088
:10681C003D490B000000000000000000554A0B0031
:10682C00454A0B00474A0B0025592D256D2D256433
:10683C005425483A254D3A2553257A0061736374E3
:10684C00696D650061707000417373657274696F76
:10685C006E4661696C7572652066616C7365007754
:10686C006972696E672E626C650053746172742074
:10687C00646973636F766572696E6720736572768F
:10688C00696365732E00417373657274696F6E462C
:10689C0061696C7572652068616C5F626C655F73B1
:1068AC007461636B5F696E6974286E756C6C70745F
:1068BC007229203D3D2053595354454D5F4552524A
:1068CC004F525F4E4F4E45005065657220646576A1
:1068DC00696365206973206D697373696E67210044
:1068EC004661696C656420746F20617070656E64BC
:1068FC0020706565722043656E7472616C206465EE
:10690C00766963652E00436F6E6E65637465640013
:10691C00446973636F6E6E6563746564004475706F
:10692C006C6963617465642063686172616374652A
:10693C007269737469632063616E6E6F7420626533
:10694C002061646465642E004661696C6564207422
:10695C006F20617070656E64206C6F63616C206376
:10696C00686172616374657269737469632E000087
:10697C0000000000000000006D4D0B00D14D0B001D
:10698C00A54E0B00FB4D0B00714D0B0000000000E1
:10699C0000000000694D0B00DF4D0B006B4D0B0030
:1069AC00014E0B00914D0B00000000000000000098
:1069BC00674D0B00ED4D0B000D560B00074E0B00F9
:1069CC00B14D0B007BE327747BF815ACDD49A913A3
:1069DC00000072F5FB349B5F80000080001000000B
:1069EC000000000000000000000000001D600B0013
:1069FC0089600B0061600B00D54C0B0031600B0003
:106A0C004D600B003F600B005B600B001F600B00C8
:106A1C0023600B00000000000000000043610B002D
:106A2C0039610B002F610B0025610B0019610B0004
:106A3C000D610B0051470B0059470B0001610B0016
:106A4C00F9600B00EF600B00E5600B0089470B0051
:106A5C0000537431395F53705F6D616B655F7368A0
:106A6C00617265645F74616700000000B86A0B00B6
:106A7C005D6A0B00186B0B008C6A0B003C6B0B00F7
:106A8C004E31305F5F637878616269763131375FA0
:106A9C005F636C6173735F747970655F696E666F49
:106AAC004500000000000000806A0B0019630B0019
:106ABC002D630B00C1640B00C1640B0097630B00CA
:106ACC00D9620B007F630B0041630B000B630B005F
:106ADC00186B0B00E86A0B00806A0B004E31305FBC
:106AEC005F637878616269763132305F5F73695FBA
:106AFC00636C6173735F747970655F696E666F4503
:106B0C000000000000000000DC6A0B00C1630B00F9
:106B1C00D5630B00C1640B00C1640B0097630B00C1
:106B2C00D9620B0095640B0021640B00E9630B0028
:106B3C00B86A0B00446B0B00537439747970655F41
:106B4C00696E666F005245454E54206D616C6C6FDA
:106B5C006320737563636565646564002F6D6E7483
:106B6C002F776F726B73706163652F776F726B73B6
:106B7C00706163652F4743432D31302D706970650B
:106B8C006C696E652F6A656E6B696E732D47434336
:106B9C002D31302D706970656C696E652D34385FE0
:106BAC0032303230313132345F3136303631383088
:106BBC003634312F7372632F6E65776C69622F6E6A
:106BCC0065776C69622F6C6962632F7374646C698E
:106BDC00622F72616E642E630000000009420B008C
:106BEC0061480B00DD480B00A54C0B00B14C0B00B1
:106BFC00C54C0B000D600B00C1600B004D610B0010
:106C0C00040000001400000003000000474E550073
:106C1C00E030DFFFCEC48B951F5D081F5B632888B7
:046C2C00B24A4B44D9
:106C300048680B001CE60320000000000000000074
:106C40000000000000000000000000000000000044
:106C50000000000000000000000000000000000034
:106C60000000000000000000000000000000000024
:106C70000000000000000000000000000000000014
:106C80000000000000000000000000000000000004
:0C6C90000000000000000000ECE7032002
:046C9C0000000000F4
:106CA60000000102030405060708090A0B0C0D0E75
:106CB6000F101112131415161718191A1B1C1D1E66
:046CC6001F20280063
:046CCA0078563412B2
:04000003B000401CED
:00000001FF
