:02000002B0004C
:1040000000400B001E890B00000006000C0005029A
:0840100004015014000000003F
:04401800B4810B0064
:1040200081F0004102E000BF83F0004330B54FEA69
:1040300041044FEA430594EA050F08BF90EA020FD6
:104040001FBF54EA000C55EA020C7FEA645C7FEA69
:10405000655C00F0E2804FEA5454D4EB5555B8BF8C
:104060006D420CDD2C4480EA020281EA030382EAFD
:10407000000083EA010180EA020281EA0303362D8F
:1040800088BF30BD11F0004F4FEA01314FF4801C62
:104090004CEA113102D0404261EB410113F0004F74
:1040A0004FEA03334CEA133302D0524263EB43032B
:1040B00094EA050F00F0A780A4F10104D5F1200EC9
:1040C0000DDB02FA0EFC22FA05F2801841F1000124
:1040D00003FA0EF2801843FA05F359410EE0A5F1F8
:1040E00020050EF1200E012A03FA0EFC28BF4CF029
:1040F000020C43FA05F3C01851EBE37101F00045DF
:1041000007D54FF0000EDCF1000C7EEB00006EEBEB
:104110000101B1F5801F1BD3B1F5001F0CD3490875
:104120005FEA30004FEA3C0C04F101044FEA4452CC
:1041300012F5800F80F09A80BCF1004F08BF5FEA53
:10414000500C50F1000041EB045141EA050130BD33
:104150005FEA4C0C404141EB0101013C28BFB1F545
:10416000801FE9D291F0000F04BF01460020B1FA90
:1041700081F308BF2033A3F10B03B3F120020CDA63
:104180000C3208DD02F1140CC2F10C0201FA0CF041
:1041900021FA02F10CE002F11402D8BFC2F1200CA6
:1041A00001FA02F120FA0CFCDCBF41EA0C0190405C
:1041B000E41AA2BF01EB0451294330BD6FEA0404A5
:1041C0001F3C1CDA0C340EDC04F11404C4F1200290
:1041D00020FA04F001FA02F340EA030021FA04F3A2
:1041E00045EA030130BDC4F10C04C4F1200220FAF9
:1041F00002F001FA04F340EA0300294630BD21FA37
:1042000004F0294630BD94F0000F83F4801306BFFC
:1042100081F480110134013D4EE77FEA645C18BFF0
:104220007FEA655C29D094EA050F08BF90EA020F87
:1042300005D054EA000C04BF1946104630BD91EA7F
:10424000030F1EBF0021002030BD5FEA545C05D182
:104250004000494128BF41F0004130BD14F58004C1
:104260003CBF01F5801130BD01F0004545F0FE4135
:1042700041F470014FF0000030BD7FEA645C1ABF6A
:10428000194610467FEA655C1CBF0B46024650EAA1
:10429000013406BF52EA033591EA030F41F40021CD
:1042A00030BD00BF90F0000F04BF0021704730B553
:1042B0004FF4806404F132044FF000054FF0000128
:1042C00050E700BF90F0000F04BF0021704730B5E9
:1042D0004FF4806404F1320410F0004548BF4042BE
:1042E0004FF000013EE700BF42004FEAE2014FEA13
:1042F00031014FEA02701FBF12F07F4393F07F4FEE
:1043000081F06051704732F07F4208BF704793F0F0
:104310007F4F04BF41F40021704730B54FF4607403
:1043200001F0004521F000411CE700BF50EA010206
:1043300008BF704730B54FF000050AE050EA0102AF
:1043400008BF704730B511F0004502D5404261EB1F
:1043500041014FF4806404F132045FEA915C3FF460
:10436000D8AE4FF003025FEADC0C18BF03325FEAFD
:10437000DC0C18BF033202EBDC02C2F1200300FAAE
:1043800003FC20FA02F001FA03FE40EA0E0021FAD3
:1043900002F11444BDE600BF70B54FF0FF0C4CF4C1
:1043A000E06C1CEA11541DBF1CEA135594EA0C0F73
:1043B00095EA0C0F00F0DEF82C4481EA030621EAAE
:1043C0004C5123EA4C5350EA013518BF52EA0335E9
:1043D00041F4801143F4801338D0A0FB02CE4FF09B
:1043E0000005E1FB02E506F00042E0FB03E54FF0CB
:1043F0000006E1FB03569CF0000F18BF4EF0010EC3
:10440000A4F1FF04B6F5007F64F5407404D25FEABE
:104410004E0E6D4146EB060642EAC62141EA555171
:104420004FEAC52040EA5E504FEACE2EB4F1FD0CB3
:1044300088BFBCF5E06F1ED8BEF1004F08BF5FEA31
:10444000500E50F1000041EB045170BD06F00046E3
:1044500046EA010140EA020081EA0301B4EB5C0490
:10446000C2BFD4EB0C0541EA045170BD41F4801188
:104470004FF0000E013C00F3AB8014F1360FDEBFAD
:10448000002001F0004170BDC4F10004203C35DA89
:104490000C341BDC04F11404C4F1200500FA05F30C
:1044A00020FA04F001FA05F240EA020001F00042AD
:1044B00021F0004110EBD37021FA04F642EB060123
:1044C0005EEA430E08BF20EAD37070BDC4F10C044D
:1044D000C4F1200500FA04F320FA05F001FA04F211
:1044E00040EA020001F0004110EBD37041F10001FD
:1044F0005EEA430E08BF20EAD37070BDC4F1200508
:1045000000FA05F24EEA020E20FA04F301FA05F26F
:1045100043EA020321FA04F001F0004121FA04F217
:1045200020EA020000EBD3705EEA430E08BF20EAE7
:10453000D37070BD94F0000F0FD101F00046400021
:1045400041EB010111F4801F08BF013CF7D041EAA3
:10455000060195F0000F18BF704703F000465200A7
:1045600043EB030313F4801F08BF013DF7D043EA78
:104570000603704794EA0C0F0CEA135518BF95EA2E
:104580000C0F0CD050EA410618BF52EA4306D1D1B5
:1045900081EA030101F000414FF0000070BD50EAD4
:1045A000410606BF1046194652EA430619D094EA5E
:1045B0000C0F02D150EA013613D195EA0C0F05D148
:1045C00052EA03361CBF104619460AD181EA03019C
:1045D00001F0004141F0FE4141F470014FF0000054
:1045E00070BD41F0FE4141F4780170BD70B54FF0EF
:1045F000FF0C4CF4E06C1CEA11541DBF1CEA13556F
:1046000094EA0C0F95EA0C0F00F0A7F8A4EB050450
:1046100081EA030E52EA03354FEA013100F0888047
:104620004FEA03334FF0805545EA131343EA126310
:104630004FEA022245EA111545EA10654FEA0026C5
:104640000EF000419D4208BF964244F1FD0404F57E
:10465000407402D25B084FEA3202B61A65EB0305DA
:104660005B084FEA32024FF480104FF4002CB6EB97
:10467000020E75EB030E22BFB61A754640EA0C0017
:104680005B084FEA3202B6EB020E75EB030E22BF57
:10469000B61A754640EA5C005B084FEA3202B6EB98
:1046A000020E75EB030E22BFB61A754640EA9C0057
:1046B0005B084FEA3202B6EB020E75EB030E22BF27
:1046C000B61A754640EADC0055EA060E18D04FEAE5
:1046D000051545EA16754FEA06164FEAC30343EA85
:1046E00052734FEAC2025FEA1C1CC0D111F4801F52
:1046F0000BD141EA00014FF000004FF0004CB6E74B
:1047000011F4801F04BF01430020B4F1FD0C88BFE9
:10471000BCF5E06F3FF6AFAEB5EB030C04BFB6EBF4
:10472000020C5FEA500C50F1000041EB045170BDE7
:104730000EF0004E4EEA113114EB5C04C2BFD4EB14
:104740000C0541EA045170BD41F480114FF0000E98
:10475000013C90E645EA060E8DE60CEA135594EA14
:104760000C0F08BF95EA0C0F3FF43BAF94EA0C0F17
:104770000AD150EA01347FF434AF95EA0C0F7FF48C
:1047800025AF104619462CE795EA0C0F06D152EAE0
:1047900003353FF4FDAE1046194622E750EA4106C4
:1047A00018BF52EA43067FF4C5AE50EA41047FF4D5
:1047B0000DAF52EA43057FF4EBAE12E74FEA410238
:1047C00012F5001215D211D56FF47873B3EB625263
:1047D00012D94FEAC12343F0004343EA505311F08A
:1047E000004F23FA02F018BF404270474FF000001C
:1047F000704750EA013005D111F0004008BF6FF05A
:10480000004070474FF00000704700BF4FEA410280
:10481000B2F1E04324BFB3F5001CDCF1FE5C0DD91E
:1048200001F0004C4FEAC0024CEA5070B2F1004F68
:1048300040EB830008BF20F00100704711F0804F6B
:1048400021D113F13872BCBF01F00040704741F430
:1048500080114FEA5252C2F11802C2F1200C10FA34
:104860000CF320FA02F018BF40F001004FEAC12318
:104870004FEAD32303FA0CFC40EA0C0023FA02F3BC
:104880004FEA4303CCE77FEA625307D150EA013392
:104890001EBF4FF0FE4040F44000704701F0004062
:1048A00040F0FE4040F40000704700BF10F8012BBC
:1048B00011F8013B012A28BF9A42F7D0D01A70475D
:1048C000034613F8012B002AFBD1181A0138704750
:1048D00009480A49884208B505D0094A824202D0EF
:1048E000121A03F0CFFA0748074A0021121A03F000
:1048F000F1FA014808BD00BF78E5032050880B009D
:1049000018E6032018E60320F0E7032070B5074EF1
:10491000074C01F041FAA41BA4080025AC4200D1C9
:1049200070BD56F8043B98470135F7E708880B003F
:104930002C880B0000F060B808B500F091F8BDE8D5
:10494000084001F0E1B900F025BD00F023BD00F002
:1049500029BD000008B5034A03490C2000F05EFCA5
:10496000FEE700BF5D510B00C8810B000078B0FA74
:1049700080F04009704701230370704770470000C2
:104980000A4B10B50446036001F0CEFB214601F04E
:1049900018FE01F0EDF801F0DFF82046044B40F876
:1049A000043B01F0A9FC204610BD00BF24820B008F
:1049B0000C820B0010B50446FFF7E2FF20462421CD
:1049C000FFF7C5FF204610BD0EB400B58CB00DAA90
:1049D0004FF0200C52F8041B0392CDE90012002383
:1049E000016804AA1E20CDE904C300F027FC0CB026
:1049F0005DF804EB03B0704708B502F037FB02F036
:104A000051FB104B0821188803F08AF80E4B08213F
:104A1000188803F085F80D4B0821188803F080F8FA
:104A20000B4B0821188803F07BF80A4B01211888EA
:104A300003F076F8084B03211888BDE8084003F01E
:104A40006FB800BF8CE5032090E5032094E50320B8
:104A500098E503209CE5032084E503200000000086
:104A60002DE9F0439A4C2368B3FA83F35B09236082
:104A7000984B8DB0188803F090F8974BC7281860B2
:104A800040F3DF80C838FFF71DFC89A3D3E900237A
:104A9000FFF7ACFDFFF792FE0146904B904F196077
:104AA000904BDFF89C9218888F4E03F08DF88F4B57
:104AB000188803F072F88E4B3880188803F06DF870
:104AC0008C4B1860FFF7FEFB7BA3D3E90023FFF7B5
:104AD00063FC894B0022FFF75FFC79A3D3E9002335
:104AE000FFF75AFC78A3D3E90023FFF79FFAFFF7FB
:104AF0008DFE824BDFED827AD3ED006A186007EEFF
:104B0000100A77EE277AC3ED016A77EEA67AC3ED35
:104B1000026A77EEA67AC3ED036A77EEA67AC3ED52
:104B2000046A77EEA67AF1EE046A87EEA67A754BF0
:104B300005221A60744B3A88C3ED007AF3EE047ACA
:104B4000B4EE677AF1EE10FA704B89ED007A7ADDF7
:104B5000B2F5FA6F7CD9002232704FF496721A6067
:104B6000052003F007F86A4B6A4A18601368DFF8FB
:104B7000D481002B72DC012808D198F80030B3FAF8
:104B800083F35B0988F800300A231360AB23624D7E
:104B90008DF81030CD238DF811300323D9F80000A3
:104BA0002B6033238DF81230FFF79EFB0B46024635
:104BB0005A495B48FFF708FF3A885A495848FFF7B7
:104BC00003FF2B68D9F8001055480CAA1A44063385
:104BD00042F8201C398822F81C1C0CA9524A2B6070
:104BE0000B44127803F8202C5049FFF7EDFE2B6898
:104BF00001A801332B6002F0EBFB2A68002304A913
:104C000001A802F0F8FB02F031FAFA2102F051FAA1
:104C100002F02CFA01A9002202F0A8FA98F800107C
:104C2000F1B1012927D0317801292AD002293AD0BF
:104C300000292FD121783E4B188802F082FF0121F4
:104C400024E0002129E7B2F5FA6F01D9012283E7B8
:104C50001B68002BDCBF0223337081E7013B94E724
:104C6000344B2178188802F06CFF0121324B1888F0
:104C700002F067FFD7E72F4B188802F062FF217818
:104C8000F4E72B4B188802F05CFF21782B4B188837
:104C900002F057FFC82001F012F8019800F082FBE3
:104CA0000DB0BDE8F0830121C5E700BFAFF3008080
:104CB00075931804568E2E406666666666C669C091
:104CC0006666666666660A407B14AE47E1967D407E
:104CD00018E6032080E5032074E6032024E6032081
:104CE0006CE603209CE5032089E5032078E503209A
:104CF0007CE503201CE603200000303F54E603203F
:104D00000000000028E6032078E60320A0E5032049
:104D100084E5032020E6032070E60320DD810B00FC
:104D2000CCE60320E8810B0088E50320F8810B0026
:104D300094E503208CE5032090E5032098E503200B
:104D400068E603202CE6032070B5D0E90053142652
:104D5000044606FB0356AE4204D0284602F096FDF8
:104D60001435F8E7206800F01DFB204670BD88422E
:104D7000F8B504460D46164616D9904215D2A2F152
:104D80001406751AA1F114072C44B7421CD02CB19B
:104D90003146204602F0E2FD337C2374304602F0B7
:104DA00075FD143E143CF0E70ED0B5420CD02CB18A
:104DB0002946204602F0D2FD2B7C2374284602F0BF
:104DC00065FD14351434F0E7F8BD2DE9F0410023FA
:104DD000C0E9003383604F689F4204460E4623DDDE
:104DE0004FF0140808FB07F000F0D4FA0546D8B1DC
:104DF000D4E9001208FB0212FFF7B9FF206800F0A7
:104E0000D1FA2560A760D6E9007308FB0378B8459E
:104E100008D03946284602F0BBFD3B7C2B74143782
:104E20001435F4E7736863602046BDE8F081000044
:104E3000F0B58DB00025CDE90055029500F098FE43
:104E40001C4C0646694603A8FFF7BFFF274603A987
:104E500006A8FFF7BAFF184B47F8043B06A909A8B4
:104E6000FFF7B3FF09AA1E21384601F08DFC09A8FF
:104E7000FFF76AFF06A8FFF767FF104B236003A840
:104E80002662FFF761FF0E4B236000F071FE4FF4C6
:104E9000165100F05DFE01F047F9214601F04AFB92
:104EA0006846FFF751FF294601200DB0BDE8F040EC
:104EB00000F054BA30E603200C820B00DC830B00B8
:104EC00024820B0008B5024B1B681B68019308BDC8
:104ED0004C02030008B5024B1B685B68019308BDD8
:104EE0004C02030008B5024B1B689B68019308BD88
:104EF0004C02030008B5024B1B681B69019308BDF7
:104F00004C02030008B5024B1B685B69019308BDA6
:104F10004C02030008B5024B1B689B69019308BD56
:104F20004C02030008B5024B1B68DB69019308BD06
:104F30004C02030008B5024B1B681B6A019308BDB5
:104F40004C02030008B5024B1B68DB69019308BDE6
:104F50003002030008B5024B1B681B6A019308BDB1
:104F60003002030008B5024B1B681B6A019308BDA1
:104F70002802030008B5024B1B685B6A019308BD59
:104F80002802030008B5024B1B689B6A019308BD09
:104F90002802030008B5024B1B68DB6A019308BDB9
:104FA0002802030008B5024B1B681B6B019308BD68
:104FB0002802030008B5024B1B685B6B019308BD18
:104FC0002802030008B5024B1B681B6C019308BD47
:104FD0002802030008B5024B1B689B68019308BDBB
:104FE0003C02030008B5024B1B68DB68019308BD57
:104FF0003C02030008B5024B1B681B69019308BD06
:105000003C02030008B5024B1B685B69019308BDB5
:105010003C02030008B5024B1B689B69019308BD65
:105020003C02030008B5024B1B68DB69019308BD15
:105030003C02030008B5024B1B681B6A019308BDC4
:105040003C02030008B5024B1B689B6A019308BD34
:105050003C02030008B5024B1B68DB6A019308BDE4
:105060003C02030008B5024B1B681B6C019308BD92
:105070003C02030008B5024B1B685B69019308BD45
:105080006402030008B5024B1B685B6C019308BD0A
:105090004802030008B5024B1B689B6C019308BDD6
:1050A0004802030008B5024B1B68DB6C019308BD86
:1050B0004802030008B5024B1B685B6D019308BDF5
:1050C0004802030008B5024B1B689B68019308BDAA
:1050D0007802030008B5024B1B689B6C019308BD66
:1050E0007802030008B5024B1B68DB6C019308BD16
:1050F0007802030008B5024B1B681B6D019308BDC5
:105100007802030008B5024B1B689B6D019308BD34
:105110007802030008B5024B1B681B6E019308BDA3
:105120007802030008B5034B1B68D3F8983001934D
:1051300008BD00007802030008B5034B1B68D3F8D4
:10514000F030019308BD00007802030008B5024B5F
:105150001B685B68019308BD1802030008B5024B89
:105160001B68DB68019308BD1802030008B5024BF9
:105170001B685B69019308BD1802030008B5024B68
:105180001B685B68019308BD2C02030008B5024B45
:105190001B689B68019308BD2C02030008B5024BF5
:1051A0001B68DB68019308BD2C02030008B5024BA5
:1051B0001B681B69019308BD2C02030008B5024B54
:1051C0001B685B69019308BD2C02030008B5024B04
:1051D0001B689B6A019308BD2C02030008B5024BB3
:1051E0001B681B6B019308BD2C02030008B5024B22
:1051F0001B689B6F019308BD2C02030008B5024B8E
:105200001B689B68019308BD6802030008B5024B48
:105210001B68DB68019308BD6802030008B5024BF8
:105220001B685B6B019308BD6002030008B5024B6D
:105230001B681B6D019308BD6002030008B5024B9B
:105240001B685B6D019308BD6002030008B5024B4B
:105250001B68DB6E019308BD6002030008B5024BBA
:105260001B681B6F019308BD6002030008B5024B69
:105270001B68DB6B019308BD4402030008B5024BB9
:105280001B685B68019308BD4002030008B5024B30
:105290001B689B68019308BD4002030008B5024BE0
:1052A0001B68DB68019308BD4002030008B5024B90
:1052B0001B681B69019308BD4002030008B5024B3F
:1052C0001B685B69019308BD4002030008B5024BEF
:1052D0001B689B69019308BD4002030008B5024B9F
:1052E0001B68DB69019308BD4002030008B5024B4F
:1052F0001B681B6A019308BD4002030008B5024BFE
:105300001B681B6B019308BD4002030008B5024BEC
:105310001B685B6B019308BD4002030008B5024B9C
:105320001B681B6C019308BD4002030008B5024BCB
:105330001B685B6C019308BD4002030008B5024B7B
:105340001B685B68019308BD2002030008B5024B8F
:105350001B685B69019308BD2002030008B5024B7E
:105360001B68DB6A019308BD2002030008B5034BEC
:105370001B68D3F88830019308BD000020020300A9
:1053800008B5034B1B68D3F89430019308BD0000A7
:105390002002030008B5024B1B681B68019308BD7F
:1053A0001C02030008B5024B1B685B68019308BD33
:1053B0001C02030008B5024B1B689B68019308BDE3
:1053C0001C02030008B5024B1B685B6A019308BD11
:1053D0001C02030008B5024B1B68DB6A019308BD81
:1053E0001C02030008B5024B1B68DB6B019308BD70
:1053F0001C02030008B5024B1B681B6C019308BD1F
:105400001C02030008B5024B1B685B6C019308BDCE
:105410001C020300002340681A46FFF72FBF4068B4
:1054200000220221FFF73ABF002240681146FFF731
:105430002DBF002240681146FFF738BF00234068A7
:105440001A461946FFF73ABF002340681A46194624
:10545000FFF73CBF40680021FFF760BF40680021B4
:10546000FFF764BF4068002281F00101FFF736BFFB
:1054700040680022FFF742BF002240681146FFF754
:1054800045BF002240681146FFF730BF2DE9F043C9
:1054900095B014460D46074600F0CAFB00211C22B9
:1054A0000DA8009102F016FD40230C9320466B4698
:1054B0000CAA0021FFF7AAFE044600284BD10246A1
:1054C00001216868FFF7F2FE0221804622466868E3
:1054D000FFF7ECFE009E81462146002E3BD00029BE
:1054E00039D17368022B03D00A2B11D0F669F4E787
:1054F000B8F1000FFAD0716906A8043107AD00F0C9
:10550000C5FB0FCD3C1D0FC42B6823704146EDE752
:10551000B9F1000FEAD07469102201A802F0DAFC98
:1055200006238DF8143001AD04F10803183418680F
:1055300059682A4603C20833A3421546F7D101A988
:1055400006A807AD00F082FB0FCD3C1D0FC42B68F1
:1055500023704946CAE70098FFF750FE384615B059
:10556000BDE8F083024B034A1A6000225A6070477C
:105570007CE603203C820B00002240681146FFF7C6
:1055800095BE002240681146FFF7B0BE0022406879
:105590001146FFF7BBBE40680022FFF7AFBE406870
:1055A000002281F00101FFF799BE002340681A46EE
:1055B0001946FFF78BBE002340681A461946FFF7CD
:1055C0007DBE002240681146FFF760BE40680022A1
:1055D0000221FFF763BE002340681A46FFF74EBE64
:1055E000024B04225A60024A1A60704784E6032084
:1055F00078820B007047F8B5064615460C468F18A2
:10560000BC4206D0336814F8011B9B6830469847AB
:10561000F6E72846F8BD007C0022FFF7A3BC007C1B
:105620000021FFF7A7BC007C0021FFF7ABBC007C8A
:105630000021FFF7AFBC007C0021FFF7B3BC10B521
:1056400014210446FFF783F9204610BD38B50446FF
:1056500015464FF47A730022C4E90123094B2174E3
:10566000084623602946FFF7ADFCBF3008D16B69BF
:10567000DB0705D56868FFF795FEE868FFF792FE3F
:10568000204638BDBC820B0038B5046805467CB1A5
:105690006368013B63605BB9236820469B68984759
:1056A000A368013BA3601BB923682046DB689847C9
:1056B000284638BD38B50D1E0446006803DDFFF7E7
:1056C00079FE18B938BDFFF76DFE00202060A56097
:1056D0000120F7E700F11003012213F8101C012943
:1056E000184608D153F8041C02EB4102013A03F1B9
:1056F0001003F2D17047022904BF53F8041C52185A
:10570000F4E70EB4F0B588B000AF07F1340510210E
:1057100055F8042B7A6004462B467818FD60FFF795
:1057200051FE0F287A681AD900F1080323F0070305
:105730006E46ADEB030D411C2B466846FD60FFF73E
:1057400041FE021E04DD236869469B682046984797
:10575000B5462037BD46BDE8F04003B0704700288D
:10576000F7D0236802469B6807F11001204698474E
:10577000EFE710B54368013B0446436063B9036833
:105780009B689847A368013BA3602BB92368204618
:10579000DB68BDE81040184710BD38B50B680360E2
:1057A0004D6843689D42044608D015B16B680133CB
:1057B0006B60606808B1FFF7DCFF656038BD07B556
:1057C00003688DF807109B6801220DF107019847C7
:1057D00003B05DF804FB0B461146002210B5C0E98A
:1057E0000022044683600BB9204610BDFFF7D5FFA9
:1057F000FAE78368EBB11A78032A1AD8DFE802F0D7
:105800000417021B0520704702685B685268D05C71
:105810002D2812D0A0F13003092B0ED974280ED0F8
:1058200066280CD0A0F16E035842584170470620FC
:105830007047002070470420704703207047022003
:10584000704710B50446FFF7D4FF02280ED0C31EE0
:10585000DBB2012B14D82268A36850685B68BDE8EE
:1058600010400A220021184402F034BC2268A368C8
:1058700052685B68D05CA0F174035842584110BD77
:105880000020FCE738B50023C0E9003304460E4889
:10589000C4E90203A9B10B78032B06D08BB91368B6
:1058A00058684B68C35C6E2B07D013684D68586806
:1058B0008B6828445B1BA060E36011462046FFF71D
:1058C0006CFF204638BD00BFA2830B0038B5002511
:1058D0000B46C0E90055C0E90255C0E9045504462D
:1058E00011464BB11A78012A06D103F11002DB6888
:1058F00082604361FFF751FF204638BD10B5436910
:10590000044663B18068E060013B1030A060206114
:10591000636113B1FFF7DEFEA060012000E01846CE
:1059200010BD10B57D210446FFF749FF0123237107
:10593000204610BD08B50379012B02D0022B04D0FC
:1059400008BD2C21FFF73BFFFAE73A21FAE710B533
:105950000446FFF7EFFF20467B21FFF730FF0023CF
:105960002371204610BD000013B504460191FFF7D6
:10597000E1FF2368019ADB68034920469847012329
:105980002046237102B010BDDC820B0013B5044623
:105990000191FFF7CFFF2368019ADB680349204696
:1059A000984701232046237102B010BDDF820B000F
:1059B0002DE9F0470D46222190460446FFF7FFFEF1
:1059C000DFF8A490A8442F464745BA463DD017F8C3
:1059D000016B222E06D05C2E04D0304602F03AFA3B
:1059E0000028F1D12368AAEB05029B6829462046CE
:1059F00098475C212046FFF7E2FE0D2E0AD8072EBD
:105A00001CD9A6F10803052B18D8DFE803F00D0F09
:105A100011171315222E01D05C2E0FD131462046CE
:105A2000FFF7CDFE3D46CFE76221F8E77421F6E7A8
:105A30006E21F4E76621F2E77221F0E7236832462F
:105A4000DB68494620469847ECE7BD4205D023680D
:105A50007A1B9B6829462046984722212046FFF75B
:105A6000AEFEBDE8F08700BFE2820B0013B504462E
:105A7000CDE90021FFF75EFF2046DDE90021FFF7B9
:105A800097FF02232046237102B010BD13B50446D0
:105A9000CDE90021FFF74EFF2046DDE90021FFF7A9
:105AA00087FF01232046237102B010BD4174704767
:105AB0007047704708B50021007CFFF72BFA40EAD9
:105AC000E07008BD08B50121007CFFF723FA40EA29
:105AD000E07008BD08B5007CFFF714FA20EAE0701A
:105AE00008BD08B5007CFFF705FA20EAE07008BDA4
:105AF00013B50446007C0191FFF704FA00280199D0
:105B000001DC607C20B1207CFFF70CFA20EAE07019
:105B100002B010BD007CFFF70DBA10B51421044689
:105B2000FEF715FF204610BD10B54FF47A730446FA
:105B300008460021C4E90113044B236001232074AB
:105B400063741146FFF7BEF9204610BDF0820B00CA
:105B5000007C0022FFF7BEB9007CFFF7C3B910B587
:105B600014220446002102F0B5F9204610BD0000C1
:105B700010B50F4C88B003A8FFF7F1FF2178BFF3F1
:105B80005B8F11F001010FD120460191FEF7EEFE6F
:105B9000019948B103AA0748FFF7C6FF2046FEF760
:105BA000EAFE054802F050F9024808B010BD00BFF7
:105BB0008CE6032090E60320B15A0B00704710B525
:105BC00018210446FEF7C3FE204610BDF0B5037D44
:105BD000062B8DB00E4600F104074FF0000412D0E2
:105BE00000F1080515F8011D0A22304601F00DF9F3
:105BF000AF42044419D0002CF4D02E21304601F0DD
:105C000001F90444EEE72F236A4639460A208DF84D
:105C10000040FFF72FFA6846FEF752FE336802464F
:105C2000DB68694630469847044620460DB0F0BD13
:105C300010B5054B0446112240F8043B002102F048
:105C400049F9204610BD00BF20830B000346074AD8
:105C500010B543F8042B01F1100251F8044B43F83E
:105C6000044B9142F9D10A781A7010BD20830B00C1
:105C700010B59DF8084044EA032343EA024242EA91
:105C8000016104234160037510BD000007B5064B98
:105C90000360CB7800938B784A780978FFF7E8FFA8
:105CA00003B05DF804FB00BF20830B0010B58368D0
:105CB000044613B1032201469847204610BD002137
:105CC000FFF744BB014B1860704700BFB0E50320ED
:105CD00008B50B4B43B1FFF74BFF03681B699847AF
:105CE000002801DDAFF30080064B43B101F0B6FEA2
:105CF00003681B699847002801DDAFF3008008BDE9
:105D0000000000000000000008B5FFF7E1FFFFF70A
:105D10002DFA014B186008BD34E703200548064AF8
:105D2000064908B5121A02F0ADF8054B054A1A608B
:105D300008BD00BF00F4032004F40320F0880B002A
:105D400000F403201E1C279A07B5002300931A466F
:105D50006FF07701FFF714FB03B05DF804FB000060
:105D600007B543880A2B08D0502B0BD1094B1B6871
:105D70004BB103B05DF804EB1847FFF7E5FF03B044
:105D80005DF804FB002300931A466FF07701FFF7DC
:105D9000F7FAF4E7A8E6032010B512480021FFF750
:105DA00031FB114B1A68114B9A42114B0CBF012267
:105DB00000221A7001D0FFF7B1FFFFF7C7F90446C0
:105DC00002F090F80B4B13B12046AFF30080002196
:105DD0000848FFF74BFABDE8104007480021FFF7DD
:105DE000C5BA00BFC55C0B0000F403201E1C279A37
:105DF000A4E6032000000000615D0B00014B0022BF
:105E00009A607047ACE60320024B1A68024B1A6096
:105E1000704700BFA4E50320BCE603208068036848
:105E2000DB6818477047084611B10B685B68184774
:105E30007047704770477047704738B504460D4645
:105E400000682E2102F089F82368C31A2B6023B161
:105E5000037803B1013023682060184638BD10B5BF
:105E60000C210446FEF773FD204610BD10B5042139
:105E70000446FEF76CFD204610BD10B50421044613
:105E8000FEF765FD204610BDFFF70CB908B5FEF71B
:105E90000DFDB0FA80F0400908BD704710B50C4602
:105EA000FFF766FE844210D001F0D8FD844205D190
:105EB00001F0D4FDBDE8104001F08BBC2CB123688B
:105EC00020465B68BDE81040184710BD0B680360B2
:105ED0004B68436013B15A6801325A60704713B57A
:105EE000044608460191FEF7EBFC01990246204664
:105EF00002B0BDE81040FFF7C9BD13B5044608461F
:105F00000191FEF7DDFC23680199DB68024620461B
:105F100002B0BDE81040184707B503688DF80710B8
:105F2000DB6801220DF10701984703B05DF804FB1F
:105F30000A6802604A6842600022C0E9022210B585
:105F400002618C688460CC68C4600C698A60CA6035
:105F500004610A6110BD00002DE9F74FD0E900840B
:105F60004FF0140A00930AFB04F4184BA4101746D0
:105F70005C434546002C21DD66100AFB06F005EB6C
:105F800000093A46B9F804B0285801915F4528BF86
:105F90005A4601F0F4FF002801994FF001030BD19C
:105FA0005F4503D1009A13703446E3E7FCD9A61B82
:105FB00009F11405013EF7E7F9DBF5E7A5EB080564
:105FC0000248AD10684303B0BDE8F08FCDCCCCCC17
:105FD0007FB50369057E019103B3F9B1002600F195
:105FE0000C04039603A901A8FFF727FF0146A8B1F7
:105FF0000DF10B03039A8DF80B602046FFF7ACFF01
:106000009DF80B3053B12368142404FB003408348A
:1060100034F9023C002BA8BFDDB2E3E7284604B008
:1060200070BD0EB4F0B58CB000AF07F14405044666
:1060300055F8042B7A602B46202107F11000FD60F3
:10604000FFF7C0F91F287A681AD900F1080323F076
:1060500007036E46ADEB030D411C2B466846FD6001
:10606000FFF7B0F9021E04DD23686946DB682046AD
:106070009847B5463037BD46BDE8F04003B070479D
:106080000028F7D023680246DB6807F1100120469C
:106090009847EFE710B5094C2378BFF35B8FDB0718
:1060A00009D42046FEF762FC28B12046FEF763FCC7
:1060B000034801F0C9FE034810BD00BFC4E6032039
:1060C000335E0B00A8E5032010B5094C2378BFF31D
:1060D0005B8FDB0709D42046FEF748FC28B1204639
:1060E000FEF749FC034801F0AFFE034810BD00BFB6
:1060F000C8E603209B5E0B00ACE5032038B5002505
:106100000446C0E90055C0E904558560856140F842
:10611000245FFEF7B7FFFFF7BDFFE061FFF7D4FF95
:1061200025732062204638BD10B50A4C2378BFF392
:106130005B8FDB070CD42046FEF718FC40B1064805
:10614000FFF7DCFF2046FEF716FC044801F07CFE5A
:10615000014810BDC0E60320D0E60320A1660B0075
:10616000024A034903480023FFF778B885640B000F
:1061700011640B0091630B0000231A461946184660
:10618000FFF76CB837B58D6804466846FFF79EFE8A
:106190006A4629462046FFF799FB01A8FFF774FAE3
:1061A000204603B030BD37B5CD6804466846FFF7DA
:1061B0008DFE6A4629462046FFF764FB01A8FFF7DB
:1061C00063FA204603B030BD37B50D690446684612
:1061D000FFF77CFE6A4629462046FFF7FCFA01A835
:1061E000FFF752FA204603B030BD000070B58AB008
:1061F0000D46014604A8FFF7C5FF144E04A8FFF79B
:106200007DFBE8B104A96846FFF7CDFF029831464F
:10621000FFF73CFE044610B12C1E18BF012401A854
:10622000FFF732FA002CE9D004A96846FFF7CCFF4B
:106230006846FFF706FB286001A8FFF725FADDE7AF
:1062400005A8FFF721FA0AB070BD00BF48830B0014
:1062500037B50C46204613491546FEF727FB50B9C3
:10626000FFF786FC4FF41651FFF772FC03B0BDE850
:106270003040FFF77DBC0C492046FEF717FB78B98C
:106280004FF4165301A928460193FFF7AFFF01F021
:10629000E5FB019901F09AFA01F0E0FB03B030BD93
:1062A0000020FBE74D830B0054830B0070B5D0E951
:1062B00000531426044606FB0356AE4205D005F1F2
:1062C0000800FFF7F3FF1435F7E72068FFF76AF8D7
:1062D000204670BD70B5D0E90053044605EB0316A7
:1062E000AE4204D0284601F0D1FA1035F8E7206814
:1062F000FFF758F8204670BD10B504460C30FFF784
:10630000D5FF2046FFF7E6FF204610BD10B5044B31
:10631000044640F8043BFFF7EFFF204610BD00BFE6
:106320000C820B0010B50446FFF7F0FF2046242135
:10633000FEF70DFB204610BD10B5034B036004466D
:10634000FFF7E4FF204610BDF4830B0010B50446B0
:10635000FFF7F2FF20462421FEF7F9FA204610BD90
:106360000022C0E9002210B582600C6804604C680D
:1063700044608C680A604A6084608A6010BD10B511
:10638000036804461868FEF795FE204610BD00001D
:106390002DE9F04F87B0804603931C4B5B68C3F335
:1063A0000803894616466BB9FFF7BEFE044600F1A6
:1063B0002403406A0593FFF767FD237B2BB105A8F3
:1063C000FFF7DDFF07B0BDE8F08F01232373D4E9A9
:1063D00000535FFA89F905EB830AAA4512D055F8F4
:1063E000047B3146381DFFF7F3FD8145F5D33B684B
:1063F000039A0092D3F808B04A46334641463846DD
:10640000D847EAE700232373D9E700BF00ED00E097
:106410002DE9F74F9B461A4B5B68C3F30803804690
:10642000894616466BB9FFF77FFE044600F1240348
:10643000406A0193FFF728FD237B2BB101A8FFF7EA
:106440009EFF03B0BDE8F08F01232373D4E900530E
:10645000F6B205EB830A55450ED055F8047B594634
:10646000381DFFF7B5FD8642F5D33B684A46DB6829
:10647000414638469847EEE700232373DEE700BF26
:1064800000ED00E02DE9F341164B5B68C3F3080310
:1064900005460F461BBBFFF747FE00F124030446E9
:1064A000406A0193FFF7F0FCD4E90063462406EB51
:1064B0008308B04509D101A8FFF761FFA542B4BF29
:1064C0000020012002B0BDE8F08156F8040B3946E7
:1064D0000430FFF77DFD8442A8BF0446E9E70020B1
:1064E000F0E700BF00ED00E0F8B5D0E901539D42B0
:1064F00004460E460DDB6F1C002F006804DDB9005A
:10650000FEF758FF18B9F8BDFEF74CFF00202060D9
:10651000A7602768626807EB85019200A2EB8502FD
:10652000081D01F0BDFC47F8256063680133636016
:106530000120E8E737B500F124030446406A0193DF
:106540000D46FFF7A1FCD4E9003203EB820293422F
:1065500019460BD00968A94203F10403F7D101A839
:10656000FFF70DFF0025284603B030BD2946204621
:10657000FFF7BAFF05460028F1D06368012B01D16F
:10658000FFF7EEFD01A8FFF7FAFEECE770B5044651
:10659000D0E900020B4600EB820282420FD0014696
:1065A0001D6851F8046BAE4207D1521A01F078FC15
:1065B0006368013B6360012070BD0846EDE7002081
:1065C000FAE71FB500F124030446406A01910393E2
:1065D000FFF75AFC01A92046FFF7D8FF18B16368FE
:1065E0000BB9FFF7C9FD03A8FFF7C9FE04B010BD42
:1065F00070B5D0E904561823044603FB0656AE4294
:1066000015D005F110012046FFF7C0FF63680BB9F4
:10661000FFF7B2FDE06929690368DB68984769699B
:1066200019B1206A0368DB6898471835E7E7D4E9B1
:106630000453182606FB0356AE4204D0284601F048
:1066400025F91835F8E70023636170BD73B504467A
:10665000FFF792FD04F12403606A0193FFF714FC35
:106660002046FFF7C5FF01A8FFF789FE606A08B161
:10667000FEF710FDD4E90453182606FB0356AE427C
:1066800004D0284601F002F91835F8E72069FEF732
:1066900089FE2068FEF786FE204602B070BD00002D
:1066A0000148FFF7D3BF00BFD0E603208842F8B50A
:1066B00004460D46164615D9904214D2A2F114068E
:1066C000751AA1F114072C44B7421AD01CB13146F7
:1066D0002046FFF72DFC06F10800FFF7E7FD143E0A
:1066E000143CF1E70DD0B5420BD01CB12946204631
:1066F000FFF71EFC05F10800FFF7D8FD1435143430
:10670000F1E7F8BD8842F8B504460D46164614D99F
:10671000904213D2A2F11006751AA1F110072C4471
:10672000B74218D01CB13146204601F017F9304667
:1067300001F0ACF8103E103CF2E70CD0B5420AD0A4
:106740001CB12946204601F009F9284601F09EF8BF
:1067500010351034F2E7F8BD70B50E1E054611DD98
:106760003001FEF717FE044658B1D5E9001201EBDF
:106770000212FFF7C7FF2868FEF714FE2C60AE6018
:10678000012070BD0024F6E72DE9F04F904695B04A
:1067900000230391D8F804100A9346229942C0E9D5
:1067A0000033C0E90233C0E90433CDE908330446BD
:1067B000027623DCD8E90057142303FB0757AF42C6
:1067C0003BD029460BA801F0C9F80BA90FA8099ED8
:1067D00001F0C4F8DDE9091399421BDA089B099A14
:1067E00003EB061603EB0212314606F11000FFF729
:1067F00089FFEEB9099B0133099311E008A8FFF75F
:10680000ABFF0028D6D108A8FFF764FD204615B0DD
:10681000BDE8F08F013108A8FFF79EFF0028DDD109
:106820000FA801F033F80BA801F030F81435C6E7D3
:106830000FA9304601F092F8DCE70026CDE90B669F
:106840000D964FF01409DDE908239E427CDA3301EE
:10685000D35806930BB90136F5E70023079309FBDC
:1068600006F302930BAD07A906A8FFF7E6FA8246E6
:106870000028F0D04FF000038DF817300146079A3A
:106880000DF117032846FFF767FB9DF8177001907D
:10689000002F4AD1BDF81C30ADF84030CDE911775A
:1068A0004FF6FF73CDF83CA0ADF842301397D5E911
:1068B0000132934217DB03F1010ABAF1000F30DD18
:1068C00009FB0AF0FEF766FD834660B3D5E90012C6
:1068D00009FB0212FFF7EAFE2868FEF763FDC5F820
:1068E00000B0C5F808A02B68019A09FB023A6A6853
:1068F000514609FB02320AF11400FFF7D7FEBAF144
:10690000000F03D00FA95046FFF712FB6B6801334D
:106910006B6011A8FFF7CAFC3FB10BA8FFF7C6FCDC
:1069200071E7BB46D8E70127F3E7019B2D6809FB18
:106930000355069B1B782BB9D8F80030029A1344F4
:106940001B7CEB8008358EE72168226062686360FB
:10695000A36809920A9A0A93E368A2600B9A0B93C0
:106960002369E2600C9A0C93636922610D9A0D937E
:10697000039B089162612376CFE70000F0B50446DF
:1069800087B00D462646194668461746FEF71DFA9B
:106990000B4B46F8043B694603A8FEF716FA03AA18
:1069A00039463046FFF7F0FE03A8FEF7CDF96846FA
:1069B000FEF7CAF9034B23602046256207B0F0BDFD
:1069C0000C820B00DC830B00F0B50F4685B01D492F
:1069D0000A9C384616461D46FDF768FFC0B9A4B1AB
:1069E000294601A8FFF7BCFC1749242001F012F941
:1069F000054630B101AB32462146FFF7BFFF134BCE
:106A00002B6001A8FEF7A0F92C46204605B0F0BD8A
:106A10000F493846FDF74AFF90B9002CF5D02946BA
:106A200001A8FFF79DFC0849242001F0F3F8054672
:106A30000028E6D001AB32462146FFF79FFFE0E792
:106A40000024E2E75C830B007C850B00F4830B00E1
:106A500060830B00014B024A1A607047CCE60320AA
:106A600071830B002DE9F047089DD0F82090044673
:106A70000E4617469846FFF77BF881454CD02B7998
:106A8000190704D56A6954492046FFF7CAFAB8F1D4
:106A9000000F0DD05B212046FFF73EFA414620460D
:106AA000FFF72BFA23684D49DB68022220469847FE
:106AB0002B79DA0723D5D5F808802F21404601F03D
:106AC00072FA08B100F1010841462046FFF715FAB5
:106AD0002B799B0708D53A212046FFF71DFAEA6873
:106AE0003F492046FFF79DFA2A79236812F0040FE8
:106AF000DB6814BF3B493C490222204698472B796A
:106B000058071DD529690B461A4613F8010B60B1C9
:106B1000202808D11946F7E73448FEF7B2FC0028D0
:106B2000ADD0BDE8F0872828EED12368521ADB6883
:106B30002046984723682E49DB6804222046984760
:106B400000213846FEF782FB01462046FFF7D5F9C3
:106B500023682549DB680222204698471EB131464A
:106B60002046FFF7CAF92B7913F0300F2CD0236899
:106B70002049DB680222204698472B79D9060AD59E
:106B800023681D49DB68072220469847AA691B49EC
:106B90002046FFF746FA2B799A0611D5DB0605D574
:106BA00023681049DB68022220469847236814496D
:106BB000DB6820460A229847E9692046FFF79DF9DD
:106BC0005D212046FFF7A8F923680E49DB682046BF
:106BD0000222BDE8F047184775830B007C830B0049
:106BE000DC820B007F830B0084830B007CE6032098
:106BF00082830B0087830B008A830B0092830B0038
:106C000095830B00A0830B002DE9F0410446076A31
:106C10000D461646FEF7ACFF874207D0206A036890
:106C200032462946DB68BDE8F04118470348FEF7C5
:106C300028FC0028F2D0BDE8F08100BF7CE60320EC
:106C40002DE9F04385B0D0F820900C9C05460F4606
:106C500090461E46FEF78CFF814505D14948FEF758
:106C600010FC002840F08A802B6A474A01924FF0BE
:106C7000000901A803938DF80890FEF768FE4946C5
:106C80004046FEF7E3FA41498046012201A8FEF79B
:106C9000EDFE4146FFF723F93FB13D49012201A82E
:106CA000FEF7E4FE3946FFF71AF93EB139490122F1
:106CB00001A8FEF7DBFE3146FFF711F92379DF0764
:106CC0000ED5A6682F21304601F06DF900B1461CA3
:106CD0003149012201A8FEF7C9FE3146FFF7FFF84E
:106CE00023799E0707D52D49022201A8FEF7BEFE93
:106CF000E168FEF739FE2379580714D52669334633
:106D00001F4613F8012B2AB1202A01D11E46F7E7AE
:106D1000282AF5D12249022201A8FEF7A7FEBA1BB4
:106D20003146FEF7B3FE2379190707D51D49012225
:106D300001A8FEF79BFE6169FEF728FE2379DA06BB
:106D400008D5042218490DEB0200FEF78FFEA16959
:106D5000FEF70AFE23799B0607D51449062201A8EF
:106D6000FEF784FEE169FFF7BAF801A8FEF7D9FD46
:106D7000286A0F4903680222DB68984705B0BDE81E
:106D8000F08300BF7CE60320C4830B0052830B001A
:106D9000A3830B0003870B00A5830B00A7830B00C5
:106DA000AA830B00AD830B00AF830B00B4830B00F1
:106DB000A0830B00F8B506460D468F180024BD428F
:106DC0000CD0336815F8011B9B6830469847031EAA
:106DD00001DB1C44F3E7002C08BF1C462046F8BD2D
:106DE00013B50446084659B10191FDF769FD2368C2
:106DF0000199DB680246204602B0BDE81040184702
:106E000002B010BD03689B68184730B58BB00023F3
:106E1000012A8DF8243098BF0A2209AC0D46B1FB37
:106E2000F2F101FB125303F0FF03092B94BF30333F
:106E30003733DBB2AA4204F8013DEFD92146FFF710
:106E4000CFFF0BB030BD7047064B994210B500F133
:106E50000C0405D0084600F0E5FE002808BF002419
:106E6000204610BDAC820B0010B530210446FDF762
:106E70006EFD204610BD3021FDF769BDF0B500253F
:106E8000EC1C8C420DD86E1C445D875D974205D189
:106E90002644B14205D31D60601CF0BD0134254479
:106EA000EEE70020F9E7000010B500230370044B63
:106EB00004461868FEF7F6F801232370204610BD3B
:106EC000FCE6032010B5037804461BB1024B18689A
:106ED000FEF7F0F8204610BDFCE6032082B0034622
:106EE000086849686A4603C26A4603CA18601846B9
:106EF000596002B0704708B582798B799A4206D101
:106F0000062200F0AFFFB0FA80F0400908BD002073
:106F1000FCE74FF0FF33036083800020704708B523
:106F20000246002101604160FFF7F3FF91711046B6
:106F300008BD10B5D0E9063203EBC20293421846F1
:106F400006D0046824888C4203F10803F6D110BDF2
:106F50000020FCE770B50025056006463020FDF7EF
:106F6000F2FC044688B10123C0E90133094B0360F8
:106F70004FF6FF7383810E30FFF7D1FFC4E906554A
:106F8000C4E90855C4E90A55A57574600C34346029
:106F9000304670BDFC840B0037B50D46044601A891
:106FA000FFF782FF2A68D2F802302360D2F8063059
:106FB000636001A8FFF786FF204603B030BD30B5FF
:106FC000054687B00C4601A8FFF76EFF2A682368C4
:106FD00012881B889A420DD1294602A8FFF7DCFFD0
:106FE000214604A8FFF7D8FF04A902A8FFF783FFF2
:106FF000044600B9002401A8FFF764FF204607B04B
:1070000030BD000010B504466420FDF79CFC68B15B
:107010000023C0E90033C0E90233C0E90433C0E90A
:1070200006330362C362C363C364C365206020B9CF
:107030000A4A0B490A20FEF7F1F80020FEF742F851
:1070400020B1064A07490A20FEF7E8F821680648F9
:107050000022FEF771F8204610BD00BF5D510B0005
:1070600034840B0072840B0015750B0010B50A4CAC
:107070002378BFF35B8FDB070CD42046FDF776FC4B
:1070800040B10648FFF7BEFF2046FDF774FC0448F8
:1070900000F0DAFE014810BDF8E6032000E7032007
:1070A00011720B0008B50020FEF70CF800EAE07042
:1070B00008BD30B585B000240C23ADF806300D4670
:1070C0000323214601A8CDE90244ADF80430FEF7C0
:1070D00009F8002805DB214601A8ADF80850FDF7A6
:1070E000F9FF05B030BD19B90A460846FEF702B8E7
:1070F000D1E900010022F9E738B5141E43680546BE
:1071000002DB62189A4200DD5C1A2A6850180119E5
:107110001A44521A00F0C4FE6A68121B6A6038BD35
:1071200037B50A4604460D4601ABD0E90001FFF72A
:10713000A5FE024638B101992046FFF7DDFF29463A
:107140002046FFF7EDFF03B030BD10B50C4629B95E
:107150000A460846BDE81040FDF7D4BF012120468D
:10716000FFF7DEFFD4E900010022F3E738B504465B
:107170001546FFF7B8FF00280ADB29462046FFF72F
:10718000E4FF002804DBBDE838400020FDF7C2BF63
:1071900038BD0B68036013B15A6801325A607047FA
:1071A00010B551F8043B044640F8043BFFF7F1FFEB
:1071B000204610BD70B5D0E90053044605EBC30668
:1071C000AE4204D0281DFEF75FFA0835F8E72068C4
:1071D000FEF7E8F8204670BD70B5D0E900530446CC
:1071E00005EBC306AE4204D0281DFEF74DFA083564
:1071F000F8E72068FEF7D6F8204670BD10B50446C3
:107200002430FFF7E9FF04F11800FFF7D3FF10BDAA
:1072100070B5174B1C6854B304F15400FEF746FDDB
:1072200004F14400FEF742FD04F13400FEF73EFD98
:1072300004F12400FEF73AFDD4E9065305EBC3063A
:10724000AE4204D0281DFEF71FFA0835F8E7A06902
:10725000FEF7A8F804F10C00FFF7BEFF2046FFF789
:10726000A9FF20466421BDE87040FDF770BB70BDEA
:1072700000E70320826810B50AB900F0CFFCBDE832
:107280001040C368184708B583688B4202DAFEF7DE
:1072900011FA08BD0120FCE72DE9F0410F464168D5
:1072A0001D461944836899420446904612DC2668BC
:1072B00062683E44D21B3146701900F0F1FD2A4647
:1072C0004146304600F0DEFD63682B4463600120D8
:1072D000BDE8F081FEF7EEF90028E8D1F8E7F8B54F
:1072E0000D46D0E901139942044616460BDA276889
:1072F00062687919521B481C00F0D2FD7E55636804
:1073000001336360F8BD0131FEF7D4F90028EED1F6
:10731000F8E70A464168FFF7E2BF2DE9F743044664
:107320001D460F4601AB90460A46D0E900019DF884
:107330002890FFF7A3FDAE1C63680246B9F1000F69
:1073400026D128B333441B1AFF2B09D801992046B4
:10735000FFF7D2FE616820463144FFF794FF18B969
:10736000606803B0BDE8F0836A1C0199D2B2204680
:10737000FFF7B5FF01993A4601312046FFF7AFFF0D
:1073800001992B46424602312046FFF785FFE7E789
:10739000F118FF29E4D82046FFF775FF0028DFD059
:1073A000691CC9B22046FFF7B4FF39462046FFF7F3
:1073B000B0FF61682B464246E6E730B49DF80850BE
:1073C0001AB1029530BCFFF7A8BF406830BC7047C7
:1073D0001FB50023C0E90033836006220093012318
:1073E0008DF80F2019460DF10F020446FFF7E5FF57
:1073F000204604B010BD07B5009313460A46FF218E
:10740000FFF7DBFF03B05DF804FB8842F8B50446E4
:107410000D46164614D9904213D2A2F10806751AE9
:10742000A1F108072C44B74218D01CB131462046C0
:10743000FFF7B6FE301DFEF727F9083E083CF2E7DD
:107440000CD0B5420AD01CB129462046FFF7A8FE51
:10745000281DFEF719F908350834F2E7F8BDF7B52D
:10746000044646686846FFF79BFED4E901739F42D5
:1074700012DB0137002F29DDF800FDF78BFF0546F1
:10748000F0B1D4E9001201EBC202FFF7BEFF2068A1
:10749000FDF788FF2560A7602368626803EBC606D6
:1074A00003EBC202314606F10800FFF7AEFF1EB142
:1074B00069463046FFF774FE636801336360012557
:1074C00001A8FEF7E1F8284603B0F0BD0025DEE78D
:1074D000F8B5D0E9004305460F4604EBC306A642C3
:1074E00005D039462046FFF76AFD08B114B9F8BD4A
:1074F0000834F4E7201DFEF7C7F8D5E9003204F19F
:10750000080103EBC2022046FFF77FFF6B68013BD7
:107510006B60ECE72DE9F04105468EB003A80C4600
:10752000FFF7C2FC2E68F31E0D2B3CD8DFE813F0EA
:107530000E0057003B00D3003B003B003B003B00EC
:107540003B009D009D009D009D009D0004A8FFF74D
:1075500001FD049BAA891A806968049808310230E9
:10756000FFF7BCFC04A906A8FFF71AFE06A904F160
:107570001800FFF774FF054607A8FEF785F8C5B9A0
:107580002023CDE906355E4B5E49009306AA2B46C3
:107590000120FDF74BFE049B29461888FDF7C2FD2C
:1075A00005A8FEF771F803A8FFF78CFC0EB0BDE844
:1075B000F081E36A23B104A904F12400FFF75AFE25
:1075C00005A8FEF761F820210023CDE906134E4AF5
:1075D00000924C4906AA0120FDF728FEE3E7A9899D
:1075E0002046FFF7A6FC06460028DCD00568D5E952
:1075F00006324FF6FF71298003EBC2029A4203D094
:1076000053F8080B4180F9E7D5E9037307EBC3088A
:10761000B84504D0381DFEF737F80837F8E70023DF
:107620002B61D5E9067307EBC308B84504D0381DB4
:10763000FEF72AF80837F8E70023EB61AB72E36B3B
:1076400023B1314604F13400FFF714FE33684FF6DE
:10765000FF721A80314604F11800FFF739FF20222B
:107660000023CDE90623294AB2E7A9892046FFF77E
:1076700060FC002897D0E36C002B94D000230D2EE3
:10768000ADF8163001D0102E17D1002369681A46C4
:1076900006258DF8153004918DF814200690DDE94B
:1076A000040109AB8DF81C60089583E80300236D85
:1076B00006A904F14400984775E70F2E01BF2B7A05
:1076C000696803F0010208250FBFC3F340031A469F
:1076D00019461D46DDE7A9892046FFF72AFC014629
:1076E00000283FF460AFE36D002B3FF45CAF6B68A4
:1076F000069306AA236E04F15400984753E700BF8F
:10770000B4840B004B840B00DA840B00E4840B0080
:10771000024800230360FDF7B5BC00BFFCE6032070
:1077200070474174704708B5007CFDF78BFC20EA78
:10773000E07008BD08B5007CFDF75CFC20EAE07055
:1077400008BD08B5007CFDF765FC40EAE07008BDA7
:1077500008B5007CFDF756FC40EAE07008BD007CEF
:10776000FDF760BC37B5457C04462DB1207C03B0E5
:10777000BDE83040FDF736BC007C0191FDF762FCAE
:1077800000280199F2DC284603B030BD10B5142161
:107790000446FDF7DCF8204610BD000010B54FF49C
:1077A0007A730446084611460022C4E90123044BBB
:1077B0002360012320746374FDF754FC204610BD40
:1077C00018850B00007C0023FDF744BC0022FFF766
:1077D000F9BF007CFDF7FEBB054B02221A60054B8A
:1077E000054A9A600020C3E90000FDF7A7BD00BF6D
:1077F00010E7032004E703200000FFFF10B5044654
:1078000008462170FDF79EFB00236360204610BDF3
:10781000002240681146FDF769BD0022406811460C
:10782000FDF774BD40680022FDF768BD4068002286
:1078300081F00101FDF752BD002340681A46194648
:10784000FDF744BD002340681A461946FDF736BDD2
:10785000002240681146FDF729BD0022406811460C
:10786000FDF714BD406800220221FDF717BD00237B
:1078700040681A46FDF702BD024B03225A60024AD5
:107880001A60704714E7032048850B0010B50446C2
:107890000068FDF787FD204610BD10B5044600685E
:1078A00008B1FDF77FFD0023C4E90133236010BD5B
:1078B00038B504460D4600680131FDF77BFD10B177
:1078C000C4E90005012038BD10B50368044623B1A2
:1078D00043688B4201D3012010BD2046FFF7E8FF2B
:1078E0000028F9D0A368002BF5D122681370F2E7C5
:1078F00037B50D46114601920446FFF7E5FF019AA0
:1079000028B92046FFF7C9FF204603B030BDA2606A
:107910002946206800F0B6FA2268A3680021D154F5
:10792000F2E738B5054600680C4668B16A688B68AE
:107930009A4207D3096800F01AFBA368AB600023E2
:10794000A36038BDFDF72EFD23682B6063686B6074
:10795000A368AB600023C4E90033F1E710B500234E
:10796000C0E90033044683600373FFF7DAFF204663
:1079700010BD884210B5044605D00B682BB18A684B
:107980001946FFF7B5FF204610BDFFF786FFFAE75F
:1079900010B500230446C0E9003383600373FFF78A
:1079A000E8FF204610BD704738B50A4B036001233D
:1079B000044643610849202000F02EF9202560602C
:1079C0000549A560284600F027F9C4E903052046CB
:1079D00038BD00BF180001007C850B0030B50E4D8E
:1079E0002978BFF35B8F11F0010487B011D12846CD
:1079F000FCF7BCFF68B16846FFF7D6FF6A46214630
:107A00000648FDF723FE2846FCF7B5FF044800F0C2
:107A10001BFA024807B030BD1CE7032020E7032013
:107A2000A7790B007047000038B5044614252A4694
:107A3000002100F04FFA258040250749258128467E
:107A4000258200F0E9F804496060284600F0E4F877
:107A5000E060204638BD00BF7C850B0030B50E4D80
:107A60002978BFF35B8F11F0010487B011D128464C
:107A7000FCF77CFF68B101A8FFF7D6FF01AA2146F9
:107A80000648FFF78BFE2846FCF775FF044800F018
:107A9000DBF9024807B030BD38E703203CE703209C
:107AA000257A0B00232813B502D9002002B010BD9F
:107AB000A0F10B03022B1AD8174C2178BFF35B8F70
:107AC00011F001010BD120460191FCF74FFF019904
:107AD00028B11248FFF792FE2046FCF74CFF0F4BEF
:107AE0001878FDF737FA0028DFD10120DEE70128FA
:107AF00009D8FFF773FF0021007CFDF75BFA80F0E7
:107B00000100C0B2D2E709380128EED8FFF7A6FF7E
:107B1000007CFDF78FFAF2E750E7032054E70320DB
:107B2000232838B504460D460AD8FF2908D0FFF7A8
:107B3000B9FF28B129462046BDE83840FDF726BBED
:107B400038BD38B504460D46FDF728FBFF2810D098
:107B5000062804D84D2323FA00F0C30709D4204691
:107B6000FFF7A0FF28B129462046BDE83840FDF7C1
:107B70001DBB38BD10B50446FDF710FB031FDBB27B
:107B8000012B08D92046FFF78DFF20B12046BDE824
:107B90001040FDF713BB002010BD0D2810B50446A2
:107BA0009CBF0E34A4B22046FFF77CFF50B10321E6
:107BB0002046FDF7E3FA032804D12046BDE8104033
:107BC000FDF70CBB002010BD38B504460D46FFF78D
:107BD00069FFF0B104212046FDF7D0FA042805D151
:107BE000A9B22046BDE83840FDF7F0BA0221204690
:107BF000FDF7C4FA02280CD12046FDF7CFFA012880
:107C000001D0042805D129462046BDE83840FDF7BB
:107C1000EDBA38BDFCF797BEFCF797BE08B5FDF787
:107C2000D9FB0000014900F0F9B800BF98850B00AE
:107C30007FB500241023CDE90234036815469E6900
:107C400012686B46CDE90044B0479DF8043003F05C
:107C50000603062B03BF009B2B600120204604B0C7
:107C600070BD0098904214BF0120062070470000AC
:107C700010B5034B0360044600F0CDF8204610BD5C
:107C8000D8850B0010B50446FFF7F2FF2046082107
:107C9000FCF75DFE204610BD2DE9F0411F46DDE9F1
:107CA0000834DDF8188098450646154607D107992F
:107CB00000F0B4F818B165710020BDE8F0813946D4
:107CC000304600F0ABF80028F6D00123C4F800805D
:107CD0002571A371F0E738B515461C4600F09EF8F3
:107CE00020B10823E36006232560237138BD73B5F6
:107CF00005460C4601921E4600F090F850B9032E3E
:107D000008D82368019A5B692946204602B0BDE87D
:107D10007040184702B070BD10B5034B03600446B5
:107D2000FFF7A6FF204610BD38860B0010B50446AD
:107D3000FFF7F2FF20460C21FCF709FE204610BD9C
:107D4000F7B5089F974205460E4614460AD0A86824
:107D500002680897156A31462246AC4603B0BDE872
:107D6000F04060471946019300F058F8019B002845
:107D7000EDD0062003B0F0BD2DE9F14F0D461946B8
:107D8000DDE90A4BDDE90CA681461746984600F06E
:107D900045F890B1002D3460377109DB61198A45CF
:107DA0000CBF06210121B171002001B0BDE8F08FA8
:107DB0000235F9D10123B371F6E7544506D159468E
:107DC000484600F02BF808B17771EDE7D9F80800C4
:107DD0000368CDE90CA6CDE90A4BDC693A46434677
:107DE0002946A44601B0BDE8F04F60472DE9F041B7
:107DF00007460C4615461E46FFF76DFF48B9B868A2
:107E000003689F692A4633462146BC46BDE8F041D7
:107E10006047BDE8F081704700207047814208B597
:107E20000ED0406803782A2B0CD049680B782A2B97
:107E300008BF0131FCF73AFDB0FA80F0400908BDF7
:107E40000120FCE70020FAE7002301461A46184605
:107E500000F04AB9024B1844407800F09700704790
:107E600005870B0010B501390244904201D1002072
:107E700005E0037811F8014FA34201D0181B10BD93
:107E80000130F2E70A44914200F1FF3300D170471C
:107E900010B511F8014B03F8014F9142F9D110BD13
:107EA000884210B501EB020402D98442234607D868
:107EB000431EA14208D011F8012B03F8012FF8E767
:107EC000024401468A4200D110BD13F8014D02F868
:107ED000014DF7E702440346934200D1704703F88F
:107EE000011BF9E738B5104B1D68AB6B0446B3B9FD
:107EF0001820FDF74FFA0246A86320B90B4B0C4837
:107F00004221FDF777FA0B490B4BC0E900130B4BED
:107F100083600B23838100210120C2E90401AB6B44
:107F200000221C615A6138BDB0E5032071860B0048
:107F300088860B000E33CDAB34126DE6ECDE050007
:107F4000C9B2034610F8012B1AB18A42F9D118467A
:107F50007047002918BF0023F9E710B50446FFF762
:107F6000EFFF18B92046FCF7ABFC204410BD0346D8
:107F700011F8012B03F8012B002AF9D1704710B535
:107F80007AB103460139841813F8010B11F8012F57
:107F9000904201D1A34201D1801A10BD0028F3D133
:107FA000FAE71046F9E738B503460C4669B9BDE86B
:107FB0003840FFF7C5BF431C054621461846FFF76A
:107FC000BFFF0028F7D1284638BD0025F5E700009F
:107FD000012B2DE9F04701D0242B06D9FDF702FA39
:107FE000162303600020BDE8F087DFF8E4C00D46EB
:107FF0002E4615F8014B14F80C7017F00807F7D14E
:108000002D2C32D12C780127B51C002B5BD0102BE6
:1080100009D1302C07D12C7804F0DF04582C4DD135
:108020006C781023023507F1004808F1FF384FF053
:10803000000CB8FBF3F9664603FB198AA4F1300E75
:10804000BEF1090F16D87446A34224DDBCF1000F1F
:108050001EDBB1451CD301D1A24519DB06FB03464B
:108060004FF0010C15F8014BE8E72B2C04BF2C78DE
:10807000B51CCAE7A4F1410EBEF1190F01D8373C77
:10808000E2E7A4F1610EBEF1190F04D8573CDBE71B
:108090004FF0FF3CE6E7BCF1000F05DA2223036056
:1080A000464642B930469EE707B17642002AF9D0EB
:1080B000BCF1000F00D0691E1160F3E73024002BE3
:1080C000B1D10823AFE7302CA5D00A23ABE700BF1E
:1080D00006870B0013460A46014602480068FFF770
:1080E00077BF00BFB0E503202DE9F843DFF8B88083
:1080F0000646D8F800001F460D46914600F056F897
:10810000254B1C6834B9254C1C60254B13B11B68EA
:10811000C4F8883063681F2B07DDD8F8000000F032
:1081200047F84FF0FF30BDE8F8834EB3D4F888002D
:1081300088B91C4B23B9D8F8000000F038F8F0E7F4
:108140004FF48470FDF726F90028F4D00023C0E92D
:108150004033C4F88800636840F8239001229A40B5
:1081600000EB8301D0F800311343C0F80031022E38
:10817000C1F8807002BFD0F804311343C0F8043155
:108180006368D8F800005A1C0233626044F8235038
:1081900000F00EF80020C6E7E8E703205CE70320C4
:1081A0000000000095530B0014E603207047704751
:1081B00070470000D1480B000D490B0035490B00FA
:1081C00039490B000000000043616C6C206F6E2089
:1081D00070757265207669727475616C006C757863
:1081E000203D207B25667D006D6F76656D656E7424
:1081F000203D207B25647D00636865636B203D2006
:1082000025780000000000000000000000000000D1
:108210000000000055490B007D490B0000000000E4
:108220000000000081490B00B5490B00656A0B0096
:10823000096C0B00000000000000000015540B004A
:108240001F540B0029540B0033540B003D540B00FA
:1082500049540B0055540B005D540B0065540B0042
:1082600071540B0079540B0083540B008D540B0098
:108270000000000000000000D7550B00CD550B009A
:10828000C3550B0079550B00B7550B00AB550B00D0
:1082900055540B005D540B009F550B0097550B0078
:1082A0008D550B0083550B008D540B000000000012
:1082B000000000000000000000000000F5550B0069
:1082C0003F560B0017560B00F7550B001F560B00BF
:1082D00027560B002F560B0037560B002564002540
:1082E00075007525303478000000000000000000A3
:1082F000B35A0B001B5B0B00F15A0B00B56D0B0062
:10830000E35A0B00B55A0B00C55A0B00155B0B0066
:10831000D55A0B00AD5A0B00000000000000000011
:10832000CD5B0B00BD5B0B00BF5B0B0025592D2502
:108330006D2D25645425483A254D3A2553257A005C
:1083400061736374696D6500626175640053657281
:1083500069616C0053657269616C31004A534F4E1C
:1083600053747265616D4C6F6748616E646C6572C1
:108370000061707000253031307520005D20002CC8
:10838000200028293A2000205B00636F6465203DAF
:10839000200025690064657461696C73203D2000CC
:1083A0000D0A006D0066006C6E00666E007400635E
:1083B0006F64650064657461696C00000000000012
:1083C00000000000395E0B005F5E0B001D5E0B00BD
:1083D00003570B0000000000000000000D630B00BD
:1083E00025630B00656A0B00096C0B0000000000A0
:1083F0000000000039630B004D630B00416C0B0063
:10840000255E0B000000000000000000375E0B003E
:108410006D5E0B00C9690B00275E0B0000000000B9
:1084200000000000355E0B007B5E0B0051620B000C
:108430009D5E0B00417373657274696F6E4661696E
:108440006C7572652066616C736500776972696E20
:10845000672E626C65005374617274206469736383
:108460006F766572696E672073657276696365738E
:108470002E00417373657274696F6E4661696C7525
:1084800072652068616C5F626C655F737461636BB9
:108490005F696E6974286E756C6C70747229203D0A
:1084A0003D2053595354454D5F4552524F525F4EF4
:1084B0004F4E45004661696C656420746F206170A1
:1084C00070656E6420706565722043656E747261BC
:1084D0006C206465766963652E00436F6E6E65631C
:1084E00074656400446973636F6E6E65637465647C
:1084F000000000000000000000000000476E0B00BC
:10850000696E0B00FD710B00776E0B00496E0B005E
:10851000000000000000000021770B008D770B00A9
:1085200065770B00B56D0B0035770B0051770B00AD
:1085300043770B005F770B0023770B0027770B0047
:1085400000000000000000006F780B0065780B0051
:108550005B780B0051780B0045780B0039780B00E5
:1085600055540B005D540B002D780B0025780B0043
:108570001B780B0011780B008D540B0000537431E5
:10858000395F53705F6D616B655F736861726564BD
:108590005F74616700000000D8850B007D850B00CB
:1085A00038860B00AC850B005C860B004E31305FCB
:1085B0005F637878616269763131375F5F636C61E0
:1085C00073735F747970655F696E666F4500000054
:1085D00000000000A0850B00717C0B00857C0B0067
:1085E000197E0B00197E0B00EF7C0B00317C0B0019
:1085F000D77C0B00997C0B00637C0B0038860B004A
:1086000008860B00A0850B004E31305F5F637878E1
:10861000616269763132305F5F73695F636C617389
:10862000735F747970655F696E666F450000000066
:1086300000000000FC850B00197D0B002D7D0B0058
:10864000197E0B00197E0B00EF7C0B00317C0B00B8
:10865000ED7D0B00797D0B00417D0B00D8850B0073
:1086600064860B00537439747970655F696E666F48
:10867000005245454E54206D616C6C6F63207375DC
:1086800063636565646564002F6D6E742F776F7228
:108690006B73706163652F776F726B737061636565
:1086A0002F4743432D31302D706970656C696E65BD
:1086B0002F6A656E6B696E732D4743432D31302DE4
:1086C000706970656C696E652D34385F3230323098
:1086D000313132345F313630363138303634312F43
:1086E0007372632F6E65776C69622F6E65776C6944
:1086F000622F6C6962632F7374646C69622F72619C
:108700006E642E63000020202020202020202028BE
:108710002828282820202020202020202020202039
:108720002020202020208810101010101010101071
:1087300010101010101004040404040404040404B1
:108740001010101010101041414141414101010130
:108750000101010101010101010101010101010109
:108760000110101010101042424242424202020216
:1087700002020202020202020202020202020202D9
:108780000210101010200000000000000000000087
:1087900000000000000000000000000000000000D9
:1087A00000000000000000000000000000000000C9
:1087B00000000000000000000000000000000000B9
:1087C00000000000000000000000000000000000A9
:1087D0000000000000000000000000000000000099
:1087E0000000000000000000000000000000000089
:1087F0000000000000000000000000000000000079
:108800000000000000000000314E0B0065550B0019
:10881000E1550B00FD5D0B00095E0B00556A0B0076
:0C88200011770B00D9770B0079780B0062
:10882C00040000001400000003000000474E550037
:10883C0025B2AB43A41986110AC7AF89E0757D40F8
:04884C00AAFCE01092
:1088500013000000110000000F00000005000000E0
:10886000CC0200000300000002000000070000002E
:108870000800000006000000C800000040830B0054
:108880000C840B0024840B00B4E5032000000000DE
:1088900000000000000000000000000000000000D8
:1088A00000000000000000000000000000000000C8
:1088B00000000000000000000000000000000000B8
:1088C00000000000000000000000000000000000A8
:1088D0000000000000000000000000000000000098
:1088E000000000000000000000000000ECE7032092
:0488F0000000000084
:1088FA0000000102030405060708090A0B0C0D0E05
:10890A000F101112131415161718191A1B1C1D1EF5
:04891A001F202800F2
:04891E007856341241
:04000003B0004020E9
:00000001FF
